{
	"data": {
		"bytecode": {
			"linkReferences": {},
			"object": "608060405260405161955338038061955383398181016040528101906100259190610c6f565b5f80819055504360038190555061003a610667565b61004a828261005160201b60201c565b50506113ef565b6100596106e0565b61007960045f9054906101000a900460ff1615600d6104d560201b60201c565b7faf39f1e9d61df325467cf61d18a0fae57850e276b6ad4443a127ca1fa0cb37f333846040516100aa929190610e32565b60405180910390a16100d75f845f015114806100ca5750835f0151600154145b600e6104d560201b60201c565b5f815f01515f0181815250505f815f015160200181815250505f815f01516040019015159081151581525050805f015181602001515f6002811061011e5761011d610e5a565b5b6020020181905250805f0151816020015160016002811061014257610141610e5a565b5b60200201819052505f81604001515f6002811061016257610161610e5a565b5b602002019073ffffffffffffffffffffffffffffffffffffffff16908173ffffffffffffffffffffffffffffffffffffffff16815250505f81604001516001600281106101b2576101b1610e5a565b5b602002019073ffffffffffffffffffffffffffffffffffffffff16908173ffffffffffffffffffffffffffffffffffffffff168152505061025881602001515f60405180606001604052805f815260200185602001515f6002811061021a57610219610e5a565b5b602002015160200151815260200185602001515f6002811061023f5761023e610e5a565b5b602002015160400151151581525061051b60201b60201c565b81606001819052506102b4836040015173ffffffffffffffffffffffffffffffffffffffff168460c0015173ffffffffffffffffffffffffffffffffffffffff16146102a55760016102a7565b5f5b600f6104d560201b60201c565b6102c75f341460106104d560201b60201c565b6102cf610720565b33815f019073ffffffffffffffffffffffffffffffffffffffff16908173ffffffffffffffffffffffffffffffffffffffff1681525050836020015181602001819052508360400151816040019073ffffffffffffffffffffffffffffffffffffffff16908173ffffffffffffffffffffffffffffffffffffffff168152505083606001518160600181905250836080015181608001819052508360a001518160a0019073ffffffffffffffffffffffffffffffffffffffff16908173ffffffffffffffffffffffffffffffffffffffff16815250508360c001518160c0019073ffffffffffffffffffffffffffffffffffffffff16908173ffffffffffffffffffffffffffffffffffffffff16815250506104538260600151600160405180606001604052805f8152602001866060015160016002811061041457610413610e5a565b5b6020020151602001518152602001866060015160016002811061043a57610439610e5a565b5b602002015160400151151581525061051b60201b60201c565b8160e0018190525061048961047783604001515f876040015161059260201b60201c565b60018660c0015161059260201b60201c565b81610100018190525060015f8190555043600181905550806040516020016104b191906110ad565b604051602081830303815290604052600290816104ce91906112cb565b5050505050565b8161051757806040517f100960cb00000000000000000000000000000000000000000000000000000000815260040161050e91906113a9565b60405180910390fd5b5050565b6105236107de565b5f5b600281101561056e5784816002811061054157610540610e5a565b5b602002015182826002811061055957610558610e5a565b5b60200201819052508080600101915050610525565b508181846002811061058357610582610e5a565b5b60200201819052509392505050565b61059a61080b565b5f5b6002811015610614578481600281106105b8576105b7610e5a565b5b60200201518282600281106105d0576105cf610e5a565b5b602002019073ffffffffffffffffffffffffffffffffffffffff16908173ffffffffffffffffffffffffffffffffffffffff1681525050808060010191505061059c565b508181846002811061062957610628610e5a565b5b602002019073ffffffffffffffffffffffffffffffffffffffff16908173ffffffffffffffffffffffffffffffffffffffff16815250509392505050565b6040518061016001604052805f151581526020015f151581526020015f151581526020015f151581526020015f151581526020016106a361082d565b81526020016106b061088f565b81526020016106bd6108c3565b81526020015f151581526020015f151581526020016106da6108fc565b81525090565b60405180608001604052806106f3610940565b81526020016107006107de565b815260200161070d61080b565b815260200161071a6107de565b81525090565b6040518061012001604052805f73ffffffffffffffffffffffffffffffffffffffff16815260200161075061082d565b81526020015f73ffffffffffffffffffffffffffffffffffffffff16815260200161077961082d565b815260200161078661088f565b81526020015f73ffffffffffffffffffffffffffffffffffffffff1681526020015f73ffffffffffffffffffffffffffffffffffffffff1681526020016107cb6107de565b81526020016107d861080b565b81525090565b60405180604001604052806002905b6107f5610940565b8152602001906001900390816107ed5790505090565b6040518060400160405280600290602082028036833780820191505090505090565b6040518060c001604052805f151581526020015f81526020015f73ffffffffffffffffffffffffffffffffffffffff1681526020015f151581526020015f151581526020015f73ffffffffffffffffffffffffffffffffffffffff1681525090565b60405180606001604052805f81526020015f73ffffffffffffffffffffffffffffffffffffffff1681526020015f81525090565b60405180606001604052805f60018111156108e1576108e06113c2565b5b81526020015f151581526020016108f66108fc565b81525090565b6040518060a001604052805f81526020015f73ffffffffffffffffffffffffffffffffffffffff1681526020015f81526020015f151581526020015f151581525090565b60405180606001604052805f81526020015f81526020015f151581525090565b5f604051905090565b5f80fd5b5f80fd5b5f601f19601f8301169050919050565b7f4e487b71000000000000000000000000000000000000000000000000000000005f52604160045260245ffd5b6109b782610971565b810181811067ffffffffffffffff821117156109d6576109d5610981565b5b80604052505050565b5f6109e8610960565b90506109f482826109ae565b919050565b5f819050919050565b610a0b816109f9565b8114610a15575f80fd5b50565b5f81519050610a2681610a02565b92915050565b5f8115159050919050565b610a4081610a2c565b8114610a4a575f80fd5b50565b5f81519050610a5b81610a37565b92915050565b5f73ffffffffffffffffffffffffffffffffffffffff82169050919050565b5f610a8a82610a61565b9050919050565b610a9a81610a80565b8114610aa4575f80fd5b50565b5f81519050610ab581610a91565b92915050565b5f60c08284031215610ad057610acf61096d565b5b610ada60c06109df565b90505f610ae984828501610a4d565b5f830152506020610afc84828501610a18565b6020830152506040610b1084828501610aa7565b6040830152506060610b2484828501610a4d565b6060830152506080610b3884828501610a4d565b60808301525060a0610b4c84828501610aa7565b60a08301525092915050565b5f60608284031215610b6d57610b6c61096d565b5b610b7760606109df565b90505f610b8684828501610a18565b5f830152506020610b9984828501610aa7565b6020830152506040610bad84828501610a18565b60408301525092915050565b5f6102608284031215610bcf57610bce61096d565b5b610bd960e06109df565b90505f610be884828501610a18565b5f830152506020610bfb84828501610abb565b60208301525060e0610c0f84828501610aa7565b604083015250610100610c2484828501610abb565b6060830152506101c0610c3984828501610b58565b608083015250610220610c4e84828501610aa7565b60a083015250610240610c6384828501610aa7565b60c08301525092915050565b5f6102608284031215610c8557610c84610969565b5b5f610c9284828501610bb9565b91505092915050565b5f610ca582610a61565b9050919050565b610cb581610c9b565b82525050565b610cc4816109f9565b82525050565b610cd381610a2c565b82525050565b610ce281610a80565b82525050565b60c082015f820151610cfc5f850182610cca565b506020820151610d0f6020850182610cbb565b506040820151610d226040850182610cd9565b506060820151610d356060850182610cca565b506080820151610d486080850182610cca565b5060a0820151610d5b60a0850182610cd9565b50505050565b606082015f820151610d755f850182610cbb565b506020820151610d886020850182610cd9565b506040820151610d9b6040850182610cbb565b50505050565b61026082015f820151610db65f850182610cbb565b506020820151610dc96020850182610ce8565b506040820151610ddc60e0850182610cd9565b506060820151610df0610100850182610ce8565b506080820151610e046101c0850182610d61565b5060a0820151610e18610220850182610cd9565b5060c0820151610e2c610240850182610cd9565b50505050565b5f61028082019050610e465f830185610cac565b610e536020830184610da1565b9392505050565b7f4e487b71000000000000000000000000000000000000000000000000000000005f52603260045260245ffd5b5f60029050919050565b5f81905092915050565b5f819050919050565b606082015f820151610eb85f850182610cbb565b506020820151610ecb6020850182610cbb565b506040820151610ede6040850182610cca565b50505050565b5f610eef8383610ea4565b60608301905092915050565b5f602082019050919050565b610f1081610e87565b610f1a8184610e91565b9250610f2582610e9b565b805f5b83811015610f55578151610f3c8782610ee4565b9650610f4783610efb565b925050600181019050610f28565b505050505050565b5f60029050919050565b5f81905092915050565b5f819050919050565b5f610f858383610cd9565b60208301905092915050565b5f602082019050919050565b610fa681610f5d565b610fb08184610f67565b9250610fbb82610f71565b805f5b83811015610feb578151610fd28782610f7a565b9650610fdd83610f91565b925050600181019050610fbe565b505050505050565b61036082015f8201516110085f850182610cd9565b50602082015161101b6020850182610ce8565b50604082015161102e60e0850182610cd9565b506060820151611042610100850182610ce8565b5060808201516110566101c0850182610d61565b5060a082015161106a610220850182610cd9565b5060c082015161107e610240850182610cd9565b5060e0820151611092610260850182610f07565b506101008201516110a7610320850182610f9d565b50505050565b5f610360820190506110c15f830184610ff3565b92915050565b5f81519050919050565b7f4e487b71000000000000000000000000000000000000000000000000000000005f52602260045260245ffd5b5f600282049050600182168061111557607f821691505b602082108103611128576111276110d1565b5b50919050565b5f819050815f5260205f209050919050565b5f6020601f8301049050919050565b5f82821b905092915050565b5f6008830261118a7fffffffffffffffffffffffffffffffffffffffffffffffffffffffffffffffff8261114f565b611194868361114f565b95508019841693508086168417925050509392505050565b5f819050919050565b5f6111cf6111ca6111c5846109f9565b6111ac565b6109f9565b9050919050565b5f819050919050565b6111e8836111b5565b6111fc6111f4826111d6565b84845461115b565b825550505050565b5f90565b611210611204565b61121b8184846111df565b505050565b5b8181101561123e576112335f82611208565b600181019050611221565b5050565b601f821115611283576112548161112e565b61125d84611140565b8101602085101561126c578190505b61128061127885611140565b830182611220565b50505b505050565b5f82821c905092915050565b5f6112a35f1984600802611288565b1980831691505092915050565b5f6112bb8383611294565b9150826002028217905092915050565b6112d4826110c7565b67ffffffffffffffff8111156112ed576112ec610981565b5b6112f782546110fe565b611302828285611242565b5f60209050601f831160018114611333575f8415611321578287015190505b61132b85826112b0565b865550611392565b601f1984166113418661112e565b5f5b8281101561136857848901518255600182019150602085019450602081019050611343565b868310156113855784890151611381601f891682611294565b8355505b6001600288020188555050505b505050505050565b6113a3816109f9565b82525050565b5f6020820190506113bc5f83018461139a565b92915050565b7f4e487b71000000000000000000000000000000000000000000000000000000005f52602160045260245ffd5b618157806113fc5f395ff3fe608060405260043610610101575f3560e01c80639069217c11610094578063bcfa3e3411610063578063bcfa3e341461031b578063c5618ae81461034b578063c8b1193714610387578063d3a4a317146103b7578063e9e71ad5146103e757610108565b80639069217c146102605780639b4a40f014610290578063ab53f2c6146102c0578063ae561407146102eb57610108565b806341712c0a116100d057806341712c0a146101a65780634c414b87146101d6578063573b851014610206578063832307571461023657610108565b8063039c12841461010a57806306b56453146101345780630bdddce11461015e5780631e93b0f11461017c57610108565b3661010857005b005b348015610115575f80fd5b5061011e610423565b60405161012b9190616146565b60405180910390f35b34801561013f575f80fd5b5061014861044a565b604051610155919061619f565b60405180910390f35b610166610471565b60405161017391906161c7565b60405180910390f35b348015610187575f80fd5b50610190610492565b60405161019d91906161ef565b60405180910390f35b6101c060048036038101906101bb9190616237565b61049b565b6040516101cd91906161c7565b60405180910390f35b6101f060048036038101906101eb9190616281565b6104c4565b6040516101fd91906161c7565b60405180910390f35b610220600480360381019061021b9190616237565b6104ed565b60405161022d91906161c7565b60405180910390f35b348015610241575f80fd5b5061024a610516565b60405161025791906161ef565b60405180910390f35b61027a600480360381019061027591906162cb565b61051f565b60405161028791906161c7565b60405180910390f35b6102aa60048036038101906102a59190616320565b61054f565b6040516102b791906161c7565b60405180910390f35b3480156102cb575f80fd5b506102d461056f565b6040516102e29291906163bb565b60405180910390f35b61030560048036038101906103009190616407565b610608565b60405161031291906161c7565b60405180910390f35b61033560048036038101906103309190616320565b610638565b60405161034291906161c7565b60405180910390f35b348015610356575f80fd5b50610371600480360381019061036c9190616320565b610659565b60405161037e919061654b565b60405180910390f35b6103a1600480360381019061039c9190616582565b610680565b6040516103ae9190616613565b60405180910390f35b6103d160048036038101906103cc919061664a565b6106b8565b6040516103de91906161c7565b60405180910390f35b3480156103f2575f80fd5b5061040d60048036038101906104089190616320565b6106e8565b60405161041a919061654b565b60405180910390f35b61042b6154a0565b610433615502565b5f61043e8183610700565b8160a001519250505090565b61045261557b565b61045a615502565b5f610465818361088d565b8160c001519250505090565b5f61047a615502565b5f6104858183610a1a565b8161010001519250505090565b5f600354905090565b5f6104a4615502565b6104be838036038101906104b8919061672a565b82610a9b565b50919050565b5f6104cd615502565b6104e7838036038101906104e19190616b9d565b82610d78565b50919050565b5f6104f6615502565b6105108380360381019061050a919061672a565b826141b4565b50919050565b5f600154905090565b5f610528615502565b6105428380360381019061053c9190616bc9565b82614690565b8060200151915050919050565b5f610558615502565b6105628382614714565b8060400151915050919050565b5f60605f54600280805461058290616c21565b80601f01602080910402602001604051908101604052809291908181526020018280546105ae90616c21565b80156105f95780601f106105d0576101008083540402835291602001916105f9565b820191905f5260205f20905b8154815290600101906020018083116105dc57829003601f168201915b50505050509050915091509091565b5f610611615502565b61062b838036038101906106259190616c51565b8261479a565b8060800151915050919050565b5f610641615502565b61064b838261481f565b806101200151915050919050565b6106616155af565b610669615502565b61067383826148a5565b8060e00151915050919050565b6106886155e8565b610690615502565b6106aa838036038101906106a49190616c7c565b82614a39565b806101400151915050919050565b5f6106c1615502565b6106db838036038101906106d59190616ca7565b82614abe565b8060600151915050919050565b6106f06155af565b6106f982614b43565b9050919050565b60055f5410156107cb5761071960035f54146007614d01565b5f6002805461072790616c21565b80601f016020809104026020016040519081016040528092919081815260200182805461075390616c21565b801561079e5780601f106107755761010080835404028352916020019161079e565b820191905f5260205f20905b81548152906001019060200180831161078157829003601f168201915b50505050508060200190518101906107b69190616fd8565b90508060a001518260a0018190525050610889565b6107da60055f54146008614d01565b5f600280546107e890616c21565b80601f016020809104026020016040519081016040528092919081815260200182805461081490616c21565b801561085f5780601f106108365761010080835404028352916020019161085f565b820191905f5260205f20905b81548152906001019060200180831161084257829003601f168201915b50505050508060200190518101906108779190617368565b90508061016001518260a00181905250505b5050565b60055f541015610958576108a660035f54146009614d01565b5f600280546108b490616c21565b80601f01602080910402602001604051908101604052809291908181526020018280546108e090616c21565b801561092b5780601f106109025761010080835404028352916020019161092b565b820191905f5260205f20905b81548152906001019060200180831161090e57829003601f168201915b50505050508060200190518101906109439190616fd8565b90508060c001518260c0018190525050610a16565b61096760055f5414600a614d01565b5f6002805461097590616c21565b80601f01602080910402602001604051908101604052809291908181526020018280546109a190616c21565b80156109ec5780601f106109c3576101008083540402835291602001916109ec565b820191905f5260205f20905b8154815290600101906020018083116109cf57829003601f168201915b5050505050806020019051810190610a049190617368565b90508061018001518260c00181905250505b5050565b610a2261562c565b600481602001515f01906006811115610a3e57610a3d616432565b5b90816006811115610a5257610a51616432565b5b81525050805f0151816020015160a0019015159081151581525050610a7561564d565b5f815f01818152505081602001518160200181905250610a958184610d78565b50505050565b610aaa60035f54146017614d01565b5f60028054610ab890616c21565b80601f0160208091040260200160405190810160405280929190818152602001828054610ae490616c21565b8015610b2f5780601f10610b0657610100808354040283529160200191610b2f565b820191905f5260205f20905b815481529060010190602001808311610b1257829003601f168201915b5050505050806020019051810190610b479190616fd8565b9050610b6360045f9054906101000a900460ff16156018614d01565b7fd8b4bef0baf1b43e1c773ecc562857f82f7aa078ea677386f72396872c0e85153384604051610b949291906173ce565b60405180910390a1610bbb5f845f01511480610bb45750835f0151600154145b6019614d01565b610bc85f3414601a614d01565b610c043373ffffffffffffffffffffffffffffffffffffffff16825f015173ffffffffffffffffffffffffffffffffffffffff1614601b614d01565b805f015173ffffffffffffffffffffffffffffffffffffffff166108fc826080015190811502906040515f60405180830381858888f19350505050158015610c4e573d5f803e3d5ffd5b50610c7f8160200151825f015183606001515f60028110610c7257610c716173f5565b5b60200201515f0151614d47565b610d598160400151825f0151610d3984606001515f6040518060600160405280610ce589606001515f60028110610cb957610cb86173f5565b5b60200201515f01518a606001515f60028110610cd857610cd76173f5565b5b60200201515f0151614d5f565b815260200188606001515f60028110610d0157610d006173f5565b5b602002015160200151815260200188606001515f60028110610d2657610d256173f5565b5b6020020151604001511515815250614d6b565b600160028110610d4c57610d4b6173f5565b5b60200201515f0151614d47565b5f80819055505f60018190555060025f610d73919061566c565b505050565b610d806156a9565b610d8f60055f5414601c614d01565b5f60028054610d9d90616c21565b80601f0160208091040260200160405190810160405280929190818152602001828054610dc990616c21565b8015610e145780601f10610deb57610100808354040283529160200191610e14565b820191905f5260205f20905b815481529060010190602001808311610df757829003601f168201915b5050505050806020019051810190610e2c9190617368565b9050610e4860045f9054906101000a900460ff1615601d614d01565b7f69eb49a6ebd794337a78552fcbccaed0875daf8421b7b9101c8a4c840e7566b93385604051610e799291906176a2565b60405180910390a1610ea05f855f01511480610e995750845f0151600154145b601e614d01565b5f6006811115610eb357610eb2616432565b5b84602001515f01516006811115610ecd57610ecc616432565b5b036113fa57836020015160200151825f0181905250610f5d815f015173ffffffffffffffffffffffffffffffffffffffff163373ffffffffffffffffffffffffffffffffffffffff1614610f53573373ffffffffffffffffffffffffffffffffffffffff16826060015173ffffffffffffffffffffffffffffffffffffffff1614610f56565b60015b601f614d01565b610f7e81610100015160c00151610f75576001610f77565b5f5b6020614d01565b610f92816101000151608001516021614d01565b610fa5825f01515f015160400151614b43565b8260200181905250610fd4600183602001515f01516001811115610fcc57610fcb616432565b5b146022614d01565b610fe15f34146023614d01565b610ffa610ff33383608001515f614de2565b6024614d01565b5f82604001515f0181815250508060c0015182604001516020019073ffffffffffffffffffffffffffffffffffffffff16908173ffffffffffffffffffffffffffffffffffffffff16815250505f826040015160400181815250505f826040015160600190151590811515815250505f826040015160800190151590811515815250507f14a1936306c7026159dce85a426eb017f936c4a92feeef18e50bd2c2b887ae2c5f6040516110ac91906161c7565b60405180910390a15f836020019015159081151581525050600182606001515f019060018111156110e0576110df616432565b5b908160018111156110f4576110f3616432565b5b8152505060018081111561110b5761110a616432565b5b82602001515f0151600181111561112557611124616432565b5b1461113457816040015161113e565b8160200151604001515b6020015182606001516040019073ffffffffffffffffffffffffffffffffffffffff16908173ffffffffffffffffffffffffffffffffffffffff1681525050816060015182608001515f018190525080610100015160200151826080015160200181815250508061016001518260800151604001819052508061010001516060015182608001516060019015159081151581525050600182608001516080019015159081151581525050806101800151826080015160a001819052506001826080015160c001901515908115158152505080610100015160e00151826080015160e00181815250508061010001516101000151826080015161010001818152505080610100015161012001518260800151610120018181525050611260615a3e565b815f0151815f019073ffffffffffffffffffffffffffffffffffffffff16908173ffffffffffffffffffffffffffffffffffffffff1681525050816020015181602001819052508160400151816040019073ffffffffffffffffffffffffffffffffffffffff16908173ffffffffffffffffffffffffffffffffffffffff16815250508160600151816060019073ffffffffffffffffffffffffffffffffffffffff16908173ffffffffffffffffffffffffffffffffffffffff16815250508160800151816080019073ffffffffffffffffffffffffffffffffffffffff16908173ffffffffffffffffffffffffffffffffffffffff16815250508160a001518160a001819052508160c001518160c0019073ffffffffffffffffffffffffffffffffffffffff16908173ffffffffffffffffffffffffffffffffffffffff16815250508160e001518160e001818152505082608001518161010001819052504381610120018181525050816101200151816101400181905250816101400151816101600181815250506113f48185614df8565b506141ae565b6001600681111561140e5761140d616432565b5b84602001515f0151600681111561142857611427616432565b5b036117ca576114a8815f015173ffffffffffffffffffffffffffffffffffffffff163373ffffffffffffffffffffffffffffffffffffffff161461149e573373ffffffffffffffffffffffffffffffffffffffff16826060015173ffffffffffffffffffffffffffffffffffffffff16146114a1565b60015b6025614d01565b6114c981610100015160c001516114c05760016114c2565b5f5b6026614d01565b6114dd816101000151608001516027614d01565b6114ea5f34146028614d01565b6115036114fc3383608001515f614de2565b6029614d01565b7fc53c50351ad4befab2b017480eec17d813fd6d45a3e5ce3b15ef70aa018346975f60405161153291906161c7565b60405180910390a15f8360400190151590811515815250508061010001515f01518260a001515f0181905250806101000151602001518260a0015160200181815250508061016001518260a00151604001819052505f8260a00151606001901515908115158152505060018260a0015160800190151590811515815250508061018001518260a0015160a0018190525080610100015160c001518260a0015160c001901515908115158152505080610100015160e001518260a0015160e001818152505080610100015161010001518260a0015161010001818152505080610100015161012001518260a00151610120018181525050611630615a3e565b815f0151815f019073ffffffffffffffffffffffffffffffffffffffff16908173ffffffffffffffffffffffffffffffffffffffff1681525050816020015181602001819052508160400151816040019073ffffffffffffffffffffffffffffffffffffffff16908173ffffffffffffffffffffffffffffffffffffffff16815250508160600151816060019073ffffffffffffffffffffffffffffffffffffffff16908173ffffffffffffffffffffffffffffffffffffffff16815250508160800151816080019073ffffffffffffffffffffffffffffffffffffffff16908173ffffffffffffffffffffffffffffffffffffffff16815250508160a001518160a001819052508160c001518160c0019073ffffffffffffffffffffffffffffffffffffffff16908173ffffffffffffffffffffffffffffffffffffffff16815250508160e001518160e00181815250508260a001518161010001819052504381610120018181525050816101200151816101400181905250816101400151816101600181815250506117c48185614df8565b506141ad565b600260068111156117de576117dd616432565b5b84602001515f015160068111156117f8576117f7616432565b5b03611baa578360200151606001518260c00181905250611889815f015173ffffffffffffffffffffffffffffffffffffffff163373ffffffffffffffffffffffffffffffffffffffff161461187f573373ffffffffffffffffffffffffffffffffffffffff16826060015173ffffffffffffffffffffffffffffffffffffffff1614611882565b60015b602a614d01565b6118aa81610100015160c001516118a15760016118a3565b5f5b602b614d01565b6118b75f3414602c614d01565b6118d06118c93383608001515f614de2565b602d614d01565b7fe6d6036a1f698eae13cdb88b5c9ca009f6aa1787e61a6e8f5655af6b9f6d620f5f6040516118ff91906161c7565b60405180910390a15f8360600190151590811515815250508061010001515f01518260e001515f0181905250806101000151602001518260e0015160200181815250508160c001515f01518260e0015160400181905250806101000151606001518260e001516060019015159081151581525050806101000151608001518260e0015160800190151590811515815250508061018001518260e0015160a0018190525080610100015160c001518260e0015160c001901515908115158152505080610100015160e001518260e0015160e001818152505080610100015161010001518260e0015161010001818152505080610100015161012001518260e00151610120018181525050611a10615a3e565b815f0151815f019073ffffffffffffffffffffffffffffffffffffffff16908173ffffffffffffffffffffffffffffffffffffffff1681525050816020015181602001819052508160400151816040019073ffffffffffffffffffffffffffffffffffffffff16908173ffffffffffffffffffffffffffffffffffffffff16815250508160600151816060019073ffffffffffffffffffffffffffffffffffffffff16908173ffffffffffffffffffffffffffffffffffffffff16815250508160800151816080019073ffffffffffffffffffffffffffffffffffffffff16908173ffffffffffffffffffffffffffffffffffffffff16815250508160a001518160a001819052508160c001518160c0019073ffffffffffffffffffffffffffffffffffffffff16908173ffffffffffffffffffffffffffffffffffffffff16815250508160e001518160e00181815250508260e00151816101000181905250438161012001818152505081610120015181610140018190525081610140015181610160018181525050611ba48185614df8565b506141ac565b60036006811115611bbe57611bbd616432565b5b84602001515f01516006811115611bd857611bd7616432565b5b03611f9757836020015160800151826101000181905250611c6a815f015173ffffffffffffffffffffffffffffffffffffffff163373ffffffffffffffffffffffffffffffffffffffff1614611c60573373ffffffffffffffffffffffffffffffffffffffff16826060015173ffffffffffffffffffffffffffffffffffffffff1614611c63565b60015b602e614d01565b611c8b81610100015160c00151611c82576001611c84565b5f5b602f614d01565b611c985f34146030614d01565b611cb1611caa3383608001515f614de2565b6031614d01565b7ff28acb61a46d457db8cbff02e80006b657b0552908026506fa8efc5aa5ba845b5f604051611ce091906161c7565b60405180910390a15f8360800190151590811515815250508061010001515f01518261012001515f0181905250806101000151602001518261012001516020018181525050806101600151826101200151604001819052508061010001516060015182610120015160600190151590811515815250508061010001516080015182610120015160800190151590811515815250508161010001515f015182610120015160a0018190525080610100015160c0015182610120015160c001901515908115158152505080610100015160e0015182610120015160e001818152505080610100015161010001518261012001516101000181815250508061010001516101200151826101200151610120018181525050611dfc615a3e565b815f0151815f019073ffffffffffffffffffffffffffffffffffffffff16908173ffffffffffffffffffffffffffffffffffffffff1681525050816020015181602001819052508160400151816040019073ffffffffffffffffffffffffffffffffffffffff16908173ffffffffffffffffffffffffffffffffffffffff16815250508160600151816060019073ffffffffffffffffffffffffffffffffffffffff16908173ffffffffffffffffffffffffffffffffffffffff16815250508160800151816080019073ffffffffffffffffffffffffffffffffffffffff16908173ffffffffffffffffffffffffffffffffffffffff16815250508160a001518160a001819052508160c001518160c0019073ffffffffffffffffffffffffffffffffffffffff16908173ffffffffffffffffffffffffffffffffffffffff16815250508160e001518160e0018181525050826101200151816101000181905250438161012001818152505081610120015181610140018190525081610140015181610160018181525050611f918185614df8565b506141ab565b60046006811115611fab57611faa616432565b5b84602001515f01516006811115611fc557611fc4616432565b5b0361298c57611fde816101000151608001516032614d01565b611fff81610100015160c00151611ff6576001611ff8565b5f5b6033614d01565b5f8261014001515f01818152505080608001518261014001516020019073ffffffffffffffffffffffffffffffffffffffff16908173ffffffffffffffffffffffffffffffffffffffff16815250508060e001518261016001515f018181525050816101400151826101600151602001819052508060e001518261018001515f01818152505080608001518261018001516020019073ffffffffffffffffffffffffffffffffffffffff16908173ffffffffffffffffffffffffffffffffffffffff16815250505f826101a001515f018181525050816101800151826101a00151602001819052508060200151606001516120ff57816101a00151612106565b8161016001515b826101c00181905250612124826101c001515f015134146034614d01565b6121c881610120015160016040518060600160405280612170866101200151600160028110612156576121556173f5565b5b60200201515f0151886101c00151602001515f015161515b565b815260200185610120015160016002811061218e5761218d6173f5565b5b60200201516020015181526020018561012001516001600281106121b5576121b46173f5565b5b6020020151604001511515815250614d6b565b826101e001819052506121f66121ef338360800151856101c00151602001515f0151614de2565b6035614d01565b7fb40fc21da4b7cab320b6643ae46cac31bbb4d45aff3654fdc57aad27f8baf6415f60405161222591906161c7565b60405180910390a15f83610100019015159081151581525050805f015173ffffffffffffffffffffffffffffffffffffffff166108fc836101c001515f015190811502906040515f60405180830381858888f1935050505015801561228c573d5f803e3d5ffd5b505f8261020001515f0190151590811515815250505f82610200015160200181815250508161020001518261024001819052505f5b6002811015612403578160a0015181600281106122e1576122e06173f5565b5b602002015183610260019073ffffffffffffffffffffffffffffffffffffffff16908173ffffffffffffffffffffffffffffffffffffffff16815250505f8361028001515f01901515908115158152505061234683610240015160200151600161515b565b83610280015160200181815250506001836102a001515f01901515908115158152505082610240015160200151836102a0015160200181815250508261024001515f01516123d457826101c00151602001516020015173ffffffffffffffffffffffffffffffffffffffff1683610260015173ffffffffffffffffffffffffffffffffffffffff16146123d7565b60015b6123e6578261028001516123ed565b826102a001515b83610240018190525080806001019150506122c1565b50816102400151826102200181905250816102000151826102e001819052505f5b6002811015612566578160a001518160028110612444576124436173f5565b5b602002015183610300019073ffffffffffffffffffffffffffffffffffffffff16908173ffffffffffffffffffffffffffffffffffffffff16815250505f8361032001515f0190151590811515815250506124a9836102e0015160200151600161515b565b836103200151602001818152505060018361034001515f019015159081151581525050826102e00151602001518361034001516020018181525050826102e001515f015161253757826101c00151602001516020015173ffffffffffffffffffffffffffffffffffffffff1683610300015173ffffffffffffffffffffffffffffffffffffffff161461253a565b60015b61254957826103200151612550565b8261034001515b836102e001819052508080600101915050612424565b50816102e00151826102c0018190525061259d826101c001516020015160200151825f0151846101c00151602001515f0151614d47565b60018261036001515f019060018111156125ba576125b9616432565b5b908160018111156125ce576125cd616432565b5b81525050338261036001516040019073ffffffffffffffffffffffffffffffffffffffff16908173ffffffffffffffffffffffffffffffffffffffff16815250508161036001518261038001515f0181905250612635816101000151602001516001615167565b8261038001516020018181525050806101600151826103800151604001819052508061010001516060015182610380015160600190151590811515815250506001826103800151608001901515908115158152505080610180015182610380015160a00181905250600182610380015160c001901515908115158152505080610100015160e0015182610380015160e001818152505080610100015161010001518261038001516101000181815250506126fa81610100015161012001516001615167565b826103800151610120018181525050612711615a3e565b815f0151815f019073ffffffffffffffffffffffffffffffffffffffff16908173ffffffffffffffffffffffffffffffffffffffff1681525050816020015181602001819052508160400151816040019073ffffffffffffffffffffffffffffffffffffffff16908173ffffffffffffffffffffffffffffffffffffffff16815250508160600151816060019073ffffffffffffffffffffffffffffffffffffffff16908173ffffffffffffffffffffffffffffffffffffffff16815250508160800151816080019073ffffffffffffffffffffffffffffffffffffffff16908173ffffffffffffffffffffffffffffffffffffffff16815250508160a001518160a001819052508160c001518160c0019073ffffffffffffffffffffffffffffffffffffffff16908173ffffffffffffffffffffffffffffffffffffffff16815250508160e001518160e00181815250508261038001518161010001819052504381610120018181525050612941836101e00151846102c001516020015160405180606001604052806128d9886101e0015189610220015160200151600281106128bf576128be6173f5565b5b60200201515f0151896101c00151602001515f0151614d5f565b8152602001876101e00151886102c0015160200151600281106128ff576128fe6173f5565b5b6020020151602001518152602001876101e00151886102c00151602001516002811061292e5761292d6173f5565b5b6020020151604001511515815250614d6b565b816101400181905250612972612964836101400151856101c001515f015161515b565b846101c001515f0151614d5f565b816101600181815250506129868185614df8565b506141aa565b600560068111156129a05761299f616432565b5b84602001515f015160068111156129ba576129b9616432565b5b0361378c57836020015160c00151826103a001819052506129e2826103a001515f0151614b43565b826103c00181905250612a136001836103c001515f01516001811115612a0b57612a0a616432565b5b146036614d01565b5f826103e001515f0181815250508060c00151826103e001516020019073ffffffffffffffffffffffffffffffffffffffff16908173ffffffffffffffffffffffffffffffffffffffff16815250505f826103e0015160400181815250505f826103e0015160600190151590811515815250505f826103e001516080019015159081151581525050600180811115612aae57612aad616432565b5b826103c001515f01516001811115612ac957612ac8616432565b5b14612ad957816103e00151612ae4565b816103c00151604001515b826104000181905250612b2f8261040001516020015173ffffffffffffffffffffffffffffffffffffffff163373ffffffffffffffffffffffffffffffffffffffff16146037614d01565b612b8a82610400015160600151612b71578261040001515f0151826101200151600160028110612b6257612b616173f5565b5b60200201515f01511015612b83565b8261040001515f015182610140015110155b6038614d01565b5f8261042001515f01818152505080608001518261042001516020019073ffffffffffffffffffffffffffffffffffffffff16908173ffffffffffffffffffffffffffffffffffffffff1681525050612be65f34146039614d01565b612bff612bf83383608001515f614de2565b603a614d01565b7f560c9abbbb5c152eb6a088e653bd5f32f968b16cc7e1981ed572e659b3c5f9b45f604051612c2e91906161c7565b60405180910390a15f836101200190151590811515815250508161040001515f01518261044001515f018181525050816104200151826104400151602001819052508161040001515f01518261046001515f01818152505080608001518261046001516020019073ffffffffffffffffffffffffffffffffffffffff16908173ffffffffffffffffffffffffffffffffffffffff16815250505f8261048001515f0181815250508161046001518261048001516020018190525081610400015160600151612d0157816104800151612d08565b8161044001515b826104a00181905250612d28816101400151836104a001515f0151614d5f565b826104c00181815250508161040001516020015173ffffffffffffffffffffffffffffffffffffffff166108fc836104a001515f015190811502906040515f60405180830381858888f19350505050158015612d86573d5f803e3d5ffd5b505f826104e001515f0190151590811515815250505f826104e001516020018181525050816104e001518261052001819052505f5b6002811015612efd578160a001518160028110612ddb57612dda6173f5565b5b602002015183610540019073ffffffffffffffffffffffffffffffffffffffff16908173ffffffffffffffffffffffffffffffffffffffff16815250505f8361056001515f019015159081151581525050612e4083610520015160200151600161515b565b836105600151602001818152505060018361058001515f0190151590811515815250508261052001516020015183610580015160200181815250508261052001515f0151612ece57826104a00151602001516020015173ffffffffffffffffffffffffffffffffffffffff1683610540015173ffffffffffffffffffffffffffffffffffffffff1614612ed1565b60015b612ee057826105600151612ee7565b8261058001515b8361052001819052508080600101915050612dbb565b50816105200151826105000181905250816104e00151826105c001819052505f5b6002811015613060578160a001518160028110612f3e57612f3d6173f5565b5b6020020151836105e0019073ffffffffffffffffffffffffffffffffffffffff16908173ffffffffffffffffffffffffffffffffffffffff16815250505f8361060001515f019015159081151581525050612fa3836105c0015160200151600161515b565b836106000151602001818152505060018361062001515f019015159081151581525050826105c00151602001518361062001516020018181525050826105c001515f015161303157826104a00151602001516020015173ffffffffffffffffffffffffffffffffffffffff16836105e0015173ffffffffffffffffffffffffffffffffffffffff1614613034565b60015b6130435782610600015161304a565b8261062001515b836105c001819052508080600101915050612f1e565b50816105c00151826105a00181905250613134816101200151836105a001516020015160405180606001604052806130cc86610120015188610500015160200151600281106130b2576130b16173f5565b5b60200201515f0151886104a00151602001515f0151614d5f565b8152602001856101200151876105a0015160200151600281106130f2576130f16173f5565b5b6020020151602001518152602001856101200151876105a001516020015160028110613121576131206173f5565b5b6020020151604001511515815250614d6b565b82610640018190525061316a826104a00151602001516020015183610400015160200151846104a00151602001515f0151614d47565b60055f836103a001515f015181526020019081526020015f205f8082015f6101000a81549060ff02191690555f820160016101000a81549060ff0219169055600182015f8082015f9055600182015f6101000a81549073ffffffffffffffffffffffffffffffffffffffff0219169055600282015f9055600382015f6101000a81549060ff02191690556003820160016101000a81549060ff0219169055505050506132208161010001516020015160016151bf565b8261066001818152505081610400015160600151156134e2578061010001515f01518261068001515f018190525081610660015182610680015160200181815250508061016001518261068001516040018190525080610100015160600151826106800151606001901515908115158152505080610100015160800151826106800151608001901515908115158152505080610180015182610680015160a0018190525080610100015160c0015182610680015160c00190151590811515815250506132fd81610100015160e001518361040001515f01516151bf565b82610680015160e001818152505080610100015161010001518261068001516101000181815250508061010001516101200151826106800151610120018181525050613347615a3e565b815f0151815f019073ffffffffffffffffffffffffffffffffffffffff16908173ffffffffffffffffffffffffffffffffffffffff1681525050816020015181602001819052508160400151816040019073ffffffffffffffffffffffffffffffffffffffff16908173ffffffffffffffffffffffffffffffffffffffff16815250508160600151816060019073ffffffffffffffffffffffffffffffffffffffff16908173ffffffffffffffffffffffffffffffffffffffff16815250508160800151816080019073ffffffffffffffffffffffffffffffffffffffff16908173ffffffffffffffffffffffffffffffffffffffff16815250508160a001518160a001819052508160c001518160c0019073ffffffffffffffffffffffffffffffffffffffff16908173ffffffffffffffffffffffffffffffffffffffff16815250508160e001518160e00181815250508261068001518161010001819052504381610120018181525050826106400151816101400181905250826104c00151816101600181815250506134dc8185614df8565b50613787565b8061010001515f0151826106a001515f0181905250816106600151826106a001516020018181525050806101600151826106a001516040018190525080610100015160600151826106a00151606001901515908115158152505080610100015160800151826106a001516080019015159081151581525050806101800151826106a0015160a0018190525080610100015160c00151826106a0015160c001901515908115158152505080610100015160e00151826106a0015160e00181815250506135bf81610100015161010001518361040001515f01516151bf565b826106a001516101000181815250508061010001516101200151826106a001516101200181815250506135f0615a3e565b815f0151815f019073ffffffffffffffffffffffffffffffffffffffff16908173ffffffffffffffffffffffffffffffffffffffff1681525050816020015181602001819052508160400151816040019073ffffffffffffffffffffffffffffffffffffffff16908173ffffffffffffffffffffffffffffffffffffffff16815250508160600151816060019073ffffffffffffffffffffffffffffffffffffffff16908173ffffffffffffffffffffffffffffffffffffffff16815250508160800151816080019073ffffffffffffffffffffffffffffffffffffffff16908173ffffffffffffffffffffffffffffffffffffffff16815250508160a001518160a001819052508160c001518160c0019073ffffffffffffffffffffffffffffffffffffffff16908173ffffffffffffffffffffffffffffffffffffffff16815250508160e001518160e0018181525050826106a001518161010001819052504381610120018181525050826106400151816101400181905250826104c00151816101600181815250506137858185614df8565b505b6141a9565b60068081111561379f5761379e616432565b5b84602001515f015160068111156137b9576137b8616432565b5b036141a857836020015160e00151826106c001819052506137e481610100015160800151603b614d01565b80602001516080015161380357816106c001515f015160200151613806565b60015b826106e00190151590811515815250505f8261070001515f01818152505080608001518261070001516020019073ffffffffffffffffffffffffffffffffffffffff16908173ffffffffffffffffffffffffffffffffffffffff1681525050816106c001515f01515f01518261072001515f01818152505081610700015182610720015160200181905250816106c001515f01515f01518261074001515f01818152505080608001518261074001516020019073ffffffffffffffffffffffffffffffffffffffff16908173ffffffffffffffffffffffffffffffffffffffff16815250505f8261076001515f01818152505081610740015182610760015160200181905250816106e0015161392157816107600151613928565b8161072001515b8261078001819052506139488161014001518361078001515f015161515b565b826107a00181815250506139678261078001515f01513414603c614d01565b613a0b816101200151600160405180606001604052806139b3866101200151600160028110613999576139986173f5565b5b60200201515f0151886107800151602001515f015161515b565b81526020018561012001516001600281106139d1576139d06173f5565b5b60200201516020015181526020018561012001516001600281106139f8576139f76173f5565b5b6020020151604001511515815250614d6b565b826107c00181905250613a39613a32338360800151856107800151602001515f0151614de2565b603d614d01565b816106c001515f01515f0151826107e001515f01818152505033826107e001516020019073ffffffffffffffffffffffffffffffffffffffff16908173ffffffffffffffffffffffffffffffffffffffff16815250508061010001516101200151826107e001516040018181525050816106e00151826107e0015160600190151590811515815250505f826107e001516080019015159081151581525050600160055f836101000151610120015181526020019081526020015f205f015f6101000a81548160ff02191690836001811115613b1757613b16616432565b5b0217905550816107e0015160055f836101000151610120015181526020019081526020015f206001015f820151815f01556020820151816001015f6101000a81548173ffffffffffffffffffffffffffffffffffffffff021916908373ffffffffffffffffffffffffffffffffffffffff160217905550604082015181600201556060820151816003015f6101000a81548160ff02191690831515021790555060808201518160030160016101000a81548160ff0219169083151502179055509050507f95f86bbdb99d0b1957108a116c8406de0ce2f4e63d707df414e5c4e0f84343a1826107e00151604051613c0e9190616613565b60405180910390a1816107e00151836101400181905250613c3a81610100015161012001516001615167565b82610800018181525050613c58816101000151602001516001615167565b82610820018181525050816106e0015115613f0c578061010001515f01518261084001515f01819052508161082001518261084001516020018181525050806101600151826108400151604001819052508061010001516060015182610840015160600190151590811515815250506001826108400151608001901515908115158152505080610180015182610840015160a0018190525080610100015160c0015182610840015160c0019015159081151581525050613d2c81610100015160e00151836106c001515f01515f0151615167565b82610840015160e00181815250508061010001516101000151826108400151610100018181525050816108000151826108400151610120018181525050613d71615a3e565b815f0151815f019073ffffffffffffffffffffffffffffffffffffffff16908173ffffffffffffffffffffffffffffffffffffffff1681525050816020015181602001819052508160400151816040019073ffffffffffffffffffffffffffffffffffffffff16908173ffffffffffffffffffffffffffffffffffffffff16815250508160600151816060019073ffffffffffffffffffffffffffffffffffffffff16908173ffffffffffffffffffffffffffffffffffffffff16815250508160800151816080019073ffffffffffffffffffffffffffffffffffffffff16908173ffffffffffffffffffffffffffffffffffffffff16815250508160a001518160a001819052508160c001518160c0019073ffffffffffffffffffffffffffffffffffffffff16908173ffffffffffffffffffffffffffffffffffffffff16815250508160e001518160e00181815250508261084001518161010001819052504381610120018181525050826107c00151816101400181905250826107a0015181610160018181525050613f068185614df8565b506141a7565b8061010001515f01518261086001515f01819052508161082001518261086001516020018181525050806101600151826108600151604001819052508061010001516060015182610860015160600190151590811515815250506001826108600151608001901515908115158152505080610180015182610860015160a0018190525080610100015160c0015182610860015160c001901515908115158152505080610100015160e0015182610860015160e0018181525050613fe48161010001516101000151836106c001515f01515f0151615167565b826108600151610100018181525050816108000151826108600151610120018181525050614010615a3e565b815f0151815f019073ffffffffffffffffffffffffffffffffffffffff16908173ffffffffffffffffffffffffffffffffffffffff1681525050816020015181602001819052508160400151816040019073ffffffffffffffffffffffffffffffffffffffff16908173ffffffffffffffffffffffffffffffffffffffff16815250508160600151816060019073ffffffffffffffffffffffffffffffffffffffff16908173ffffffffffffffffffffffffffffffffffffffff16815250508160800151816080019073ffffffffffffffffffffffffffffffffffffffff16908173ffffffffffffffffffffffffffffffffffffffff16815250508160a001518160a001819052508160c001518160c0019073ffffffffffffffffffffffffffffffffffffffff16908173ffffffffffffffffffffffffffffffffffffffff16815250508160e001518160e00181815250508261086001518161010001819052504381610120018181525050826107c00151816101400181905250826107a00151816101600181815250506141a58185614df8565b505b5b5b5b5b5b5b5b50505050565b6141bc615b1d565b6141cb60015f54146011614d01565b5f600280546141d990616c21565b80601f016020809104026020016040519081016040528092919081815260200182805461420590616c21565b80156142505780601f1061422757610100808354040283529160200191614250565b820191905f5260205f20905b81548152906001019060200180831161423357829003601f168201915b505050505080602001905181019061426891906177ac565b905061428460045f9054906101000a900460ff16156012614d01565b7fcf0e8bec53cd91fa87ecf8f6f405ac75914a22acdb92a3553ee5c294fee8159633856040516142b59291906173ce565b60405180910390a16142dc5f855f015114806142d55750845f0151600154145b6013614d01565b6142e95f34146014614d01565b6143818160e001515f604051806060016040528061432d8660e001515f60028110614317576143166173f5565b5b60200201515f015187602001516020015161515b565b81526020018560e001515f60028110614349576143486173f5565b5b60200201516020015181526020018560e001515f6002811061436e5761436d6173f5565b5b6020020151604001511515815250614d6b565b825f01819052506143a96143a2338360400151846020015160200151614de2565b6015614d01565b6143e53373ffffffffffffffffffffffffffffffffffffffff16825f015173ffffffffffffffffffffffffffffffffffffffff16146016614d01565b5f82602001515f01906001811115614400576143ff616432565b5b9081600181111561441457614413616432565b5b815250505f82602001516020019015159081151581525050816020015182604001515f01819052505f8260400151602001818152505080606001518260400151604001819052506001826040015160600190151590811515815250505f826040015160800190151590811515815250508060800151826040015160a001819052505f826040015160c00190151590811515815250505f826040015160e0018181525050815f01516001600281106144ce576144cd6173f5565b5b60200201515f015182604001516101000181815250505f82604001516101200181815250506144fb615a3e565b815f0151815f019073ffffffffffffffffffffffffffffffffffffffff16908173ffffffffffffffffffffffffffffffffffffffff1681525050816020015181602001819052508160400151816040019073ffffffffffffffffffffffffffffffffffffffff16908173ffffffffffffffffffffffffffffffffffffffff16815250508160a00151816060019073ffffffffffffffffffffffffffffffffffffffff16908173ffffffffffffffffffffffffffffffffffffffff16815250508160c00151816080019073ffffffffffffffffffffffffffffffffffffffff16908173ffffffffffffffffffffffffffffffffffffffff16815250508161010001518160a00181905250338160c0019073ffffffffffffffffffffffffffffffffffffffff16908173ffffffffffffffffffffffffffffffffffffffff16815250508160200151602001518160e001818152505082604001518161010001819052504381610120018181525050825f01518161014001819052505f816101600181815250506146898185614df8565b5050505050565b614698615b50565b82815f01515f01819052505f81602001515f019060068111156146be576146bd616432565b5b908160068111156146d2576146d1616432565b5b81525050805f01518160200151602001819052506146ee61564d565b5f815f0181815250508160200151816020018190525061470e8184610d78565b50505050565b61471c615b76565b82815f01515f018181525050600181602001515f0190600681111561474457614743616432565b5b9081600681111561475857614757616432565b5b81525050805f015181602001516040018190525061477461564d565b5f815f018181525050816020015181602001819052506147948184610d78565b50505050565b6147a2615b9c565b82815f01515f0181905250600381602001515f019060068111156147c9576147c8616432565b5b908160068111156147dd576147dc616432565b5b81525050805f01518160200151608001819052506147f961564d565b5f815f018181525050816020015181602001819052506148198184610d78565b50505050565b614827615bc2565b82815f01515f018181525050600581602001515f0190600681111561484f5761484e616432565b5b9081600681111561486357614862616432565b5b81525050805f0151816020015160c0018190525061487f61564d565b5f815f0181815250508160200151816020018190525061489f8184610d78565b50505050565b60055f541015614974576148be60035f5414600b614d01565b5f600280546148cc90616c21565b80601f01602080910402602001604051908101604052809291908181526020018280546148f890616c21565b80156149435780601f1061491a57610100808354040283529160200191614943565b820191905f5260205f20905b81548152906001019060200180831161492657829003601f168201915b505050505080602001905181019061495b9190616fd8565b905061496683614b43565b8260e0018190525050614a35565b61498360055f5414600c614d01565b5f6002805461499190616c21565b80601f01602080910402602001604051908101604052809291908181526020018280546149bd90616c21565b8015614a085780601f106149df57610100808354040283529160200191614a08565b820191905f5260205f20905b8154815290600101906020018083116149eb57829003601f168201915b5050505050806020019051810190614a209190617368565b9050614a2b83614b43565b8260e00181905250505b5050565b614a41615be8565b82815f01515f0181905250600681602001515f01906006811115614a6857614a67616432565b5b90816006811115614a7c57614a7b616432565b5b81525050805f0151816020015160e00181905250614a9861564d565b5f815f01818152505081602001518160200181905250614ab88184610d78565b50505050565b614ac6615c0e565b82815f01515f0181905250600281602001515f01906006811115614aed57614aec616432565b5b90816006811115614b0157614b00616432565b5b81525050805f0151816020015160600181905250614b1d61564d565b5f815f01818152505081602001518160200181905250614b3d8184610d78565b50505050565b614b4b6155af565b600180811115614b5e57614b5d616432565b5b60055f8481526020019081526020015f205f015f9054906101000a900460ff166001811115614b9057614b8f616432565b5b03614cbc5760055f8381526020019081526020015f206040518060600160405290815f82015f9054906101000a900460ff166001811115614bd457614bd3616432565b5b6001811115614be657614be5616432565b5b81526020015f820160019054906101000a900460ff16151515158152602001600182016040518060a00160405290815f8201548152602001600182015f9054906101000a900473ffffffffffffffffffffffffffffffffffffffff1673ffffffffffffffffffffffffffffffffffffffff1673ffffffffffffffffffffffffffffffffffffffff16815260200160028201548152602001600382015f9054906101000a900460ff161515151581526020016003820160019054906101000a900460ff161515151581525050815250509050614cfc565b5f815f01906001811115614cd357614cd2616432565b5b90816001811115614ce757614ce6616432565b5b815250505f8160200190151590811515815250505b919050565b81614d4357806040517f100960cb000000000000000000000000000000000000000000000000000000008152600401614d3a91906161ef565b60405180910390fd5b5050565b614d52838383615217565b614d5a575f80fd5b505050565b5f818303905092915050565b614d73615c34565b5f5b6002811015614dbe57848160028110614d9157614d906173f5565b5b6020020151828260028110614da957614da86173f5565b5b60200201819052508080600101915050614d75565b5081818460028110614dd357614dd26173f5565b5b60200201819052509392505050565b5f614def83853085615327565b90509392505050565b81610100015160600151614e24575f8261010001516020015114614e1d576001614e1f565b5f5b614e27565b60015b1561501d57614e34615c61565b825f0151815f019073ffffffffffffffffffffffffffffffffffffffff16908173ffffffffffffffffffffffffffffffffffffffff1681525050826020015181602001819052508260400151816040019073ffffffffffffffffffffffffffffffffffffffff16908173ffffffffffffffffffffffffffffffffffffffff16815250508260600151816060019073ffffffffffffffffffffffffffffffffffffffff16908173ffffffffffffffffffffffffffffffffffffffff16815250508260800151816080019073ffffffffffffffffffffffffffffffffffffffff16908173ffffffffffffffffffffffffffffffffffffffff16815250508260a001518160a001819052508260c001518160c0019073ffffffffffffffffffffffffffffffffffffffff16908173ffffffffffffffffffffffffffffffffffffffff16815250508260e001518160e0018181525050826101000151816101000181905250826101400151816101200181905250826101600151816101400181815250508261010001516040015181610160018190525082610100015160a0015181610180018190525060055f819055504360018190555080604051602001614ff99190617ba7565b604051602081830303815290604052600290816150169190617d5e565b5050615157565b615025615d54565b825f0151815f019073ffffffffffffffffffffffffffffffffffffffff16908173ffffffffffffffffffffffffffffffffffffffff16815250508260400151816020019073ffffffffffffffffffffffffffffffffffffffff16908173ffffffffffffffffffffffffffffffffffffffff16815250508260800151816040019073ffffffffffffffffffffffffffffffffffffffff16908173ffffffffffffffffffffffffffffffffffffffff16815250508261014001518160600181905250826101600151816080018181525050826101000151604001518160a0018190525082610100015160a001518160c0018190525060035f8190555043600181905550806040516020016151379190617ebd565b604051602081830303815290604052600290816151549190617d5e565b50505b5050565b5f818301905092915050565b5f8282846151759190617f04565b91508110156151b9576040517f08c379a00000000000000000000000000000000000000000000000000000000081526004016151b090617f91565b60405180910390fd5b92915050565b5f8282846151cd9190617faf565b9150811115615211576040517f08c379a00000000000000000000000000000000000000000000000000000000081526004016152089061802c565b60405180910390fd5b92915050565b5f805f8573ffffffffffffffffffffffffffffffffffffffff165f63a9059cbb60e01b878760405160240161524d92919061804a565b604051602081830303815290604052907bffffffffffffffffffffffffffffffffffffffffffffffffffffffff19166020820180517bffffffffffffffffffffffffffffffffffffffffffffffffffffffff83818316178352505050506040516152b791906180ab565b5f6040518083038185875af1925050503d805f81146152f1576040519150601f19603f3d011682016040523d82523d5f602084013e6152f6565b606091505b50915091506153078282600261543a565b508080602001905181019061531c91906180c1565b925050509392505050565b5f805f8673ffffffffffffffffffffffffffffffffffffffff165f6323b872dd60e01b88888860405160240161535f939291906180ec565b604051602081830303815290604052907bffffffffffffffffffffffffffffffffffffffffffffffffffffffff19166020820180517bffffffffffffffffffffffffffffffffffffffffffffffffffffffff83818316178352505050506040516153c991906180ab565b5f6040518083038185875af1925050503d805f8114615403576040519150601f19603f3d011682016040523d82523d5f602084013e615408565b606091505b50915091506154198282600161543a565b508080602001905181019061542e91906180c1565b92505050949350505050565b6060831561544a57829050615499565b5f8351111561545c5782518084602001fd5b816040517f100960cb00000000000000000000000000000000000000000000000000000000815260040161549091906161ef565b60405180910390fd5b9392505050565b6040518060c001604052805f151581526020015f81526020015f73ffffffffffffffffffffffffffffffffffffffff1681526020015f151581526020015f151581526020015f73ffffffffffffffffffffffffffffffffffffffff1681525090565b6040518061016001604052805f151581526020015f151581526020015f151581526020015f151581526020015f1515815260200161553e6154a0565b815260200161554b61557b565b81526020016155586155af565b81526020015f151581526020015f151581526020016155756155e8565b81525090565b60405180606001604052805f81526020015f73ffffffffffffffffffffffffffffffffffffffff1681526020015f81525090565b60405180606001604052805f60018111156155cd576155cc616432565b5b81526020015f151581526020016155e26155e8565b81525090565b6040518060a001604052805f81526020015f73ffffffffffffffffffffffffffffffffffffffff1681526020015f81526020015f151581526020015f151581525090565b60405180604001604052805f15158152602001615647615de1565b81525090565b60405180604001604052805f8152602001615666615de1565b81525090565b50805461567890616c21565b5f825580601f1061568957506156a6565b601f0160209004905f5260205f20908101906156a59190615e5c565b5b50565b6040518061088001604052806156bd615e77565b81526020016156ca6155af565b81526020016156d76155e8565b81526020016156e4615e90565b81526020016156f1615ed8565b81526020016156fe615ed8565b815260200161570b615f3c565b8152602001615718615ed8565b8152602001615725615f55565b8152602001615732615ed8565b815260200161573f615f6e565b815260200161574c615f9c565b8152602001615759615f6e565b8152602001615766615f9c565b8152602001615773615f9c565b8152602001615780615c34565b815260200161578d615fbb565b815260200161579a615fbb565b81526020016157a7615fbb565b81526020015f73ffffffffffffffffffffffffffffffffffffffff1681526020016157d0615fbb565b81526020016157dd615fbb565b81526020016157ea615fbb565b81526020016157f7615fbb565b81526020015f73ffffffffffffffffffffffffffffffffffffffff168152602001615820615fbb565b815260200161582d615fbb565b815260200161583a615e90565b8152602001615847615ed8565b8152602001615854615fd5565b81526020016158616155af565b815260200161586e6155e8565b815260200161587b6155e8565b8152602001615888615f6e565b8152602001615895615f9c565b81526020016158a2615f6e565b81526020016158af615f9c565b81526020016158bc615f9c565b81526020015f81526020016158cf615fbb565b81526020016158dc615fbb565b81526020016158e9615fbb565b81526020015f73ffffffffffffffffffffffffffffffffffffffff168152602001615912615fbb565b815260200161591f615fbb565b815260200161592c615fbb565b8152602001615939615fbb565b81526020015f73ffffffffffffffffffffffffffffffffffffffff168152602001615962615fbb565b815260200161596f615fbb565b815260200161597c615c34565b81526020015f815260200161598f615ed8565b815260200161599c615ed8565b81526020016159a9615fe7565b81526020015f151581526020016159be615f6e565b81526020016159cb615f9c565b81526020016159d8615f6e565b81526020016159e5615f9c565b81526020016159f2615f9c565b81526020015f8152602001615a05615c34565b8152602001615a126155e8565b81526020015f81526020015f8152602001615a2b615ed8565b8152602001615a38615ed8565b81525090565b6040518061018001604052805f73ffffffffffffffffffffffffffffffffffffffff168152602001615a6e6154a0565b81526020015f73ffffffffffffffffffffffffffffffffffffffff1681526020015f73ffffffffffffffffffffffffffffffffffffffff1681526020015f73ffffffffffffffffffffffffffffffffffffffff168152602001615acf616000565b81526020015f73ffffffffffffffffffffffffffffffffffffffff1681526020015f8152602001615afe615ed8565b81526020015f8152602001615b11615c34565b81526020015f81525090565b6040518060600160405280615b30615c34565b8152602001615b3d615e90565b8152602001615b4a615ed8565b81525090565b6040518060400160405280615b63615e77565b8152602001615b70615de1565b81525090565b6040518060400160405280615b89615fd5565b8152602001615b96615de1565b81525090565b6040518060400160405280615baf615f55565b8152602001615bbc615de1565b81525090565b6040518060400160405280615bd5615fd5565b8152602001615be2615de1565b81525090565b6040518060400160405280615bfb615fe7565b8152602001615c08615de1565b81525090565b6040518060400160405280615c21615f3c565b8152602001615c2e615de1565b81525090565b60405180604001604052806002905b615c4b616022565b815260200190600190039081615c435790505090565b604051806101a001604052805f73ffffffffffffffffffffffffffffffffffffffff168152602001615c916154a0565b81526020015f73ffffffffffffffffffffffffffffffffffffffff1681526020015f73ffffffffffffffffffffffffffffffffffffffff1681526020015f73ffffffffffffffffffffffffffffffffffffffff168152602001615cf2616000565b81526020015f73ffffffffffffffffffffffffffffffffffffffff1681526020015f8152602001615d21615ed8565b8152602001615d2e615c34565b81526020015f8152602001615d416154a0565b8152602001615d4e61557b565b81525090565b6040518060e001604052805f73ffffffffffffffffffffffffffffffffffffffff1681526020015f73ffffffffffffffffffffffffffffffffffffffff1681526020015f73ffffffffffffffffffffffffffffffffffffffff168152602001615dbb615c34565b81526020015f8152602001615dce6154a0565b8152602001615ddb61557b565b81525090565b6040518061010001604052805f6006811115615e0057615dff616432565b5b8152602001615e0d615e77565b8152602001615e1a615fd5565b8152602001615e27615f3c565b8152602001615e34615f55565b81526020015f15158152602001615e49615fd5565b8152602001615e56615fe7565b81525090565b5b80821115615e73575f815f905550600101615e5d565b5090565b6040518060200160405280615e8a6155e8565b81525090565b60405180606001604052805f6001811115615eae57615ead616432565b5b81526020015f151581526020015f73ffffffffffffffffffffffffffffffffffffffff1681525090565b604051806101400160405280615eec615e90565b81526020015f8152602001615eff6154a0565b81526020015f151581526020015f15158152602001615f1c61557b565b81526020015f151581526020015f81526020015f81526020015f81525090565b6040518060200160405280615f4f6154a0565b81525090565b6040518060200160405280615f6861557b565b81525090565b60405180604001604052805f81526020015f73ffffffffffffffffffffffffffffffffffffffff1681525090565b60405180604001604052805f8152602001615fb5615f6e565b81525090565b60405180604001604052805f151581526020015f81525090565b60405180602001604052805f81525090565b6040518060200160405280615ffa616042565b81525090565b6040518060400160405280600290602082028036833780820191505090505090565b60405180606001604052805f81526020015f81526020015f151581525090565b60405180604001604052805f81526020015f151581525090565b5f8115159050919050565b6160708161605c565b82525050565b5f819050919050565b61608881616076565b82525050565b5f73ffffffffffffffffffffffffffffffffffffffff82169050919050565b5f6160b78261608e565b9050919050565b6160c7816160ad565b82525050565b60c082015f8201516160e15f850182616067565b5060208201516160f4602085018261607f565b50604082015161610760408501826160be565b50606082015161611a6060850182616067565b50608082015161612d6080850182616067565b5060a082015161614060a08501826160be565b50505050565b5f60c0820190506161595f8301846160cd565b92915050565b606082015f8201516161735f85018261607f565b50602082015161618660208501826160be565b506040820151616199604085018261607f565b50505050565b5f6060820190506161b25f83018461615f565b92915050565b6161c18161605c565b82525050565b5f6020820190506161da5f8301846161b8565b92915050565b6161e981616076565b82525050565b5f6020820190506162025f8301846161e0565b92915050565b5f604051905090565b5f80fd5b5f80fd5b5f6020828403121561622e5761622d616215565b5b81905092915050565b5f6020828403121561624c5761624b616211565b5b5f61625984828501616219565b91505092915050565b5f6102a0828403121561627857616277616215565b5b81905092915050565b5f6102a0828403121561629757616296616211565b5b5f6162a484828501616262565b91505092915050565b5f60a082840312156162c2576162c1616215565b5b81905092915050565b5f60a082840312156162e0576162df616211565b5b5f6162ed848285016162ad565b91505092915050565b6162ff81616076565b8114616309575f80fd5b50565b5f8135905061631a816162f6565b92915050565b5f6020828403121561633557616334616211565b5b5f6163428482850161630c565b91505092915050565b5f81519050919050565b5f82825260208201905092915050565b8281835e5f83830152505050565b5f601f19601f8301169050919050565b5f61638d8261634b565b6163978185616355565b93506163a7818560208601616365565b6163b081616373565b840191505092915050565b5f6040820190506163ce5f8301856161e0565b81810360208301526163e08184616383565b90509392505050565b5f606082840312156163fe576163fd616215565b5b81905092915050565b5f6060828403121561641c5761641b616211565b5b5f616429848285016163e9565b91505092915050565b7f4e487b71000000000000000000000000000000000000000000000000000000005f52602160045260245ffd5b600281106164705761646f616432565b5b50565b5f8190506164808261645f565b919050565b5f61648f82616473565b9050919050565b61649f81616485565b82525050565b60a082015f8201516164b95f85018261607f565b5060208201516164cc60208501826160be565b5060408201516164df604085018261607f565b5060608201516164f26060850182616067565b5060808201516165056080850182616067565b50505050565b60e082015f82015161651f5f850182616496565b5060208201516165326020850182616067565b50604082015161654560408501826164a5565b50505050565b5f60e08201905061655e5f83018461650b565b92915050565b5f6040828403121561657957616578616215565b5b81905092915050565b5f6040828403121561659757616596616211565b5b5f6165a484828501616564565b91505092915050565b60a082015f8201516165c15f85018261607f565b5060208201516165d460208501826160be565b5060408201516165e7604085018261607f565b5060608201516165fa6060850182616067565b50608082015161660d6080850182616067565b50505050565b5f60a0820190506166265f8301846165ad565b92915050565b5f60c0828403121561664157616640616215565b5b81905092915050565b5f60c0828403121561665f5761665e616211565b5b5f61666c8482850161662c565b91505092915050565b5f80fd5b7f4e487b71000000000000000000000000000000000000000000000000000000005f52604160045260245ffd5b6166af82616373565b810181811067ffffffffffffffff821117156166ce576166cd616679565b5b80604052505050565b5f6166e0616208565b90506166ec82826166a6565b919050565b5f6020828403121561670657616705616675565b5b61671060206166d7565b90505f61671f8482850161630c565b5f8301525092915050565b5f6020828403121561673f5761673e616211565b5b5f61674c848285016166f1565b91505092915050565b60078110616761575f80fd5b50565b5f8135905061677281616755565b92915050565b616781816160ad565b811461678b575f80fd5b50565b5f8135905061679c81616778565b92915050565b6167ab8161605c565b81146167b5575f80fd5b50565b5f813590506167c6816167a2565b92915050565b5f60a082840312156167e1576167e0616675565b5b6167eb60a06166d7565b90505f6167fa8482850161630c565b5f83015250602061680d8482850161678e565b60208301525060406168218482850161630c565b6040830152506060616835848285016167b8565b6060830152506080616849848285016167b8565b60808301525092915050565b5f60a0828403121561686a57616869616675565b5b61687460206166d7565b90505f616883848285016167cc565b5f8301525092915050565b5f60c082840312156168a3576168a2616675565b5b6168ad60c06166d7565b90505f6168bc848285016167b8565b5f8301525060206168cf8482850161630c565b60208301525060406168e38482850161678e565b60408301525060606168f7848285016167b8565b606083015250608061690b848285016167b8565b60808301525060a061691f8482850161678e565b60a08301525092915050565b5f60c082840312156169405761693f616675565b5b61694a60206166d7565b90505f6169598482850161688e565b5f8301525092915050565b5f6060828403121561697957616978616675565b5b61698360606166d7565b90505f6169928482850161630c565b5f8301525060206169a58482850161678e565b60208301525060406169b98482850161630c565b60408301525092915050565b5f606082840312156169da576169d9616675565b5b6169e460206166d7565b90505f6169f384828501616964565b5f8301525092915050565b5f60408284031215616a1357616a12616675565b5b616a1d60406166d7565b90505f616a2c8482850161630c565b5f830152506020616a3f848285016167b8565b60208301525092915050565b5f60408284031215616a6057616a5f616675565b5b616a6a60206166d7565b90505f616a79848285016169fe565b5f8301525092915050565b5f6102808284031215616a9a57616a99616675565b5b616aa56101006166d7565b90505f616ab484828501616764565b5f830152506020616ac784828501616855565b60208301525060c0616adb848285016166f1565b60408301525060e0616aef8482850161692b565b6060830152506101a0616b04848285016169c5565b608083015250610200616b19848285016167b8565b60a083015250610220616b2e848285016166f1565b60c083015250610240616b4384828501616a4b565b60e08301525092915050565b5f6102a08284031215616b6557616b64616675565b5b616b6f60406166d7565b90505f616b7e8482850161630c565b5f830152506020616b9184828501616a84565b60208301525092915050565b5f6102a08284031215616bb357616bb2616211565b5b5f616bc084828501616b4f565b91505092915050565b5f60a08284031215616bde57616bdd616211565b5b5f616beb848285016167cc565b91505092915050565b7f4e487b71000000000000000000000000000000000000000000000000000000005f52602260045260245ffd5b5f6002820490506001821680616c3857607f821691505b602082108103616c4b57616c4a616bf4565b5b50919050565b5f60608284031215616c6657616c65616211565b5b5f616c7384828501616964565b91505092915050565b5f60408284031215616c9157616c90616211565b5b5f616c9e848285016169fe565b91505092915050565b5f60c08284031215616cbc57616cbb616211565b5b5f616cc98482850161688e565b91505092915050565b5f81519050616ce081616778565b92915050565b5f80fd5b5f67ffffffffffffffff821115616d0457616d03616679565b5b602082029050919050565b5f80fd5b5f81519050616d21816162f6565b92915050565b5f81519050616d35816167a2565b92915050565b5f60608284031215616d5057616d4f616675565b5b616d5a60606166d7565b90505f616d6984828501616d13565b5f830152506020616d7c84828501616d13565b6020830152506040616d9084828501616d27565b60408301525092915050565b5f616dae616da984616cea565b6166d7565b90508060608402830185811115616dc857616dc7616d0f565b5b835b81811015616df15780616ddd8882616d3b565b845260208401935050606081019050616dca565b5050509392505050565b5f82601f830112616e0f57616e0e616ce6565b5b6002616e1c848285616d9c565b91505092915050565b5f60c08284031215616e3a57616e39616675565b5b616e4460c06166d7565b90505f616e5384828501616d27565b5f830152506020616e6684828501616d13565b6020830152506040616e7a84828501616cd2565b6040830152506060616e8e84828501616d27565b6060830152506080616ea284828501616d27565b60808301525060a0616eb684828501616cd2565b60a08301525092915050565b5f60608284031215616ed757616ed6616675565b5b616ee160606166d7565b90505f616ef084828501616d13565b5f830152506020616f0384828501616cd2565b6020830152506040616f1784828501616d13565b60408301525092915050565b5f6102608284031215616f3957616f38616675565b5b616f4360e06166d7565b90505f616f5284828501616cd2565b5f830152506020616f6584828501616cd2565b6020830152506040616f7984828501616cd2565b6040830152506060616f8d84828501616dfb565b606083015250610120616fa284828501616d13565b608083015250610140616fb784828501616e25565b60a083015250610200616fcc84828501616ec2565b60c08301525092915050565b5f6102608284031215616fee57616fed616211565b5b5f616ffb84828501616f23565b91505092915050565b5f67ffffffffffffffff82111561701e5761701d616679565b5b602082029050919050565b5f61703b61703684617004565b6166d7565b9050806020840283018581111561705557617054616d0f565b5b835b8181101561707e578061706a8882616cd2565b845260208401935050602081019050617057565b5050509392505050565b5f82601f83011261709c5761709b616ce6565b5b60026170a9848285617029565b91505092915050565b600281106170be575f80fd5b50565b5f815190506170cf816170b2565b92915050565b5f606082840312156170ea576170e9616675565b5b6170f460606166d7565b90505f617103848285016170c1565b5f83015250602061711684828501616d27565b602083015250604061712a84828501616cd2565b60408301525092915050565b5f610260828403121561714c5761714b616675565b5b6171576101406166d7565b90505f617166848285016170d5565b5f83015250606061717984828501616d13565b602083015250608061718d84828501616e25565b6040830152506101406171a284828501616d27565b6060830152506101606171b784828501616d27565b6080830152506101806171cc84828501616ec2565b60a0830152506101e06171e184828501616d27565b60c0830152506102006171f684828501616d13565b60e08301525061022061720b84828501616d13565b6101008301525061024061722184828501616d13565b6101208301525092915050565b5f610620828403121561724457617243616675565b5b61724f6101a06166d7565b90505f61725e84828501616cd2565b5f83015250602061727184828501616e25565b60208301525060e061728584828501616cd2565b60408301525061010061729a84828501616cd2565b6060830152506101206172af84828501616cd2565b6080830152506101406172c484828501617088565b60a0830152506101806172d984828501616cd2565b60c0830152506101a06172ee84828501616d13565b60e0830152506101c061730384828501617136565b6101008301525061042061731984828501616dfb565b610120830152506104e061732f84828501616d13565b6101408301525061050061734584828501616e25565b610160830152506105c061735b84828501616ec2565b6101808301525092915050565b5f610620828403121561737e5761737d616211565b5b5f61738b8482850161722e565b91505092915050565b5f61739e8261608e565b9050919050565b6173ae81617394565b82525050565b602082015f8201516173c85f85018261607f565b50505050565b5f6040820190506173e15f8301856173a5565b6173ee60208301846173b4565b9392505050565b7f4e487b71000000000000000000000000000000000000000000000000000000005f52603260045260245ffd5b6007811061743357617432616432565b5b50565b5f81905061744382617422565b919050565b5f61745282617436565b9050919050565b61746281617448565b82525050565b60a082015f82015161747c5f8501826164a5565b50505050565b602082015f8201516174965f85018261607f565b50505050565b60c082015f8201516174b05f850182616067565b5060208201516174c3602085018261607f565b5060408201516174d660408501826160be565b5060608201516174e96060850182616067565b5060808201516174fc6080850182616067565b5060a082015161750f60a08501826160be565b50505050565b60c082015f8201516175295f85018261749c565b50505050565b606082015f8201516175435f85018261607f565b50602082015161755660208501826160be565b506040820151617569604085018261607f565b50505050565b606082015f8201516175835f85018261752f565b50505050565b604082015f82015161759d5f85018261607f565b5060208201516175b06020850182616067565b50505050565b604082015f8201516175ca5f850182617589565b50505050565b61028082015f8201516175e55f850182617459565b5060208201516175f86020850182617468565b50604082015161760b60c0850182617482565b50606082015161761e60e0850182617515565b5060808201516176326101a085018261756f565b5060a0820151617646610200850182616067565b5060c082015161765a610220850182617482565b5060e082015161766e6102408501826175b6565b50505050565b6102a082015f8201516176895f85018261607f565b50602082015161769c60208501826175d0565b50505050565b5f6102c0820190506176b65f8301856173a5565b6176c36020830184617674565b9392505050565b5f61036082840312156176e0576176df616675565b5b6176eb6101206166d7565b90505f6176fa84828501616cd2565b5f83015250602061770d84828501616e25565b60208301525060e061772184828501616cd2565b60408301525061010061773684828501616e25565b6060830152506101c061774b84828501616ec2565b60808301525061022061776084828501616cd2565b60a08301525061024061777584828501616cd2565b60c08301525061026061778a84828501616dfb565b60e08301525061032061779f84828501617088565b6101008301525092915050565b5f61036082840312156177c2576177c1616211565b5b5f6177cf848285016176ca565b91505092915050565b5f60029050919050565b5f81905092915050565b5f819050919050565b5f61780083836160be565b60208301905092915050565b5f602082019050919050565b617821816177d8565b61782b81846177e2565b9250617836826177ec565b805f5b8381101561786657815161784d87826177f5565b96506178588361780c565b925050600181019050617839565b505050505050565b6002811061787f5761787e616432565b5b50565b5f81905061788f8261786e565b919050565b5f61789e82617882565b9050919050565b6178ae81617894565b82525050565b606082015f8201516178c85f8501826178a5565b5060208201516178db6020850182616067565b5060408201516178ee60408501826160be565b50505050565b61026082015f8201516179095f8501826178b4565b50602082015161791c606085018261607f565b50604082015161792f608085018261749c565b506060820151617943610140850182616067565b506080820151617957610160850182616067565b5060a082015161796b61018085018261752f565b5060c082015161797f6101e0850182616067565b5060e082015161799361020085018261607f565b506101008201516179a861022085018261607f565b506101208201516179bd61024085018261607f565b50505050565b5f60029050919050565b5f81905092915050565b5f819050919050565b606082015f8201516179f45f85018261607f565b506020820151617a07602085018261607f565b506040820151617a1a6040850182616067565b50505050565b5f617a2b83836179e0565b60608301905092915050565b5f602082019050919050565b617a4c816179c3565b617a5681846179cd565b9250617a61826179d7565b805f5b83811015617a91578151617a788782617a20565b9650617a8383617a37565b925050600181019050617a64565b505050505050565b61062082015f820151617aae5f8501826160be565b506020820151617ac1602085018261749c565b506040820151617ad460e08501826160be565b506060820151617ae86101008501826160be565b506080820151617afc6101208501826160be565b5060a0820151617b10610140850182617818565b5060c0820151617b246101808501826160be565b5060e0820151617b386101a085018261607f565b50610100820151617b4d6101c08501826178f4565b50610120820151617b62610420850182617a43565b50610140820151617b776104e085018261607f565b50610160820151617b8c61050085018261749c565b50610180820151617ba16105c085018261752f565b50505050565b5f61062082019050617bbb5f830184617a99565b92915050565b5f819050815f5260205f209050919050565b5f6020601f8301049050919050565b5f82821b905092915050565b5f60088302617c1d7fffffffffffffffffffffffffffffffffffffffffffffffffffffffffffffffff82617be2565b617c278683617be2565b95508019841693508086168417925050509392505050565b5f819050919050565b5f617c62617c5d617c5884616076565b617c3f565b616076565b9050919050565b5f819050919050565b617c7b83617c48565b617c8f617c8782617c69565b848454617bee565b825550505050565b5f90565b617ca3617c97565b617cae818484617c72565b505050565b5b81811015617cd157617cc65f82617c9b565b600181019050617cb4565b5050565b601f821115617d1657617ce781617bc1565b617cf084617bd3565b81016020851015617cff578190505b617d13617d0b85617bd3565b830182617cb3565b50505b505050565b5f82821c905092915050565b5f617d365f1984600802617d1b565b1980831691505092915050565b5f617d4e8383617d27565b9150826002028217905092915050565b617d678261634b565b67ffffffffffffffff811115617d8057617d7f616679565b5b617d8a8254616c21565b617d95828285617cd5565b5f60209050601f831160018114617dc6575f8415617db4578287015190505b617dbe8582617d43565b865550617e25565b601f198416617dd486617bc1565b5f5b82811015617dfb57848901518255600182019150602085019450602081019050617dd6565b86831015617e185784890151617e14601f891682617d27565b8355505b6001600288020188555050505b505050505050565b61026082015f820151617e425f8501826160be565b506020820151617e5560208501826160be565b506040820151617e6860408501826160be565b506060820151617e7b6060850182617a43565b506080820151617e8f61012085018261607f565b5060a0820151617ea361014085018261749c565b5060c0820151617eb761020085018261752f565b50505050565b5f61026082019050617ed15f830184617e2d565b92915050565b7f4e487b71000000000000000000000000000000000000000000000000000000005f52601160045260245ffd5b5f617f0e82616076565b9150617f1983616076565b9250828201905080821115617f3157617f30617ed7565b5b92915050565b5f82825260208201905092915050565b7f616464206f766572666c6f7700000000000000000000000000000000000000005f82015250565b5f617f7b600c83617f37565b9150617f8682617f47565b602082019050919050565b5f6020820190508181035f830152617fa881617f6f565b9050919050565b5f617fb982616076565b9150617fc483616076565b9250828203905081811115617fdc57617fdb617ed7565b5b92915050565b7f737562207772617061726f756e640000000000000000000000000000000000005f82015250565b5f618016600e83617f37565b915061802182617fe2565b602082019050919050565b5f6020820190508181035f8301526180438161800a565b9050919050565b5f60408201905061805d5f8301856173a5565b61806a60208301846161e0565b9392505050565b5f81905092915050565b5f6180858261634b565b61808f8185618071565b935061809f818560208601616365565b80840191505092915050565b5f6180b6828461807b565b915081905092915050565b5f602082840312156180d6576180d5616211565b5b5f6180e384828501616d27565b91505092915050565b5f6060820190506180ff5f8301866173a5565b61810c60208301856173a5565b61811960408301846161e0565b94935050505056fea264697066735822122046af3682c966ff00187d7db0b1b0c8f07b7806dc0c1af35107b1846493589e9964736f6c63430008190033",
			"opcodes": "PUSH1 0x80 PUSH1 0x40 MSTORE PUSH1 0x40 MLOAD PUSH2 0x9553 CODESIZE SUB DUP1 PUSH2 0x9553 DUP4 CODECOPY DUP2 DUP2 ADD PUSH1 0x40 MSTORE DUP2 ADD SWAP1 PUSH2 0x25 SWAP2 SWAP1 PUSH2 0xC6F JUMP JUMPDEST PUSH0 DUP1 DUP2 SWAP1 SSTORE POP NUMBER PUSH1 0x3 DUP2 SWAP1 SSTORE POP PUSH2 0x3A PUSH2 0x667 JUMP JUMPDEST PUSH2 0x4A DUP3 DUP3 PUSH2 0x51 PUSH1 0x20 SHL PUSH1 0x20 SHR JUMP JUMPDEST POP POP PUSH2 0x13EF JUMP JUMPDEST PUSH2 0x59 PUSH2 0x6E0 JUMP JUMPDEST PUSH2 0x79 PUSH1 0x4 PUSH0 SWAP1 SLOAD SWAP1 PUSH2 0x100 EXP SWAP1 DIV PUSH1 0xFF AND ISZERO PUSH1 0xD PUSH2 0x4D5 PUSH1 0x20 SHL PUSH1 0x20 SHR JUMP JUMPDEST PUSH32 0xAF39F1E9D61DF325467CF61D18A0FAE57850E276B6AD4443A127CA1FA0CB37F3 CALLER DUP5 PUSH1 0x40 MLOAD PUSH2 0xAA SWAP3 SWAP2 SWAP1 PUSH2 0xE32 JUMP JUMPDEST PUSH1 0x40 MLOAD DUP1 SWAP2 SUB SWAP1 LOG1 PUSH2 0xD7 PUSH0 DUP5 PUSH0 ADD MLOAD EQ DUP1 PUSH2 0xCA JUMPI POP DUP4 PUSH0 ADD MLOAD PUSH1 0x1 SLOAD EQ JUMPDEST PUSH1 0xE PUSH2 0x4D5 PUSH1 0x20 SHL PUSH1 0x20 SHR JUMP JUMPDEST PUSH0 DUP2 PUSH0 ADD MLOAD PUSH0 ADD DUP2 DUP2 MSTORE POP POP PUSH0 DUP2 PUSH0 ADD MLOAD PUSH1 0x20 ADD DUP2 DUP2 MSTORE POP POP PUSH0 DUP2 PUSH0 ADD MLOAD PUSH1 0x40 ADD SWAP1 ISZERO ISZERO SWAP1 DUP2 ISZERO ISZERO DUP2 MSTORE POP POP DUP1 PUSH0 ADD MLOAD DUP2 PUSH1 0x20 ADD MLOAD PUSH0 PUSH1 0x2 DUP2 LT PUSH2 0x11E JUMPI PUSH2 0x11D PUSH2 0xE5A JUMP JUMPDEST JUMPDEST PUSH1 0x20 MUL ADD DUP2 SWAP1 MSTORE POP DUP1 PUSH0 ADD MLOAD DUP2 PUSH1 0x20 ADD MLOAD PUSH1 0x1 PUSH1 0x2 DUP2 LT PUSH2 0x142 JUMPI PUSH2 0x141 PUSH2 0xE5A JUMP JUMPDEST JUMPDEST PUSH1 0x20 MUL ADD DUP2 SWAP1 MSTORE POP PUSH0 DUP2 PUSH1 0x40 ADD MLOAD PUSH0 PUSH1 0x2 DUP2 LT PUSH2 0x162 JUMPI PUSH2 0x161 PUSH2 0xE5A JUMP JUMPDEST JUMPDEST PUSH1 0x20 MUL ADD SWAP1 PUSH20 0xFFFFFFFFFFFFFFFFFFFFFFFFFFFFFFFFFFFFFFFF AND SWAP1 DUP2 PUSH20 0xFFFFFFFFFFFFFFFFFFFFFFFFFFFFFFFFFFFFFFFF AND DUP2 MSTORE POP POP PUSH0 DUP2 PUSH1 0x40 ADD MLOAD PUSH1 0x1 PUSH1 0x2 DUP2 LT PUSH2 0x1B2 JUMPI PUSH2 0x1B1 PUSH2 0xE5A JUMP JUMPDEST JUMPDEST PUSH1 0x20 MUL ADD SWAP1 PUSH20 0xFFFFFFFFFFFFFFFFFFFFFFFFFFFFFFFFFFFFFFFF AND SWAP1 DUP2 PUSH20 0xFFFFFFFFFFFFFFFFFFFFFFFFFFFFFFFFFFFFFFFF AND DUP2 MSTORE POP POP PUSH2 0x258 DUP2 PUSH1 0x20 ADD MLOAD PUSH0 PUSH1 0x40 MLOAD DUP1 PUSH1 0x60 ADD PUSH1 0x40 MSTORE DUP1 PUSH0 DUP2 MSTORE PUSH1 0x20 ADD DUP6 PUSH1 0x20 ADD MLOAD PUSH0 PUSH1 0x2 DUP2 LT PUSH2 0x21A JUMPI PUSH2 0x219 PUSH2 0xE5A JUMP JUMPDEST JUMPDEST PUSH1 0x20 MUL ADD MLOAD PUSH1 0x20 ADD MLOAD DUP2 MSTORE PUSH1 0x20 ADD DUP6 PUSH1 0x20 ADD MLOAD PUSH0 PUSH1 0x2 DUP2 LT PUSH2 0x23F JUMPI PUSH2 0x23E PUSH2 0xE5A JUMP JUMPDEST JUMPDEST PUSH1 0x20 MUL ADD MLOAD PUSH1 0x40 ADD MLOAD ISZERO ISZERO DUP2 MSTORE POP PUSH2 0x51B PUSH1 0x20 SHL PUSH1 0x20 SHR JUMP JUMPDEST DUP2 PUSH1 0x60 ADD DUP2 SWAP1 MSTORE POP PUSH2 0x2B4 DUP4 PUSH1 0x40 ADD MLOAD PUSH20 0xFFFFFFFFFFFFFFFFFFFFFFFFFFFFFFFFFFFFFFFF AND DUP5 PUSH1 0xC0 ADD MLOAD PUSH20 0xFFFFFFFFFFFFFFFFFFFFFFFFFFFFFFFFFFFFFFFF AND EQ PUSH2 0x2A5 JUMPI PUSH1 0x1 PUSH2 0x2A7 JUMP JUMPDEST PUSH0 JUMPDEST PUSH1 0xF PUSH2 0x4D5 PUSH1 0x20 SHL PUSH1 0x20 SHR JUMP JUMPDEST PUSH2 0x2C7 PUSH0 CALLVALUE EQ PUSH1 0x10 PUSH2 0x4D5 PUSH1 0x20 SHL PUSH1 0x20 SHR JUMP JUMPDEST PUSH2 0x2CF PUSH2 0x720 JUMP JUMPDEST CALLER DUP2 PUSH0 ADD SWAP1 PUSH20 0xFFFFFFFFFFFFFFFFFFFFFFFFFFFFFFFFFFFFFFFF AND SWAP1 DUP2 PUSH20 0xFFFFFFFFFFFFFFFFFFFFFFFFFFFFFFFFFFFFFFFF AND DUP2 MSTORE POP POP DUP4 PUSH1 0x20 ADD MLOAD DUP2 PUSH1 0x20 ADD DUP2 SWAP1 MSTORE POP DUP4 PUSH1 0x40 ADD MLOAD DUP2 PUSH1 0x40 ADD SWAP1 PUSH20 0xFFFFFFFFFFFFFFFFFFFFFFFFFFFFFFFFFFFFFFFF AND SWAP1 DUP2 PUSH20 0xFFFFFFFFFFFFFFFFFFFFFFFFFFFFFFFFFFFFFFFF AND DUP2 MSTORE POP POP DUP4 PUSH1 0x60 ADD MLOAD DUP2 PUSH1 0x60 ADD DUP2 SWAP1 MSTORE POP DUP4 PUSH1 0x80 ADD MLOAD DUP2 PUSH1 0x80 ADD DUP2 SWAP1 MSTORE POP DUP4 PUSH1 0xA0 ADD MLOAD DUP2 PUSH1 0xA0 ADD SWAP1 PUSH20 0xFFFFFFFFFFFFFFFFFFFFFFFFFFFFFFFFFFFFFFFF AND SWAP1 DUP2 PUSH20 0xFFFFFFFFFFFFFFFFFFFFFFFFFFFFFFFFFFFFFFFF AND DUP2 MSTORE POP POP DUP4 PUSH1 0xC0 ADD MLOAD DUP2 PUSH1 0xC0 ADD SWAP1 PUSH20 0xFFFFFFFFFFFFFFFFFFFFFFFFFFFFFFFFFFFFFFFF AND SWAP1 DUP2 PUSH20 0xFFFFFFFFFFFFFFFFFFFFFFFFFFFFFFFFFFFFFFFF AND DUP2 MSTORE POP POP PUSH2 0x453 DUP3 PUSH1 0x60 ADD MLOAD PUSH1 0x1 PUSH1 0x40 MLOAD DUP1 PUSH1 0x60 ADD PUSH1 0x40 MSTORE DUP1 PUSH0 DUP2 MSTORE PUSH1 0x20 ADD DUP7 PUSH1 0x60 ADD MLOAD PUSH1 0x1 PUSH1 0x2 DUP2 LT PUSH2 0x414 JUMPI PUSH2 0x413 PUSH2 0xE5A JUMP JUMPDEST JUMPDEST PUSH1 0x20 MUL ADD MLOAD PUSH1 0x20 ADD MLOAD DUP2 MSTORE PUSH1 0x20 ADD DUP7 PUSH1 0x60 ADD MLOAD PUSH1 0x1 PUSH1 0x2 DUP2 LT PUSH2 0x43A JUMPI PUSH2 0x439 PUSH2 0xE5A JUMP JUMPDEST JUMPDEST PUSH1 0x20 MUL ADD MLOAD PUSH1 0x40 ADD MLOAD ISZERO ISZERO DUP2 MSTORE POP PUSH2 0x51B PUSH1 0x20 SHL PUSH1 0x20 SHR JUMP JUMPDEST DUP2 PUSH1 0xE0 ADD DUP2 SWAP1 MSTORE POP PUSH2 0x489 PUSH2 0x477 DUP4 PUSH1 0x40 ADD MLOAD PUSH0 DUP8 PUSH1 0x40 ADD MLOAD PUSH2 0x592 PUSH1 0x20 SHL PUSH1 0x20 SHR JUMP JUMPDEST PUSH1 0x1 DUP7 PUSH1 0xC0 ADD MLOAD PUSH2 0x592 PUSH1 0x20 SHL PUSH1 0x20 SHR JUMP JUMPDEST DUP2 PUSH2 0x100 ADD DUP2 SWAP1 MSTORE POP PUSH1 0x1 PUSH0 DUP2 SWAP1 SSTORE POP NUMBER PUSH1 0x1 DUP2 SWAP1 SSTORE POP DUP1 PUSH1 0x40 MLOAD PUSH1 0x20 ADD PUSH2 0x4B1 SWAP2 SWAP1 PUSH2 0x10AD JUMP JUMPDEST PUSH1 0x40 MLOAD PUSH1 0x20 DUP2 DUP4 SUB SUB DUP2 MSTORE SWAP1 PUSH1 0x40 MSTORE PUSH1 0x2 SWAP1 DUP2 PUSH2 0x4CE SWAP2 SWAP1 PUSH2 0x12CB JUMP JUMPDEST POP POP POP POP POP JUMP JUMPDEST DUP2 PUSH2 0x517 JUMPI DUP1 PUSH1 0x40 MLOAD PUSH32 0x100960CB00000000000000000000000000000000000000000000000000000000 DUP2 MSTORE PUSH1 0x4 ADD PUSH2 0x50E SWAP2 SWAP1 PUSH2 0x13A9 JUMP JUMPDEST PUSH1 0x40 MLOAD DUP1 SWAP2 SUB SWAP1 REVERT JUMPDEST POP POP JUMP JUMPDEST PUSH2 0x523 PUSH2 0x7DE JUMP JUMPDEST PUSH0 JUMPDEST PUSH1 0x2 DUP2 LT ISZERO PUSH2 0x56E JUMPI DUP5 DUP2 PUSH1 0x2 DUP2 LT PUSH2 0x541 JUMPI PUSH2 0x540 PUSH2 0xE5A JUMP JUMPDEST JUMPDEST PUSH1 0x20 MUL ADD MLOAD DUP3 DUP3 PUSH1 0x2 DUP2 LT PUSH2 0x559 JUMPI PUSH2 0x558 PUSH2 0xE5A JUMP JUMPDEST JUMPDEST PUSH1 0x20 MUL ADD DUP2 SWAP1 MSTORE POP DUP1 DUP1 PUSH1 0x1 ADD SWAP2 POP POP PUSH2 0x525 JUMP JUMPDEST POP DUP2 DUP2 DUP5 PUSH1 0x2 DUP2 LT PUSH2 0x583 JUMPI PUSH2 0x582 PUSH2 0xE5A JUMP JUMPDEST JUMPDEST PUSH1 0x20 MUL ADD DUP2 SWAP1 MSTORE POP SWAP4 SWAP3 POP POP POP JUMP JUMPDEST PUSH2 0x59A PUSH2 0x80B JUMP JUMPDEST PUSH0 JUMPDEST PUSH1 0x2 DUP2 LT ISZERO PUSH2 0x614 JUMPI DUP5 DUP2 PUSH1 0x2 DUP2 LT PUSH2 0x5B8 JUMPI PUSH2 0x5B7 PUSH2 0xE5A JUMP JUMPDEST JUMPDEST PUSH1 0x20 MUL ADD MLOAD DUP3 DUP3 PUSH1 0x2 DUP2 LT PUSH2 0x5D0 JUMPI PUSH2 0x5CF PUSH2 0xE5A JUMP JUMPDEST JUMPDEST PUSH1 0x20 MUL ADD SWAP1 PUSH20 0xFFFFFFFFFFFFFFFFFFFFFFFFFFFFFFFFFFFFFFFF AND SWAP1 DUP2 PUSH20 0xFFFFFFFFFFFFFFFFFFFFFFFFFFFFFFFFFFFFFFFF AND DUP2 MSTORE POP POP DUP1 DUP1 PUSH1 0x1 ADD SWAP2 POP POP PUSH2 0x59C JUMP JUMPDEST POP DUP2 DUP2 DUP5 PUSH1 0x2 DUP2 LT PUSH2 0x629 JUMPI PUSH2 0x628 PUSH2 0xE5A JUMP JUMPDEST JUMPDEST PUSH1 0x20 MUL ADD SWAP1 PUSH20 0xFFFFFFFFFFFFFFFFFFFFFFFFFFFFFFFFFFFFFFFF AND SWAP1 DUP2 PUSH20 0xFFFFFFFFFFFFFFFFFFFFFFFFFFFFFFFFFFFFFFFF AND DUP2 MSTORE POP POP SWAP4 SWAP3 POP POP POP JUMP JUMPDEST PUSH1 0x40 MLOAD DUP1 PUSH2 0x160 ADD PUSH1 0x40 MSTORE DUP1 PUSH0 ISZERO ISZERO DUP2 MSTORE PUSH1 0x20 ADD PUSH0 ISZERO ISZERO DUP2 MSTORE PUSH1 0x20 ADD PUSH0 ISZERO ISZERO DUP2 MSTORE PUSH1 0x20 ADD PUSH0 ISZERO ISZERO DUP2 MSTORE PUSH1 0x20 ADD PUSH0 ISZERO ISZERO DUP2 MSTORE PUSH1 0x20 ADD PUSH2 0x6A3 PUSH2 0x82D JUMP JUMPDEST DUP2 MSTORE PUSH1 0x20 ADD PUSH2 0x6B0 PUSH2 0x88F JUMP JUMPDEST DUP2 MSTORE PUSH1 0x20 ADD PUSH2 0x6BD PUSH2 0x8C3 JUMP JUMPDEST DUP2 MSTORE PUSH1 0x20 ADD PUSH0 ISZERO ISZERO DUP2 MSTORE PUSH1 0x20 ADD PUSH0 ISZERO ISZERO DUP2 MSTORE PUSH1 0x20 ADD PUSH2 0x6DA PUSH2 0x8FC JUMP JUMPDEST DUP2 MSTORE POP SWAP1 JUMP JUMPDEST PUSH1 0x40 MLOAD DUP1 PUSH1 0x80 ADD PUSH1 0x40 MSTORE DUP1 PUSH2 0x6F3 PUSH2 0x940 JUMP JUMPDEST DUP2 MSTORE PUSH1 0x20 ADD PUSH2 0x700 PUSH2 0x7DE JUMP JUMPDEST DUP2 MSTORE PUSH1 0x20 ADD PUSH2 0x70D PUSH2 0x80B JUMP JUMPDEST DUP2 MSTORE PUSH1 0x20 ADD PUSH2 0x71A PUSH2 0x7DE JUMP JUMPDEST DUP2 MSTORE POP SWAP1 JUMP JUMPDEST PUSH1 0x40 MLOAD DUP1 PUSH2 0x120 ADD PUSH1 0x40 MSTORE DUP1 PUSH0 PUSH20 0xFFFFFFFFFFFFFFFFFFFFFFFFFFFFFFFFFFFFFFFF AND DUP2 MSTORE PUSH1 0x20 ADD PUSH2 0x750 PUSH2 0x82D JUMP JUMPDEST DUP2 MSTORE PUSH1 0x20 ADD PUSH0 PUSH20 0xFFFFFFFFFFFFFFFFFFFFFFFFFFFFFFFFFFFFFFFF AND DUP2 MSTORE PUSH1 0x20 ADD PUSH2 0x779 PUSH2 0x82D JUMP JUMPDEST DUP2 MSTORE PUSH1 0x20 ADD PUSH2 0x786 PUSH2 0x88F JUMP JUMPDEST DUP2 MSTORE PUSH1 0x20 ADD PUSH0 PUSH20 0xFFFFFFFFFFFFFFFFFFFFFFFFFFFFFFFFFFFFFFFF AND DUP2 MSTORE PUSH1 0x20 ADD PUSH0 PUSH20 0xFFFFFFFFFFFFFFFFFFFFFFFFFFFFFFFFFFFFFFFF AND DUP2 MSTORE PUSH1 0x20 ADD PUSH2 0x7CB PUSH2 0x7DE JUMP JUMPDEST DUP2 MSTORE PUSH1 0x20 ADD PUSH2 0x7D8 PUSH2 0x80B JUMP JUMPDEST DUP2 MSTORE POP SWAP1 JUMP JUMPDEST PUSH1 0x40 MLOAD DUP1 PUSH1 0x40 ADD PUSH1 0x40 MSTORE DUP1 PUSH1 0x2 SWAP1 JUMPDEST PUSH2 0x7F5 PUSH2 0x940 JUMP JUMPDEST DUP2 MSTORE PUSH1 0x20 ADD SWAP1 PUSH1 0x1 SWAP1 SUB SWAP1 DUP2 PUSH2 0x7ED JUMPI SWAP1 POP POP SWAP1 JUMP JUMPDEST PUSH1 0x40 MLOAD DUP1 PUSH1 0x40 ADD PUSH1 0x40 MSTORE DUP1 PUSH1 0x2 SWAP1 PUSH1 0x20 DUP3 MUL DUP1 CALLDATASIZE DUP4 CALLDATACOPY DUP1 DUP3 ADD SWAP2 POP POP SWAP1 POP POP SWAP1 JUMP JUMPDEST PUSH1 0x40 MLOAD DUP1 PUSH1 0xC0 ADD PUSH1 0x40 MSTORE DUP1 PUSH0 ISZERO ISZERO DUP2 MSTORE PUSH1 0x20 ADD PUSH0 DUP2 MSTORE PUSH1 0x20 ADD PUSH0 PUSH20 0xFFFFFFFFFFFFFFFFFFFFFFFFFFFFFFFFFFFFFFFF AND DUP2 MSTORE PUSH1 0x20 ADD PUSH0 ISZERO ISZERO DUP2 MSTORE PUSH1 0x20 ADD PUSH0 ISZERO ISZERO DUP2 MSTORE PUSH1 0x20 ADD PUSH0 PUSH20 0xFFFFFFFFFFFFFFFFFFFFFFFFFFFFFFFFFFFFFFFF AND DUP2 MSTORE POP SWAP1 JUMP JUMPDEST PUSH1 0x40 MLOAD DUP1 PUSH1 0x60 ADD PUSH1 0x40 MSTORE DUP1 PUSH0 DUP2 MSTORE PUSH1 0x20 ADD PUSH0 PUSH20 0xFFFFFFFFFFFFFFFFFFFFFFFFFFFFFFFFFFFFFFFF AND DUP2 MSTORE PUSH1 0x20 ADD PUSH0 DUP2 MSTORE POP SWAP1 JUMP JUMPDEST PUSH1 0x40 MLOAD DUP1 PUSH1 0x60 ADD PUSH1 0x40 MSTORE DUP1 PUSH0 PUSH1 0x1 DUP2 GT ISZERO PUSH2 0x8E1 JUMPI PUSH2 0x8E0 PUSH2 0x13C2 JUMP JUMPDEST JUMPDEST DUP2 MSTORE PUSH1 0x20 ADD PUSH0 ISZERO ISZERO DUP2 MSTORE PUSH1 0x20 ADD PUSH2 0x8F6 PUSH2 0x8FC JUMP JUMPDEST DUP2 MSTORE POP SWAP1 JUMP JUMPDEST PUSH1 0x40 MLOAD DUP1 PUSH1 0xA0 ADD PUSH1 0x40 MSTORE DUP1 PUSH0 DUP2 MSTORE PUSH1 0x20 ADD PUSH0 PUSH20 0xFFFFFFFFFFFFFFFFFFFFFFFFFFFFFFFFFFFFFFFF AND DUP2 MSTORE PUSH1 0x20 ADD PUSH0 DUP2 MSTORE PUSH1 0x20 ADD PUSH0 ISZERO ISZERO DUP2 MSTORE PUSH1 0x20 ADD PUSH0 ISZERO ISZERO DUP2 MSTORE POP SWAP1 JUMP JUMPDEST PUSH1 0x40 MLOAD DUP1 PUSH1 0x60 ADD PUSH1 0x40 MSTORE DUP1 PUSH0 DUP2 MSTORE PUSH1 0x20 ADD PUSH0 DUP2 MSTORE PUSH1 0x20 ADD PUSH0 ISZERO ISZERO DUP2 MSTORE POP SWAP1 JUMP JUMPDEST PUSH0 PUSH1 0x40 MLOAD SWAP1 POP SWAP1 JUMP JUMPDEST PUSH0 DUP1 REVERT JUMPDEST PUSH0 DUP1 REVERT JUMPDEST PUSH0 PUSH1 0x1F NOT PUSH1 0x1F DUP4 ADD AND SWAP1 POP SWAP2 SWAP1 POP JUMP JUMPDEST PUSH32 0x4E487B7100000000000000000000000000000000000000000000000000000000 PUSH0 MSTORE PUSH1 0x41 PUSH1 0x4 MSTORE PUSH1 0x24 PUSH0 REVERT JUMPDEST PUSH2 0x9B7 DUP3 PUSH2 0x971 JUMP JUMPDEST DUP2 ADD DUP2 DUP2 LT PUSH8 0xFFFFFFFFFFFFFFFF DUP3 GT OR ISZERO PUSH2 0x9D6 JUMPI PUSH2 0x9D5 PUSH2 0x981 JUMP JUMPDEST JUMPDEST DUP1 PUSH1 0x40 MSTORE POP POP POP JUMP JUMPDEST PUSH0 PUSH2 0x9E8 PUSH2 0x960 JUMP JUMPDEST SWAP1 POP PUSH2 0x9F4 DUP3 DUP3 PUSH2 0x9AE JUMP JUMPDEST SWAP2 SWAP1 POP JUMP JUMPDEST PUSH0 DUP2 SWAP1 POP SWAP2 SWAP1 POP JUMP JUMPDEST PUSH2 0xA0B DUP2 PUSH2 0x9F9 JUMP JUMPDEST DUP2 EQ PUSH2 0xA15 JUMPI PUSH0 DUP1 REVERT JUMPDEST POP JUMP JUMPDEST PUSH0 DUP2 MLOAD SWAP1 POP PUSH2 0xA26 DUP2 PUSH2 0xA02 JUMP JUMPDEST SWAP3 SWAP2 POP POP JUMP JUMPDEST PUSH0 DUP2 ISZERO ISZERO SWAP1 POP SWAP2 SWAP1 POP JUMP JUMPDEST PUSH2 0xA40 DUP2 PUSH2 0xA2C JUMP JUMPDEST DUP2 EQ PUSH2 0xA4A JUMPI PUSH0 DUP1 REVERT JUMPDEST POP JUMP JUMPDEST PUSH0 DUP2 MLOAD SWAP1 POP PUSH2 0xA5B DUP2 PUSH2 0xA37 JUMP JUMPDEST SWAP3 SWAP2 POP POP JUMP JUMPDEST PUSH0 PUSH20 0xFFFFFFFFFFFFFFFFFFFFFFFFFFFFFFFFFFFFFFFF DUP3 AND SWAP1 POP SWAP2 SWAP1 POP JUMP JUMPDEST PUSH0 PUSH2 0xA8A DUP3 PUSH2 0xA61 JUMP JUMPDEST SWAP1 POP SWAP2 SWAP1 POP JUMP JUMPDEST PUSH2 0xA9A DUP2 PUSH2 0xA80 JUMP JUMPDEST DUP2 EQ PUSH2 0xAA4 JUMPI PUSH0 DUP1 REVERT JUMPDEST POP JUMP JUMPDEST PUSH0 DUP2 MLOAD SWAP1 POP PUSH2 0xAB5 DUP2 PUSH2 0xA91 JUMP JUMPDEST SWAP3 SWAP2 POP POP JUMP JUMPDEST PUSH0 PUSH1 0xC0 DUP3 DUP5 SUB SLT ISZERO PUSH2 0xAD0 JUMPI PUSH2 0xACF PUSH2 0x96D JUMP JUMPDEST JUMPDEST PUSH2 0xADA PUSH1 0xC0 PUSH2 0x9DF JUMP JUMPDEST SWAP1 POP PUSH0 PUSH2 0xAE9 DUP5 DUP3 DUP6 ADD PUSH2 0xA4D JUMP JUMPDEST PUSH0 DUP4 ADD MSTORE POP PUSH1 0x20 PUSH2 0xAFC DUP5 DUP3 DUP6 ADD PUSH2 0xA18 JUMP JUMPDEST PUSH1 0x20 DUP4 ADD MSTORE POP PUSH1 0x40 PUSH2 0xB10 DUP5 DUP3 DUP6 ADD PUSH2 0xAA7 JUMP JUMPDEST PUSH1 0x40 DUP4 ADD MSTORE POP PUSH1 0x60 PUSH2 0xB24 DUP5 DUP3 DUP6 ADD PUSH2 0xA4D JUMP JUMPDEST PUSH1 0x60 DUP4 ADD MSTORE POP PUSH1 0x80 PUSH2 0xB38 DUP5 DUP3 DUP6 ADD PUSH2 0xA4D JUMP JUMPDEST PUSH1 0x80 DUP4 ADD MSTORE POP PUSH1 0xA0 PUSH2 0xB4C DUP5 DUP3 DUP6 ADD PUSH2 0xAA7 JUMP JUMPDEST PUSH1 0xA0 DUP4 ADD MSTORE POP SWAP3 SWAP2 POP POP JUMP JUMPDEST PUSH0 PUSH1 0x60 DUP3 DUP5 SUB SLT ISZERO PUSH2 0xB6D JUMPI PUSH2 0xB6C PUSH2 0x96D JUMP JUMPDEST JUMPDEST PUSH2 0xB77 PUSH1 0x60 PUSH2 0x9DF JUMP JUMPDEST SWAP1 POP PUSH0 PUSH2 0xB86 DUP5 DUP3 DUP6 ADD PUSH2 0xA18 JUMP JUMPDEST PUSH0 DUP4 ADD MSTORE POP PUSH1 0x20 PUSH2 0xB99 DUP5 DUP3 DUP6 ADD PUSH2 0xAA7 JUMP JUMPDEST PUSH1 0x20 DUP4 ADD MSTORE POP PUSH1 0x40 PUSH2 0xBAD DUP5 DUP3 DUP6 ADD PUSH2 0xA18 JUMP JUMPDEST PUSH1 0x40 DUP4 ADD MSTORE POP SWAP3 SWAP2 POP POP JUMP JUMPDEST PUSH0 PUSH2 0x260 DUP3 DUP5 SUB SLT ISZERO PUSH2 0xBCF JUMPI PUSH2 0xBCE PUSH2 0x96D JUMP JUMPDEST JUMPDEST PUSH2 0xBD9 PUSH1 0xE0 PUSH2 0x9DF JUMP JUMPDEST SWAP1 POP PUSH0 PUSH2 0xBE8 DUP5 DUP3 DUP6 ADD PUSH2 0xA18 JUMP JUMPDEST PUSH0 DUP4 ADD MSTORE POP PUSH1 0x20 PUSH2 0xBFB DUP5 DUP3 DUP6 ADD PUSH2 0xABB JUMP JUMPDEST PUSH1 0x20 DUP4 ADD MSTORE POP PUSH1 0xE0 PUSH2 0xC0F DUP5 DUP3 DUP6 ADD PUSH2 0xAA7 JUMP JUMPDEST PUSH1 0x40 DUP4 ADD MSTORE POP PUSH2 0x100 PUSH2 0xC24 DUP5 DUP3 DUP6 ADD PUSH2 0xABB JUMP JUMPDEST PUSH1 0x60 DUP4 ADD MSTORE POP PUSH2 0x1C0 PUSH2 0xC39 DUP5 DUP3 DUP6 ADD PUSH2 0xB58 JUMP JUMPDEST PUSH1 0x80 DUP4 ADD MSTORE POP PUSH2 0x220 PUSH2 0xC4E DUP5 DUP3 DUP6 ADD PUSH2 0xAA7 JUMP JUMPDEST PUSH1 0xA0 DUP4 ADD MSTORE POP PUSH2 0x240 PUSH2 0xC63 DUP5 DUP3 DUP6 ADD PUSH2 0xAA7 JUMP JUMPDEST PUSH1 0xC0 DUP4 ADD MSTORE POP SWAP3 SWAP2 POP POP JUMP JUMPDEST PUSH0 PUSH2 0x260 DUP3 DUP5 SUB SLT ISZERO PUSH2 0xC85 JUMPI PUSH2 0xC84 PUSH2 0x969 JUMP JUMPDEST JUMPDEST PUSH0 PUSH2 0xC92 DUP5 DUP3 DUP6 ADD PUSH2 0xBB9 JUMP JUMPDEST SWAP2 POP POP SWAP3 SWAP2 POP POP JUMP JUMPDEST PUSH0 PUSH2 0xCA5 DUP3 PUSH2 0xA61 JUMP JUMPDEST SWAP1 POP SWAP2 SWAP1 POP JUMP JUMPDEST PUSH2 0xCB5 DUP2 PUSH2 0xC9B JUMP JUMPDEST DUP3 MSTORE POP POP JUMP JUMPDEST PUSH2 0xCC4 DUP2 PUSH2 0x9F9 JUMP JUMPDEST DUP3 MSTORE POP POP JUMP JUMPDEST PUSH2 0xCD3 DUP2 PUSH2 0xA2C JUMP JUMPDEST DUP3 MSTORE POP POP JUMP JUMPDEST PUSH2 0xCE2 DUP2 PUSH2 0xA80 JUMP JUMPDEST DUP3 MSTORE POP POP JUMP JUMPDEST PUSH1 0xC0 DUP3 ADD PUSH0 DUP3 ADD MLOAD PUSH2 0xCFC PUSH0 DUP6 ADD DUP3 PUSH2 0xCCA JUMP JUMPDEST POP PUSH1 0x20 DUP3 ADD MLOAD PUSH2 0xD0F PUSH1 0x20 DUP6 ADD DUP3 PUSH2 0xCBB JUMP JUMPDEST POP PUSH1 0x40 DUP3 ADD MLOAD PUSH2 0xD22 PUSH1 0x40 DUP6 ADD DUP3 PUSH2 0xCD9 JUMP JUMPDEST POP PUSH1 0x60 DUP3 ADD MLOAD PUSH2 0xD35 PUSH1 0x60 DUP6 ADD DUP3 PUSH2 0xCCA JUMP JUMPDEST POP PUSH1 0x80 DUP3 ADD MLOAD PUSH2 0xD48 PUSH1 0x80 DUP6 ADD DUP3 PUSH2 0xCCA JUMP JUMPDEST POP PUSH1 0xA0 DUP3 ADD MLOAD PUSH2 0xD5B PUSH1 0xA0 DUP6 ADD DUP3 PUSH2 0xCD9 JUMP JUMPDEST POP POP POP POP JUMP JUMPDEST PUSH1 0x60 DUP3 ADD PUSH0 DUP3 ADD MLOAD PUSH2 0xD75 PUSH0 DUP6 ADD DUP3 PUSH2 0xCBB JUMP JUMPDEST POP PUSH1 0x20 DUP3 ADD MLOAD PUSH2 0xD88 PUSH1 0x20 DUP6 ADD DUP3 PUSH2 0xCD9 JUMP JUMPDEST POP PUSH1 0x40 DUP3 ADD MLOAD PUSH2 0xD9B PUSH1 0x40 DUP6 ADD DUP3 PUSH2 0xCBB JUMP JUMPDEST POP POP POP POP JUMP JUMPDEST PUSH2 0x260 DUP3 ADD PUSH0 DUP3 ADD MLOAD PUSH2 0xDB6 PUSH0 DUP6 ADD DUP3 PUSH2 0xCBB JUMP JUMPDEST POP PUSH1 0x20 DUP3 ADD MLOAD PUSH2 0xDC9 PUSH1 0x20 DUP6 ADD DUP3 PUSH2 0xCE8 JUMP JUMPDEST POP PUSH1 0x40 DUP3 ADD MLOAD PUSH2 0xDDC PUSH1 0xE0 DUP6 ADD DUP3 PUSH2 0xCD9 JUMP JUMPDEST POP PUSH1 0x60 DUP3 ADD MLOAD PUSH2 0xDF0 PUSH2 0x100 DUP6 ADD DUP3 PUSH2 0xCE8 JUMP JUMPDEST POP PUSH1 0x80 DUP3 ADD MLOAD PUSH2 0xE04 PUSH2 0x1C0 DUP6 ADD DUP3 PUSH2 0xD61 JUMP JUMPDEST POP PUSH1 0xA0 DUP3 ADD MLOAD PUSH2 0xE18 PUSH2 0x220 DUP6 ADD DUP3 PUSH2 0xCD9 JUMP JUMPDEST POP PUSH1 0xC0 DUP3 ADD MLOAD PUSH2 0xE2C PUSH2 0x240 DUP6 ADD DUP3 PUSH2 0xCD9 JUMP JUMPDEST POP POP POP POP JUMP JUMPDEST PUSH0 PUSH2 0x280 DUP3 ADD SWAP1 POP PUSH2 0xE46 PUSH0 DUP4 ADD DUP6 PUSH2 0xCAC JUMP JUMPDEST PUSH2 0xE53 PUSH1 0x20 DUP4 ADD DUP5 PUSH2 0xDA1 JUMP JUMPDEST SWAP4 SWAP3 POP POP POP JUMP JUMPDEST PUSH32 0x4E487B7100000000000000000000000000000000000000000000000000000000 PUSH0 MSTORE PUSH1 0x32 PUSH1 0x4 MSTORE PUSH1 0x24 PUSH0 REVERT JUMPDEST PUSH0 PUSH1 0x2 SWAP1 POP SWAP2 SWAP1 POP JUMP JUMPDEST PUSH0 DUP2 SWAP1 POP SWAP3 SWAP2 POP POP JUMP JUMPDEST PUSH0 DUP2 SWAP1 POP SWAP2 SWAP1 POP JUMP JUMPDEST PUSH1 0x60 DUP3 ADD PUSH0 DUP3 ADD MLOAD PUSH2 0xEB8 PUSH0 DUP6 ADD DUP3 PUSH2 0xCBB JUMP JUMPDEST POP PUSH1 0x20 DUP3 ADD MLOAD PUSH2 0xECB PUSH1 0x20 DUP6 ADD DUP3 PUSH2 0xCBB JUMP JUMPDEST POP PUSH1 0x40 DUP3 ADD MLOAD PUSH2 0xEDE PUSH1 0x40 DUP6 ADD DUP3 PUSH2 0xCCA JUMP JUMPDEST POP POP POP POP JUMP JUMPDEST PUSH0 PUSH2 0xEEF DUP4 DUP4 PUSH2 0xEA4 JUMP JUMPDEST PUSH1 0x60 DUP4 ADD SWAP1 POP SWAP3 SWAP2 POP POP JUMP JUMPDEST PUSH0 PUSH1 0x20 DUP3 ADD SWAP1 POP SWAP2 SWAP1 POP JUMP JUMPDEST PUSH2 0xF10 DUP2 PUSH2 0xE87 JUMP JUMPDEST PUSH2 0xF1A DUP2 DUP5 PUSH2 0xE91 JUMP JUMPDEST SWAP3 POP PUSH2 0xF25 DUP3 PUSH2 0xE9B JUMP JUMPDEST DUP1 PUSH0 JUMPDEST DUP4 DUP2 LT ISZERO PUSH2 0xF55 JUMPI DUP2 MLOAD PUSH2 0xF3C DUP8 DUP3 PUSH2 0xEE4 JUMP JUMPDEST SWAP7 POP PUSH2 0xF47 DUP4 PUSH2 0xEFB JUMP JUMPDEST SWAP3 POP POP PUSH1 0x1 DUP2 ADD SWAP1 POP PUSH2 0xF28 JUMP JUMPDEST POP POP POP POP POP POP JUMP JUMPDEST PUSH0 PUSH1 0x2 SWAP1 POP SWAP2 SWAP1 POP JUMP JUMPDEST PUSH0 DUP2 SWAP1 POP SWAP3 SWAP2 POP POP JUMP JUMPDEST PUSH0 DUP2 SWAP1 POP SWAP2 SWAP1 POP JUMP JUMPDEST PUSH0 PUSH2 0xF85 DUP4 DUP4 PUSH2 0xCD9 JUMP JUMPDEST PUSH1 0x20 DUP4 ADD SWAP1 POP SWAP3 SWAP2 POP POP JUMP JUMPDEST PUSH0 PUSH1 0x20 DUP3 ADD SWAP1 POP SWAP2 SWAP1 POP JUMP JUMPDEST PUSH2 0xFA6 DUP2 PUSH2 0xF5D JUMP JUMPDEST PUSH2 0xFB0 DUP2 DUP5 PUSH2 0xF67 JUMP JUMPDEST SWAP3 POP PUSH2 0xFBB DUP3 PUSH2 0xF71 JUMP JUMPDEST DUP1 PUSH0 JUMPDEST DUP4 DUP2 LT ISZERO PUSH2 0xFEB JUMPI DUP2 MLOAD PUSH2 0xFD2 DUP8 DUP3 PUSH2 0xF7A JUMP JUMPDEST SWAP7 POP PUSH2 0xFDD DUP4 PUSH2 0xF91 JUMP JUMPDEST SWAP3 POP POP PUSH1 0x1 DUP2 ADD SWAP1 POP PUSH2 0xFBE JUMP JUMPDEST POP POP POP POP POP POP JUMP JUMPDEST PUSH2 0x360 DUP3 ADD PUSH0 DUP3 ADD MLOAD PUSH2 0x1008 PUSH0 DUP6 ADD DUP3 PUSH2 0xCD9 JUMP JUMPDEST POP PUSH1 0x20 DUP3 ADD MLOAD PUSH2 0x101B PUSH1 0x20 DUP6 ADD DUP3 PUSH2 0xCE8 JUMP JUMPDEST POP PUSH1 0x40 DUP3 ADD MLOAD PUSH2 0x102E PUSH1 0xE0 DUP6 ADD DUP3 PUSH2 0xCD9 JUMP JUMPDEST POP PUSH1 0x60 DUP3 ADD MLOAD PUSH2 0x1042 PUSH2 0x100 DUP6 ADD DUP3 PUSH2 0xCE8 JUMP JUMPDEST POP PUSH1 0x80 DUP3 ADD MLOAD PUSH2 0x1056 PUSH2 0x1C0 DUP6 ADD DUP3 PUSH2 0xD61 JUMP JUMPDEST POP PUSH1 0xA0 DUP3 ADD MLOAD PUSH2 0x106A PUSH2 0x220 DUP6 ADD DUP3 PUSH2 0xCD9 JUMP JUMPDEST POP PUSH1 0xC0 DUP3 ADD MLOAD PUSH2 0x107E PUSH2 0x240 DUP6 ADD DUP3 PUSH2 0xCD9 JUMP JUMPDEST POP PUSH1 0xE0 DUP3 ADD MLOAD PUSH2 0x1092 PUSH2 0x260 DUP6 ADD DUP3 PUSH2 0xF07 JUMP JUMPDEST POP PUSH2 0x100 DUP3 ADD MLOAD PUSH2 0x10A7 PUSH2 0x320 DUP6 ADD DUP3 PUSH2 0xF9D JUMP JUMPDEST POP POP POP POP JUMP JUMPDEST PUSH0 PUSH2 0x360 DUP3 ADD SWAP1 POP PUSH2 0x10C1 PUSH0 DUP4 ADD DUP5 PUSH2 0xFF3 JUMP JUMPDEST SWAP3 SWAP2 POP POP JUMP JUMPDEST PUSH0 DUP2 MLOAD SWAP1 POP SWAP2 SWAP1 POP JUMP JUMPDEST PUSH32 0x4E487B7100000000000000000000000000000000000000000000000000000000 PUSH0 MSTORE PUSH1 0x22 PUSH1 0x4 MSTORE PUSH1 0x24 PUSH0 REVERT JUMPDEST PUSH0 PUSH1 0x2 DUP3 DIV SWAP1 POP PUSH1 0x1 DUP3 AND DUP1 PUSH2 0x1115 JUMPI PUSH1 0x7F DUP3 AND SWAP2 POP JUMPDEST PUSH1 0x20 DUP3 LT DUP2 SUB PUSH2 0x1128 JUMPI PUSH2 0x1127 PUSH2 0x10D1 JUMP JUMPDEST JUMPDEST POP SWAP2 SWAP1 POP JUMP JUMPDEST PUSH0 DUP2 SWAP1 POP DUP2 PUSH0 MSTORE PUSH1 0x20 PUSH0 KECCAK256 SWAP1 POP SWAP2 SWAP1 POP JUMP JUMPDEST PUSH0 PUSH1 0x20 PUSH1 0x1F DUP4 ADD DIV SWAP1 POP SWAP2 SWAP1 POP JUMP JUMPDEST PUSH0 DUP3 DUP3 SHL SWAP1 POP SWAP3 SWAP2 POP POP JUMP JUMPDEST PUSH0 PUSH1 0x8 DUP4 MUL PUSH2 0x118A PUSH32 0xFFFFFFFFFFFFFFFFFFFFFFFFFFFFFFFFFFFFFFFFFFFFFFFFFFFFFFFFFFFFFFFF DUP3 PUSH2 0x114F JUMP JUMPDEST PUSH2 0x1194 DUP7 DUP4 PUSH2 0x114F JUMP JUMPDEST SWAP6 POP DUP1 NOT DUP5 AND SWAP4 POP DUP1 DUP7 AND DUP5 OR SWAP3 POP POP POP SWAP4 SWAP3 POP POP POP JUMP JUMPDEST PUSH0 DUP2 SWAP1 POP SWAP2 SWAP1 POP JUMP JUMPDEST PUSH0 PUSH2 0x11CF PUSH2 0x11CA PUSH2 0x11C5 DUP5 PUSH2 0x9F9 JUMP JUMPDEST PUSH2 0x11AC JUMP JUMPDEST PUSH2 0x9F9 JUMP JUMPDEST SWAP1 POP SWAP2 SWAP1 POP JUMP JUMPDEST PUSH0 DUP2 SWAP1 POP SWAP2 SWAP1 POP JUMP JUMPDEST PUSH2 0x11E8 DUP4 PUSH2 0x11B5 JUMP JUMPDEST PUSH2 0x11FC PUSH2 0x11F4 DUP3 PUSH2 0x11D6 JUMP JUMPDEST DUP5 DUP5 SLOAD PUSH2 0x115B JUMP JUMPDEST DUP3 SSTORE POP POP POP POP JUMP JUMPDEST PUSH0 SWAP1 JUMP JUMPDEST PUSH2 0x1210 PUSH2 0x1204 JUMP JUMPDEST PUSH2 0x121B DUP2 DUP5 DUP5 PUSH2 0x11DF JUMP JUMPDEST POP POP POP JUMP JUMPDEST JUMPDEST DUP2 DUP2 LT ISZERO PUSH2 0x123E JUMPI PUSH2 0x1233 PUSH0 DUP3 PUSH2 0x1208 JUMP JUMPDEST PUSH1 0x1 DUP2 ADD SWAP1 POP PUSH2 0x1221 JUMP JUMPDEST POP POP JUMP JUMPDEST PUSH1 0x1F DUP3 GT ISZERO PUSH2 0x1283 JUMPI PUSH2 0x1254 DUP2 PUSH2 0x112E JUMP JUMPDEST PUSH2 0x125D DUP5 PUSH2 0x1140 JUMP JUMPDEST DUP2 ADD PUSH1 0x20 DUP6 LT ISZERO PUSH2 0x126C JUMPI DUP2 SWAP1 POP JUMPDEST PUSH2 0x1280 PUSH2 0x1278 DUP6 PUSH2 0x1140 JUMP JUMPDEST DUP4 ADD DUP3 PUSH2 0x1220 JUMP JUMPDEST POP POP JUMPDEST POP POP POP JUMP JUMPDEST PUSH0 DUP3 DUP3 SHR SWAP1 POP SWAP3 SWAP2 POP POP JUMP JUMPDEST PUSH0 PUSH2 0x12A3 PUSH0 NOT DUP5 PUSH1 0x8 MUL PUSH2 0x1288 JUMP JUMPDEST NOT DUP1 DUP4 AND SWAP2 POP POP SWAP3 SWAP2 POP POP JUMP JUMPDEST PUSH0 PUSH2 0x12BB DUP4 DUP4 PUSH2 0x1294 JUMP JUMPDEST SWAP2 POP DUP3 PUSH1 0x2 MUL DUP3 OR SWAP1 POP SWAP3 SWAP2 POP POP JUMP JUMPDEST PUSH2 0x12D4 DUP3 PUSH2 0x10C7 JUMP JUMPDEST PUSH8 0xFFFFFFFFFFFFFFFF DUP2 GT ISZERO PUSH2 0x12ED JUMPI PUSH2 0x12EC PUSH2 0x981 JUMP JUMPDEST JUMPDEST PUSH2 0x12F7 DUP3 SLOAD PUSH2 0x10FE JUMP JUMPDEST PUSH2 0x1302 DUP3 DUP3 DUP6 PUSH2 0x1242 JUMP JUMPDEST PUSH0 PUSH1 0x20 SWAP1 POP PUSH1 0x1F DUP4 GT PUSH1 0x1 DUP2 EQ PUSH2 0x1333 JUMPI PUSH0 DUP5 ISZERO PUSH2 0x1321 JUMPI DUP3 DUP8 ADD MLOAD SWAP1 POP JUMPDEST PUSH2 0x132B DUP6 DUP3 PUSH2 0x12B0 JUMP JUMPDEST DUP7 SSTORE POP PUSH2 0x1392 JUMP JUMPDEST PUSH1 0x1F NOT DUP5 AND PUSH2 0x1341 DUP7 PUSH2 0x112E JUMP JUMPDEST PUSH0 JUMPDEST DUP3 DUP2 LT ISZERO PUSH2 0x1368 JUMPI DUP5 DUP10 ADD MLOAD DUP3 SSTORE PUSH1 0x1 DUP3 ADD SWAP2 POP PUSH1 0x20 DUP6 ADD SWAP5 POP PUSH1 0x20 DUP2 ADD SWAP1 POP PUSH2 0x1343 JUMP JUMPDEST DUP7 DUP4 LT ISZERO PUSH2 0x1385 JUMPI DUP5 DUP10 ADD MLOAD PUSH2 0x1381 PUSH1 0x1F DUP10 AND DUP3 PUSH2 0x1294 JUMP JUMPDEST DUP4 SSTORE POP JUMPDEST PUSH1 0x1 PUSH1 0x2 DUP9 MUL ADD DUP9 SSTORE POP POP POP JUMPDEST POP POP POP POP POP POP JUMP JUMPDEST PUSH2 0x13A3 DUP2 PUSH2 0x9F9 JUMP JUMPDEST DUP3 MSTORE POP POP JUMP JUMPDEST PUSH0 PUSH1 0x20 DUP3 ADD SWAP1 POP PUSH2 0x13BC PUSH0 DUP4 ADD DUP5 PUSH2 0x139A JUMP JUMPDEST SWAP3 SWAP2 POP POP JUMP JUMPDEST PUSH32 0x4E487B7100000000000000000000000000000000000000000000000000000000 PUSH0 MSTORE PUSH1 0x21 PUSH1 0x4 MSTORE PUSH1 0x24 PUSH0 REVERT JUMPDEST PUSH2 0x8157 DUP1 PUSH2 0x13FC PUSH0 CODECOPY PUSH0 RETURN INVALID PUSH1 0x80 PUSH1 0x40 MSTORE PUSH1 0x4 CALLDATASIZE LT PUSH2 0x101 JUMPI PUSH0 CALLDATALOAD PUSH1 0xE0 SHR DUP1 PUSH4 0x9069217C GT PUSH2 0x94 JUMPI DUP1 PUSH4 0xBCFA3E34 GT PUSH2 0x63 JUMPI DUP1 PUSH4 0xBCFA3E34 EQ PUSH2 0x31B JUMPI DUP1 PUSH4 0xC5618AE8 EQ PUSH2 0x34B JUMPI DUP1 PUSH4 0xC8B11937 EQ PUSH2 0x387 JUMPI DUP1 PUSH4 0xD3A4A317 EQ PUSH2 0x3B7 JUMPI DUP1 PUSH4 0xE9E71AD5 EQ PUSH2 0x3E7 JUMPI PUSH2 0x108 JUMP JUMPDEST DUP1 PUSH4 0x9069217C EQ PUSH2 0x260 JUMPI DUP1 PUSH4 0x9B4A40F0 EQ PUSH2 0x290 JUMPI DUP1 PUSH4 0xAB53F2C6 EQ PUSH2 0x2C0 JUMPI DUP1 PUSH4 0xAE561407 EQ PUSH2 0x2EB JUMPI PUSH2 0x108 JUMP JUMPDEST DUP1 PUSH4 0x41712C0A GT PUSH2 0xD0 JUMPI DUP1 PUSH4 0x41712C0A EQ PUSH2 0x1A6 JUMPI DUP1 PUSH4 0x4C414B87 EQ PUSH2 0x1D6 JUMPI DUP1 PUSH4 0x573B8510 EQ PUSH2 0x206 JUMPI DUP1 PUSH4 0x83230757 EQ PUSH2 0x236 JUMPI PUSH2 0x108 JUMP JUMPDEST DUP1 PUSH4 0x39C1284 EQ PUSH2 0x10A JUMPI DUP1 PUSH4 0x6B56453 EQ PUSH2 0x134 JUMPI DUP1 PUSH4 0xBDDDCE1 EQ PUSH2 0x15E JUMPI DUP1 PUSH4 0x1E93B0F1 EQ PUSH2 0x17C JUMPI PUSH2 0x108 JUMP JUMPDEST CALLDATASIZE PUSH2 0x108 JUMPI STOP JUMPDEST STOP JUMPDEST CALLVALUE DUP1 ISZERO PUSH2 0x115 JUMPI PUSH0 DUP1 REVERT JUMPDEST POP PUSH2 0x11E PUSH2 0x423 JUMP JUMPDEST PUSH1 0x40 MLOAD PUSH2 0x12B SWAP2 SWAP1 PUSH2 0x6146 JUMP JUMPDEST PUSH1 0x40 MLOAD DUP1 SWAP2 SUB SWAP1 RETURN JUMPDEST CALLVALUE DUP1 ISZERO PUSH2 0x13F JUMPI PUSH0 DUP1 REVERT JUMPDEST POP PUSH2 0x148 PUSH2 0x44A JUMP JUMPDEST PUSH1 0x40 MLOAD PUSH2 0x155 SWAP2 SWAP1 PUSH2 0x619F JUMP JUMPDEST PUSH1 0x40 MLOAD DUP1 SWAP2 SUB SWAP1 RETURN JUMPDEST PUSH2 0x166 PUSH2 0x471 JUMP JUMPDEST PUSH1 0x40 MLOAD PUSH2 0x173 SWAP2 SWAP1 PUSH2 0x61C7 JUMP JUMPDEST PUSH1 0x40 MLOAD DUP1 SWAP2 SUB SWAP1 RETURN JUMPDEST CALLVALUE DUP1 ISZERO PUSH2 0x187 JUMPI PUSH0 DUP1 REVERT JUMPDEST POP PUSH2 0x190 PUSH2 0x492 JUMP JUMPDEST PUSH1 0x40 MLOAD PUSH2 0x19D SWAP2 SWAP1 PUSH2 0x61EF JUMP JUMPDEST PUSH1 0x40 MLOAD DUP1 SWAP2 SUB SWAP1 RETURN JUMPDEST PUSH2 0x1C0 PUSH1 0x4 DUP1 CALLDATASIZE SUB DUP2 ADD SWAP1 PUSH2 0x1BB SWAP2 SWAP1 PUSH2 0x6237 JUMP JUMPDEST PUSH2 0x49B JUMP JUMPDEST PUSH1 0x40 MLOAD PUSH2 0x1CD SWAP2 SWAP1 PUSH2 0x61C7 JUMP JUMPDEST PUSH1 0x40 MLOAD DUP1 SWAP2 SUB SWAP1 RETURN JUMPDEST PUSH2 0x1F0 PUSH1 0x4 DUP1 CALLDATASIZE SUB DUP2 ADD SWAP1 PUSH2 0x1EB SWAP2 SWAP1 PUSH2 0x6281 JUMP JUMPDEST PUSH2 0x4C4 JUMP JUMPDEST PUSH1 0x40 MLOAD PUSH2 0x1FD SWAP2 SWAP1 PUSH2 0x61C7 JUMP JUMPDEST PUSH1 0x40 MLOAD DUP1 SWAP2 SUB SWAP1 RETURN JUMPDEST PUSH2 0x220 PUSH1 0x4 DUP1 CALLDATASIZE SUB DUP2 ADD SWAP1 PUSH2 0x21B SWAP2 SWAP1 PUSH2 0x6237 JUMP JUMPDEST PUSH2 0x4ED JUMP JUMPDEST PUSH1 0x40 MLOAD PUSH2 0x22D SWAP2 SWAP1 PUSH2 0x61C7 JUMP JUMPDEST PUSH1 0x40 MLOAD DUP1 SWAP2 SUB SWAP1 RETURN JUMPDEST CALLVALUE DUP1 ISZERO PUSH2 0x241 JUMPI PUSH0 DUP1 REVERT JUMPDEST POP PUSH2 0x24A PUSH2 0x516 JUMP JUMPDEST PUSH1 0x40 MLOAD PUSH2 0x257 SWAP2 SWAP1 PUSH2 0x61EF JUMP JUMPDEST PUSH1 0x40 MLOAD DUP1 SWAP2 SUB SWAP1 RETURN JUMPDEST PUSH2 0x27A PUSH1 0x4 DUP1 CALLDATASIZE SUB DUP2 ADD SWAP1 PUSH2 0x275 SWAP2 SWAP1 PUSH2 0x62CB JUMP JUMPDEST PUSH2 0x51F JUMP JUMPDEST PUSH1 0x40 MLOAD PUSH2 0x287 SWAP2 SWAP1 PUSH2 0x61C7 JUMP JUMPDEST PUSH1 0x40 MLOAD DUP1 SWAP2 SUB SWAP1 RETURN JUMPDEST PUSH2 0x2AA PUSH1 0x4 DUP1 CALLDATASIZE SUB DUP2 ADD SWAP1 PUSH2 0x2A5 SWAP2 SWAP1 PUSH2 0x6320 JUMP JUMPDEST PUSH2 0x54F JUMP JUMPDEST PUSH1 0x40 MLOAD PUSH2 0x2B7 SWAP2 SWAP1 PUSH2 0x61C7 JUMP JUMPDEST PUSH1 0x40 MLOAD DUP1 SWAP2 SUB SWAP1 RETURN JUMPDEST CALLVALUE DUP1 ISZERO PUSH2 0x2CB JUMPI PUSH0 DUP1 REVERT JUMPDEST POP PUSH2 0x2D4 PUSH2 0x56F JUMP JUMPDEST PUSH1 0x40 MLOAD PUSH2 0x2E2 SWAP3 SWAP2 SWAP1 PUSH2 0x63BB JUMP JUMPDEST PUSH1 0x40 MLOAD DUP1 SWAP2 SUB SWAP1 RETURN JUMPDEST PUSH2 0x305 PUSH1 0x4 DUP1 CALLDATASIZE SUB DUP2 ADD SWAP1 PUSH2 0x300 SWAP2 SWAP1 PUSH2 0x6407 JUMP JUMPDEST PUSH2 0x608 JUMP JUMPDEST PUSH1 0x40 MLOAD PUSH2 0x312 SWAP2 SWAP1 PUSH2 0x61C7 JUMP JUMPDEST PUSH1 0x40 MLOAD DUP1 SWAP2 SUB SWAP1 RETURN JUMPDEST PUSH2 0x335 PUSH1 0x4 DUP1 CALLDATASIZE SUB DUP2 ADD SWAP1 PUSH2 0x330 SWAP2 SWAP1 PUSH2 0x6320 JUMP JUMPDEST PUSH2 0x638 JUMP JUMPDEST PUSH1 0x40 MLOAD PUSH2 0x342 SWAP2 SWAP1 PUSH2 0x61C7 JUMP JUMPDEST PUSH1 0x40 MLOAD DUP1 SWAP2 SUB SWAP1 RETURN JUMPDEST CALLVALUE DUP1 ISZERO PUSH2 0x356 JUMPI PUSH0 DUP1 REVERT JUMPDEST POP PUSH2 0x371 PUSH1 0x4 DUP1 CALLDATASIZE SUB DUP2 ADD SWAP1 PUSH2 0x36C SWAP2 SWAP1 PUSH2 0x6320 JUMP JUMPDEST PUSH2 0x659 JUMP JUMPDEST PUSH1 0x40 MLOAD PUSH2 0x37E SWAP2 SWAP1 PUSH2 0x654B JUMP JUMPDEST PUSH1 0x40 MLOAD DUP1 SWAP2 SUB SWAP1 RETURN JUMPDEST PUSH2 0x3A1 PUSH1 0x4 DUP1 CALLDATASIZE SUB DUP2 ADD SWAP1 PUSH2 0x39C SWAP2 SWAP1 PUSH2 0x6582 JUMP JUMPDEST PUSH2 0x680 JUMP JUMPDEST PUSH1 0x40 MLOAD PUSH2 0x3AE SWAP2 SWAP1 PUSH2 0x6613 JUMP JUMPDEST PUSH1 0x40 MLOAD DUP1 SWAP2 SUB SWAP1 RETURN JUMPDEST PUSH2 0x3D1 PUSH1 0x4 DUP1 CALLDATASIZE SUB DUP2 ADD SWAP1 PUSH2 0x3CC SWAP2 SWAP1 PUSH2 0x664A JUMP JUMPDEST PUSH2 0x6B8 JUMP JUMPDEST PUSH1 0x40 MLOAD PUSH2 0x3DE SWAP2 SWAP1 PUSH2 0x61C7 JUMP JUMPDEST PUSH1 0x40 MLOAD DUP1 SWAP2 SUB SWAP1 RETURN JUMPDEST CALLVALUE DUP1 ISZERO PUSH2 0x3F2 JUMPI PUSH0 DUP1 REVERT JUMPDEST POP PUSH2 0x40D PUSH1 0x4 DUP1 CALLDATASIZE SUB DUP2 ADD SWAP1 PUSH2 0x408 SWAP2 SWAP1 PUSH2 0x6320 JUMP JUMPDEST PUSH2 0x6E8 JUMP JUMPDEST PUSH1 0x40 MLOAD PUSH2 0x41A SWAP2 SWAP1 PUSH2 0x654B JUMP JUMPDEST PUSH1 0x40 MLOAD DUP1 SWAP2 SUB SWAP1 RETURN JUMPDEST PUSH2 0x42B PUSH2 0x54A0 JUMP JUMPDEST PUSH2 0x433 PUSH2 0x5502 JUMP JUMPDEST PUSH0 PUSH2 0x43E DUP2 DUP4 PUSH2 0x700 JUMP JUMPDEST DUP2 PUSH1 0xA0 ADD MLOAD SWAP3 POP POP POP SWAP1 JUMP JUMPDEST PUSH2 0x452 PUSH2 0x557B JUMP JUMPDEST PUSH2 0x45A PUSH2 0x5502 JUMP JUMPDEST PUSH0 PUSH2 0x465 DUP2 DUP4 PUSH2 0x88D JUMP JUMPDEST DUP2 PUSH1 0xC0 ADD MLOAD SWAP3 POP POP POP SWAP1 JUMP JUMPDEST PUSH0 PUSH2 0x47A PUSH2 0x5502 JUMP JUMPDEST PUSH0 PUSH2 0x485 DUP2 DUP4 PUSH2 0xA1A JUMP JUMPDEST DUP2 PUSH2 0x100 ADD MLOAD SWAP3 POP POP POP SWAP1 JUMP JUMPDEST PUSH0 PUSH1 0x3 SLOAD SWAP1 POP SWAP1 JUMP JUMPDEST PUSH0 PUSH2 0x4A4 PUSH2 0x5502 JUMP JUMPDEST PUSH2 0x4BE DUP4 DUP1 CALLDATASIZE SUB DUP2 ADD SWAP1 PUSH2 0x4B8 SWAP2 SWAP1 PUSH2 0x672A JUMP JUMPDEST DUP3 PUSH2 0xA9B JUMP JUMPDEST POP SWAP2 SWAP1 POP JUMP JUMPDEST PUSH0 PUSH2 0x4CD PUSH2 0x5502 JUMP JUMPDEST PUSH2 0x4E7 DUP4 DUP1 CALLDATASIZE SUB DUP2 ADD SWAP1 PUSH2 0x4E1 SWAP2 SWAP1 PUSH2 0x6B9D JUMP JUMPDEST DUP3 PUSH2 0xD78 JUMP JUMPDEST POP SWAP2 SWAP1 POP JUMP JUMPDEST PUSH0 PUSH2 0x4F6 PUSH2 0x5502 JUMP JUMPDEST PUSH2 0x510 DUP4 DUP1 CALLDATASIZE SUB DUP2 ADD SWAP1 PUSH2 0x50A SWAP2 SWAP1 PUSH2 0x672A JUMP JUMPDEST DUP3 PUSH2 0x41B4 JUMP JUMPDEST POP SWAP2 SWAP1 POP JUMP JUMPDEST PUSH0 PUSH1 0x1 SLOAD SWAP1 POP SWAP1 JUMP JUMPDEST PUSH0 PUSH2 0x528 PUSH2 0x5502 JUMP JUMPDEST PUSH2 0x542 DUP4 DUP1 CALLDATASIZE SUB DUP2 ADD SWAP1 PUSH2 0x53C SWAP2 SWAP1 PUSH2 0x6BC9 JUMP JUMPDEST DUP3 PUSH2 0x4690 JUMP JUMPDEST DUP1 PUSH1 0x20 ADD MLOAD SWAP2 POP POP SWAP2 SWAP1 POP JUMP JUMPDEST PUSH0 PUSH2 0x558 PUSH2 0x5502 JUMP JUMPDEST PUSH2 0x562 DUP4 DUP3 PUSH2 0x4714 JUMP JUMPDEST DUP1 PUSH1 0x40 ADD MLOAD SWAP2 POP POP SWAP2 SWAP1 POP JUMP JUMPDEST PUSH0 PUSH1 0x60 PUSH0 SLOAD PUSH1 0x2 DUP1 DUP1 SLOAD PUSH2 0x582 SWAP1 PUSH2 0x6C21 JUMP JUMPDEST DUP1 PUSH1 0x1F ADD PUSH1 0x20 DUP1 SWAP2 DIV MUL PUSH1 0x20 ADD PUSH1 0x40 MLOAD SWAP1 DUP2 ADD PUSH1 0x40 MSTORE DUP1 SWAP3 SWAP2 SWAP1 DUP2 DUP2 MSTORE PUSH1 0x20 ADD DUP3 DUP1 SLOAD PUSH2 0x5AE SWAP1 PUSH2 0x6C21 JUMP JUMPDEST DUP1 ISZERO PUSH2 0x5F9 JUMPI DUP1 PUSH1 0x1F LT PUSH2 0x5D0 JUMPI PUSH2 0x100 DUP1 DUP4 SLOAD DIV MUL DUP4 MSTORE SWAP2 PUSH1 0x20 ADD SWAP2 PUSH2 0x5F9 JUMP JUMPDEST DUP3 ADD SWAP2 SWAP1 PUSH0 MSTORE PUSH1 0x20 PUSH0 KECCAK256 SWAP1 JUMPDEST DUP2 SLOAD DUP2 MSTORE SWAP1 PUSH1 0x1 ADD SWAP1 PUSH1 0x20 ADD DUP1 DUP4 GT PUSH2 0x5DC JUMPI DUP3 SWAP1 SUB PUSH1 0x1F AND DUP3 ADD SWAP2 JUMPDEST POP POP POP POP POP SWAP1 POP SWAP2 POP SWAP2 POP SWAP1 SWAP2 JUMP JUMPDEST PUSH0 PUSH2 0x611 PUSH2 0x5502 JUMP JUMPDEST PUSH2 0x62B DUP4 DUP1 CALLDATASIZE SUB DUP2 ADD SWAP1 PUSH2 0x625 SWAP2 SWAP1 PUSH2 0x6C51 JUMP JUMPDEST DUP3 PUSH2 0x479A JUMP JUMPDEST DUP1 PUSH1 0x80 ADD MLOAD SWAP2 POP POP SWAP2 SWAP1 POP JUMP JUMPDEST PUSH0 PUSH2 0x641 PUSH2 0x5502 JUMP JUMPDEST PUSH2 0x64B DUP4 DUP3 PUSH2 0x481F JUMP JUMPDEST DUP1 PUSH2 0x120 ADD MLOAD SWAP2 POP POP SWAP2 SWAP1 POP JUMP JUMPDEST PUSH2 0x661 PUSH2 0x55AF JUMP JUMPDEST PUSH2 0x669 PUSH2 0x5502 JUMP JUMPDEST PUSH2 0x673 DUP4 DUP3 PUSH2 0x48A5 JUMP JUMPDEST DUP1 PUSH1 0xE0 ADD MLOAD SWAP2 POP POP SWAP2 SWAP1 POP JUMP JUMPDEST PUSH2 0x688 PUSH2 0x55E8 JUMP JUMPDEST PUSH2 0x690 PUSH2 0x5502 JUMP JUMPDEST PUSH2 0x6AA DUP4 DUP1 CALLDATASIZE SUB DUP2 ADD SWAP1 PUSH2 0x6A4 SWAP2 SWAP1 PUSH2 0x6C7C JUMP JUMPDEST DUP3 PUSH2 0x4A39 JUMP JUMPDEST DUP1 PUSH2 0x140 ADD MLOAD SWAP2 POP POP SWAP2 SWAP1 POP JUMP JUMPDEST PUSH0 PUSH2 0x6C1 PUSH2 0x5502 JUMP JUMPDEST PUSH2 0x6DB DUP4 DUP1 CALLDATASIZE SUB DUP2 ADD SWAP1 PUSH2 0x6D5 SWAP2 SWAP1 PUSH2 0x6CA7 JUMP JUMPDEST DUP3 PUSH2 0x4ABE JUMP JUMPDEST DUP1 PUSH1 0x60 ADD MLOAD SWAP2 POP POP SWAP2 SWAP1 POP JUMP JUMPDEST PUSH2 0x6F0 PUSH2 0x55AF JUMP JUMPDEST PUSH2 0x6F9 DUP3 PUSH2 0x4B43 JUMP JUMPDEST SWAP1 POP SWAP2 SWAP1 POP JUMP JUMPDEST PUSH1 0x5 PUSH0 SLOAD LT ISZERO PUSH2 0x7CB JUMPI PUSH2 0x719 PUSH1 0x3 PUSH0 SLOAD EQ PUSH1 0x7 PUSH2 0x4D01 JUMP JUMPDEST PUSH0 PUSH1 0x2 DUP1 SLOAD PUSH2 0x727 SWAP1 PUSH2 0x6C21 JUMP JUMPDEST DUP1 PUSH1 0x1F ADD PUSH1 0x20 DUP1 SWAP2 DIV MUL PUSH1 0x20 ADD PUSH1 0x40 MLOAD SWAP1 DUP2 ADD PUSH1 0x40 MSTORE DUP1 SWAP3 SWAP2 SWAP1 DUP2 DUP2 MSTORE PUSH1 0x20 ADD DUP3 DUP1 SLOAD PUSH2 0x753 SWAP1 PUSH2 0x6C21 JUMP JUMPDEST DUP1 ISZERO PUSH2 0x79E JUMPI DUP1 PUSH1 0x1F LT PUSH2 0x775 JUMPI PUSH2 0x100 DUP1 DUP4 SLOAD DIV MUL DUP4 MSTORE SWAP2 PUSH1 0x20 ADD SWAP2 PUSH2 0x79E JUMP JUMPDEST DUP3 ADD SWAP2 SWAP1 PUSH0 MSTORE PUSH1 0x20 PUSH0 KECCAK256 SWAP1 JUMPDEST DUP2 SLOAD DUP2 MSTORE SWAP1 PUSH1 0x1 ADD SWAP1 PUSH1 0x20 ADD DUP1 DUP4 GT PUSH2 0x781 JUMPI DUP3 SWAP1 SUB PUSH1 0x1F AND DUP3 ADD SWAP2 JUMPDEST POP POP POP POP POP DUP1 PUSH1 0x20 ADD SWAP1 MLOAD DUP2 ADD SWAP1 PUSH2 0x7B6 SWAP2 SWAP1 PUSH2 0x6FD8 JUMP JUMPDEST SWAP1 POP DUP1 PUSH1 0xA0 ADD MLOAD DUP3 PUSH1 0xA0 ADD DUP2 SWAP1 MSTORE POP POP PUSH2 0x889 JUMP JUMPDEST PUSH2 0x7DA PUSH1 0x5 PUSH0 SLOAD EQ PUSH1 0x8 PUSH2 0x4D01 JUMP JUMPDEST PUSH0 PUSH1 0x2 DUP1 SLOAD PUSH2 0x7E8 SWAP1 PUSH2 0x6C21 JUMP JUMPDEST DUP1 PUSH1 0x1F ADD PUSH1 0x20 DUP1 SWAP2 DIV MUL PUSH1 0x20 ADD PUSH1 0x40 MLOAD SWAP1 DUP2 ADD PUSH1 0x40 MSTORE DUP1 SWAP3 SWAP2 SWAP1 DUP2 DUP2 MSTORE PUSH1 0x20 ADD DUP3 DUP1 SLOAD PUSH2 0x814 SWAP1 PUSH2 0x6C21 JUMP JUMPDEST DUP1 ISZERO PUSH2 0x85F JUMPI DUP1 PUSH1 0x1F LT PUSH2 0x836 JUMPI PUSH2 0x100 DUP1 DUP4 SLOAD DIV MUL DUP4 MSTORE SWAP2 PUSH1 0x20 ADD SWAP2 PUSH2 0x85F JUMP JUMPDEST DUP3 ADD SWAP2 SWAP1 PUSH0 MSTORE PUSH1 0x20 PUSH0 KECCAK256 SWAP1 JUMPDEST DUP2 SLOAD DUP2 MSTORE SWAP1 PUSH1 0x1 ADD SWAP1 PUSH1 0x20 ADD DUP1 DUP4 GT PUSH2 0x842 JUMPI DUP3 SWAP1 SUB PUSH1 0x1F AND DUP3 ADD SWAP2 JUMPDEST POP POP POP POP POP DUP1 PUSH1 0x20 ADD SWAP1 MLOAD DUP2 ADD SWAP1 PUSH2 0x877 SWAP2 SWAP1 PUSH2 0x7368 JUMP JUMPDEST SWAP1 POP DUP1 PUSH2 0x160 ADD MLOAD DUP3 PUSH1 0xA0 ADD DUP2 SWAP1 MSTORE POP POP JUMPDEST POP POP JUMP JUMPDEST PUSH1 0x5 PUSH0 SLOAD LT ISZERO PUSH2 0x958 JUMPI PUSH2 0x8A6 PUSH1 0x3 PUSH0 SLOAD EQ PUSH1 0x9 PUSH2 0x4D01 JUMP JUMPDEST PUSH0 PUSH1 0x2 DUP1 SLOAD PUSH2 0x8B4 SWAP1 PUSH2 0x6C21 JUMP JUMPDEST DUP1 PUSH1 0x1F ADD PUSH1 0x20 DUP1 SWAP2 DIV MUL PUSH1 0x20 ADD PUSH1 0x40 MLOAD SWAP1 DUP2 ADD PUSH1 0x40 MSTORE DUP1 SWAP3 SWAP2 SWAP1 DUP2 DUP2 MSTORE PUSH1 0x20 ADD DUP3 DUP1 SLOAD PUSH2 0x8E0 SWAP1 PUSH2 0x6C21 JUMP JUMPDEST DUP1 ISZERO PUSH2 0x92B JUMPI DUP1 PUSH1 0x1F LT PUSH2 0x902 JUMPI PUSH2 0x100 DUP1 DUP4 SLOAD DIV MUL DUP4 MSTORE SWAP2 PUSH1 0x20 ADD SWAP2 PUSH2 0x92B JUMP JUMPDEST DUP3 ADD SWAP2 SWAP1 PUSH0 MSTORE PUSH1 0x20 PUSH0 KECCAK256 SWAP1 JUMPDEST DUP2 SLOAD DUP2 MSTORE SWAP1 PUSH1 0x1 ADD SWAP1 PUSH1 0x20 ADD DUP1 DUP4 GT PUSH2 0x90E JUMPI DUP3 SWAP1 SUB PUSH1 0x1F AND DUP3 ADD SWAP2 JUMPDEST POP POP POP POP POP DUP1 PUSH1 0x20 ADD SWAP1 MLOAD DUP2 ADD SWAP1 PUSH2 0x943 SWAP2 SWAP1 PUSH2 0x6FD8 JUMP JUMPDEST SWAP1 POP DUP1 PUSH1 0xC0 ADD MLOAD DUP3 PUSH1 0xC0 ADD DUP2 SWAP1 MSTORE POP POP PUSH2 0xA16 JUMP JUMPDEST PUSH2 0x967 PUSH1 0x5 PUSH0 SLOAD EQ PUSH1 0xA PUSH2 0x4D01 JUMP JUMPDEST PUSH0 PUSH1 0x2 DUP1 SLOAD PUSH2 0x975 SWAP1 PUSH2 0x6C21 JUMP JUMPDEST DUP1 PUSH1 0x1F ADD PUSH1 0x20 DUP1 SWAP2 DIV MUL PUSH1 0x20 ADD PUSH1 0x40 MLOAD SWAP1 DUP2 ADD PUSH1 0x40 MSTORE DUP1 SWAP3 SWAP2 SWAP1 DUP2 DUP2 MSTORE PUSH1 0x20 ADD DUP3 DUP1 SLOAD PUSH2 0x9A1 SWAP1 PUSH2 0x6C21 JUMP JUMPDEST DUP1 ISZERO PUSH2 0x9EC JUMPI DUP1 PUSH1 0x1F LT PUSH2 0x9C3 JUMPI PUSH2 0x100 DUP1 DUP4 SLOAD DIV MUL DUP4 MSTORE SWAP2 PUSH1 0x20 ADD SWAP2 PUSH2 0x9EC JUMP JUMPDEST DUP3 ADD SWAP2 SWAP1 PUSH0 MSTORE PUSH1 0x20 PUSH0 KECCAK256 SWAP1 JUMPDEST DUP2 SLOAD DUP2 MSTORE SWAP1 PUSH1 0x1 ADD SWAP1 PUSH1 0x20 ADD DUP1 DUP4 GT PUSH2 0x9CF JUMPI DUP3 SWAP1 SUB PUSH1 0x1F AND DUP3 ADD SWAP2 JUMPDEST POP POP POP POP POP DUP1 PUSH1 0x20 ADD SWAP1 MLOAD DUP2 ADD SWAP1 PUSH2 0xA04 SWAP2 SWAP1 PUSH2 0x7368 JUMP JUMPDEST SWAP1 POP DUP1 PUSH2 0x180 ADD MLOAD DUP3 PUSH1 0xC0 ADD DUP2 SWAP1 MSTORE POP POP JUMPDEST POP POP JUMP JUMPDEST PUSH2 0xA22 PUSH2 0x562C JUMP JUMPDEST PUSH1 0x4 DUP2 PUSH1 0x20 ADD MLOAD PUSH0 ADD SWAP1 PUSH1 0x6 DUP2 GT ISZERO PUSH2 0xA3E JUMPI PUSH2 0xA3D PUSH2 0x6432 JUMP JUMPDEST JUMPDEST SWAP1 DUP2 PUSH1 0x6 DUP2 GT ISZERO PUSH2 0xA52 JUMPI PUSH2 0xA51 PUSH2 0x6432 JUMP JUMPDEST JUMPDEST DUP2 MSTORE POP POP DUP1 PUSH0 ADD MLOAD DUP2 PUSH1 0x20 ADD MLOAD PUSH1 0xA0 ADD SWAP1 ISZERO ISZERO SWAP1 DUP2 ISZERO ISZERO DUP2 MSTORE POP POP PUSH2 0xA75 PUSH2 0x564D JUMP JUMPDEST PUSH0 DUP2 PUSH0 ADD DUP2 DUP2 MSTORE POP POP DUP2 PUSH1 0x20 ADD MLOAD DUP2 PUSH1 0x20 ADD DUP2 SWAP1 MSTORE POP PUSH2 0xA95 DUP2 DUP5 PUSH2 0xD78 JUMP JUMPDEST POP POP POP POP JUMP JUMPDEST PUSH2 0xAAA PUSH1 0x3 PUSH0 SLOAD EQ PUSH1 0x17 PUSH2 0x4D01 JUMP JUMPDEST PUSH0 PUSH1 0x2 DUP1 SLOAD PUSH2 0xAB8 SWAP1 PUSH2 0x6C21 JUMP JUMPDEST DUP1 PUSH1 0x1F ADD PUSH1 0x20 DUP1 SWAP2 DIV MUL PUSH1 0x20 ADD PUSH1 0x40 MLOAD SWAP1 DUP2 ADD PUSH1 0x40 MSTORE DUP1 SWAP3 SWAP2 SWAP1 DUP2 DUP2 MSTORE PUSH1 0x20 ADD DUP3 DUP1 SLOAD PUSH2 0xAE4 SWAP1 PUSH2 0x6C21 JUMP JUMPDEST DUP1 ISZERO PUSH2 0xB2F JUMPI DUP1 PUSH1 0x1F LT PUSH2 0xB06 JUMPI PUSH2 0x100 DUP1 DUP4 SLOAD DIV MUL DUP4 MSTORE SWAP2 PUSH1 0x20 ADD SWAP2 PUSH2 0xB2F JUMP JUMPDEST DUP3 ADD SWAP2 SWAP1 PUSH0 MSTORE PUSH1 0x20 PUSH0 KECCAK256 SWAP1 JUMPDEST DUP2 SLOAD DUP2 MSTORE SWAP1 PUSH1 0x1 ADD SWAP1 PUSH1 0x20 ADD DUP1 DUP4 GT PUSH2 0xB12 JUMPI DUP3 SWAP1 SUB PUSH1 0x1F AND DUP3 ADD SWAP2 JUMPDEST POP POP POP POP POP DUP1 PUSH1 0x20 ADD SWAP1 MLOAD DUP2 ADD SWAP1 PUSH2 0xB47 SWAP2 SWAP1 PUSH2 0x6FD8 JUMP JUMPDEST SWAP1 POP PUSH2 0xB63 PUSH1 0x4 PUSH0 SWAP1 SLOAD SWAP1 PUSH2 0x100 EXP SWAP1 DIV PUSH1 0xFF AND ISZERO PUSH1 0x18 PUSH2 0x4D01 JUMP JUMPDEST PUSH32 0xD8B4BEF0BAF1B43E1C773ECC562857F82F7AA078EA677386F72396872C0E8515 CALLER DUP5 PUSH1 0x40 MLOAD PUSH2 0xB94 SWAP3 SWAP2 SWAP1 PUSH2 0x73CE JUMP JUMPDEST PUSH1 0x40 MLOAD DUP1 SWAP2 SUB SWAP1 LOG1 PUSH2 0xBBB PUSH0 DUP5 PUSH0 ADD MLOAD EQ DUP1 PUSH2 0xBB4 JUMPI POP DUP4 PUSH0 ADD MLOAD PUSH1 0x1 SLOAD EQ JUMPDEST PUSH1 0x19 PUSH2 0x4D01 JUMP JUMPDEST PUSH2 0xBC8 PUSH0 CALLVALUE EQ PUSH1 0x1A PUSH2 0x4D01 JUMP JUMPDEST PUSH2 0xC04 CALLER PUSH20 0xFFFFFFFFFFFFFFFFFFFFFFFFFFFFFFFFFFFFFFFF AND DUP3 PUSH0 ADD MLOAD PUSH20 0xFFFFFFFFFFFFFFFFFFFFFFFFFFFFFFFFFFFFFFFF AND EQ PUSH1 0x1B PUSH2 0x4D01 JUMP JUMPDEST DUP1 PUSH0 ADD MLOAD PUSH20 0xFFFFFFFFFFFFFFFFFFFFFFFFFFFFFFFFFFFFFFFF AND PUSH2 0x8FC DUP3 PUSH1 0x80 ADD MLOAD SWAP1 DUP2 ISZERO MUL SWAP1 PUSH1 0x40 MLOAD PUSH0 PUSH1 0x40 MLOAD DUP1 DUP4 SUB DUP2 DUP6 DUP9 DUP9 CALL SWAP4 POP POP POP POP ISZERO DUP1 ISZERO PUSH2 0xC4E JUMPI RETURNDATASIZE PUSH0 DUP1 RETURNDATACOPY RETURNDATASIZE PUSH0 REVERT JUMPDEST POP PUSH2 0xC7F DUP2 PUSH1 0x20 ADD MLOAD DUP3 PUSH0 ADD MLOAD DUP4 PUSH1 0x60 ADD MLOAD PUSH0 PUSH1 0x2 DUP2 LT PUSH2 0xC72 JUMPI PUSH2 0xC71 PUSH2 0x73F5 JUMP JUMPDEST JUMPDEST PUSH1 0x20 MUL ADD MLOAD PUSH0 ADD MLOAD PUSH2 0x4D47 JUMP JUMPDEST PUSH2 0xD59 DUP2 PUSH1 0x40 ADD MLOAD DUP3 PUSH0 ADD MLOAD PUSH2 0xD39 DUP5 PUSH1 0x60 ADD MLOAD PUSH0 PUSH1 0x40 MLOAD DUP1 PUSH1 0x60 ADD PUSH1 0x40 MSTORE DUP1 PUSH2 0xCE5 DUP10 PUSH1 0x60 ADD MLOAD PUSH0 PUSH1 0x2 DUP2 LT PUSH2 0xCB9 JUMPI PUSH2 0xCB8 PUSH2 0x73F5 JUMP JUMPDEST JUMPDEST PUSH1 0x20 MUL ADD MLOAD PUSH0 ADD MLOAD DUP11 PUSH1 0x60 ADD MLOAD PUSH0 PUSH1 0x2 DUP2 LT PUSH2 0xCD8 JUMPI PUSH2 0xCD7 PUSH2 0x73F5 JUMP JUMPDEST JUMPDEST PUSH1 0x20 MUL ADD MLOAD PUSH0 ADD MLOAD PUSH2 0x4D5F JUMP JUMPDEST DUP2 MSTORE PUSH1 0x20 ADD DUP9 PUSH1 0x60 ADD MLOAD PUSH0 PUSH1 0x2 DUP2 LT PUSH2 0xD01 JUMPI PUSH2 0xD00 PUSH2 0x73F5 JUMP JUMPDEST JUMPDEST PUSH1 0x20 MUL ADD MLOAD PUSH1 0x20 ADD MLOAD DUP2 MSTORE PUSH1 0x20 ADD DUP9 PUSH1 0x60 ADD MLOAD PUSH0 PUSH1 0x2 DUP2 LT PUSH2 0xD26 JUMPI PUSH2 0xD25 PUSH2 0x73F5 JUMP JUMPDEST JUMPDEST PUSH1 0x20 MUL ADD MLOAD PUSH1 0x40 ADD MLOAD ISZERO ISZERO DUP2 MSTORE POP PUSH2 0x4D6B JUMP JUMPDEST PUSH1 0x1 PUSH1 0x2 DUP2 LT PUSH2 0xD4C JUMPI PUSH2 0xD4B PUSH2 0x73F5 JUMP JUMPDEST JUMPDEST PUSH1 0x20 MUL ADD MLOAD PUSH0 ADD MLOAD PUSH2 0x4D47 JUMP JUMPDEST PUSH0 DUP1 DUP2 SWAP1 SSTORE POP PUSH0 PUSH1 0x1 DUP2 SWAP1 SSTORE POP PUSH1 0x2 PUSH0 PUSH2 0xD73 SWAP2 SWAP1 PUSH2 0x566C JUMP JUMPDEST POP POP POP JUMP JUMPDEST PUSH2 0xD80 PUSH2 0x56A9 JUMP JUMPDEST PUSH2 0xD8F PUSH1 0x5 PUSH0 SLOAD EQ PUSH1 0x1C PUSH2 0x4D01 JUMP JUMPDEST PUSH0 PUSH1 0x2 DUP1 SLOAD PUSH2 0xD9D SWAP1 PUSH2 0x6C21 JUMP JUMPDEST DUP1 PUSH1 0x1F ADD PUSH1 0x20 DUP1 SWAP2 DIV MUL PUSH1 0x20 ADD PUSH1 0x40 MLOAD SWAP1 DUP2 ADD PUSH1 0x40 MSTORE DUP1 SWAP3 SWAP2 SWAP1 DUP2 DUP2 MSTORE PUSH1 0x20 ADD DUP3 DUP1 SLOAD PUSH2 0xDC9 SWAP1 PUSH2 0x6C21 JUMP JUMPDEST DUP1 ISZERO PUSH2 0xE14 JUMPI DUP1 PUSH1 0x1F LT PUSH2 0xDEB JUMPI PUSH2 0x100 DUP1 DUP4 SLOAD DIV MUL DUP4 MSTORE SWAP2 PUSH1 0x20 ADD SWAP2 PUSH2 0xE14 JUMP JUMPDEST DUP3 ADD SWAP2 SWAP1 PUSH0 MSTORE PUSH1 0x20 PUSH0 KECCAK256 SWAP1 JUMPDEST DUP2 SLOAD DUP2 MSTORE SWAP1 PUSH1 0x1 ADD SWAP1 PUSH1 0x20 ADD DUP1 DUP4 GT PUSH2 0xDF7 JUMPI DUP3 SWAP1 SUB PUSH1 0x1F AND DUP3 ADD SWAP2 JUMPDEST POP POP POP POP POP DUP1 PUSH1 0x20 ADD SWAP1 MLOAD DUP2 ADD SWAP1 PUSH2 0xE2C SWAP2 SWAP1 PUSH2 0x7368 JUMP JUMPDEST SWAP1 POP PUSH2 0xE48 PUSH1 0x4 PUSH0 SWAP1 SLOAD SWAP1 PUSH2 0x100 EXP SWAP1 DIV PUSH1 0xFF AND ISZERO PUSH1 0x1D PUSH2 0x4D01 JUMP JUMPDEST PUSH32 0x69EB49A6EBD794337A78552FCBCCAED0875DAF8421B7B9101C8A4C840E7566B9 CALLER DUP6 PUSH1 0x40 MLOAD PUSH2 0xE79 SWAP3 SWAP2 SWAP1 PUSH2 0x76A2 JUMP JUMPDEST PUSH1 0x40 MLOAD DUP1 SWAP2 SUB SWAP1 LOG1 PUSH2 0xEA0 PUSH0 DUP6 PUSH0 ADD MLOAD EQ DUP1 PUSH2 0xE99 JUMPI POP DUP5 PUSH0 ADD MLOAD PUSH1 0x1 SLOAD EQ JUMPDEST PUSH1 0x1E PUSH2 0x4D01 JUMP JUMPDEST PUSH0 PUSH1 0x6 DUP2 GT ISZERO PUSH2 0xEB3 JUMPI PUSH2 0xEB2 PUSH2 0x6432 JUMP JUMPDEST JUMPDEST DUP5 PUSH1 0x20 ADD MLOAD PUSH0 ADD MLOAD PUSH1 0x6 DUP2 GT ISZERO PUSH2 0xECD JUMPI PUSH2 0xECC PUSH2 0x6432 JUMP JUMPDEST JUMPDEST SUB PUSH2 0x13FA JUMPI DUP4 PUSH1 0x20 ADD MLOAD PUSH1 0x20 ADD MLOAD DUP3 PUSH0 ADD DUP2 SWAP1 MSTORE POP PUSH2 0xF5D DUP2 PUSH0 ADD MLOAD PUSH20 0xFFFFFFFFFFFFFFFFFFFFFFFFFFFFFFFFFFFFFFFF AND CALLER PUSH20 0xFFFFFFFFFFFFFFFFFFFFFFFFFFFFFFFFFFFFFFFF AND EQ PUSH2 0xF53 JUMPI CALLER PUSH20 0xFFFFFFFFFFFFFFFFFFFFFFFFFFFFFFFFFFFFFFFF AND DUP3 PUSH1 0x60 ADD MLOAD PUSH20 0xFFFFFFFFFFFFFFFFFFFFFFFFFFFFFFFFFFFFFFFF AND EQ PUSH2 0xF56 JUMP JUMPDEST PUSH1 0x1 JUMPDEST PUSH1 0x1F PUSH2 0x4D01 JUMP JUMPDEST PUSH2 0xF7E DUP2 PUSH2 0x100 ADD MLOAD PUSH1 0xC0 ADD MLOAD PUSH2 0xF75 JUMPI PUSH1 0x1 PUSH2 0xF77 JUMP JUMPDEST PUSH0 JUMPDEST PUSH1 0x20 PUSH2 0x4D01 JUMP JUMPDEST PUSH2 0xF92 DUP2 PUSH2 0x100 ADD MLOAD PUSH1 0x80 ADD MLOAD PUSH1 0x21 PUSH2 0x4D01 JUMP JUMPDEST PUSH2 0xFA5 DUP3 PUSH0 ADD MLOAD PUSH0 ADD MLOAD PUSH1 0x40 ADD MLOAD PUSH2 0x4B43 JUMP JUMPDEST DUP3 PUSH1 0x20 ADD DUP2 SWAP1 MSTORE POP PUSH2 0xFD4 PUSH1 0x1 DUP4 PUSH1 0x20 ADD MLOAD PUSH0 ADD MLOAD PUSH1 0x1 DUP2 GT ISZERO PUSH2 0xFCC JUMPI PUSH2 0xFCB PUSH2 0x6432 JUMP JUMPDEST JUMPDEST EQ PUSH1 0x22 PUSH2 0x4D01 JUMP JUMPDEST PUSH2 0xFE1 PUSH0 CALLVALUE EQ PUSH1 0x23 PUSH2 0x4D01 JUMP JUMPDEST PUSH2 0xFFA PUSH2 0xFF3 CALLER DUP4 PUSH1 0x80 ADD MLOAD PUSH0 PUSH2 0x4DE2 JUMP JUMPDEST PUSH1 0x24 PUSH2 0x4D01 JUMP JUMPDEST PUSH0 DUP3 PUSH1 0x40 ADD MLOAD PUSH0 ADD DUP2 DUP2 MSTORE POP POP DUP1 PUSH1 0xC0 ADD MLOAD DUP3 PUSH1 0x40 ADD MLOAD PUSH1 0x20 ADD SWAP1 PUSH20 0xFFFFFFFFFFFFFFFFFFFFFFFFFFFFFFFFFFFFFFFF AND SWAP1 DUP2 PUSH20 0xFFFFFFFFFFFFFFFFFFFFFFFFFFFFFFFFFFFFFFFF AND DUP2 MSTORE POP POP PUSH0 DUP3 PUSH1 0x40 ADD MLOAD PUSH1 0x40 ADD DUP2 DUP2 MSTORE POP POP PUSH0 DUP3 PUSH1 0x40 ADD MLOAD PUSH1 0x60 ADD SWAP1 ISZERO ISZERO SWAP1 DUP2 ISZERO ISZERO DUP2 MSTORE POP POP PUSH0 DUP3 PUSH1 0x40 ADD MLOAD PUSH1 0x80 ADD SWAP1 ISZERO ISZERO SWAP1 DUP2 ISZERO ISZERO DUP2 MSTORE POP POP PUSH32 0x14A1936306C7026159DCE85A426EB017F936C4A92FEEEF18E50BD2C2B887AE2C PUSH0 PUSH1 0x40 MLOAD PUSH2 0x10AC SWAP2 SWAP1 PUSH2 0x61C7 JUMP JUMPDEST PUSH1 0x40 MLOAD DUP1 SWAP2 SUB SWAP1 LOG1 PUSH0 DUP4 PUSH1 0x20 ADD SWAP1 ISZERO ISZERO SWAP1 DUP2 ISZERO ISZERO DUP2 MSTORE POP POP PUSH1 0x1 DUP3 PUSH1 0x60 ADD MLOAD PUSH0 ADD SWAP1 PUSH1 0x1 DUP2 GT ISZERO PUSH2 0x10E0 JUMPI PUSH2 0x10DF PUSH2 0x6432 JUMP JUMPDEST JUMPDEST SWAP1 DUP2 PUSH1 0x1 DUP2 GT ISZERO PUSH2 0x10F4 JUMPI PUSH2 0x10F3 PUSH2 0x6432 JUMP JUMPDEST JUMPDEST DUP2 MSTORE POP POP PUSH1 0x1 DUP1 DUP2 GT ISZERO PUSH2 0x110B JUMPI PUSH2 0x110A PUSH2 0x6432 JUMP JUMPDEST JUMPDEST DUP3 PUSH1 0x20 ADD MLOAD PUSH0 ADD MLOAD PUSH1 0x1 DUP2 GT ISZERO PUSH2 0x1125 JUMPI PUSH2 0x1124 PUSH2 0x6432 JUMP JUMPDEST JUMPDEST EQ PUSH2 0x1134 JUMPI DUP2 PUSH1 0x40 ADD MLOAD PUSH2 0x113E JUMP JUMPDEST DUP2 PUSH1 0x20 ADD MLOAD PUSH1 0x40 ADD MLOAD JUMPDEST PUSH1 0x20 ADD MLOAD DUP3 PUSH1 0x60 ADD MLOAD PUSH1 0x40 ADD SWAP1 PUSH20 0xFFFFFFFFFFFFFFFFFFFFFFFFFFFFFFFFFFFFFFFF AND SWAP1 DUP2 PUSH20 0xFFFFFFFFFFFFFFFFFFFFFFFFFFFFFFFFFFFFFFFF AND DUP2 MSTORE POP POP DUP2 PUSH1 0x60 ADD MLOAD DUP3 PUSH1 0x80 ADD MLOAD PUSH0 ADD DUP2 SWAP1 MSTORE POP DUP1 PUSH2 0x100 ADD MLOAD PUSH1 0x20 ADD MLOAD DUP3 PUSH1 0x80 ADD MLOAD PUSH1 0x20 ADD DUP2 DUP2 MSTORE POP POP DUP1 PUSH2 0x160 ADD MLOAD DUP3 PUSH1 0x80 ADD MLOAD PUSH1 0x40 ADD DUP2 SWAP1 MSTORE POP DUP1 PUSH2 0x100 ADD MLOAD PUSH1 0x60 ADD MLOAD DUP3 PUSH1 0x80 ADD MLOAD PUSH1 0x60 ADD SWAP1 ISZERO ISZERO SWAP1 DUP2 ISZERO ISZERO DUP2 MSTORE POP POP PUSH1 0x1 DUP3 PUSH1 0x80 ADD MLOAD PUSH1 0x80 ADD SWAP1 ISZERO ISZERO SWAP1 DUP2 ISZERO ISZERO DUP2 MSTORE POP POP DUP1 PUSH2 0x180 ADD MLOAD DUP3 PUSH1 0x80 ADD MLOAD PUSH1 0xA0 ADD DUP2 SWAP1 MSTORE POP PUSH1 0x1 DUP3 PUSH1 0x80 ADD MLOAD PUSH1 0xC0 ADD SWAP1 ISZERO ISZERO SWAP1 DUP2 ISZERO ISZERO DUP2 MSTORE POP POP DUP1 PUSH2 0x100 ADD MLOAD PUSH1 0xE0 ADD MLOAD DUP3 PUSH1 0x80 ADD MLOAD PUSH1 0xE0 ADD DUP2 DUP2 MSTORE POP POP DUP1 PUSH2 0x100 ADD MLOAD PUSH2 0x100 ADD MLOAD DUP3 PUSH1 0x80 ADD MLOAD PUSH2 0x100 ADD DUP2 DUP2 MSTORE POP POP DUP1 PUSH2 0x100 ADD MLOAD PUSH2 0x120 ADD MLOAD DUP3 PUSH1 0x80 ADD MLOAD PUSH2 0x120 ADD DUP2 DUP2 MSTORE POP POP PUSH2 0x1260 PUSH2 0x5A3E JUMP JUMPDEST DUP2 PUSH0 ADD MLOAD DUP2 PUSH0 ADD SWAP1 PUSH20 0xFFFFFFFFFFFFFFFFFFFFFFFFFFFFFFFFFFFFFFFF AND SWAP1 DUP2 PUSH20 0xFFFFFFFFFFFFFFFFFFFFFFFFFFFFFFFFFFFFFFFF AND DUP2 MSTORE POP POP DUP2 PUSH1 0x20 ADD MLOAD DUP2 PUSH1 0x20 ADD DUP2 SWAP1 MSTORE POP DUP2 PUSH1 0x40 ADD MLOAD DUP2 PUSH1 0x40 ADD SWAP1 PUSH20 0xFFFFFFFFFFFFFFFFFFFFFFFFFFFFFFFFFFFFFFFF AND SWAP1 DUP2 PUSH20 0xFFFFFFFFFFFFFFFFFFFFFFFFFFFFFFFFFFFFFFFF AND DUP2 MSTORE POP POP DUP2 PUSH1 0x60 ADD MLOAD DUP2 PUSH1 0x60 ADD SWAP1 PUSH20 0xFFFFFFFFFFFFFFFFFFFFFFFFFFFFFFFFFFFFFFFF AND SWAP1 DUP2 PUSH20 0xFFFFFFFFFFFFFFFFFFFFFFFFFFFFFFFFFFFFFFFF AND DUP2 MSTORE POP POP DUP2 PUSH1 0x80 ADD MLOAD DUP2 PUSH1 0x80 ADD SWAP1 PUSH20 0xFFFFFFFFFFFFFFFFFFFFFFFFFFFFFFFFFFFFFFFF AND SWAP1 DUP2 PUSH20 0xFFFFFFFFFFFFFFFFFFFFFFFFFFFFFFFFFFFFFFFF AND DUP2 MSTORE POP POP DUP2 PUSH1 0xA0 ADD MLOAD DUP2 PUSH1 0xA0 ADD DUP2 SWAP1 MSTORE POP DUP2 PUSH1 0xC0 ADD MLOAD DUP2 PUSH1 0xC0 ADD SWAP1 PUSH20 0xFFFFFFFFFFFFFFFFFFFFFFFFFFFFFFFFFFFFFFFF AND SWAP1 DUP2 PUSH20 0xFFFFFFFFFFFFFFFFFFFFFFFFFFFFFFFFFFFFFFFF AND DUP2 MSTORE POP POP DUP2 PUSH1 0xE0 ADD MLOAD DUP2 PUSH1 0xE0 ADD DUP2 DUP2 MSTORE POP POP DUP3 PUSH1 0x80 ADD MLOAD DUP2 PUSH2 0x100 ADD DUP2 SWAP1 MSTORE POP NUMBER DUP2 PUSH2 0x120 ADD DUP2 DUP2 MSTORE POP POP DUP2 PUSH2 0x120 ADD MLOAD DUP2 PUSH2 0x140 ADD DUP2 SWAP1 MSTORE POP DUP2 PUSH2 0x140 ADD MLOAD DUP2 PUSH2 0x160 ADD DUP2 DUP2 MSTORE POP POP PUSH2 0x13F4 DUP2 DUP6 PUSH2 0x4DF8 JUMP JUMPDEST POP PUSH2 0x41AE JUMP JUMPDEST PUSH1 0x1 PUSH1 0x6 DUP2 GT ISZERO PUSH2 0x140E JUMPI PUSH2 0x140D PUSH2 0x6432 JUMP JUMPDEST JUMPDEST DUP5 PUSH1 0x20 ADD MLOAD PUSH0 ADD MLOAD PUSH1 0x6 DUP2 GT ISZERO PUSH2 0x1428 JUMPI PUSH2 0x1427 PUSH2 0x6432 JUMP JUMPDEST JUMPDEST SUB PUSH2 0x17CA JUMPI PUSH2 0x14A8 DUP2 PUSH0 ADD MLOAD PUSH20 0xFFFFFFFFFFFFFFFFFFFFFFFFFFFFFFFFFFFFFFFF AND CALLER PUSH20 0xFFFFFFFFFFFFFFFFFFFFFFFFFFFFFFFFFFFFFFFF AND EQ PUSH2 0x149E JUMPI CALLER PUSH20 0xFFFFFFFFFFFFFFFFFFFFFFFFFFFFFFFFFFFFFFFF AND DUP3 PUSH1 0x60 ADD MLOAD PUSH20 0xFFFFFFFFFFFFFFFFFFFFFFFFFFFFFFFFFFFFFFFF AND EQ PUSH2 0x14A1 JUMP JUMPDEST PUSH1 0x1 JUMPDEST PUSH1 0x25 PUSH2 0x4D01 JUMP JUMPDEST PUSH2 0x14C9 DUP2 PUSH2 0x100 ADD MLOAD PUSH1 0xC0 ADD MLOAD PUSH2 0x14C0 JUMPI PUSH1 0x1 PUSH2 0x14C2 JUMP JUMPDEST PUSH0 JUMPDEST PUSH1 0x26 PUSH2 0x4D01 JUMP JUMPDEST PUSH2 0x14DD DUP2 PUSH2 0x100 ADD MLOAD PUSH1 0x80 ADD MLOAD PUSH1 0x27 PUSH2 0x4D01 JUMP JUMPDEST PUSH2 0x14EA PUSH0 CALLVALUE EQ PUSH1 0x28 PUSH2 0x4D01 JUMP JUMPDEST PUSH2 0x1503 PUSH2 0x14FC CALLER DUP4 PUSH1 0x80 ADD MLOAD PUSH0 PUSH2 0x4DE2 JUMP JUMPDEST PUSH1 0x29 PUSH2 0x4D01 JUMP JUMPDEST PUSH32 0xC53C50351AD4BEFAB2B017480EEC17D813FD6D45A3E5CE3B15EF70AA01834697 PUSH0 PUSH1 0x40 MLOAD PUSH2 0x1532 SWAP2 SWAP1 PUSH2 0x61C7 JUMP JUMPDEST PUSH1 0x40 MLOAD DUP1 SWAP2 SUB SWAP1 LOG1 PUSH0 DUP4 PUSH1 0x40 ADD SWAP1 ISZERO ISZERO SWAP1 DUP2 ISZERO ISZERO DUP2 MSTORE POP POP DUP1 PUSH2 0x100 ADD MLOAD PUSH0 ADD MLOAD DUP3 PUSH1 0xA0 ADD MLOAD PUSH0 ADD DUP2 SWAP1 MSTORE POP DUP1 PUSH2 0x100 ADD MLOAD PUSH1 0x20 ADD MLOAD DUP3 PUSH1 0xA0 ADD MLOAD PUSH1 0x20 ADD DUP2 DUP2 MSTORE POP POP DUP1 PUSH2 0x160 ADD MLOAD DUP3 PUSH1 0xA0 ADD MLOAD PUSH1 0x40 ADD DUP2 SWAP1 MSTORE POP PUSH0 DUP3 PUSH1 0xA0 ADD MLOAD PUSH1 0x60 ADD SWAP1 ISZERO ISZERO SWAP1 DUP2 ISZERO ISZERO DUP2 MSTORE POP POP PUSH1 0x1 DUP3 PUSH1 0xA0 ADD MLOAD PUSH1 0x80 ADD SWAP1 ISZERO ISZERO SWAP1 DUP2 ISZERO ISZERO DUP2 MSTORE POP POP DUP1 PUSH2 0x180 ADD MLOAD DUP3 PUSH1 0xA0 ADD MLOAD PUSH1 0xA0 ADD DUP2 SWAP1 MSTORE POP DUP1 PUSH2 0x100 ADD MLOAD PUSH1 0xC0 ADD MLOAD DUP3 PUSH1 0xA0 ADD MLOAD PUSH1 0xC0 ADD SWAP1 ISZERO ISZERO SWAP1 DUP2 ISZERO ISZERO DUP2 MSTORE POP POP DUP1 PUSH2 0x100 ADD MLOAD PUSH1 0xE0 ADD MLOAD DUP3 PUSH1 0xA0 ADD MLOAD PUSH1 0xE0 ADD DUP2 DUP2 MSTORE POP POP DUP1 PUSH2 0x100 ADD MLOAD PUSH2 0x100 ADD MLOAD DUP3 PUSH1 0xA0 ADD MLOAD PUSH2 0x100 ADD DUP2 DUP2 MSTORE POP POP DUP1 PUSH2 0x100 ADD MLOAD PUSH2 0x120 ADD MLOAD DUP3 PUSH1 0xA0 ADD MLOAD PUSH2 0x120 ADD DUP2 DUP2 MSTORE POP POP PUSH2 0x1630 PUSH2 0x5A3E JUMP JUMPDEST DUP2 PUSH0 ADD MLOAD DUP2 PUSH0 ADD SWAP1 PUSH20 0xFFFFFFFFFFFFFFFFFFFFFFFFFFFFFFFFFFFFFFFF AND SWAP1 DUP2 PUSH20 0xFFFFFFFFFFFFFFFFFFFFFFFFFFFFFFFFFFFFFFFF AND DUP2 MSTORE POP POP DUP2 PUSH1 0x20 ADD MLOAD DUP2 PUSH1 0x20 ADD DUP2 SWAP1 MSTORE POP DUP2 PUSH1 0x40 ADD MLOAD DUP2 PUSH1 0x40 ADD SWAP1 PUSH20 0xFFFFFFFFFFFFFFFFFFFFFFFFFFFFFFFFFFFFFFFF AND SWAP1 DUP2 PUSH20 0xFFFFFFFFFFFFFFFFFFFFFFFFFFFFFFFFFFFFFFFF AND DUP2 MSTORE POP POP DUP2 PUSH1 0x60 ADD MLOAD DUP2 PUSH1 0x60 ADD SWAP1 PUSH20 0xFFFFFFFFFFFFFFFFFFFFFFFFFFFFFFFFFFFFFFFF AND SWAP1 DUP2 PUSH20 0xFFFFFFFFFFFFFFFFFFFFFFFFFFFFFFFFFFFFFFFF AND DUP2 MSTORE POP POP DUP2 PUSH1 0x80 ADD MLOAD DUP2 PUSH1 0x80 ADD SWAP1 PUSH20 0xFFFFFFFFFFFFFFFFFFFFFFFFFFFFFFFFFFFFFFFF AND SWAP1 DUP2 PUSH20 0xFFFFFFFFFFFFFFFFFFFFFFFFFFFFFFFFFFFFFFFF AND DUP2 MSTORE POP POP DUP2 PUSH1 0xA0 ADD MLOAD DUP2 PUSH1 0xA0 ADD DUP2 SWAP1 MSTORE POP DUP2 PUSH1 0xC0 ADD MLOAD DUP2 PUSH1 0xC0 ADD SWAP1 PUSH20 0xFFFFFFFFFFFFFFFFFFFFFFFFFFFFFFFFFFFFFFFF AND SWAP1 DUP2 PUSH20 0xFFFFFFFFFFFFFFFFFFFFFFFFFFFFFFFFFFFFFFFF AND DUP2 MSTORE POP POP DUP2 PUSH1 0xE0 ADD MLOAD DUP2 PUSH1 0xE0 ADD DUP2 DUP2 MSTORE POP POP DUP3 PUSH1 0xA0 ADD MLOAD DUP2 PUSH2 0x100 ADD DUP2 SWAP1 MSTORE POP NUMBER DUP2 PUSH2 0x120 ADD DUP2 DUP2 MSTORE POP POP DUP2 PUSH2 0x120 ADD MLOAD DUP2 PUSH2 0x140 ADD DUP2 SWAP1 MSTORE POP DUP2 PUSH2 0x140 ADD MLOAD DUP2 PUSH2 0x160 ADD DUP2 DUP2 MSTORE POP POP PUSH2 0x17C4 DUP2 DUP6 PUSH2 0x4DF8 JUMP JUMPDEST POP PUSH2 0x41AD JUMP JUMPDEST PUSH1 0x2 PUSH1 0x6 DUP2 GT ISZERO PUSH2 0x17DE JUMPI PUSH2 0x17DD PUSH2 0x6432 JUMP JUMPDEST JUMPDEST DUP5 PUSH1 0x20 ADD MLOAD PUSH0 ADD MLOAD PUSH1 0x6 DUP2 GT ISZERO PUSH2 0x17F8 JUMPI PUSH2 0x17F7 PUSH2 0x6432 JUMP JUMPDEST JUMPDEST SUB PUSH2 0x1BAA JUMPI DUP4 PUSH1 0x20 ADD MLOAD PUSH1 0x60 ADD MLOAD DUP3 PUSH1 0xC0 ADD DUP2 SWAP1 MSTORE POP PUSH2 0x1889 DUP2 PUSH0 ADD MLOAD PUSH20 0xFFFFFFFFFFFFFFFFFFFFFFFFFFFFFFFFFFFFFFFF AND CALLER PUSH20 0xFFFFFFFFFFFFFFFFFFFFFFFFFFFFFFFFFFFFFFFF AND EQ PUSH2 0x187F JUMPI CALLER PUSH20 0xFFFFFFFFFFFFFFFFFFFFFFFFFFFFFFFFFFFFFFFF AND DUP3 PUSH1 0x60 ADD MLOAD PUSH20 0xFFFFFFFFFFFFFFFFFFFFFFFFFFFFFFFFFFFFFFFF AND EQ PUSH2 0x1882 JUMP JUMPDEST PUSH1 0x1 JUMPDEST PUSH1 0x2A PUSH2 0x4D01 JUMP JUMPDEST PUSH2 0x18AA DUP2 PUSH2 0x100 ADD MLOAD PUSH1 0xC0 ADD MLOAD PUSH2 0x18A1 JUMPI PUSH1 0x1 PUSH2 0x18A3 JUMP JUMPDEST PUSH0 JUMPDEST PUSH1 0x2B PUSH2 0x4D01 JUMP JUMPDEST PUSH2 0x18B7 PUSH0 CALLVALUE EQ PUSH1 0x2C PUSH2 0x4D01 JUMP JUMPDEST PUSH2 0x18D0 PUSH2 0x18C9 CALLER DUP4 PUSH1 0x80 ADD MLOAD PUSH0 PUSH2 0x4DE2 JUMP JUMPDEST PUSH1 0x2D PUSH2 0x4D01 JUMP JUMPDEST PUSH32 0xE6D6036A1F698EAE13CDB88B5C9CA009F6AA1787E61A6E8F5655AF6B9F6D620F PUSH0 PUSH1 0x40 MLOAD PUSH2 0x18FF SWAP2 SWAP1 PUSH2 0x61C7 JUMP JUMPDEST PUSH1 0x40 MLOAD DUP1 SWAP2 SUB SWAP1 LOG1 PUSH0 DUP4 PUSH1 0x60 ADD SWAP1 ISZERO ISZERO SWAP1 DUP2 ISZERO ISZERO DUP2 MSTORE POP POP DUP1 PUSH2 0x100 ADD MLOAD PUSH0 ADD MLOAD DUP3 PUSH1 0xE0 ADD MLOAD PUSH0 ADD DUP2 SWAP1 MSTORE POP DUP1 PUSH2 0x100 ADD MLOAD PUSH1 0x20 ADD MLOAD DUP3 PUSH1 0xE0 ADD MLOAD PUSH1 0x20 ADD DUP2 DUP2 MSTORE POP POP DUP2 PUSH1 0xC0 ADD MLOAD PUSH0 ADD MLOAD DUP3 PUSH1 0xE0 ADD MLOAD PUSH1 0x40 ADD DUP2 SWAP1 MSTORE POP DUP1 PUSH2 0x100 ADD MLOAD PUSH1 0x60 ADD MLOAD DUP3 PUSH1 0xE0 ADD MLOAD PUSH1 0x60 ADD SWAP1 ISZERO ISZERO SWAP1 DUP2 ISZERO ISZERO DUP2 MSTORE POP POP DUP1 PUSH2 0x100 ADD MLOAD PUSH1 0x80 ADD MLOAD DUP3 PUSH1 0xE0 ADD MLOAD PUSH1 0x80 ADD SWAP1 ISZERO ISZERO SWAP1 DUP2 ISZERO ISZERO DUP2 MSTORE POP POP DUP1 PUSH2 0x180 ADD MLOAD DUP3 PUSH1 0xE0 ADD MLOAD PUSH1 0xA0 ADD DUP2 SWAP1 MSTORE POP DUP1 PUSH2 0x100 ADD MLOAD PUSH1 0xC0 ADD MLOAD DUP3 PUSH1 0xE0 ADD MLOAD PUSH1 0xC0 ADD SWAP1 ISZERO ISZERO SWAP1 DUP2 ISZERO ISZERO DUP2 MSTORE POP POP DUP1 PUSH2 0x100 ADD MLOAD PUSH1 0xE0 ADD MLOAD DUP3 PUSH1 0xE0 ADD MLOAD PUSH1 0xE0 ADD DUP2 DUP2 MSTORE POP POP DUP1 PUSH2 0x100 ADD MLOAD PUSH2 0x100 ADD MLOAD DUP3 PUSH1 0xE0 ADD MLOAD PUSH2 0x100 ADD DUP2 DUP2 MSTORE POP POP DUP1 PUSH2 0x100 ADD MLOAD PUSH2 0x120 ADD MLOAD DUP3 PUSH1 0xE0 ADD MLOAD PUSH2 0x120 ADD DUP2 DUP2 MSTORE POP POP PUSH2 0x1A10 PUSH2 0x5A3E JUMP JUMPDEST DUP2 PUSH0 ADD MLOAD DUP2 PUSH0 ADD SWAP1 PUSH20 0xFFFFFFFFFFFFFFFFFFFFFFFFFFFFFFFFFFFFFFFF AND SWAP1 DUP2 PUSH20 0xFFFFFFFFFFFFFFFFFFFFFFFFFFFFFFFFFFFFFFFF AND DUP2 MSTORE POP POP DUP2 PUSH1 0x20 ADD MLOAD DUP2 PUSH1 0x20 ADD DUP2 SWAP1 MSTORE POP DUP2 PUSH1 0x40 ADD MLOAD DUP2 PUSH1 0x40 ADD SWAP1 PUSH20 0xFFFFFFFFFFFFFFFFFFFFFFFFFFFFFFFFFFFFFFFF AND SWAP1 DUP2 PUSH20 0xFFFFFFFFFFFFFFFFFFFFFFFFFFFFFFFFFFFFFFFF AND DUP2 MSTORE POP POP DUP2 PUSH1 0x60 ADD MLOAD DUP2 PUSH1 0x60 ADD SWAP1 PUSH20 0xFFFFFFFFFFFFFFFFFFFFFFFFFFFFFFFFFFFFFFFF AND SWAP1 DUP2 PUSH20 0xFFFFFFFFFFFFFFFFFFFFFFFFFFFFFFFFFFFFFFFF AND DUP2 MSTORE POP POP DUP2 PUSH1 0x80 ADD MLOAD DUP2 PUSH1 0x80 ADD SWAP1 PUSH20 0xFFFFFFFFFFFFFFFFFFFFFFFFFFFFFFFFFFFFFFFF AND SWAP1 DUP2 PUSH20 0xFFFFFFFFFFFFFFFFFFFFFFFFFFFFFFFFFFFFFFFF AND DUP2 MSTORE POP POP DUP2 PUSH1 0xA0 ADD MLOAD DUP2 PUSH1 0xA0 ADD DUP2 SWAP1 MSTORE POP DUP2 PUSH1 0xC0 ADD MLOAD DUP2 PUSH1 0xC0 ADD SWAP1 PUSH20 0xFFFFFFFFFFFFFFFFFFFFFFFFFFFFFFFFFFFFFFFF AND SWAP1 DUP2 PUSH20 0xFFFFFFFFFFFFFFFFFFFFFFFFFFFFFFFFFFFFFFFF AND DUP2 MSTORE POP POP DUP2 PUSH1 0xE0 ADD MLOAD DUP2 PUSH1 0xE0 ADD DUP2 DUP2 MSTORE POP POP DUP3 PUSH1 0xE0 ADD MLOAD DUP2 PUSH2 0x100 ADD DUP2 SWAP1 MSTORE POP NUMBER DUP2 PUSH2 0x120 ADD DUP2 DUP2 MSTORE POP POP DUP2 PUSH2 0x120 ADD MLOAD DUP2 PUSH2 0x140 ADD DUP2 SWAP1 MSTORE POP DUP2 PUSH2 0x140 ADD MLOAD DUP2 PUSH2 0x160 ADD DUP2 DUP2 MSTORE POP POP PUSH2 0x1BA4 DUP2 DUP6 PUSH2 0x4DF8 JUMP JUMPDEST POP PUSH2 0x41AC JUMP JUMPDEST PUSH1 0x3 PUSH1 0x6 DUP2 GT ISZERO PUSH2 0x1BBE JUMPI PUSH2 0x1BBD PUSH2 0x6432 JUMP JUMPDEST JUMPDEST DUP5 PUSH1 0x20 ADD MLOAD PUSH0 ADD MLOAD PUSH1 0x6 DUP2 GT ISZERO PUSH2 0x1BD8 JUMPI PUSH2 0x1BD7 PUSH2 0x6432 JUMP JUMPDEST JUMPDEST SUB PUSH2 0x1F97 JUMPI DUP4 PUSH1 0x20 ADD MLOAD PUSH1 0x80 ADD MLOAD DUP3 PUSH2 0x100 ADD DUP2 SWAP1 MSTORE POP PUSH2 0x1C6A DUP2 PUSH0 ADD MLOAD PUSH20 0xFFFFFFFFFFFFFFFFFFFFFFFFFFFFFFFFFFFFFFFF AND CALLER PUSH20 0xFFFFFFFFFFFFFFFFFFFFFFFFFFFFFFFFFFFFFFFF AND EQ PUSH2 0x1C60 JUMPI CALLER PUSH20 0xFFFFFFFFFFFFFFFFFFFFFFFFFFFFFFFFFFFFFFFF AND DUP3 PUSH1 0x60 ADD MLOAD PUSH20 0xFFFFFFFFFFFFFFFFFFFFFFFFFFFFFFFFFFFFFFFF AND EQ PUSH2 0x1C63 JUMP JUMPDEST PUSH1 0x1 JUMPDEST PUSH1 0x2E PUSH2 0x4D01 JUMP JUMPDEST PUSH2 0x1C8B DUP2 PUSH2 0x100 ADD MLOAD PUSH1 0xC0 ADD MLOAD PUSH2 0x1C82 JUMPI PUSH1 0x1 PUSH2 0x1C84 JUMP JUMPDEST PUSH0 JUMPDEST PUSH1 0x2F PUSH2 0x4D01 JUMP JUMPDEST PUSH2 0x1C98 PUSH0 CALLVALUE EQ PUSH1 0x30 PUSH2 0x4D01 JUMP JUMPDEST PUSH2 0x1CB1 PUSH2 0x1CAA CALLER DUP4 PUSH1 0x80 ADD MLOAD PUSH0 PUSH2 0x4DE2 JUMP JUMPDEST PUSH1 0x31 PUSH2 0x4D01 JUMP JUMPDEST PUSH32 0xF28ACB61A46D457DB8CBFF02E80006B657B0552908026506FA8EFC5AA5BA845B PUSH0 PUSH1 0x40 MLOAD PUSH2 0x1CE0 SWAP2 SWAP1 PUSH2 0x61C7 JUMP JUMPDEST PUSH1 0x40 MLOAD DUP1 SWAP2 SUB SWAP1 LOG1 PUSH0 DUP4 PUSH1 0x80 ADD SWAP1 ISZERO ISZERO SWAP1 DUP2 ISZERO ISZERO DUP2 MSTORE POP POP DUP1 PUSH2 0x100 ADD MLOAD PUSH0 ADD MLOAD DUP3 PUSH2 0x120 ADD MLOAD PUSH0 ADD DUP2 SWAP1 MSTORE POP DUP1 PUSH2 0x100 ADD MLOAD PUSH1 0x20 ADD MLOAD DUP3 PUSH2 0x120 ADD MLOAD PUSH1 0x20 ADD DUP2 DUP2 MSTORE POP POP DUP1 PUSH2 0x160 ADD MLOAD DUP3 PUSH2 0x120 ADD MLOAD PUSH1 0x40 ADD DUP2 SWAP1 MSTORE POP DUP1 PUSH2 0x100 ADD MLOAD PUSH1 0x60 ADD MLOAD DUP3 PUSH2 0x120 ADD MLOAD PUSH1 0x60 ADD SWAP1 ISZERO ISZERO SWAP1 DUP2 ISZERO ISZERO DUP2 MSTORE POP POP DUP1 PUSH2 0x100 ADD MLOAD PUSH1 0x80 ADD MLOAD DUP3 PUSH2 0x120 ADD MLOAD PUSH1 0x80 ADD SWAP1 ISZERO ISZERO SWAP1 DUP2 ISZERO ISZERO DUP2 MSTORE POP POP DUP2 PUSH2 0x100 ADD MLOAD PUSH0 ADD MLOAD DUP3 PUSH2 0x120 ADD MLOAD PUSH1 0xA0 ADD DUP2 SWAP1 MSTORE POP DUP1 PUSH2 0x100 ADD MLOAD PUSH1 0xC0 ADD MLOAD DUP3 PUSH2 0x120 ADD MLOAD PUSH1 0xC0 ADD SWAP1 ISZERO ISZERO SWAP1 DUP2 ISZERO ISZERO DUP2 MSTORE POP POP DUP1 PUSH2 0x100 ADD MLOAD PUSH1 0xE0 ADD MLOAD DUP3 PUSH2 0x120 ADD MLOAD PUSH1 0xE0 ADD DUP2 DUP2 MSTORE POP POP DUP1 PUSH2 0x100 ADD MLOAD PUSH2 0x100 ADD MLOAD DUP3 PUSH2 0x120 ADD MLOAD PUSH2 0x100 ADD DUP2 DUP2 MSTORE POP POP DUP1 PUSH2 0x100 ADD MLOAD PUSH2 0x120 ADD MLOAD DUP3 PUSH2 0x120 ADD MLOAD PUSH2 0x120 ADD DUP2 DUP2 MSTORE POP POP PUSH2 0x1DFC PUSH2 0x5A3E JUMP JUMPDEST DUP2 PUSH0 ADD MLOAD DUP2 PUSH0 ADD SWAP1 PUSH20 0xFFFFFFFFFFFFFFFFFFFFFFFFFFFFFFFFFFFFFFFF AND SWAP1 DUP2 PUSH20 0xFFFFFFFFFFFFFFFFFFFFFFFFFFFFFFFFFFFFFFFF AND DUP2 MSTORE POP POP DUP2 PUSH1 0x20 ADD MLOAD DUP2 PUSH1 0x20 ADD DUP2 SWAP1 MSTORE POP DUP2 PUSH1 0x40 ADD MLOAD DUP2 PUSH1 0x40 ADD SWAP1 PUSH20 0xFFFFFFFFFFFFFFFFFFFFFFFFFFFFFFFFFFFFFFFF AND SWAP1 DUP2 PUSH20 0xFFFFFFFFFFFFFFFFFFFFFFFFFFFFFFFFFFFFFFFF AND DUP2 MSTORE POP POP DUP2 PUSH1 0x60 ADD MLOAD DUP2 PUSH1 0x60 ADD SWAP1 PUSH20 0xFFFFFFFFFFFFFFFFFFFFFFFFFFFFFFFFFFFFFFFF AND SWAP1 DUP2 PUSH20 0xFFFFFFFFFFFFFFFFFFFFFFFFFFFFFFFFFFFFFFFF AND DUP2 MSTORE POP POP DUP2 PUSH1 0x80 ADD MLOAD DUP2 PUSH1 0x80 ADD SWAP1 PUSH20 0xFFFFFFFFFFFFFFFFFFFFFFFFFFFFFFFFFFFFFFFF AND SWAP1 DUP2 PUSH20 0xFFFFFFFFFFFFFFFFFFFFFFFFFFFFFFFFFFFFFFFF AND DUP2 MSTORE POP POP DUP2 PUSH1 0xA0 ADD MLOAD DUP2 PUSH1 0xA0 ADD DUP2 SWAP1 MSTORE POP DUP2 PUSH1 0xC0 ADD MLOAD DUP2 PUSH1 0xC0 ADD SWAP1 PUSH20 0xFFFFFFFFFFFFFFFFFFFFFFFFFFFFFFFFFFFFFFFF AND SWAP1 DUP2 PUSH20 0xFFFFFFFFFFFFFFFFFFFFFFFFFFFFFFFFFFFFFFFF AND DUP2 MSTORE POP POP DUP2 PUSH1 0xE0 ADD MLOAD DUP2 PUSH1 0xE0 ADD DUP2 DUP2 MSTORE POP POP DUP3 PUSH2 0x120 ADD MLOAD DUP2 PUSH2 0x100 ADD DUP2 SWAP1 MSTORE POP NUMBER DUP2 PUSH2 0x120 ADD DUP2 DUP2 MSTORE POP POP DUP2 PUSH2 0x120 ADD MLOAD DUP2 PUSH2 0x140 ADD DUP2 SWAP1 MSTORE POP DUP2 PUSH2 0x140 ADD MLOAD DUP2 PUSH2 0x160 ADD DUP2 DUP2 MSTORE POP POP PUSH2 0x1F91 DUP2 DUP6 PUSH2 0x4DF8 JUMP JUMPDEST POP PUSH2 0x41AB JUMP JUMPDEST PUSH1 0x4 PUSH1 0x6 DUP2 GT ISZERO PUSH2 0x1FAB JUMPI PUSH2 0x1FAA PUSH2 0x6432 JUMP JUMPDEST JUMPDEST DUP5 PUSH1 0x20 ADD MLOAD PUSH0 ADD MLOAD PUSH1 0x6 DUP2 GT ISZERO PUSH2 0x1FC5 JUMPI PUSH2 0x1FC4 PUSH2 0x6432 JUMP JUMPDEST JUMPDEST SUB PUSH2 0x298C JUMPI PUSH2 0x1FDE DUP2 PUSH2 0x100 ADD MLOAD PUSH1 0x80 ADD MLOAD PUSH1 0x32 PUSH2 0x4D01 JUMP JUMPDEST PUSH2 0x1FFF DUP2 PUSH2 0x100 ADD MLOAD PUSH1 0xC0 ADD MLOAD PUSH2 0x1FF6 JUMPI PUSH1 0x1 PUSH2 0x1FF8 JUMP JUMPDEST PUSH0 JUMPDEST PUSH1 0x33 PUSH2 0x4D01 JUMP JUMPDEST PUSH0 DUP3 PUSH2 0x140 ADD MLOAD PUSH0 ADD DUP2 DUP2 MSTORE POP POP DUP1 PUSH1 0x80 ADD MLOAD DUP3 PUSH2 0x140 ADD MLOAD PUSH1 0x20 ADD SWAP1 PUSH20 0xFFFFFFFFFFFFFFFFFFFFFFFFFFFFFFFFFFFFFFFF AND SWAP1 DUP2 PUSH20 0xFFFFFFFFFFFFFFFFFFFFFFFFFFFFFFFFFFFFFFFF AND DUP2 MSTORE POP POP DUP1 PUSH1 0xE0 ADD MLOAD DUP3 PUSH2 0x160 ADD MLOAD PUSH0 ADD DUP2 DUP2 MSTORE POP POP DUP2 PUSH2 0x140 ADD MLOAD DUP3 PUSH2 0x160 ADD MLOAD PUSH1 0x20 ADD DUP2 SWAP1 MSTORE POP DUP1 PUSH1 0xE0 ADD MLOAD DUP3 PUSH2 0x180 ADD MLOAD PUSH0 ADD DUP2 DUP2 MSTORE POP POP DUP1 PUSH1 0x80 ADD MLOAD DUP3 PUSH2 0x180 ADD MLOAD PUSH1 0x20 ADD SWAP1 PUSH20 0xFFFFFFFFFFFFFFFFFFFFFFFFFFFFFFFFFFFFFFFF AND SWAP1 DUP2 PUSH20 0xFFFFFFFFFFFFFFFFFFFFFFFFFFFFFFFFFFFFFFFF AND DUP2 MSTORE POP POP PUSH0 DUP3 PUSH2 0x1A0 ADD MLOAD PUSH0 ADD DUP2 DUP2 MSTORE POP POP DUP2 PUSH2 0x180 ADD MLOAD DUP3 PUSH2 0x1A0 ADD MLOAD PUSH1 0x20 ADD DUP2 SWAP1 MSTORE POP DUP1 PUSH1 0x20 ADD MLOAD PUSH1 0x60 ADD MLOAD PUSH2 0x20FF JUMPI DUP2 PUSH2 0x1A0 ADD MLOAD PUSH2 0x2106 JUMP JUMPDEST DUP2 PUSH2 0x160 ADD MLOAD JUMPDEST DUP3 PUSH2 0x1C0 ADD DUP2 SWAP1 MSTORE POP PUSH2 0x2124 DUP3 PUSH2 0x1C0 ADD MLOAD PUSH0 ADD MLOAD CALLVALUE EQ PUSH1 0x34 PUSH2 0x4D01 JUMP JUMPDEST PUSH2 0x21C8 DUP2 PUSH2 0x120 ADD MLOAD PUSH1 0x1 PUSH1 0x40 MLOAD DUP1 PUSH1 0x60 ADD PUSH1 0x40 MSTORE DUP1 PUSH2 0x2170 DUP7 PUSH2 0x120 ADD MLOAD PUSH1 0x1 PUSH1 0x2 DUP2 LT PUSH2 0x2156 JUMPI PUSH2 0x2155 PUSH2 0x73F5 JUMP JUMPDEST JUMPDEST PUSH1 0x20 MUL ADD MLOAD PUSH0 ADD MLOAD DUP9 PUSH2 0x1C0 ADD MLOAD PUSH1 0x20 ADD MLOAD PUSH0 ADD MLOAD PUSH2 0x515B JUMP JUMPDEST DUP2 MSTORE PUSH1 0x20 ADD DUP6 PUSH2 0x120 ADD MLOAD PUSH1 0x1 PUSH1 0x2 DUP2 LT PUSH2 0x218E JUMPI PUSH2 0x218D PUSH2 0x73F5 JUMP JUMPDEST JUMPDEST PUSH1 0x20 MUL ADD MLOAD PUSH1 0x20 ADD MLOAD DUP2 MSTORE PUSH1 0x20 ADD DUP6 PUSH2 0x120 ADD MLOAD PUSH1 0x1 PUSH1 0x2 DUP2 LT PUSH2 0x21B5 JUMPI PUSH2 0x21B4 PUSH2 0x73F5 JUMP JUMPDEST JUMPDEST PUSH1 0x20 MUL ADD MLOAD PUSH1 0x40 ADD MLOAD ISZERO ISZERO DUP2 MSTORE POP PUSH2 0x4D6B JUMP JUMPDEST DUP3 PUSH2 0x1E0 ADD DUP2 SWAP1 MSTORE POP PUSH2 0x21F6 PUSH2 0x21EF CALLER DUP4 PUSH1 0x80 ADD MLOAD DUP6 PUSH2 0x1C0 ADD MLOAD PUSH1 0x20 ADD MLOAD PUSH0 ADD MLOAD PUSH2 0x4DE2 JUMP JUMPDEST PUSH1 0x35 PUSH2 0x4D01 JUMP JUMPDEST PUSH32 0xB40FC21DA4B7CAB320B6643AE46CAC31BBB4D45AFF3654FDC57AAD27F8BAF641 PUSH0 PUSH1 0x40 MLOAD PUSH2 0x2225 SWAP2 SWAP1 PUSH2 0x61C7 JUMP JUMPDEST PUSH1 0x40 MLOAD DUP1 SWAP2 SUB SWAP1 LOG1 PUSH0 DUP4 PUSH2 0x100 ADD SWAP1 ISZERO ISZERO SWAP1 DUP2 ISZERO ISZERO DUP2 MSTORE POP POP DUP1 PUSH0 ADD MLOAD PUSH20 0xFFFFFFFFFFFFFFFFFFFFFFFFFFFFFFFFFFFFFFFF AND PUSH2 0x8FC DUP4 PUSH2 0x1C0 ADD MLOAD PUSH0 ADD MLOAD SWAP1 DUP2 ISZERO MUL SWAP1 PUSH1 0x40 MLOAD PUSH0 PUSH1 0x40 MLOAD DUP1 DUP4 SUB DUP2 DUP6 DUP9 DUP9 CALL SWAP4 POP POP POP POP ISZERO DUP1 ISZERO PUSH2 0x228C JUMPI RETURNDATASIZE PUSH0 DUP1 RETURNDATACOPY RETURNDATASIZE PUSH0 REVERT JUMPDEST POP PUSH0 DUP3 PUSH2 0x200 ADD MLOAD PUSH0 ADD SWAP1 ISZERO ISZERO SWAP1 DUP2 ISZERO ISZERO DUP2 MSTORE POP POP PUSH0 DUP3 PUSH2 0x200 ADD MLOAD PUSH1 0x20 ADD DUP2 DUP2 MSTORE POP POP DUP2 PUSH2 0x200 ADD MLOAD DUP3 PUSH2 0x240 ADD DUP2 SWAP1 MSTORE POP PUSH0 JUMPDEST PUSH1 0x2 DUP2 LT ISZERO PUSH2 0x2403 JUMPI DUP2 PUSH1 0xA0 ADD MLOAD DUP2 PUSH1 0x2 DUP2 LT PUSH2 0x22E1 JUMPI PUSH2 0x22E0 PUSH2 0x73F5 JUMP JUMPDEST JUMPDEST PUSH1 0x20 MUL ADD MLOAD DUP4 PUSH2 0x260 ADD SWAP1 PUSH20 0xFFFFFFFFFFFFFFFFFFFFFFFFFFFFFFFFFFFFFFFF AND SWAP1 DUP2 PUSH20 0xFFFFFFFFFFFFFFFFFFFFFFFFFFFFFFFFFFFFFFFF AND DUP2 MSTORE POP POP PUSH0 DUP4 PUSH2 0x280 ADD MLOAD PUSH0 ADD SWAP1 ISZERO ISZERO SWAP1 DUP2 ISZERO ISZERO DUP2 MSTORE POP POP PUSH2 0x2346 DUP4 PUSH2 0x240 ADD MLOAD PUSH1 0x20 ADD MLOAD PUSH1 0x1 PUSH2 0x515B JUMP JUMPDEST DUP4 PUSH2 0x280 ADD MLOAD PUSH1 0x20 ADD DUP2 DUP2 MSTORE POP POP PUSH1 0x1 DUP4 PUSH2 0x2A0 ADD MLOAD PUSH0 ADD SWAP1 ISZERO ISZERO SWAP1 DUP2 ISZERO ISZERO DUP2 MSTORE POP POP DUP3 PUSH2 0x240 ADD MLOAD PUSH1 0x20 ADD MLOAD DUP4 PUSH2 0x2A0 ADD MLOAD PUSH1 0x20 ADD DUP2 DUP2 MSTORE POP POP DUP3 PUSH2 0x240 ADD MLOAD PUSH0 ADD MLOAD PUSH2 0x23D4 JUMPI DUP3 PUSH2 0x1C0 ADD MLOAD PUSH1 0x20 ADD MLOAD PUSH1 0x20 ADD MLOAD PUSH20 0xFFFFFFFFFFFFFFFFFFFFFFFFFFFFFFFFFFFFFFFF AND DUP4 PUSH2 0x260 ADD MLOAD PUSH20 0xFFFFFFFFFFFFFFFFFFFFFFFFFFFFFFFFFFFFFFFF AND EQ PUSH2 0x23D7 JUMP JUMPDEST PUSH1 0x1 JUMPDEST PUSH2 0x23E6 JUMPI DUP3 PUSH2 0x280 ADD MLOAD PUSH2 0x23ED JUMP JUMPDEST DUP3 PUSH2 0x2A0 ADD MLOAD JUMPDEST DUP4 PUSH2 0x240 ADD DUP2 SWAP1 MSTORE POP DUP1 DUP1 PUSH1 0x1 ADD SWAP2 POP POP PUSH2 0x22C1 JUMP JUMPDEST POP DUP2 PUSH2 0x240 ADD MLOAD DUP3 PUSH2 0x220 ADD DUP2 SWAP1 MSTORE POP DUP2 PUSH2 0x200 ADD MLOAD DUP3 PUSH2 0x2E0 ADD DUP2 SWAP1 MSTORE POP PUSH0 JUMPDEST PUSH1 0x2 DUP2 LT ISZERO PUSH2 0x2566 JUMPI DUP2 PUSH1 0xA0 ADD MLOAD DUP2 PUSH1 0x2 DUP2 LT PUSH2 0x2444 JUMPI PUSH2 0x2443 PUSH2 0x73F5 JUMP JUMPDEST JUMPDEST PUSH1 0x20 MUL ADD MLOAD DUP4 PUSH2 0x300 ADD SWAP1 PUSH20 0xFFFFFFFFFFFFFFFFFFFFFFFFFFFFFFFFFFFFFFFF AND SWAP1 DUP2 PUSH20 0xFFFFFFFFFFFFFFFFFFFFFFFFFFFFFFFFFFFFFFFF AND DUP2 MSTORE POP POP PUSH0 DUP4 PUSH2 0x320 ADD MLOAD PUSH0 ADD SWAP1 ISZERO ISZERO SWAP1 DUP2 ISZERO ISZERO DUP2 MSTORE POP POP PUSH2 0x24A9 DUP4 PUSH2 0x2E0 ADD MLOAD PUSH1 0x20 ADD MLOAD PUSH1 0x1 PUSH2 0x515B JUMP JUMPDEST DUP4 PUSH2 0x320 ADD MLOAD PUSH1 0x20 ADD DUP2 DUP2 MSTORE POP POP PUSH1 0x1 DUP4 PUSH2 0x340 ADD MLOAD PUSH0 ADD SWAP1 ISZERO ISZERO SWAP1 DUP2 ISZERO ISZERO DUP2 MSTORE POP POP DUP3 PUSH2 0x2E0 ADD MLOAD PUSH1 0x20 ADD MLOAD DUP4 PUSH2 0x340 ADD MLOAD PUSH1 0x20 ADD DUP2 DUP2 MSTORE POP POP DUP3 PUSH2 0x2E0 ADD MLOAD PUSH0 ADD MLOAD PUSH2 0x2537 JUMPI DUP3 PUSH2 0x1C0 ADD MLOAD PUSH1 0x20 ADD MLOAD PUSH1 0x20 ADD MLOAD PUSH20 0xFFFFFFFFFFFFFFFFFFFFFFFFFFFFFFFFFFFFFFFF AND DUP4 PUSH2 0x300 ADD MLOAD PUSH20 0xFFFFFFFFFFFFFFFFFFFFFFFFFFFFFFFFFFFFFFFF AND EQ PUSH2 0x253A JUMP JUMPDEST PUSH1 0x1 JUMPDEST PUSH2 0x2549 JUMPI DUP3 PUSH2 0x320 ADD MLOAD PUSH2 0x2550 JUMP JUMPDEST DUP3 PUSH2 0x340 ADD MLOAD JUMPDEST DUP4 PUSH2 0x2E0 ADD DUP2 SWAP1 MSTORE POP DUP1 DUP1 PUSH1 0x1 ADD SWAP2 POP POP PUSH2 0x2424 JUMP JUMPDEST POP DUP2 PUSH2 0x2E0 ADD MLOAD DUP3 PUSH2 0x2C0 ADD DUP2 SWAP1 MSTORE POP PUSH2 0x259D DUP3 PUSH2 0x1C0 ADD MLOAD PUSH1 0x20 ADD MLOAD PUSH1 0x20 ADD MLOAD DUP3 PUSH0 ADD MLOAD DUP5 PUSH2 0x1C0 ADD MLOAD PUSH1 0x20 ADD MLOAD PUSH0 ADD MLOAD PUSH2 0x4D47 JUMP JUMPDEST PUSH1 0x1 DUP3 PUSH2 0x360 ADD MLOAD PUSH0 ADD SWAP1 PUSH1 0x1 DUP2 GT ISZERO PUSH2 0x25BA JUMPI PUSH2 0x25B9 PUSH2 0x6432 JUMP JUMPDEST JUMPDEST SWAP1 DUP2 PUSH1 0x1 DUP2 GT ISZERO PUSH2 0x25CE JUMPI PUSH2 0x25CD PUSH2 0x6432 JUMP JUMPDEST JUMPDEST DUP2 MSTORE POP POP CALLER DUP3 PUSH2 0x360 ADD MLOAD PUSH1 0x40 ADD SWAP1 PUSH20 0xFFFFFFFFFFFFFFFFFFFFFFFFFFFFFFFFFFFFFFFF AND SWAP1 DUP2 PUSH20 0xFFFFFFFFFFFFFFFFFFFFFFFFFFFFFFFFFFFFFFFF AND DUP2 MSTORE POP POP DUP2 PUSH2 0x360 ADD MLOAD DUP3 PUSH2 0x380 ADD MLOAD PUSH0 ADD DUP2 SWAP1 MSTORE POP PUSH2 0x2635 DUP2 PUSH2 0x100 ADD MLOAD PUSH1 0x20 ADD MLOAD PUSH1 0x1 PUSH2 0x5167 JUMP JUMPDEST DUP3 PUSH2 0x380 ADD MLOAD PUSH1 0x20 ADD DUP2 DUP2 MSTORE POP POP DUP1 PUSH2 0x160 ADD MLOAD DUP3 PUSH2 0x380 ADD MLOAD PUSH1 0x40 ADD DUP2 SWAP1 MSTORE POP DUP1 PUSH2 0x100 ADD MLOAD PUSH1 0x60 ADD MLOAD DUP3 PUSH2 0x380 ADD MLOAD PUSH1 0x60 ADD SWAP1 ISZERO ISZERO SWAP1 DUP2 ISZERO ISZERO DUP2 MSTORE POP POP PUSH1 0x1 DUP3 PUSH2 0x380 ADD MLOAD PUSH1 0x80 ADD SWAP1 ISZERO ISZERO SWAP1 DUP2 ISZERO ISZERO DUP2 MSTORE POP POP DUP1 PUSH2 0x180 ADD MLOAD DUP3 PUSH2 0x380 ADD MLOAD PUSH1 0xA0 ADD DUP2 SWAP1 MSTORE POP PUSH1 0x1 DUP3 PUSH2 0x380 ADD MLOAD PUSH1 0xC0 ADD SWAP1 ISZERO ISZERO SWAP1 DUP2 ISZERO ISZERO DUP2 MSTORE POP POP DUP1 PUSH2 0x100 ADD MLOAD PUSH1 0xE0 ADD MLOAD DUP3 PUSH2 0x380 ADD MLOAD PUSH1 0xE0 ADD DUP2 DUP2 MSTORE POP POP DUP1 PUSH2 0x100 ADD MLOAD PUSH2 0x100 ADD MLOAD DUP3 PUSH2 0x380 ADD MLOAD PUSH2 0x100 ADD DUP2 DUP2 MSTORE POP POP PUSH2 0x26FA DUP2 PUSH2 0x100 ADD MLOAD PUSH2 0x120 ADD MLOAD PUSH1 0x1 PUSH2 0x5167 JUMP JUMPDEST DUP3 PUSH2 0x380 ADD MLOAD PUSH2 0x120 ADD DUP2 DUP2 MSTORE POP POP PUSH2 0x2711 PUSH2 0x5A3E JUMP JUMPDEST DUP2 PUSH0 ADD MLOAD DUP2 PUSH0 ADD SWAP1 PUSH20 0xFFFFFFFFFFFFFFFFFFFFFFFFFFFFFFFFFFFFFFFF AND SWAP1 DUP2 PUSH20 0xFFFFFFFFFFFFFFFFFFFFFFFFFFFFFFFFFFFFFFFF AND DUP2 MSTORE POP POP DUP2 PUSH1 0x20 ADD MLOAD DUP2 PUSH1 0x20 ADD DUP2 SWAP1 MSTORE POP DUP2 PUSH1 0x40 ADD MLOAD DUP2 PUSH1 0x40 ADD SWAP1 PUSH20 0xFFFFFFFFFFFFFFFFFFFFFFFFFFFFFFFFFFFFFFFF AND SWAP1 DUP2 PUSH20 0xFFFFFFFFFFFFFFFFFFFFFFFFFFFFFFFFFFFFFFFF AND DUP2 MSTORE POP POP DUP2 PUSH1 0x60 ADD MLOAD DUP2 PUSH1 0x60 ADD SWAP1 PUSH20 0xFFFFFFFFFFFFFFFFFFFFFFFFFFFFFFFFFFFFFFFF AND SWAP1 DUP2 PUSH20 0xFFFFFFFFFFFFFFFFFFFFFFFFFFFFFFFFFFFFFFFF AND DUP2 MSTORE POP POP DUP2 PUSH1 0x80 ADD MLOAD DUP2 PUSH1 0x80 ADD SWAP1 PUSH20 0xFFFFFFFFFFFFFFFFFFFFFFFFFFFFFFFFFFFFFFFF AND SWAP1 DUP2 PUSH20 0xFFFFFFFFFFFFFFFFFFFFFFFFFFFFFFFFFFFFFFFF AND DUP2 MSTORE POP POP DUP2 PUSH1 0xA0 ADD MLOAD DUP2 PUSH1 0xA0 ADD DUP2 SWAP1 MSTORE POP DUP2 PUSH1 0xC0 ADD MLOAD DUP2 PUSH1 0xC0 ADD SWAP1 PUSH20 0xFFFFFFFFFFFFFFFFFFFFFFFFFFFFFFFFFFFFFFFF AND SWAP1 DUP2 PUSH20 0xFFFFFFFFFFFFFFFFFFFFFFFFFFFFFFFFFFFFFFFF AND DUP2 MSTORE POP POP DUP2 PUSH1 0xE0 ADD MLOAD DUP2 PUSH1 0xE0 ADD DUP2 DUP2 MSTORE POP POP DUP3 PUSH2 0x380 ADD MLOAD DUP2 PUSH2 0x100 ADD DUP2 SWAP1 MSTORE POP NUMBER DUP2 PUSH2 0x120 ADD DUP2 DUP2 MSTORE POP POP PUSH2 0x2941 DUP4 PUSH2 0x1E0 ADD MLOAD DUP5 PUSH2 0x2C0 ADD MLOAD PUSH1 0x20 ADD MLOAD PUSH1 0x40 MLOAD DUP1 PUSH1 0x60 ADD PUSH1 0x40 MSTORE DUP1 PUSH2 0x28D9 DUP9 PUSH2 0x1E0 ADD MLOAD DUP10 PUSH2 0x220 ADD MLOAD PUSH1 0x20 ADD MLOAD PUSH1 0x2 DUP2 LT PUSH2 0x28BF JUMPI PUSH2 0x28BE PUSH2 0x73F5 JUMP JUMPDEST JUMPDEST PUSH1 0x20 MUL ADD MLOAD PUSH0 ADD MLOAD DUP10 PUSH2 0x1C0 ADD MLOAD PUSH1 0x20 ADD MLOAD PUSH0 ADD MLOAD PUSH2 0x4D5F JUMP JUMPDEST DUP2 MSTORE PUSH1 0x20 ADD DUP8 PUSH2 0x1E0 ADD MLOAD DUP9 PUSH2 0x2C0 ADD MLOAD PUSH1 0x20 ADD MLOAD PUSH1 0x2 DUP2 LT PUSH2 0x28FF JUMPI PUSH2 0x28FE PUSH2 0x73F5 JUMP JUMPDEST JUMPDEST PUSH1 0x20 MUL ADD MLOAD PUSH1 0x20 ADD MLOAD DUP2 MSTORE PUSH1 0x20 ADD DUP8 PUSH2 0x1E0 ADD MLOAD DUP9 PUSH2 0x2C0 ADD MLOAD PUSH1 0x20 ADD MLOAD PUSH1 0x2 DUP2 LT PUSH2 0x292E JUMPI PUSH2 0x292D PUSH2 0x73F5 JUMP JUMPDEST JUMPDEST PUSH1 0x20 MUL ADD MLOAD PUSH1 0x40 ADD MLOAD ISZERO ISZERO DUP2 MSTORE POP PUSH2 0x4D6B JUMP JUMPDEST DUP2 PUSH2 0x140 ADD DUP2 SWAP1 MSTORE POP PUSH2 0x2972 PUSH2 0x2964 DUP4 PUSH2 0x140 ADD MLOAD DUP6 PUSH2 0x1C0 ADD MLOAD PUSH0 ADD MLOAD PUSH2 0x515B JUMP JUMPDEST DUP5 PUSH2 0x1C0 ADD MLOAD PUSH0 ADD MLOAD PUSH2 0x4D5F JUMP JUMPDEST DUP2 PUSH2 0x160 ADD DUP2 DUP2 MSTORE POP POP PUSH2 0x2986 DUP2 DUP6 PUSH2 0x4DF8 JUMP JUMPDEST POP PUSH2 0x41AA JUMP JUMPDEST PUSH1 0x5 PUSH1 0x6 DUP2 GT ISZERO PUSH2 0x29A0 JUMPI PUSH2 0x299F PUSH2 0x6432 JUMP JUMPDEST JUMPDEST DUP5 PUSH1 0x20 ADD MLOAD PUSH0 ADD MLOAD PUSH1 0x6 DUP2 GT ISZERO PUSH2 0x29BA JUMPI PUSH2 0x29B9 PUSH2 0x6432 JUMP JUMPDEST JUMPDEST SUB PUSH2 0x378C JUMPI DUP4 PUSH1 0x20 ADD MLOAD PUSH1 0xC0 ADD MLOAD DUP3 PUSH2 0x3A0 ADD DUP2 SWAP1 MSTORE POP PUSH2 0x29E2 DUP3 PUSH2 0x3A0 ADD MLOAD PUSH0 ADD MLOAD PUSH2 0x4B43 JUMP JUMPDEST DUP3 PUSH2 0x3C0 ADD DUP2 SWAP1 MSTORE POP PUSH2 0x2A13 PUSH1 0x1 DUP4 PUSH2 0x3C0 ADD MLOAD PUSH0 ADD MLOAD PUSH1 0x1 DUP2 GT ISZERO PUSH2 0x2A0B JUMPI PUSH2 0x2A0A PUSH2 0x6432 JUMP JUMPDEST JUMPDEST EQ PUSH1 0x36 PUSH2 0x4D01 JUMP JUMPDEST PUSH0 DUP3 PUSH2 0x3E0 ADD MLOAD PUSH0 ADD DUP2 DUP2 MSTORE POP POP DUP1 PUSH1 0xC0 ADD MLOAD DUP3 PUSH2 0x3E0 ADD MLOAD PUSH1 0x20 ADD SWAP1 PUSH20 0xFFFFFFFFFFFFFFFFFFFFFFFFFFFFFFFFFFFFFFFF AND SWAP1 DUP2 PUSH20 0xFFFFFFFFFFFFFFFFFFFFFFFFFFFFFFFFFFFFFFFF AND DUP2 MSTORE POP POP PUSH0 DUP3 PUSH2 0x3E0 ADD MLOAD PUSH1 0x40 ADD DUP2 DUP2 MSTORE POP POP PUSH0 DUP3 PUSH2 0x3E0 ADD MLOAD PUSH1 0x60 ADD SWAP1 ISZERO ISZERO SWAP1 DUP2 ISZERO ISZERO DUP2 MSTORE POP POP PUSH0 DUP3 PUSH2 0x3E0 ADD MLOAD PUSH1 0x80 ADD SWAP1 ISZERO ISZERO SWAP1 DUP2 ISZERO ISZERO DUP2 MSTORE POP POP PUSH1 0x1 DUP1 DUP2 GT ISZERO PUSH2 0x2AAE JUMPI PUSH2 0x2AAD PUSH2 0x6432 JUMP JUMPDEST JUMPDEST DUP3 PUSH2 0x3C0 ADD MLOAD PUSH0 ADD MLOAD PUSH1 0x1 DUP2 GT ISZERO PUSH2 0x2AC9 JUMPI PUSH2 0x2AC8 PUSH2 0x6432 JUMP JUMPDEST JUMPDEST EQ PUSH2 0x2AD9 JUMPI DUP2 PUSH2 0x3E0 ADD MLOAD PUSH2 0x2AE4 JUMP JUMPDEST DUP2 PUSH2 0x3C0 ADD MLOAD PUSH1 0x40 ADD MLOAD JUMPDEST DUP3 PUSH2 0x400 ADD DUP2 SWAP1 MSTORE POP PUSH2 0x2B2F DUP3 PUSH2 0x400 ADD MLOAD PUSH1 0x20 ADD MLOAD PUSH20 0xFFFFFFFFFFFFFFFFFFFFFFFFFFFFFFFFFFFFFFFF AND CALLER PUSH20 0xFFFFFFFFFFFFFFFFFFFFFFFFFFFFFFFFFFFFFFFF AND EQ PUSH1 0x37 PUSH2 0x4D01 JUMP JUMPDEST PUSH2 0x2B8A DUP3 PUSH2 0x400 ADD MLOAD PUSH1 0x60 ADD MLOAD PUSH2 0x2B71 JUMPI DUP3 PUSH2 0x400 ADD MLOAD PUSH0 ADD MLOAD DUP3 PUSH2 0x120 ADD MLOAD PUSH1 0x1 PUSH1 0x2 DUP2 LT PUSH2 0x2B62 JUMPI PUSH2 0x2B61 PUSH2 0x73F5 JUMP JUMPDEST JUMPDEST PUSH1 0x20 MUL ADD MLOAD PUSH0 ADD MLOAD LT ISZERO PUSH2 0x2B83 JUMP JUMPDEST DUP3 PUSH2 0x400 ADD MLOAD PUSH0 ADD MLOAD DUP3 PUSH2 0x140 ADD MLOAD LT ISZERO JUMPDEST PUSH1 0x38 PUSH2 0x4D01 JUMP JUMPDEST PUSH0 DUP3 PUSH2 0x420 ADD MLOAD PUSH0 ADD DUP2 DUP2 MSTORE POP POP DUP1 PUSH1 0x80 ADD MLOAD DUP3 PUSH2 0x420 ADD MLOAD PUSH1 0x20 ADD SWAP1 PUSH20 0xFFFFFFFFFFFFFFFFFFFFFFFFFFFFFFFFFFFFFFFF AND SWAP1 DUP2 PUSH20 0xFFFFFFFFFFFFFFFFFFFFFFFFFFFFFFFFFFFFFFFF AND DUP2 MSTORE POP POP PUSH2 0x2BE6 PUSH0 CALLVALUE EQ PUSH1 0x39 PUSH2 0x4D01 JUMP JUMPDEST PUSH2 0x2BFF PUSH2 0x2BF8 CALLER DUP4 PUSH1 0x80 ADD MLOAD PUSH0 PUSH2 0x4DE2 JUMP JUMPDEST PUSH1 0x3A PUSH2 0x4D01 JUMP JUMPDEST PUSH32 0x560C9ABBBB5C152EB6A088E653BD5F32F968B16CC7E1981ED572E659B3C5F9B4 PUSH0 PUSH1 0x40 MLOAD PUSH2 0x2C2E SWAP2 SWAP1 PUSH2 0x61C7 JUMP JUMPDEST PUSH1 0x40 MLOAD DUP1 SWAP2 SUB SWAP1 LOG1 PUSH0 DUP4 PUSH2 0x120 ADD SWAP1 ISZERO ISZERO SWAP1 DUP2 ISZERO ISZERO DUP2 MSTORE POP POP DUP2 PUSH2 0x400 ADD MLOAD PUSH0 ADD MLOAD DUP3 PUSH2 0x440 ADD MLOAD PUSH0 ADD DUP2 DUP2 MSTORE POP POP DUP2 PUSH2 0x420 ADD MLOAD DUP3 PUSH2 0x440 ADD MLOAD PUSH1 0x20 ADD DUP2 SWAP1 MSTORE POP DUP2 PUSH2 0x400 ADD MLOAD PUSH0 ADD MLOAD DUP3 PUSH2 0x460 ADD MLOAD PUSH0 ADD DUP2 DUP2 MSTORE POP POP DUP1 PUSH1 0x80 ADD MLOAD DUP3 PUSH2 0x460 ADD MLOAD PUSH1 0x20 ADD SWAP1 PUSH20 0xFFFFFFFFFFFFFFFFFFFFFFFFFFFFFFFFFFFFFFFF AND SWAP1 DUP2 PUSH20 0xFFFFFFFFFFFFFFFFFFFFFFFFFFFFFFFFFFFFFFFF AND DUP2 MSTORE POP POP PUSH0 DUP3 PUSH2 0x480 ADD MLOAD PUSH0 ADD DUP2 DUP2 MSTORE POP POP DUP2 PUSH2 0x460 ADD MLOAD DUP3 PUSH2 0x480 ADD MLOAD PUSH1 0x20 ADD DUP2 SWAP1 MSTORE POP DUP2 PUSH2 0x400 ADD MLOAD PUSH1 0x60 ADD MLOAD PUSH2 0x2D01 JUMPI DUP2 PUSH2 0x480 ADD MLOAD PUSH2 0x2D08 JUMP JUMPDEST DUP2 PUSH2 0x440 ADD MLOAD JUMPDEST DUP3 PUSH2 0x4A0 ADD DUP2 SWAP1 MSTORE POP PUSH2 0x2D28 DUP2 PUSH2 0x140 ADD MLOAD DUP4 PUSH2 0x4A0 ADD MLOAD PUSH0 ADD MLOAD PUSH2 0x4D5F JUMP JUMPDEST DUP3 PUSH2 0x4C0 ADD DUP2 DUP2 MSTORE POP POP DUP2 PUSH2 0x400 ADD MLOAD PUSH1 0x20 ADD MLOAD PUSH20 0xFFFFFFFFFFFFFFFFFFFFFFFFFFFFFFFFFFFFFFFF AND PUSH2 0x8FC DUP4 PUSH2 0x4A0 ADD MLOAD PUSH0 ADD MLOAD SWAP1 DUP2 ISZERO MUL SWAP1 PUSH1 0x40 MLOAD PUSH0 PUSH1 0x40 MLOAD DUP1 DUP4 SUB DUP2 DUP6 DUP9 DUP9 CALL SWAP4 POP POP POP POP ISZERO DUP1 ISZERO PUSH2 0x2D86 JUMPI RETURNDATASIZE PUSH0 DUP1 RETURNDATACOPY RETURNDATASIZE PUSH0 REVERT JUMPDEST POP PUSH0 DUP3 PUSH2 0x4E0 ADD MLOAD PUSH0 ADD SWAP1 ISZERO ISZERO SWAP1 DUP2 ISZERO ISZERO DUP2 MSTORE POP POP PUSH0 DUP3 PUSH2 0x4E0 ADD MLOAD PUSH1 0x20 ADD DUP2 DUP2 MSTORE POP POP DUP2 PUSH2 0x4E0 ADD MLOAD DUP3 PUSH2 0x520 ADD DUP2 SWAP1 MSTORE POP PUSH0 JUMPDEST PUSH1 0x2 DUP2 LT ISZERO PUSH2 0x2EFD JUMPI DUP2 PUSH1 0xA0 ADD MLOAD DUP2 PUSH1 0x2 DUP2 LT PUSH2 0x2DDB JUMPI PUSH2 0x2DDA PUSH2 0x73F5 JUMP JUMPDEST JUMPDEST PUSH1 0x20 MUL ADD MLOAD DUP4 PUSH2 0x540 ADD SWAP1 PUSH20 0xFFFFFFFFFFFFFFFFFFFFFFFFFFFFFFFFFFFFFFFF AND SWAP1 DUP2 PUSH20 0xFFFFFFFFFFFFFFFFFFFFFFFFFFFFFFFFFFFFFFFF AND DUP2 MSTORE POP POP PUSH0 DUP4 PUSH2 0x560 ADD MLOAD PUSH0 ADD SWAP1 ISZERO ISZERO SWAP1 DUP2 ISZERO ISZERO DUP2 MSTORE POP POP PUSH2 0x2E40 DUP4 PUSH2 0x520 ADD MLOAD PUSH1 0x20 ADD MLOAD PUSH1 0x1 PUSH2 0x515B JUMP JUMPDEST DUP4 PUSH2 0x560 ADD MLOAD PUSH1 0x20 ADD DUP2 DUP2 MSTORE POP POP PUSH1 0x1 DUP4 PUSH2 0x580 ADD MLOAD PUSH0 ADD SWAP1 ISZERO ISZERO SWAP1 DUP2 ISZERO ISZERO DUP2 MSTORE POP POP DUP3 PUSH2 0x520 ADD MLOAD PUSH1 0x20 ADD MLOAD DUP4 PUSH2 0x580 ADD MLOAD PUSH1 0x20 ADD DUP2 DUP2 MSTORE POP POP DUP3 PUSH2 0x520 ADD MLOAD PUSH0 ADD MLOAD PUSH2 0x2ECE JUMPI DUP3 PUSH2 0x4A0 ADD MLOAD PUSH1 0x20 ADD MLOAD PUSH1 0x20 ADD MLOAD PUSH20 0xFFFFFFFFFFFFFFFFFFFFFFFFFFFFFFFFFFFFFFFF AND DUP4 PUSH2 0x540 ADD MLOAD PUSH20 0xFFFFFFFFFFFFFFFFFFFFFFFFFFFFFFFFFFFFFFFF AND EQ PUSH2 0x2ED1 JUMP JUMPDEST PUSH1 0x1 JUMPDEST PUSH2 0x2EE0 JUMPI DUP3 PUSH2 0x560 ADD MLOAD PUSH2 0x2EE7 JUMP JUMPDEST DUP3 PUSH2 0x580 ADD MLOAD JUMPDEST DUP4 PUSH2 0x520 ADD DUP2 SWAP1 MSTORE POP DUP1 DUP1 PUSH1 0x1 ADD SWAP2 POP POP PUSH2 0x2DBB JUMP JUMPDEST POP DUP2 PUSH2 0x520 ADD MLOAD DUP3 PUSH2 0x500 ADD DUP2 SWAP1 MSTORE POP DUP2 PUSH2 0x4E0 ADD MLOAD DUP3 PUSH2 0x5C0 ADD DUP2 SWAP1 MSTORE POP PUSH0 JUMPDEST PUSH1 0x2 DUP2 LT ISZERO PUSH2 0x3060 JUMPI DUP2 PUSH1 0xA0 ADD MLOAD DUP2 PUSH1 0x2 DUP2 LT PUSH2 0x2F3E JUMPI PUSH2 0x2F3D PUSH2 0x73F5 JUMP JUMPDEST JUMPDEST PUSH1 0x20 MUL ADD MLOAD DUP4 PUSH2 0x5E0 ADD SWAP1 PUSH20 0xFFFFFFFFFFFFFFFFFFFFFFFFFFFFFFFFFFFFFFFF AND SWAP1 DUP2 PUSH20 0xFFFFFFFFFFFFFFFFFFFFFFFFFFFFFFFFFFFFFFFF AND DUP2 MSTORE POP POP PUSH0 DUP4 PUSH2 0x600 ADD MLOAD PUSH0 ADD SWAP1 ISZERO ISZERO SWAP1 DUP2 ISZERO ISZERO DUP2 MSTORE POP POP PUSH2 0x2FA3 DUP4 PUSH2 0x5C0 ADD MLOAD PUSH1 0x20 ADD MLOAD PUSH1 0x1 PUSH2 0x515B JUMP JUMPDEST DUP4 PUSH2 0x600 ADD MLOAD PUSH1 0x20 ADD DUP2 DUP2 MSTORE POP POP PUSH1 0x1 DUP4 PUSH2 0x620 ADD MLOAD PUSH0 ADD SWAP1 ISZERO ISZERO SWAP1 DUP2 ISZERO ISZERO DUP2 MSTORE POP POP DUP3 PUSH2 0x5C0 ADD MLOAD PUSH1 0x20 ADD MLOAD DUP4 PUSH2 0x620 ADD MLOAD PUSH1 0x20 ADD DUP2 DUP2 MSTORE POP POP DUP3 PUSH2 0x5C0 ADD MLOAD PUSH0 ADD MLOAD PUSH2 0x3031 JUMPI DUP3 PUSH2 0x4A0 ADD MLOAD PUSH1 0x20 ADD MLOAD PUSH1 0x20 ADD MLOAD PUSH20 0xFFFFFFFFFFFFFFFFFFFFFFFFFFFFFFFFFFFFFFFF AND DUP4 PUSH2 0x5E0 ADD MLOAD PUSH20 0xFFFFFFFFFFFFFFFFFFFFFFFFFFFFFFFFFFFFFFFF AND EQ PUSH2 0x3034 JUMP JUMPDEST PUSH1 0x1 JUMPDEST PUSH2 0x3043 JUMPI DUP3 PUSH2 0x600 ADD MLOAD PUSH2 0x304A JUMP JUMPDEST DUP3 PUSH2 0x620 ADD MLOAD JUMPDEST DUP4 PUSH2 0x5C0 ADD DUP2 SWAP1 MSTORE POP DUP1 DUP1 PUSH1 0x1 ADD SWAP2 POP POP PUSH2 0x2F1E JUMP JUMPDEST POP DUP2 PUSH2 0x5C0 ADD MLOAD DUP3 PUSH2 0x5A0 ADD DUP2 SWAP1 MSTORE POP PUSH2 0x3134 DUP2 PUSH2 0x120 ADD MLOAD DUP4 PUSH2 0x5A0 ADD MLOAD PUSH1 0x20 ADD MLOAD PUSH1 0x40 MLOAD DUP1 PUSH1 0x60 ADD PUSH1 0x40 MSTORE DUP1 PUSH2 0x30CC DUP7 PUSH2 0x120 ADD MLOAD DUP9 PUSH2 0x500 ADD MLOAD PUSH1 0x20 ADD MLOAD PUSH1 0x2 DUP2 LT PUSH2 0x30B2 JUMPI PUSH2 0x30B1 PUSH2 0x73F5 JUMP JUMPDEST JUMPDEST PUSH1 0x20 MUL ADD MLOAD PUSH0 ADD MLOAD DUP9 PUSH2 0x4A0 ADD MLOAD PUSH1 0x20 ADD MLOAD PUSH0 ADD MLOAD PUSH2 0x4D5F JUMP JUMPDEST DUP2 MSTORE PUSH1 0x20 ADD DUP6 PUSH2 0x120 ADD MLOAD DUP8 PUSH2 0x5A0 ADD MLOAD PUSH1 0x20 ADD MLOAD PUSH1 0x2 DUP2 LT PUSH2 0x30F2 JUMPI PUSH2 0x30F1 PUSH2 0x73F5 JUMP JUMPDEST JUMPDEST PUSH1 0x20 MUL ADD MLOAD PUSH1 0x20 ADD MLOAD DUP2 MSTORE PUSH1 0x20 ADD DUP6 PUSH2 0x120 ADD MLOAD DUP8 PUSH2 0x5A0 ADD MLOAD PUSH1 0x20 ADD MLOAD PUSH1 0x2 DUP2 LT PUSH2 0x3121 JUMPI PUSH2 0x3120 PUSH2 0x73F5 JUMP JUMPDEST JUMPDEST PUSH1 0x20 MUL ADD MLOAD PUSH1 0x40 ADD MLOAD ISZERO ISZERO DUP2 MSTORE POP PUSH2 0x4D6B JUMP JUMPDEST DUP3 PUSH2 0x640 ADD DUP2 SWAP1 MSTORE POP PUSH2 0x316A DUP3 PUSH2 0x4A0 ADD MLOAD PUSH1 0x20 ADD MLOAD PUSH1 0x20 ADD MLOAD DUP4 PUSH2 0x400 ADD MLOAD PUSH1 0x20 ADD MLOAD DUP5 PUSH2 0x4A0 ADD MLOAD PUSH1 0x20 ADD MLOAD PUSH0 ADD MLOAD PUSH2 0x4D47 JUMP JUMPDEST PUSH1 0x5 PUSH0 DUP4 PUSH2 0x3A0 ADD MLOAD PUSH0 ADD MLOAD DUP2 MSTORE PUSH1 0x20 ADD SWAP1 DUP2 MSTORE PUSH1 0x20 ADD PUSH0 KECCAK256 PUSH0 DUP1 DUP3 ADD PUSH0 PUSH2 0x100 EXP DUP2 SLOAD SWAP1 PUSH1 0xFF MUL NOT AND SWAP1 SSTORE PUSH0 DUP3 ADD PUSH1 0x1 PUSH2 0x100 EXP DUP2 SLOAD SWAP1 PUSH1 0xFF MUL NOT AND SWAP1 SSTORE PUSH1 0x1 DUP3 ADD PUSH0 DUP1 DUP3 ADD PUSH0 SWAP1 SSTORE PUSH1 0x1 DUP3 ADD PUSH0 PUSH2 0x100 EXP DUP2 SLOAD SWAP1 PUSH20 0xFFFFFFFFFFFFFFFFFFFFFFFFFFFFFFFFFFFFFFFF MUL NOT AND SWAP1 SSTORE PUSH1 0x2 DUP3 ADD PUSH0 SWAP1 SSTORE PUSH1 0x3 DUP3 ADD PUSH0 PUSH2 0x100 EXP DUP2 SLOAD SWAP1 PUSH1 0xFF MUL NOT AND SWAP1 SSTORE PUSH1 0x3 DUP3 ADD PUSH1 0x1 PUSH2 0x100 EXP DUP2 SLOAD SWAP1 PUSH1 0xFF MUL NOT AND SWAP1 SSTORE POP POP POP POP PUSH2 0x3220 DUP2 PUSH2 0x100 ADD MLOAD PUSH1 0x20 ADD MLOAD PUSH1 0x1 PUSH2 0x51BF JUMP JUMPDEST DUP3 PUSH2 0x660 ADD DUP2 DUP2 MSTORE POP POP DUP2 PUSH2 0x400 ADD MLOAD PUSH1 0x60 ADD MLOAD ISZERO PUSH2 0x34E2 JUMPI DUP1 PUSH2 0x100 ADD MLOAD PUSH0 ADD MLOAD DUP3 PUSH2 0x680 ADD MLOAD PUSH0 ADD DUP2 SWAP1 MSTORE POP DUP2 PUSH2 0x660 ADD MLOAD DUP3 PUSH2 0x680 ADD MLOAD PUSH1 0x20 ADD DUP2 DUP2 MSTORE POP POP DUP1 PUSH2 0x160 ADD MLOAD DUP3 PUSH2 0x680 ADD MLOAD PUSH1 0x40 ADD DUP2 SWAP1 MSTORE POP DUP1 PUSH2 0x100 ADD MLOAD PUSH1 0x60 ADD MLOAD DUP3 PUSH2 0x680 ADD MLOAD PUSH1 0x60 ADD SWAP1 ISZERO ISZERO SWAP1 DUP2 ISZERO ISZERO DUP2 MSTORE POP POP DUP1 PUSH2 0x100 ADD MLOAD PUSH1 0x80 ADD MLOAD DUP3 PUSH2 0x680 ADD MLOAD PUSH1 0x80 ADD SWAP1 ISZERO ISZERO SWAP1 DUP2 ISZERO ISZERO DUP2 MSTORE POP POP DUP1 PUSH2 0x180 ADD MLOAD DUP3 PUSH2 0x680 ADD MLOAD PUSH1 0xA0 ADD DUP2 SWAP1 MSTORE POP DUP1 PUSH2 0x100 ADD MLOAD PUSH1 0xC0 ADD MLOAD DUP3 PUSH2 0x680 ADD MLOAD PUSH1 0xC0 ADD SWAP1 ISZERO ISZERO SWAP1 DUP2 ISZERO ISZERO DUP2 MSTORE POP POP PUSH2 0x32FD DUP2 PUSH2 0x100 ADD MLOAD PUSH1 0xE0 ADD MLOAD DUP4 PUSH2 0x400 ADD MLOAD PUSH0 ADD MLOAD PUSH2 0x51BF JUMP JUMPDEST DUP3 PUSH2 0x680 ADD MLOAD PUSH1 0xE0 ADD DUP2 DUP2 MSTORE POP POP DUP1 PUSH2 0x100 ADD MLOAD PUSH2 0x100 ADD MLOAD DUP3 PUSH2 0x680 ADD MLOAD PUSH2 0x100 ADD DUP2 DUP2 MSTORE POP POP DUP1 PUSH2 0x100 ADD MLOAD PUSH2 0x120 ADD MLOAD DUP3 PUSH2 0x680 ADD MLOAD PUSH2 0x120 ADD DUP2 DUP2 MSTORE POP POP PUSH2 0x3347 PUSH2 0x5A3E JUMP JUMPDEST DUP2 PUSH0 ADD MLOAD DUP2 PUSH0 ADD SWAP1 PUSH20 0xFFFFFFFFFFFFFFFFFFFFFFFFFFFFFFFFFFFFFFFF AND SWAP1 DUP2 PUSH20 0xFFFFFFFFFFFFFFFFFFFFFFFFFFFFFFFFFFFFFFFF AND DUP2 MSTORE POP POP DUP2 PUSH1 0x20 ADD MLOAD DUP2 PUSH1 0x20 ADD DUP2 SWAP1 MSTORE POP DUP2 PUSH1 0x40 ADD MLOAD DUP2 PUSH1 0x40 ADD SWAP1 PUSH20 0xFFFFFFFFFFFFFFFFFFFFFFFFFFFFFFFFFFFFFFFF AND SWAP1 DUP2 PUSH20 0xFFFFFFFFFFFFFFFFFFFFFFFFFFFFFFFFFFFFFFFF AND DUP2 MSTORE POP POP DUP2 PUSH1 0x60 ADD MLOAD DUP2 PUSH1 0x60 ADD SWAP1 PUSH20 0xFFFFFFFFFFFFFFFFFFFFFFFFFFFFFFFFFFFFFFFF AND SWAP1 DUP2 PUSH20 0xFFFFFFFFFFFFFFFFFFFFFFFFFFFFFFFFFFFFFFFF AND DUP2 MSTORE POP POP DUP2 PUSH1 0x80 ADD MLOAD DUP2 PUSH1 0x80 ADD SWAP1 PUSH20 0xFFFFFFFFFFFFFFFFFFFFFFFFFFFFFFFFFFFFFFFF AND SWAP1 DUP2 PUSH20 0xFFFFFFFFFFFFFFFFFFFFFFFFFFFFFFFFFFFFFFFF AND DUP2 MSTORE POP POP DUP2 PUSH1 0xA0 ADD MLOAD DUP2 PUSH1 0xA0 ADD DUP2 SWAP1 MSTORE POP DUP2 PUSH1 0xC0 ADD MLOAD DUP2 PUSH1 0xC0 ADD SWAP1 PUSH20 0xFFFFFFFFFFFFFFFFFFFFFFFFFFFFFFFFFFFFFFFF AND SWAP1 DUP2 PUSH20 0xFFFFFFFFFFFFFFFFFFFFFFFFFFFFFFFFFFFFFFFF AND DUP2 MSTORE POP POP DUP2 PUSH1 0xE0 ADD MLOAD DUP2 PUSH1 0xE0 ADD DUP2 DUP2 MSTORE POP POP DUP3 PUSH2 0x680 ADD MLOAD DUP2 PUSH2 0x100 ADD DUP2 SWAP1 MSTORE POP NUMBER DUP2 PUSH2 0x120 ADD DUP2 DUP2 MSTORE POP POP DUP3 PUSH2 0x640 ADD MLOAD DUP2 PUSH2 0x140 ADD DUP2 SWAP1 MSTORE POP DUP3 PUSH2 0x4C0 ADD MLOAD DUP2 PUSH2 0x160 ADD DUP2 DUP2 MSTORE POP POP PUSH2 0x34DC DUP2 DUP6 PUSH2 0x4DF8 JUMP JUMPDEST POP PUSH2 0x3787 JUMP JUMPDEST DUP1 PUSH2 0x100 ADD MLOAD PUSH0 ADD MLOAD DUP3 PUSH2 0x6A0 ADD MLOAD PUSH0 ADD DUP2 SWAP1 MSTORE POP DUP2 PUSH2 0x660 ADD MLOAD DUP3 PUSH2 0x6A0 ADD MLOAD PUSH1 0x20 ADD DUP2 DUP2 MSTORE POP POP DUP1 PUSH2 0x160 ADD MLOAD DUP3 PUSH2 0x6A0 ADD MLOAD PUSH1 0x40 ADD DUP2 SWAP1 MSTORE POP DUP1 PUSH2 0x100 ADD MLOAD PUSH1 0x60 ADD MLOAD DUP3 PUSH2 0x6A0 ADD MLOAD PUSH1 0x60 ADD SWAP1 ISZERO ISZERO SWAP1 DUP2 ISZERO ISZERO DUP2 MSTORE POP POP DUP1 PUSH2 0x100 ADD MLOAD PUSH1 0x80 ADD MLOAD DUP3 PUSH2 0x6A0 ADD MLOAD PUSH1 0x80 ADD SWAP1 ISZERO ISZERO SWAP1 DUP2 ISZERO ISZERO DUP2 MSTORE POP POP DUP1 PUSH2 0x180 ADD MLOAD DUP3 PUSH2 0x6A0 ADD MLOAD PUSH1 0xA0 ADD DUP2 SWAP1 MSTORE POP DUP1 PUSH2 0x100 ADD MLOAD PUSH1 0xC0 ADD MLOAD DUP3 PUSH2 0x6A0 ADD MLOAD PUSH1 0xC0 ADD SWAP1 ISZERO ISZERO SWAP1 DUP2 ISZERO ISZERO DUP2 MSTORE POP POP DUP1 PUSH2 0x100 ADD MLOAD PUSH1 0xE0 ADD MLOAD DUP3 PUSH2 0x6A0 ADD MLOAD PUSH1 0xE0 ADD DUP2 DUP2 MSTORE POP POP PUSH2 0x35BF DUP2 PUSH2 0x100 ADD MLOAD PUSH2 0x100 ADD MLOAD DUP4 PUSH2 0x400 ADD MLOAD PUSH0 ADD MLOAD PUSH2 0x51BF JUMP JUMPDEST DUP3 PUSH2 0x6A0 ADD MLOAD PUSH2 0x100 ADD DUP2 DUP2 MSTORE POP POP DUP1 PUSH2 0x100 ADD MLOAD PUSH2 0x120 ADD MLOAD DUP3 PUSH2 0x6A0 ADD MLOAD PUSH2 0x120 ADD DUP2 DUP2 MSTORE POP POP PUSH2 0x35F0 PUSH2 0x5A3E JUMP JUMPDEST DUP2 PUSH0 ADD MLOAD DUP2 PUSH0 ADD SWAP1 PUSH20 0xFFFFFFFFFFFFFFFFFFFFFFFFFFFFFFFFFFFFFFFF AND SWAP1 DUP2 PUSH20 0xFFFFFFFFFFFFFFFFFFFFFFFFFFFFFFFFFFFFFFFF AND DUP2 MSTORE POP POP DUP2 PUSH1 0x20 ADD MLOAD DUP2 PUSH1 0x20 ADD DUP2 SWAP1 MSTORE POP DUP2 PUSH1 0x40 ADD MLOAD DUP2 PUSH1 0x40 ADD SWAP1 PUSH20 0xFFFFFFFFFFFFFFFFFFFFFFFFFFFFFFFFFFFFFFFF AND SWAP1 DUP2 PUSH20 0xFFFFFFFFFFFFFFFFFFFFFFFFFFFFFFFFFFFFFFFF AND DUP2 MSTORE POP POP DUP2 PUSH1 0x60 ADD MLOAD DUP2 PUSH1 0x60 ADD SWAP1 PUSH20 0xFFFFFFFFFFFFFFFFFFFFFFFFFFFFFFFFFFFFFFFF AND SWAP1 DUP2 PUSH20 0xFFFFFFFFFFFFFFFFFFFFFFFFFFFFFFFFFFFFFFFF AND DUP2 MSTORE POP POP DUP2 PUSH1 0x80 ADD MLOAD DUP2 PUSH1 0x80 ADD SWAP1 PUSH20 0xFFFFFFFFFFFFFFFFFFFFFFFFFFFFFFFFFFFFFFFF AND SWAP1 DUP2 PUSH20 0xFFFFFFFFFFFFFFFFFFFFFFFFFFFFFFFFFFFFFFFF AND DUP2 MSTORE POP POP DUP2 PUSH1 0xA0 ADD MLOAD DUP2 PUSH1 0xA0 ADD DUP2 SWAP1 MSTORE POP DUP2 PUSH1 0xC0 ADD MLOAD DUP2 PUSH1 0xC0 ADD SWAP1 PUSH20 0xFFFFFFFFFFFFFFFFFFFFFFFFFFFFFFFFFFFFFFFF AND SWAP1 DUP2 PUSH20 0xFFFFFFFFFFFFFFFFFFFFFFFFFFFFFFFFFFFFFFFF AND DUP2 MSTORE POP POP DUP2 PUSH1 0xE0 ADD MLOAD DUP2 PUSH1 0xE0 ADD DUP2 DUP2 MSTORE POP POP DUP3 PUSH2 0x6A0 ADD MLOAD DUP2 PUSH2 0x100 ADD DUP2 SWAP1 MSTORE POP NUMBER DUP2 PUSH2 0x120 ADD DUP2 DUP2 MSTORE POP POP DUP3 PUSH2 0x640 ADD MLOAD DUP2 PUSH2 0x140 ADD DUP2 SWAP1 MSTORE POP DUP3 PUSH2 0x4C0 ADD MLOAD DUP2 PUSH2 0x160 ADD DUP2 DUP2 MSTORE POP POP PUSH2 0x3785 DUP2 DUP6 PUSH2 0x4DF8 JUMP JUMPDEST POP JUMPDEST PUSH2 0x41A9 JUMP JUMPDEST PUSH1 0x6 DUP1 DUP2 GT ISZERO PUSH2 0x379F JUMPI PUSH2 0x379E PUSH2 0x6432 JUMP JUMPDEST JUMPDEST DUP5 PUSH1 0x20 ADD MLOAD PUSH0 ADD MLOAD PUSH1 0x6 DUP2 GT ISZERO PUSH2 0x37B9 JUMPI PUSH2 0x37B8 PUSH2 0x6432 JUMP JUMPDEST JUMPDEST SUB PUSH2 0x41A8 JUMPI DUP4 PUSH1 0x20 ADD MLOAD PUSH1 0xE0 ADD MLOAD DUP3 PUSH2 0x6C0 ADD DUP2 SWAP1 MSTORE POP PUSH2 0x37E4 DUP2 PUSH2 0x100 ADD MLOAD PUSH1 0x80 ADD MLOAD PUSH1 0x3B PUSH2 0x4D01 JUMP JUMPDEST DUP1 PUSH1 0x20 ADD MLOAD PUSH1 0x80 ADD MLOAD PUSH2 0x3803 JUMPI DUP2 PUSH2 0x6C0 ADD MLOAD PUSH0 ADD MLOAD PUSH1 0x20 ADD MLOAD PUSH2 0x3806 JUMP JUMPDEST PUSH1 0x1 JUMPDEST DUP3 PUSH2 0x6E0 ADD SWAP1 ISZERO ISZERO SWAP1 DUP2 ISZERO ISZERO DUP2 MSTORE POP POP PUSH0 DUP3 PUSH2 0x700 ADD MLOAD PUSH0 ADD DUP2 DUP2 MSTORE POP POP DUP1 PUSH1 0x80 ADD MLOAD DUP3 PUSH2 0x700 ADD MLOAD PUSH1 0x20 ADD SWAP1 PUSH20 0xFFFFFFFFFFFFFFFFFFFFFFFFFFFFFFFFFFFFFFFF AND SWAP1 DUP2 PUSH20 0xFFFFFFFFFFFFFFFFFFFFFFFFFFFFFFFFFFFFFFFF AND DUP2 MSTORE POP POP DUP2 PUSH2 0x6C0 ADD MLOAD PUSH0 ADD MLOAD PUSH0 ADD MLOAD DUP3 PUSH2 0x720 ADD MLOAD PUSH0 ADD DUP2 DUP2 MSTORE POP POP DUP2 PUSH2 0x700 ADD MLOAD DUP3 PUSH2 0x720 ADD MLOAD PUSH1 0x20 ADD DUP2 SWAP1 MSTORE POP DUP2 PUSH2 0x6C0 ADD MLOAD PUSH0 ADD MLOAD PUSH0 ADD MLOAD DUP3 PUSH2 0x740 ADD MLOAD PUSH0 ADD DUP2 DUP2 MSTORE POP POP DUP1 PUSH1 0x80 ADD MLOAD DUP3 PUSH2 0x740 ADD MLOAD PUSH1 0x20 ADD SWAP1 PUSH20 0xFFFFFFFFFFFFFFFFFFFFFFFFFFFFFFFFFFFFFFFF AND SWAP1 DUP2 PUSH20 0xFFFFFFFFFFFFFFFFFFFFFFFFFFFFFFFFFFFFFFFF AND DUP2 MSTORE POP POP PUSH0 DUP3 PUSH2 0x760 ADD MLOAD PUSH0 ADD DUP2 DUP2 MSTORE POP POP DUP2 PUSH2 0x740 ADD MLOAD DUP3 PUSH2 0x760 ADD MLOAD PUSH1 0x20 ADD DUP2 SWAP1 MSTORE POP DUP2 PUSH2 0x6E0 ADD MLOAD PUSH2 0x3921 JUMPI DUP2 PUSH2 0x760 ADD MLOAD PUSH2 0x3928 JUMP JUMPDEST DUP2 PUSH2 0x720 ADD MLOAD JUMPDEST DUP3 PUSH2 0x780 ADD DUP2 SWAP1 MSTORE POP PUSH2 0x3948 DUP2 PUSH2 0x140 ADD MLOAD DUP4 PUSH2 0x780 ADD MLOAD PUSH0 ADD MLOAD PUSH2 0x515B JUMP JUMPDEST DUP3 PUSH2 0x7A0 ADD DUP2 DUP2 MSTORE POP POP PUSH2 0x3967 DUP3 PUSH2 0x780 ADD MLOAD PUSH0 ADD MLOAD CALLVALUE EQ PUSH1 0x3C PUSH2 0x4D01 JUMP JUMPDEST PUSH2 0x3A0B DUP2 PUSH2 0x120 ADD MLOAD PUSH1 0x1 PUSH1 0x40 MLOAD DUP1 PUSH1 0x60 ADD PUSH1 0x40 MSTORE DUP1 PUSH2 0x39B3 DUP7 PUSH2 0x120 ADD MLOAD PUSH1 0x1 PUSH1 0x2 DUP2 LT PUSH2 0x3999 JUMPI PUSH2 0x3998 PUSH2 0x73F5 JUMP JUMPDEST JUMPDEST PUSH1 0x20 MUL ADD MLOAD PUSH0 ADD MLOAD DUP9 PUSH2 0x780 ADD MLOAD PUSH1 0x20 ADD MLOAD PUSH0 ADD MLOAD PUSH2 0x515B JUMP JUMPDEST DUP2 MSTORE PUSH1 0x20 ADD DUP6 PUSH2 0x120 ADD MLOAD PUSH1 0x1 PUSH1 0x2 DUP2 LT PUSH2 0x39D1 JUMPI PUSH2 0x39D0 PUSH2 0x73F5 JUMP JUMPDEST JUMPDEST PUSH1 0x20 MUL ADD MLOAD PUSH1 0x20 ADD MLOAD DUP2 MSTORE PUSH1 0x20 ADD DUP6 PUSH2 0x120 ADD MLOAD PUSH1 0x1 PUSH1 0x2 DUP2 LT PUSH2 0x39F8 JUMPI PUSH2 0x39F7 PUSH2 0x73F5 JUMP JUMPDEST JUMPDEST PUSH1 0x20 MUL ADD MLOAD PUSH1 0x40 ADD MLOAD ISZERO ISZERO DUP2 MSTORE POP PUSH2 0x4D6B JUMP JUMPDEST DUP3 PUSH2 0x7C0 ADD DUP2 SWAP1 MSTORE POP PUSH2 0x3A39 PUSH2 0x3A32 CALLER DUP4 PUSH1 0x80 ADD MLOAD DUP6 PUSH2 0x780 ADD MLOAD PUSH1 0x20 ADD MLOAD PUSH0 ADD MLOAD PUSH2 0x4DE2 JUMP JUMPDEST PUSH1 0x3D PUSH2 0x4D01 JUMP JUMPDEST DUP2 PUSH2 0x6C0 ADD MLOAD PUSH0 ADD MLOAD PUSH0 ADD MLOAD DUP3 PUSH2 0x7E0 ADD MLOAD PUSH0 ADD DUP2 DUP2 MSTORE POP POP CALLER DUP3 PUSH2 0x7E0 ADD MLOAD PUSH1 0x20 ADD SWAP1 PUSH20 0xFFFFFFFFFFFFFFFFFFFFFFFFFFFFFFFFFFFFFFFF AND SWAP1 DUP2 PUSH20 0xFFFFFFFFFFFFFFFFFFFFFFFFFFFFFFFFFFFFFFFF AND DUP2 MSTORE POP POP DUP1 PUSH2 0x100 ADD MLOAD PUSH2 0x120 ADD MLOAD DUP3 PUSH2 0x7E0 ADD MLOAD PUSH1 0x40 ADD DUP2 DUP2 MSTORE POP POP DUP2 PUSH2 0x6E0 ADD MLOAD DUP3 PUSH2 0x7E0 ADD MLOAD PUSH1 0x60 ADD SWAP1 ISZERO ISZERO SWAP1 DUP2 ISZERO ISZERO DUP2 MSTORE POP POP PUSH0 DUP3 PUSH2 0x7E0 ADD MLOAD PUSH1 0x80 ADD SWAP1 ISZERO ISZERO SWAP1 DUP2 ISZERO ISZERO DUP2 MSTORE POP POP PUSH1 0x1 PUSH1 0x5 PUSH0 DUP4 PUSH2 0x100 ADD MLOAD PUSH2 0x120 ADD MLOAD DUP2 MSTORE PUSH1 0x20 ADD SWAP1 DUP2 MSTORE PUSH1 0x20 ADD PUSH0 KECCAK256 PUSH0 ADD PUSH0 PUSH2 0x100 EXP DUP2 SLOAD DUP2 PUSH1 0xFF MUL NOT AND SWAP1 DUP4 PUSH1 0x1 DUP2 GT ISZERO PUSH2 0x3B17 JUMPI PUSH2 0x3B16 PUSH2 0x6432 JUMP JUMPDEST JUMPDEST MUL OR SWAP1 SSTORE POP DUP2 PUSH2 0x7E0 ADD MLOAD PUSH1 0x5 PUSH0 DUP4 PUSH2 0x100 ADD MLOAD PUSH2 0x120 ADD MLOAD DUP2 MSTORE PUSH1 0x20 ADD SWAP1 DUP2 MSTORE PUSH1 0x20 ADD PUSH0 KECCAK256 PUSH1 0x1 ADD PUSH0 DUP3 ADD MLOAD DUP2 PUSH0 ADD SSTORE PUSH1 0x20 DUP3 ADD MLOAD DUP2 PUSH1 0x1 ADD PUSH0 PUSH2 0x100 EXP DUP2 SLOAD DUP2 PUSH20 0xFFFFFFFFFFFFFFFFFFFFFFFFFFFFFFFFFFFFFFFF MUL NOT AND SWAP1 DUP4 PUSH20 0xFFFFFFFFFFFFFFFFFFFFFFFFFFFFFFFFFFFFFFFF AND MUL OR SWAP1 SSTORE POP PUSH1 0x40 DUP3 ADD MLOAD DUP2 PUSH1 0x2 ADD SSTORE PUSH1 0x60 DUP3 ADD MLOAD DUP2 PUSH1 0x3 ADD PUSH0 PUSH2 0x100 EXP DUP2 SLOAD DUP2 PUSH1 0xFF MUL NOT AND SWAP1 DUP4 ISZERO ISZERO MUL OR SWAP1 SSTORE POP PUSH1 0x80 DUP3 ADD MLOAD DUP2 PUSH1 0x3 ADD PUSH1 0x1 PUSH2 0x100 EXP DUP2 SLOAD DUP2 PUSH1 0xFF MUL NOT AND SWAP1 DUP4 ISZERO ISZERO MUL OR SWAP1 SSTORE POP SWAP1 POP POP PUSH32 0x95F86BBDB99D0B1957108A116C8406DE0CE2F4E63D707DF414E5C4E0F84343A1 DUP3 PUSH2 0x7E0 ADD MLOAD PUSH1 0x40 MLOAD PUSH2 0x3C0E SWAP2 SWAP1 PUSH2 0x6613 JUMP JUMPDEST PUSH1 0x40 MLOAD DUP1 SWAP2 SUB SWAP1 LOG1 DUP2 PUSH2 0x7E0 ADD MLOAD DUP4 PUSH2 0x140 ADD DUP2 SWAP1 MSTORE POP PUSH2 0x3C3A DUP2 PUSH2 0x100 ADD MLOAD PUSH2 0x120 ADD MLOAD PUSH1 0x1 PUSH2 0x5167 JUMP JUMPDEST DUP3 PUSH2 0x800 ADD DUP2 DUP2 MSTORE POP POP PUSH2 0x3C58 DUP2 PUSH2 0x100 ADD MLOAD PUSH1 0x20 ADD MLOAD PUSH1 0x1 PUSH2 0x5167 JUMP JUMPDEST DUP3 PUSH2 0x820 ADD DUP2 DUP2 MSTORE POP POP DUP2 PUSH2 0x6E0 ADD MLOAD ISZERO PUSH2 0x3F0C JUMPI DUP1 PUSH2 0x100 ADD MLOAD PUSH0 ADD MLOAD DUP3 PUSH2 0x840 ADD MLOAD PUSH0 ADD DUP2 SWAP1 MSTORE POP DUP2 PUSH2 0x820 ADD MLOAD DUP3 PUSH2 0x840 ADD MLOAD PUSH1 0x20 ADD DUP2 DUP2 MSTORE POP POP DUP1 PUSH2 0x160 ADD MLOAD DUP3 PUSH2 0x840 ADD MLOAD PUSH1 0x40 ADD DUP2 SWAP1 MSTORE POP DUP1 PUSH2 0x100 ADD MLOAD PUSH1 0x60 ADD MLOAD DUP3 PUSH2 0x840 ADD MLOAD PUSH1 0x60 ADD SWAP1 ISZERO ISZERO SWAP1 DUP2 ISZERO ISZERO DUP2 MSTORE POP POP PUSH1 0x1 DUP3 PUSH2 0x840 ADD MLOAD PUSH1 0x80 ADD SWAP1 ISZERO ISZERO SWAP1 DUP2 ISZERO ISZERO DUP2 MSTORE POP POP DUP1 PUSH2 0x180 ADD MLOAD DUP3 PUSH2 0x840 ADD MLOAD PUSH1 0xA0 ADD DUP2 SWAP1 MSTORE POP DUP1 PUSH2 0x100 ADD MLOAD PUSH1 0xC0 ADD MLOAD DUP3 PUSH2 0x840 ADD MLOAD PUSH1 0xC0 ADD SWAP1 ISZERO ISZERO SWAP1 DUP2 ISZERO ISZERO DUP2 MSTORE POP POP PUSH2 0x3D2C DUP2 PUSH2 0x100 ADD MLOAD PUSH1 0xE0 ADD MLOAD DUP4 PUSH2 0x6C0 ADD MLOAD PUSH0 ADD MLOAD PUSH0 ADD MLOAD PUSH2 0x5167 JUMP JUMPDEST DUP3 PUSH2 0x840 ADD MLOAD PUSH1 0xE0 ADD DUP2 DUP2 MSTORE POP POP DUP1 PUSH2 0x100 ADD MLOAD PUSH2 0x100 ADD MLOAD DUP3 PUSH2 0x840 ADD MLOAD PUSH2 0x100 ADD DUP2 DUP2 MSTORE POP POP DUP2 PUSH2 0x800 ADD MLOAD DUP3 PUSH2 0x840 ADD MLOAD PUSH2 0x120 ADD DUP2 DUP2 MSTORE POP POP PUSH2 0x3D71 PUSH2 0x5A3E JUMP JUMPDEST DUP2 PUSH0 ADD MLOAD DUP2 PUSH0 ADD SWAP1 PUSH20 0xFFFFFFFFFFFFFFFFFFFFFFFFFFFFFFFFFFFFFFFF AND SWAP1 DUP2 PUSH20 0xFFFFFFFFFFFFFFFFFFFFFFFFFFFFFFFFFFFFFFFF AND DUP2 MSTORE POP POP DUP2 PUSH1 0x20 ADD MLOAD DUP2 PUSH1 0x20 ADD DUP2 SWAP1 MSTORE POP DUP2 PUSH1 0x40 ADD MLOAD DUP2 PUSH1 0x40 ADD SWAP1 PUSH20 0xFFFFFFFFFFFFFFFFFFFFFFFFFFFFFFFFFFFFFFFF AND SWAP1 DUP2 PUSH20 0xFFFFFFFFFFFFFFFFFFFFFFFFFFFFFFFFFFFFFFFF AND DUP2 MSTORE POP POP DUP2 PUSH1 0x60 ADD MLOAD DUP2 PUSH1 0x60 ADD SWAP1 PUSH20 0xFFFFFFFFFFFFFFFFFFFFFFFFFFFFFFFFFFFFFFFF AND SWAP1 DUP2 PUSH20 0xFFFFFFFFFFFFFFFFFFFFFFFFFFFFFFFFFFFFFFFF AND DUP2 MSTORE POP POP DUP2 PUSH1 0x80 ADD MLOAD DUP2 PUSH1 0x80 ADD SWAP1 PUSH20 0xFFFFFFFFFFFFFFFFFFFFFFFFFFFFFFFFFFFFFFFF AND SWAP1 DUP2 PUSH20 0xFFFFFFFFFFFFFFFFFFFFFFFFFFFFFFFFFFFFFFFF AND DUP2 MSTORE POP POP DUP2 PUSH1 0xA0 ADD MLOAD DUP2 PUSH1 0xA0 ADD DUP2 SWAP1 MSTORE POP DUP2 PUSH1 0xC0 ADD MLOAD DUP2 PUSH1 0xC0 ADD SWAP1 PUSH20 0xFFFFFFFFFFFFFFFFFFFFFFFFFFFFFFFFFFFFFFFF AND SWAP1 DUP2 PUSH20 0xFFFFFFFFFFFFFFFFFFFFFFFFFFFFFFFFFFFFFFFF AND DUP2 MSTORE POP POP DUP2 PUSH1 0xE0 ADD MLOAD DUP2 PUSH1 0xE0 ADD DUP2 DUP2 MSTORE POP POP DUP3 PUSH2 0x840 ADD MLOAD DUP2 PUSH2 0x100 ADD DUP2 SWAP1 MSTORE POP NUMBER DUP2 PUSH2 0x120 ADD DUP2 DUP2 MSTORE POP POP DUP3 PUSH2 0x7C0 ADD MLOAD DUP2 PUSH2 0x140 ADD DUP2 SWAP1 MSTORE POP DUP3 PUSH2 0x7A0 ADD MLOAD DUP2 PUSH2 0x160 ADD DUP2 DUP2 MSTORE POP POP PUSH2 0x3F06 DUP2 DUP6 PUSH2 0x4DF8 JUMP JUMPDEST POP PUSH2 0x41A7 JUMP JUMPDEST DUP1 PUSH2 0x100 ADD MLOAD PUSH0 ADD MLOAD DUP3 PUSH2 0x860 ADD MLOAD PUSH0 ADD DUP2 SWAP1 MSTORE POP DUP2 PUSH2 0x820 ADD MLOAD DUP3 PUSH2 0x860 ADD MLOAD PUSH1 0x20 ADD DUP2 DUP2 MSTORE POP POP DUP1 PUSH2 0x160 ADD MLOAD DUP3 PUSH2 0x860 ADD MLOAD PUSH1 0x40 ADD DUP2 SWAP1 MSTORE POP DUP1 PUSH2 0x100 ADD MLOAD PUSH1 0x60 ADD MLOAD DUP3 PUSH2 0x860 ADD MLOAD PUSH1 0x60 ADD SWAP1 ISZERO ISZERO SWAP1 DUP2 ISZERO ISZERO DUP2 MSTORE POP POP PUSH1 0x1 DUP3 PUSH2 0x860 ADD MLOAD PUSH1 0x80 ADD SWAP1 ISZERO ISZERO SWAP1 DUP2 ISZERO ISZERO DUP2 MSTORE POP POP DUP1 PUSH2 0x180 ADD MLOAD DUP3 PUSH2 0x860 ADD MLOAD PUSH1 0xA0 ADD DUP2 SWAP1 MSTORE POP DUP1 PUSH2 0x100 ADD MLOAD PUSH1 0xC0 ADD MLOAD DUP3 PUSH2 0x860 ADD MLOAD PUSH1 0xC0 ADD SWAP1 ISZERO ISZERO SWAP1 DUP2 ISZERO ISZERO DUP2 MSTORE POP POP DUP1 PUSH2 0x100 ADD MLOAD PUSH1 0xE0 ADD MLOAD DUP3 PUSH2 0x860 ADD MLOAD PUSH1 0xE0 ADD DUP2 DUP2 MSTORE POP POP PUSH2 0x3FE4 DUP2 PUSH2 0x100 ADD MLOAD PUSH2 0x100 ADD MLOAD DUP4 PUSH2 0x6C0 ADD MLOAD PUSH0 ADD MLOAD PUSH0 ADD MLOAD PUSH2 0x5167 JUMP JUMPDEST DUP3 PUSH2 0x860 ADD MLOAD PUSH2 0x100 ADD DUP2 DUP2 MSTORE POP POP DUP2 PUSH2 0x800 ADD MLOAD DUP3 PUSH2 0x860 ADD MLOAD PUSH2 0x120 ADD DUP2 DUP2 MSTORE POP POP PUSH2 0x4010 PUSH2 0x5A3E JUMP JUMPDEST DUP2 PUSH0 ADD MLOAD DUP2 PUSH0 ADD SWAP1 PUSH20 0xFFFFFFFFFFFFFFFFFFFFFFFFFFFFFFFFFFFFFFFF AND SWAP1 DUP2 PUSH20 0xFFFFFFFFFFFFFFFFFFFFFFFFFFFFFFFFFFFFFFFF AND DUP2 MSTORE POP POP DUP2 PUSH1 0x20 ADD MLOAD DUP2 PUSH1 0x20 ADD DUP2 SWAP1 MSTORE POP DUP2 PUSH1 0x40 ADD MLOAD DUP2 PUSH1 0x40 ADD SWAP1 PUSH20 0xFFFFFFFFFFFFFFFFFFFFFFFFFFFFFFFFFFFFFFFF AND SWAP1 DUP2 PUSH20 0xFFFFFFFFFFFFFFFFFFFFFFFFFFFFFFFFFFFFFFFF AND DUP2 MSTORE POP POP DUP2 PUSH1 0x60 ADD MLOAD DUP2 PUSH1 0x60 ADD SWAP1 PUSH20 0xFFFFFFFFFFFFFFFFFFFFFFFFFFFFFFFFFFFFFFFF AND SWAP1 DUP2 PUSH20 0xFFFFFFFFFFFFFFFFFFFFFFFFFFFFFFFFFFFFFFFF AND DUP2 MSTORE POP POP DUP2 PUSH1 0x80 ADD MLOAD DUP2 PUSH1 0x80 ADD SWAP1 PUSH20 0xFFFFFFFFFFFFFFFFFFFFFFFFFFFFFFFFFFFFFFFF AND SWAP1 DUP2 PUSH20 0xFFFFFFFFFFFFFFFFFFFFFFFFFFFFFFFFFFFFFFFF AND DUP2 MSTORE POP POP DUP2 PUSH1 0xA0 ADD MLOAD DUP2 PUSH1 0xA0 ADD DUP2 SWAP1 MSTORE POP DUP2 PUSH1 0xC0 ADD MLOAD DUP2 PUSH1 0xC0 ADD SWAP1 PUSH20 0xFFFFFFFFFFFFFFFFFFFFFFFFFFFFFFFFFFFFFFFF AND SWAP1 DUP2 PUSH20 0xFFFFFFFFFFFFFFFFFFFFFFFFFFFFFFFFFFFFFFFF AND DUP2 MSTORE POP POP DUP2 PUSH1 0xE0 ADD MLOAD DUP2 PUSH1 0xE0 ADD DUP2 DUP2 MSTORE POP POP DUP3 PUSH2 0x860 ADD MLOAD DUP2 PUSH2 0x100 ADD DUP2 SWAP1 MSTORE POP NUMBER DUP2 PUSH2 0x120 ADD DUP2 DUP2 MSTORE POP POP DUP3 PUSH2 0x7C0 ADD MLOAD DUP2 PUSH2 0x140 ADD DUP2 SWAP1 MSTORE POP DUP3 PUSH2 0x7A0 ADD MLOAD DUP2 PUSH2 0x160 ADD DUP2 DUP2 MSTORE POP POP PUSH2 0x41A5 DUP2 DUP6 PUSH2 0x4DF8 JUMP JUMPDEST POP JUMPDEST JUMPDEST JUMPDEST JUMPDEST JUMPDEST JUMPDEST JUMPDEST JUMPDEST POP POP POP POP JUMP JUMPDEST PUSH2 0x41BC PUSH2 0x5B1D JUMP JUMPDEST PUSH2 0x41CB PUSH1 0x1 PUSH0 SLOAD EQ PUSH1 0x11 PUSH2 0x4D01 JUMP JUMPDEST PUSH0 PUSH1 0x2 DUP1 SLOAD PUSH2 0x41D9 SWAP1 PUSH2 0x6C21 JUMP JUMPDEST DUP1 PUSH1 0x1F ADD PUSH1 0x20 DUP1 SWAP2 DIV MUL PUSH1 0x20 ADD PUSH1 0x40 MLOAD SWAP1 DUP2 ADD PUSH1 0x40 MSTORE DUP1 SWAP3 SWAP2 SWAP1 DUP2 DUP2 MSTORE PUSH1 0x20 ADD DUP3 DUP1 SLOAD PUSH2 0x4205 SWAP1 PUSH2 0x6C21 JUMP JUMPDEST DUP1 ISZERO PUSH2 0x4250 JUMPI DUP1 PUSH1 0x1F LT PUSH2 0x4227 JUMPI PUSH2 0x100 DUP1 DUP4 SLOAD DIV MUL DUP4 MSTORE SWAP2 PUSH1 0x20 ADD SWAP2 PUSH2 0x4250 JUMP JUMPDEST DUP3 ADD SWAP2 SWAP1 PUSH0 MSTORE PUSH1 0x20 PUSH0 KECCAK256 SWAP1 JUMPDEST DUP2 SLOAD DUP2 MSTORE SWAP1 PUSH1 0x1 ADD SWAP1 PUSH1 0x20 ADD DUP1 DUP4 GT PUSH2 0x4233 JUMPI DUP3 SWAP1 SUB PUSH1 0x1F AND DUP3 ADD SWAP2 JUMPDEST POP POP POP POP POP DUP1 PUSH1 0x20 ADD SWAP1 MLOAD DUP2 ADD SWAP1 PUSH2 0x4268 SWAP2 SWAP1 PUSH2 0x77AC JUMP JUMPDEST SWAP1 POP PUSH2 0x4284 PUSH1 0x4 PUSH0 SWAP1 SLOAD SWAP1 PUSH2 0x100 EXP SWAP1 DIV PUSH1 0xFF AND ISZERO PUSH1 0x12 PUSH2 0x4D01 JUMP JUMPDEST PUSH32 0xCF0E8BEC53CD91FA87ECF8F6F405AC75914A22ACDB92A3553EE5C294FEE81596 CALLER DUP6 PUSH1 0x40 MLOAD PUSH2 0x42B5 SWAP3 SWAP2 SWAP1 PUSH2 0x73CE JUMP JUMPDEST PUSH1 0x40 MLOAD DUP1 SWAP2 SUB SWAP1 LOG1 PUSH2 0x42DC PUSH0 DUP6 PUSH0 ADD MLOAD EQ DUP1 PUSH2 0x42D5 JUMPI POP DUP5 PUSH0 ADD MLOAD PUSH1 0x1 SLOAD EQ JUMPDEST PUSH1 0x13 PUSH2 0x4D01 JUMP JUMPDEST PUSH2 0x42E9 PUSH0 CALLVALUE EQ PUSH1 0x14 PUSH2 0x4D01 JUMP JUMPDEST PUSH2 0x4381 DUP2 PUSH1 0xE0 ADD MLOAD PUSH0 PUSH1 0x40 MLOAD DUP1 PUSH1 0x60 ADD PUSH1 0x40 MSTORE DUP1 PUSH2 0x432D DUP7 PUSH1 0xE0 ADD MLOAD PUSH0 PUSH1 0x2 DUP2 LT PUSH2 0x4317 JUMPI PUSH2 0x4316 PUSH2 0x73F5 JUMP JUMPDEST JUMPDEST PUSH1 0x20 MUL ADD MLOAD PUSH0 ADD MLOAD DUP8 PUSH1 0x20 ADD MLOAD PUSH1 0x20 ADD MLOAD PUSH2 0x515B JUMP JUMPDEST DUP2 MSTORE PUSH1 0x20 ADD DUP6 PUSH1 0xE0 ADD MLOAD PUSH0 PUSH1 0x2 DUP2 LT PUSH2 0x4349 JUMPI PUSH2 0x4348 PUSH2 0x73F5 JUMP JUMPDEST JUMPDEST PUSH1 0x20 MUL ADD MLOAD PUSH1 0x20 ADD MLOAD DUP2 MSTORE PUSH1 0x20 ADD DUP6 PUSH1 0xE0 ADD MLOAD PUSH0 PUSH1 0x2 DUP2 LT PUSH2 0x436E JUMPI PUSH2 0x436D PUSH2 0x73F5 JUMP JUMPDEST JUMPDEST PUSH1 0x20 MUL ADD MLOAD PUSH1 0x40 ADD MLOAD ISZERO ISZERO DUP2 MSTORE POP PUSH2 0x4D6B JUMP JUMPDEST DUP3 PUSH0 ADD DUP2 SWAP1 MSTORE POP PUSH2 0x43A9 PUSH2 0x43A2 CALLER DUP4 PUSH1 0x40 ADD MLOAD DUP5 PUSH1 0x20 ADD MLOAD PUSH1 0x20 ADD MLOAD PUSH2 0x4DE2 JUMP JUMPDEST PUSH1 0x15 PUSH2 0x4D01 JUMP JUMPDEST PUSH2 0x43E5 CALLER PUSH20 0xFFFFFFFFFFFFFFFFFFFFFFFFFFFFFFFFFFFFFFFF AND DUP3 PUSH0 ADD MLOAD PUSH20 0xFFFFFFFFFFFFFFFFFFFFFFFFFFFFFFFFFFFFFFFF AND EQ PUSH1 0x16 PUSH2 0x4D01 JUMP JUMPDEST PUSH0 DUP3 PUSH1 0x20 ADD MLOAD PUSH0 ADD SWAP1 PUSH1 0x1 DUP2 GT ISZERO PUSH2 0x4400 JUMPI PUSH2 0x43FF PUSH2 0x6432 JUMP JUMPDEST JUMPDEST SWAP1 DUP2 PUSH1 0x1 DUP2 GT ISZERO PUSH2 0x4414 JUMPI PUSH2 0x4413 PUSH2 0x6432 JUMP JUMPDEST JUMPDEST DUP2 MSTORE POP POP PUSH0 DUP3 PUSH1 0x20 ADD MLOAD PUSH1 0x20 ADD SWAP1 ISZERO ISZERO SWAP1 DUP2 ISZERO ISZERO DUP2 MSTORE POP POP DUP2 PUSH1 0x20 ADD MLOAD DUP3 PUSH1 0x40 ADD MLOAD PUSH0 ADD DUP2 SWAP1 MSTORE POP PUSH0 DUP3 PUSH1 0x40 ADD MLOAD PUSH1 0x20 ADD DUP2 DUP2 MSTORE POP POP DUP1 PUSH1 0x60 ADD MLOAD DUP3 PUSH1 0x40 ADD MLOAD PUSH1 0x40 ADD DUP2 SWAP1 MSTORE POP PUSH1 0x1 DUP3 PUSH1 0x40 ADD MLOAD PUSH1 0x60 ADD SWAP1 ISZERO ISZERO SWAP1 DUP2 ISZERO ISZERO DUP2 MSTORE POP POP PUSH0 DUP3 PUSH1 0x40 ADD MLOAD PUSH1 0x80 ADD SWAP1 ISZERO ISZERO SWAP1 DUP2 ISZERO ISZERO DUP2 MSTORE POP POP DUP1 PUSH1 0x80 ADD MLOAD DUP3 PUSH1 0x40 ADD MLOAD PUSH1 0xA0 ADD DUP2 SWAP1 MSTORE POP PUSH0 DUP3 PUSH1 0x40 ADD MLOAD PUSH1 0xC0 ADD SWAP1 ISZERO ISZERO SWAP1 DUP2 ISZERO ISZERO DUP2 MSTORE POP POP PUSH0 DUP3 PUSH1 0x40 ADD MLOAD PUSH1 0xE0 ADD DUP2 DUP2 MSTORE POP POP DUP2 PUSH0 ADD MLOAD PUSH1 0x1 PUSH1 0x2 DUP2 LT PUSH2 0x44CE JUMPI PUSH2 0x44CD PUSH2 0x73F5 JUMP JUMPDEST JUMPDEST PUSH1 0x20 MUL ADD MLOAD PUSH0 ADD MLOAD DUP3 PUSH1 0x40 ADD MLOAD PUSH2 0x100 ADD DUP2 DUP2 MSTORE POP POP PUSH0 DUP3 PUSH1 0x40 ADD MLOAD PUSH2 0x120 ADD DUP2 DUP2 MSTORE POP POP PUSH2 0x44FB PUSH2 0x5A3E JUMP JUMPDEST DUP2 PUSH0 ADD MLOAD DUP2 PUSH0 ADD SWAP1 PUSH20 0xFFFFFFFFFFFFFFFFFFFFFFFFFFFFFFFFFFFFFFFF AND SWAP1 DUP2 PUSH20 0xFFFFFFFFFFFFFFFFFFFFFFFFFFFFFFFFFFFFFFFF AND DUP2 MSTORE POP POP DUP2 PUSH1 0x20 ADD MLOAD DUP2 PUSH1 0x20 ADD DUP2 SWAP1 MSTORE POP DUP2 PUSH1 0x40 ADD MLOAD DUP2 PUSH1 0x40 ADD SWAP1 PUSH20 0xFFFFFFFFFFFFFFFFFFFFFFFFFFFFFFFFFFFFFFFF AND SWAP1 DUP2 PUSH20 0xFFFFFFFFFFFFFFFFFFFFFFFFFFFFFFFFFFFFFFFF AND DUP2 MSTORE POP POP DUP2 PUSH1 0xA0 ADD MLOAD DUP2 PUSH1 0x60 ADD SWAP1 PUSH20 0xFFFFFFFFFFFFFFFFFFFFFFFFFFFFFFFFFFFFFFFF AND SWAP1 DUP2 PUSH20 0xFFFFFFFFFFFFFFFFFFFFFFFFFFFFFFFFFFFFFFFF AND DUP2 MSTORE POP POP DUP2 PUSH1 0xC0 ADD MLOAD DUP2 PUSH1 0x80 ADD SWAP1 PUSH20 0xFFFFFFFFFFFFFFFFFFFFFFFFFFFFFFFFFFFFFFFF AND SWAP1 DUP2 PUSH20 0xFFFFFFFFFFFFFFFFFFFFFFFFFFFFFFFFFFFFFFFF AND DUP2 MSTORE POP POP DUP2 PUSH2 0x100 ADD MLOAD DUP2 PUSH1 0xA0 ADD DUP2 SWAP1 MSTORE POP CALLER DUP2 PUSH1 0xC0 ADD SWAP1 PUSH20 0xFFFFFFFFFFFFFFFFFFFFFFFFFFFFFFFFFFFFFFFF AND SWAP1 DUP2 PUSH20 0xFFFFFFFFFFFFFFFFFFFFFFFFFFFFFFFFFFFFFFFF AND DUP2 MSTORE POP POP DUP2 PUSH1 0x20 ADD MLOAD PUSH1 0x20 ADD MLOAD DUP2 PUSH1 0xE0 ADD DUP2 DUP2 MSTORE POP POP DUP3 PUSH1 0x40 ADD MLOAD DUP2 PUSH2 0x100 ADD DUP2 SWAP1 MSTORE POP NUMBER DUP2 PUSH2 0x120 ADD DUP2 DUP2 MSTORE POP POP DUP3 PUSH0 ADD MLOAD DUP2 PUSH2 0x140 ADD DUP2 SWAP1 MSTORE POP PUSH0 DUP2 PUSH2 0x160 ADD DUP2 DUP2 MSTORE POP POP PUSH2 0x4689 DUP2 DUP6 PUSH2 0x4DF8 JUMP JUMPDEST POP POP POP POP POP JUMP JUMPDEST PUSH2 0x4698 PUSH2 0x5B50 JUMP JUMPDEST DUP3 DUP2 PUSH0 ADD MLOAD PUSH0 ADD DUP2 SWAP1 MSTORE POP PUSH0 DUP2 PUSH1 0x20 ADD MLOAD PUSH0 ADD SWAP1 PUSH1 0x6 DUP2 GT ISZERO PUSH2 0x46BE JUMPI PUSH2 0x46BD PUSH2 0x6432 JUMP JUMPDEST JUMPDEST SWAP1 DUP2 PUSH1 0x6 DUP2 GT ISZERO PUSH2 0x46D2 JUMPI PUSH2 0x46D1 PUSH2 0x6432 JUMP JUMPDEST JUMPDEST DUP2 MSTORE POP POP DUP1 PUSH0 ADD MLOAD DUP2 PUSH1 0x20 ADD MLOAD PUSH1 0x20 ADD DUP2 SWAP1 MSTORE POP PUSH2 0x46EE PUSH2 0x564D JUMP JUMPDEST PUSH0 DUP2 PUSH0 ADD DUP2 DUP2 MSTORE POP POP DUP2 PUSH1 0x20 ADD MLOAD DUP2 PUSH1 0x20 ADD DUP2 SWAP1 MSTORE POP PUSH2 0x470E DUP2 DUP5 PUSH2 0xD78 JUMP JUMPDEST POP POP POP POP JUMP JUMPDEST PUSH2 0x471C PUSH2 0x5B76 JUMP JUMPDEST DUP3 DUP2 PUSH0 ADD MLOAD PUSH0 ADD DUP2 DUP2 MSTORE POP POP PUSH1 0x1 DUP2 PUSH1 0x20 ADD MLOAD PUSH0 ADD SWAP1 PUSH1 0x6 DUP2 GT ISZERO PUSH2 0x4744 JUMPI PUSH2 0x4743 PUSH2 0x6432 JUMP JUMPDEST JUMPDEST SWAP1 DUP2 PUSH1 0x6 DUP2 GT ISZERO PUSH2 0x4758 JUMPI PUSH2 0x4757 PUSH2 0x6432 JUMP JUMPDEST JUMPDEST DUP2 MSTORE POP POP DUP1 PUSH0 ADD MLOAD DUP2 PUSH1 0x20 ADD MLOAD PUSH1 0x40 ADD DUP2 SWAP1 MSTORE POP PUSH2 0x4774 PUSH2 0x564D JUMP JUMPDEST PUSH0 DUP2 PUSH0 ADD DUP2 DUP2 MSTORE POP POP DUP2 PUSH1 0x20 ADD MLOAD DUP2 PUSH1 0x20 ADD DUP2 SWAP1 MSTORE POP PUSH2 0x4794 DUP2 DUP5 PUSH2 0xD78 JUMP JUMPDEST POP POP POP POP JUMP JUMPDEST PUSH2 0x47A2 PUSH2 0x5B9C JUMP JUMPDEST DUP3 DUP2 PUSH0 ADD MLOAD PUSH0 ADD DUP2 SWAP1 MSTORE POP PUSH1 0x3 DUP2 PUSH1 0x20 ADD MLOAD PUSH0 ADD SWAP1 PUSH1 0x6 DUP2 GT ISZERO PUSH2 0x47C9 JUMPI PUSH2 0x47C8 PUSH2 0x6432 JUMP JUMPDEST JUMPDEST SWAP1 DUP2 PUSH1 0x6 DUP2 GT ISZERO PUSH2 0x47DD JUMPI PUSH2 0x47DC PUSH2 0x6432 JUMP JUMPDEST JUMPDEST DUP2 MSTORE POP POP DUP1 PUSH0 ADD MLOAD DUP2 PUSH1 0x20 ADD MLOAD PUSH1 0x80 ADD DUP2 SWAP1 MSTORE POP PUSH2 0x47F9 PUSH2 0x564D JUMP JUMPDEST PUSH0 DUP2 PUSH0 ADD DUP2 DUP2 MSTORE POP POP DUP2 PUSH1 0x20 ADD MLOAD DUP2 PUSH1 0x20 ADD DUP2 SWAP1 MSTORE POP PUSH2 0x4819 DUP2 DUP5 PUSH2 0xD78 JUMP JUMPDEST POP POP POP POP JUMP JUMPDEST PUSH2 0x4827 PUSH2 0x5BC2 JUMP JUMPDEST DUP3 DUP2 PUSH0 ADD MLOAD PUSH0 ADD DUP2 DUP2 MSTORE POP POP PUSH1 0x5 DUP2 PUSH1 0x20 ADD MLOAD PUSH0 ADD SWAP1 PUSH1 0x6 DUP2 GT ISZERO PUSH2 0x484F JUMPI PUSH2 0x484E PUSH2 0x6432 JUMP JUMPDEST JUMPDEST SWAP1 DUP2 PUSH1 0x6 DUP2 GT ISZERO PUSH2 0x4863 JUMPI PUSH2 0x4862 PUSH2 0x6432 JUMP JUMPDEST JUMPDEST DUP2 MSTORE POP POP DUP1 PUSH0 ADD MLOAD DUP2 PUSH1 0x20 ADD MLOAD PUSH1 0xC0 ADD DUP2 SWAP1 MSTORE POP PUSH2 0x487F PUSH2 0x564D JUMP JUMPDEST PUSH0 DUP2 PUSH0 ADD DUP2 DUP2 MSTORE POP POP DUP2 PUSH1 0x20 ADD MLOAD DUP2 PUSH1 0x20 ADD DUP2 SWAP1 MSTORE POP PUSH2 0x489F DUP2 DUP5 PUSH2 0xD78 JUMP JUMPDEST POP POP POP POP JUMP JUMPDEST PUSH1 0x5 PUSH0 SLOAD LT ISZERO PUSH2 0x4974 JUMPI PUSH2 0x48BE PUSH1 0x3 PUSH0 SLOAD EQ PUSH1 0xB PUSH2 0x4D01 JUMP JUMPDEST PUSH0 PUSH1 0x2 DUP1 SLOAD PUSH2 0x48CC SWAP1 PUSH2 0x6C21 JUMP JUMPDEST DUP1 PUSH1 0x1F ADD PUSH1 0x20 DUP1 SWAP2 DIV MUL PUSH1 0x20 ADD PUSH1 0x40 MLOAD SWAP1 DUP2 ADD PUSH1 0x40 MSTORE DUP1 SWAP3 SWAP2 SWAP1 DUP2 DUP2 MSTORE PUSH1 0x20 ADD DUP3 DUP1 SLOAD PUSH2 0x48F8 SWAP1 PUSH2 0x6C21 JUMP JUMPDEST DUP1 ISZERO PUSH2 0x4943 JUMPI DUP1 PUSH1 0x1F LT PUSH2 0x491A JUMPI PUSH2 0x100 DUP1 DUP4 SLOAD DIV MUL DUP4 MSTORE SWAP2 PUSH1 0x20 ADD SWAP2 PUSH2 0x4943 JUMP JUMPDEST DUP3 ADD SWAP2 SWAP1 PUSH0 MSTORE PUSH1 0x20 PUSH0 KECCAK256 SWAP1 JUMPDEST DUP2 SLOAD DUP2 MSTORE SWAP1 PUSH1 0x1 ADD SWAP1 PUSH1 0x20 ADD DUP1 DUP4 GT PUSH2 0x4926 JUMPI DUP3 SWAP1 SUB PUSH1 0x1F AND DUP3 ADD SWAP2 JUMPDEST POP POP POP POP POP DUP1 PUSH1 0x20 ADD SWAP1 MLOAD DUP2 ADD SWAP1 PUSH2 0x495B SWAP2 SWAP1 PUSH2 0x6FD8 JUMP JUMPDEST SWAP1 POP PUSH2 0x4966 DUP4 PUSH2 0x4B43 JUMP JUMPDEST DUP3 PUSH1 0xE0 ADD DUP2 SWAP1 MSTORE POP POP PUSH2 0x4A35 JUMP JUMPDEST PUSH2 0x4983 PUSH1 0x5 PUSH0 SLOAD EQ PUSH1 0xC PUSH2 0x4D01 JUMP JUMPDEST PUSH0 PUSH1 0x2 DUP1 SLOAD PUSH2 0x4991 SWAP1 PUSH2 0x6C21 JUMP JUMPDEST DUP1 PUSH1 0x1F ADD PUSH1 0x20 DUP1 SWAP2 DIV MUL PUSH1 0x20 ADD PUSH1 0x40 MLOAD SWAP1 DUP2 ADD PUSH1 0x40 MSTORE DUP1 SWAP3 SWAP2 SWAP1 DUP2 DUP2 MSTORE PUSH1 0x20 ADD DUP3 DUP1 SLOAD PUSH2 0x49BD SWAP1 PUSH2 0x6C21 JUMP JUMPDEST DUP1 ISZERO PUSH2 0x4A08 JUMPI DUP1 PUSH1 0x1F LT PUSH2 0x49DF JUMPI PUSH2 0x100 DUP1 DUP4 SLOAD DIV MUL DUP4 MSTORE SWAP2 PUSH1 0x20 ADD SWAP2 PUSH2 0x4A08 JUMP JUMPDEST DUP3 ADD SWAP2 SWAP1 PUSH0 MSTORE PUSH1 0x20 PUSH0 KECCAK256 SWAP1 JUMPDEST DUP2 SLOAD DUP2 MSTORE SWAP1 PUSH1 0x1 ADD SWAP1 PUSH1 0x20 ADD DUP1 DUP4 GT PUSH2 0x49EB JUMPI DUP3 SWAP1 SUB PUSH1 0x1F AND DUP3 ADD SWAP2 JUMPDEST POP POP POP POP POP DUP1 PUSH1 0x20 ADD SWAP1 MLOAD DUP2 ADD SWAP1 PUSH2 0x4A20 SWAP2 SWAP1 PUSH2 0x7368 JUMP JUMPDEST SWAP1 POP PUSH2 0x4A2B DUP4 PUSH2 0x4B43 JUMP JUMPDEST DUP3 PUSH1 0xE0 ADD DUP2 SWAP1 MSTORE POP POP JUMPDEST POP POP JUMP JUMPDEST PUSH2 0x4A41 PUSH2 0x5BE8 JUMP JUMPDEST DUP3 DUP2 PUSH0 ADD MLOAD PUSH0 ADD DUP2 SWAP1 MSTORE POP PUSH1 0x6 DUP2 PUSH1 0x20 ADD MLOAD PUSH0 ADD SWAP1 PUSH1 0x6 DUP2 GT ISZERO PUSH2 0x4A68 JUMPI PUSH2 0x4A67 PUSH2 0x6432 JUMP JUMPDEST JUMPDEST SWAP1 DUP2 PUSH1 0x6 DUP2 GT ISZERO PUSH2 0x4A7C JUMPI PUSH2 0x4A7B PUSH2 0x6432 JUMP JUMPDEST JUMPDEST DUP2 MSTORE POP POP DUP1 PUSH0 ADD MLOAD DUP2 PUSH1 0x20 ADD MLOAD PUSH1 0xE0 ADD DUP2 SWAP1 MSTORE POP PUSH2 0x4A98 PUSH2 0x564D JUMP JUMPDEST PUSH0 DUP2 PUSH0 ADD DUP2 DUP2 MSTORE POP POP DUP2 PUSH1 0x20 ADD MLOAD DUP2 PUSH1 0x20 ADD DUP2 SWAP1 MSTORE POP PUSH2 0x4AB8 DUP2 DUP5 PUSH2 0xD78 JUMP JUMPDEST POP POP POP POP JUMP JUMPDEST PUSH2 0x4AC6 PUSH2 0x5C0E JUMP JUMPDEST DUP3 DUP2 PUSH0 ADD MLOAD PUSH0 ADD DUP2 SWAP1 MSTORE POP PUSH1 0x2 DUP2 PUSH1 0x20 ADD MLOAD PUSH0 ADD SWAP1 PUSH1 0x6 DUP2 GT ISZERO PUSH2 0x4AED JUMPI PUSH2 0x4AEC PUSH2 0x6432 JUMP JUMPDEST JUMPDEST SWAP1 DUP2 PUSH1 0x6 DUP2 GT ISZERO PUSH2 0x4B01 JUMPI PUSH2 0x4B00 PUSH2 0x6432 JUMP JUMPDEST JUMPDEST DUP2 MSTORE POP POP DUP1 PUSH0 ADD MLOAD DUP2 PUSH1 0x20 ADD MLOAD PUSH1 0x60 ADD DUP2 SWAP1 MSTORE POP PUSH2 0x4B1D PUSH2 0x564D JUMP JUMPDEST PUSH0 DUP2 PUSH0 ADD DUP2 DUP2 MSTORE POP POP DUP2 PUSH1 0x20 ADD MLOAD DUP2 PUSH1 0x20 ADD DUP2 SWAP1 MSTORE POP PUSH2 0x4B3D DUP2 DUP5 PUSH2 0xD78 JUMP JUMPDEST POP POP POP POP JUMP JUMPDEST PUSH2 0x4B4B PUSH2 0x55AF JUMP JUMPDEST PUSH1 0x1 DUP1 DUP2 GT ISZERO PUSH2 0x4B5E JUMPI PUSH2 0x4B5D PUSH2 0x6432 JUMP JUMPDEST JUMPDEST PUSH1 0x5 PUSH0 DUP5 DUP2 MSTORE PUSH1 0x20 ADD SWAP1 DUP2 MSTORE PUSH1 0x20 ADD PUSH0 KECCAK256 PUSH0 ADD PUSH0 SWAP1 SLOAD SWAP1 PUSH2 0x100 EXP SWAP1 DIV PUSH1 0xFF AND PUSH1 0x1 DUP2 GT ISZERO PUSH2 0x4B90 JUMPI PUSH2 0x4B8F PUSH2 0x6432 JUMP JUMPDEST JUMPDEST SUB PUSH2 0x4CBC JUMPI PUSH1 0x5 PUSH0 DUP4 DUP2 MSTORE PUSH1 0x20 ADD SWAP1 DUP2 MSTORE PUSH1 0x20 ADD PUSH0 KECCAK256 PUSH1 0x40 MLOAD DUP1 PUSH1 0x60 ADD PUSH1 0x40 MSTORE SWAP1 DUP2 PUSH0 DUP3 ADD PUSH0 SWAP1 SLOAD SWAP1 PUSH2 0x100 EXP SWAP1 DIV PUSH1 0xFF AND PUSH1 0x1 DUP2 GT ISZERO PUSH2 0x4BD4 JUMPI PUSH2 0x4BD3 PUSH2 0x6432 JUMP JUMPDEST JUMPDEST PUSH1 0x1 DUP2 GT ISZERO PUSH2 0x4BE6 JUMPI PUSH2 0x4BE5 PUSH2 0x6432 JUMP JUMPDEST JUMPDEST DUP2 MSTORE PUSH1 0x20 ADD PUSH0 DUP3 ADD PUSH1 0x1 SWAP1 SLOAD SWAP1 PUSH2 0x100 EXP SWAP1 DIV PUSH1 0xFF AND ISZERO ISZERO ISZERO ISZERO DUP2 MSTORE PUSH1 0x20 ADD PUSH1 0x1 DUP3 ADD PUSH1 0x40 MLOAD DUP1 PUSH1 0xA0 ADD PUSH1 0x40 MSTORE SWAP1 DUP2 PUSH0 DUP3 ADD SLOAD DUP2 MSTORE PUSH1 0x20 ADD PUSH1 0x1 DUP3 ADD PUSH0 SWAP1 SLOAD SWAP1 PUSH2 0x100 EXP SWAP1 DIV PUSH20 0xFFFFFFFFFFFFFFFFFFFFFFFFFFFFFFFFFFFFFFFF AND PUSH20 0xFFFFFFFFFFFFFFFFFFFFFFFFFFFFFFFFFFFFFFFF AND PUSH20 0xFFFFFFFFFFFFFFFFFFFFFFFFFFFFFFFFFFFFFFFF AND DUP2 MSTORE PUSH1 0x20 ADD PUSH1 0x2 DUP3 ADD SLOAD DUP2 MSTORE PUSH1 0x20 ADD PUSH1 0x3 DUP3 ADD PUSH0 SWAP1 SLOAD SWAP1 PUSH2 0x100 EXP SWAP1 DIV PUSH1 0xFF AND ISZERO ISZERO ISZERO ISZERO DUP2 MSTORE PUSH1 0x20 ADD PUSH1 0x3 DUP3 ADD PUSH1 0x1 SWAP1 SLOAD SWAP1 PUSH2 0x100 EXP SWAP1 DIV PUSH1 0xFF AND ISZERO ISZERO ISZERO ISZERO DUP2 MSTORE POP POP DUP2 MSTORE POP POP SWAP1 POP PUSH2 0x4CFC JUMP JUMPDEST PUSH0 DUP2 PUSH0 ADD SWAP1 PUSH1 0x1 DUP2 GT ISZERO PUSH2 0x4CD3 JUMPI PUSH2 0x4CD2 PUSH2 0x6432 JUMP JUMPDEST JUMPDEST SWAP1 DUP2 PUSH1 0x1 DUP2 GT ISZERO PUSH2 0x4CE7 JUMPI PUSH2 0x4CE6 PUSH2 0x6432 JUMP JUMPDEST JUMPDEST DUP2 MSTORE POP POP PUSH0 DUP2 PUSH1 0x20 ADD SWAP1 ISZERO ISZERO SWAP1 DUP2 ISZERO ISZERO DUP2 MSTORE POP POP JUMPDEST SWAP2 SWAP1 POP JUMP JUMPDEST DUP2 PUSH2 0x4D43 JUMPI DUP1 PUSH1 0x40 MLOAD PUSH32 0x100960CB00000000000000000000000000000000000000000000000000000000 DUP2 MSTORE PUSH1 0x4 ADD PUSH2 0x4D3A SWAP2 SWAP1 PUSH2 0x61EF JUMP JUMPDEST PUSH1 0x40 MLOAD DUP1 SWAP2 SUB SWAP1 REVERT JUMPDEST POP POP JUMP JUMPDEST PUSH2 0x4D52 DUP4 DUP4 DUP4 PUSH2 0x5217 JUMP JUMPDEST PUSH2 0x4D5A JUMPI PUSH0 DUP1 REVERT JUMPDEST POP POP POP JUMP JUMPDEST PUSH0 DUP2 DUP4 SUB SWAP1 POP SWAP3 SWAP2 POP POP JUMP JUMPDEST PUSH2 0x4D73 PUSH2 0x5C34 JUMP JUMPDEST PUSH0 JUMPDEST PUSH1 0x2 DUP2 LT ISZERO PUSH2 0x4DBE JUMPI DUP5 DUP2 PUSH1 0x2 DUP2 LT PUSH2 0x4D91 JUMPI PUSH2 0x4D90 PUSH2 0x73F5 JUMP JUMPDEST JUMPDEST PUSH1 0x20 MUL ADD MLOAD DUP3 DUP3 PUSH1 0x2 DUP2 LT PUSH2 0x4DA9 JUMPI PUSH2 0x4DA8 PUSH2 0x73F5 JUMP JUMPDEST JUMPDEST PUSH1 0x20 MUL ADD DUP2 SWAP1 MSTORE POP DUP1 DUP1 PUSH1 0x1 ADD SWAP2 POP POP PUSH2 0x4D75 JUMP JUMPDEST POP DUP2 DUP2 DUP5 PUSH1 0x2 DUP2 LT PUSH2 0x4DD3 JUMPI PUSH2 0x4DD2 PUSH2 0x73F5 JUMP JUMPDEST JUMPDEST PUSH1 0x20 MUL ADD DUP2 SWAP1 MSTORE POP SWAP4 SWAP3 POP POP POP JUMP JUMPDEST PUSH0 PUSH2 0x4DEF DUP4 DUP6 ADDRESS DUP6 PUSH2 0x5327 JUMP JUMPDEST SWAP1 POP SWAP4 SWAP3 POP POP POP JUMP JUMPDEST DUP2 PUSH2 0x100 ADD MLOAD PUSH1 0x60 ADD MLOAD PUSH2 0x4E24 JUMPI PUSH0 DUP3 PUSH2 0x100 ADD MLOAD PUSH1 0x20 ADD MLOAD EQ PUSH2 0x4E1D JUMPI PUSH1 0x1 PUSH2 0x4E1F JUMP JUMPDEST PUSH0 JUMPDEST PUSH2 0x4E27 JUMP JUMPDEST PUSH1 0x1 JUMPDEST ISZERO PUSH2 0x501D JUMPI PUSH2 0x4E34 PUSH2 0x5C61 JUMP JUMPDEST DUP3 PUSH0 ADD MLOAD DUP2 PUSH0 ADD SWAP1 PUSH20 0xFFFFFFFFFFFFFFFFFFFFFFFFFFFFFFFFFFFFFFFF AND SWAP1 DUP2 PUSH20 0xFFFFFFFFFFFFFFFFFFFFFFFFFFFFFFFFFFFFFFFF AND DUP2 MSTORE POP POP DUP3 PUSH1 0x20 ADD MLOAD DUP2 PUSH1 0x20 ADD DUP2 SWAP1 MSTORE POP DUP3 PUSH1 0x40 ADD MLOAD DUP2 PUSH1 0x40 ADD SWAP1 PUSH20 0xFFFFFFFFFFFFFFFFFFFFFFFFFFFFFFFFFFFFFFFF AND SWAP1 DUP2 PUSH20 0xFFFFFFFFFFFFFFFFFFFFFFFFFFFFFFFFFFFFFFFF AND DUP2 MSTORE POP POP DUP3 PUSH1 0x60 ADD MLOAD DUP2 PUSH1 0x60 ADD SWAP1 PUSH20 0xFFFFFFFFFFFFFFFFFFFFFFFFFFFFFFFFFFFFFFFF AND SWAP1 DUP2 PUSH20 0xFFFFFFFFFFFFFFFFFFFFFFFFFFFFFFFFFFFFFFFF AND DUP2 MSTORE POP POP DUP3 PUSH1 0x80 ADD MLOAD DUP2 PUSH1 0x80 ADD SWAP1 PUSH20 0xFFFFFFFFFFFFFFFFFFFFFFFFFFFFFFFFFFFFFFFF AND SWAP1 DUP2 PUSH20 0xFFFFFFFFFFFFFFFFFFFFFFFFFFFFFFFFFFFFFFFF AND DUP2 MSTORE POP POP DUP3 PUSH1 0xA0 ADD MLOAD DUP2 PUSH1 0xA0 ADD DUP2 SWAP1 MSTORE POP DUP3 PUSH1 0xC0 ADD MLOAD DUP2 PUSH1 0xC0 ADD SWAP1 PUSH20 0xFFFFFFFFFFFFFFFFFFFFFFFFFFFFFFFFFFFFFFFF AND SWAP1 DUP2 PUSH20 0xFFFFFFFFFFFFFFFFFFFFFFFFFFFFFFFFFFFFFFFF AND DUP2 MSTORE POP POP DUP3 PUSH1 0xE0 ADD MLOAD DUP2 PUSH1 0xE0 ADD DUP2 DUP2 MSTORE POP POP DUP3 PUSH2 0x100 ADD MLOAD DUP2 PUSH2 0x100 ADD DUP2 SWAP1 MSTORE POP DUP3 PUSH2 0x140 ADD MLOAD DUP2 PUSH2 0x120 ADD DUP2 SWAP1 MSTORE POP DUP3 PUSH2 0x160 ADD MLOAD DUP2 PUSH2 0x140 ADD DUP2 DUP2 MSTORE POP POP DUP3 PUSH2 0x100 ADD MLOAD PUSH1 0x40 ADD MLOAD DUP2 PUSH2 0x160 ADD DUP2 SWAP1 MSTORE POP DUP3 PUSH2 0x100 ADD MLOAD PUSH1 0xA0 ADD MLOAD DUP2 PUSH2 0x180 ADD DUP2 SWAP1 MSTORE POP PUSH1 0x5 PUSH0 DUP2 SWAP1 SSTORE POP NUMBER PUSH1 0x1 DUP2 SWAP1 SSTORE POP DUP1 PUSH1 0x40 MLOAD PUSH1 0x20 ADD PUSH2 0x4FF9 SWAP2 SWAP1 PUSH2 0x7BA7 JUMP JUMPDEST PUSH1 0x40 MLOAD PUSH1 0x20 DUP2 DUP4 SUB SUB DUP2 MSTORE SWAP1 PUSH1 0x40 MSTORE PUSH1 0x2 SWAP1 DUP2 PUSH2 0x5016 SWAP2 SWAP1 PUSH2 0x7D5E JUMP JUMPDEST POP POP PUSH2 0x5157 JUMP JUMPDEST PUSH2 0x5025 PUSH2 0x5D54 JUMP JUMPDEST DUP3 PUSH0 ADD MLOAD DUP2 PUSH0 ADD SWAP1 PUSH20 0xFFFFFFFFFFFFFFFFFFFFFFFFFFFFFFFFFFFFFFFF AND SWAP1 DUP2 PUSH20 0xFFFFFFFFFFFFFFFFFFFFFFFFFFFFFFFFFFFFFFFF AND DUP2 MSTORE POP POP DUP3 PUSH1 0x40 ADD MLOAD DUP2 PUSH1 0x20 ADD SWAP1 PUSH20 0xFFFFFFFFFFFFFFFFFFFFFFFFFFFFFFFFFFFFFFFF AND SWAP1 DUP2 PUSH20 0xFFFFFFFFFFFFFFFFFFFFFFFFFFFFFFFFFFFFFFFF AND DUP2 MSTORE POP POP DUP3 PUSH1 0x80 ADD MLOAD DUP2 PUSH1 0x40 ADD SWAP1 PUSH20 0xFFFFFFFFFFFFFFFFFFFFFFFFFFFFFFFFFFFFFFFF AND SWAP1 DUP2 PUSH20 0xFFFFFFFFFFFFFFFFFFFFFFFFFFFFFFFFFFFFFFFF AND DUP2 MSTORE POP POP DUP3 PUSH2 0x140 ADD MLOAD DUP2 PUSH1 0x60 ADD DUP2 SWAP1 MSTORE POP DUP3 PUSH2 0x160 ADD MLOAD DUP2 PUSH1 0x80 ADD DUP2 DUP2 MSTORE POP POP DUP3 PUSH2 0x100 ADD MLOAD PUSH1 0x40 ADD MLOAD DUP2 PUSH1 0xA0 ADD DUP2 SWAP1 MSTORE POP DUP3 PUSH2 0x100 ADD MLOAD PUSH1 0xA0 ADD MLOAD DUP2 PUSH1 0xC0 ADD DUP2 SWAP1 MSTORE POP PUSH1 0x3 PUSH0 DUP2 SWAP1 SSTORE POP NUMBER PUSH1 0x1 DUP2 SWAP1 SSTORE POP DUP1 PUSH1 0x40 MLOAD PUSH1 0x20 ADD PUSH2 0x5137 SWAP2 SWAP1 PUSH2 0x7EBD JUMP JUMPDEST PUSH1 0x40 MLOAD PUSH1 0x20 DUP2 DUP4 SUB SUB DUP2 MSTORE SWAP1 PUSH1 0x40 MSTORE PUSH1 0x2 SWAP1 DUP2 PUSH2 0x5154 SWAP2 SWAP1 PUSH2 0x7D5E JUMP JUMPDEST POP POP JUMPDEST POP POP JUMP JUMPDEST PUSH0 DUP2 DUP4 ADD SWAP1 POP SWAP3 SWAP2 POP POP JUMP JUMPDEST PUSH0 DUP3 DUP3 DUP5 PUSH2 0x5175 SWAP2 SWAP1 PUSH2 0x7F04 JUMP JUMPDEST SWAP2 POP DUP2 LT ISZERO PUSH2 0x51B9 JUMPI PUSH1 0x40 MLOAD PUSH32 0x8C379A000000000000000000000000000000000000000000000000000000000 DUP2 MSTORE PUSH1 0x4 ADD PUSH2 0x51B0 SWAP1 PUSH2 0x7F91 JUMP JUMPDEST PUSH1 0x40 MLOAD DUP1 SWAP2 SUB SWAP1 REVERT JUMPDEST SWAP3 SWAP2 POP POP JUMP JUMPDEST PUSH0 DUP3 DUP3 DUP5 PUSH2 0x51CD SWAP2 SWAP1 PUSH2 0x7FAF JUMP JUMPDEST SWAP2 POP DUP2 GT ISZERO PUSH2 0x5211 JUMPI PUSH1 0x40 MLOAD PUSH32 0x8C379A000000000000000000000000000000000000000000000000000000000 DUP2 MSTORE PUSH1 0x4 ADD PUSH2 0x5208 SWAP1 PUSH2 0x802C JUMP JUMPDEST PUSH1 0x40 MLOAD DUP1 SWAP2 SUB SWAP1 REVERT JUMPDEST SWAP3 SWAP2 POP POP JUMP JUMPDEST PUSH0 DUP1 PUSH0 DUP6 PUSH20 0xFFFFFFFFFFFFFFFFFFFFFFFFFFFFFFFFFFFFFFFF AND PUSH0 PUSH4 0xA9059CBB PUSH1 0xE0 SHL DUP8 DUP8 PUSH1 0x40 MLOAD PUSH1 0x24 ADD PUSH2 0x524D SWAP3 SWAP2 SWAP1 PUSH2 0x804A JUMP JUMPDEST PUSH1 0x40 MLOAD PUSH1 0x20 DUP2 DUP4 SUB SUB DUP2 MSTORE SWAP1 PUSH1 0x40 MSTORE SWAP1 PUSH28 0xFFFFFFFFFFFFFFFFFFFFFFFFFFFFFFFFFFFFFFFFFFFFFFFFFFFFFFFF NOT AND PUSH1 0x20 DUP3 ADD DUP1 MLOAD PUSH28 0xFFFFFFFFFFFFFFFFFFFFFFFFFFFFFFFFFFFFFFFFFFFFFFFFFFFFFFFF DUP4 DUP2 DUP4 AND OR DUP4 MSTORE POP POP POP POP PUSH1 0x40 MLOAD PUSH2 0x52B7 SWAP2 SWAP1 PUSH2 0x80AB JUMP JUMPDEST PUSH0 PUSH1 0x40 MLOAD DUP1 DUP4 SUB DUP2 DUP6 DUP8 GAS CALL SWAP3 POP POP POP RETURNDATASIZE DUP1 PUSH0 DUP2 EQ PUSH2 0x52F1 JUMPI PUSH1 0x40 MLOAD SWAP2 POP PUSH1 0x1F NOT PUSH1 0x3F RETURNDATASIZE ADD AND DUP3 ADD PUSH1 0x40 MSTORE RETURNDATASIZE DUP3 MSTORE RETURNDATASIZE PUSH0 PUSH1 0x20 DUP5 ADD RETURNDATACOPY PUSH2 0x52F6 JUMP JUMPDEST PUSH1 0x60 SWAP2 POP JUMPDEST POP SWAP2 POP SWAP2 POP PUSH2 0x5307 DUP3 DUP3 PUSH1 0x2 PUSH2 0x543A JUMP JUMPDEST POP DUP1 DUP1 PUSH1 0x20 ADD SWAP1 MLOAD DUP2 ADD SWAP1 PUSH2 0x531C SWAP2 SWAP1 PUSH2 0x80C1 JUMP JUMPDEST SWAP3 POP POP POP SWAP4 SWAP3 POP POP POP JUMP JUMPDEST PUSH0 DUP1 PUSH0 DUP7 PUSH20 0xFFFFFFFFFFFFFFFFFFFFFFFFFFFFFFFFFFFFFFFF AND PUSH0 PUSH4 0x23B872DD PUSH1 0xE0 SHL DUP9 DUP9 DUP9 PUSH1 0x40 MLOAD PUSH1 0x24 ADD PUSH2 0x535F SWAP4 SWAP3 SWAP2 SWAP1 PUSH2 0x80EC JUMP JUMPDEST PUSH1 0x40 MLOAD PUSH1 0x20 DUP2 DUP4 SUB SUB DUP2 MSTORE SWAP1 PUSH1 0x40 MSTORE SWAP1 PUSH28 0xFFFFFFFFFFFFFFFFFFFFFFFFFFFFFFFFFFFFFFFFFFFFFFFFFFFFFFFF NOT AND PUSH1 0x20 DUP3 ADD DUP1 MLOAD PUSH28 0xFFFFFFFFFFFFFFFFFFFFFFFFFFFFFFFFFFFFFFFFFFFFFFFFFFFFFFFF DUP4 DUP2 DUP4 AND OR DUP4 MSTORE POP POP POP POP PUSH1 0x40 MLOAD PUSH2 0x53C9 SWAP2 SWAP1 PUSH2 0x80AB JUMP JUMPDEST PUSH0 PUSH1 0x40 MLOAD DUP1 DUP4 SUB DUP2 DUP6 DUP8 GAS CALL SWAP3 POP POP POP RETURNDATASIZE DUP1 PUSH0 DUP2 EQ PUSH2 0x5403 JUMPI PUSH1 0x40 MLOAD SWAP2 POP PUSH1 0x1F NOT PUSH1 0x3F RETURNDATASIZE ADD AND DUP3 ADD PUSH1 0x40 MSTORE RETURNDATASIZE DUP3 MSTORE RETURNDATASIZE PUSH0 PUSH1 0x20 DUP5 ADD RETURNDATACOPY PUSH2 0x5408 JUMP JUMPDEST PUSH1 0x60 SWAP2 POP JUMPDEST POP SWAP2 POP SWAP2 POP PUSH2 0x5419 DUP3 DUP3 PUSH1 0x1 PUSH2 0x543A JUMP JUMPDEST POP DUP1 DUP1 PUSH1 0x20 ADD SWAP1 MLOAD DUP2 ADD SWAP1 PUSH2 0x542E SWAP2 SWAP1 PUSH2 0x80C1 JUMP JUMPDEST SWAP3 POP POP POP SWAP5 SWAP4 POP POP POP POP JUMP JUMPDEST PUSH1 0x60 DUP4 ISZERO PUSH2 0x544A JUMPI DUP3 SWAP1 POP PUSH2 0x5499 JUMP JUMPDEST PUSH0 DUP4 MLOAD GT ISZERO PUSH2 0x545C JUMPI DUP3 MLOAD DUP1 DUP5 PUSH1 0x20 ADD REVERT JUMPDEST DUP2 PUSH1 0x40 MLOAD PUSH32 0x100960CB00000000000000000000000000000000000000000000000000000000 DUP2 MSTORE PUSH1 0x4 ADD PUSH2 0x5490 SWAP2 SWAP1 PUSH2 0x61EF JUMP JUMPDEST PUSH1 0x40 MLOAD DUP1 SWAP2 SUB SWAP1 REVERT JUMPDEST SWAP4 SWAP3 POP POP POP JUMP JUMPDEST PUSH1 0x40 MLOAD DUP1 PUSH1 0xC0 ADD PUSH1 0x40 MSTORE DUP1 PUSH0 ISZERO ISZERO DUP2 MSTORE PUSH1 0x20 ADD PUSH0 DUP2 MSTORE PUSH1 0x20 ADD PUSH0 PUSH20 0xFFFFFFFFFFFFFFFFFFFFFFFFFFFFFFFFFFFFFFFF AND DUP2 MSTORE PUSH1 0x20 ADD PUSH0 ISZERO ISZERO DUP2 MSTORE PUSH1 0x20 ADD PUSH0 ISZERO ISZERO DUP2 MSTORE PUSH1 0x20 ADD PUSH0 PUSH20 0xFFFFFFFFFFFFFFFFFFFFFFFFFFFFFFFFFFFFFFFF AND DUP2 MSTORE POP SWAP1 JUMP JUMPDEST PUSH1 0x40 MLOAD DUP1 PUSH2 0x160 ADD PUSH1 0x40 MSTORE DUP1 PUSH0 ISZERO ISZERO DUP2 MSTORE PUSH1 0x20 ADD PUSH0 ISZERO ISZERO DUP2 MSTORE PUSH1 0x20 ADD PUSH0 ISZERO ISZERO DUP2 MSTORE PUSH1 0x20 ADD PUSH0 ISZERO ISZERO DUP2 MSTORE PUSH1 0x20 ADD PUSH0 ISZERO ISZERO DUP2 MSTORE PUSH1 0x20 ADD PUSH2 0x553E PUSH2 0x54A0 JUMP JUMPDEST DUP2 MSTORE PUSH1 0x20 ADD PUSH2 0x554B PUSH2 0x557B JUMP JUMPDEST DUP2 MSTORE PUSH1 0x20 ADD PUSH2 0x5558 PUSH2 0x55AF JUMP JUMPDEST DUP2 MSTORE PUSH1 0x20 ADD PUSH0 ISZERO ISZERO DUP2 MSTORE PUSH1 0x20 ADD PUSH0 ISZERO ISZERO DUP2 MSTORE PUSH1 0x20 ADD PUSH2 0x5575 PUSH2 0x55E8 JUMP JUMPDEST DUP2 MSTORE POP SWAP1 JUMP JUMPDEST PUSH1 0x40 MLOAD DUP1 PUSH1 0x60 ADD PUSH1 0x40 MSTORE DUP1 PUSH0 DUP2 MSTORE PUSH1 0x20 ADD PUSH0 PUSH20 0xFFFFFFFFFFFFFFFFFFFFFFFFFFFFFFFFFFFFFFFF AND DUP2 MSTORE PUSH1 0x20 ADD PUSH0 DUP2 MSTORE POP SWAP1 JUMP JUMPDEST PUSH1 0x40 MLOAD DUP1 PUSH1 0x60 ADD PUSH1 0x40 MSTORE DUP1 PUSH0 PUSH1 0x1 DUP2 GT ISZERO PUSH2 0x55CD JUMPI PUSH2 0x55CC PUSH2 0x6432 JUMP JUMPDEST JUMPDEST DUP2 MSTORE PUSH1 0x20 ADD PUSH0 ISZERO ISZERO DUP2 MSTORE PUSH1 0x20 ADD PUSH2 0x55E2 PUSH2 0x55E8 JUMP JUMPDEST DUP2 MSTORE POP SWAP1 JUMP JUMPDEST PUSH1 0x40 MLOAD DUP1 PUSH1 0xA0 ADD PUSH1 0x40 MSTORE DUP1 PUSH0 DUP2 MSTORE PUSH1 0x20 ADD PUSH0 PUSH20 0xFFFFFFFFFFFFFFFFFFFFFFFFFFFFFFFFFFFFFFFF AND DUP2 MSTORE PUSH1 0x20 ADD PUSH0 DUP2 MSTORE PUSH1 0x20 ADD PUSH0 ISZERO ISZERO DUP2 MSTORE PUSH1 0x20 ADD PUSH0 ISZERO ISZERO DUP2 MSTORE POP SWAP1 JUMP JUMPDEST PUSH1 0x40 MLOAD DUP1 PUSH1 0x40 ADD PUSH1 0x40 MSTORE DUP1 PUSH0 ISZERO ISZERO DUP2 MSTORE PUSH1 0x20 ADD PUSH2 0x5647 PUSH2 0x5DE1 JUMP JUMPDEST DUP2 MSTORE POP SWAP1 JUMP JUMPDEST PUSH1 0x40 MLOAD DUP1 PUSH1 0x40 ADD PUSH1 0x40 MSTORE DUP1 PUSH0 DUP2 MSTORE PUSH1 0x20 ADD PUSH2 0x5666 PUSH2 0x5DE1 JUMP JUMPDEST DUP2 MSTORE POP SWAP1 JUMP JUMPDEST POP DUP1 SLOAD PUSH2 0x5678 SWAP1 PUSH2 0x6C21 JUMP JUMPDEST PUSH0 DUP3 SSTORE DUP1 PUSH1 0x1F LT PUSH2 0x5689 JUMPI POP PUSH2 0x56A6 JUMP JUMPDEST PUSH1 0x1F ADD PUSH1 0x20 SWAP1 DIV SWAP1 PUSH0 MSTORE PUSH1 0x20 PUSH0 KECCAK256 SWAP1 DUP2 ADD SWAP1 PUSH2 0x56A5 SWAP2 SWAP1 PUSH2 0x5E5C JUMP JUMPDEST JUMPDEST POP JUMP JUMPDEST PUSH1 0x40 MLOAD DUP1 PUSH2 0x880 ADD PUSH1 0x40 MSTORE DUP1 PUSH2 0x56BD PUSH2 0x5E77 JUMP JUMPDEST DUP2 MSTORE PUSH1 0x20 ADD PUSH2 0x56CA PUSH2 0x55AF JUMP JUMPDEST DUP2 MSTORE PUSH1 0x20 ADD PUSH2 0x56D7 PUSH2 0x55E8 JUMP JUMPDEST DUP2 MSTORE PUSH1 0x20 ADD PUSH2 0x56E4 PUSH2 0x5E90 JUMP JUMPDEST DUP2 MSTORE PUSH1 0x20 ADD PUSH2 0x56F1 PUSH2 0x5ED8 JUMP JUMPDEST DUP2 MSTORE PUSH1 0x20 ADD PUSH2 0x56FE PUSH2 0x5ED8 JUMP JUMPDEST DUP2 MSTORE PUSH1 0x20 ADD PUSH2 0x570B PUSH2 0x5F3C JUMP JUMPDEST DUP2 MSTORE PUSH1 0x20 ADD PUSH2 0x5718 PUSH2 0x5ED8 JUMP JUMPDEST DUP2 MSTORE PUSH1 0x20 ADD PUSH2 0x5725 PUSH2 0x5F55 JUMP JUMPDEST DUP2 MSTORE PUSH1 0x20 ADD PUSH2 0x5732 PUSH2 0x5ED8 JUMP JUMPDEST DUP2 MSTORE PUSH1 0x20 ADD PUSH2 0x573F PUSH2 0x5F6E JUMP JUMPDEST DUP2 MSTORE PUSH1 0x20 ADD PUSH2 0x574C PUSH2 0x5F9C JUMP JUMPDEST DUP2 MSTORE PUSH1 0x20 ADD PUSH2 0x5759 PUSH2 0x5F6E JUMP JUMPDEST DUP2 MSTORE PUSH1 0x20 ADD PUSH2 0x5766 PUSH2 0x5F9C JUMP JUMPDEST DUP2 MSTORE PUSH1 0x20 ADD PUSH2 0x5773 PUSH2 0x5F9C JUMP JUMPDEST DUP2 MSTORE PUSH1 0x20 ADD PUSH2 0x5780 PUSH2 0x5C34 JUMP JUMPDEST DUP2 MSTORE PUSH1 0x20 ADD PUSH2 0x578D PUSH2 0x5FBB JUMP JUMPDEST DUP2 MSTORE PUSH1 0x20 ADD PUSH2 0x579A PUSH2 0x5FBB JUMP JUMPDEST DUP2 MSTORE PUSH1 0x20 ADD PUSH2 0x57A7 PUSH2 0x5FBB JUMP JUMPDEST DUP2 MSTORE PUSH1 0x20 ADD PUSH0 PUSH20 0xFFFFFFFFFFFFFFFFFFFFFFFFFFFFFFFFFFFFFFFF AND DUP2 MSTORE PUSH1 0x20 ADD PUSH2 0x57D0 PUSH2 0x5FBB JUMP JUMPDEST DUP2 MSTORE PUSH1 0x20 ADD PUSH2 0x57DD PUSH2 0x5FBB JUMP JUMPDEST DUP2 MSTORE PUSH1 0x20 ADD PUSH2 0x57EA PUSH2 0x5FBB JUMP JUMPDEST DUP2 MSTORE PUSH1 0x20 ADD PUSH2 0x57F7 PUSH2 0x5FBB JUMP JUMPDEST DUP2 MSTORE PUSH1 0x20 ADD PUSH0 PUSH20 0xFFFFFFFFFFFFFFFFFFFFFFFFFFFFFFFFFFFFFFFF AND DUP2 MSTORE PUSH1 0x20 ADD PUSH2 0x5820 PUSH2 0x5FBB JUMP JUMPDEST DUP2 MSTORE PUSH1 0x20 ADD PUSH2 0x582D PUSH2 0x5FBB JUMP JUMPDEST DUP2 MSTORE PUSH1 0x20 ADD PUSH2 0x583A PUSH2 0x5E90 JUMP JUMPDEST DUP2 MSTORE PUSH1 0x20 ADD PUSH2 0x5847 PUSH2 0x5ED8 JUMP JUMPDEST DUP2 MSTORE PUSH1 0x20 ADD PUSH2 0x5854 PUSH2 0x5FD5 JUMP JUMPDEST DUP2 MSTORE PUSH1 0x20 ADD PUSH2 0x5861 PUSH2 0x55AF JUMP JUMPDEST DUP2 MSTORE PUSH1 0x20 ADD PUSH2 0x586E PUSH2 0x55E8 JUMP JUMPDEST DUP2 MSTORE PUSH1 0x20 ADD PUSH2 0x587B PUSH2 0x55E8 JUMP JUMPDEST DUP2 MSTORE PUSH1 0x20 ADD PUSH2 0x5888 PUSH2 0x5F6E JUMP JUMPDEST DUP2 MSTORE PUSH1 0x20 ADD PUSH2 0x5895 PUSH2 0x5F9C JUMP JUMPDEST DUP2 MSTORE PUSH1 0x20 ADD PUSH2 0x58A2 PUSH2 0x5F6E JUMP JUMPDEST DUP2 MSTORE PUSH1 0x20 ADD PUSH2 0x58AF PUSH2 0x5F9C JUMP JUMPDEST DUP2 MSTORE PUSH1 0x20 ADD PUSH2 0x58BC PUSH2 0x5F9C JUMP JUMPDEST DUP2 MSTORE PUSH1 0x20 ADD PUSH0 DUP2 MSTORE PUSH1 0x20 ADD PUSH2 0x58CF PUSH2 0x5FBB JUMP JUMPDEST DUP2 MSTORE PUSH1 0x20 ADD PUSH2 0x58DC PUSH2 0x5FBB JUMP JUMPDEST DUP2 MSTORE PUSH1 0x20 ADD PUSH2 0x58E9 PUSH2 0x5FBB JUMP JUMPDEST DUP2 MSTORE PUSH1 0x20 ADD PUSH0 PUSH20 0xFFFFFFFFFFFFFFFFFFFFFFFFFFFFFFFFFFFFFFFF AND DUP2 MSTORE PUSH1 0x20 ADD PUSH2 0x5912 PUSH2 0x5FBB JUMP JUMPDEST DUP2 MSTORE PUSH1 0x20 ADD PUSH2 0x591F PUSH2 0x5FBB JUMP JUMPDEST DUP2 MSTORE PUSH1 0x20 ADD PUSH2 0x592C PUSH2 0x5FBB JUMP JUMPDEST DUP2 MSTORE PUSH1 0x20 ADD PUSH2 0x5939 PUSH2 0x5FBB JUMP JUMPDEST DUP2 MSTORE PUSH1 0x20 ADD PUSH0 PUSH20 0xFFFFFFFFFFFFFFFFFFFFFFFFFFFFFFFFFFFFFFFF AND DUP2 MSTORE PUSH1 0x20 ADD PUSH2 0x5962 PUSH2 0x5FBB JUMP JUMPDEST DUP2 MSTORE PUSH1 0x20 ADD PUSH2 0x596F PUSH2 0x5FBB JUMP JUMPDEST DUP2 MSTORE PUSH1 0x20 ADD PUSH2 0x597C PUSH2 0x5C34 JUMP JUMPDEST DUP2 MSTORE PUSH1 0x20 ADD PUSH0 DUP2 MSTORE PUSH1 0x20 ADD PUSH2 0x598F PUSH2 0x5ED8 JUMP JUMPDEST DUP2 MSTORE PUSH1 0x20 ADD PUSH2 0x599C PUSH2 0x5ED8 JUMP JUMPDEST DUP2 MSTORE PUSH1 0x20 ADD PUSH2 0x59A9 PUSH2 0x5FE7 JUMP JUMPDEST DUP2 MSTORE PUSH1 0x20 ADD PUSH0 ISZERO ISZERO DUP2 MSTORE PUSH1 0x20 ADD PUSH2 0x59BE PUSH2 0x5F6E JUMP JUMPDEST DUP2 MSTORE PUSH1 0x20 ADD PUSH2 0x59CB PUSH2 0x5F9C JUMP JUMPDEST DUP2 MSTORE PUSH1 0x20 ADD PUSH2 0x59D8 PUSH2 0x5F6E JUMP JUMPDEST DUP2 MSTORE PUSH1 0x20 ADD PUSH2 0x59E5 PUSH2 0x5F9C JUMP JUMPDEST DUP2 MSTORE PUSH1 0x20 ADD PUSH2 0x59F2 PUSH2 0x5F9C JUMP JUMPDEST DUP2 MSTORE PUSH1 0x20 ADD PUSH0 DUP2 MSTORE PUSH1 0x20 ADD PUSH2 0x5A05 PUSH2 0x5C34 JUMP JUMPDEST DUP2 MSTORE PUSH1 0x20 ADD PUSH2 0x5A12 PUSH2 0x55E8 JUMP JUMPDEST DUP2 MSTORE PUSH1 0x20 ADD PUSH0 DUP2 MSTORE PUSH1 0x20 ADD PUSH0 DUP2 MSTORE PUSH1 0x20 ADD PUSH2 0x5A2B PUSH2 0x5ED8 JUMP JUMPDEST DUP2 MSTORE PUSH1 0x20 ADD PUSH2 0x5A38 PUSH2 0x5ED8 JUMP JUMPDEST DUP2 MSTORE POP SWAP1 JUMP JUMPDEST PUSH1 0x40 MLOAD DUP1 PUSH2 0x180 ADD PUSH1 0x40 MSTORE DUP1 PUSH0 PUSH20 0xFFFFFFFFFFFFFFFFFFFFFFFFFFFFFFFFFFFFFFFF AND DUP2 MSTORE PUSH1 0x20 ADD PUSH2 0x5A6E PUSH2 0x54A0 JUMP JUMPDEST DUP2 MSTORE PUSH1 0x20 ADD PUSH0 PUSH20 0xFFFFFFFFFFFFFFFFFFFFFFFFFFFFFFFFFFFFFFFF AND DUP2 MSTORE PUSH1 0x20 ADD PUSH0 PUSH20 0xFFFFFFFFFFFFFFFFFFFFFFFFFFFFFFFFFFFFFFFF AND DUP2 MSTORE PUSH1 0x20 ADD PUSH0 PUSH20 0xFFFFFFFFFFFFFFFFFFFFFFFFFFFFFFFFFFFFFFFF AND DUP2 MSTORE PUSH1 0x20 ADD PUSH2 0x5ACF PUSH2 0x6000 JUMP JUMPDEST DUP2 MSTORE PUSH1 0x20 ADD PUSH0 PUSH20 0xFFFFFFFFFFFFFFFFFFFFFFFFFFFFFFFFFFFFFFFF AND DUP2 MSTORE PUSH1 0x20 ADD PUSH0 DUP2 MSTORE PUSH1 0x20 ADD PUSH2 0x5AFE PUSH2 0x5ED8 JUMP JUMPDEST DUP2 MSTORE PUSH1 0x20 ADD PUSH0 DUP2 MSTORE PUSH1 0x20 ADD PUSH2 0x5B11 PUSH2 0x5C34 JUMP JUMPDEST DUP2 MSTORE PUSH1 0x20 ADD PUSH0 DUP2 MSTORE POP SWAP1 JUMP JUMPDEST PUSH1 0x40 MLOAD DUP1 PUSH1 0x60 ADD PUSH1 0x40 MSTORE DUP1 PUSH2 0x5B30 PUSH2 0x5C34 JUMP JUMPDEST DUP2 MSTORE PUSH1 0x20 ADD PUSH2 0x5B3D PUSH2 0x5E90 JUMP JUMPDEST DUP2 MSTORE PUSH1 0x20 ADD PUSH2 0x5B4A PUSH2 0x5ED8 JUMP JUMPDEST DUP2 MSTORE POP SWAP1 JUMP JUMPDEST PUSH1 0x40 MLOAD DUP1 PUSH1 0x40 ADD PUSH1 0x40 MSTORE DUP1 PUSH2 0x5B63 PUSH2 0x5E77 JUMP JUMPDEST DUP2 MSTORE PUSH1 0x20 ADD PUSH2 0x5B70 PUSH2 0x5DE1 JUMP JUMPDEST DUP2 MSTORE POP SWAP1 JUMP JUMPDEST PUSH1 0x40 MLOAD DUP1 PUSH1 0x40 ADD PUSH1 0x40 MSTORE DUP1 PUSH2 0x5B89 PUSH2 0x5FD5 JUMP JUMPDEST DUP2 MSTORE PUSH1 0x20 ADD PUSH2 0x5B96 PUSH2 0x5DE1 JUMP JUMPDEST DUP2 MSTORE POP SWAP1 JUMP JUMPDEST PUSH1 0x40 MLOAD DUP1 PUSH1 0x40 ADD PUSH1 0x40 MSTORE DUP1 PUSH2 0x5BAF PUSH2 0x5F55 JUMP JUMPDEST DUP2 MSTORE PUSH1 0x20 ADD PUSH2 0x5BBC PUSH2 0x5DE1 JUMP JUMPDEST DUP2 MSTORE POP SWAP1 JUMP JUMPDEST PUSH1 0x40 MLOAD DUP1 PUSH1 0x40 ADD PUSH1 0x40 MSTORE DUP1 PUSH2 0x5BD5 PUSH2 0x5FD5 JUMP JUMPDEST DUP2 MSTORE PUSH1 0x20 ADD PUSH2 0x5BE2 PUSH2 0x5DE1 JUMP JUMPDEST DUP2 MSTORE POP SWAP1 JUMP JUMPDEST PUSH1 0x40 MLOAD DUP1 PUSH1 0x40 ADD PUSH1 0x40 MSTORE DUP1 PUSH2 0x5BFB PUSH2 0x5FE7 JUMP JUMPDEST DUP2 MSTORE PUSH1 0x20 ADD PUSH2 0x5C08 PUSH2 0x5DE1 JUMP JUMPDEST DUP2 MSTORE POP SWAP1 JUMP JUMPDEST PUSH1 0x40 MLOAD DUP1 PUSH1 0x40 ADD PUSH1 0x40 MSTORE DUP1 PUSH2 0x5C21 PUSH2 0x5F3C JUMP JUMPDEST DUP2 MSTORE PUSH1 0x20 ADD PUSH2 0x5C2E PUSH2 0x5DE1 JUMP JUMPDEST DUP2 MSTORE POP SWAP1 JUMP JUMPDEST PUSH1 0x40 MLOAD DUP1 PUSH1 0x40 ADD PUSH1 0x40 MSTORE DUP1 PUSH1 0x2 SWAP1 JUMPDEST PUSH2 0x5C4B PUSH2 0x6022 JUMP JUMPDEST DUP2 MSTORE PUSH1 0x20 ADD SWAP1 PUSH1 0x1 SWAP1 SUB SWAP1 DUP2 PUSH2 0x5C43 JUMPI SWAP1 POP POP SWAP1 JUMP JUMPDEST PUSH1 0x40 MLOAD DUP1 PUSH2 0x1A0 ADD PUSH1 0x40 MSTORE DUP1 PUSH0 PUSH20 0xFFFFFFFFFFFFFFFFFFFFFFFFFFFFFFFFFFFFFFFF AND DUP2 MSTORE PUSH1 0x20 ADD PUSH2 0x5C91 PUSH2 0x54A0 JUMP JUMPDEST DUP2 MSTORE PUSH1 0x20 ADD PUSH0 PUSH20 0xFFFFFFFFFFFFFFFFFFFFFFFFFFFFFFFFFFFFFFFF AND DUP2 MSTORE PUSH1 0x20 ADD PUSH0 PUSH20 0xFFFFFFFFFFFFFFFFFFFFFFFFFFFFFFFFFFFFFFFF AND DUP2 MSTORE PUSH1 0x20 ADD PUSH0 PUSH20 0xFFFFFFFFFFFFFFFFFFFFFFFFFFFFFFFFFFFFFFFF AND DUP2 MSTORE PUSH1 0x20 ADD PUSH2 0x5CF2 PUSH2 0x6000 JUMP JUMPDEST DUP2 MSTORE PUSH1 0x20 ADD PUSH0 PUSH20 0xFFFFFFFFFFFFFFFFFFFFFFFFFFFFFFFFFFFFFFFF AND DUP2 MSTORE PUSH1 0x20 ADD PUSH0 DUP2 MSTORE PUSH1 0x20 ADD PUSH2 0x5D21 PUSH2 0x5ED8 JUMP JUMPDEST DUP2 MSTORE PUSH1 0x20 ADD PUSH2 0x5D2E PUSH2 0x5C34 JUMP JUMPDEST DUP2 MSTORE PUSH1 0x20 ADD PUSH0 DUP2 MSTORE PUSH1 0x20 ADD PUSH2 0x5D41 PUSH2 0x54A0 JUMP JUMPDEST DUP2 MSTORE PUSH1 0x20 ADD PUSH2 0x5D4E PUSH2 0x557B JUMP JUMPDEST DUP2 MSTORE POP SWAP1 JUMP JUMPDEST PUSH1 0x40 MLOAD DUP1 PUSH1 0xE0 ADD PUSH1 0x40 MSTORE DUP1 PUSH0 PUSH20 0xFFFFFFFFFFFFFFFFFFFFFFFFFFFFFFFFFFFFFFFF AND DUP2 MSTORE PUSH1 0x20 ADD PUSH0 PUSH20 0xFFFFFFFFFFFFFFFFFFFFFFFFFFFFFFFFFFFFFFFF AND DUP2 MSTORE PUSH1 0x20 ADD PUSH0 PUSH20 0xFFFFFFFFFFFFFFFFFFFFFFFFFFFFFFFFFFFFFFFF AND DUP2 MSTORE PUSH1 0x20 ADD PUSH2 0x5DBB PUSH2 0x5C34 JUMP JUMPDEST DUP2 MSTORE PUSH1 0x20 ADD PUSH0 DUP2 MSTORE PUSH1 0x20 ADD PUSH2 0x5DCE PUSH2 0x54A0 JUMP JUMPDEST DUP2 MSTORE PUSH1 0x20 ADD PUSH2 0x5DDB PUSH2 0x557B JUMP JUMPDEST DUP2 MSTORE POP SWAP1 JUMP JUMPDEST PUSH1 0x40 MLOAD DUP1 PUSH2 0x100 ADD PUSH1 0x40 MSTORE DUP1 PUSH0 PUSH1 0x6 DUP2 GT ISZERO PUSH2 0x5E00 JUMPI PUSH2 0x5DFF PUSH2 0x6432 JUMP JUMPDEST JUMPDEST DUP2 MSTORE PUSH1 0x20 ADD PUSH2 0x5E0D PUSH2 0x5E77 JUMP JUMPDEST DUP2 MSTORE PUSH1 0x20 ADD PUSH2 0x5E1A PUSH2 0x5FD5 JUMP JUMPDEST DUP2 MSTORE PUSH1 0x20 ADD PUSH2 0x5E27 PUSH2 0x5F3C JUMP JUMPDEST DUP2 MSTORE PUSH1 0x20 ADD PUSH2 0x5E34 PUSH2 0x5F55 JUMP JUMPDEST DUP2 MSTORE PUSH1 0x20 ADD PUSH0 ISZERO ISZERO DUP2 MSTORE PUSH1 0x20 ADD PUSH2 0x5E49 PUSH2 0x5FD5 JUMP JUMPDEST DUP2 MSTORE PUSH1 0x20 ADD PUSH2 0x5E56 PUSH2 0x5FE7 JUMP JUMPDEST DUP2 MSTORE POP SWAP1 JUMP JUMPDEST JUMPDEST DUP1 DUP3 GT ISZERO PUSH2 0x5E73 JUMPI PUSH0 DUP2 PUSH0 SWAP1 SSTORE POP PUSH1 0x1 ADD PUSH2 0x5E5D JUMP JUMPDEST POP SWAP1 JUMP JUMPDEST PUSH1 0x40 MLOAD DUP1 PUSH1 0x20 ADD PUSH1 0x40 MSTORE DUP1 PUSH2 0x5E8A PUSH2 0x55E8 JUMP JUMPDEST DUP2 MSTORE POP SWAP1 JUMP JUMPDEST PUSH1 0x40 MLOAD DUP1 PUSH1 0x60 ADD PUSH1 0x40 MSTORE DUP1 PUSH0 PUSH1 0x1 DUP2 GT ISZERO PUSH2 0x5EAE JUMPI PUSH2 0x5EAD PUSH2 0x6432 JUMP JUMPDEST JUMPDEST DUP2 MSTORE PUSH1 0x20 ADD PUSH0 ISZERO ISZERO DUP2 MSTORE PUSH1 0x20 ADD PUSH0 PUSH20 0xFFFFFFFFFFFFFFFFFFFFFFFFFFFFFFFFFFFFFFFF AND DUP2 MSTORE POP SWAP1 JUMP JUMPDEST PUSH1 0x40 MLOAD DUP1 PUSH2 0x140 ADD PUSH1 0x40 MSTORE DUP1 PUSH2 0x5EEC PUSH2 0x5E90 JUMP JUMPDEST DUP2 MSTORE PUSH1 0x20 ADD PUSH0 DUP2 MSTORE PUSH1 0x20 ADD PUSH2 0x5EFF PUSH2 0x54A0 JUMP JUMPDEST DUP2 MSTORE PUSH1 0x20 ADD PUSH0 ISZERO ISZERO DUP2 MSTORE PUSH1 0x20 ADD PUSH0 ISZERO ISZERO DUP2 MSTORE PUSH1 0x20 ADD PUSH2 0x5F1C PUSH2 0x557B JUMP JUMPDEST DUP2 MSTORE PUSH1 0x20 ADD PUSH0 ISZERO ISZERO DUP2 MSTORE PUSH1 0x20 ADD PUSH0 DUP2 MSTORE PUSH1 0x20 ADD PUSH0 DUP2 MSTORE PUSH1 0x20 ADD PUSH0 DUP2 MSTORE POP SWAP1 JUMP JUMPDEST PUSH1 0x40 MLOAD DUP1 PUSH1 0x20 ADD PUSH1 0x40 MSTORE DUP1 PUSH2 0x5F4F PUSH2 0x54A0 JUMP JUMPDEST DUP2 MSTORE POP SWAP1 JUMP JUMPDEST PUSH1 0x40 MLOAD DUP1 PUSH1 0x20 ADD PUSH1 0x40 MSTORE DUP1 PUSH2 0x5F68 PUSH2 0x557B JUMP JUMPDEST DUP2 MSTORE POP SWAP1 JUMP JUMPDEST PUSH1 0x40 MLOAD DUP1 PUSH1 0x40 ADD PUSH1 0x40 MSTORE DUP1 PUSH0 DUP2 MSTORE PUSH1 0x20 ADD PUSH0 PUSH20 0xFFFFFFFFFFFFFFFFFFFFFFFFFFFFFFFFFFFFFFFF AND DUP2 MSTORE POP SWAP1 JUMP JUMPDEST PUSH1 0x40 MLOAD DUP1 PUSH1 0x40 ADD PUSH1 0x40 MSTORE DUP1 PUSH0 DUP2 MSTORE PUSH1 0x20 ADD PUSH2 0x5FB5 PUSH2 0x5F6E JUMP JUMPDEST DUP2 MSTORE POP SWAP1 JUMP JUMPDEST PUSH1 0x40 MLOAD DUP1 PUSH1 0x40 ADD PUSH1 0x40 MSTORE DUP1 PUSH0 ISZERO ISZERO DUP2 MSTORE PUSH1 0x20 ADD PUSH0 DUP2 MSTORE POP SWAP1 JUMP JUMPDEST PUSH1 0x40 MLOAD DUP1 PUSH1 0x20 ADD PUSH1 0x40 MSTORE DUP1 PUSH0 DUP2 MSTORE POP SWAP1 JUMP JUMPDEST PUSH1 0x40 MLOAD DUP1 PUSH1 0x20 ADD PUSH1 0x40 MSTORE DUP1 PUSH2 0x5FFA PUSH2 0x6042 JUMP JUMPDEST DUP2 MSTORE POP SWAP1 JUMP JUMPDEST PUSH1 0x40 MLOAD DUP1 PUSH1 0x40 ADD PUSH1 0x40 MSTORE DUP1 PUSH1 0x2 SWAP1 PUSH1 0x20 DUP3 MUL DUP1 CALLDATASIZE DUP4 CALLDATACOPY DUP1 DUP3 ADD SWAP2 POP POP SWAP1 POP POP SWAP1 JUMP JUMPDEST PUSH1 0x40 MLOAD DUP1 PUSH1 0x60 ADD PUSH1 0x40 MSTORE DUP1 PUSH0 DUP2 MSTORE PUSH1 0x20 ADD PUSH0 DUP2 MSTORE PUSH1 0x20 ADD PUSH0 ISZERO ISZERO DUP2 MSTORE POP SWAP1 JUMP JUMPDEST PUSH1 0x40 MLOAD DUP1 PUSH1 0x40 ADD PUSH1 0x40 MSTORE DUP1 PUSH0 DUP2 MSTORE PUSH1 0x20 ADD PUSH0 ISZERO ISZERO DUP2 MSTORE POP SWAP1 JUMP JUMPDEST PUSH0 DUP2 ISZERO ISZERO SWAP1 POP SWAP2 SWAP1 POP JUMP JUMPDEST PUSH2 0x6070 DUP2 PUSH2 0x605C JUMP JUMPDEST DUP3 MSTORE POP POP JUMP JUMPDEST PUSH0 DUP2 SWAP1 POP SWAP2 SWAP1 POP JUMP JUMPDEST PUSH2 0x6088 DUP2 PUSH2 0x6076 JUMP JUMPDEST DUP3 MSTORE POP POP JUMP JUMPDEST PUSH0 PUSH20 0xFFFFFFFFFFFFFFFFFFFFFFFFFFFFFFFFFFFFFFFF DUP3 AND SWAP1 POP SWAP2 SWAP1 POP JUMP JUMPDEST PUSH0 PUSH2 0x60B7 DUP3 PUSH2 0x608E JUMP JUMPDEST SWAP1 POP SWAP2 SWAP1 POP JUMP JUMPDEST PUSH2 0x60C7 DUP2 PUSH2 0x60AD JUMP JUMPDEST DUP3 MSTORE POP POP JUMP JUMPDEST PUSH1 0xC0 DUP3 ADD PUSH0 DUP3 ADD MLOAD PUSH2 0x60E1 PUSH0 DUP6 ADD DUP3 PUSH2 0x6067 JUMP JUMPDEST POP PUSH1 0x20 DUP3 ADD MLOAD PUSH2 0x60F4 PUSH1 0x20 DUP6 ADD DUP3 PUSH2 0x607F JUMP JUMPDEST POP PUSH1 0x40 DUP3 ADD MLOAD PUSH2 0x6107 PUSH1 0x40 DUP6 ADD DUP3 PUSH2 0x60BE JUMP JUMPDEST POP PUSH1 0x60 DUP3 ADD MLOAD PUSH2 0x611A PUSH1 0x60 DUP6 ADD DUP3 PUSH2 0x6067 JUMP JUMPDEST POP PUSH1 0x80 DUP3 ADD MLOAD PUSH2 0x612D PUSH1 0x80 DUP6 ADD DUP3 PUSH2 0x6067 JUMP JUMPDEST POP PUSH1 0xA0 DUP3 ADD MLOAD PUSH2 0x6140 PUSH1 0xA0 DUP6 ADD DUP3 PUSH2 0x60BE JUMP JUMPDEST POP POP POP POP JUMP JUMPDEST PUSH0 PUSH1 0xC0 DUP3 ADD SWAP1 POP PUSH2 0x6159 PUSH0 DUP4 ADD DUP5 PUSH2 0x60CD JUMP JUMPDEST SWAP3 SWAP2 POP POP JUMP JUMPDEST PUSH1 0x60 DUP3 ADD PUSH0 DUP3 ADD MLOAD PUSH2 0x6173 PUSH0 DUP6 ADD DUP3 PUSH2 0x607F JUMP JUMPDEST POP PUSH1 0x20 DUP3 ADD MLOAD PUSH2 0x6186 PUSH1 0x20 DUP6 ADD DUP3 PUSH2 0x60BE JUMP JUMPDEST POP PUSH1 0x40 DUP3 ADD MLOAD PUSH2 0x6199 PUSH1 0x40 DUP6 ADD DUP3 PUSH2 0x607F JUMP JUMPDEST POP POP POP POP JUMP JUMPDEST PUSH0 PUSH1 0x60 DUP3 ADD SWAP1 POP PUSH2 0x61B2 PUSH0 DUP4 ADD DUP5 PUSH2 0x615F JUMP JUMPDEST SWAP3 SWAP2 POP POP JUMP JUMPDEST PUSH2 0x61C1 DUP2 PUSH2 0x605C JUMP JUMPDEST DUP3 MSTORE POP POP JUMP JUMPDEST PUSH0 PUSH1 0x20 DUP3 ADD SWAP1 POP PUSH2 0x61DA PUSH0 DUP4 ADD DUP5 PUSH2 0x61B8 JUMP JUMPDEST SWAP3 SWAP2 POP POP JUMP JUMPDEST PUSH2 0x61E9 DUP2 PUSH2 0x6076 JUMP JUMPDEST DUP3 MSTORE POP POP JUMP JUMPDEST PUSH0 PUSH1 0x20 DUP3 ADD SWAP1 POP PUSH2 0x6202 PUSH0 DUP4 ADD DUP5 PUSH2 0x61E0 JUMP JUMPDEST SWAP3 SWAP2 POP POP JUMP JUMPDEST PUSH0 PUSH1 0x40 MLOAD SWAP1 POP SWAP1 JUMP JUMPDEST PUSH0 DUP1 REVERT JUMPDEST PUSH0 DUP1 REVERT JUMPDEST PUSH0 PUSH1 0x20 DUP3 DUP5 SUB SLT ISZERO PUSH2 0x622E JUMPI PUSH2 0x622D PUSH2 0x6215 JUMP JUMPDEST JUMPDEST DUP2 SWAP1 POP SWAP3 SWAP2 POP POP JUMP JUMPDEST PUSH0 PUSH1 0x20 DUP3 DUP5 SUB SLT ISZERO PUSH2 0x624C JUMPI PUSH2 0x624B PUSH2 0x6211 JUMP JUMPDEST JUMPDEST PUSH0 PUSH2 0x6259 DUP5 DUP3 DUP6 ADD PUSH2 0x6219 JUMP JUMPDEST SWAP2 POP POP SWAP3 SWAP2 POP POP JUMP JUMPDEST PUSH0 PUSH2 0x2A0 DUP3 DUP5 SUB SLT ISZERO PUSH2 0x6278 JUMPI PUSH2 0x6277 PUSH2 0x6215 JUMP JUMPDEST JUMPDEST DUP2 SWAP1 POP SWAP3 SWAP2 POP POP JUMP JUMPDEST PUSH0 PUSH2 0x2A0 DUP3 DUP5 SUB SLT ISZERO PUSH2 0x6297 JUMPI PUSH2 0x6296 PUSH2 0x6211 JUMP JUMPDEST JUMPDEST PUSH0 PUSH2 0x62A4 DUP5 DUP3 DUP6 ADD PUSH2 0x6262 JUMP JUMPDEST SWAP2 POP POP SWAP3 SWAP2 POP POP JUMP JUMPDEST PUSH0 PUSH1 0xA0 DUP3 DUP5 SUB SLT ISZERO PUSH2 0x62C2 JUMPI PUSH2 0x62C1 PUSH2 0x6215 JUMP JUMPDEST JUMPDEST DUP2 SWAP1 POP SWAP3 SWAP2 POP POP JUMP JUMPDEST PUSH0 PUSH1 0xA0 DUP3 DUP5 SUB SLT ISZERO PUSH2 0x62E0 JUMPI PUSH2 0x62DF PUSH2 0x6211 JUMP JUMPDEST JUMPDEST PUSH0 PUSH2 0x62ED DUP5 DUP3 DUP6 ADD PUSH2 0x62AD JUMP JUMPDEST SWAP2 POP POP SWAP3 SWAP2 POP POP JUMP JUMPDEST PUSH2 0x62FF DUP2 PUSH2 0x6076 JUMP JUMPDEST DUP2 EQ PUSH2 0x6309 JUMPI PUSH0 DUP1 REVERT JUMPDEST POP JUMP JUMPDEST PUSH0 DUP2 CALLDATALOAD SWAP1 POP PUSH2 0x631A DUP2 PUSH2 0x62F6 JUMP JUMPDEST SWAP3 SWAP2 POP POP JUMP JUMPDEST PUSH0 PUSH1 0x20 DUP3 DUP5 SUB SLT ISZERO PUSH2 0x6335 JUMPI PUSH2 0x6334 PUSH2 0x6211 JUMP JUMPDEST JUMPDEST PUSH0 PUSH2 0x6342 DUP5 DUP3 DUP6 ADD PUSH2 0x630C JUMP JUMPDEST SWAP2 POP POP SWAP3 SWAP2 POP POP JUMP JUMPDEST PUSH0 DUP2 MLOAD SWAP1 POP SWAP2 SWAP1 POP JUMP JUMPDEST PUSH0 DUP3 DUP3 MSTORE PUSH1 0x20 DUP3 ADD SWAP1 POP SWAP3 SWAP2 POP POP JUMP JUMPDEST DUP3 DUP2 DUP4 MCOPY PUSH0 DUP4 DUP4 ADD MSTORE POP POP POP JUMP JUMPDEST PUSH0 PUSH1 0x1F NOT PUSH1 0x1F DUP4 ADD AND SWAP1 POP SWAP2 SWAP1 POP JUMP JUMPDEST PUSH0 PUSH2 0x638D DUP3 PUSH2 0x634B JUMP JUMPDEST PUSH2 0x6397 DUP2 DUP6 PUSH2 0x6355 JUMP JUMPDEST SWAP4 POP PUSH2 0x63A7 DUP2 DUP6 PUSH1 0x20 DUP7 ADD PUSH2 0x6365 JUMP JUMPDEST PUSH2 0x63B0 DUP2 PUSH2 0x6373 JUMP JUMPDEST DUP5 ADD SWAP2 POP POP SWAP3 SWAP2 POP POP JUMP JUMPDEST PUSH0 PUSH1 0x40 DUP3 ADD SWAP1 POP PUSH2 0x63CE PUSH0 DUP4 ADD DUP6 PUSH2 0x61E0 JUMP JUMPDEST DUP2 DUP2 SUB PUSH1 0x20 DUP4 ADD MSTORE PUSH2 0x63E0 DUP2 DUP5 PUSH2 0x6383 JUMP JUMPDEST SWAP1 POP SWAP4 SWAP3 POP POP POP JUMP JUMPDEST PUSH0 PUSH1 0x60 DUP3 DUP5 SUB SLT ISZERO PUSH2 0x63FE JUMPI PUSH2 0x63FD PUSH2 0x6215 JUMP JUMPDEST JUMPDEST DUP2 SWAP1 POP SWAP3 SWAP2 POP POP JUMP JUMPDEST PUSH0 PUSH1 0x60 DUP3 DUP5 SUB SLT ISZERO PUSH2 0x641C JUMPI PUSH2 0x641B PUSH2 0x6211 JUMP JUMPDEST JUMPDEST PUSH0 PUSH2 0x6429 DUP5 DUP3 DUP6 ADD PUSH2 0x63E9 JUMP JUMPDEST SWAP2 POP POP SWAP3 SWAP2 POP POP JUMP JUMPDEST PUSH32 0x4E487B7100000000000000000000000000000000000000000000000000000000 PUSH0 MSTORE PUSH1 0x21 PUSH1 0x4 MSTORE PUSH1 0x24 PUSH0 REVERT JUMPDEST PUSH1 0x2 DUP2 LT PUSH2 0x6470 JUMPI PUSH2 0x646F PUSH2 0x6432 JUMP JUMPDEST JUMPDEST POP JUMP JUMPDEST PUSH0 DUP2 SWAP1 POP PUSH2 0x6480 DUP3 PUSH2 0x645F JUMP JUMPDEST SWAP2 SWAP1 POP JUMP JUMPDEST PUSH0 PUSH2 0x648F DUP3 PUSH2 0x6473 JUMP JUMPDEST SWAP1 POP SWAP2 SWAP1 POP JUMP JUMPDEST PUSH2 0x649F DUP2 PUSH2 0x6485 JUMP JUMPDEST DUP3 MSTORE POP POP JUMP JUMPDEST PUSH1 0xA0 DUP3 ADD PUSH0 DUP3 ADD MLOAD PUSH2 0x64B9 PUSH0 DUP6 ADD DUP3 PUSH2 0x607F JUMP JUMPDEST POP PUSH1 0x20 DUP3 ADD MLOAD PUSH2 0x64CC PUSH1 0x20 DUP6 ADD DUP3 PUSH2 0x60BE JUMP JUMPDEST POP PUSH1 0x40 DUP3 ADD MLOAD PUSH2 0x64DF PUSH1 0x40 DUP6 ADD DUP3 PUSH2 0x607F JUMP JUMPDEST POP PUSH1 0x60 DUP3 ADD MLOAD PUSH2 0x64F2 PUSH1 0x60 DUP6 ADD DUP3 PUSH2 0x6067 JUMP JUMPDEST POP PUSH1 0x80 DUP3 ADD MLOAD PUSH2 0x6505 PUSH1 0x80 DUP6 ADD DUP3 PUSH2 0x6067 JUMP JUMPDEST POP POP POP POP JUMP JUMPDEST PUSH1 0xE0 DUP3 ADD PUSH0 DUP3 ADD MLOAD PUSH2 0x651F PUSH0 DUP6 ADD DUP3 PUSH2 0x6496 JUMP JUMPDEST POP PUSH1 0x20 DUP3 ADD MLOAD PUSH2 0x6532 PUSH1 0x20 DUP6 ADD DUP3 PUSH2 0x6067 JUMP JUMPDEST POP PUSH1 0x40 DUP3 ADD MLOAD PUSH2 0x6545 PUSH1 0x40 DUP6 ADD DUP3 PUSH2 0x64A5 JUMP JUMPDEST POP POP POP POP JUMP JUMPDEST PUSH0 PUSH1 0xE0 DUP3 ADD SWAP1 POP PUSH2 0x655E PUSH0 DUP4 ADD DUP5 PUSH2 0x650B JUMP JUMPDEST SWAP3 SWAP2 POP POP JUMP JUMPDEST PUSH0 PUSH1 0x40 DUP3 DUP5 SUB SLT ISZERO PUSH2 0x6579 JUMPI PUSH2 0x6578 PUSH2 0x6215 JUMP JUMPDEST JUMPDEST DUP2 SWAP1 POP SWAP3 SWAP2 POP POP JUMP JUMPDEST PUSH0 PUSH1 0x40 DUP3 DUP5 SUB SLT ISZERO PUSH2 0x6597 JUMPI PUSH2 0x6596 PUSH2 0x6211 JUMP JUMPDEST JUMPDEST PUSH0 PUSH2 0x65A4 DUP5 DUP3 DUP6 ADD PUSH2 0x6564 JUMP JUMPDEST SWAP2 POP POP SWAP3 SWAP2 POP POP JUMP JUMPDEST PUSH1 0xA0 DUP3 ADD PUSH0 DUP3 ADD MLOAD PUSH2 0x65C1 PUSH0 DUP6 ADD DUP3 PUSH2 0x607F JUMP JUMPDEST POP PUSH1 0x20 DUP3 ADD MLOAD PUSH2 0x65D4 PUSH1 0x20 DUP6 ADD DUP3 PUSH2 0x60BE JUMP JUMPDEST POP PUSH1 0x40 DUP3 ADD MLOAD PUSH2 0x65E7 PUSH1 0x40 DUP6 ADD DUP3 PUSH2 0x607F JUMP JUMPDEST POP PUSH1 0x60 DUP3 ADD MLOAD PUSH2 0x65FA PUSH1 0x60 DUP6 ADD DUP3 PUSH2 0x6067 JUMP JUMPDEST POP PUSH1 0x80 DUP3 ADD MLOAD PUSH2 0x660D PUSH1 0x80 DUP6 ADD DUP3 PUSH2 0x6067 JUMP JUMPDEST POP POP POP POP JUMP JUMPDEST PUSH0 PUSH1 0xA0 DUP3 ADD SWAP1 POP PUSH2 0x6626 PUSH0 DUP4 ADD DUP5 PUSH2 0x65AD JUMP JUMPDEST SWAP3 SWAP2 POP POP JUMP JUMPDEST PUSH0 PUSH1 0xC0 DUP3 DUP5 SUB SLT ISZERO PUSH2 0x6641 JUMPI PUSH2 0x6640 PUSH2 0x6215 JUMP JUMPDEST JUMPDEST DUP2 SWAP1 POP SWAP3 SWAP2 POP POP JUMP JUMPDEST PUSH0 PUSH1 0xC0 DUP3 DUP5 SUB SLT ISZERO PUSH2 0x665F JUMPI PUSH2 0x665E PUSH2 0x6211 JUMP JUMPDEST JUMPDEST PUSH0 PUSH2 0x666C DUP5 DUP3 DUP6 ADD PUSH2 0x662C JUMP JUMPDEST SWAP2 POP POP SWAP3 SWAP2 POP POP JUMP JUMPDEST PUSH0 DUP1 REVERT JUMPDEST PUSH32 0x4E487B7100000000000000000000000000000000000000000000000000000000 PUSH0 MSTORE PUSH1 0x41 PUSH1 0x4 MSTORE PUSH1 0x24 PUSH0 REVERT JUMPDEST PUSH2 0x66AF DUP3 PUSH2 0x6373 JUMP JUMPDEST DUP2 ADD DUP2 DUP2 LT PUSH8 0xFFFFFFFFFFFFFFFF DUP3 GT OR ISZERO PUSH2 0x66CE JUMPI PUSH2 0x66CD PUSH2 0x6679 JUMP JUMPDEST JUMPDEST DUP1 PUSH1 0x40 MSTORE POP POP POP JUMP JUMPDEST PUSH0 PUSH2 0x66E0 PUSH2 0x6208 JUMP JUMPDEST SWAP1 POP PUSH2 0x66EC DUP3 DUP3 PUSH2 0x66A6 JUMP JUMPDEST SWAP2 SWAP1 POP JUMP JUMPDEST PUSH0 PUSH1 0x20 DUP3 DUP5 SUB SLT ISZERO PUSH2 0x6706 JUMPI PUSH2 0x6705 PUSH2 0x6675 JUMP JUMPDEST JUMPDEST PUSH2 0x6710 PUSH1 0x20 PUSH2 0x66D7 JUMP JUMPDEST SWAP1 POP PUSH0 PUSH2 0x671F DUP5 DUP3 DUP6 ADD PUSH2 0x630C JUMP JUMPDEST PUSH0 DUP4 ADD MSTORE POP SWAP3 SWAP2 POP POP JUMP JUMPDEST PUSH0 PUSH1 0x20 DUP3 DUP5 SUB SLT ISZERO PUSH2 0x673F JUMPI PUSH2 0x673E PUSH2 0x6211 JUMP JUMPDEST JUMPDEST PUSH0 PUSH2 0x674C DUP5 DUP3 DUP6 ADD PUSH2 0x66F1 JUMP JUMPDEST SWAP2 POP POP SWAP3 SWAP2 POP POP JUMP JUMPDEST PUSH1 0x7 DUP2 LT PUSH2 0x6761 JUMPI PUSH0 DUP1 REVERT JUMPDEST POP JUMP JUMPDEST PUSH0 DUP2 CALLDATALOAD SWAP1 POP PUSH2 0x6772 DUP2 PUSH2 0x6755 JUMP JUMPDEST SWAP3 SWAP2 POP POP JUMP JUMPDEST PUSH2 0x6781 DUP2 PUSH2 0x60AD JUMP JUMPDEST DUP2 EQ PUSH2 0x678B JUMPI PUSH0 DUP1 REVERT JUMPDEST POP JUMP JUMPDEST PUSH0 DUP2 CALLDATALOAD SWAP1 POP PUSH2 0x679C DUP2 PUSH2 0x6778 JUMP JUMPDEST SWAP3 SWAP2 POP POP JUMP JUMPDEST PUSH2 0x67AB DUP2 PUSH2 0x605C JUMP JUMPDEST DUP2 EQ PUSH2 0x67B5 JUMPI PUSH0 DUP1 REVERT JUMPDEST POP JUMP JUMPDEST PUSH0 DUP2 CALLDATALOAD SWAP1 POP PUSH2 0x67C6 DUP2 PUSH2 0x67A2 JUMP JUMPDEST SWAP3 SWAP2 POP POP JUMP JUMPDEST PUSH0 PUSH1 0xA0 DUP3 DUP5 SUB SLT ISZERO PUSH2 0x67E1 JUMPI PUSH2 0x67E0 PUSH2 0x6675 JUMP JUMPDEST JUMPDEST PUSH2 0x67EB PUSH1 0xA0 PUSH2 0x66D7 JUMP JUMPDEST SWAP1 POP PUSH0 PUSH2 0x67FA DUP5 DUP3 DUP6 ADD PUSH2 0x630C JUMP JUMPDEST PUSH0 DUP4 ADD MSTORE POP PUSH1 0x20 PUSH2 0x680D DUP5 DUP3 DUP6 ADD PUSH2 0x678E JUMP JUMPDEST PUSH1 0x20 DUP4 ADD MSTORE POP PUSH1 0x40 PUSH2 0x6821 DUP5 DUP3 DUP6 ADD PUSH2 0x630C JUMP JUMPDEST PUSH1 0x40 DUP4 ADD MSTORE POP PUSH1 0x60 PUSH2 0x6835 DUP5 DUP3 DUP6 ADD PUSH2 0x67B8 JUMP JUMPDEST PUSH1 0x60 DUP4 ADD MSTORE POP PUSH1 0x80 PUSH2 0x6849 DUP5 DUP3 DUP6 ADD PUSH2 0x67B8 JUMP JUMPDEST PUSH1 0x80 DUP4 ADD MSTORE POP SWAP3 SWAP2 POP POP JUMP JUMPDEST PUSH0 PUSH1 0xA0 DUP3 DUP5 SUB SLT ISZERO PUSH2 0x686A JUMPI PUSH2 0x6869 PUSH2 0x6675 JUMP JUMPDEST JUMPDEST PUSH2 0x6874 PUSH1 0x20 PUSH2 0x66D7 JUMP JUMPDEST SWAP1 POP PUSH0 PUSH2 0x6883 DUP5 DUP3 DUP6 ADD PUSH2 0x67CC JUMP JUMPDEST PUSH0 DUP4 ADD MSTORE POP SWAP3 SWAP2 POP POP JUMP JUMPDEST PUSH0 PUSH1 0xC0 DUP3 DUP5 SUB SLT ISZERO PUSH2 0x68A3 JUMPI PUSH2 0x68A2 PUSH2 0x6675 JUMP JUMPDEST JUMPDEST PUSH2 0x68AD PUSH1 0xC0 PUSH2 0x66D7 JUMP JUMPDEST SWAP1 POP PUSH0 PUSH2 0x68BC DUP5 DUP3 DUP6 ADD PUSH2 0x67B8 JUMP JUMPDEST PUSH0 DUP4 ADD MSTORE POP PUSH1 0x20 PUSH2 0x68CF DUP5 DUP3 DUP6 ADD PUSH2 0x630C JUMP JUMPDEST PUSH1 0x20 DUP4 ADD MSTORE POP PUSH1 0x40 PUSH2 0x68E3 DUP5 DUP3 DUP6 ADD PUSH2 0x678E JUMP JUMPDEST PUSH1 0x40 DUP4 ADD MSTORE POP PUSH1 0x60 PUSH2 0x68F7 DUP5 DUP3 DUP6 ADD PUSH2 0x67B8 JUMP JUMPDEST PUSH1 0x60 DUP4 ADD MSTORE POP PUSH1 0x80 PUSH2 0x690B DUP5 DUP3 DUP6 ADD PUSH2 0x67B8 JUMP JUMPDEST PUSH1 0x80 DUP4 ADD MSTORE POP PUSH1 0xA0 PUSH2 0x691F DUP5 DUP3 DUP6 ADD PUSH2 0x678E JUMP JUMPDEST PUSH1 0xA0 DUP4 ADD MSTORE POP SWAP3 SWAP2 POP POP JUMP JUMPDEST PUSH0 PUSH1 0xC0 DUP3 DUP5 SUB SLT ISZERO PUSH2 0x6940 JUMPI PUSH2 0x693F PUSH2 0x6675 JUMP JUMPDEST JUMPDEST PUSH2 0x694A PUSH1 0x20 PUSH2 0x66D7 JUMP JUMPDEST SWAP1 POP PUSH0 PUSH2 0x6959 DUP5 DUP3 DUP6 ADD PUSH2 0x688E JUMP JUMPDEST PUSH0 DUP4 ADD MSTORE POP SWAP3 SWAP2 POP POP JUMP JUMPDEST PUSH0 PUSH1 0x60 DUP3 DUP5 SUB SLT ISZERO PUSH2 0x6979 JUMPI PUSH2 0x6978 PUSH2 0x6675 JUMP JUMPDEST JUMPDEST PUSH2 0x6983 PUSH1 0x60 PUSH2 0x66D7 JUMP JUMPDEST SWAP1 POP PUSH0 PUSH2 0x6992 DUP5 DUP3 DUP6 ADD PUSH2 0x630C JUMP JUMPDEST PUSH0 DUP4 ADD MSTORE POP PUSH1 0x20 PUSH2 0x69A5 DUP5 DUP3 DUP6 ADD PUSH2 0x678E JUMP JUMPDEST PUSH1 0x20 DUP4 ADD MSTORE POP PUSH1 0x40 PUSH2 0x69B9 DUP5 DUP3 DUP6 ADD PUSH2 0x630C JUMP JUMPDEST PUSH1 0x40 DUP4 ADD MSTORE POP SWAP3 SWAP2 POP POP JUMP JUMPDEST PUSH0 PUSH1 0x60 DUP3 DUP5 SUB SLT ISZERO PUSH2 0x69DA JUMPI PUSH2 0x69D9 PUSH2 0x6675 JUMP JUMPDEST JUMPDEST PUSH2 0x69E4 PUSH1 0x20 PUSH2 0x66D7 JUMP JUMPDEST SWAP1 POP PUSH0 PUSH2 0x69F3 DUP5 DUP3 DUP6 ADD PUSH2 0x6964 JUMP JUMPDEST PUSH0 DUP4 ADD MSTORE POP SWAP3 SWAP2 POP POP JUMP JUMPDEST PUSH0 PUSH1 0x40 DUP3 DUP5 SUB SLT ISZERO PUSH2 0x6A13 JUMPI PUSH2 0x6A12 PUSH2 0x6675 JUMP JUMPDEST JUMPDEST PUSH2 0x6A1D PUSH1 0x40 PUSH2 0x66D7 JUMP JUMPDEST SWAP1 POP PUSH0 PUSH2 0x6A2C DUP5 DUP3 DUP6 ADD PUSH2 0x630C JUMP JUMPDEST PUSH0 DUP4 ADD MSTORE POP PUSH1 0x20 PUSH2 0x6A3F DUP5 DUP3 DUP6 ADD PUSH2 0x67B8 JUMP JUMPDEST PUSH1 0x20 DUP4 ADD MSTORE POP SWAP3 SWAP2 POP POP JUMP JUMPDEST PUSH0 PUSH1 0x40 DUP3 DUP5 SUB SLT ISZERO PUSH2 0x6A60 JUMPI PUSH2 0x6A5F PUSH2 0x6675 JUMP JUMPDEST JUMPDEST PUSH2 0x6A6A PUSH1 0x20 PUSH2 0x66D7 JUMP JUMPDEST SWAP1 POP PUSH0 PUSH2 0x6A79 DUP5 DUP3 DUP6 ADD PUSH2 0x69FE JUMP JUMPDEST PUSH0 DUP4 ADD MSTORE POP SWAP3 SWAP2 POP POP JUMP JUMPDEST PUSH0 PUSH2 0x280 DUP3 DUP5 SUB SLT ISZERO PUSH2 0x6A9A JUMPI PUSH2 0x6A99 PUSH2 0x6675 JUMP JUMPDEST JUMPDEST PUSH2 0x6AA5 PUSH2 0x100 PUSH2 0x66D7 JUMP JUMPDEST SWAP1 POP PUSH0 PUSH2 0x6AB4 DUP5 DUP3 DUP6 ADD PUSH2 0x6764 JUMP JUMPDEST PUSH0 DUP4 ADD MSTORE POP PUSH1 0x20 PUSH2 0x6AC7 DUP5 DUP3 DUP6 ADD PUSH2 0x6855 JUMP JUMPDEST PUSH1 0x20 DUP4 ADD MSTORE POP PUSH1 0xC0 PUSH2 0x6ADB DUP5 DUP3 DUP6 ADD PUSH2 0x66F1 JUMP JUMPDEST PUSH1 0x40 DUP4 ADD MSTORE POP PUSH1 0xE0 PUSH2 0x6AEF DUP5 DUP3 DUP6 ADD PUSH2 0x692B JUMP JUMPDEST PUSH1 0x60 DUP4 ADD MSTORE POP PUSH2 0x1A0 PUSH2 0x6B04 DUP5 DUP3 DUP6 ADD PUSH2 0x69C5 JUMP JUMPDEST PUSH1 0x80 DUP4 ADD MSTORE POP PUSH2 0x200 PUSH2 0x6B19 DUP5 DUP3 DUP6 ADD PUSH2 0x67B8 JUMP JUMPDEST PUSH1 0xA0 DUP4 ADD MSTORE POP PUSH2 0x220 PUSH2 0x6B2E DUP5 DUP3 DUP6 ADD PUSH2 0x66F1 JUMP JUMPDEST PUSH1 0xC0 DUP4 ADD MSTORE POP PUSH2 0x240 PUSH2 0x6B43 DUP5 DUP3 DUP6 ADD PUSH2 0x6A4B JUMP JUMPDEST PUSH1 0xE0 DUP4 ADD MSTORE POP SWAP3 SWAP2 POP POP JUMP JUMPDEST PUSH0 PUSH2 0x2A0 DUP3 DUP5 SUB SLT ISZERO PUSH2 0x6B65 JUMPI PUSH2 0x6B64 PUSH2 0x6675 JUMP JUMPDEST JUMPDEST PUSH2 0x6B6F PUSH1 0x40 PUSH2 0x66D7 JUMP JUMPDEST SWAP1 POP PUSH0 PUSH2 0x6B7E DUP5 DUP3 DUP6 ADD PUSH2 0x630C JUMP JUMPDEST PUSH0 DUP4 ADD MSTORE POP PUSH1 0x20 PUSH2 0x6B91 DUP5 DUP3 DUP6 ADD PUSH2 0x6A84 JUMP JUMPDEST PUSH1 0x20 DUP4 ADD MSTORE POP SWAP3 SWAP2 POP POP JUMP JUMPDEST PUSH0 PUSH2 0x2A0 DUP3 DUP5 SUB SLT ISZERO PUSH2 0x6BB3 JUMPI PUSH2 0x6BB2 PUSH2 0x6211 JUMP JUMPDEST JUMPDEST PUSH0 PUSH2 0x6BC0 DUP5 DUP3 DUP6 ADD PUSH2 0x6B4F JUMP JUMPDEST SWAP2 POP POP SWAP3 SWAP2 POP POP JUMP JUMPDEST PUSH0 PUSH1 0xA0 DUP3 DUP5 SUB SLT ISZERO PUSH2 0x6BDE JUMPI PUSH2 0x6BDD PUSH2 0x6211 JUMP JUMPDEST JUMPDEST PUSH0 PUSH2 0x6BEB DUP5 DUP3 DUP6 ADD PUSH2 0x67CC JUMP JUMPDEST SWAP2 POP POP SWAP3 SWAP2 POP POP JUMP JUMPDEST PUSH32 0x4E487B7100000000000000000000000000000000000000000000000000000000 PUSH0 MSTORE PUSH1 0x22 PUSH1 0x4 MSTORE PUSH1 0x24 PUSH0 REVERT JUMPDEST PUSH0 PUSH1 0x2 DUP3 DIV SWAP1 POP PUSH1 0x1 DUP3 AND DUP1 PUSH2 0x6C38 JUMPI PUSH1 0x7F DUP3 AND SWAP2 POP JUMPDEST PUSH1 0x20 DUP3 LT DUP2 SUB PUSH2 0x6C4B JUMPI PUSH2 0x6C4A PUSH2 0x6BF4 JUMP JUMPDEST JUMPDEST POP SWAP2 SWAP1 POP JUMP JUMPDEST PUSH0 PUSH1 0x60 DUP3 DUP5 SUB SLT ISZERO PUSH2 0x6C66 JUMPI PUSH2 0x6C65 PUSH2 0x6211 JUMP JUMPDEST JUMPDEST PUSH0 PUSH2 0x6C73 DUP5 DUP3 DUP6 ADD PUSH2 0x6964 JUMP JUMPDEST SWAP2 POP POP SWAP3 SWAP2 POP POP JUMP JUMPDEST PUSH0 PUSH1 0x40 DUP3 DUP5 SUB SLT ISZERO PUSH2 0x6C91 JUMPI PUSH2 0x6C90 PUSH2 0x6211 JUMP JUMPDEST JUMPDEST PUSH0 PUSH2 0x6C9E DUP5 DUP3 DUP6 ADD PUSH2 0x69FE JUMP JUMPDEST SWAP2 POP POP SWAP3 SWAP2 POP POP JUMP JUMPDEST PUSH0 PUSH1 0xC0 DUP3 DUP5 SUB SLT ISZERO PUSH2 0x6CBC JUMPI PUSH2 0x6CBB PUSH2 0x6211 JUMP JUMPDEST JUMPDEST PUSH0 PUSH2 0x6CC9 DUP5 DUP3 DUP6 ADD PUSH2 0x688E JUMP JUMPDEST SWAP2 POP POP SWAP3 SWAP2 POP POP JUMP JUMPDEST PUSH0 DUP2 MLOAD SWAP1 POP PUSH2 0x6CE0 DUP2 PUSH2 0x6778 JUMP JUMPDEST SWAP3 SWAP2 POP POP JUMP JUMPDEST PUSH0 DUP1 REVERT JUMPDEST PUSH0 PUSH8 0xFFFFFFFFFFFFFFFF DUP3 GT ISZERO PUSH2 0x6D04 JUMPI PUSH2 0x6D03 PUSH2 0x6679 JUMP JUMPDEST JUMPDEST PUSH1 0x20 DUP3 MUL SWAP1 POP SWAP2 SWAP1 POP JUMP JUMPDEST PUSH0 DUP1 REVERT JUMPDEST PUSH0 DUP2 MLOAD SWAP1 POP PUSH2 0x6D21 DUP2 PUSH2 0x62F6 JUMP JUMPDEST SWAP3 SWAP2 POP POP JUMP JUMPDEST PUSH0 DUP2 MLOAD SWAP1 POP PUSH2 0x6D35 DUP2 PUSH2 0x67A2 JUMP JUMPDEST SWAP3 SWAP2 POP POP JUMP JUMPDEST PUSH0 PUSH1 0x60 DUP3 DUP5 SUB SLT ISZERO PUSH2 0x6D50 JUMPI PUSH2 0x6D4F PUSH2 0x6675 JUMP JUMPDEST JUMPDEST PUSH2 0x6D5A PUSH1 0x60 PUSH2 0x66D7 JUMP JUMPDEST SWAP1 POP PUSH0 PUSH2 0x6D69 DUP5 DUP3 DUP6 ADD PUSH2 0x6D13 JUMP JUMPDEST PUSH0 DUP4 ADD MSTORE POP PUSH1 0x20 PUSH2 0x6D7C DUP5 DUP3 DUP6 ADD PUSH2 0x6D13 JUMP JUMPDEST PUSH1 0x20 DUP4 ADD MSTORE POP PUSH1 0x40 PUSH2 0x6D90 DUP5 DUP3 DUP6 ADD PUSH2 0x6D27 JUMP JUMPDEST PUSH1 0x40 DUP4 ADD MSTORE POP SWAP3 SWAP2 POP POP JUMP JUMPDEST PUSH0 PUSH2 0x6DAE PUSH2 0x6DA9 DUP5 PUSH2 0x6CEA JUMP JUMPDEST PUSH2 0x66D7 JUMP JUMPDEST SWAP1 POP DUP1 PUSH1 0x60 DUP5 MUL DUP4 ADD DUP6 DUP2 GT ISZERO PUSH2 0x6DC8 JUMPI PUSH2 0x6DC7 PUSH2 0x6D0F JUMP JUMPDEST JUMPDEST DUP4 JUMPDEST DUP2 DUP2 LT ISZERO PUSH2 0x6DF1 JUMPI DUP1 PUSH2 0x6DDD DUP9 DUP3 PUSH2 0x6D3B JUMP JUMPDEST DUP5 MSTORE PUSH1 0x20 DUP5 ADD SWAP4 POP POP PUSH1 0x60 DUP2 ADD SWAP1 POP PUSH2 0x6DCA JUMP JUMPDEST POP POP POP SWAP4 SWAP3 POP POP POP JUMP JUMPDEST PUSH0 DUP3 PUSH1 0x1F DUP4 ADD SLT PUSH2 0x6E0F JUMPI PUSH2 0x6E0E PUSH2 0x6CE6 JUMP JUMPDEST JUMPDEST PUSH1 0x2 PUSH2 0x6E1C DUP5 DUP3 DUP6 PUSH2 0x6D9C JUMP JUMPDEST SWAP2 POP POP SWAP3 SWAP2 POP POP JUMP JUMPDEST PUSH0 PUSH1 0xC0 DUP3 DUP5 SUB SLT ISZERO PUSH2 0x6E3A JUMPI PUSH2 0x6E39 PUSH2 0x6675 JUMP JUMPDEST JUMPDEST PUSH2 0x6E44 PUSH1 0xC0 PUSH2 0x66D7 JUMP JUMPDEST SWAP1 POP PUSH0 PUSH2 0x6E53 DUP5 DUP3 DUP6 ADD PUSH2 0x6D27 JUMP JUMPDEST PUSH0 DUP4 ADD MSTORE POP PUSH1 0x20 PUSH2 0x6E66 DUP5 DUP3 DUP6 ADD PUSH2 0x6D13 JUMP JUMPDEST PUSH1 0x20 DUP4 ADD MSTORE POP PUSH1 0x40 PUSH2 0x6E7A DUP5 DUP3 DUP6 ADD PUSH2 0x6CD2 JUMP JUMPDEST PUSH1 0x40 DUP4 ADD MSTORE POP PUSH1 0x60 PUSH2 0x6E8E DUP5 DUP3 DUP6 ADD PUSH2 0x6D27 JUMP JUMPDEST PUSH1 0x60 DUP4 ADD MSTORE POP PUSH1 0x80 PUSH2 0x6EA2 DUP5 DUP3 DUP6 ADD PUSH2 0x6D27 JUMP JUMPDEST PUSH1 0x80 DUP4 ADD MSTORE POP PUSH1 0xA0 PUSH2 0x6EB6 DUP5 DUP3 DUP6 ADD PUSH2 0x6CD2 JUMP JUMPDEST PUSH1 0xA0 DUP4 ADD MSTORE POP SWAP3 SWAP2 POP POP JUMP JUMPDEST PUSH0 PUSH1 0x60 DUP3 DUP5 SUB SLT ISZERO PUSH2 0x6ED7 JUMPI PUSH2 0x6ED6 PUSH2 0x6675 JUMP JUMPDEST JUMPDEST PUSH2 0x6EE1 PUSH1 0x60 PUSH2 0x66D7 JUMP JUMPDEST SWAP1 POP PUSH0 PUSH2 0x6EF0 DUP5 DUP3 DUP6 ADD PUSH2 0x6D13 JUMP JUMPDEST PUSH0 DUP4 ADD MSTORE POP PUSH1 0x20 PUSH2 0x6F03 DUP5 DUP3 DUP6 ADD PUSH2 0x6CD2 JUMP JUMPDEST PUSH1 0x20 DUP4 ADD MSTORE POP PUSH1 0x40 PUSH2 0x6F17 DUP5 DUP3 DUP6 ADD PUSH2 0x6D13 JUMP JUMPDEST PUSH1 0x40 DUP4 ADD MSTORE POP SWAP3 SWAP2 POP POP JUMP JUMPDEST PUSH0 PUSH2 0x260 DUP3 DUP5 SUB SLT ISZERO PUSH2 0x6F39 JUMPI PUSH2 0x6F38 PUSH2 0x6675 JUMP JUMPDEST JUMPDEST PUSH2 0x6F43 PUSH1 0xE0 PUSH2 0x66D7 JUMP JUMPDEST SWAP1 POP PUSH0 PUSH2 0x6F52 DUP5 DUP3 DUP6 ADD PUSH2 0x6CD2 JUMP JUMPDEST PUSH0 DUP4 ADD MSTORE POP PUSH1 0x20 PUSH2 0x6F65 DUP5 DUP3 DUP6 ADD PUSH2 0x6CD2 JUMP JUMPDEST PUSH1 0x20 DUP4 ADD MSTORE POP PUSH1 0x40 PUSH2 0x6F79 DUP5 DUP3 DUP6 ADD PUSH2 0x6CD2 JUMP JUMPDEST PUSH1 0x40 DUP4 ADD MSTORE POP PUSH1 0x60 PUSH2 0x6F8D DUP5 DUP3 DUP6 ADD PUSH2 0x6DFB JUMP JUMPDEST PUSH1 0x60 DUP4 ADD MSTORE POP PUSH2 0x120 PUSH2 0x6FA2 DUP5 DUP3 DUP6 ADD PUSH2 0x6D13 JUMP JUMPDEST PUSH1 0x80 DUP4 ADD MSTORE POP PUSH2 0x140 PUSH2 0x6FB7 DUP5 DUP3 DUP6 ADD PUSH2 0x6E25 JUMP JUMPDEST PUSH1 0xA0 DUP4 ADD MSTORE POP PUSH2 0x200 PUSH2 0x6FCC DUP5 DUP3 DUP6 ADD PUSH2 0x6EC2 JUMP JUMPDEST PUSH1 0xC0 DUP4 ADD MSTORE POP SWAP3 SWAP2 POP POP JUMP JUMPDEST PUSH0 PUSH2 0x260 DUP3 DUP5 SUB SLT ISZERO PUSH2 0x6FEE JUMPI PUSH2 0x6FED PUSH2 0x6211 JUMP JUMPDEST JUMPDEST PUSH0 PUSH2 0x6FFB DUP5 DUP3 DUP6 ADD PUSH2 0x6F23 JUMP JUMPDEST SWAP2 POP POP SWAP3 SWAP2 POP POP JUMP JUMPDEST PUSH0 PUSH8 0xFFFFFFFFFFFFFFFF DUP3 GT ISZERO PUSH2 0x701E JUMPI PUSH2 0x701D PUSH2 0x6679 JUMP JUMPDEST JUMPDEST PUSH1 0x20 DUP3 MUL SWAP1 POP SWAP2 SWAP1 POP JUMP JUMPDEST PUSH0 PUSH2 0x703B PUSH2 0x7036 DUP5 PUSH2 0x7004 JUMP JUMPDEST PUSH2 0x66D7 JUMP JUMPDEST SWAP1 POP DUP1 PUSH1 0x20 DUP5 MUL DUP4 ADD DUP6 DUP2 GT ISZERO PUSH2 0x7055 JUMPI PUSH2 0x7054 PUSH2 0x6D0F JUMP JUMPDEST JUMPDEST DUP4 JUMPDEST DUP2 DUP2 LT ISZERO PUSH2 0x707E JUMPI DUP1 PUSH2 0x706A DUP9 DUP3 PUSH2 0x6CD2 JUMP JUMPDEST DUP5 MSTORE PUSH1 0x20 DUP5 ADD SWAP4 POP POP PUSH1 0x20 DUP2 ADD SWAP1 POP PUSH2 0x7057 JUMP JUMPDEST POP POP POP SWAP4 SWAP3 POP POP POP JUMP JUMPDEST PUSH0 DUP3 PUSH1 0x1F DUP4 ADD SLT PUSH2 0x709C JUMPI PUSH2 0x709B PUSH2 0x6CE6 JUMP JUMPDEST JUMPDEST PUSH1 0x2 PUSH2 0x70A9 DUP5 DUP3 DUP6 PUSH2 0x7029 JUMP JUMPDEST SWAP2 POP POP SWAP3 SWAP2 POP POP JUMP JUMPDEST PUSH1 0x2 DUP2 LT PUSH2 0x70BE JUMPI PUSH0 DUP1 REVERT JUMPDEST POP JUMP JUMPDEST PUSH0 DUP2 MLOAD SWAP1 POP PUSH2 0x70CF DUP2 PUSH2 0x70B2 JUMP JUMPDEST SWAP3 SWAP2 POP POP JUMP JUMPDEST PUSH0 PUSH1 0x60 DUP3 DUP5 SUB SLT ISZERO PUSH2 0x70EA JUMPI PUSH2 0x70E9 PUSH2 0x6675 JUMP JUMPDEST JUMPDEST PUSH2 0x70F4 PUSH1 0x60 PUSH2 0x66D7 JUMP JUMPDEST SWAP1 POP PUSH0 PUSH2 0x7103 DUP5 DUP3 DUP6 ADD PUSH2 0x70C1 JUMP JUMPDEST PUSH0 DUP4 ADD MSTORE POP PUSH1 0x20 PUSH2 0x7116 DUP5 DUP3 DUP6 ADD PUSH2 0x6D27 JUMP JUMPDEST PUSH1 0x20 DUP4 ADD MSTORE POP PUSH1 0x40 PUSH2 0x712A DUP5 DUP3 DUP6 ADD PUSH2 0x6CD2 JUMP JUMPDEST PUSH1 0x40 DUP4 ADD MSTORE POP SWAP3 SWAP2 POP POP JUMP JUMPDEST PUSH0 PUSH2 0x260 DUP3 DUP5 SUB SLT ISZERO PUSH2 0x714C JUMPI PUSH2 0x714B PUSH2 0x6675 JUMP JUMPDEST JUMPDEST PUSH2 0x7157 PUSH2 0x140 PUSH2 0x66D7 JUMP JUMPDEST SWAP1 POP PUSH0 PUSH2 0x7166 DUP5 DUP3 DUP6 ADD PUSH2 0x70D5 JUMP JUMPDEST PUSH0 DUP4 ADD MSTORE POP PUSH1 0x60 PUSH2 0x7179 DUP5 DUP3 DUP6 ADD PUSH2 0x6D13 JUMP JUMPDEST PUSH1 0x20 DUP4 ADD MSTORE POP PUSH1 0x80 PUSH2 0x718D DUP5 DUP3 DUP6 ADD PUSH2 0x6E25 JUMP JUMPDEST PUSH1 0x40 DUP4 ADD MSTORE POP PUSH2 0x140 PUSH2 0x71A2 DUP5 DUP3 DUP6 ADD PUSH2 0x6D27 JUMP JUMPDEST PUSH1 0x60 DUP4 ADD MSTORE POP PUSH2 0x160 PUSH2 0x71B7 DUP5 DUP3 DUP6 ADD PUSH2 0x6D27 JUMP JUMPDEST PUSH1 0x80 DUP4 ADD MSTORE POP PUSH2 0x180 PUSH2 0x71CC DUP5 DUP3 DUP6 ADD PUSH2 0x6EC2 JUMP JUMPDEST PUSH1 0xA0 DUP4 ADD MSTORE POP PUSH2 0x1E0 PUSH2 0x71E1 DUP5 DUP3 DUP6 ADD PUSH2 0x6D27 JUMP JUMPDEST PUSH1 0xC0 DUP4 ADD MSTORE POP PUSH2 0x200 PUSH2 0x71F6 DUP5 DUP3 DUP6 ADD PUSH2 0x6D13 JUMP JUMPDEST PUSH1 0xE0 DUP4 ADD MSTORE POP PUSH2 0x220 PUSH2 0x720B DUP5 DUP3 DUP6 ADD PUSH2 0x6D13 JUMP JUMPDEST PUSH2 0x100 DUP4 ADD MSTORE POP PUSH2 0x240 PUSH2 0x7221 DUP5 DUP3 DUP6 ADD PUSH2 0x6D13 JUMP JUMPDEST PUSH2 0x120 DUP4 ADD MSTORE POP SWAP3 SWAP2 POP POP JUMP JUMPDEST PUSH0 PUSH2 0x620 DUP3 DUP5 SUB SLT ISZERO PUSH2 0x7244 JUMPI PUSH2 0x7243 PUSH2 0x6675 JUMP JUMPDEST JUMPDEST PUSH2 0x724F PUSH2 0x1A0 PUSH2 0x66D7 JUMP JUMPDEST SWAP1 POP PUSH0 PUSH2 0x725E DUP5 DUP3 DUP6 ADD PUSH2 0x6CD2 JUMP JUMPDEST PUSH0 DUP4 ADD MSTORE POP PUSH1 0x20 PUSH2 0x7271 DUP5 DUP3 DUP6 ADD PUSH2 0x6E25 JUMP JUMPDEST PUSH1 0x20 DUP4 ADD MSTORE POP PUSH1 0xE0 PUSH2 0x7285 DUP5 DUP3 DUP6 ADD PUSH2 0x6CD2 JUMP JUMPDEST PUSH1 0x40 DUP4 ADD MSTORE POP PUSH2 0x100 PUSH2 0x729A DUP5 DUP3 DUP6 ADD PUSH2 0x6CD2 JUMP JUMPDEST PUSH1 0x60 DUP4 ADD MSTORE POP PUSH2 0x120 PUSH2 0x72AF DUP5 DUP3 DUP6 ADD PUSH2 0x6CD2 JUMP JUMPDEST PUSH1 0x80 DUP4 ADD MSTORE POP PUSH2 0x140 PUSH2 0x72C4 DUP5 DUP3 DUP6 ADD PUSH2 0x7088 JUMP JUMPDEST PUSH1 0xA0 DUP4 ADD MSTORE POP PUSH2 0x180 PUSH2 0x72D9 DUP5 DUP3 DUP6 ADD PUSH2 0x6CD2 JUMP JUMPDEST PUSH1 0xC0 DUP4 ADD MSTORE POP PUSH2 0x1A0 PUSH2 0x72EE DUP5 DUP3 DUP6 ADD PUSH2 0x6D13 JUMP JUMPDEST PUSH1 0xE0 DUP4 ADD MSTORE POP PUSH2 0x1C0 PUSH2 0x7303 DUP5 DUP3 DUP6 ADD PUSH2 0x7136 JUMP JUMPDEST PUSH2 0x100 DUP4 ADD MSTORE POP PUSH2 0x420 PUSH2 0x7319 DUP5 DUP3 DUP6 ADD PUSH2 0x6DFB JUMP JUMPDEST PUSH2 0x120 DUP4 ADD MSTORE POP PUSH2 0x4E0 PUSH2 0x732F DUP5 DUP3 DUP6 ADD PUSH2 0x6D13 JUMP JUMPDEST PUSH2 0x140 DUP4 ADD MSTORE POP PUSH2 0x500 PUSH2 0x7345 DUP5 DUP3 DUP6 ADD PUSH2 0x6E25 JUMP JUMPDEST PUSH2 0x160 DUP4 ADD MSTORE POP PUSH2 0x5C0 PUSH2 0x735B DUP5 DUP3 DUP6 ADD PUSH2 0x6EC2 JUMP JUMPDEST PUSH2 0x180 DUP4 ADD MSTORE POP SWAP3 SWAP2 POP POP JUMP JUMPDEST PUSH0 PUSH2 0x620 DUP3 DUP5 SUB SLT ISZERO PUSH2 0x737E JUMPI PUSH2 0x737D PUSH2 0x6211 JUMP JUMPDEST JUMPDEST PUSH0 PUSH2 0x738B DUP5 DUP3 DUP6 ADD PUSH2 0x722E JUMP JUMPDEST SWAP2 POP POP SWAP3 SWAP2 POP POP JUMP JUMPDEST PUSH0 PUSH2 0x739E DUP3 PUSH2 0x608E JUMP JUMPDEST SWAP1 POP SWAP2 SWAP1 POP JUMP JUMPDEST PUSH2 0x73AE DUP2 PUSH2 0x7394 JUMP JUMPDEST DUP3 MSTORE POP POP JUMP JUMPDEST PUSH1 0x20 DUP3 ADD PUSH0 DUP3 ADD MLOAD PUSH2 0x73C8 PUSH0 DUP6 ADD DUP3 PUSH2 0x607F JUMP JUMPDEST POP POP POP POP JUMP JUMPDEST PUSH0 PUSH1 0x40 DUP3 ADD SWAP1 POP PUSH2 0x73E1 PUSH0 DUP4 ADD DUP6 PUSH2 0x73A5 JUMP JUMPDEST PUSH2 0x73EE PUSH1 0x20 DUP4 ADD DUP5 PUSH2 0x73B4 JUMP JUMPDEST SWAP4 SWAP3 POP POP POP JUMP JUMPDEST PUSH32 0x4E487B7100000000000000000000000000000000000000000000000000000000 PUSH0 MSTORE PUSH1 0x32 PUSH1 0x4 MSTORE PUSH1 0x24 PUSH0 REVERT JUMPDEST PUSH1 0x7 DUP2 LT PUSH2 0x7433 JUMPI PUSH2 0x7432 PUSH2 0x6432 JUMP JUMPDEST JUMPDEST POP JUMP JUMPDEST PUSH0 DUP2 SWAP1 POP PUSH2 0x7443 DUP3 PUSH2 0x7422 JUMP JUMPDEST SWAP2 SWAP1 POP JUMP JUMPDEST PUSH0 PUSH2 0x7452 DUP3 PUSH2 0x7436 JUMP JUMPDEST SWAP1 POP SWAP2 SWAP1 POP JUMP JUMPDEST PUSH2 0x7462 DUP2 PUSH2 0x7448 JUMP JUMPDEST DUP3 MSTORE POP POP JUMP JUMPDEST PUSH1 0xA0 DUP3 ADD PUSH0 DUP3 ADD MLOAD PUSH2 0x747C PUSH0 DUP6 ADD DUP3 PUSH2 0x64A5 JUMP JUMPDEST POP POP POP POP JUMP JUMPDEST PUSH1 0x20 DUP3 ADD PUSH0 DUP3 ADD MLOAD PUSH2 0x7496 PUSH0 DUP6 ADD DUP3 PUSH2 0x607F JUMP JUMPDEST POP POP POP POP JUMP JUMPDEST PUSH1 0xC0 DUP3 ADD PUSH0 DUP3 ADD MLOAD PUSH2 0x74B0 PUSH0 DUP6 ADD DUP3 PUSH2 0x6067 JUMP JUMPDEST POP PUSH1 0x20 DUP3 ADD MLOAD PUSH2 0x74C3 PUSH1 0x20 DUP6 ADD DUP3 PUSH2 0x607F JUMP JUMPDEST POP PUSH1 0x40 DUP3 ADD MLOAD PUSH2 0x74D6 PUSH1 0x40 DUP6 ADD DUP3 PUSH2 0x60BE JUMP JUMPDEST POP PUSH1 0x60 DUP3 ADD MLOAD PUSH2 0x74E9 PUSH1 0x60 DUP6 ADD DUP3 PUSH2 0x6067 JUMP JUMPDEST POP PUSH1 0x80 DUP3 ADD MLOAD PUSH2 0x74FC PUSH1 0x80 DUP6 ADD DUP3 PUSH2 0x6067 JUMP JUMPDEST POP PUSH1 0xA0 DUP3 ADD MLOAD PUSH2 0x750F PUSH1 0xA0 DUP6 ADD DUP3 PUSH2 0x60BE JUMP JUMPDEST POP POP POP POP JUMP JUMPDEST PUSH1 0xC0 DUP3 ADD PUSH0 DUP3 ADD MLOAD PUSH2 0x7529 PUSH0 DUP6 ADD DUP3 PUSH2 0x749C JUMP JUMPDEST POP POP POP POP JUMP JUMPDEST PUSH1 0x60 DUP3 ADD PUSH0 DUP3 ADD MLOAD PUSH2 0x7543 PUSH0 DUP6 ADD DUP3 PUSH2 0x607F JUMP JUMPDEST POP PUSH1 0x20 DUP3 ADD MLOAD PUSH2 0x7556 PUSH1 0x20 DUP6 ADD DUP3 PUSH2 0x60BE JUMP JUMPDEST POP PUSH1 0x40 DUP3 ADD MLOAD PUSH2 0x7569 PUSH1 0x40 DUP6 ADD DUP3 PUSH2 0x607F JUMP JUMPDEST POP POP POP POP JUMP JUMPDEST PUSH1 0x60 DUP3 ADD PUSH0 DUP3 ADD MLOAD PUSH2 0x7583 PUSH0 DUP6 ADD DUP3 PUSH2 0x752F JUMP JUMPDEST POP POP POP POP JUMP JUMPDEST PUSH1 0x40 DUP3 ADD PUSH0 DUP3 ADD MLOAD PUSH2 0x759D PUSH0 DUP6 ADD DUP3 PUSH2 0x607F JUMP JUMPDEST POP PUSH1 0x20 DUP3 ADD MLOAD PUSH2 0x75B0 PUSH1 0x20 DUP6 ADD DUP3 PUSH2 0x6067 JUMP JUMPDEST POP POP POP POP JUMP JUMPDEST PUSH1 0x40 DUP3 ADD PUSH0 DUP3 ADD MLOAD PUSH2 0x75CA PUSH0 DUP6 ADD DUP3 PUSH2 0x7589 JUMP JUMPDEST POP POP POP POP JUMP JUMPDEST PUSH2 0x280 DUP3 ADD PUSH0 DUP3 ADD MLOAD PUSH2 0x75E5 PUSH0 DUP6 ADD DUP3 PUSH2 0x7459 JUMP JUMPDEST POP PUSH1 0x20 DUP3 ADD MLOAD PUSH2 0x75F8 PUSH1 0x20 DUP6 ADD DUP3 PUSH2 0x7468 JUMP JUMPDEST POP PUSH1 0x40 DUP3 ADD MLOAD PUSH2 0x760B PUSH1 0xC0 DUP6 ADD DUP3 PUSH2 0x7482 JUMP JUMPDEST POP PUSH1 0x60 DUP3 ADD MLOAD PUSH2 0x761E PUSH1 0xE0 DUP6 ADD DUP3 PUSH2 0x7515 JUMP JUMPDEST POP PUSH1 0x80 DUP3 ADD MLOAD PUSH2 0x7632 PUSH2 0x1A0 DUP6 ADD DUP3 PUSH2 0x756F JUMP JUMPDEST POP PUSH1 0xA0 DUP3 ADD MLOAD PUSH2 0x7646 PUSH2 0x200 DUP6 ADD DUP3 PUSH2 0x6067 JUMP JUMPDEST POP PUSH1 0xC0 DUP3 ADD MLOAD PUSH2 0x765A PUSH2 0x220 DUP6 ADD DUP3 PUSH2 0x7482 JUMP JUMPDEST POP PUSH1 0xE0 DUP3 ADD MLOAD PUSH2 0x766E PUSH2 0x240 DUP6 ADD DUP3 PUSH2 0x75B6 JUMP JUMPDEST POP POP POP POP JUMP JUMPDEST PUSH2 0x2A0 DUP3 ADD PUSH0 DUP3 ADD MLOAD PUSH2 0x7689 PUSH0 DUP6 ADD DUP3 PUSH2 0x607F JUMP JUMPDEST POP PUSH1 0x20 DUP3 ADD MLOAD PUSH2 0x769C PUSH1 0x20 DUP6 ADD DUP3 PUSH2 0x75D0 JUMP JUMPDEST POP POP POP POP JUMP JUMPDEST PUSH0 PUSH2 0x2C0 DUP3 ADD SWAP1 POP PUSH2 0x76B6 PUSH0 DUP4 ADD DUP6 PUSH2 0x73A5 JUMP JUMPDEST PUSH2 0x76C3 PUSH1 0x20 DUP4 ADD DUP5 PUSH2 0x7674 JUMP JUMPDEST SWAP4 SWAP3 POP POP POP JUMP JUMPDEST PUSH0 PUSH2 0x360 DUP3 DUP5 SUB SLT ISZERO PUSH2 0x76E0 JUMPI PUSH2 0x76DF PUSH2 0x6675 JUMP JUMPDEST JUMPDEST PUSH2 0x76EB PUSH2 0x120 PUSH2 0x66D7 JUMP JUMPDEST SWAP1 POP PUSH0 PUSH2 0x76FA DUP5 DUP3 DUP6 ADD PUSH2 0x6CD2 JUMP JUMPDEST PUSH0 DUP4 ADD MSTORE POP PUSH1 0x20 PUSH2 0x770D DUP5 DUP3 DUP6 ADD PUSH2 0x6E25 JUMP JUMPDEST PUSH1 0x20 DUP4 ADD MSTORE POP PUSH1 0xE0 PUSH2 0x7721 DUP5 DUP3 DUP6 ADD PUSH2 0x6CD2 JUMP JUMPDEST PUSH1 0x40 DUP4 ADD MSTORE POP PUSH2 0x100 PUSH2 0x7736 DUP5 DUP3 DUP6 ADD PUSH2 0x6E25 JUMP JUMPDEST PUSH1 0x60 DUP4 ADD MSTORE POP PUSH2 0x1C0 PUSH2 0x774B DUP5 DUP3 DUP6 ADD PUSH2 0x6EC2 JUMP JUMPDEST PUSH1 0x80 DUP4 ADD MSTORE POP PUSH2 0x220 PUSH2 0x7760 DUP5 DUP3 DUP6 ADD PUSH2 0x6CD2 JUMP JUMPDEST PUSH1 0xA0 DUP4 ADD MSTORE POP PUSH2 0x240 PUSH2 0x7775 DUP5 DUP3 DUP6 ADD PUSH2 0x6CD2 JUMP JUMPDEST PUSH1 0xC0 DUP4 ADD MSTORE POP PUSH2 0x260 PUSH2 0x778A DUP5 DUP3 DUP6 ADD PUSH2 0x6DFB JUMP JUMPDEST PUSH1 0xE0 DUP4 ADD MSTORE POP PUSH2 0x320 PUSH2 0x779F DUP5 DUP3 DUP6 ADD PUSH2 0x7088 JUMP JUMPDEST PUSH2 0x100 DUP4 ADD MSTORE POP SWAP3 SWAP2 POP POP JUMP JUMPDEST PUSH0 PUSH2 0x360 DUP3 DUP5 SUB SLT ISZERO PUSH2 0x77C2 JUMPI PUSH2 0x77C1 PUSH2 0x6211 JUMP JUMPDEST JUMPDEST PUSH0 PUSH2 0x77CF DUP5 DUP3 DUP6 ADD PUSH2 0x76CA JUMP JUMPDEST SWAP2 POP POP SWAP3 SWAP2 POP POP JUMP JUMPDEST PUSH0 PUSH1 0x2 SWAP1 POP SWAP2 SWAP1 POP JUMP JUMPDEST PUSH0 DUP2 SWAP1 POP SWAP3 SWAP2 POP POP JUMP JUMPDEST PUSH0 DUP2 SWAP1 POP SWAP2 SWAP1 POP JUMP JUMPDEST PUSH0 PUSH2 0x7800 DUP4 DUP4 PUSH2 0x60BE JUMP JUMPDEST PUSH1 0x20 DUP4 ADD SWAP1 POP SWAP3 SWAP2 POP POP JUMP JUMPDEST PUSH0 PUSH1 0x20 DUP3 ADD SWAP1 POP SWAP2 SWAP1 POP JUMP JUMPDEST PUSH2 0x7821 DUP2 PUSH2 0x77D8 JUMP JUMPDEST PUSH2 0x782B DUP2 DUP5 PUSH2 0x77E2 JUMP JUMPDEST SWAP3 POP PUSH2 0x7836 DUP3 PUSH2 0x77EC JUMP JUMPDEST DUP1 PUSH0 JUMPDEST DUP4 DUP2 LT ISZERO PUSH2 0x7866 JUMPI DUP2 MLOAD PUSH2 0x784D DUP8 DUP3 PUSH2 0x77F5 JUMP JUMPDEST SWAP7 POP PUSH2 0x7858 DUP4 PUSH2 0x780C JUMP JUMPDEST SWAP3 POP POP PUSH1 0x1 DUP2 ADD SWAP1 POP PUSH2 0x7839 JUMP JUMPDEST POP POP POP POP POP POP JUMP JUMPDEST PUSH1 0x2 DUP2 LT PUSH2 0x787F JUMPI PUSH2 0x787E PUSH2 0x6432 JUMP JUMPDEST JUMPDEST POP JUMP JUMPDEST PUSH0 DUP2 SWAP1 POP PUSH2 0x788F DUP3 PUSH2 0x786E JUMP JUMPDEST SWAP2 SWAP1 POP JUMP JUMPDEST PUSH0 PUSH2 0x789E DUP3 PUSH2 0x7882 JUMP JUMPDEST SWAP1 POP SWAP2 SWAP1 POP JUMP JUMPDEST PUSH2 0x78AE DUP2 PUSH2 0x7894 JUMP JUMPDEST DUP3 MSTORE POP POP JUMP JUMPDEST PUSH1 0x60 DUP3 ADD PUSH0 DUP3 ADD MLOAD PUSH2 0x78C8 PUSH0 DUP6 ADD DUP3 PUSH2 0x78A5 JUMP JUMPDEST POP PUSH1 0x20 DUP3 ADD MLOAD PUSH2 0x78DB PUSH1 0x20 DUP6 ADD DUP3 PUSH2 0x6067 JUMP JUMPDEST POP PUSH1 0x40 DUP3 ADD MLOAD PUSH2 0x78EE PUSH1 0x40 DUP6 ADD DUP3 PUSH2 0x60BE JUMP JUMPDEST POP POP POP POP JUMP JUMPDEST PUSH2 0x260 DUP3 ADD PUSH0 DUP3 ADD MLOAD PUSH2 0x7909 PUSH0 DUP6 ADD DUP3 PUSH2 0x78B4 JUMP JUMPDEST POP PUSH1 0x20 DUP3 ADD MLOAD PUSH2 0x791C PUSH1 0x60 DUP6 ADD DUP3 PUSH2 0x607F JUMP JUMPDEST POP PUSH1 0x40 DUP3 ADD MLOAD PUSH2 0x792F PUSH1 0x80 DUP6 ADD DUP3 PUSH2 0x749C JUMP JUMPDEST POP PUSH1 0x60 DUP3 ADD MLOAD PUSH2 0x7943 PUSH2 0x140 DUP6 ADD DUP3 PUSH2 0x6067 JUMP JUMPDEST POP PUSH1 0x80 DUP3 ADD MLOAD PUSH2 0x7957 PUSH2 0x160 DUP6 ADD DUP3 PUSH2 0x6067 JUMP JUMPDEST POP PUSH1 0xA0 DUP3 ADD MLOAD PUSH2 0x796B PUSH2 0x180 DUP6 ADD DUP3 PUSH2 0x752F JUMP JUMPDEST POP PUSH1 0xC0 DUP3 ADD MLOAD PUSH2 0x797F PUSH2 0x1E0 DUP6 ADD DUP3 PUSH2 0x6067 JUMP JUMPDEST POP PUSH1 0xE0 DUP3 ADD MLOAD PUSH2 0x7993 PUSH2 0x200 DUP6 ADD DUP3 PUSH2 0x607F JUMP JUMPDEST POP PUSH2 0x100 DUP3 ADD MLOAD PUSH2 0x79A8 PUSH2 0x220 DUP6 ADD DUP3 PUSH2 0x607F JUMP JUMPDEST POP PUSH2 0x120 DUP3 ADD MLOAD PUSH2 0x79BD PUSH2 0x240 DUP6 ADD DUP3 PUSH2 0x607F JUMP JUMPDEST POP POP POP POP JUMP JUMPDEST PUSH0 PUSH1 0x2 SWAP1 POP SWAP2 SWAP1 POP JUMP JUMPDEST PUSH0 DUP2 SWAP1 POP SWAP3 SWAP2 POP POP JUMP JUMPDEST PUSH0 DUP2 SWAP1 POP SWAP2 SWAP1 POP JUMP JUMPDEST PUSH1 0x60 DUP3 ADD PUSH0 DUP3 ADD MLOAD PUSH2 0x79F4 PUSH0 DUP6 ADD DUP3 PUSH2 0x607F JUMP JUMPDEST POP PUSH1 0x20 DUP3 ADD MLOAD PUSH2 0x7A07 PUSH1 0x20 DUP6 ADD DUP3 PUSH2 0x607F JUMP JUMPDEST POP PUSH1 0x40 DUP3 ADD MLOAD PUSH2 0x7A1A PUSH1 0x40 DUP6 ADD DUP3 PUSH2 0x6067 JUMP JUMPDEST POP POP POP POP JUMP JUMPDEST PUSH0 PUSH2 0x7A2B DUP4 DUP4 PUSH2 0x79E0 JUMP JUMPDEST PUSH1 0x60 DUP4 ADD SWAP1 POP SWAP3 SWAP2 POP POP JUMP JUMPDEST PUSH0 PUSH1 0x20 DUP3 ADD SWAP1 POP SWAP2 SWAP1 POP JUMP JUMPDEST PUSH2 0x7A4C DUP2 PUSH2 0x79C3 JUMP JUMPDEST PUSH2 0x7A56 DUP2 DUP5 PUSH2 0x79CD JUMP JUMPDEST SWAP3 POP PUSH2 0x7A61 DUP3 PUSH2 0x79D7 JUMP JUMPDEST DUP1 PUSH0 JUMPDEST DUP4 DUP2 LT ISZERO PUSH2 0x7A91 JUMPI DUP2 MLOAD PUSH2 0x7A78 DUP8 DUP3 PUSH2 0x7A20 JUMP JUMPDEST SWAP7 POP PUSH2 0x7A83 DUP4 PUSH2 0x7A37 JUMP JUMPDEST SWAP3 POP POP PUSH1 0x1 DUP2 ADD SWAP1 POP PUSH2 0x7A64 JUMP JUMPDEST POP POP POP POP POP POP JUMP JUMPDEST PUSH2 0x620 DUP3 ADD PUSH0 DUP3 ADD MLOAD PUSH2 0x7AAE PUSH0 DUP6 ADD DUP3 PUSH2 0x60BE JUMP JUMPDEST POP PUSH1 0x20 DUP3 ADD MLOAD PUSH2 0x7AC1 PUSH1 0x20 DUP6 ADD DUP3 PUSH2 0x749C JUMP JUMPDEST POP PUSH1 0x40 DUP3 ADD MLOAD PUSH2 0x7AD4 PUSH1 0xE0 DUP6 ADD DUP3 PUSH2 0x60BE JUMP JUMPDEST POP PUSH1 0x60 DUP3 ADD MLOAD PUSH2 0x7AE8 PUSH2 0x100 DUP6 ADD DUP3 PUSH2 0x60BE JUMP JUMPDEST POP PUSH1 0x80 DUP3 ADD MLOAD PUSH2 0x7AFC PUSH2 0x120 DUP6 ADD DUP3 PUSH2 0x60BE JUMP JUMPDEST POP PUSH1 0xA0 DUP3 ADD MLOAD PUSH2 0x7B10 PUSH2 0x140 DUP6 ADD DUP3 PUSH2 0x7818 JUMP JUMPDEST POP PUSH1 0xC0 DUP3 ADD MLOAD PUSH2 0x7B24 PUSH2 0x180 DUP6 ADD DUP3 PUSH2 0x60BE JUMP JUMPDEST POP PUSH1 0xE0 DUP3 ADD MLOAD PUSH2 0x7B38 PUSH2 0x1A0 DUP6 ADD DUP3 PUSH2 0x607F JUMP JUMPDEST POP PUSH2 0x100 DUP3 ADD MLOAD PUSH2 0x7B4D PUSH2 0x1C0 DUP6 ADD DUP3 PUSH2 0x78F4 JUMP JUMPDEST POP PUSH2 0x120 DUP3 ADD MLOAD PUSH2 0x7B62 PUSH2 0x420 DUP6 ADD DUP3 PUSH2 0x7A43 JUMP JUMPDEST POP PUSH2 0x140 DUP3 ADD MLOAD PUSH2 0x7B77 PUSH2 0x4E0 DUP6 ADD DUP3 PUSH2 0x607F JUMP JUMPDEST POP PUSH2 0x160 DUP3 ADD MLOAD PUSH2 0x7B8C PUSH2 0x500 DUP6 ADD DUP3 PUSH2 0x749C JUMP JUMPDEST POP PUSH2 0x180 DUP3 ADD MLOAD PUSH2 0x7BA1 PUSH2 0x5C0 DUP6 ADD DUP3 PUSH2 0x752F JUMP JUMPDEST POP POP POP POP JUMP JUMPDEST PUSH0 PUSH2 0x620 DUP3 ADD SWAP1 POP PUSH2 0x7BBB PUSH0 DUP4 ADD DUP5 PUSH2 0x7A99 JUMP JUMPDEST SWAP3 SWAP2 POP POP JUMP JUMPDEST PUSH0 DUP2 SWAP1 POP DUP2 PUSH0 MSTORE PUSH1 0x20 PUSH0 KECCAK256 SWAP1 POP SWAP2 SWAP1 POP JUMP JUMPDEST PUSH0 PUSH1 0x20 PUSH1 0x1F DUP4 ADD DIV SWAP1 POP SWAP2 SWAP1 POP JUMP JUMPDEST PUSH0 DUP3 DUP3 SHL SWAP1 POP SWAP3 SWAP2 POP POP JUMP JUMPDEST PUSH0 PUSH1 0x8 DUP4 MUL PUSH2 0x7C1D PUSH32 0xFFFFFFFFFFFFFFFFFFFFFFFFFFFFFFFFFFFFFFFFFFFFFFFFFFFFFFFFFFFFFFFF DUP3 PUSH2 0x7BE2 JUMP JUMPDEST PUSH2 0x7C27 DUP7 DUP4 PUSH2 0x7BE2 JUMP JUMPDEST SWAP6 POP DUP1 NOT DUP5 AND SWAP4 POP DUP1 DUP7 AND DUP5 OR SWAP3 POP POP POP SWAP4 SWAP3 POP POP POP JUMP JUMPDEST PUSH0 DUP2 SWAP1 POP SWAP2 SWAP1 POP JUMP JUMPDEST PUSH0 PUSH2 0x7C62 PUSH2 0x7C5D PUSH2 0x7C58 DUP5 PUSH2 0x6076 JUMP JUMPDEST PUSH2 0x7C3F JUMP JUMPDEST PUSH2 0x6076 JUMP JUMPDEST SWAP1 POP SWAP2 SWAP1 POP JUMP JUMPDEST PUSH0 DUP2 SWAP1 POP SWAP2 SWAP1 POP JUMP JUMPDEST PUSH2 0x7C7B DUP4 PUSH2 0x7C48 JUMP JUMPDEST PUSH2 0x7C8F PUSH2 0x7C87 DUP3 PUSH2 0x7C69 JUMP JUMPDEST DUP5 DUP5 SLOAD PUSH2 0x7BEE JUMP JUMPDEST DUP3 SSTORE POP POP POP POP JUMP JUMPDEST PUSH0 SWAP1 JUMP JUMPDEST PUSH2 0x7CA3 PUSH2 0x7C97 JUMP JUMPDEST PUSH2 0x7CAE DUP2 DUP5 DUP5 PUSH2 0x7C72 JUMP JUMPDEST POP POP POP JUMP JUMPDEST JUMPDEST DUP2 DUP2 LT ISZERO PUSH2 0x7CD1 JUMPI PUSH2 0x7CC6 PUSH0 DUP3 PUSH2 0x7C9B JUMP JUMPDEST PUSH1 0x1 DUP2 ADD SWAP1 POP PUSH2 0x7CB4 JUMP JUMPDEST POP POP JUMP JUMPDEST PUSH1 0x1F DUP3 GT ISZERO PUSH2 0x7D16 JUMPI PUSH2 0x7CE7 DUP2 PUSH2 0x7BC1 JUMP JUMPDEST PUSH2 0x7CF0 DUP5 PUSH2 0x7BD3 JUMP JUMPDEST DUP2 ADD PUSH1 0x20 DUP6 LT ISZERO PUSH2 0x7CFF JUMPI DUP2 SWAP1 POP JUMPDEST PUSH2 0x7D13 PUSH2 0x7D0B DUP6 PUSH2 0x7BD3 JUMP JUMPDEST DUP4 ADD DUP3 PUSH2 0x7CB3 JUMP JUMPDEST POP POP JUMPDEST POP POP POP JUMP JUMPDEST PUSH0 DUP3 DUP3 SHR SWAP1 POP SWAP3 SWAP2 POP POP JUMP JUMPDEST PUSH0 PUSH2 0x7D36 PUSH0 NOT DUP5 PUSH1 0x8 MUL PUSH2 0x7D1B JUMP JUMPDEST NOT DUP1 DUP4 AND SWAP2 POP POP SWAP3 SWAP2 POP POP JUMP JUMPDEST PUSH0 PUSH2 0x7D4E DUP4 DUP4 PUSH2 0x7D27 JUMP JUMPDEST SWAP2 POP DUP3 PUSH1 0x2 MUL DUP3 OR SWAP1 POP SWAP3 SWAP2 POP POP JUMP JUMPDEST PUSH2 0x7D67 DUP3 PUSH2 0x634B JUMP JUMPDEST PUSH8 0xFFFFFFFFFFFFFFFF DUP2 GT ISZERO PUSH2 0x7D80 JUMPI PUSH2 0x7D7F PUSH2 0x6679 JUMP JUMPDEST JUMPDEST PUSH2 0x7D8A DUP3 SLOAD PUSH2 0x6C21 JUMP JUMPDEST PUSH2 0x7D95 DUP3 DUP3 DUP6 PUSH2 0x7CD5 JUMP JUMPDEST PUSH0 PUSH1 0x20 SWAP1 POP PUSH1 0x1F DUP4 GT PUSH1 0x1 DUP2 EQ PUSH2 0x7DC6 JUMPI PUSH0 DUP5 ISZERO PUSH2 0x7DB4 JUMPI DUP3 DUP8 ADD MLOAD SWAP1 POP JUMPDEST PUSH2 0x7DBE DUP6 DUP3 PUSH2 0x7D43 JUMP JUMPDEST DUP7 SSTORE POP PUSH2 0x7E25 JUMP JUMPDEST PUSH1 0x1F NOT DUP5 AND PUSH2 0x7DD4 DUP7 PUSH2 0x7BC1 JUMP JUMPDEST PUSH0 JUMPDEST DUP3 DUP2 LT ISZERO PUSH2 0x7DFB JUMPI DUP5 DUP10 ADD MLOAD DUP3 SSTORE PUSH1 0x1 DUP3 ADD SWAP2 POP PUSH1 0x20 DUP6 ADD SWAP5 POP PUSH1 0x20 DUP2 ADD SWAP1 POP PUSH2 0x7DD6 JUMP JUMPDEST DUP7 DUP4 LT ISZERO PUSH2 0x7E18 JUMPI DUP5 DUP10 ADD MLOAD PUSH2 0x7E14 PUSH1 0x1F DUP10 AND DUP3 PUSH2 0x7D27 JUMP JUMPDEST DUP4 SSTORE POP JUMPDEST PUSH1 0x1 PUSH1 0x2 DUP9 MUL ADD DUP9 SSTORE POP POP POP JUMPDEST POP POP POP POP POP POP JUMP JUMPDEST PUSH2 0x260 DUP3 ADD PUSH0 DUP3 ADD MLOAD PUSH2 0x7E42 PUSH0 DUP6 ADD DUP3 PUSH2 0x60BE JUMP JUMPDEST POP PUSH1 0x20 DUP3 ADD MLOAD PUSH2 0x7E55 PUSH1 0x20 DUP6 ADD DUP3 PUSH2 0x60BE JUMP JUMPDEST POP PUSH1 0x40 DUP3 ADD MLOAD PUSH2 0x7E68 PUSH1 0x40 DUP6 ADD DUP3 PUSH2 0x60BE JUMP JUMPDEST POP PUSH1 0x60 DUP3 ADD MLOAD PUSH2 0x7E7B PUSH1 0x60 DUP6 ADD DUP3 PUSH2 0x7A43 JUMP JUMPDEST POP PUSH1 0x80 DUP3 ADD MLOAD PUSH2 0x7E8F PUSH2 0x120 DUP6 ADD DUP3 PUSH2 0x607F JUMP JUMPDEST POP PUSH1 0xA0 DUP3 ADD MLOAD PUSH2 0x7EA3 PUSH2 0x140 DUP6 ADD DUP3 PUSH2 0x749C JUMP JUMPDEST POP PUSH1 0xC0 DUP3 ADD MLOAD PUSH2 0x7EB7 PUSH2 0x200 DUP6 ADD DUP3 PUSH2 0x752F JUMP JUMPDEST POP POP POP POP JUMP JUMPDEST PUSH0 PUSH2 0x260 DUP3 ADD SWAP1 POP PUSH2 0x7ED1 PUSH0 DUP4 ADD DUP5 PUSH2 0x7E2D JUMP JUMPDEST SWAP3 SWAP2 POP POP JUMP JUMPDEST PUSH32 0x4E487B7100000000000000000000000000000000000000000000000000000000 PUSH0 MSTORE PUSH1 0x11 PUSH1 0x4 MSTORE PUSH1 0x24 PUSH0 REVERT JUMPDEST PUSH0 PUSH2 0x7F0E DUP3 PUSH2 0x6076 JUMP JUMPDEST SWAP2 POP PUSH2 0x7F19 DUP4 PUSH2 0x6076 JUMP JUMPDEST SWAP3 POP DUP3 DUP3 ADD SWAP1 POP DUP1 DUP3 GT ISZERO PUSH2 0x7F31 JUMPI PUSH2 0x7F30 PUSH2 0x7ED7 JUMP JUMPDEST JUMPDEST SWAP3 SWAP2 POP POP JUMP JUMPDEST PUSH0 DUP3 DUP3 MSTORE PUSH1 0x20 DUP3 ADD SWAP1 POP SWAP3 SWAP2 POP POP JUMP JUMPDEST PUSH32 0x616464206F766572666C6F770000000000000000000000000000000000000000 PUSH0 DUP3 ADD MSTORE POP JUMP JUMPDEST PUSH0 PUSH2 0x7F7B PUSH1 0xC DUP4 PUSH2 0x7F37 JUMP JUMPDEST SWAP2 POP PUSH2 0x7F86 DUP3 PUSH2 0x7F47 JUMP JUMPDEST PUSH1 0x20 DUP3 ADD SWAP1 POP SWAP2 SWAP1 POP JUMP JUMPDEST PUSH0 PUSH1 0x20 DUP3 ADD SWAP1 POP DUP2 DUP2 SUB PUSH0 DUP4 ADD MSTORE PUSH2 0x7FA8 DUP2 PUSH2 0x7F6F JUMP JUMPDEST SWAP1 POP SWAP2 SWAP1 POP JUMP JUMPDEST PUSH0 PUSH2 0x7FB9 DUP3 PUSH2 0x6076 JUMP JUMPDEST SWAP2 POP PUSH2 0x7FC4 DUP4 PUSH2 0x6076 JUMP JUMPDEST SWAP3 POP DUP3 DUP3 SUB SWAP1 POP DUP2 DUP2 GT ISZERO PUSH2 0x7FDC JUMPI PUSH2 0x7FDB PUSH2 0x7ED7 JUMP JUMPDEST JUMPDEST SWAP3 SWAP2 POP POP JUMP JUMPDEST PUSH32 0x737562207772617061726F756E64000000000000000000000000000000000000 PUSH0 DUP3 ADD MSTORE POP JUMP JUMPDEST PUSH0 PUSH2 0x8016 PUSH1 0xE DUP4 PUSH2 0x7F37 JUMP JUMPDEST SWAP2 POP PUSH2 0x8021 DUP3 PUSH2 0x7FE2 JUMP JUMPDEST PUSH1 0x20 DUP3 ADD SWAP1 POP SWAP2 SWAP1 POP JUMP JUMPDEST PUSH0 PUSH1 0x20 DUP3 ADD SWAP1 POP DUP2 DUP2 SUB PUSH0 DUP4 ADD MSTORE PUSH2 0x8043 DUP2 PUSH2 0x800A JUMP JUMPDEST SWAP1 POP SWAP2 SWAP1 POP JUMP JUMPDEST PUSH0 PUSH1 0x40 DUP3 ADD SWAP1 POP PUSH2 0x805D PUSH0 DUP4 ADD DUP6 PUSH2 0x73A5 JUMP JUMPDEST PUSH2 0x806A PUSH1 0x20 DUP4 ADD DUP5 PUSH2 0x61E0 JUMP JUMPDEST SWAP4 SWAP3 POP POP POP JUMP JUMPDEST PUSH0 DUP2 SWAP1 POP SWAP3 SWAP2 POP POP JUMP JUMPDEST PUSH0 PUSH2 0x8085 DUP3 PUSH2 0x634B JUMP JUMPDEST PUSH2 0x808F DUP2 DUP6 PUSH2 0x8071 JUMP JUMPDEST SWAP4 POP PUSH2 0x809F DUP2 DUP6 PUSH1 0x20 DUP7 ADD PUSH2 0x6365 JUMP JUMPDEST DUP1 DUP5 ADD SWAP2 POP POP SWAP3 SWAP2 POP POP JUMP JUMPDEST PUSH0 PUSH2 0x80B6 DUP3 DUP5 PUSH2 0x807B JUMP JUMPDEST SWAP2 POP DUP2 SWAP1 POP SWAP3 SWAP2 POP POP JUMP JUMPDEST PUSH0 PUSH1 0x20 DUP3 DUP5 SUB SLT ISZERO PUSH2 0x80D6 JUMPI PUSH2 0x80D5 PUSH2 0x6211 JUMP JUMPDEST JUMPDEST PUSH0 PUSH2 0x80E3 DUP5 DUP3 DUP6 ADD PUSH2 0x6D27 JUMP JUMPDEST SWAP2 POP POP SWAP3 SWAP2 POP POP JUMP JUMPDEST PUSH0 PUSH1 0x60 DUP3 ADD SWAP1 POP PUSH2 0x80FF PUSH0 DUP4 ADD DUP7 PUSH2 0x73A5 JUMP JUMPDEST PUSH2 0x810C PUSH1 0x20 DUP4 ADD DUP6 PUSH2 0x73A5 JUMP JUMPDEST PUSH2 0x8119 PUSH1 0x40 DUP4 ADD DUP5 PUSH2 0x61E0 JUMP JUMPDEST SWAP5 SWAP4 POP POP POP POP JUMP INVALID LOG2 PUSH5 0x6970667358 0x22 SLT KECCAK256 CHAINID 0xAF CALLDATASIZE DUP3 0xC9 PUSH7 0xFF00187D7DB0B1 0xB0 0xC8 CREATE PUSH28 0x7806DC0C1AF35107B1846493589E9964736F6C634300081900330000 "
		},
		"gasEstimates": {
			"creation": {
				"codeDepositCost": "6622200",
				"executionCost": "infinite",
				"totalCost": "infinite"
			},
			"external": {
				"": "196",
				"Admin_api_acceptOffer((uint256,address,uint256,bool,bool))": "infinite",
				"Admin_api_cancelLoanOfferandWithdrawCollateral(uint256)": "infinite",
				"Admin_api_updateConfig((bool,uint256,address,bool,bool,address))": "infinite",
				"Admin_api_updateLoanTerms_info((uint256,address,uint256))": "infinite",
				"_reachCreationTime()": "2522",
				"_reachCurrentState()": "infinite",
				"_reachCurrentTime()": "2521",
				"_reachm_0Ref(uint256)": "infinite",
				"_reachp_1((uint256))": "infinite",
				"_reachp_3((uint256))": "infinite",
				"_reachp_4((uint256,(uint8,((uint256,address,uint256,bool,bool)),(uint256),((bool,uint256,address,bool,bool,address)),((uint256,address,uint256)),bool,(uint256),((uint256,bool)))))": "infinite",
				"info_config()": "infinite",
				"info_loanTerms()": "infinite",
				"info_offer(uint256)": "infinite",
				"user_acceptLoan()": "infinite",
				"user_cancelOffer(uint256)": "infinite",
				"user_makeOffer((uint256,bool))": "infinite"
			},
			"internal": {
				"__reachm_0Ref(uint256)": "infinite",
				"_reacha_Admin_api_acceptOffer(struct T0 memory,struct ReachContract.Memory memory)": "infinite",
				"_reacha_Admin_api_cancelLoanOfferandWithdrawCollateral(uint256,struct ReachContract.Memory memory)": "infinite",
				"_reacha_Admin_api_updateConfig(struct T2 memory,struct ReachContract.Memory memory)": "infinite",
				"_reacha_Admin_api_updateLoanTerms_info(struct T3 memory,struct ReachContract.Memory memory)": "infinite",
				"_reacha_info_config(bool,struct ReachContract.Memory memory)": "infinite",
				"_reacha_info_loanTerms(bool,struct ReachContract.Memory memory)": "infinite",
				"_reacha_info_offer(uint256,struct ReachContract.Memory memory)": "infinite",
				"_reacha_user_acceptLoan(bool,struct ReachContract.Memory memory)": "infinite",
				"_reacha_user_cancelOffer(uint256,struct ReachContract.Memory memory)": "infinite",
				"_reacha_user_makeOffer(struct T9 memory,struct ReachContract.Memory memory)": "infinite",
				"_reachi_0(struct T20 memory,struct ReachContract.Memory memory)": "infinite",
				"_reachi_1(struct T5 memory,struct ReachContract.Memory memory)": "infinite",
				"_reachi_3(struct T5 memory,struct ReachContract.Memory memory)": "infinite",
				"_reachi_4(struct T12 memory,struct ReachContract.Memory memory)": "infinite",
				"_reachl_2(struct T22 memory,struct ReachContract.Memory memory)": "infinite",
				"array_set14(struct T13 memory[2] memory,uint256,struct T13 memory)": "infinite",
				"array_set16(address payable[2] memory,uint256,address payable)": "infinite"
			}
		},
		"methodIdentifiers": {
			"Admin_api_acceptOffer((uint256,address,uint256,bool,bool))": "9069217c",
			"Admin_api_cancelLoanOfferandWithdrawCollateral(uint256)": "9b4a40f0",
			"Admin_api_updateConfig((bool,uint256,address,bool,bool,address))": "d3a4a317",
			"Admin_api_updateLoanTerms_info((uint256,address,uint256))": "ae561407",
			"_reachCreationTime()": "1e93b0f1",
			"_reachCurrentState()": "ab53f2c6",
			"_reachCurrentTime()": "83230757",
			"_reachm_0Ref(uint256)": "e9e71ad5",
			"_reachp_1((uint256))": "573b8510",
			"_reachp_3((uint256))": "41712c0a",
			"_reachp_4((uint256,(uint8,((uint256,address,uint256,bool,bool)),(uint256),((bool,uint256,address,bool,bool,address)),((uint256,address,uint256)),bool,(uint256),((uint256,bool)))))": "4c414b87",
			"info_config()": "039c1284",
			"info_loanTerms()": "06b56453",
			"info_offer(uint256)": "c5618ae8",
			"user_acceptLoan()": "0bdddce1",
			"user_cancelOffer(uint256)": "bcfa3e34",
			"user_makeOffer((uint256,bool))": "c8b11937"
		}
	},
	"abi": [
		{
			"inputs": [
				{
					"components": [
						{
							"internalType": "uint256",
							"name": "elem0",
							"type": "uint256"
						},
						{
							"components": [
								{
									"internalType": "bool",
									"name": "_active",
									"type": "bool"
								},
								{
									"internalType": "uint256",
									"name": "_number_of_tokens_to_deposit",
									"type": "uint256"
								},
								{
									"internalType": "address payable",
									"name": "_paymentAsset",
									"type": "address"
								},
								{
									"internalType": "bool",
									"name": "_prefersNetworkToken",
									"type": "bool"
								},
								{
									"internalType": "bool",
									"name": "_shouldPayInOnlyNetworkToken",
									"type": "bool"
								},
								{
									"internalType": "address payable",
									"name": "_token",
									"type": "address"
								}
							],
							"internalType": "struct T2",
							"name": "elem1",
							"type": "tuple"
						},
						{
							"internalType": "address payable",
							"name": "elem2",
							"type": "address"
						},
						{
							"components": [
								{
									"internalType": "bool",
									"name": "_active",
									"type": "bool"
								},
								{
									"internalType": "uint256",
									"name": "_number_of_tokens_to_deposit",
									"type": "uint256"
								},
								{
									"internalType": "address payable",
									"name": "_paymentAsset",
									"type": "address"
								},
								{
									"internalType": "bool",
									"name": "_prefersNetworkToken",
									"type": "bool"
								},
								{
									"internalType": "bool",
									"name": "_shouldPayInOnlyNetworkToken",
									"type": "bool"
								},
								{
									"internalType": "address payable",
									"name": "_token",
									"type": "address"
								}
							],
							"internalType": "struct T2",
							"name": "elem3",
							"type": "tuple"
						},
						{
							"components": [
								{
									"internalType": "uint256",
									"name": "_duration_in_blocks",
									"type": "uint256"
								},
								{
									"internalType": "address payable",
									"name": "_interest",
									"type": "address"
								},
								{
									"internalType": "uint256",
									"name": "_principle",
									"type": "uint256"
								}
							],
							"internalType": "struct T3",
							"name": "elem4",
							"type": "tuple"
						},
						{
							"internalType": "address payable",
							"name": "elem5",
							"type": "address"
						},
						{
							"internalType": "address payable",
							"name": "elem6",
							"type": "address"
						}
					],
					"internalType": "struct T20",
					"name": "v13020",
					"type": "tuple"
				}
			],
			"stateMutability": "payable",
			"type": "constructor"
		},
		{
			"inputs": [
				{
					"internalType": "uint256",
					"name": "msg",
					"type": "uint256"
				}
			],
			"name": "ReachError",
			"type": "error"
		},
		{
			"anonymous": false,
			"inputs": [
				{
					"indexed": false,
					"internalType": "address",
					"name": "_who",
					"type": "address"
				},
				{
					"components": [
						{
							"internalType": "uint256",
							"name": "elem0",
							"type": "uint256"
						},
						{
							"components": [
								{
									"internalType": "bool",
									"name": "_active",
									"type": "bool"
								},
								{
									"internalType": "uint256",
									"name": "_number_of_tokens_to_deposit",
									"type": "uint256"
								},
								{
									"internalType": "address payable",
									"name": "_paymentAsset",
									"type": "address"
								},
								{
									"internalType": "bool",
									"name": "_prefersNetworkToken",
									"type": "bool"
								},
								{
									"internalType": "bool",
									"name": "_shouldPayInOnlyNetworkToken",
									"type": "bool"
								},
								{
									"internalType": "address payable",
									"name": "_token",
									"type": "address"
								}
							],
							"internalType": "struct T2",
							"name": "elem1",
							"type": "tuple"
						},
						{
							"internalType": "address payable",
							"name": "elem2",
							"type": "address"
						},
						{
							"components": [
								{
									"internalType": "bool",
									"name": "_active",
									"type": "bool"
								},
								{
									"internalType": "uint256",
									"name": "_number_of_tokens_to_deposit",
									"type": "uint256"
								},
								{
									"internalType": "address payable",
									"name": "_paymentAsset",
									"type": "address"
								},
								{
									"internalType": "bool",
									"name": "_prefersNetworkToken",
									"type": "bool"
								},
								{
									"internalType": "bool",
									"name": "_shouldPayInOnlyNetworkToken",
									"type": "bool"
								},
								{
									"internalType": "address payable",
									"name": "_token",
									"type": "address"
								}
							],
							"internalType": "struct T2",
							"name": "elem3",
							"type": "tuple"
						},
						{
							"components": [
								{
									"internalType": "uint256",
									"name": "_duration_in_blocks",
									"type": "uint256"
								},
								{
									"internalType": "address payable",
									"name": "_interest",
									"type": "address"
								},
								{
									"internalType": "uint256",
									"name": "_principle",
									"type": "uint256"
								}
							],
							"internalType": "struct T3",
							"name": "elem4",
							"type": "tuple"
						},
						{
							"internalType": "address payable",
							"name": "elem5",
							"type": "address"
						},
						{
							"internalType": "address payable",
							"name": "elem6",
							"type": "address"
						}
					],
					"indexed": false,
					"internalType": "struct T20",
					"name": "_a",
					"type": "tuple"
				}
			],
			"name": "_reach_e0",
			"type": "event"
		},
		{
			"anonymous": false,
			"inputs": [
				{
					"indexed": false,
					"internalType": "address",
					"name": "_who",
					"type": "address"
				},
				{
					"components": [
						{
							"internalType": "uint256",
							"name": "elem0",
							"type": "uint256"
						}
					],
					"indexed": false,
					"internalType": "struct T5",
					"name": "_a",
					"type": "tuple"
				}
			],
			"name": "_reach_e1",
			"type": "event"
		},
		{
			"anonymous": false,
			"inputs": [
				{
					"indexed": false,
					"internalType": "address",
					"name": "_who",
					"type": "address"
				},
				{
					"components": [
						{
							"internalType": "uint256",
							"name": "elem0",
							"type": "uint256"
						}
					],
					"indexed": false,
					"internalType": "struct T5",
					"name": "_a",
					"type": "tuple"
				}
			],
			"name": "_reach_e3",
			"type": "event"
		},
		{
			"anonymous": false,
			"inputs": [
				{
					"indexed": false,
					"internalType": "address",
					"name": "_who",
					"type": "address"
				},
				{
					"components": [
						{
							"internalType": "uint256",
							"name": "elem0",
							"type": "uint256"
						},
						{
							"components": [
								{
									"internalType": "enum _enum_T11",
									"name": "which",
									"type": "uint8"
								},
								{
									"components": [
										{
											"components": [
												{
													"internalType": "uint256",
													"name": "_amount",
													"type": "uint256"
												},
												{
													"internalType": "address payable",
													"name": "_borrower",
													"type": "address"
												},
												{
													"internalType": "uint256",
													"name": "_offerId",
													"type": "uint256"
												},
												{
													"internalType": "bool",
													"name": "_payWithNetworkToken",
													"type": "bool"
												},
												{
													"internalType": "bool",
													"name": "_rejected",
													"type": "bool"
												}
											],
											"internalType": "struct T0",
											"name": "elem0",
											"type": "tuple"
										}
									],
									"internalType": "struct T4",
									"name": "_Admin_api_acceptOffer0_171",
									"type": "tuple"
								},
								{
									"components": [
										{
											"internalType": "uint256",
											"name": "elem0",
											"type": "uint256"
										}
									],
									"internalType": "struct T5",
									"name": "_Admin_api_cancelLoanOfferandWithdrawCollateral0_171",
									"type": "tuple"
								},
								{
									"components": [
										{
											"components": [
												{
													"internalType": "bool",
													"name": "_active",
													"type": "bool"
												},
												{
													"internalType": "uint256",
													"name": "_number_of_tokens_to_deposit",
													"type": "uint256"
												},
												{
													"internalType": "address payable",
													"name": "_paymentAsset",
													"type": "address"
												},
												{
													"internalType": "bool",
													"name": "_prefersNetworkToken",
													"type": "bool"
												},
												{
													"internalType": "bool",
													"name": "_shouldPayInOnlyNetworkToken",
													"type": "bool"
												},
												{
													"internalType": "address payable",
													"name": "_token",
													"type": "address"
												}
											],
											"internalType": "struct T2",
											"name": "elem0",
											"type": "tuple"
										}
									],
									"internalType": "struct T6",
									"name": "_Admin_api_updateConfig0_171",
									"type": "tuple"
								},
								{
									"components": [
										{
											"components": [
												{
													"internalType": "uint256",
													"name": "_duration_in_blocks",
													"type": "uint256"
												},
												{
													"internalType": "address payable",
													"name": "_interest",
													"type": "address"
												},
												{
													"internalType": "uint256",
													"name": "_principle",
													"type": "uint256"
												}
											],
											"internalType": "struct T3",
											"name": "elem0",
											"type": "tuple"
										}
									],
									"internalType": "struct T7",
									"name": "_Admin_api_updateLoanTerms_info0_171",
									"type": "tuple"
								},
								{
									"internalType": "bool",
									"name": "_user_acceptLoan0_171",
									"type": "bool"
								},
								{
									"components": [
										{
											"internalType": "uint256",
											"name": "elem0",
											"type": "uint256"
										}
									],
									"internalType": "struct T5",
									"name": "_user_cancelOffer0_171",
									"type": "tuple"
								},
								{
									"components": [
										{
											"components": [
												{
													"internalType": "uint256",
													"name": "_amount",
													"type": "uint256"
												},
												{
													"internalType": "bool",
													"name": "_shouldPayWithNetworkToken",
													"type": "bool"
												}
											],
											"internalType": "struct T9",
											"name": "elem0",
											"type": "tuple"
										}
									],
									"internalType": "struct T10",
									"name": "_user_makeOffer0_171",
									"type": "tuple"
								}
							],
							"internalType": "struct T11",
							"name": "elem1",
							"type": "tuple"
						}
					],
					"indexed": false,
					"internalType": "struct T12",
					"name": "_a",
					"type": "tuple"
				}
			],
			"name": "_reach_e4",
			"type": "event"
		},
		{
			"anonymous": false,
			"inputs": [
				{
					"indexed": false,
					"internalType": "bool",
					"name": "v0",
					"type": "bool"
				}
			],
			"name": "_reach_oe_v3954",
			"type": "event"
		},
		{
			"anonymous": false,
			"inputs": [
				{
					"indexed": false,
					"internalType": "bool",
					"name": "v0",
					"type": "bool"
				}
			],
			"name": "_reach_oe_v4567",
			"type": "event"
		},
		{
			"anonymous": false,
			"inputs": [
				{
					"indexed": false,
					"internalType": "bool",
					"name": "v0",
					"type": "bool"
				}
			],
			"name": "_reach_oe_v5168",
			"type": "event"
		},
		{
			"anonymous": false,
			"inputs": [
				{
					"indexed": false,
					"internalType": "bool",
					"name": "v0",
					"type": "bool"
				}
			],
			"name": "_reach_oe_v5775",
			"type": "event"
		},
		{
			"anonymous": false,
			"inputs": [
				{
					"indexed": false,
					"internalType": "bool",
					"name": "v0",
					"type": "bool"
				}
			],
			"name": "_reach_oe_v6384",
			"type": "event"
		},
		{
			"anonymous": false,
			"inputs": [
				{
					"indexed": false,
					"internalType": "bool",
					"name": "v0",
					"type": "bool"
				}
			],
			"name": "_reach_oe_v7064",
			"type": "event"
		},
		{
			"anonymous": false,
			"inputs": [
				{
					"components": [
						{
							"internalType": "uint256",
							"name": "_amount",
							"type": "uint256"
						},
						{
							"internalType": "address payable",
							"name": "_borrower",
							"type": "address"
						},
						{
							"internalType": "uint256",
							"name": "_offerId",
							"type": "uint256"
						},
						{
							"internalType": "bool",
							"name": "_payWithNetworkToken",
							"type": "bool"
						},
						{
							"internalType": "bool",
							"name": "_rejected",
							"type": "bool"
						}
					],
					"indexed": false,
					"internalType": "struct T0",
					"name": "v0",
					"type": "tuple"
				}
			],
			"name": "_reach_oe_v7750",
			"type": "event"
		},
		{
			"stateMutability": "payable",
			"type": "fallback"
		},
		{
			"inputs": [
				{
					"components": [
						{
							"internalType": "uint256",
							"name": "_amount",
							"type": "uint256"
						},
						{
							"internalType": "address payable",
							"name": "_borrower",
							"type": "address"
						},
						{
							"internalType": "uint256",
							"name": "_offerId",
							"type": "uint256"
						},
						{
							"internalType": "bool",
							"name": "_payWithNetworkToken",
							"type": "bool"
						},
						{
							"internalType": "bool",
							"name": "_rejected",
							"type": "bool"
						}
					],
					"internalType": "struct T0",
					"name": "v12983",
					"type": "tuple"
				}
			],
			"name": "Admin_api_acceptOffer",
			"outputs": [
				{
					"internalType": "bool",
					"name": "",
					"type": "bool"
				}
			],
			"stateMutability": "payable",
			"type": "function"
		},
		{
			"inputs": [
				{
					"internalType": "uint256",
					"name": "v12989",
					"type": "uint256"
				}
			],
			"name": "Admin_api_cancelLoanOfferandWithdrawCollateral",
			"outputs": [
				{
					"internalType": "bool",
					"name": "",
					"type": "bool"
				}
			],
			"stateMutability": "payable",
			"type": "function"
		},
		{
			"inputs": [
				{
					"components": [
						{
							"internalType": "bool",
							"name": "_active",
							"type": "bool"
						},
						{
							"internalType": "uint256",
							"name": "_number_of_tokens_to_deposit",
							"type": "uint256"
						},
						{
							"internalType": "address payable",
							"name": "_paymentAsset",
							"type": "address"
						},
						{
							"internalType": "bool",
							"name": "_prefersNetworkToken",
							"type": "bool"
						},
						{
							"internalType": "bool",
							"name": "_shouldPayInOnlyNetworkToken",
							"type": "bool"
						},
						{
							"internalType": "address payable",
							"name": "_token",
							"type": "address"
						}
					],
					"internalType": "struct T2",
					"name": "v12995",
					"type": "tuple"
				}
			],
			"name": "Admin_api_updateConfig",
			"outputs": [
				{
					"internalType": "bool",
					"name": "",
					"type": "bool"
				}
			],
			"stateMutability": "payable",
			"type": "function"
		},
		{
			"inputs": [
				{
					"components": [
						{
							"internalType": "uint256",
							"name": "_duration_in_blocks",
							"type": "uint256"
						},
						{
							"internalType": "address payable",
							"name": "_interest",
							"type": "address"
						},
						{
							"internalType": "uint256",
							"name": "_principle",
							"type": "uint256"
						}
					],
					"internalType": "struct T3",
					"name": "v13001",
					"type": "tuple"
				}
			],
			"name": "Admin_api_updateLoanTerms_info",
			"outputs": [
				{
					"internalType": "bool",
					"name": "",
					"type": "bool"
				}
			],
			"stateMutability": "payable",
			"type": "function"
		},
		{
			"inputs": [],
			"name": "_reachCreationTime",
			"outputs": [
				{
					"internalType": "uint256",
					"name": "",
					"type": "uint256"
				}
			],
			"stateMutability": "view",
			"type": "function"
		},
		{
			"inputs": [],
			"name": "_reachCurrentState",
			"outputs": [
				{
					"internalType": "uint256",
					"name": "",
					"type": "uint256"
				},
				{
					"internalType": "bytes",
					"name": "",
					"type": "bytes"
				}
			],
			"stateMutability": "view",
			"type": "function"
		},
		{
			"inputs": [],
			"name": "_reachCurrentTime",
			"outputs": [
				{
					"internalType": "uint256",
					"name": "",
					"type": "uint256"
				}
			],
			"stateMutability": "view",
			"type": "function"
		},
		{
			"inputs": [
				{
					"internalType": "uint256",
					"name": "addr",
					"type": "uint256"
				}
			],
			"name": "_reachm_0Ref",
			"outputs": [
				{
					"components": [
						{
							"internalType": "enum _enum_T1",
							"name": "which",
							"type": "uint8"
						},
						{
							"internalType": "bool",
							"name": "_None",
							"type": "bool"
						},
						{
							"components": [
								{
									"internalType": "uint256",
									"name": "_amount",
									"type": "uint256"
								},
								{
									"internalType": "address payable",
									"name": "_borrower",
									"type": "address"
								},
								{
									"internalType": "uint256",
									"name": "_offerId",
									"type": "uint256"
								},
								{
									"internalType": "bool",
									"name": "_payWithNetworkToken",
									"type": "bool"
								},
								{
									"internalType": "bool",
									"name": "_rejected",
									"type": "bool"
								}
							],
							"internalType": "struct T0",
							"name": "_Some",
							"type": "tuple"
						}
					],
					"internalType": "struct T1",
					"name": "res",
					"type": "tuple"
				}
			],
			"stateMutability": "view",
			"type": "function"
		},
		{
			"inputs": [
				{
					"components": [
						{
							"internalType": "uint256",
							"name": "elem0",
							"type": "uint256"
						}
					],
					"internalType": "struct T5",
					"name": "v13023",
					"type": "tuple"
				}
			],
			"name": "_reachp_1",
			"outputs": [
				{
					"internalType": "bool",
					"name": "",
					"type": "bool"
				}
			],
			"stateMutability": "payable",
			"type": "function"
		},
		{
			"inputs": [
				{
					"components": [
						{
							"internalType": "uint256",
							"name": "elem0",
							"type": "uint256"
						}
					],
					"internalType": "struct T5",
					"name": "v13026",
					"type": "tuple"
				}
			],
			"name": "_reachp_3",
			"outputs": [
				{
					"internalType": "bool",
					"name": "",
					"type": "bool"
				}
			],
			"stateMutability": "payable",
			"type": "function"
		},
		{
			"inputs": [
				{
					"components": [
						{
							"internalType": "uint256",
							"name": "elem0",
							"type": "uint256"
						},
						{
							"components": [
								{
									"internalType": "enum _enum_T11",
									"name": "which",
									"type": "uint8"
								},
								{
									"components": [
										{
											"components": [
												{
													"internalType": "uint256",
													"name": "_amount",
													"type": "uint256"
												},
												{
													"internalType": "address payable",
													"name": "_borrower",
													"type": "address"
												},
												{
													"internalType": "uint256",
													"name": "_offerId",
													"type": "uint256"
												},
												{
													"internalType": "bool",
													"name": "_payWithNetworkToken",
													"type": "bool"
												},
												{
													"internalType": "bool",
													"name": "_rejected",
													"type": "bool"
												}
											],
											"internalType": "struct T0",
											"name": "elem0",
											"type": "tuple"
										}
									],
									"internalType": "struct T4",
									"name": "_Admin_api_acceptOffer0_171",
									"type": "tuple"
								},
								{
									"components": [
										{
											"internalType": "uint256",
											"name": "elem0",
											"type": "uint256"
										}
									],
									"internalType": "struct T5",
									"name": "_Admin_api_cancelLoanOfferandWithdrawCollateral0_171",
									"type": "tuple"
								},
								{
									"components": [
										{
											"components": [
												{
													"internalType": "bool",
													"name": "_active",
													"type": "bool"
												},
												{
													"internalType": "uint256",
													"name": "_number_of_tokens_to_deposit",
													"type": "uint256"
												},
												{
													"internalType": "address payable",
													"name": "_paymentAsset",
													"type": "address"
												},
												{
													"internalType": "bool",
													"name": "_prefersNetworkToken",
													"type": "bool"
												},
												{
													"internalType": "bool",
													"name": "_shouldPayInOnlyNetworkToken",
													"type": "bool"
												},
												{
													"internalType": "address payable",
													"name": "_token",
													"type": "address"
												}
											],
											"internalType": "struct T2",
											"name": "elem0",
											"type": "tuple"
										}
									],
									"internalType": "struct T6",
									"name": "_Admin_api_updateConfig0_171",
									"type": "tuple"
								},
								{
									"components": [
										{
											"components": [
												{
													"internalType": "uint256",
													"name": "_duration_in_blocks",
													"type": "uint256"
												},
												{
													"internalType": "address payable",
													"name": "_interest",
													"type": "address"
												},
												{
													"internalType": "uint256",
													"name": "_principle",
													"type": "uint256"
												}
											],
											"internalType": "struct T3",
											"name": "elem0",
											"type": "tuple"
										}
									],
									"internalType": "struct T7",
									"name": "_Admin_api_updateLoanTerms_info0_171",
									"type": "tuple"
								},
								{
									"internalType": "bool",
									"name": "_user_acceptLoan0_171",
									"type": "bool"
								},
								{
									"components": [
										{
											"internalType": "uint256",
											"name": "elem0",
											"type": "uint256"
										}
									],
									"internalType": "struct T5",
									"name": "_user_cancelOffer0_171",
									"type": "tuple"
								},
								{
									"components": [
										{
											"components": [
												{
													"internalType": "uint256",
													"name": "_amount",
													"type": "uint256"
												},
												{
													"internalType": "bool",
													"name": "_shouldPayWithNetworkToken",
													"type": "bool"
												}
											],
											"internalType": "struct T9",
											"name": "elem0",
											"type": "tuple"
										}
									],
									"internalType": "struct T10",
									"name": "_user_makeOffer0_171",
									"type": "tuple"
								}
							],
							"internalType": "struct T11",
							"name": "elem1",
							"type": "tuple"
						}
					],
					"internalType": "struct T12",
					"name": "v13029",
					"type": "tuple"
				}
			],
			"name": "_reachp_4",
			"outputs": [
				{
					"internalType": "bool",
					"name": "",
					"type": "bool"
				}
			],
			"stateMutability": "payable",
			"type": "function"
		},
		{
			"inputs": [],
			"name": "info_config",
			"outputs": [
				{
					"components": [
						{
							"internalType": "bool",
							"name": "_active",
							"type": "bool"
						},
						{
							"internalType": "uint256",
							"name": "_number_of_tokens_to_deposit",
							"type": "uint256"
						},
						{
							"internalType": "address payable",
							"name": "_paymentAsset",
							"type": "address"
						},
						{
							"internalType": "bool",
							"name": "_prefersNetworkToken",
							"type": "bool"
						},
						{
							"internalType": "bool",
							"name": "_shouldPayInOnlyNetworkToken",
							"type": "bool"
						},
						{
							"internalType": "address payable",
							"name": "_token",
							"type": "address"
						}
					],
					"internalType": "struct T2",
					"name": "",
					"type": "tuple"
				}
			],
			"stateMutability": "view",
			"type": "function"
		},
		{
			"inputs": [],
			"name": "info_loanTerms",
			"outputs": [
				{
					"components": [
						{
							"internalType": "uint256",
							"name": "_duration_in_blocks",
							"type": "uint256"
						},
						{
							"internalType": "address payable",
							"name": "_interest",
							"type": "address"
						},
						{
							"internalType": "uint256",
							"name": "_principle",
							"type": "uint256"
						}
					],
					"internalType": "struct T3",
					"name": "",
					"type": "tuple"
				}
			],
			"stateMutability": "view",
			"type": "function"
		},
		{
			"inputs": [
				{
					"internalType": "uint256",
					"name": "v12977",
					"type": "uint256"
				}
			],
			"name": "info_offer",
			"outputs": [
				{
					"components": [
						{
							"internalType": "enum _enum_T1",
							"name": "which",
							"type": "uint8"
						},
						{
							"internalType": "bool",
							"name": "_None",
							"type": "bool"
						},
						{
							"components": [
								{
									"internalType": "uint256",
									"name": "_amount",
									"type": "uint256"
								},
								{
									"internalType": "address payable",
									"name": "_borrower",
									"type": "address"
								},
								{
									"internalType": "uint256",
									"name": "_offerId",
									"type": "uint256"
								},
								{
									"internalType": "bool",
									"name": "_payWithNetworkToken",
									"type": "bool"
								},
								{
									"internalType": "bool",
									"name": "_rejected",
									"type": "bool"
								}
							],
							"internalType": "struct T0",
							"name": "_Some",
							"type": "tuple"
						}
					],
					"internalType": "struct T1",
					"name": "",
					"type": "tuple"
				}
			],
			"stateMutability": "view",
			"type": "function"
		},
		{
			"inputs": [],
			"name": "user_acceptLoan",
			"outputs": [
				{
					"internalType": "bool",
					"name": "",
					"type": "bool"
				}
			],
			"stateMutability": "payable",
			"type": "function"
		},
		{
			"inputs": [
				{
					"internalType": "uint256",
					"name": "v13011",
					"type": "uint256"
				}
			],
			"name": "user_cancelOffer",
			"outputs": [
				{
					"internalType": "bool",
					"name": "",
					"type": "bool"
				}
			],
			"stateMutability": "payable",
			"type": "function"
		},
		{
			"inputs": [
				{
					"components": [
						{
							"internalType": "uint256",
							"name": "_amount",
							"type": "uint256"
						},
						{
							"internalType": "bool",
							"name": "_shouldPayWithNetworkToken",
							"type": "bool"
						}
					],
					"internalType": "struct T9",
					"name": "v13017",
					"type": "tuple"
				}
			],
			"name": "user_makeOffer",
			"outputs": [
				{
					"components": [
						{
							"internalType": "uint256",
							"name": "_amount",
							"type": "uint256"
						},
						{
							"internalType": "address payable",
							"name": "_borrower",
							"type": "address"
						},
						{
							"internalType": "uint256",
							"name": "_offerId",
							"type": "uint256"
						},
						{
							"internalType": "bool",
							"name": "_payWithNetworkToken",
							"type": "bool"
						},
						{
							"internalType": "bool",
							"name": "_rejected",
							"type": "bool"
						}
					],
					"internalType": "struct T0",
					"name": "",
					"type": "tuple"
				}
			],
			"stateMutability": "payable",
			"type": "function"
		},
		{
			"stateMutability": "payable",
			"type": "receive"
		}
	]
}