{
  "data": {
    "bytecode": {
      "linkReferences": {},
      "object": "60806040526040516200707238038062007072833981810160405281019062000029919062000a44565b600080819055504360038190555062000041620003e1565b6200005382826200005b60201b60201c565b50506200123f565b6200006562000460565b62000088600460009054906101000a900460ff1615600d6200030b60201b60201c565b7f59dee4752c68e3c117fd4c78bcb2026313581491346b9971a5388b322eda3b203384604051620000bb92919062000c31565b60405180910390a1620000ee600084600001511480620000e057508360000151600154145b600e6200030b60201b60201c565b6000816000015160000181815250506000816000015160200181815250506000816000015160400190151590811515815250508060000151816020015160006001811062000141576200014062000c5f565b5b60200201819052506200015f60003414600f6200030b60201b60201c565b620001696200048a565b33816000019073ffffffffffffffffffffffffffffffffffffffff16908173ffffffffffffffffffffffffffffffffffffffff1681525050836020015181602001819052508360400151816040019073ffffffffffffffffffffffffffffffffffffffff16908173ffffffffffffffffffffffffffffffffffffffff168152505083606001518160600181905250836080015181608001819052508360a001518160a0019073ffffffffffffffffffffffffffffffffffffffff16908173ffffffffffffffffffffffffffffffffffffffff1681525050620002bb82602001516000604051806060016040528060008152602001866020015160006001811062000278576200027762000c5f565b5b60200201516020015181526020018660200151600060018110620002a157620002a062000c5f565b5b60200201516040015115158152506200035460201b60201c565b8160c0018190525060016000819055504360018190555080604051602001620002e5919062000e20565b604051602081830303815290604052600290816200030491906200107f565b5050505050565b816200035057806040517f100960cb00000000000000000000000000000000000000000000000000000000815260040162000347919062001177565b60405180910390fd5b5050565b6200035e62000529565b60005b6001811015620003ba5784816001811062000381576200038062000c5f565b5b60200201518282600181106200039c576200039b62000c5f565b5b60200201819052508080620003b190620011c3565b91505062000361565b5081818460018110620003d257620003d162000c5f565b5b60200201819052509392505050565b6040518061014001604052806000151581526020016000151581526020016000151581526020016000151581526020016200041b62000559565b81526020016200042a62000592565b815260200162000439620005b3565b81526020016000151581526020016000151581526020016200045a620005f3565b81525090565b60405180604001604052806200047562000633565b81526020016200048462000529565b81525090565b6040518060e00160405280600073ffffffffffffffffffffffffffffffffffffffff168152602001620004bc62000656565b8152602001600073ffffffffffffffffffffffffffffffffffffffff168152602001620004e862000559565b8152602001620004f762000592565b8152602001600073ffffffffffffffffffffffffffffffffffffffff1681526020016200052362000529565b81525090565b60405180602001604052806001905b6200054262000633565b815260200190600190039081620005385790505090565b6040518060600160405280600073ffffffffffffffffffffffffffffffffffffffff168152602001600081526020016000151581525090565b60405180606001604052806000815260200160008152602001600081525090565b604051806060016040528060006001811115620005d557620005d462001210565b5b8152602001600015158152602001620005ed620005f3565b81525090565b604051806080016040528060008152602001600073ffffffffffffffffffffffffffffffffffffffff168152602001600081526020016000151581525090565b604051806060016040528060008152602001600081526020016000151581525090565b604051806060016040528060001515815260200160008152602001600073ffffffffffffffffffffffffffffffffffffffff1681525090565b6000604051905090565b600080fd5b600080fd5b6000601f19601f8301169050919050565b7f4e487b7100000000000000000000000000000000000000000000000000000000600052604160045260246000fd5b620006ee82620006a3565b810181811067ffffffffffffffff8211171562000710576200070f620006b4565b5b80604052505050565b6000620007256200068f565b9050620007338282620006e3565b919050565b6000819050919050565b6200074d8162000738565b81146200075957600080fd5b50565b6000815190506200076d8162000742565b92915050565b60008115159050919050565b6200078a8162000773565b81146200079657600080fd5b50565b600081519050620007aa816200077f565b92915050565b600074ffffffffffffffffffffffffffffffffffffffffff82169050919050565b620007dc81620007b0565b8114620007e857600080fd5b50565b600073ffffffffffffffffffffffffffffffffffffffff82169050919050565b60006200081882620007eb565b9050919050565b6000815190506200083081620007d1565b6200083b816200080b565b905092915050565b6000606082840312156200085c576200085b6200069e565b5b62000868606062000719565b905060006200087a8482850162000799565b600083015250602062000890848285016200075c565b6020830152506040620008a6848285016200081f565b60408301525092915050565b600060608284031215620008cb57620008ca6200069e565b5b620008d7606062000719565b90506000620008e9848285016200081f565b6000830152506020620008ff848285016200075c565b6020830152506040620009158482850162000799565b60408301525092915050565b6000606082840312156200093a57620009396200069e565b5b62000946606062000719565b9050600062000958848285016200075c565b60008301525060206200096e848285016200075c565b602083015250604062000984848285016200075c565b60408301525092915050565b60006101808284031215620009aa57620009a96200069e565b5b620009b660c062000719565b90506000620009c8848285016200075c565b6000830152506020620009de8482850162000843565b6020830152506080620009f4848285016200081f565b60408301525060a062000a0a84828501620008b2565b60608301525061010062000a218482850162000921565b60808301525061016062000a38848285016200081f565b60a08301525092915050565b6000610180828403121562000a5e5762000a5d62000699565b5b600062000a6e8482850162000990565b91505092915050565b600062000a8482620007eb565b9050919050565b62000a968162000a77565b82525050565b62000aa78162000738565b82525050565b62000ab88162000773565b82525050565b62000ac9816200080b565b82525050565b60608201600082015162000ae7600085018262000aad565b50602082015162000afc602085018262000a9c565b50604082015162000b11604085018262000abe565b50505050565b60608201600082015162000b2f600085018262000abe565b50602082015162000b44602085018262000a9c565b50604082015162000b59604085018262000aad565b50505050565b60608201600082015162000b77600085018262000a9c565b50602082015162000b8c602085018262000a9c565b50604082015162000ba1604085018262000a9c565b50505050565b6101808201600082015162000bc0600085018262000a9c565b50602082015162000bd5602085018262000acf565b50604082015162000bea608085018262000abe565b50606082015162000bff60a085018262000b17565b50608082015162000c1561010085018262000b5f565b5060a082015162000c2b61016085018262000abe565b50505050565b60006101a08201905062000c49600083018562000a8b565b62000c58602083018462000ba7565b9392505050565b7f4e487b7100000000000000000000000000000000000000000000000000000000600052603260045260246000fd5b600060019050919050565b600081905092915050565b6000819050919050565b60608201600082015162000cc6600085018262000a9c565b50602082015162000cdb602085018262000a9c565b50604082015162000cf0604085018262000aad565b50505050565b600062000d04838362000cae565b60608301905092915050565b6000602082019050919050565b62000d288162000c8e565b62000d34818462000c99565b925062000d418262000ca4565b8060005b8381101562000d7857815162000d5c878262000cf6565b965062000d698362000d10565b92505060018101905062000d45565b505050505050565b6101e08201600082015162000d99600085018262000abe565b50602082015162000dae602085018262000acf565b50604082015162000dc3608085018262000abe565b50606082015162000dd860a085018262000b17565b50608082015162000dee61010085018262000b5f565b5060a082015162000e0461016085018262000abe565b5060c082015162000e1a61018085018262000d1d565b50505050565b60006101e08201905062000e38600083018462000d80565b92915050565b600081519050919050565b7f4e487b7100000000000000000000000000000000000000000000000000000000600052602260045260246000fd5b6000600282049050600182168062000e9157607f821691505b60208210810362000ea75762000ea662000e49565b5b50919050565b60008190508160005260206000209050919050565b60006020601f8301049050919050565b600082821b905092915050565b60006008830262000f117fffffffffffffffffffffffffffffffffffffffffffffffffffffffffffffffff8262000ed2565b62000f1d868362000ed2565b95508019841693508086168417925050509392505050565b6000819050919050565b600062000f6062000f5a62000f548462000738565b62000f35565b62000738565b9050919050565b6000819050919050565b62000f7c8362000f3f565b62000f9462000f8b8262000f67565b84845462000edf565b825550505050565b600090565b62000fab62000f9c565b62000fb881848462000f71565b505050565b5b8181101562000fe05762000fd460008262000fa1565b60018101905062000fbe565b5050565b601f8211156200102f5762000ff98162000ead565b620010048462000ec2565b8101602085101562001014578190505b6200102c620010238562000ec2565b83018262000fbd565b50505b505050565b600082821c905092915050565b6000620010546000198460080262001034565b1980831691505092915050565b60006200106f838362001041565b9150826002028217905092915050565b6200108a8262000e3e565b67ffffffffffffffff811115620010a657620010a5620006b4565b5b620010b2825462000e78565b620010bf82828562000fe4565b600060209050601f831160018114620010f75760008415620010e2578287015190505b620010ee858262001061565b8655506200115e565b601f198416620011078662000ead565b60005b8281101562001131578489015182556001820191506020850194506020810190506200110a565b868310156200115157848901516200114d601f89168262001041565b8355505b6001600288020188555050505b505050505050565b620011718162000738565b82525050565b60006020820190506200118e600083018462001166565b92915050565b7f4e487b7100000000000000000000000000000000000000000000000000000000600052601160045260246000fd5b6000620011d08262000738565b91507fffffffffffffffffffffffffffffffffffffffffffffffffffffffffffffffff820362001205576200120462001194565b5b600182019050919050565b7f4e487b7100000000000000000000000000000000000000000000000000000000600052602160045260246000fd5b615e23806200124f6000396000f3fe6080604052600436106100f75760003560e01c8063832307571161008a578063bcfa3e3411610059578063bcfa3e3414610398578063c5618ae8146103c8578063e9e71ad51461041f578063f3d3e4c514610476576100fe565b806383230757146102ad5780638c1f0d31146102f25780639b4a40f014610322578063ab53f2c614610352576100fe565b80631e93b0f1116100c65780631e93b0f1146101d85780633c6672801461021d57806341712c0a1461024d578063573b85101461027d576100fe565b8063039c12841461010057806306b56453146101455780630bdddce11461018a5780631741f513146101a8576100fe565b366100fe57005b005b34801561010c57600080fd5b50d3801561011957600080fd5b50d2801561012657600080fd5b5061012f6104a6565b60405161013c9190614148565b60405180910390f35b34801561015157600080fd5b50d3801561015e57600080fd5b50d2801561016b57600080fd5b506101746104ce565b60405161018191906141a5565b60405180910390f35b6101926104f6565b60405161019f91906141cf565b60405180910390f35b6101c260048036038101906101bd919061421d565b610518565b6040516101cf91906141cf565b60405180910390f35b3480156101e457600080fd5b50d380156101f157600080fd5b50d280156101fe57600080fd5b50610207610549565b6040516102149190614259565b60405180910390f35b61023760048036038101906102329190614293565b610553565b60405161024491906141cf565b60405180910390f35b610267600480360381019061026291906142df565b610584565b60405161027491906141cf565b60405180910390f35b610297600480360381019061029291906142df565b6105ae565b6040516102a491906141cf565b60405180910390f35b3480156102b957600080fd5b50d380156102c657600080fd5b50d280156102d357600080fd5b506102dc6105d8565b6040516102e99190614259565b60405180910390f35b61030c60048036038101906103079190614364565b6105e2565b60405161031991906143f9565b60405180910390f35b61033c60048036038101906103379190614414565b61062e565b60405161034991906141cf565b60405180910390f35b34801561035e57600080fd5b50d3801561036b57600080fd5b50d2801561037857600080fd5b5061038161064f565b60405161038f9291906144d1565b60405180910390f35b6103b260048036038101906103ad9190614414565b6106ec565b6040516103bf91906141cf565b60405180910390f35b3480156103d457600080fd5b50d380156103e157600080fd5b50d280156103ee57600080fd5b5061040960048036038101906104049190614414565b61070e565b604051610416919061460f565b60405180910390f35b34801561042b57600080fd5b50d3801561043857600080fd5b50d2801561044557600080fd5b50610460600480360381019061045b9190614414565b610735565b60405161046d919061460f565b60405180910390f35b610490600480360381019061048b919061464a565b61074d565b60405161049d91906141cf565b60405180910390f35b6104ae613915565b6104b661394e565b60006104c28183610777565b81608001519250505090565b6104d66139c5565b6104de61394e565b60006104ea818361090d565b8160a001519250505090565b600061050061394e565b600061050c8183610aa3565b8160e001519250505090565b600061052261394e565b61053c8380360381019061053691906147c8565b82610b28565b8060200151915050919050565b6000600354905090565b600061055d61394e565b610577838036038101906105719190614859565b82610bb3565b8060600151915050919050565b600061058e61394e565b6105a8838036038101906105a291906148c2565b82610c3e565b50919050565b60006105b861394e565b6105d2838036038101906105cc91906148c2565b82610e55565b50919050565b6000600154905090565b6105ea6139e6565b6105f261394e565b6105fa613a26565b848160000181815250508381602001901515908115158152505061061e81836112ba565b8161012001519250505092915050565b600061063861394e565b6106428382611362565b8060400151915050919050565b6000606060005460028080546106649061491e565b80601f01602080910402602001604051908101604052809291908181526020018280546106909061491e565b80156106dd5780601f106106b2576101008083540402835291602001916106dd565b820191906000526020600020905b8154815290600101906020018083116106c057829003601f168201915b50505050509050915091509091565b60006106f661394e565b61070083826113ee565b806101000151915050919050565b610716613a42565b61071e61394e565b610728838261147a565b8060c00151915050919050565b61073d613a42565b61074682611617565b9050919050565b600061075761394e565b6107718380360381019061076b9190614b45565b826117c9565b50919050565b600560005410156108475761079260036000541460076131f2565b6000600280546107a19061491e565b80601f01602080910402602001604051908101604052809291908181526020018280546107cd9061491e565b801561081a5780601f106107ef5761010080835404028352916020019161081a565b820191906000526020600020905b8154815290600101906020018083116107fd57829003601f168201915b50505050508060200190518101906108329190614e46565b90508060800151826080018190525050610909565b61085760056000541460086131f2565b6000600280546108669061491e565b80601f01602080910402602001604051908101604052809291908181526020018280546108929061491e565b80156108df5780601f106108b4576101008083540402835291602001916108df565b820191906000526020600020905b8154815290600101906020018083116108c257829003601f168201915b50505050508060200190518101906108f791906150d9565b90508061010001518260800181905250505b5050565b600560005410156109dd5761092860036000541460096131f2565b6000600280546109379061491e565b80601f01602080910402602001604051908101604052809291908181526020018280546109639061491e565b80156109b05780601f10610985576101008083540402835291602001916109b0565b820191906000526020600020905b81548152906001019060200180831161099357829003601f168201915b50505050508060200190518101906109c89190614e46565b90508060a001518260a0018190525050610a9f565b6109ed600560005414600a6131f2565b6000600280546109fc9061491e565b80601f0160208091040260200160405190810160405280929190818152602001828054610a289061491e565b8015610a755780601f10610a4a57610100808354040283529160200191610a75565b820191906000526020600020905b815481529060010190602001808311610a5857829003601f168201915b5050505050806020019051810190610a8d91906150d9565b90508061012001518260a00181905250505b5050565b610aab613a7d565b60038160200151600001906005811115610ac857610ac7614501565b5b90816005811115610adc57610adb614501565b5b81525050806000015181602001516080019015159081151581525050610b00613a9f565b600081600001818152505081602001518160200181905250610b2281846117c9565b50505050565b610b30613abf565b8281600001516000018190525060008160200151600001906005811115610b5a57610b59614501565b5b90816005811115610b6e57610b6d614501565b5b815250508060000151816020015160200181905250610b8b613a9f565b600081600001818152505081602001518160200181905250610bad81846117c9565b50505050565b610bbb613ae5565b8281600001516000018190525060028160200151600001906005811115610be557610be4614501565b5b90816005811115610bf957610bf8614501565b5b815250508060000151816020015160600181905250610c16613a9f565b600081600001818152505081602001518160200181905250610c3881846117c9565b50505050565b610c4e60036000541460166131f2565b600060028054610c5d9061491e565b80601f0160208091040260200160405190810160405280929190818152602001828054610c899061491e565b8015610cd65780601f10610cab57610100808354040283529160200191610cd6565b820191906000526020600020905b815481529060010190602001808311610cb957829003601f168201915b5050505050806020019051810190610cee9190614e46565b9050610d0b600460009054906101000a900460ff161560176131f2565b7fd8b4bef0baf1b43e1c773ecc562857f82f7aa078ea677386f72396872c0e85153384604051610d3c929190615144565b60405180910390a1610d66600084600001511480610d5f57508360000151600154145b60186131f2565b610d746000341460196131f2565b610db13373ffffffffffffffffffffffffffffffffffffffff16826000015173ffffffffffffffffffffffffffffffffffffffff1614601a6131f2565b806000015173ffffffffffffffffffffffffffffffffffffffff166108fc82606001519081150290604051600060405180830381858888f19350505050158015610dff573d6000803e3d6000fd5b50610e33816020015182600001518360400151600060018110610e2557610e2461516d565b5b602002015160000151613238565b60008081905550600060018190555060026000610e509190613b0b565b505050565b610e5d613b4b565b610e6d60016000541460106131f2565b600060028054610e7c9061491e565b80601f0160208091040260200160405190810160405280929190818152602001828054610ea89061491e565b8015610ef55780601f10610eca57610100808354040283529160200191610ef5565b820191906000526020600020905b815481529060010190602001808311610ed857829003601f168201915b5050505050806020019051810190610f0d91906152b8565b9050610f2a600460009054906101000a900460ff161560116131f2565b7fcf0e8bec53cd91fa87ecf8f6f405ac75914a22acdb92a3553ee5c294fee815963385604051610f5b929190615144565b60405180910390a1610f85600085600001511480610f7e57508460000151600154145b60126131f2565b610f936000341460136131f2565b610fb4610fad338360400151846020015160200151613251565b60146131f2565b610ff13373ffffffffffffffffffffffffffffffffffffffff16826000015173ffffffffffffffffffffffffffffffffffffffff161460156131f2565b6000826000015160000190600181111561100e5761100d614501565b5b9081600181111561102257611021614501565b5b81525050600082600001516020019015159081151581525050816000015182602001516000018190525060008260200151602001818152505080606001518260200151604001819052506001826020015160600190151590811515815250506000826020015160800190151590811515815250508060800151826020015160a001819052506000826020015160c00190151590811515815250506000826020015160e0018181525050600082602001516101000181815250506110e3613b71565b8160000151816000019073ffffffffffffffffffffffffffffffffffffffff16908173ffffffffffffffffffffffffffffffffffffffff16815250508160400151816020019073ffffffffffffffffffffffffffffffffffffffff16908173ffffffffffffffffffffffffffffffffffffffff16815250508160a00151816040019073ffffffffffffffffffffffffffffffffffffffff16908173ffffffffffffffffffffffffffffffffffffffff168152505033816060019073ffffffffffffffffffffffffffffffffffffffff16908173ffffffffffffffffffffffffffffffffffffffff168152505081602001516020015181608001818152505082602001518160a00181905250438160c00181815250506112958260c001516000604051806060016040528061123f8760c001516000600181106112285761122761516d565b5b602002015160000151886020015160200151613268565b81526020018660c0015160006001811061125c5761125b61516d565b5b60200201516020015181526020018660c001516000600181106112825761128161516d565b5b6020020151604001511515815250613275565b8160e001819052506000816101000181815250506112b381856132f3565b5050505050565b6112c2613c21565b8260000151816000015160000181815250508260200151816000015160200190151590811515815250506005816020015160000190600581111561130957611308614501565b5b9081600581111561131d5761131c614501565b5b815250508060000151816020015160c0018190525061133a613a9f565b60008160000181815250508160200151816020018190525061135c81846117c9565b50505050565b61136a613c47565b82816000015160000181815250506001816020015160000190600581111561139557611394614501565b5b908160058111156113a9576113a8614501565b5b8152505080600001518160200151604001819052506113c6613a9f565b6000816000018181525050816020015181602001819052506113e881846117c9565b50505050565b6113f6613c6d565b82816000015160000181815250506004816020015160000190600581111561142157611420614501565b5b9081600581111561143557611434614501565b5b815250508060000151816020015160a00181905250611452613a9f565b60008160000181815250508160200151816020018190525061147481846117c9565b50505050565b6005600054101561154e57611495600360005414600b6131f2565b6000600280546114a49061491e565b80601f01602080910402602001604051908101604052809291908181526020018280546114d09061491e565b801561151d5780601f106114f25761010080835404028352916020019161151d565b820191906000526020600020905b81548152906001019060200180831161150057829003601f168201915b50505050508060200190518101906115359190614e46565b905061154083611617565b8260c0018190525050611613565b61155e600560005414600c6131f2565b60006002805461156d9061491e565b80601f01602080910402602001604051908101604052809291908181526020018280546115999061491e565b80156115e65780601f106115bb576101008083540402835291602001916115e6565b820191906000526020600020905b8154815290600101906020018083116115c957829003601f168201915b50505050508060200190518101906115fe91906150d9565b905061160983611617565b8260c00181905250505b5050565b61161f613a42565b60018081111561163257611631614501565b5b6005600084815260200190815260200160002060000160009054906101000a900460ff16600181111561166857611667614501565b5b0361178157600560008381526020019081526020016000206040518060600160405290816000820160009054906101000a900460ff1660018111156116b0576116af614501565b5b60018111156116c2576116c1614501565b5b81526020016000820160019054906101000a900460ff1615151515815260200160018201604051806080016040529081600082015481526020016001820160009054906101000a900473ffffffffffffffffffffffffffffffffffffffff1673ffffffffffffffffffffffffffffffffffffffff1673ffffffffffffffffffffffffffffffffffffffff168152602001600282015481526020016003820160009054906101000a900460ff1615151515815250508152505090506117c4565b60008160000190600181111561179a57611799614501565b5b908160018111156117ae576117ad614501565b5b8152505060008160200190151590811515815250505b919050565b6117d1613c93565b6117e1600560005414601b6131f2565b6000600280546117f09061491e565b80601f016020809104026020016040519081016040528092919081815260200182805461181c9061491e565b80156118695780601f1061183e57610100808354040283529160200191611869565b820191906000526020600020905b81548152906001019060200180831161184c57829003601f168201915b505050505080602001905181019061188191906150d9565b905061189e600460009054906101000a900460ff1615601c6131f2565b7f64aa645189d8d71304464992a5a4106214e6471abbb80bcbd8c9769ed2bb6b3f33856040516118cf9291906154b5565b60405180910390a16118f96000856000015114806118f257508460000151600154145b601d6131f2565b6000600581111561190d5761190c614501565b5b846020015160000151600581111561192857611927614501565b5b03611dc05783602001516020015182600001819052506119ba816000015173ffffffffffffffffffffffffffffffffffffffff163373ffffffffffffffffffffffffffffffffffffffff16146119b0573373ffffffffffffffffffffffffffffffffffffffff16826040015173ffffffffffffffffffffffffffffffffffffffff16146119b3565b60015b601e6131f2565b6119db8160a0015160c001516119d15760016119d4565b60005b601f6131f2565b6119ee8160a001516080015160206131f2565b611a0382600001516000015160000151611617565b8260200181905250611a3360018360200151600001516001811115611a2b57611a2a614501565b5b1460216131f2565b611a416000341460226131f2565b600082604001516000018181525050806060015182604001516020019073ffffffffffffffffffffffffffffffffffffffff16908173ffffffffffffffffffffffffffffffffffffffff16815250506000826040015160400181815250506000826040015160600190151590811515815250507fd33950df4d6217a00ed428d0c2c2d4fc61520b1172f0cb7cd0f4eed97a4ba3566000604051611ae491906141cf565b60405180910390a1600083602001901515908115158152505060018260600151600001906001811115611b1a57611b19614501565b5b90816001811115611b2e57611b2d614501565b5b81525050600180811115611b4557611b44614501565b5b8260200151600001516001811115611b6057611b5f614501565b5b14611b6f578160400151611b79565b8160200151604001515b6020015182606001516040019073ffffffffffffffffffffffffffffffffffffffff16908173ffffffffffffffffffffffffffffffffffffffff168152505081606001518260800151600001819052508060a0015160200151826080015160200181815250508061010001518260800151604001819052508060a001516060015182608001516060019015159081151581525050600182608001516080019015159081151581525050806101200151826080015160a001819052506001826080015160c00190151590811515815250508060a0015160e00151826080015160e00181815250508060a0015161010001518260800151610100018181525050611c7f613b71565b8160000151816000019073ffffffffffffffffffffffffffffffffffffffff16908173ffffffffffffffffffffffffffffffffffffffff16815250508160200151816020019073ffffffffffffffffffffffffffffffffffffffff16908173ffffffffffffffffffffffffffffffffffffffff16815250508160400151816040019073ffffffffffffffffffffffffffffffffffffffff16908173ffffffffffffffffffffffffffffffffffffffff16815250508160600151816060019073ffffffffffffffffffffffffffffffffffffffff16908173ffffffffffffffffffffffffffffffffffffffff1681525050816080015181608001818152505082608001518160a00181905250438160c00181815250508160c001518160e001819052508160e0015181610100018181525050611dba81856132f3565b506131ec565b60016005811115611dd457611dd3614501565b5b8460200151600001516005811115611def57611dee614501565b5b0361210757611e70816000015173ffffffffffffffffffffffffffffffffffffffff163373ffffffffffffffffffffffffffffffffffffffff1614611e66573373ffffffffffffffffffffffffffffffffffffffff16826040015173ffffffffffffffffffffffffffffffffffffffff1614611e69565b60015b60236131f2565b611e918160a0015160c00151611e87576001611e8a565b60005b60246131f2565b611ea48160a001516080015160256131f2565b611eb26000341460266131f2565b7f5bb0fa12f5689c81a68083351587115a04a0daaac1bbf2240ea3fa43c7eb83f16000604051611ee291906141cf565b60405180910390a160008360400190151590811515815250508060a00151600001518260a00151600001819052508060a00151602001518260a0015160200181815250508061010001518260a001516040018190525060008260a00151606001901515908115158152505060018260a0015160800190151590811515815250508061012001518260a0015160a001819052508060a0015160c001518260a0015160c00190151590811515815250508060a0015160e001518260a0015160e00181815250508060a0015161010001518260a00151610100018181525050611fc6613b71565b8160000151816000019073ffffffffffffffffffffffffffffffffffffffff16908173ffffffffffffffffffffffffffffffffffffffff16815250508160200151816020019073ffffffffffffffffffffffffffffffffffffffff16908173ffffffffffffffffffffffffffffffffffffffff16815250508160400151816040019073ffffffffffffffffffffffffffffffffffffffff16908173ffffffffffffffffffffffffffffffffffffffff16815250508160600151816060019073ffffffffffffffffffffffffffffffffffffffff16908173ffffffffffffffffffffffffffffffffffffffff168152505081608001518160800181815250508260a001518160a00181905250438160c00181815250508160c001518160e001819052508160e001518161010001818152505061210181856132f3565b506131eb565b6002600581111561211b5761211a614501565b5b846020015160000151600581111561213657612135614501565b5b0361245d578360200151606001518260c001819052506121c8816000015173ffffffffffffffffffffffffffffffffffffffff163373ffffffffffffffffffffffffffffffffffffffff16146121be573373ffffffffffffffffffffffffffffffffffffffff16826040015173ffffffffffffffffffffffffffffffffffffffff16146121c1565b60015b60276131f2565b6121e98160a0015160c001516121df5760016121e2565b60005b60286131f2565b6121f76000341460296131f2565b7f9941da50436c62648ea82fd86e74ed8ad0b667dd72744ceb1ee205d97fcc3b67600060405161222791906141cf565b60405180910390a160008360600190151590811515815250508060a00151600001518260e00151600001819052508060a00151602001518260e0015160200181815250508061010001518260e00151604001819052508060a00151606001518260e0015160600190151590811515815250508060a00151608001518260e0015160800190151590811515815250508160c00151600001518260e0015160a001819052508060a0015160c001518260e0015160c00190151590811515815250508060a0015160e001518260e0015160e00181815250508060a0015161010001518260e0015161010001818152505061231c613b71565b8160000151816000019073ffffffffffffffffffffffffffffffffffffffff16908173ffffffffffffffffffffffffffffffffffffffff16815250508160200151816020019073ffffffffffffffffffffffffffffffffffffffff16908173ffffffffffffffffffffffffffffffffffffffff16815250508160400151816040019073ffffffffffffffffffffffffffffffffffffffff16908173ffffffffffffffffffffffffffffffffffffffff16815250508160600151816060019073ffffffffffffffffffffffffffffffffffffffff16908173ffffffffffffffffffffffffffffffffffffffff168152505081608001518160800181815250508260e001518160a00181905250438160c00181815250508160c001518160e001819052508160e001518161010001818152505061245781856132f3565b506131ea565b6003600581111561247157612470614501565b5b846020015160000151600581111561248c5761248b614501565b5b03612822576124a48160a0015160800151602a6131f2565b6124c58160a0015160c001516124bb5760016124be565b60005b602b6131f2565b6124d681608001513414602c6131f2565b7fd8470410aa25572c17395892c8f9b41cd5f3263a9071f6ec15371175cc844bcd600060405161250691906141cf565b60405180910390a160008360e0019015159081151581525050806000015173ffffffffffffffffffffffffffffffffffffffff166108fc82608001519081150290604051600060405180830381858888f1935050505015801561256d573d6000803e3d6000fd5b50600182610100015160000190600181111561258c5761258b614501565b5b908160018111156125a05761259f614501565b5b81525050338261010001516040019073ffffffffffffffffffffffffffffffffffffffff16908173ffffffffffffffffffffffffffffffffffffffff1681525050816101000151826101200151600001819052506126078160a001516020015160016135c0565b8261012001516020018181525050806101000151826101200151604001819052508060a001516060015182610120015160600190151590811515815250506001826101200151608001901515908115158152505080610120015182610120015160a00181905250600182610120015160c00190151590811515815250508060a0015160e0015182610120015160e00181815250506126af8160a00151610100015160016135c0565b8261012001516101000181815250506126c6613b71565b8160000151816000019073ffffffffffffffffffffffffffffffffffffffff16908173ffffffffffffffffffffffffffffffffffffffff16815250508160200151816020019073ffffffffffffffffffffffffffffffffffffffff16908173ffffffffffffffffffffffffffffffffffffffff16815250508160400151816040019073ffffffffffffffffffffffffffffffffffffffff16908173ffffffffffffffffffffffffffffffffffffffff16815250508160600151816060019073ffffffffffffffffffffffffffffffffffffffff16908173ffffffffffffffffffffffffffffffffffffffff168152505081608001518160800181815250508261012001518160a00181905250438160c00181815250508160c001518160e001819052506128086127fe8360e001518460800151613268565b8360800151613619565b8161010001818152505061281c81856132f3565b506131e9565b6004600581111561283657612835614501565b5b846020015160000151600581111561285157612850614501565b5b03612d6f57836020015160a0015182610140018190525061287a82610140015160000151611617565b8261016001819052506128ac60018361016001516000015160018111156128a4576128a3614501565b5b14602d6131f2565b6000826101800151600001818152505080606001518261018001516020019073ffffffffffffffffffffffffffffffffffffffff16908173ffffffffffffffffffffffffffffffffffffffff1681525050600082610180015160400181815250506000826101800151606001901515908115158152505060018081111561293657612935614501565b5b82610160015160000151600181111561295257612951614501565b5b146129625781610180015161296d565b816101600151604001515b826101a001819052506129b8826101a001516020015173ffffffffffffffffffffffffffffffffffffffff163373ffffffffffffffffffffffffffffffffffffffff1614602e6131f2565b6129d3826101a00151604001518260e001511015602f6131f2565b6129e16000341460306131f2565b7fdc092695c66d03ab294e7c8e9575c5e57e8e352135544814038e9079e62a97c06000604051612a1191906141cf565b60405180910390a1600083610100019015159081151581525050816101a001516020015173ffffffffffffffffffffffffffffffffffffffff166108fc836101a00151604001519081150290604051600060405180830381858888f19350505050158015612a83573d6000803e3d6000fd5b5060056000836101400151600001518152602001908152602001600020600080820160006101000a81549060ff02191690556000820160016101000a81549060ff0219169055600182016000808201600090556001820160006101000a81549073ffffffffffffffffffffffffffffffffffffffff021916905560028201600090556003820160006101000a81549060ff0219169055505050508060a0015160000151826101c0015160000181905250612b468160a00151602001516001613626565b826101c001516020018181525050806101000151826101c00151604001819052508060a0015160600151826101c0015160600190151590811515815250508060a0015160800151826101c001516080019015159081151581525050806101200151826101c0015160a001819052508060a0015160c00151826101c0015160c0019015159081151581525050612bec8160a0015160e00151836101a0015160400151613626565b826101c0015160e00181815250508060a001516101000151826101c00151610100018181525050612c1b613b71565b8160000151816000019073ffffffffffffffffffffffffffffffffffffffff16908173ffffffffffffffffffffffffffffffffffffffff16815250508160200151816020019073ffffffffffffffffffffffffffffffffffffffff16908173ffffffffffffffffffffffffffffffffffffffff16815250508160400151816040019073ffffffffffffffffffffffffffffffffffffffff16908173ffffffffffffffffffffffffffffffffffffffff16815250508160600151816060019073ffffffffffffffffffffffffffffffffffffffff16908173ffffffffffffffffffffffffffffffffffffffff16815250508160800151816080018181525050826101c001518160a00181905250438160c00181815250508160c001518160e00181905250612d558260e00151846101a0015160400151613619565b81610100018181525050612d6981856132f3565b506131e8565b600580811115612d8257612d81614501565b5b8460200151600001516005811115612d9d57612d9c614501565b5b036131e757836020015160c00151826101e00181905250612dc78160a001516080015160316131f2565b612ddd826101e0015160000151341460326131f2565b8060a0015161010001518261020001516000018181525050338261020001516020019073ffffffffffffffffffffffffffffffffffffffff16908173ffffffffffffffffffffffffffffffffffffffff1681525050816101e00151600001518261020001516040018181525050600082610200015160600190151590811515815250506001600560008360a001516101000151815260200190815260200160002060000160006101000a81548160ff02191690836001811115612ea357612ea2614501565b5b0217905550816102000151600560008360a00151610100015181526020019081526020016000206001016000820151816000015560208201518160010160006101000a81548173ffffffffffffffffffffffffffffffffffffffff021916908373ffffffffffffffffffffffffffffffffffffffff1602179055506040820151816002015560608201518160030160006101000a81548160ff0219169083151502179055509050507fae70173af9d21cb0441edcb5ae6b1898de5490a16608c2811381eeec89808ced826102000151604051612f7f91906143f9565b60405180910390a18161020001518361012001819052508060a001516000015182610220015160000181905250612fbf8160a001516020015160016135c0565b8261022001516020018181525050806101000151826102200151604001819052508060a001516060015182610220015160600190151590811515815250506001826102200151608001901515908115158152505080610120015182610220015160a001819052508060a0015160c0015182610220015160c001901515908115158152505061305e8160a0015160e00151836101e00151600001516135c0565b82610220015160e00181815250506130808160a00151610100015160016135c0565b826102200151610100018181525050613097613b71565b8160000151816000019073ffffffffffffffffffffffffffffffffffffffff16908173ffffffffffffffffffffffffffffffffffffffff16815250508160200151816020019073ffffffffffffffffffffffffffffffffffffffff16908173ffffffffffffffffffffffffffffffffffffffff16815250508160400151816040019073ffffffffffffffffffffffffffffffffffffffff16908173ffffffffffffffffffffffffffffffffffffffff16815250508160600151816060019073ffffffffffffffffffffffffffffffffffffffff16908173ffffffffffffffffffffffffffffffffffffffff168152505081608001518160800181815250508261022001518160a00181905250438160c00181815250508160c001518160e001819052506131d18260e00151846101e0015160000151613268565b816101000181815250506131e581856132f3565b505b5b5b5b5b5b50505050565b8161323457806040517f100960cb00000000000000000000000000000000000000000000000000000000815260040161322b9190614259565b60405180910390fd5b5050565b61324383838361367f565b61324c57600080fd5b505050565b600061325f83853085613795565b90509392505050565b6000818301905092915050565b61327d613d8a565b60005b60018110156132cf5784816001811061329c5761329b61516d565b5b60200201518282600181106132b4576132b361516d565b5b602002018190525080806132c79061550e565b915050613280565b50818184600181106132e4576132e361516d565b5b60200201819052509392505050565b8160a001516060015161331f5760008260a00151602001511461331757600161331a565b60005b613322565b60015b156134be5761332f613db7565b8260000151816000019073ffffffffffffffffffffffffffffffffffffffff16908173ffffffffffffffffffffffffffffffffffffffff16815250508260200151816020019073ffffffffffffffffffffffffffffffffffffffff16908173ffffffffffffffffffffffffffffffffffffffff16815250508260400151816040019073ffffffffffffffffffffffffffffffffffffffff16908173ffffffffffffffffffffffffffffffffffffffff16815250508260600151816060019073ffffffffffffffffffffffffffffffffffffffff16908173ffffffffffffffffffffffffffffffffffffffff168152505082608001518160800181815250508260a001518160a001819052508260e001518160c001819052508261010001518160e00181815250508260a00151604001518161010001819052508260a0015160a001518161012001819052506005600081905550436001819055508060405160200161349a9190615889565b604051602081830303815290604052600290816134b79190615a51565b50506135bc565b6134c6613e7a565b8260000151816000019073ffffffffffffffffffffffffffffffffffffffff16908173ffffffffffffffffffffffffffffffffffffffff16815250508260200151816020019073ffffffffffffffffffffffffffffffffffffffff16908173ffffffffffffffffffffffffffffffffffffffff16815250508260e0015181604001819052508261010001518160600181815250508260a001516040015181608001819052508260a0015160a001518160a001819052506003600081905550436001819055508060405160200161359c9190615ba0565b604051602081830303815290604052600290816135b99190615a51565b50505b5050565b60008282846135cf9190615bbc565b9150811015613613576040517f08c379a000000000000000000000000000000000000000000000000000000000815260040161360a90615c4d565b60405180910390fd5b92915050565b6000818303905092915050565b60008282846136359190615c6d565b9150811115613679576040517f08c379a000000000000000000000000000000000000000000000000000000000815260040161367090615ced565b60405180910390fd5b92915050565b60008060008573ffffffffffffffffffffffffffffffffffffffff16600063a9059cbb60e01b87876040516024016136b8929190615d0d565b604051602081830303815290604052907bffffffffffffffffffffffffffffffffffffffffffffffffffffffff19166020820180517bffffffffffffffffffffffffffffffffffffffffffffffffffffffff83818316178352505050506040516137229190615d72565b60006040518083038185875af1925050503d806000811461375f576040519150601f19603f3d011682016040523d82523d6000602084013e613764565b606091505b5091509150613775828260026138ae565b508080602001905181019061378a9190615d89565b925050509392505050565b60008060008673ffffffffffffffffffffffffffffffffffffffff1660006323b872dd60e01b8888886040516024016137d093929190615db6565b604051602081830303815290604052907bffffffffffffffffffffffffffffffffffffffffffffffffffffffff19166020820180517bffffffffffffffffffffffffffffffffffffffffffffffffffffffff838183161783525050505060405161383a9190615d72565b60006040518083038185875af1925050503d8060008114613877576040519150601f19603f3d011682016040523d82523d6000602084013e61387c565b606091505b509150915061388d828260016138ae565b50808060200190518101906138a29190615d89565b92505050949350505050565b606083156138be5782905061390e565b6000835111156138d15782518084602001fd5b816040517f100960cb0000000000000000000000000000000000000000000000000000000081526004016139059190614259565b60405180910390fd5b9392505050565b6040518060600160405280600073ffffffffffffffffffffffffffffffffffffffff168152602001600081526020016000151581525090565b604051806101400160405280600015158152602001600015158152602001600015158152602001600015158152602001613986613915565b81526020016139936139c5565b81526020016139a0613a42565b81526020016000151581526020016000151581526020016139bf6139e6565b81525090565b60405180606001604052806000815260200160008152602001600081525090565b604051806080016040528060008152602001600073ffffffffffffffffffffffffffffffffffffffff168152602001600081526020016000151581525090565b6040518060400160405280600081526020016000151581525090565b604051806060016040528060006001811115613a6157613a60614501565b5b8152602001600015158152602001613a776139e6565b81525090565b6040518060400160405280600015158152602001613a99613eee565b81525090565b604051806040016040528060008152602001613ab9613eee565b81525090565b6040518060400160405280613ad2613f5d565b8152602001613adf613eee565b81525090565b6040518060400160405280613af8613f76565b8152602001613b05613eee565b81525090565b508054613b179061491e565b6000825580601f10613b295750613b48565b601f016020900490600052602060002090810190613b479190613f8f565b5b50565b6040518060400160405280613b5e613fac565b8152602001613b6b613ff7565b81525090565b604051806101200160405280600073ffffffffffffffffffffffffffffffffffffffff168152602001600073ffffffffffffffffffffffffffffffffffffffff168152602001600073ffffffffffffffffffffffffffffffffffffffff168152602001600073ffffffffffffffffffffffffffffffffffffffff16815260200160008152602001613c00613ff7565b815260200160008152602001613c14613d8a565b8152602001600081525090565b6040518060400160405280613c34613a26565b8152602001613c41613eee565b81525090565b6040518060400160405280613c5a61405b565b8152602001613c67613eee565b81525090565b6040518060400160405280613c8061405b565b8152602001613c8d613eee565b81525090565b604051806102400160405280613ca7613f5d565b8152602001613cb4613a42565b8152602001613cc16139e6565b8152602001613cce613fac565b8152602001613cdb613ff7565b8152602001613ce8613ff7565b8152602001613cf5613f76565b8152602001613d02613ff7565b8152602001613d0f613fac565b8152602001613d1c613ff7565b8152602001613d2961405b565b8152602001613d36613a42565b8152602001613d436139e6565b8152602001613d506139e6565b8152602001613d5d613ff7565b8152602001613d6a613a26565b8152602001613d776139e6565b8152602001613d84613ff7565b81525090565b60405180602001604052806001905b613da161406e565b815260200190600190039081613d995790505090565b604051806101400160405280600073ffffffffffffffffffffffffffffffffffffffff168152602001600073ffffffffffffffffffffffffffffffffffffffff168152602001600073ffffffffffffffffffffffffffffffffffffffff168152602001600073ffffffffffffffffffffffffffffffffffffffff16815260200160008152602001613e46613ff7565b8152602001613e53613d8a565b815260200160008152602001613e67613915565b8152602001613e746139c5565b81525090565b6040518060c00160405280600073ffffffffffffffffffffffffffffffffffffffff168152602001600073ffffffffffffffffffffffffffffffffffffffff168152602001613ec7613d8a565b815260200160008152602001613edb613915565b8152602001613ee86139c5565b81525090565b6040518060e0016040528060006005811115613f0d57613f0c614501565b5b8152602001613f1a613f5d565b8152602001613f2761405b565b8152602001613f34613f76565b8152602001600015158152602001613f4a61405b565b8152602001613f57613a26565b81525090565b6040518060200160405280613f706139e6565b81525090565b6040518060200160405280613f896139c5565b81525090565b5b80821115613fa8576000816000905550600101613f90565b5090565b604051806060016040528060006001811115613fcb57613fca614501565b5b8152602001600015158152602001600073ffffffffffffffffffffffffffffffffffffffff1681525090565b60405180610120016040528061400b613fac565b81526020016000815260200161401f613915565b815260200160001515815260200160001515815260200161403e6139c5565b815260200160001515815260200160008152602001600081525090565b6040518060200160405280600081525090565b604051806060016040528060008152602001600081526020016000151581525090565b600073ffffffffffffffffffffffffffffffffffffffff82169050919050565b60006140bc82614091565b9050919050565b6140cc816140b1565b82525050565b6000819050919050565b6140e5816140d2565b82525050565b60008115159050919050565b614100816140eb565b82525050565b60608201600082015161411c60008501826140c3565b50602082015161412f60208501826140dc565b50604082015161414260408501826140f7565b50505050565b600060608201905061415d6000830184614106565b92915050565b60608201600082015161417960008501826140dc565b50602082015161418c60208501826140dc565b50604082015161419f60408501826140dc565b50505050565b60006060820190506141ba6000830184614163565b92915050565b6141c9816140eb565b82525050565b60006020820190506141e460008301846141c0565b92915050565b6000604051905090565b600080fd5b600080fd5b600060808284031215614214576142136141f9565b5b81905092915050565b600060808284031215614233576142326141f4565b5b6000614241848285016141fe565b91505092915050565b614253816140d2565b82525050565b600060208201905061426e600083018461424a565b92915050565b60006060828403121561428a576142896141f9565b5b81905092915050565b6000606082840312156142a9576142a86141f4565b5b60006142b784828501614274565b91505092915050565b6000602082840312156142d6576142d56141f9565b5b81905092915050565b6000602082840312156142f5576142f46141f4565b5b6000614303848285016142c0565b91505092915050565b614315816140d2565b811461432057600080fd5b50565b6000813590506143328161430c565b92915050565b614341816140eb565b811461434c57600080fd5b50565b60008135905061435e81614338565b92915050565b6000806040838503121561437b5761437a6141f4565b5b600061438985828601614323565b925050602061439a8582860161434f565b9150509250929050565b6080820160008201516143ba60008501826140dc565b5060208201516143cd60208501826140c3565b5060408201516143e060408501826140dc565b5060608201516143f360608501826140f7565b50505050565b600060808201905061440e60008301846143a4565b92915050565b60006020828403121561442a576144296141f4565b5b600061443884828501614323565b91505092915050565b600081519050919050565b600082825260208201905092915050565b60005b8381101561447b578082015181840152602081019050614460565b60008484015250505050565b6000601f19601f8301169050919050565b60006144a382614441565b6144ad818561444c565b93506144bd81856020860161445d565b6144c681614487565b840191505092915050565b60006040820190506144e6600083018561424a565b81810360208301526144f88184614498565b90509392505050565b7f4e487b7100000000000000000000000000000000000000000000000000000000600052602160045260246000fd5b6002811061454157614540614501565b5b50565b600081905061455282614530565b919050565b600061456282614544565b9050919050565b61457281614557565b82525050565b60808201600082015161458e60008501826140dc565b5060208201516145a160208501826140c3565b5060408201516145b460408501826140dc565b5060608201516145c760608501826140f7565b50505050565b60c0820160008201516145e36000850182614569565b5060208201516145f660208501826140f7565b5060408201516146096040850182614578565b50505050565b600060c08201905061462460008301846145cd565b92915050565b60006101c08284031215614641576146406141f9565b5b81905092915050565b60006101c08284031215614661576146606141f4565b5b600061466f8482850161462a565b91505092915050565b600080fd5b7f4e487b7100000000000000000000000000000000000000000000000000000000600052604160045260246000fd5b6146b582614487565b810181811067ffffffffffffffff821117156146d4576146d361467d565b5b80604052505050565b60006146e76141ea565b90506146f382826146ac565b919050565b600074ffffffffffffffffffffffffffffffffffffffffff82169050919050565b614722816146f8565b811461472d57600080fd5b50565b60008135905061473f81614719565b614748816140b1565b905092915050565b60006080828403121561476657614765614678565b5b61477060806146dd565b9050600061478084828501614323565b600083015250602061479484828501614730565b60208301525060406147a884828501614323565b60408301525060606147bc8482850161434f565b60608301525092915050565b6000608082840312156147de576147dd6141f4565b5b60006147ec84828501614750565b91505092915050565b60006060828403121561480b5761480a614678565b5b61481560606146dd565b9050600061482584828501614323565b600083015250602061483984828501614323565b602083015250604061484d84828501614323565b60408301525092915050565b60006060828403121561486f5761486e6141f4565b5b600061487d848285016147f5565b91505092915050565b60006020828403121561489c5761489b614678565b5b6148a660206146dd565b905060006148b684828501614323565b60008301525092915050565b6000602082840312156148d8576148d76141f4565b5b60006148e684828501614886565b91505092915050565b7f4e487b7100000000000000000000000000000000000000000000000000000000600052602260045260246000fd5b6000600282049050600182168061493657607f821691505b602082108103614949576149486148ef565b5b50919050565b6006811061495c57600080fd5b50565b60008135905061496e8161494f565b92915050565b60006080828403121561498a57614989614678565b5b61499460206146dd565b905060006149a484828501614750565b60008301525092915050565b6000606082840312156149c6576149c5614678565b5b6149d060206146dd565b905060006149e0848285016147f5565b60008301525092915050565b600060408284031215614a0257614a01614678565b5b614a0c60406146dd565b90506000614a1c84828501614323565b6000830152506020614a308482850161434f565b60208301525092915050565b60006101a08284031215614a5357614a52614678565b5b614a5d60e06146dd565b90506000614a6d8482850161495f565b6000830152506020614a8184828501614974565b60208301525060a0614a9584828501614886565b60408301525060c0614aa9848285016149b0565b606083015250610120614abe8482850161434f565b608083015250610140614ad384828501614886565b60a083015250610160614ae8848285016149ec565b60c08301525092915050565b60006101c08284031215614b0b57614b0a614678565b5b614b1560406146dd565b90506000614b2584828501614323565b6000830152506020614b3984828501614a3c565b60208301525092915050565b60006101c08284031215614b5c57614b5b6141f4565b5b6000614b6a84828501614af4565b91505092915050565b600081519050614b8281614719565b614b8b816140b1565b905092915050565b600080fd5b600067ffffffffffffffff821115614bb357614bb261467d565b5b602082029050919050565b600080fd5b600081519050614bd28161430c565b92915050565b600081519050614be781614338565b92915050565b600060608284031215614c0357614c02614678565b5b614c0d60606146dd565b90506000614c1d84828501614bc3565b6000830152506020614c3184828501614bc3565b6020830152506040614c4584828501614bd8565b60408301525092915050565b6000614c64614c5f84614b98565b6146dd565b90508060608402830185811115614c7e57614c7d614bbe565b5b835b81811015614ca75780614c938882614bed565b845260208401935050606081019050614c80565b5050509392505050565b600082601f830112614cc657614cc5614b93565b5b6001614cd3848285614c51565b91505092915050565b600060608284031215614cf257614cf1614678565b5b614cfc60606146dd565b90506000614d0c84828501614b73565b6000830152506020614d2084828501614bc3565b6020830152506040614d3484828501614bd8565b60408301525092915050565b600060608284031215614d5657614d55614678565b5b614d6060606146dd565b90506000614d7084828501614bc3565b6000830152506020614d8484828501614bc3565b6020830152506040614d9884828501614bc3565b60408301525092915050565b60006101808284031215614dbb57614dba614678565b5b614dc560c06146dd565b90506000614dd584828501614b73565b6000830152506020614de984828501614b73565b6020830152506040614dfd84828501614cb1565b60408301525060a0614e1184828501614bc3565b60608301525060c0614e2584828501614cdc565b608083015250610120614e3a84828501614d40565b60a08301525092915050565b60006101808284031215614e5d57614e5c6141f4565b5b6000614e6b84828501614da4565b91505092915050565b60028110614e8157600080fd5b50565b600081519050614e9381614e74565b92915050565b600060608284031215614eaf57614eae614678565b5b614eb960606146dd565b90506000614ec984828501614e84565b6000830152506020614edd84828501614bd8565b6020830152506040614ef184828501614b73565b60408301525092915050565b60006101e08284031215614f1457614f13614678565b5b614f1f6101206146dd565b90506000614f2f84828501614e99565b6000830152506060614f4384828501614bc3565b6020830152506080614f5784828501614cdc565b60408301525060e0614f6b84828501614bd8565b606083015250610100614f8084828501614bd8565b608083015250610120614f9584828501614d40565b60a083015250610180614faa84828501614bd8565b60c0830152506101a0614fbf84828501614bc3565b60e0830152506101c0614fd484828501614bc3565b6101008301525092915050565b60006103c08284031215614ff857614ff7614678565b5b6150036101406146dd565b9050600061501384828501614b73565b600083015250602061502784828501614b73565b602083015250604061503b84828501614b73565b604083015250606061504f84828501614b73565b606083015250608061506384828501614bc3565b60808301525060a061507784828501614efd565b60a08301525061028061508c84828501614cb1565b60c0830152506102e06150a184828501614bc3565b60e0830152506103006150b684828501614cdc565b610100830152506103606150cc84828501614d40565b6101208301525092915050565b60006103c082840312156150f0576150ef6141f4565b5b60006150fe84828501614fe1565b91505092915050565b600061511282614091565b9050919050565b61512281615107565b82525050565b60208201600082015161513e60008501826140dc565b50505050565b60006040820190506151596000830185615119565b6151666020830184615128565b9392505050565b7f4e487b7100000000000000000000000000000000000000000000000000000000600052603260045260246000fd5b6000606082840312156151b2576151b1614678565b5b6151bc60606146dd565b905060006151cc84828501614bd8565b60008301525060206151e084828501614bc3565b60208301525060406151f484828501614b73565b60408301525092915050565b60006101e0828403121561521757615216614678565b5b61522160e06146dd565b9050600061523184828501614b73565b60008301525060206152458482850161519c565b602083015250608061525984828501614b73565b60408301525060a061526d84828501614cdc565b60608301525061010061528284828501614d40565b60808301525061016061529784828501614b73565b60a0830152506101806152ac84828501614cb1565b60c08301525092915050565b60006101e082840312156152cf576152ce6141f4565b5b60006152dd84828501615200565b91505092915050565b600681106152f7576152f6614501565b5b50565b6000819050615308826152e6565b919050565b6000615318826152fa565b9050919050565b6153288161530d565b82525050565b6080820160008201516153446000850182614578565b50505050565b60208201600082015161536060008501826140dc565b50505050565b60608201600082015161537c60008501826140dc565b50602082015161538f60208501826140dc565b5060408201516153a260408501826140dc565b50505050565b6060820160008201516153be6000850182615366565b50505050565b6040820160008201516153da60008501826140dc565b5060208201516153ed60208501826140f7565b50505050565b6101a08201600082015161540a600085018261531f565b50602082015161541d602085018261532e565b50604082015161543060a085018261534a565b50606082015161544360c08501826153a8565b5060808201516154576101208501826140f7565b5060a082015161546b61014085018261534a565b5060c082015161547f6101608501826153c4565b50505050565b6101c08201600082015161549c60008501826140dc565b5060208201516154af60208501826153f3565b50505050565b60006101e0820190506154cb6000830185615119565b6154d86020830184615485565b9392505050565b7f4e487b7100000000000000000000000000000000000000000000000000000000600052601160045260246000fd5b6000615519826140d2565b91507fffffffffffffffffffffffffffffffffffffffffffffffffffffffffffffffff820361554b5761554a6154df565b5b600182019050919050565b6002811061556757615566614501565b5b50565b600081905061557882615556565b919050565b60006155888261556a565b9050919050565b6155988161557d565b82525050565b6060820160008201516155b4600085018261558f565b5060208201516155c760208501826140f7565b5060408201516155da60408501826140c3565b50505050565b6060820160008201516155f660008501826140c3565b50602082015161560960208501826140dc565b50604082015161561c60408501826140f7565b50505050565b6101e082016000820151615639600085018261559e565b50602082015161564c60608501826140dc565b50604082015161565f60808501826155e0565b50606082015161567260e08501826140f7565b5060808201516156866101008501826140f7565b5060a082015161569a610120850182615366565b5060c08201516156ae6101808501826140f7565b5060e08201516156c26101a08501826140dc565b506101008201516156d76101c08501826140dc565b50505050565b600060019050919050565b600081905092915050565b6000819050919050565b60608201600082015161571360008501826140dc565b50602082015161572660208501826140dc565b50604082015161573960408501826140f7565b50505050565b600061574b83836156fd565b60608301905092915050565b6000602082019050919050565b61576d816156dd565b61577781846156e8565b9250615782826156f3565b8060005b838110156157b357815161579a878261573f565b96506157a583615757565b925050600181019050615786565b505050505050565b6103c0820160008201516157d260008501826140c3565b5060208201516157e560208501826140c3565b5060408201516157f860408501826140c3565b50606082015161580b60608501826140c3565b50608082015161581e60808501826140dc565b5060a082015161583160a0850182615622565b5060c0820151615845610280850182615764565b5060e08201516158596102e08501826140dc565b5061010082015161586e6103008501826155e0565b50610120820151615883610360850182615366565b50505050565b60006103c08201905061589f60008301846157bb565b92915050565b60008190508160005260206000209050919050565b60006020601f8301049050919050565b600082821b905092915050565b6000600883026159077fffffffffffffffffffffffffffffffffffffffffffffffffffffffffffffffff826158ca565b61591186836158ca565b95508019841693508086168417925050509392505050565b6000819050919050565b600061594e615949615944846140d2565b615929565b6140d2565b9050919050565b6000819050919050565b61596883615933565b61597c61597482615955565b8484546158d7565b825550505050565b600090565b615991615984565b61599c81848461595f565b505050565b5b818110156159c0576159b5600082615989565b6001810190506159a2565b5050565b601f821115615a05576159d6816158a5565b6159df846158ba565b810160208510156159ee578190505b615a026159fa856158ba565b8301826159a1565b50505b505050565b600082821c905092915050565b6000615a2860001984600802615a0a565b1980831691505092915050565b6000615a418383615a17565b9150826002028217905092915050565b615a5a82614441565b67ffffffffffffffff811115615a7357615a7261467d565b5b615a7d825461491e565b615a888282856159c4565b600060209050601f831160018114615abb5760008415615aa9578287015190505b615ab38582615a35565b865550615b1b565b601f198416615ac9866158a5565b60005b82811015615af157848901518255600182019150602085019450602081019050615acc565b86831015615b0e5784890151615b0a601f891682615a17565b8355505b6001600288020188555050505b505050505050565b61018082016000820151615b3a60008501826140c3565b506020820151615b4d60208501826140c3565b506040820151615b606040850182615764565b506060820151615b7360a08501826140dc565b506080820151615b8660c08501826155e0565b5060a0820151615b9a610120850182615366565b50505050565b600061018082019050615bb66000830184615b23565b92915050565b6000615bc7826140d2565b9150615bd2836140d2565b9250828201905080821115615bea57615be96154df565b5b92915050565b600082825260208201905092915050565b7f616464206f766572666c6f770000000000000000000000000000000000000000600082015250565b6000615c37600c83615bf0565b9150615c4282615c01565b602082019050919050565b60006020820190508181036000830152615c6681615c2a565b9050919050565b6000615c78826140d2565b9150615c83836140d2565b9250828203905081811115615c9b57615c9a6154df565b5b92915050565b7f737562207772617061726f756e64000000000000000000000000000000000000600082015250565b6000615cd7600e83615bf0565b9150615ce282615ca1565b602082019050919050565b60006020820190508181036000830152615d0681615cca565b9050919050565b6000604082019050615d226000830185615119565b615d2f602083018461424a565b9392505050565b600081905092915050565b6000615d4c82614441565b615d568185615d36565b9350615d6681856020860161445d565b80840191505092915050565b6000615d7e8284615d41565b915081905092915050565b600060208284031215615d9f57615d9e6141f4565b5b6000615dad84828501614bd8565b91505092915050565b6000606082019050615dcb6000830186615119565b615dd86020830185615119565b615de5604083018461424a565b94935050505056fea26474726f6e58221220981a9573ab8be8ba8a2fc95f8b3a64732a8ee949d6aa2668bf83fc7209a0e77b64736f6c63430008120033",
      "opcodes": "PUSH1 0x80 PUSH1 0x40 MSTORE PUSH1 0x40 MLOAD PUSH3 0x7072 CODESIZE SUB DUP1 PUSH3 0x7072 DUP4 CODECOPY DUP2 DUP2 ADD PUSH1 0x40 MSTORE DUP2 ADD SWAP1 PUSH3 0x29 SWAP2 SWAP1 PUSH3 0xA44 JUMP JUMPDEST PUSH1 0x0 DUP1 DUP2 SWAP1 SSTORE POP NUMBER PUSH1 0x3 DUP2 SWAP1 SSTORE POP PUSH3 0x41 PUSH3 0x3E1 JUMP JUMPDEST PUSH3 0x53 DUP3 DUP3 PUSH3 0x5B PUSH1 0x20 SHL PUSH1 0x20 SHR JUMP JUMPDEST POP POP PUSH3 0x123F JUMP JUMPDEST PUSH3 0x65 PUSH3 0x460 JUMP JUMPDEST PUSH3 0x88 PUSH1 0x4 PUSH1 0x0 SWAP1 SLOAD SWAP1 PUSH2 0x100 EXP SWAP1 DIV PUSH1 0xFF AND ISZERO PUSH1 0xD PUSH3 0x30B PUSH1 0x20 SHL PUSH1 0x20 SHR JUMP JUMPDEST PUSH32 0x59DEE4752C68E3C117FD4C78BCB2026313581491346B9971A5388B322EDA3B20 CALLER DUP5 PUSH1 0x40 MLOAD PUSH3 0xBB SWAP3 SWAP2 SWAP1 PUSH3 0xC31 JUMP JUMPDEST PUSH1 0x40 MLOAD DUP1 SWAP2 SUB SWAP1 LOG1 PUSH3 0xEE PUSH1 0x0 DUP5 PUSH1 0x0 ADD MLOAD EQ DUP1 PUSH3 0xE0 JUMPI POP DUP4 PUSH1 0x0 ADD MLOAD PUSH1 0x1 SLOAD EQ JUMPDEST PUSH1 0xE PUSH3 0x30B PUSH1 0x20 SHL PUSH1 0x20 SHR JUMP JUMPDEST PUSH1 0x0 DUP2 PUSH1 0x0 ADD MLOAD PUSH1 0x0 ADD DUP2 DUP2 MSTORE POP POP PUSH1 0x0 DUP2 PUSH1 0x0 ADD MLOAD PUSH1 0x20 ADD DUP2 DUP2 MSTORE POP POP PUSH1 0x0 DUP2 PUSH1 0x0 ADD MLOAD PUSH1 0x40 ADD SWAP1 ISZERO ISZERO SWAP1 DUP2 ISZERO ISZERO DUP2 MSTORE POP POP DUP1 PUSH1 0x0 ADD MLOAD DUP2 PUSH1 0x20 ADD MLOAD PUSH1 0x0 PUSH1 0x1 DUP2 LT PUSH3 0x141 JUMPI PUSH3 0x140 PUSH3 0xC5F JUMP JUMPDEST JUMPDEST PUSH1 0x20 MUL ADD DUP2 SWAP1 MSTORE POP PUSH3 0x15F PUSH1 0x0 CALLVALUE EQ PUSH1 0xF PUSH3 0x30B PUSH1 0x20 SHL PUSH1 0x20 SHR JUMP JUMPDEST PUSH3 0x169 PUSH3 0x48A JUMP JUMPDEST CALLER DUP2 PUSH1 0x0 ADD SWAP1 PUSH20 0xFFFFFFFFFFFFFFFFFFFFFFFFFFFFFFFFFFFFFFFF AND SWAP1 DUP2 PUSH20 0xFFFFFFFFFFFFFFFFFFFFFFFFFFFFFFFFFFFFFFFF AND DUP2 MSTORE POP POP DUP4 PUSH1 0x20 ADD MLOAD DUP2 PUSH1 0x20 ADD DUP2 SWAP1 MSTORE POP DUP4 PUSH1 0x40 ADD MLOAD DUP2 PUSH1 0x40 ADD SWAP1 PUSH20 0xFFFFFFFFFFFFFFFFFFFFFFFFFFFFFFFFFFFFFFFF AND SWAP1 DUP2 PUSH20 0xFFFFFFFFFFFFFFFFFFFFFFFFFFFFFFFFFFFFFFFF AND DUP2 MSTORE POP POP DUP4 PUSH1 0x60 ADD MLOAD DUP2 PUSH1 0x60 ADD DUP2 SWAP1 MSTORE POP DUP4 PUSH1 0x80 ADD MLOAD DUP2 PUSH1 0x80 ADD DUP2 SWAP1 MSTORE POP DUP4 PUSH1 0xA0 ADD MLOAD DUP2 PUSH1 0xA0 ADD SWAP1 PUSH20 0xFFFFFFFFFFFFFFFFFFFFFFFFFFFFFFFFFFFFFFFF AND SWAP1 DUP2 PUSH20 0xFFFFFFFFFFFFFFFFFFFFFFFFFFFFFFFFFFFFFFFF AND DUP2 MSTORE POP POP PUSH3 0x2BB DUP3 PUSH1 0x20 ADD MLOAD PUSH1 0x0 PUSH1 0x40 MLOAD DUP1 PUSH1 0x60 ADD PUSH1 0x40 MSTORE DUP1 PUSH1 0x0 DUP2 MSTORE PUSH1 0x20 ADD DUP7 PUSH1 0x20 ADD MLOAD PUSH1 0x0 PUSH1 0x1 DUP2 LT PUSH3 0x278 JUMPI PUSH3 0x277 PUSH3 0xC5F JUMP JUMPDEST JUMPDEST PUSH1 0x20 MUL ADD MLOAD PUSH1 0x20 ADD MLOAD DUP2 MSTORE PUSH1 0x20 ADD DUP7 PUSH1 0x20 ADD MLOAD PUSH1 0x0 PUSH1 0x1 DUP2 LT PUSH3 0x2A1 JUMPI PUSH3 0x2A0 PUSH3 0xC5F JUMP JUMPDEST JUMPDEST PUSH1 0x20 MUL ADD MLOAD PUSH1 0x40 ADD MLOAD ISZERO ISZERO DUP2 MSTORE POP PUSH3 0x354 PUSH1 0x20 SHL PUSH1 0x20 SHR JUMP JUMPDEST DUP2 PUSH1 0xC0 ADD DUP2 SWAP1 MSTORE POP PUSH1 0x1 PUSH1 0x0 DUP2 SWAP1 SSTORE POP NUMBER PUSH1 0x1 DUP2 SWAP1 SSTORE POP DUP1 PUSH1 0x40 MLOAD PUSH1 0x20 ADD PUSH3 0x2E5 SWAP2 SWAP1 PUSH3 0xE20 JUMP JUMPDEST PUSH1 0x40 MLOAD PUSH1 0x20 DUP2 DUP4 SUB SUB DUP2 MSTORE SWAP1 PUSH1 0x40 MSTORE PUSH1 0x2 SWAP1 DUP2 PUSH3 0x304 SWAP2 SWAP1 PUSH3 0x107F JUMP JUMPDEST POP POP POP POP POP JUMP JUMPDEST DUP2 PUSH3 0x350 JUMPI DUP1 PUSH1 0x40 MLOAD PUSH32 0x100960CB00000000000000000000000000000000000000000000000000000000 DUP2 MSTORE PUSH1 0x4 ADD PUSH3 0x347 SWAP2 SWAP1 PUSH3 0x1177 JUMP JUMPDEST PUSH1 0x40 MLOAD DUP1 SWAP2 SUB SWAP1 REVERT JUMPDEST POP POP JUMP JUMPDEST PUSH3 0x35E PUSH3 0x529 JUMP JUMPDEST PUSH1 0x0 JUMPDEST PUSH1 0x1 DUP2 LT ISZERO PUSH3 0x3BA JUMPI DUP5 DUP2 PUSH1 0x1 DUP2 LT PUSH3 0x381 JUMPI PUSH3 0x380 PUSH3 0xC5F JUMP JUMPDEST JUMPDEST PUSH1 0x20 MUL ADD MLOAD DUP3 DUP3 PUSH1 0x1 DUP2 LT PUSH3 0x39C JUMPI PUSH3 0x39B PUSH3 0xC5F JUMP JUMPDEST JUMPDEST PUSH1 0x20 MUL ADD DUP2 SWAP1 MSTORE POP DUP1 DUP1 PUSH3 0x3B1 SWAP1 PUSH3 0x11C3 JUMP JUMPDEST SWAP2 POP POP PUSH3 0x361 JUMP JUMPDEST POP DUP2 DUP2 DUP5 PUSH1 0x1 DUP2 LT PUSH3 0x3D2 JUMPI PUSH3 0x3D1 PUSH3 0xC5F JUMP JUMPDEST JUMPDEST PUSH1 0x20 MUL ADD DUP2 SWAP1 MSTORE POP SWAP4 SWAP3 POP POP POP JUMP JUMPDEST PUSH1 0x40 MLOAD DUP1 PUSH2 0x140 ADD PUSH1 0x40 MSTORE DUP1 PUSH1 0x0 ISZERO ISZERO DUP2 MSTORE PUSH1 0x20 ADD PUSH1 0x0 ISZERO ISZERO DUP2 MSTORE PUSH1 0x20 ADD PUSH1 0x0 ISZERO ISZERO DUP2 MSTORE PUSH1 0x20 ADD PUSH1 0x0 ISZERO ISZERO DUP2 MSTORE PUSH1 0x20 ADD PUSH3 0x41B PUSH3 0x559 JUMP JUMPDEST DUP2 MSTORE PUSH1 0x20 ADD PUSH3 0x42A PUSH3 0x592 JUMP JUMPDEST DUP2 MSTORE PUSH1 0x20 ADD PUSH3 0x439 PUSH3 0x5B3 JUMP JUMPDEST DUP2 MSTORE PUSH1 0x20 ADD PUSH1 0x0 ISZERO ISZERO DUP2 MSTORE PUSH1 0x20 ADD PUSH1 0x0 ISZERO ISZERO DUP2 MSTORE PUSH1 0x20 ADD PUSH3 0x45A PUSH3 0x5F3 JUMP JUMPDEST DUP2 MSTORE POP SWAP1 JUMP JUMPDEST PUSH1 0x40 MLOAD DUP1 PUSH1 0x40 ADD PUSH1 0x40 MSTORE DUP1 PUSH3 0x475 PUSH3 0x633 JUMP JUMPDEST DUP2 MSTORE PUSH1 0x20 ADD PUSH3 0x484 PUSH3 0x529 JUMP JUMPDEST DUP2 MSTORE POP SWAP1 JUMP JUMPDEST PUSH1 0x40 MLOAD DUP1 PUSH1 0xE0 ADD PUSH1 0x40 MSTORE DUP1 PUSH1 0x0 PUSH20 0xFFFFFFFFFFFFFFFFFFFFFFFFFFFFFFFFFFFFFFFF AND DUP2 MSTORE PUSH1 0x20 ADD PUSH3 0x4BC PUSH3 0x656 JUMP JUMPDEST DUP2 MSTORE PUSH1 0x20 ADD PUSH1 0x0 PUSH20 0xFFFFFFFFFFFFFFFFFFFFFFFFFFFFFFFFFFFFFFFF AND DUP2 MSTORE PUSH1 0x20 ADD PUSH3 0x4E8 PUSH3 0x559 JUMP JUMPDEST DUP2 MSTORE PUSH1 0x20 ADD PUSH3 0x4F7 PUSH3 0x592 JUMP JUMPDEST DUP2 MSTORE PUSH1 0x20 ADD PUSH1 0x0 PUSH20 0xFFFFFFFFFFFFFFFFFFFFFFFFFFFFFFFFFFFFFFFF AND DUP2 MSTORE PUSH1 0x20 ADD PUSH3 0x523 PUSH3 0x529 JUMP JUMPDEST DUP2 MSTORE POP SWAP1 JUMP JUMPDEST PUSH1 0x40 MLOAD DUP1 PUSH1 0x20 ADD PUSH1 0x40 MSTORE DUP1 PUSH1 0x1 SWAP1 JUMPDEST PUSH3 0x542 PUSH3 0x633 JUMP JUMPDEST DUP2 MSTORE PUSH1 0x20 ADD SWAP1 PUSH1 0x1 SWAP1 SUB SWAP1 DUP2 PUSH3 0x538 JUMPI SWAP1 POP POP SWAP1 JUMP JUMPDEST PUSH1 0x40 MLOAD DUP1 PUSH1 0x60 ADD PUSH1 0x40 MSTORE DUP1 PUSH1 0x0 PUSH20 0xFFFFFFFFFFFFFFFFFFFFFFFFFFFFFFFFFFFFFFFF AND DUP2 MSTORE PUSH1 0x20 ADD PUSH1 0x0 DUP2 MSTORE PUSH1 0x20 ADD PUSH1 0x0 ISZERO ISZERO DUP2 MSTORE POP SWAP1 JUMP JUMPDEST PUSH1 0x40 MLOAD DUP1 PUSH1 0x60 ADD PUSH1 0x40 MSTORE DUP1 PUSH1 0x0 DUP2 MSTORE PUSH1 0x20 ADD PUSH1 0x0 DUP2 MSTORE PUSH1 0x20 ADD PUSH1 0x0 DUP2 MSTORE POP SWAP1 JUMP JUMPDEST PUSH1 0x40 MLOAD DUP1 PUSH1 0x60 ADD PUSH1 0x40 MSTORE DUP1 PUSH1 0x0 PUSH1 0x1 DUP2 GT ISZERO PUSH3 0x5D5 JUMPI PUSH3 0x5D4 PUSH3 0x1210 JUMP JUMPDEST JUMPDEST DUP2 MSTORE PUSH1 0x20 ADD PUSH1 0x0 ISZERO ISZERO DUP2 MSTORE PUSH1 0x20 ADD PUSH3 0x5ED PUSH3 0x5F3 JUMP JUMPDEST DUP2 MSTORE POP SWAP1 JUMP JUMPDEST PUSH1 0x40 MLOAD DUP1 PUSH1 0x80 ADD PUSH1 0x40 MSTORE DUP1 PUSH1 0x0 DUP2 MSTORE PUSH1 0x20 ADD PUSH1 0x0 PUSH20 0xFFFFFFFFFFFFFFFFFFFFFFFFFFFFFFFFFFFFFFFF AND DUP2 MSTORE PUSH1 0x20 ADD PUSH1 0x0 DUP2 MSTORE PUSH1 0x20 ADD PUSH1 0x0 ISZERO ISZERO DUP2 MSTORE POP SWAP1 JUMP JUMPDEST PUSH1 0x40 MLOAD DUP1 PUSH1 0x60 ADD PUSH1 0x40 MSTORE DUP1 PUSH1 0x0 DUP2 MSTORE PUSH1 0x20 ADD PUSH1 0x0 DUP2 MSTORE PUSH1 0x20 ADD PUSH1 0x0 ISZERO ISZERO DUP2 MSTORE POP SWAP1 JUMP JUMPDEST PUSH1 0x40 MLOAD DUP1 PUSH1 0x60 ADD PUSH1 0x40 MSTORE DUP1 PUSH1 0x0 ISZERO ISZERO DUP2 MSTORE PUSH1 0x20 ADD PUSH1 0x0 DUP2 MSTORE PUSH1 0x20 ADD PUSH1 0x0 PUSH20 0xFFFFFFFFFFFFFFFFFFFFFFFFFFFFFFFFFFFFFFFF AND DUP2 MSTORE POP SWAP1 JUMP JUMPDEST PUSH1 0x0 PUSH1 0x40 MLOAD SWAP1 POP SWAP1 JUMP JUMPDEST PUSH1 0x0 DUP1 REVERT JUMPDEST PUSH1 0x0 DUP1 REVERT JUMPDEST PUSH1 0x0 PUSH1 0x1F NOT PUSH1 0x1F DUP4 ADD AND SWAP1 POP SWAP2 SWAP1 POP JUMP JUMPDEST PUSH32 0x4E487B7100000000000000000000000000000000000000000000000000000000 PUSH1 0x0 MSTORE PUSH1 0x41 PUSH1 0x4 MSTORE PUSH1 0x24 PUSH1 0x0 REVERT JUMPDEST PUSH3 0x6EE DUP3 PUSH3 0x6A3 JUMP JUMPDEST DUP2 ADD DUP2 DUP2 LT PUSH8 0xFFFFFFFFFFFFFFFF DUP3 GT OR ISZERO PUSH3 0x710 JUMPI PUSH3 0x70F PUSH3 0x6B4 JUMP JUMPDEST JUMPDEST DUP1 PUSH1 0x40 MSTORE POP POP POP JUMP JUMPDEST PUSH1 0x0 PUSH3 0x725 PUSH3 0x68F JUMP JUMPDEST SWAP1 POP PUSH3 0x733 DUP3 DUP3 PUSH3 0x6E3 JUMP JUMPDEST SWAP2 SWAP1 POP JUMP JUMPDEST PUSH1 0x0 DUP2 SWAP1 POP SWAP2 SWAP1 POP JUMP JUMPDEST PUSH3 0x74D DUP2 PUSH3 0x738 JUMP JUMPDEST DUP2 EQ PUSH3 0x759 JUMPI PUSH1 0x0 DUP1 REVERT JUMPDEST POP JUMP JUMPDEST PUSH1 0x0 DUP2 MLOAD SWAP1 POP PUSH3 0x76D DUP2 PUSH3 0x742 JUMP JUMPDEST SWAP3 SWAP2 POP POP JUMP JUMPDEST PUSH1 0x0 DUP2 ISZERO ISZERO SWAP1 POP SWAP2 SWAP1 POP JUMP JUMPDEST PUSH3 0x78A DUP2 PUSH3 0x773 JUMP JUMPDEST DUP2 EQ PUSH3 0x796 JUMPI PUSH1 0x0 DUP1 REVERT JUMPDEST POP JUMP JUMPDEST PUSH1 0x0 DUP2 MLOAD SWAP1 POP PUSH3 0x7AA DUP2 PUSH3 0x77F JUMP JUMPDEST SWAP3 SWAP2 POP POP JUMP JUMPDEST PUSH1 0x0 PUSH21 0xFFFFFFFFFFFFFFFFFFFFFFFFFFFFFFFFFFFFFFFFFF DUP3 AND SWAP1 POP SWAP2 SWAP1 POP JUMP JUMPDEST PUSH3 0x7DC DUP2 PUSH3 0x7B0 JUMP JUMPDEST DUP2 EQ PUSH3 0x7E8 JUMPI PUSH1 0x0 DUP1 REVERT JUMPDEST POP JUMP JUMPDEST PUSH1 0x0 PUSH20 0xFFFFFFFFFFFFFFFFFFFFFFFFFFFFFFFFFFFFFFFF DUP3 AND SWAP1 POP SWAP2 SWAP1 POP JUMP JUMPDEST PUSH1 0x0 PUSH3 0x818 DUP3 PUSH3 0x7EB JUMP JUMPDEST SWAP1 POP SWAP2 SWAP1 POP JUMP JUMPDEST PUSH1 0x0 DUP2 MLOAD SWAP1 POP PUSH3 0x830 DUP2 PUSH3 0x7D1 JUMP JUMPDEST PUSH3 0x83B DUP2 PUSH3 0x80B JUMP JUMPDEST SWAP1 POP SWAP3 SWAP2 POP POP JUMP JUMPDEST PUSH1 0x0 PUSH1 0x60 DUP3 DUP5 SUB SLT ISZERO PUSH3 0x85C JUMPI PUSH3 0x85B PUSH3 0x69E JUMP JUMPDEST JUMPDEST PUSH3 0x868 PUSH1 0x60 PUSH3 0x719 JUMP JUMPDEST SWAP1 POP PUSH1 0x0 PUSH3 0x87A DUP5 DUP3 DUP6 ADD PUSH3 0x799 JUMP JUMPDEST PUSH1 0x0 DUP4 ADD MSTORE POP PUSH1 0x20 PUSH3 0x890 DUP5 DUP3 DUP6 ADD PUSH3 0x75C JUMP JUMPDEST PUSH1 0x20 DUP4 ADD MSTORE POP PUSH1 0x40 PUSH3 0x8A6 DUP5 DUP3 DUP6 ADD PUSH3 0x81F JUMP JUMPDEST PUSH1 0x40 DUP4 ADD MSTORE POP SWAP3 SWAP2 POP POP JUMP JUMPDEST PUSH1 0x0 PUSH1 0x60 DUP3 DUP5 SUB SLT ISZERO PUSH3 0x8CB JUMPI PUSH3 0x8CA PUSH3 0x69E JUMP JUMPDEST JUMPDEST PUSH3 0x8D7 PUSH1 0x60 PUSH3 0x719 JUMP JUMPDEST SWAP1 POP PUSH1 0x0 PUSH3 0x8E9 DUP5 DUP3 DUP6 ADD PUSH3 0x81F JUMP JUMPDEST PUSH1 0x0 DUP4 ADD MSTORE POP PUSH1 0x20 PUSH3 0x8FF DUP5 DUP3 DUP6 ADD PUSH3 0x75C JUMP JUMPDEST PUSH1 0x20 DUP4 ADD MSTORE POP PUSH1 0x40 PUSH3 0x915 DUP5 DUP3 DUP6 ADD PUSH3 0x799 JUMP JUMPDEST PUSH1 0x40 DUP4 ADD MSTORE POP SWAP3 SWAP2 POP POP JUMP JUMPDEST PUSH1 0x0 PUSH1 0x60 DUP3 DUP5 SUB SLT ISZERO PUSH3 0x93A JUMPI PUSH3 0x939 PUSH3 0x69E JUMP JUMPDEST JUMPDEST PUSH3 0x946 PUSH1 0x60 PUSH3 0x719 JUMP JUMPDEST SWAP1 POP PUSH1 0x0 PUSH3 0x958 DUP5 DUP3 DUP6 ADD PUSH3 0x75C JUMP JUMPDEST PUSH1 0x0 DUP4 ADD MSTORE POP PUSH1 0x20 PUSH3 0x96E DUP5 DUP3 DUP6 ADD PUSH3 0x75C JUMP JUMPDEST PUSH1 0x20 DUP4 ADD MSTORE POP PUSH1 0x40 PUSH3 0x984 DUP5 DUP3 DUP6 ADD PUSH3 0x75C JUMP JUMPDEST PUSH1 0x40 DUP4 ADD MSTORE POP SWAP3 SWAP2 POP POP JUMP JUMPDEST PUSH1 0x0 PUSH2 0x180 DUP3 DUP5 SUB SLT ISZERO PUSH3 0x9AA JUMPI PUSH3 0x9A9 PUSH3 0x69E JUMP JUMPDEST JUMPDEST PUSH3 0x9B6 PUSH1 0xC0 PUSH3 0x719 JUMP JUMPDEST SWAP1 POP PUSH1 0x0 PUSH3 0x9C8 DUP5 DUP3 DUP6 ADD PUSH3 0x75C JUMP JUMPDEST PUSH1 0x0 DUP4 ADD MSTORE POP PUSH1 0x20 PUSH3 0x9DE DUP5 DUP3 DUP6 ADD PUSH3 0x843 JUMP JUMPDEST PUSH1 0x20 DUP4 ADD MSTORE POP PUSH1 0x80 PUSH3 0x9F4 DUP5 DUP3 DUP6 ADD PUSH3 0x81F JUMP JUMPDEST PUSH1 0x40 DUP4 ADD MSTORE POP PUSH1 0xA0 PUSH3 0xA0A DUP5 DUP3 DUP6 ADD PUSH3 0x8B2 JUMP JUMPDEST PUSH1 0x60 DUP4 ADD MSTORE POP PUSH2 0x100 PUSH3 0xA21 DUP5 DUP3 DUP6 ADD PUSH3 0x921 JUMP JUMPDEST PUSH1 0x80 DUP4 ADD MSTORE POP PUSH2 0x160 PUSH3 0xA38 DUP5 DUP3 DUP6 ADD PUSH3 0x81F JUMP JUMPDEST PUSH1 0xA0 DUP4 ADD MSTORE POP SWAP3 SWAP2 POP POP JUMP JUMPDEST PUSH1 0x0 PUSH2 0x180 DUP3 DUP5 SUB SLT ISZERO PUSH3 0xA5E JUMPI PUSH3 0xA5D PUSH3 0x699 JUMP JUMPDEST JUMPDEST PUSH1 0x0 PUSH3 0xA6E DUP5 DUP3 DUP6 ADD PUSH3 0x990 JUMP JUMPDEST SWAP2 POP POP SWAP3 SWAP2 POP POP JUMP JUMPDEST PUSH1 0x0 PUSH3 0xA84 DUP3 PUSH3 0x7EB JUMP JUMPDEST SWAP1 POP SWAP2 SWAP1 POP JUMP JUMPDEST PUSH3 0xA96 DUP2 PUSH3 0xA77 JUMP JUMPDEST DUP3 MSTORE POP POP JUMP JUMPDEST PUSH3 0xAA7 DUP2 PUSH3 0x738 JUMP JUMPDEST DUP3 MSTORE POP POP JUMP JUMPDEST PUSH3 0xAB8 DUP2 PUSH3 0x773 JUMP JUMPDEST DUP3 MSTORE POP POP JUMP JUMPDEST PUSH3 0xAC9 DUP2 PUSH3 0x80B JUMP JUMPDEST DUP3 MSTORE POP POP JUMP JUMPDEST PUSH1 0x60 DUP3 ADD PUSH1 0x0 DUP3 ADD MLOAD PUSH3 0xAE7 PUSH1 0x0 DUP6 ADD DUP3 PUSH3 0xAAD JUMP JUMPDEST POP PUSH1 0x20 DUP3 ADD MLOAD PUSH3 0xAFC PUSH1 0x20 DUP6 ADD DUP3 PUSH3 0xA9C JUMP JUMPDEST POP PUSH1 0x40 DUP3 ADD MLOAD PUSH3 0xB11 PUSH1 0x40 DUP6 ADD DUP3 PUSH3 0xABE JUMP JUMPDEST POP POP POP POP JUMP JUMPDEST PUSH1 0x60 DUP3 ADD PUSH1 0x0 DUP3 ADD MLOAD PUSH3 0xB2F PUSH1 0x0 DUP6 ADD DUP3 PUSH3 0xABE JUMP JUMPDEST POP PUSH1 0x20 DUP3 ADD MLOAD PUSH3 0xB44 PUSH1 0x20 DUP6 ADD DUP3 PUSH3 0xA9C JUMP JUMPDEST POP PUSH1 0x40 DUP3 ADD MLOAD PUSH3 0xB59 PUSH1 0x40 DUP6 ADD DUP3 PUSH3 0xAAD JUMP JUMPDEST POP POP POP POP JUMP JUMPDEST PUSH1 0x60 DUP3 ADD PUSH1 0x0 DUP3 ADD MLOAD PUSH3 0xB77 PUSH1 0x0 DUP6 ADD DUP3 PUSH3 0xA9C JUMP JUMPDEST POP PUSH1 0x20 DUP3 ADD MLOAD PUSH3 0xB8C PUSH1 0x20 DUP6 ADD DUP3 PUSH3 0xA9C JUMP JUMPDEST POP PUSH1 0x40 DUP3 ADD MLOAD PUSH3 0xBA1 PUSH1 0x40 DUP6 ADD DUP3 PUSH3 0xA9C JUMP JUMPDEST POP POP POP POP JUMP JUMPDEST PUSH2 0x180 DUP3 ADD PUSH1 0x0 DUP3 ADD MLOAD PUSH3 0xBC0 PUSH1 0x0 DUP6 ADD DUP3 PUSH3 0xA9C JUMP JUMPDEST POP PUSH1 0x20 DUP3 ADD MLOAD PUSH3 0xBD5 PUSH1 0x20 DUP6 ADD DUP3 PUSH3 0xACF JUMP JUMPDEST POP PUSH1 0x40 DUP3 ADD MLOAD PUSH3 0xBEA PUSH1 0x80 DUP6 ADD DUP3 PUSH3 0xABE JUMP JUMPDEST POP PUSH1 0x60 DUP3 ADD MLOAD PUSH3 0xBFF PUSH1 0xA0 DUP6 ADD DUP3 PUSH3 0xB17 JUMP JUMPDEST POP PUSH1 0x80 DUP3 ADD MLOAD PUSH3 0xC15 PUSH2 0x100 DUP6 ADD DUP3 PUSH3 0xB5F JUMP JUMPDEST POP PUSH1 0xA0 DUP3 ADD MLOAD PUSH3 0xC2B PUSH2 0x160 DUP6 ADD DUP3 PUSH3 0xABE JUMP JUMPDEST POP POP POP POP JUMP JUMPDEST PUSH1 0x0 PUSH2 0x1A0 DUP3 ADD SWAP1 POP PUSH3 0xC49 PUSH1 0x0 DUP4 ADD DUP6 PUSH3 0xA8B JUMP JUMPDEST PUSH3 0xC58 PUSH1 0x20 DUP4 ADD DUP5 PUSH3 0xBA7 JUMP JUMPDEST SWAP4 SWAP3 POP POP POP JUMP JUMPDEST PUSH32 0x4E487B7100000000000000000000000000000000000000000000000000000000 PUSH1 0x0 MSTORE PUSH1 0x32 PUSH1 0x4 MSTORE PUSH1 0x24 PUSH1 0x0 REVERT JUMPDEST PUSH1 0x0 PUSH1 0x1 SWAP1 POP SWAP2 SWAP1 POP JUMP JUMPDEST PUSH1 0x0 DUP2 SWAP1 POP SWAP3 SWAP2 POP POP JUMP JUMPDEST PUSH1 0x0 DUP2 SWAP1 POP SWAP2 SWAP1 POP JUMP JUMPDEST PUSH1 0x60 DUP3 ADD PUSH1 0x0 DUP3 ADD MLOAD PUSH3 0xCC6 PUSH1 0x0 DUP6 ADD DUP3 PUSH3 0xA9C JUMP JUMPDEST POP PUSH1 0x20 DUP3 ADD MLOAD PUSH3 0xCDB PUSH1 0x20 DUP6 ADD DUP3 PUSH3 0xA9C JUMP JUMPDEST POP PUSH1 0x40 DUP3 ADD MLOAD PUSH3 0xCF0 PUSH1 0x40 DUP6 ADD DUP3 PUSH3 0xAAD JUMP JUMPDEST POP POP POP POP JUMP JUMPDEST PUSH1 0x0 PUSH3 0xD04 DUP4 DUP4 PUSH3 0xCAE JUMP JUMPDEST PUSH1 0x60 DUP4 ADD SWAP1 POP SWAP3 SWAP2 POP POP JUMP JUMPDEST PUSH1 0x0 PUSH1 0x20 DUP3 ADD SWAP1 POP SWAP2 SWAP1 POP JUMP JUMPDEST PUSH3 0xD28 DUP2 PUSH3 0xC8E JUMP JUMPDEST PUSH3 0xD34 DUP2 DUP5 PUSH3 0xC99 JUMP JUMPDEST SWAP3 POP PUSH3 0xD41 DUP3 PUSH3 0xCA4 JUMP JUMPDEST DUP1 PUSH1 0x0 JUMPDEST DUP4 DUP2 LT ISZERO PUSH3 0xD78 JUMPI DUP2 MLOAD PUSH3 0xD5C DUP8 DUP3 PUSH3 0xCF6 JUMP JUMPDEST SWAP7 POP PUSH3 0xD69 DUP4 PUSH3 0xD10 JUMP JUMPDEST SWAP3 POP POP PUSH1 0x1 DUP2 ADD SWAP1 POP PUSH3 0xD45 JUMP JUMPDEST POP POP POP POP POP POP JUMP JUMPDEST PUSH2 0x1E0 DUP3 ADD PUSH1 0x0 DUP3 ADD MLOAD PUSH3 0xD99 PUSH1 0x0 DUP6 ADD DUP3 PUSH3 0xABE JUMP JUMPDEST POP PUSH1 0x20 DUP3 ADD MLOAD PUSH3 0xDAE PUSH1 0x20 DUP6 ADD DUP3 PUSH3 0xACF JUMP JUMPDEST POP PUSH1 0x40 DUP3 ADD MLOAD PUSH3 0xDC3 PUSH1 0x80 DUP6 ADD DUP3 PUSH3 0xABE JUMP JUMPDEST POP PUSH1 0x60 DUP3 ADD MLOAD PUSH3 0xDD8 PUSH1 0xA0 DUP6 ADD DUP3 PUSH3 0xB17 JUMP JUMPDEST POP PUSH1 0x80 DUP3 ADD MLOAD PUSH3 0xDEE PUSH2 0x100 DUP6 ADD DUP3 PUSH3 0xB5F JUMP JUMPDEST POP PUSH1 0xA0 DUP3 ADD MLOAD PUSH3 0xE04 PUSH2 0x160 DUP6 ADD DUP3 PUSH3 0xABE JUMP JUMPDEST POP PUSH1 0xC0 DUP3 ADD MLOAD PUSH3 0xE1A PUSH2 0x180 DUP6 ADD DUP3 PUSH3 0xD1D JUMP JUMPDEST POP POP POP POP JUMP JUMPDEST PUSH1 0x0 PUSH2 0x1E0 DUP3 ADD SWAP1 POP PUSH3 0xE38 PUSH1 0x0 DUP4 ADD DUP5 PUSH3 0xD80 JUMP JUMPDEST SWAP3 SWAP2 POP POP JUMP JUMPDEST PUSH1 0x0 DUP2 MLOAD SWAP1 POP SWAP2 SWAP1 POP JUMP JUMPDEST PUSH32 0x4E487B7100000000000000000000000000000000000000000000000000000000 PUSH1 0x0 MSTORE PUSH1 0x22 PUSH1 0x4 MSTORE PUSH1 0x24 PUSH1 0x0 REVERT JUMPDEST PUSH1 0x0 PUSH1 0x2 DUP3 DIV SWAP1 POP PUSH1 0x1 DUP3 AND DUP1 PUSH3 0xE91 JUMPI PUSH1 0x7F DUP3 AND SWAP2 POP JUMPDEST PUSH1 0x20 DUP3 LT DUP2 SUB PUSH3 0xEA7 JUMPI PUSH3 0xEA6 PUSH3 0xE49 JUMP JUMPDEST JUMPDEST POP SWAP2 SWAP1 POP JUMP JUMPDEST PUSH1 0x0 DUP2 SWAP1 POP DUP2 PUSH1 0x0 MSTORE PUSH1 0x20 PUSH1 0x0 KECCAK256 SWAP1 POP SWAP2 SWAP1 POP JUMP JUMPDEST PUSH1 0x0 PUSH1 0x20 PUSH1 0x1F DUP4 ADD DIV SWAP1 POP SWAP2 SWAP1 POP JUMP JUMPDEST PUSH1 0x0 DUP3 DUP3 SHL SWAP1 POP SWAP3 SWAP2 POP POP JUMP JUMPDEST PUSH1 0x0 PUSH1 0x8 DUP4 MUL PUSH3 0xF11 PUSH32 0xFFFFFFFFFFFFFFFFFFFFFFFFFFFFFFFFFFFFFFFFFFFFFFFFFFFFFFFFFFFFFFFF DUP3 PUSH3 0xED2 JUMP JUMPDEST PUSH3 0xF1D DUP7 DUP4 PUSH3 0xED2 JUMP JUMPDEST SWAP6 POP DUP1 NOT DUP5 AND SWAP4 POP DUP1 DUP7 AND DUP5 OR SWAP3 POP POP POP SWAP4 SWAP3 POP POP POP JUMP JUMPDEST PUSH1 0x0 DUP2 SWAP1 POP SWAP2 SWAP1 POP JUMP JUMPDEST PUSH1 0x0 PUSH3 0xF60 PUSH3 0xF5A PUSH3 0xF54 DUP5 PUSH3 0x738 JUMP JUMPDEST PUSH3 0xF35 JUMP JUMPDEST PUSH3 0x738 JUMP JUMPDEST SWAP1 POP SWAP2 SWAP1 POP JUMP JUMPDEST PUSH1 0x0 DUP2 SWAP1 POP SWAP2 SWAP1 POP JUMP JUMPDEST PUSH3 0xF7C DUP4 PUSH3 0xF3F JUMP JUMPDEST PUSH3 0xF94 PUSH3 0xF8B DUP3 PUSH3 0xF67 JUMP JUMPDEST DUP5 DUP5 SLOAD PUSH3 0xEDF JUMP JUMPDEST DUP3 SSTORE POP POP POP POP JUMP JUMPDEST PUSH1 0x0 SWAP1 JUMP JUMPDEST PUSH3 0xFAB PUSH3 0xF9C JUMP JUMPDEST PUSH3 0xFB8 DUP2 DUP5 DUP5 PUSH3 0xF71 JUMP JUMPDEST POP POP POP JUMP JUMPDEST JUMPDEST DUP2 DUP2 LT ISZERO PUSH3 0xFE0 JUMPI PUSH3 0xFD4 PUSH1 0x0 DUP3 PUSH3 0xFA1 JUMP JUMPDEST PUSH1 0x1 DUP2 ADD SWAP1 POP PUSH3 0xFBE JUMP JUMPDEST POP POP JUMP JUMPDEST PUSH1 0x1F DUP3 GT ISZERO PUSH3 0x102F JUMPI PUSH3 0xFF9 DUP2 PUSH3 0xEAD JUMP JUMPDEST PUSH3 0x1004 DUP5 PUSH3 0xEC2 JUMP JUMPDEST DUP2 ADD PUSH1 0x20 DUP6 LT ISZERO PUSH3 0x1014 JUMPI DUP2 SWAP1 POP JUMPDEST PUSH3 0x102C PUSH3 0x1023 DUP6 PUSH3 0xEC2 JUMP JUMPDEST DUP4 ADD DUP3 PUSH3 0xFBD JUMP JUMPDEST POP POP JUMPDEST POP POP POP JUMP JUMPDEST PUSH1 0x0 DUP3 DUP3 SHR SWAP1 POP SWAP3 SWAP2 POP POP JUMP JUMPDEST PUSH1 0x0 PUSH3 0x1054 PUSH1 0x0 NOT DUP5 PUSH1 0x8 MUL PUSH3 0x1034 JUMP JUMPDEST NOT DUP1 DUP4 AND SWAP2 POP POP SWAP3 SWAP2 POP POP JUMP JUMPDEST PUSH1 0x0 PUSH3 0x106F DUP4 DUP4 PUSH3 0x1041 JUMP JUMPDEST SWAP2 POP DUP3 PUSH1 0x2 MUL DUP3 OR SWAP1 POP SWAP3 SWAP2 POP POP JUMP JUMPDEST PUSH3 0x108A DUP3 PUSH3 0xE3E JUMP JUMPDEST PUSH8 0xFFFFFFFFFFFFFFFF DUP2 GT ISZERO PUSH3 0x10A6 JUMPI PUSH3 0x10A5 PUSH3 0x6B4 JUMP JUMPDEST JUMPDEST PUSH3 0x10B2 DUP3 SLOAD PUSH3 0xE78 JUMP JUMPDEST PUSH3 0x10BF DUP3 DUP3 DUP6 PUSH3 0xFE4 JUMP JUMPDEST PUSH1 0x0 PUSH1 0x20 SWAP1 POP PUSH1 0x1F DUP4 GT PUSH1 0x1 DUP2 EQ PUSH3 0x10F7 JUMPI PUSH1 0x0 DUP5 ISZERO PUSH3 0x10E2 JUMPI DUP3 DUP8 ADD MLOAD SWAP1 POP JUMPDEST PUSH3 0x10EE DUP6 DUP3 PUSH3 0x1061 JUMP JUMPDEST DUP7 SSTORE POP PUSH3 0x115E JUMP JUMPDEST PUSH1 0x1F NOT DUP5 AND PUSH3 0x1107 DUP7 PUSH3 0xEAD JUMP JUMPDEST PUSH1 0x0 JUMPDEST DUP3 DUP2 LT ISZERO PUSH3 0x1131 JUMPI DUP5 DUP10 ADD MLOAD DUP3 SSTORE PUSH1 0x1 DUP3 ADD SWAP2 POP PUSH1 0x20 DUP6 ADD SWAP5 POP PUSH1 0x20 DUP2 ADD SWAP1 POP PUSH3 0x110A JUMP JUMPDEST DUP7 DUP4 LT ISZERO PUSH3 0x1151 JUMPI DUP5 DUP10 ADD MLOAD PUSH3 0x114D PUSH1 0x1F DUP10 AND DUP3 PUSH3 0x1041 JUMP JUMPDEST DUP4 SSTORE POP JUMPDEST PUSH1 0x1 PUSH1 0x2 DUP9 MUL ADD DUP9 SSTORE POP POP POP JUMPDEST POP POP POP POP POP POP JUMP JUMPDEST PUSH3 0x1171 DUP2 PUSH3 0x738 JUMP JUMPDEST DUP3 MSTORE POP POP JUMP JUMPDEST PUSH1 0x0 PUSH1 0x20 DUP3 ADD SWAP1 POP PUSH3 0x118E PUSH1 0x0 DUP4 ADD DUP5 PUSH3 0x1166 JUMP JUMPDEST SWAP3 SWAP2 POP POP JUMP JUMPDEST PUSH32 0x4E487B7100000000000000000000000000000000000000000000000000000000 PUSH1 0x0 MSTORE PUSH1 0x11 PUSH1 0x4 MSTORE PUSH1 0x24 PUSH1 0x0 REVERT JUMPDEST PUSH1 0x0 PUSH3 0x11D0 DUP3 PUSH3 0x738 JUMP JUMPDEST SWAP2 POP PUSH32 0xFFFFFFFFFFFFFFFFFFFFFFFFFFFFFFFFFFFFFFFFFFFFFFFFFFFFFFFFFFFFFFFF DUP3 SUB PUSH3 0x1205 JUMPI PUSH3 0x1204 PUSH3 0x1194 JUMP JUMPDEST JUMPDEST PUSH1 0x1 DUP3 ADD SWAP1 POP SWAP2 SWAP1 POP JUMP JUMPDEST PUSH32 0x4E487B7100000000000000000000000000000000000000000000000000000000 PUSH1 0x0 MSTORE PUSH1 0x21 PUSH1 0x4 MSTORE PUSH1 0x24 PUSH1 0x0 REVERT JUMPDEST PUSH2 0x5E23 DUP1 PUSH3 0x124F PUSH1 0x0 CODECOPY PUSH1 0x0 RETURN INVALID PUSH1 0x80 PUSH1 0x40 MSTORE PUSH1 0x4 CALLDATASIZE LT PUSH2 0xF7 JUMPI PUSH1 0x0 CALLDATALOAD PUSH1 0xE0 SHR DUP1 PUSH4 0x83230757 GT PUSH2 0x8A JUMPI DUP1 PUSH4 0xBCFA3E34 GT PUSH2 0x59 JUMPI DUP1 PUSH4 0xBCFA3E34 EQ PUSH2 0x398 JUMPI DUP1 PUSH4 0xC5618AE8 EQ PUSH2 0x3C8 JUMPI DUP1 PUSH4 0xE9E71AD5 EQ PUSH2 0x41F JUMPI DUP1 PUSH4 0xF3D3E4C5 EQ PUSH2 0x476 JUMPI PUSH2 0xFE JUMP JUMPDEST DUP1 PUSH4 0x83230757 EQ PUSH2 0x2AD JUMPI DUP1 PUSH4 0x8C1F0D31 EQ PUSH2 0x2F2 JUMPI DUP1 PUSH4 0x9B4A40F0 EQ PUSH2 0x322 JUMPI DUP1 PUSH4 0xAB53F2C6 EQ PUSH2 0x352 JUMPI PUSH2 0xFE JUMP JUMPDEST DUP1 PUSH4 0x1E93B0F1 GT PUSH2 0xC6 JUMPI DUP1 PUSH4 0x1E93B0F1 EQ PUSH2 0x1D8 JUMPI DUP1 PUSH4 0x3C667280 EQ PUSH2 0x21D JUMPI DUP1 PUSH4 0x41712C0A EQ PUSH2 0x24D JUMPI DUP1 PUSH4 0x573B8510 EQ PUSH2 0x27D JUMPI PUSH2 0xFE JUMP JUMPDEST DUP1 PUSH4 0x39C1284 EQ PUSH2 0x100 JUMPI DUP1 PUSH4 0x6B56453 EQ PUSH2 0x145 JUMPI DUP1 PUSH4 0xBDDDCE1 EQ PUSH2 0x18A JUMPI DUP1 PUSH4 0x1741F513 EQ PUSH2 0x1A8 JUMPI PUSH2 0xFE JUMP JUMPDEST CALLDATASIZE PUSH2 0xFE JUMPI STOP JUMPDEST STOP JUMPDEST CALLVALUE DUP1 ISZERO PUSH2 0x10C JUMPI PUSH1 0x0 DUP1 REVERT JUMPDEST POP CALLTOKENID DUP1 ISZERO PUSH2 0x119 JUMPI PUSH1 0x0 DUP1 REVERT JUMPDEST POP CALLTOKENVALUE DUP1 ISZERO PUSH2 0x126 JUMPI PUSH1 0x0 DUP1 REVERT JUMPDEST POP PUSH2 0x12F PUSH2 0x4A6 JUMP JUMPDEST PUSH1 0x40 MLOAD PUSH2 0x13C SWAP2 SWAP1 PUSH2 0x4148 JUMP JUMPDEST PUSH1 0x40 MLOAD DUP1 SWAP2 SUB SWAP1 RETURN JUMPDEST CALLVALUE DUP1 ISZERO PUSH2 0x151 JUMPI PUSH1 0x0 DUP1 REVERT JUMPDEST POP CALLTOKENID DUP1 ISZERO PUSH2 0x15E JUMPI PUSH1 0x0 DUP1 REVERT JUMPDEST POP CALLTOKENVALUE DUP1 ISZERO PUSH2 0x16B JUMPI PUSH1 0x0 DUP1 REVERT JUMPDEST POP PUSH2 0x174 PUSH2 0x4CE JUMP JUMPDEST PUSH1 0x40 MLOAD PUSH2 0x181 SWAP2 SWAP1 PUSH2 0x41A5 JUMP JUMPDEST PUSH1 0x40 MLOAD DUP1 SWAP2 SUB SWAP1 RETURN JUMPDEST PUSH2 0x192 PUSH2 0x4F6 JUMP JUMPDEST PUSH1 0x40 MLOAD PUSH2 0x19F SWAP2 SWAP1 PUSH2 0x41CF JUMP JUMPDEST PUSH1 0x40 MLOAD DUP1 SWAP2 SUB SWAP1 RETURN JUMPDEST PUSH2 0x1C2 PUSH1 0x4 DUP1 CALLDATASIZE SUB DUP2 ADD SWAP1 PUSH2 0x1BD SWAP2 SWAP1 PUSH2 0x421D JUMP JUMPDEST PUSH2 0x518 JUMP JUMPDEST PUSH1 0x40 MLOAD PUSH2 0x1CF SWAP2 SWAP1 PUSH2 0x41CF JUMP JUMPDEST PUSH1 0x40 MLOAD DUP1 SWAP2 SUB SWAP1 RETURN JUMPDEST CALLVALUE DUP1 ISZERO PUSH2 0x1E4 JUMPI PUSH1 0x0 DUP1 REVERT JUMPDEST POP CALLTOKENID DUP1 ISZERO PUSH2 0x1F1 JUMPI PUSH1 0x0 DUP1 REVERT JUMPDEST POP CALLTOKENVALUE DUP1 ISZERO PUSH2 0x1FE JUMPI PUSH1 0x0 DUP1 REVERT JUMPDEST POP PUSH2 0x207 PUSH2 0x549 JUMP JUMPDEST PUSH1 0x40 MLOAD PUSH2 0x214 SWAP2 SWAP1 PUSH2 0x4259 JUMP JUMPDEST PUSH1 0x40 MLOAD DUP1 SWAP2 SUB SWAP1 RETURN JUMPDEST PUSH2 0x237 PUSH1 0x4 DUP1 CALLDATASIZE SUB DUP2 ADD SWAP1 PUSH2 0x232 SWAP2 SWAP1 PUSH2 0x4293 JUMP JUMPDEST PUSH2 0x553 JUMP JUMPDEST PUSH1 0x40 MLOAD PUSH2 0x244 SWAP2 SWAP1 PUSH2 0x41CF JUMP JUMPDEST PUSH1 0x40 MLOAD DUP1 SWAP2 SUB SWAP1 RETURN JUMPDEST PUSH2 0x267 PUSH1 0x4 DUP1 CALLDATASIZE SUB DUP2 ADD SWAP1 PUSH2 0x262 SWAP2 SWAP1 PUSH2 0x42DF JUMP JUMPDEST PUSH2 0x584 JUMP JUMPDEST PUSH1 0x40 MLOAD PUSH2 0x274 SWAP2 SWAP1 PUSH2 0x41CF JUMP JUMPDEST PUSH1 0x40 MLOAD DUP1 SWAP2 SUB SWAP1 RETURN JUMPDEST PUSH2 0x297 PUSH1 0x4 DUP1 CALLDATASIZE SUB DUP2 ADD SWAP1 PUSH2 0x292 SWAP2 SWAP1 PUSH2 0x42DF JUMP JUMPDEST PUSH2 0x5AE JUMP JUMPDEST PUSH1 0x40 MLOAD PUSH2 0x2A4 SWAP2 SWAP1 PUSH2 0x41CF JUMP JUMPDEST PUSH1 0x40 MLOAD DUP1 SWAP2 SUB SWAP1 RETURN JUMPDEST CALLVALUE DUP1 ISZERO PUSH2 0x2B9 JUMPI PUSH1 0x0 DUP1 REVERT JUMPDEST POP CALLTOKENID DUP1 ISZERO PUSH2 0x2C6 JUMPI PUSH1 0x0 DUP1 REVERT JUMPDEST POP CALLTOKENVALUE DUP1 ISZERO PUSH2 0x2D3 JUMPI PUSH1 0x0 DUP1 REVERT JUMPDEST POP PUSH2 0x2DC PUSH2 0x5D8 JUMP JUMPDEST PUSH1 0x40 MLOAD PUSH2 0x2E9 SWAP2 SWAP1 PUSH2 0x4259 JUMP JUMPDEST PUSH1 0x40 MLOAD DUP1 SWAP2 SUB SWAP1 RETURN JUMPDEST PUSH2 0x30C PUSH1 0x4 DUP1 CALLDATASIZE SUB DUP2 ADD SWAP1 PUSH2 0x307 SWAP2 SWAP1 PUSH2 0x4364 JUMP JUMPDEST PUSH2 0x5E2 JUMP JUMPDEST PUSH1 0x40 MLOAD PUSH2 0x319 SWAP2 SWAP1 PUSH2 0x43F9 JUMP JUMPDEST PUSH1 0x40 MLOAD DUP1 SWAP2 SUB SWAP1 RETURN JUMPDEST PUSH2 0x33C PUSH1 0x4 DUP1 CALLDATASIZE SUB DUP2 ADD SWAP1 PUSH2 0x337 SWAP2 SWAP1 PUSH2 0x4414 JUMP JUMPDEST PUSH2 0x62E JUMP JUMPDEST PUSH1 0x40 MLOAD PUSH2 0x349 SWAP2 SWAP1 PUSH2 0x41CF JUMP JUMPDEST PUSH1 0x40 MLOAD DUP1 SWAP2 SUB SWAP1 RETURN JUMPDEST CALLVALUE DUP1 ISZERO PUSH2 0x35E JUMPI PUSH1 0x0 DUP1 REVERT JUMPDEST POP CALLTOKENID DUP1 ISZERO PUSH2 0x36B JUMPI PUSH1 0x0 DUP1 REVERT JUMPDEST POP CALLTOKENVALUE DUP1 ISZERO PUSH2 0x378 JUMPI PUSH1 0x0 DUP1 REVERT JUMPDEST POP PUSH2 0x381 PUSH2 0x64F JUMP JUMPDEST PUSH1 0x40 MLOAD PUSH2 0x38F SWAP3 SWAP2 SWAP1 PUSH2 0x44D1 JUMP JUMPDEST PUSH1 0x40 MLOAD DUP1 SWAP2 SUB SWAP1 RETURN JUMPDEST PUSH2 0x3B2 PUSH1 0x4 DUP1 CALLDATASIZE SUB DUP2 ADD SWAP1 PUSH2 0x3AD SWAP2 SWAP1 PUSH2 0x4414 JUMP JUMPDEST PUSH2 0x6EC JUMP JUMPDEST PUSH1 0x40 MLOAD PUSH2 0x3BF SWAP2 SWAP1 PUSH2 0x41CF JUMP JUMPDEST PUSH1 0x40 MLOAD DUP1 SWAP2 SUB SWAP1 RETURN JUMPDEST CALLVALUE DUP1 ISZERO PUSH2 0x3D4 JUMPI PUSH1 0x0 DUP1 REVERT JUMPDEST POP CALLTOKENID DUP1 ISZERO PUSH2 0x3E1 JUMPI PUSH1 0x0 DUP1 REVERT JUMPDEST POP CALLTOKENVALUE DUP1 ISZERO PUSH2 0x3EE JUMPI PUSH1 0x0 DUP1 REVERT JUMPDEST POP PUSH2 0x409 PUSH1 0x4 DUP1 CALLDATASIZE SUB DUP2 ADD SWAP1 PUSH2 0x404 SWAP2 SWAP1 PUSH2 0x4414 JUMP JUMPDEST PUSH2 0x70E JUMP JUMPDEST PUSH1 0x40 MLOAD PUSH2 0x416 SWAP2 SWAP1 PUSH2 0x460F JUMP JUMPDEST PUSH1 0x40 MLOAD DUP1 SWAP2 SUB SWAP1 RETURN JUMPDEST CALLVALUE DUP1 ISZERO PUSH2 0x42B JUMPI PUSH1 0x0 DUP1 REVERT JUMPDEST POP CALLTOKENID DUP1 ISZERO PUSH2 0x438 JUMPI PUSH1 0x0 DUP1 REVERT JUMPDEST POP CALLTOKENVALUE DUP1 ISZERO PUSH2 0x445 JUMPI PUSH1 0x0 DUP1 REVERT JUMPDEST POP PUSH2 0x460 PUSH1 0x4 DUP1 CALLDATASIZE SUB DUP2 ADD SWAP1 PUSH2 0x45B SWAP2 SWAP1 PUSH2 0x4414 JUMP JUMPDEST PUSH2 0x735 JUMP JUMPDEST PUSH1 0x40 MLOAD PUSH2 0x46D SWAP2 SWAP1 PUSH2 0x460F JUMP JUMPDEST PUSH1 0x40 MLOAD DUP1 SWAP2 SUB SWAP1 RETURN JUMPDEST PUSH2 0x490 PUSH1 0x4 DUP1 CALLDATASIZE SUB DUP2 ADD SWAP1 PUSH2 0x48B SWAP2 SWAP1 PUSH2 0x464A JUMP JUMPDEST PUSH2 0x74D JUMP JUMPDEST PUSH1 0x40 MLOAD PUSH2 0x49D SWAP2 SWAP1 PUSH2 0x41CF JUMP JUMPDEST PUSH1 0x40 MLOAD DUP1 SWAP2 SUB SWAP1 RETURN JUMPDEST PUSH2 0x4AE PUSH2 0x3915 JUMP JUMPDEST PUSH2 0x4B6 PUSH2 0x394E JUMP JUMPDEST PUSH1 0x0 PUSH2 0x4C2 DUP2 DUP4 PUSH2 0x777 JUMP JUMPDEST DUP2 PUSH1 0x80 ADD MLOAD SWAP3 POP POP POP SWAP1 JUMP JUMPDEST PUSH2 0x4D6 PUSH2 0x39C5 JUMP JUMPDEST PUSH2 0x4DE PUSH2 0x394E JUMP JUMPDEST PUSH1 0x0 PUSH2 0x4EA DUP2 DUP4 PUSH2 0x90D JUMP JUMPDEST DUP2 PUSH1 0xA0 ADD MLOAD SWAP3 POP POP POP SWAP1 JUMP JUMPDEST PUSH1 0x0 PUSH2 0x500 PUSH2 0x394E JUMP JUMPDEST PUSH1 0x0 PUSH2 0x50C DUP2 DUP4 PUSH2 0xAA3 JUMP JUMPDEST DUP2 PUSH1 0xE0 ADD MLOAD SWAP3 POP POP POP SWAP1 JUMP JUMPDEST PUSH1 0x0 PUSH2 0x522 PUSH2 0x394E JUMP JUMPDEST PUSH2 0x53C DUP4 DUP1 CALLDATASIZE SUB DUP2 ADD SWAP1 PUSH2 0x536 SWAP2 SWAP1 PUSH2 0x47C8 JUMP JUMPDEST DUP3 PUSH2 0xB28 JUMP JUMPDEST DUP1 PUSH1 0x20 ADD MLOAD SWAP2 POP POP SWAP2 SWAP1 POP JUMP JUMPDEST PUSH1 0x0 PUSH1 0x3 SLOAD SWAP1 POP SWAP1 JUMP JUMPDEST PUSH1 0x0 PUSH2 0x55D PUSH2 0x394E JUMP JUMPDEST PUSH2 0x577 DUP4 DUP1 CALLDATASIZE SUB DUP2 ADD SWAP1 PUSH2 0x571 SWAP2 SWAP1 PUSH2 0x4859 JUMP JUMPDEST DUP3 PUSH2 0xBB3 JUMP JUMPDEST DUP1 PUSH1 0x60 ADD MLOAD SWAP2 POP POP SWAP2 SWAP1 POP JUMP JUMPDEST PUSH1 0x0 PUSH2 0x58E PUSH2 0x394E JUMP JUMPDEST PUSH2 0x5A8 DUP4 DUP1 CALLDATASIZE SUB DUP2 ADD SWAP1 PUSH2 0x5A2 SWAP2 SWAP1 PUSH2 0x48C2 JUMP JUMPDEST DUP3 PUSH2 0xC3E JUMP JUMPDEST POP SWAP2 SWAP1 POP JUMP JUMPDEST PUSH1 0x0 PUSH2 0x5B8 PUSH2 0x394E JUMP JUMPDEST PUSH2 0x5D2 DUP4 DUP1 CALLDATASIZE SUB DUP2 ADD SWAP1 PUSH2 0x5CC SWAP2 SWAP1 PUSH2 0x48C2 JUMP JUMPDEST DUP3 PUSH2 0xE55 JUMP JUMPDEST POP SWAP2 SWAP1 POP JUMP JUMPDEST PUSH1 0x0 PUSH1 0x1 SLOAD SWAP1 POP SWAP1 JUMP JUMPDEST PUSH2 0x5EA PUSH2 0x39E6 JUMP JUMPDEST PUSH2 0x5F2 PUSH2 0x394E JUMP JUMPDEST PUSH2 0x5FA PUSH2 0x3A26 JUMP JUMPDEST DUP5 DUP2 PUSH1 0x0 ADD DUP2 DUP2 MSTORE POP POP DUP4 DUP2 PUSH1 0x20 ADD SWAP1 ISZERO ISZERO SWAP1 DUP2 ISZERO ISZERO DUP2 MSTORE POP POP PUSH2 0x61E DUP2 DUP4 PUSH2 0x12BA JUMP JUMPDEST DUP2 PUSH2 0x120 ADD MLOAD SWAP3 POP POP POP SWAP3 SWAP2 POP POP JUMP JUMPDEST PUSH1 0x0 PUSH2 0x638 PUSH2 0x394E JUMP JUMPDEST PUSH2 0x642 DUP4 DUP3 PUSH2 0x1362 JUMP JUMPDEST DUP1 PUSH1 0x40 ADD MLOAD SWAP2 POP POP SWAP2 SWAP1 POP JUMP JUMPDEST PUSH1 0x0 PUSH1 0x60 PUSH1 0x0 SLOAD PUSH1 0x2 DUP1 DUP1 SLOAD PUSH2 0x664 SWAP1 PUSH2 0x491E JUMP JUMPDEST DUP1 PUSH1 0x1F ADD PUSH1 0x20 DUP1 SWAP2 DIV MUL PUSH1 0x20 ADD PUSH1 0x40 MLOAD SWAP1 DUP2 ADD PUSH1 0x40 MSTORE DUP1 SWAP3 SWAP2 SWAP1 DUP2 DUP2 MSTORE PUSH1 0x20 ADD DUP3 DUP1 SLOAD PUSH2 0x690 SWAP1 PUSH2 0x491E JUMP JUMPDEST DUP1 ISZERO PUSH2 0x6DD JUMPI DUP1 PUSH1 0x1F LT PUSH2 0x6B2 JUMPI PUSH2 0x100 DUP1 DUP4 SLOAD DIV MUL DUP4 MSTORE SWAP2 PUSH1 0x20 ADD SWAP2 PUSH2 0x6DD JUMP JUMPDEST DUP3 ADD SWAP2 SWAP1 PUSH1 0x0 MSTORE PUSH1 0x20 PUSH1 0x0 KECCAK256 SWAP1 JUMPDEST DUP2 SLOAD DUP2 MSTORE SWAP1 PUSH1 0x1 ADD SWAP1 PUSH1 0x20 ADD DUP1 DUP4 GT PUSH2 0x6C0 JUMPI DUP3 SWAP1 SUB PUSH1 0x1F AND DUP3 ADD SWAP2 JUMPDEST POP POP POP POP POP SWAP1 POP SWAP2 POP SWAP2 POP SWAP1 SWAP2 JUMP JUMPDEST PUSH1 0x0 PUSH2 0x6F6 PUSH2 0x394E JUMP JUMPDEST PUSH2 0x700 DUP4 DUP3 PUSH2 0x13EE JUMP JUMPDEST DUP1 PUSH2 0x100 ADD MLOAD SWAP2 POP POP SWAP2 SWAP1 POP JUMP JUMPDEST PUSH2 0x716 PUSH2 0x3A42 JUMP JUMPDEST PUSH2 0x71E PUSH2 0x394E JUMP JUMPDEST PUSH2 0x728 DUP4 DUP3 PUSH2 0x147A JUMP JUMPDEST DUP1 PUSH1 0xC0 ADD MLOAD SWAP2 POP POP SWAP2 SWAP1 POP JUMP JUMPDEST PUSH2 0x73D PUSH2 0x3A42 JUMP JUMPDEST PUSH2 0x746 DUP3 PUSH2 0x1617 JUMP JUMPDEST SWAP1 POP SWAP2 SWAP1 POP JUMP JUMPDEST PUSH1 0x0 PUSH2 0x757 PUSH2 0x394E JUMP JUMPDEST PUSH2 0x771 DUP4 DUP1 CALLDATASIZE SUB DUP2 ADD SWAP1 PUSH2 0x76B SWAP2 SWAP1 PUSH2 0x4B45 JUMP JUMPDEST DUP3 PUSH2 0x17C9 JUMP JUMPDEST POP SWAP2 SWAP1 POP JUMP JUMPDEST PUSH1 0x5 PUSH1 0x0 SLOAD LT ISZERO PUSH2 0x847 JUMPI PUSH2 0x792 PUSH1 0x3 PUSH1 0x0 SLOAD EQ PUSH1 0x7 PUSH2 0x31F2 JUMP JUMPDEST PUSH1 0x0 PUSH1 0x2 DUP1 SLOAD PUSH2 0x7A1 SWAP1 PUSH2 0x491E JUMP JUMPDEST DUP1 PUSH1 0x1F ADD PUSH1 0x20 DUP1 SWAP2 DIV MUL PUSH1 0x20 ADD PUSH1 0x40 MLOAD SWAP1 DUP2 ADD PUSH1 0x40 MSTORE DUP1 SWAP3 SWAP2 SWAP1 DUP2 DUP2 MSTORE PUSH1 0x20 ADD DUP3 DUP1 SLOAD PUSH2 0x7CD SWAP1 PUSH2 0x491E JUMP JUMPDEST DUP1 ISZERO PUSH2 0x81A JUMPI DUP1 PUSH1 0x1F LT PUSH2 0x7EF JUMPI PUSH2 0x100 DUP1 DUP4 SLOAD DIV MUL DUP4 MSTORE SWAP2 PUSH1 0x20 ADD SWAP2 PUSH2 0x81A JUMP JUMPDEST DUP3 ADD SWAP2 SWAP1 PUSH1 0x0 MSTORE PUSH1 0x20 PUSH1 0x0 KECCAK256 SWAP1 JUMPDEST DUP2 SLOAD DUP2 MSTORE SWAP1 PUSH1 0x1 ADD SWAP1 PUSH1 0x20 ADD DUP1 DUP4 GT PUSH2 0x7FD JUMPI DUP3 SWAP1 SUB PUSH1 0x1F AND DUP3 ADD SWAP2 JUMPDEST POP POP POP POP POP DUP1 PUSH1 0x20 ADD SWAP1 MLOAD DUP2 ADD SWAP1 PUSH2 0x832 SWAP2 SWAP1 PUSH2 0x4E46 JUMP JUMPDEST SWAP1 POP DUP1 PUSH1 0x80 ADD MLOAD DUP3 PUSH1 0x80 ADD DUP2 SWAP1 MSTORE POP POP PUSH2 0x909 JUMP JUMPDEST PUSH2 0x857 PUSH1 0x5 PUSH1 0x0 SLOAD EQ PUSH1 0x8 PUSH2 0x31F2 JUMP JUMPDEST PUSH1 0x0 PUSH1 0x2 DUP1 SLOAD PUSH2 0x866 SWAP1 PUSH2 0x491E JUMP JUMPDEST DUP1 PUSH1 0x1F ADD PUSH1 0x20 DUP1 SWAP2 DIV MUL PUSH1 0x20 ADD PUSH1 0x40 MLOAD SWAP1 DUP2 ADD PUSH1 0x40 MSTORE DUP1 SWAP3 SWAP2 SWAP1 DUP2 DUP2 MSTORE PUSH1 0x20 ADD DUP3 DUP1 SLOAD PUSH2 0x892 SWAP1 PUSH2 0x491E JUMP JUMPDEST DUP1 ISZERO PUSH2 0x8DF JUMPI DUP1 PUSH1 0x1F LT PUSH2 0x8B4 JUMPI PUSH2 0x100 DUP1 DUP4 SLOAD DIV MUL DUP4 MSTORE SWAP2 PUSH1 0x20 ADD SWAP2 PUSH2 0x8DF JUMP JUMPDEST DUP3 ADD SWAP2 SWAP1 PUSH1 0x0 MSTORE PUSH1 0x20 PUSH1 0x0 KECCAK256 SWAP1 JUMPDEST DUP2 SLOAD DUP2 MSTORE SWAP1 PUSH1 0x1 ADD SWAP1 PUSH1 0x20 ADD DUP1 DUP4 GT PUSH2 0x8C2 JUMPI DUP3 SWAP1 SUB PUSH1 0x1F AND DUP3 ADD SWAP2 JUMPDEST POP POP POP POP POP DUP1 PUSH1 0x20 ADD SWAP1 MLOAD DUP2 ADD SWAP1 PUSH2 0x8F7 SWAP2 SWAP1 PUSH2 0x50D9 JUMP JUMPDEST SWAP1 POP DUP1 PUSH2 0x100 ADD MLOAD DUP3 PUSH1 0x80 ADD DUP2 SWAP1 MSTORE POP POP JUMPDEST POP POP JUMP JUMPDEST PUSH1 0x5 PUSH1 0x0 SLOAD LT ISZERO PUSH2 0x9DD JUMPI PUSH2 0x928 PUSH1 0x3 PUSH1 0x0 SLOAD EQ PUSH1 0x9 PUSH2 0x31F2 JUMP JUMPDEST PUSH1 0x0 PUSH1 0x2 DUP1 SLOAD PUSH2 0x937 SWAP1 PUSH2 0x491E JUMP JUMPDEST DUP1 PUSH1 0x1F ADD PUSH1 0x20 DUP1 SWAP2 DIV MUL PUSH1 0x20 ADD PUSH1 0x40 MLOAD SWAP1 DUP2 ADD PUSH1 0x40 MSTORE DUP1 SWAP3 SWAP2 SWAP1 DUP2 DUP2 MSTORE PUSH1 0x20 ADD DUP3 DUP1 SLOAD PUSH2 0x963 SWAP1 PUSH2 0x491E JUMP JUMPDEST DUP1 ISZERO PUSH2 0x9B0 JUMPI DUP1 PUSH1 0x1F LT PUSH2 0x985 JUMPI PUSH2 0x100 DUP1 DUP4 SLOAD DIV MUL DUP4 MSTORE SWAP2 PUSH1 0x20 ADD SWAP2 PUSH2 0x9B0 JUMP JUMPDEST DUP3 ADD SWAP2 SWAP1 PUSH1 0x0 MSTORE PUSH1 0x20 PUSH1 0x0 KECCAK256 SWAP1 JUMPDEST DUP2 SLOAD DUP2 MSTORE SWAP1 PUSH1 0x1 ADD SWAP1 PUSH1 0x20 ADD DUP1 DUP4 GT PUSH2 0x993 JUMPI DUP3 SWAP1 SUB PUSH1 0x1F AND DUP3 ADD SWAP2 JUMPDEST POP POP POP POP POP DUP1 PUSH1 0x20 ADD SWAP1 MLOAD DUP2 ADD SWAP1 PUSH2 0x9C8 SWAP2 SWAP1 PUSH2 0x4E46 JUMP JUMPDEST SWAP1 POP DUP1 PUSH1 0xA0 ADD MLOAD DUP3 PUSH1 0xA0 ADD DUP2 SWAP1 MSTORE POP POP PUSH2 0xA9F JUMP JUMPDEST PUSH2 0x9ED PUSH1 0x5 PUSH1 0x0 SLOAD EQ PUSH1 0xA PUSH2 0x31F2 JUMP JUMPDEST PUSH1 0x0 PUSH1 0x2 DUP1 SLOAD PUSH2 0x9FC SWAP1 PUSH2 0x491E JUMP JUMPDEST DUP1 PUSH1 0x1F ADD PUSH1 0x20 DUP1 SWAP2 DIV MUL PUSH1 0x20 ADD PUSH1 0x40 MLOAD SWAP1 DUP2 ADD PUSH1 0x40 MSTORE DUP1 SWAP3 SWAP2 SWAP1 DUP2 DUP2 MSTORE PUSH1 0x20 ADD DUP3 DUP1 SLOAD PUSH2 0xA28 SWAP1 PUSH2 0x491E JUMP JUMPDEST DUP1 ISZERO PUSH2 0xA75 JUMPI DUP1 PUSH1 0x1F LT PUSH2 0xA4A JUMPI PUSH2 0x100 DUP1 DUP4 SLOAD DIV MUL DUP4 MSTORE SWAP2 PUSH1 0x20 ADD SWAP2 PUSH2 0xA75 JUMP JUMPDEST DUP3 ADD SWAP2 SWAP1 PUSH1 0x0 MSTORE PUSH1 0x20 PUSH1 0x0 KECCAK256 SWAP1 JUMPDEST DUP2 SLOAD DUP2 MSTORE SWAP1 PUSH1 0x1 ADD SWAP1 PUSH1 0x20 ADD DUP1 DUP4 GT PUSH2 0xA58 JUMPI DUP3 SWAP1 SUB PUSH1 0x1F AND DUP3 ADD SWAP2 JUMPDEST POP POP POP POP POP DUP1 PUSH1 0x20 ADD SWAP1 MLOAD DUP2 ADD SWAP1 PUSH2 0xA8D SWAP2 SWAP1 PUSH2 0x50D9 JUMP JUMPDEST SWAP1 POP DUP1 PUSH2 0x120 ADD MLOAD DUP3 PUSH1 0xA0 ADD DUP2 SWAP1 MSTORE POP POP JUMPDEST POP POP JUMP JUMPDEST PUSH2 0xAAB PUSH2 0x3A7D JUMP JUMPDEST PUSH1 0x3 DUP2 PUSH1 0x20 ADD MLOAD PUSH1 0x0 ADD SWAP1 PUSH1 0x5 DUP2 GT ISZERO PUSH2 0xAC8 JUMPI PUSH2 0xAC7 PUSH2 0x4501 JUMP JUMPDEST JUMPDEST SWAP1 DUP2 PUSH1 0x5 DUP2 GT ISZERO PUSH2 0xADC JUMPI PUSH2 0xADB PUSH2 0x4501 JUMP JUMPDEST JUMPDEST DUP2 MSTORE POP POP DUP1 PUSH1 0x0 ADD MLOAD DUP2 PUSH1 0x20 ADD MLOAD PUSH1 0x80 ADD SWAP1 ISZERO ISZERO SWAP1 DUP2 ISZERO ISZERO DUP2 MSTORE POP POP PUSH2 0xB00 PUSH2 0x3A9F JUMP JUMPDEST PUSH1 0x0 DUP2 PUSH1 0x0 ADD DUP2 DUP2 MSTORE POP POP DUP2 PUSH1 0x20 ADD MLOAD DUP2 PUSH1 0x20 ADD DUP2 SWAP1 MSTORE POP PUSH2 0xB22 DUP2 DUP5 PUSH2 0x17C9 JUMP JUMPDEST POP POP POP POP JUMP JUMPDEST PUSH2 0xB30 PUSH2 0x3ABF JUMP JUMPDEST DUP3 DUP2 PUSH1 0x0 ADD MLOAD PUSH1 0x0 ADD DUP2 SWAP1 MSTORE POP PUSH1 0x0 DUP2 PUSH1 0x20 ADD MLOAD PUSH1 0x0 ADD SWAP1 PUSH1 0x5 DUP2 GT ISZERO PUSH2 0xB5A JUMPI PUSH2 0xB59 PUSH2 0x4501 JUMP JUMPDEST JUMPDEST SWAP1 DUP2 PUSH1 0x5 DUP2 GT ISZERO PUSH2 0xB6E JUMPI PUSH2 0xB6D PUSH2 0x4501 JUMP JUMPDEST JUMPDEST DUP2 MSTORE POP POP DUP1 PUSH1 0x0 ADD MLOAD DUP2 PUSH1 0x20 ADD MLOAD PUSH1 0x20 ADD DUP2 SWAP1 MSTORE POP PUSH2 0xB8B PUSH2 0x3A9F JUMP JUMPDEST PUSH1 0x0 DUP2 PUSH1 0x0 ADD DUP2 DUP2 MSTORE POP POP DUP2 PUSH1 0x20 ADD MLOAD DUP2 PUSH1 0x20 ADD DUP2 SWAP1 MSTORE POP PUSH2 0xBAD DUP2 DUP5 PUSH2 0x17C9 JUMP JUMPDEST POP POP POP POP JUMP JUMPDEST PUSH2 0xBBB PUSH2 0x3AE5 JUMP JUMPDEST DUP3 DUP2 PUSH1 0x0 ADD MLOAD PUSH1 0x0 ADD DUP2 SWAP1 MSTORE POP PUSH1 0x2 DUP2 PUSH1 0x20 ADD MLOAD PUSH1 0x0 ADD SWAP1 PUSH1 0x5 DUP2 GT ISZERO PUSH2 0xBE5 JUMPI PUSH2 0xBE4 PUSH2 0x4501 JUMP JUMPDEST JUMPDEST SWAP1 DUP2 PUSH1 0x5 DUP2 GT ISZERO PUSH2 0xBF9 JUMPI PUSH2 0xBF8 PUSH2 0x4501 JUMP JUMPDEST JUMPDEST DUP2 MSTORE POP POP DUP1 PUSH1 0x0 ADD MLOAD DUP2 PUSH1 0x20 ADD MLOAD PUSH1 0x60 ADD DUP2 SWAP1 MSTORE POP PUSH2 0xC16 PUSH2 0x3A9F JUMP JUMPDEST PUSH1 0x0 DUP2 PUSH1 0x0 ADD DUP2 DUP2 MSTORE POP POP DUP2 PUSH1 0x20 ADD MLOAD DUP2 PUSH1 0x20 ADD DUP2 SWAP1 MSTORE POP PUSH2 0xC38 DUP2 DUP5 PUSH2 0x17C9 JUMP JUMPDEST POP POP POP POP JUMP JUMPDEST PUSH2 0xC4E PUSH1 0x3 PUSH1 0x0 SLOAD EQ PUSH1 0x16 PUSH2 0x31F2 JUMP JUMPDEST PUSH1 0x0 PUSH1 0x2 DUP1 SLOAD PUSH2 0xC5D SWAP1 PUSH2 0x491E JUMP JUMPDEST DUP1 PUSH1 0x1F ADD PUSH1 0x20 DUP1 SWAP2 DIV MUL PUSH1 0x20 ADD PUSH1 0x40 MLOAD SWAP1 DUP2 ADD PUSH1 0x40 MSTORE DUP1 SWAP3 SWAP2 SWAP1 DUP2 DUP2 MSTORE PUSH1 0x20 ADD DUP3 DUP1 SLOAD PUSH2 0xC89 SWAP1 PUSH2 0x491E JUMP JUMPDEST DUP1 ISZERO PUSH2 0xCD6 JUMPI DUP1 PUSH1 0x1F LT PUSH2 0xCAB JUMPI PUSH2 0x100 DUP1 DUP4 SLOAD DIV MUL DUP4 MSTORE SWAP2 PUSH1 0x20 ADD SWAP2 PUSH2 0xCD6 JUMP JUMPDEST DUP3 ADD SWAP2 SWAP1 PUSH1 0x0 MSTORE PUSH1 0x20 PUSH1 0x0 KECCAK256 SWAP1 JUMPDEST DUP2 SLOAD DUP2 MSTORE SWAP1 PUSH1 0x1 ADD SWAP1 PUSH1 0x20 ADD DUP1 DUP4 GT PUSH2 0xCB9 JUMPI DUP3 SWAP1 SUB PUSH1 0x1F AND DUP3 ADD SWAP2 JUMPDEST POP POP POP POP POP DUP1 PUSH1 0x20 ADD SWAP1 MLOAD DUP2 ADD SWAP1 PUSH2 0xCEE SWAP2 SWAP1 PUSH2 0x4E46 JUMP JUMPDEST SWAP1 POP PUSH2 0xD0B PUSH1 0x4 PUSH1 0x0 SWAP1 SLOAD SWAP1 PUSH2 0x100 EXP SWAP1 DIV PUSH1 0xFF AND ISZERO PUSH1 0x17 PUSH2 0x31F2 JUMP JUMPDEST PUSH32 0xD8B4BEF0BAF1B43E1C773ECC562857F82F7AA078EA677386F72396872C0E8515 CALLER DUP5 PUSH1 0x40 MLOAD PUSH2 0xD3C SWAP3 SWAP2 SWAP1 PUSH2 0x5144 JUMP JUMPDEST PUSH1 0x40 MLOAD DUP1 SWAP2 SUB SWAP1 LOG1 PUSH2 0xD66 PUSH1 0x0 DUP5 PUSH1 0x0 ADD MLOAD EQ DUP1 PUSH2 0xD5F JUMPI POP DUP4 PUSH1 0x0 ADD MLOAD PUSH1 0x1 SLOAD EQ JUMPDEST PUSH1 0x18 PUSH2 0x31F2 JUMP JUMPDEST PUSH2 0xD74 PUSH1 0x0 CALLVALUE EQ PUSH1 0x19 PUSH2 0x31F2 JUMP JUMPDEST PUSH2 0xDB1 CALLER PUSH20 0xFFFFFFFFFFFFFFFFFFFFFFFFFFFFFFFFFFFFFFFF AND DUP3 PUSH1 0x0 ADD MLOAD PUSH20 0xFFFFFFFFFFFFFFFFFFFFFFFFFFFFFFFFFFFFFFFF AND EQ PUSH1 0x1A PUSH2 0x31F2 JUMP JUMPDEST DUP1 PUSH1 0x0 ADD MLOAD PUSH20 0xFFFFFFFFFFFFFFFFFFFFFFFFFFFFFFFFFFFFFFFF AND PUSH2 0x8FC DUP3 PUSH1 0x60 ADD MLOAD SWAP1 DUP2 ISZERO MUL SWAP1 PUSH1 0x40 MLOAD PUSH1 0x0 PUSH1 0x40 MLOAD DUP1 DUP4 SUB DUP2 DUP6 DUP9 DUP9 CALL SWAP4 POP POP POP POP ISZERO DUP1 ISZERO PUSH2 0xDFF JUMPI RETURNDATASIZE PUSH1 0x0 DUP1 RETURNDATACOPY RETURNDATASIZE PUSH1 0x0 REVERT JUMPDEST POP PUSH2 0xE33 DUP2 PUSH1 0x20 ADD MLOAD DUP3 PUSH1 0x0 ADD MLOAD DUP4 PUSH1 0x40 ADD MLOAD PUSH1 0x0 PUSH1 0x1 DUP2 LT PUSH2 0xE25 JUMPI PUSH2 0xE24 PUSH2 0x516D JUMP JUMPDEST JUMPDEST PUSH1 0x20 MUL ADD MLOAD PUSH1 0x0 ADD MLOAD PUSH2 0x3238 JUMP JUMPDEST PUSH1 0x0 DUP1 DUP2 SWAP1 SSTORE POP PUSH1 0x0 PUSH1 0x1 DUP2 SWAP1 SSTORE POP PUSH1 0x2 PUSH1 0x0 PUSH2 0xE50 SWAP2 SWAP1 PUSH2 0x3B0B JUMP JUMPDEST POP POP POP JUMP JUMPDEST PUSH2 0xE5D PUSH2 0x3B4B JUMP JUMPDEST PUSH2 0xE6D PUSH1 0x1 PUSH1 0x0 SLOAD EQ PUSH1 0x10 PUSH2 0x31F2 JUMP JUMPDEST PUSH1 0x0 PUSH1 0x2 DUP1 SLOAD PUSH2 0xE7C SWAP1 PUSH2 0x491E JUMP JUMPDEST DUP1 PUSH1 0x1F ADD PUSH1 0x20 DUP1 SWAP2 DIV MUL PUSH1 0x20 ADD PUSH1 0x40 MLOAD SWAP1 DUP2 ADD PUSH1 0x40 MSTORE DUP1 SWAP3 SWAP2 SWAP1 DUP2 DUP2 MSTORE PUSH1 0x20 ADD DUP3 DUP1 SLOAD PUSH2 0xEA8 SWAP1 PUSH2 0x491E JUMP JUMPDEST DUP1 ISZERO PUSH2 0xEF5 JUMPI DUP1 PUSH1 0x1F LT PUSH2 0xECA JUMPI PUSH2 0x100 DUP1 DUP4 SLOAD DIV MUL DUP4 MSTORE SWAP2 PUSH1 0x20 ADD SWAP2 PUSH2 0xEF5 JUMP JUMPDEST DUP3 ADD SWAP2 SWAP1 PUSH1 0x0 MSTORE PUSH1 0x20 PUSH1 0x0 KECCAK256 SWAP1 JUMPDEST DUP2 SLOAD DUP2 MSTORE SWAP1 PUSH1 0x1 ADD SWAP1 PUSH1 0x20 ADD DUP1 DUP4 GT PUSH2 0xED8 JUMPI DUP3 SWAP1 SUB PUSH1 0x1F AND DUP3 ADD SWAP2 JUMPDEST POP POP POP POP POP DUP1 PUSH1 0x20 ADD SWAP1 MLOAD DUP2 ADD SWAP1 PUSH2 0xF0D SWAP2 SWAP1 PUSH2 0x52B8 JUMP JUMPDEST SWAP1 POP PUSH2 0xF2A PUSH1 0x4 PUSH1 0x0 SWAP1 SLOAD SWAP1 PUSH2 0x100 EXP SWAP1 DIV PUSH1 0xFF AND ISZERO PUSH1 0x11 PUSH2 0x31F2 JUMP JUMPDEST PUSH32 0xCF0E8BEC53CD91FA87ECF8F6F405AC75914A22ACDB92A3553EE5C294FEE81596 CALLER DUP6 PUSH1 0x40 MLOAD PUSH2 0xF5B SWAP3 SWAP2 SWAP1 PUSH2 0x5144 JUMP JUMPDEST PUSH1 0x40 MLOAD DUP1 SWAP2 SUB SWAP1 LOG1 PUSH2 0xF85 PUSH1 0x0 DUP6 PUSH1 0x0 ADD MLOAD EQ DUP1 PUSH2 0xF7E JUMPI POP DUP5 PUSH1 0x0 ADD MLOAD PUSH1 0x1 SLOAD EQ JUMPDEST PUSH1 0x12 PUSH2 0x31F2 JUMP JUMPDEST PUSH2 0xF93 PUSH1 0x0 CALLVALUE EQ PUSH1 0x13 PUSH2 0x31F2 JUMP JUMPDEST PUSH2 0xFB4 PUSH2 0xFAD CALLER DUP4 PUSH1 0x40 ADD MLOAD DUP5 PUSH1 0x20 ADD MLOAD PUSH1 0x20 ADD MLOAD PUSH2 0x3251 JUMP JUMPDEST PUSH1 0x14 PUSH2 0x31F2 JUMP JUMPDEST PUSH2 0xFF1 CALLER PUSH20 0xFFFFFFFFFFFFFFFFFFFFFFFFFFFFFFFFFFFFFFFF AND DUP3 PUSH1 0x0 ADD MLOAD PUSH20 0xFFFFFFFFFFFFFFFFFFFFFFFFFFFFFFFFFFFFFFFF AND EQ PUSH1 0x15 PUSH2 0x31F2 JUMP JUMPDEST PUSH1 0x0 DUP3 PUSH1 0x0 ADD MLOAD PUSH1 0x0 ADD SWAP1 PUSH1 0x1 DUP2 GT ISZERO PUSH2 0x100E JUMPI PUSH2 0x100D PUSH2 0x4501 JUMP JUMPDEST JUMPDEST SWAP1 DUP2 PUSH1 0x1 DUP2 GT ISZERO PUSH2 0x1022 JUMPI PUSH2 0x1021 PUSH2 0x4501 JUMP JUMPDEST JUMPDEST DUP2 MSTORE POP POP PUSH1 0x0 DUP3 PUSH1 0x0 ADD MLOAD PUSH1 0x20 ADD SWAP1 ISZERO ISZERO SWAP1 DUP2 ISZERO ISZERO DUP2 MSTORE POP POP DUP2 PUSH1 0x0 ADD MLOAD DUP3 PUSH1 0x20 ADD MLOAD PUSH1 0x0 ADD DUP2 SWAP1 MSTORE POP PUSH1 0x0 DUP3 PUSH1 0x20 ADD MLOAD PUSH1 0x20 ADD DUP2 DUP2 MSTORE POP POP DUP1 PUSH1 0x60 ADD MLOAD DUP3 PUSH1 0x20 ADD MLOAD PUSH1 0x40 ADD DUP2 SWAP1 MSTORE POP PUSH1 0x1 DUP3 PUSH1 0x20 ADD MLOAD PUSH1 0x60 ADD SWAP1 ISZERO ISZERO SWAP1 DUP2 ISZERO ISZERO DUP2 MSTORE POP POP PUSH1 0x0 DUP3 PUSH1 0x20 ADD MLOAD PUSH1 0x80 ADD SWAP1 ISZERO ISZERO SWAP1 DUP2 ISZERO ISZERO DUP2 MSTORE POP POP DUP1 PUSH1 0x80 ADD MLOAD DUP3 PUSH1 0x20 ADD MLOAD PUSH1 0xA0 ADD DUP2 SWAP1 MSTORE POP PUSH1 0x0 DUP3 PUSH1 0x20 ADD MLOAD PUSH1 0xC0 ADD SWAP1 ISZERO ISZERO SWAP1 DUP2 ISZERO ISZERO DUP2 MSTORE POP POP PUSH1 0x0 DUP3 PUSH1 0x20 ADD MLOAD PUSH1 0xE0 ADD DUP2 DUP2 MSTORE POP POP PUSH1 0x0 DUP3 PUSH1 0x20 ADD MLOAD PUSH2 0x100 ADD DUP2 DUP2 MSTORE POP POP PUSH2 0x10E3 PUSH2 0x3B71 JUMP JUMPDEST DUP2 PUSH1 0x0 ADD MLOAD DUP2 PUSH1 0x0 ADD SWAP1 PUSH20 0xFFFFFFFFFFFFFFFFFFFFFFFFFFFFFFFFFFFFFFFF AND SWAP1 DUP2 PUSH20 0xFFFFFFFFFFFFFFFFFFFFFFFFFFFFFFFFFFFFFFFF AND DUP2 MSTORE POP POP DUP2 PUSH1 0x40 ADD MLOAD DUP2 PUSH1 0x20 ADD SWAP1 PUSH20 0xFFFFFFFFFFFFFFFFFFFFFFFFFFFFFFFFFFFFFFFF AND SWAP1 DUP2 PUSH20 0xFFFFFFFFFFFFFFFFFFFFFFFFFFFFFFFFFFFFFFFF AND DUP2 MSTORE POP POP DUP2 PUSH1 0xA0 ADD MLOAD DUP2 PUSH1 0x40 ADD SWAP1 PUSH20 0xFFFFFFFFFFFFFFFFFFFFFFFFFFFFFFFFFFFFFFFF AND SWAP1 DUP2 PUSH20 0xFFFFFFFFFFFFFFFFFFFFFFFFFFFFFFFFFFFFFFFF AND DUP2 MSTORE POP POP CALLER DUP2 PUSH1 0x60 ADD SWAP1 PUSH20 0xFFFFFFFFFFFFFFFFFFFFFFFFFFFFFFFFFFFFFFFF AND SWAP1 DUP2 PUSH20 0xFFFFFFFFFFFFFFFFFFFFFFFFFFFFFFFFFFFFFFFF AND DUP2 MSTORE POP POP DUP2 PUSH1 0x20 ADD MLOAD PUSH1 0x20 ADD MLOAD DUP2 PUSH1 0x80 ADD DUP2 DUP2 MSTORE POP POP DUP3 PUSH1 0x20 ADD MLOAD DUP2 PUSH1 0xA0 ADD DUP2 SWAP1 MSTORE POP NUMBER DUP2 PUSH1 0xC0 ADD DUP2 DUP2 MSTORE POP POP PUSH2 0x1295 DUP3 PUSH1 0xC0 ADD MLOAD PUSH1 0x0 PUSH1 0x40 MLOAD DUP1 PUSH1 0x60 ADD PUSH1 0x40 MSTORE DUP1 PUSH2 0x123F DUP8 PUSH1 0xC0 ADD MLOAD PUSH1 0x0 PUSH1 0x1 DUP2 LT PUSH2 0x1228 JUMPI PUSH2 0x1227 PUSH2 0x516D JUMP JUMPDEST JUMPDEST PUSH1 0x20 MUL ADD MLOAD PUSH1 0x0 ADD MLOAD DUP9 PUSH1 0x20 ADD MLOAD PUSH1 0x20 ADD MLOAD PUSH2 0x3268 JUMP JUMPDEST DUP2 MSTORE PUSH1 0x20 ADD DUP7 PUSH1 0xC0 ADD MLOAD PUSH1 0x0 PUSH1 0x1 DUP2 LT PUSH2 0x125C JUMPI PUSH2 0x125B PUSH2 0x516D JUMP JUMPDEST JUMPDEST PUSH1 0x20 MUL ADD MLOAD PUSH1 0x20 ADD MLOAD DUP2 MSTORE PUSH1 0x20 ADD DUP7 PUSH1 0xC0 ADD MLOAD PUSH1 0x0 PUSH1 0x1 DUP2 LT PUSH2 0x1282 JUMPI PUSH2 0x1281 PUSH2 0x516D JUMP JUMPDEST JUMPDEST PUSH1 0x20 MUL ADD MLOAD PUSH1 0x40 ADD MLOAD ISZERO ISZERO DUP2 MSTORE POP PUSH2 0x3275 JUMP JUMPDEST DUP2 PUSH1 0xE0 ADD DUP2 SWAP1 MSTORE POP PUSH1 0x0 DUP2 PUSH2 0x100 ADD DUP2 DUP2 MSTORE POP POP PUSH2 0x12B3 DUP2 DUP6 PUSH2 0x32F3 JUMP JUMPDEST POP POP POP POP POP JUMP JUMPDEST PUSH2 0x12C2 PUSH2 0x3C21 JUMP JUMPDEST DUP3 PUSH1 0x0 ADD MLOAD DUP2 PUSH1 0x0 ADD MLOAD PUSH1 0x0 ADD DUP2 DUP2 MSTORE POP POP DUP3 PUSH1 0x20 ADD MLOAD DUP2 PUSH1 0x0 ADD MLOAD PUSH1 0x20 ADD SWAP1 ISZERO ISZERO SWAP1 DUP2 ISZERO ISZERO DUP2 MSTORE POP POP PUSH1 0x5 DUP2 PUSH1 0x20 ADD MLOAD PUSH1 0x0 ADD SWAP1 PUSH1 0x5 DUP2 GT ISZERO PUSH2 0x1309 JUMPI PUSH2 0x1308 PUSH2 0x4501 JUMP JUMPDEST JUMPDEST SWAP1 DUP2 PUSH1 0x5 DUP2 GT ISZERO PUSH2 0x131D JUMPI PUSH2 0x131C PUSH2 0x4501 JUMP JUMPDEST JUMPDEST DUP2 MSTORE POP POP DUP1 PUSH1 0x0 ADD MLOAD DUP2 PUSH1 0x20 ADD MLOAD PUSH1 0xC0 ADD DUP2 SWAP1 MSTORE POP PUSH2 0x133A PUSH2 0x3A9F JUMP JUMPDEST PUSH1 0x0 DUP2 PUSH1 0x0 ADD DUP2 DUP2 MSTORE POP POP DUP2 PUSH1 0x20 ADD MLOAD DUP2 PUSH1 0x20 ADD DUP2 SWAP1 MSTORE POP PUSH2 0x135C DUP2 DUP5 PUSH2 0x17C9 JUMP JUMPDEST POP POP POP POP JUMP JUMPDEST PUSH2 0x136A PUSH2 0x3C47 JUMP JUMPDEST DUP3 DUP2 PUSH1 0x0 ADD MLOAD PUSH1 0x0 ADD DUP2 DUP2 MSTORE POP POP PUSH1 0x1 DUP2 PUSH1 0x20 ADD MLOAD PUSH1 0x0 ADD SWAP1 PUSH1 0x5 DUP2 GT ISZERO PUSH2 0x1395 JUMPI PUSH2 0x1394 PUSH2 0x4501 JUMP JUMPDEST JUMPDEST SWAP1 DUP2 PUSH1 0x5 DUP2 GT ISZERO PUSH2 0x13A9 JUMPI PUSH2 0x13A8 PUSH2 0x4501 JUMP JUMPDEST JUMPDEST DUP2 MSTORE POP POP DUP1 PUSH1 0x0 ADD MLOAD DUP2 PUSH1 0x20 ADD MLOAD PUSH1 0x40 ADD DUP2 SWAP1 MSTORE POP PUSH2 0x13C6 PUSH2 0x3A9F JUMP JUMPDEST PUSH1 0x0 DUP2 PUSH1 0x0 ADD DUP2 DUP2 MSTORE POP POP DUP2 PUSH1 0x20 ADD MLOAD DUP2 PUSH1 0x20 ADD DUP2 SWAP1 MSTORE POP PUSH2 0x13E8 DUP2 DUP5 PUSH2 0x17C9 JUMP JUMPDEST POP POP POP POP JUMP JUMPDEST PUSH2 0x13F6 PUSH2 0x3C6D JUMP JUMPDEST DUP3 DUP2 PUSH1 0x0 ADD MLOAD PUSH1 0x0 ADD DUP2 DUP2 MSTORE POP POP PUSH1 0x4 DUP2 PUSH1 0x20 ADD MLOAD PUSH1 0x0 ADD SWAP1 PUSH1 0x5 DUP2 GT ISZERO PUSH2 0x1421 JUMPI PUSH2 0x1420 PUSH2 0x4501 JUMP JUMPDEST JUMPDEST SWAP1 DUP2 PUSH1 0x5 DUP2 GT ISZERO PUSH2 0x1435 JUMPI PUSH2 0x1434 PUSH2 0x4501 JUMP JUMPDEST JUMPDEST DUP2 MSTORE POP POP DUP1 PUSH1 0x0 ADD MLOAD DUP2 PUSH1 0x20 ADD MLOAD PUSH1 0xA0 ADD DUP2 SWAP1 MSTORE POP PUSH2 0x1452 PUSH2 0x3A9F JUMP JUMPDEST PUSH1 0x0 DUP2 PUSH1 0x0 ADD DUP2 DUP2 MSTORE POP POP DUP2 PUSH1 0x20 ADD MLOAD DUP2 PUSH1 0x20 ADD DUP2 SWAP1 MSTORE POP PUSH2 0x1474 DUP2 DUP5 PUSH2 0x17C9 JUMP JUMPDEST POP POP POP POP JUMP JUMPDEST PUSH1 0x5 PUSH1 0x0 SLOAD LT ISZERO PUSH2 0x154E JUMPI PUSH2 0x1495 PUSH1 0x3 PUSH1 0x0 SLOAD EQ PUSH1 0xB PUSH2 0x31F2 JUMP JUMPDEST PUSH1 0x0 PUSH1 0x2 DUP1 SLOAD PUSH2 0x14A4 SWAP1 PUSH2 0x491E JUMP JUMPDEST DUP1 PUSH1 0x1F ADD PUSH1 0x20 DUP1 SWAP2 DIV MUL PUSH1 0x20 ADD PUSH1 0x40 MLOAD SWAP1 DUP2 ADD PUSH1 0x40 MSTORE DUP1 SWAP3 SWAP2 SWAP1 DUP2 DUP2 MSTORE PUSH1 0x20 ADD DUP3 DUP1 SLOAD PUSH2 0x14D0 SWAP1 PUSH2 0x491E JUMP JUMPDEST DUP1 ISZERO PUSH2 0x151D JUMPI DUP1 PUSH1 0x1F LT PUSH2 0x14F2 JUMPI PUSH2 0x100 DUP1 DUP4 SLOAD DIV MUL DUP4 MSTORE SWAP2 PUSH1 0x20 ADD SWAP2 PUSH2 0x151D JUMP JUMPDEST DUP3 ADD SWAP2 SWAP1 PUSH1 0x0 MSTORE PUSH1 0x20 PUSH1 0x0 KECCAK256 SWAP1 JUMPDEST DUP2 SLOAD DUP2 MSTORE SWAP1 PUSH1 0x1 ADD SWAP1 PUSH1 0x20 ADD DUP1 DUP4 GT PUSH2 0x1500 JUMPI DUP3 SWAP1 SUB PUSH1 0x1F AND DUP3 ADD SWAP2 JUMPDEST POP POP POP POP POP DUP1 PUSH1 0x20 ADD SWAP1 MLOAD DUP2 ADD SWAP1 PUSH2 0x1535 SWAP2 SWAP1 PUSH2 0x4E46 JUMP JUMPDEST SWAP1 POP PUSH2 0x1540 DUP4 PUSH2 0x1617 JUMP JUMPDEST DUP3 PUSH1 0xC0 ADD DUP2 SWAP1 MSTORE POP POP PUSH2 0x1613 JUMP JUMPDEST PUSH2 0x155E PUSH1 0x5 PUSH1 0x0 SLOAD EQ PUSH1 0xC PUSH2 0x31F2 JUMP JUMPDEST PUSH1 0x0 PUSH1 0x2 DUP1 SLOAD PUSH2 0x156D SWAP1 PUSH2 0x491E JUMP JUMPDEST DUP1 PUSH1 0x1F ADD PUSH1 0x20 DUP1 SWAP2 DIV MUL PUSH1 0x20 ADD PUSH1 0x40 MLOAD SWAP1 DUP2 ADD PUSH1 0x40 MSTORE DUP1 SWAP3 SWAP2 SWAP1 DUP2 DUP2 MSTORE PUSH1 0x20 ADD DUP3 DUP1 SLOAD PUSH2 0x1599 SWAP1 PUSH2 0x491E JUMP JUMPDEST DUP1 ISZERO PUSH2 0x15E6 JUMPI DUP1 PUSH1 0x1F LT PUSH2 0x15BB JUMPI PUSH2 0x100 DUP1 DUP4 SLOAD DIV MUL DUP4 MSTORE SWAP2 PUSH1 0x20 ADD SWAP2 PUSH2 0x15E6 JUMP JUMPDEST DUP3 ADD SWAP2 SWAP1 PUSH1 0x0 MSTORE PUSH1 0x20 PUSH1 0x0 KECCAK256 SWAP1 JUMPDEST DUP2 SLOAD DUP2 MSTORE SWAP1 PUSH1 0x1 ADD SWAP1 PUSH1 0x20 ADD DUP1 DUP4 GT PUSH2 0x15C9 JUMPI DUP3 SWAP1 SUB PUSH1 0x1F AND DUP3 ADD SWAP2 JUMPDEST POP POP POP POP POP DUP1 PUSH1 0x20 ADD SWAP1 MLOAD DUP2 ADD SWAP1 PUSH2 0x15FE SWAP2 SWAP1 PUSH2 0x50D9 JUMP JUMPDEST SWAP1 POP PUSH2 0x1609 DUP4 PUSH2 0x1617 JUMP JUMPDEST DUP3 PUSH1 0xC0 ADD DUP2 SWAP1 MSTORE POP POP JUMPDEST POP POP JUMP JUMPDEST PUSH2 0x161F PUSH2 0x3A42 JUMP JUMPDEST PUSH1 0x1 DUP1 DUP2 GT ISZERO PUSH2 0x1632 JUMPI PUSH2 0x1631 PUSH2 0x4501 JUMP JUMPDEST JUMPDEST PUSH1 0x5 PUSH1 0x0 DUP5 DUP2 MSTORE PUSH1 0x20 ADD SWAP1 DUP2 MSTORE PUSH1 0x20 ADD PUSH1 0x0 KECCAK256 PUSH1 0x0 ADD PUSH1 0x0 SWAP1 SLOAD SWAP1 PUSH2 0x100 EXP SWAP1 DIV PUSH1 0xFF AND PUSH1 0x1 DUP2 GT ISZERO PUSH2 0x1668 JUMPI PUSH2 0x1667 PUSH2 0x4501 JUMP JUMPDEST JUMPDEST SUB PUSH2 0x1781 JUMPI PUSH1 0x5 PUSH1 0x0 DUP4 DUP2 MSTORE PUSH1 0x20 ADD SWAP1 DUP2 MSTORE PUSH1 0x20 ADD PUSH1 0x0 KECCAK256 PUSH1 0x40 MLOAD DUP1 PUSH1 0x60 ADD PUSH1 0x40 MSTORE SWAP1 DUP2 PUSH1 0x0 DUP3 ADD PUSH1 0x0 SWAP1 SLOAD SWAP1 PUSH2 0x100 EXP SWAP1 DIV PUSH1 0xFF AND PUSH1 0x1 DUP2 GT ISZERO PUSH2 0x16B0 JUMPI PUSH2 0x16AF PUSH2 0x4501 JUMP JUMPDEST JUMPDEST PUSH1 0x1 DUP2 GT ISZERO PUSH2 0x16C2 JUMPI PUSH2 0x16C1 PUSH2 0x4501 JUMP JUMPDEST JUMPDEST DUP2 MSTORE PUSH1 0x20 ADD PUSH1 0x0 DUP3 ADD PUSH1 0x1 SWAP1 SLOAD SWAP1 PUSH2 0x100 EXP SWAP1 DIV PUSH1 0xFF AND ISZERO ISZERO ISZERO ISZERO DUP2 MSTORE PUSH1 0x20 ADD PUSH1 0x1 DUP3 ADD PUSH1 0x40 MLOAD DUP1 PUSH1 0x80 ADD PUSH1 0x40 MSTORE SWAP1 DUP2 PUSH1 0x0 DUP3 ADD SLOAD DUP2 MSTORE PUSH1 0x20 ADD PUSH1 0x1 DUP3 ADD PUSH1 0x0 SWAP1 SLOAD SWAP1 PUSH2 0x100 EXP SWAP1 DIV PUSH20 0xFFFFFFFFFFFFFFFFFFFFFFFFFFFFFFFFFFFFFFFF AND PUSH20 0xFFFFFFFFFFFFFFFFFFFFFFFFFFFFFFFFFFFFFFFF AND PUSH20 0xFFFFFFFFFFFFFFFFFFFFFFFFFFFFFFFFFFFFFFFF AND DUP2 MSTORE PUSH1 0x20 ADD PUSH1 0x2 DUP3 ADD SLOAD DUP2 MSTORE PUSH1 0x20 ADD PUSH1 0x3 DUP3 ADD PUSH1 0x0 SWAP1 SLOAD SWAP1 PUSH2 0x100 EXP SWAP1 DIV PUSH1 0xFF AND ISZERO ISZERO ISZERO ISZERO DUP2 MSTORE POP POP DUP2 MSTORE POP POP SWAP1 POP PUSH2 0x17C4 JUMP JUMPDEST PUSH1 0x0 DUP2 PUSH1 0x0 ADD SWAP1 PUSH1 0x1 DUP2 GT ISZERO PUSH2 0x179A JUMPI PUSH2 0x1799 PUSH2 0x4501 JUMP JUMPDEST JUMPDEST SWAP1 DUP2 PUSH1 0x1 DUP2 GT ISZERO PUSH2 0x17AE JUMPI PUSH2 0x17AD PUSH2 0x4501 JUMP JUMPDEST JUMPDEST DUP2 MSTORE POP POP PUSH1 0x0 DUP2 PUSH1 0x20 ADD SWAP1 ISZERO ISZERO SWAP1 DUP2 ISZERO ISZERO DUP2 MSTORE POP POP JUMPDEST SWAP2 SWAP1 POP JUMP JUMPDEST PUSH2 0x17D1 PUSH2 0x3C93 JUMP JUMPDEST PUSH2 0x17E1 PUSH1 0x5 PUSH1 0x0 SLOAD EQ PUSH1 0x1B PUSH2 0x31F2 JUMP JUMPDEST PUSH1 0x0 PUSH1 0x2 DUP1 SLOAD PUSH2 0x17F0 SWAP1 PUSH2 0x491E JUMP JUMPDEST DUP1 PUSH1 0x1F ADD PUSH1 0x20 DUP1 SWAP2 DIV MUL PUSH1 0x20 ADD PUSH1 0x40 MLOAD SWAP1 DUP2 ADD PUSH1 0x40 MSTORE DUP1 SWAP3 SWAP2 SWAP1 DUP2 DUP2 MSTORE PUSH1 0x20 ADD DUP3 DUP1 SLOAD PUSH2 0x181C SWAP1 PUSH2 0x491E JUMP JUMPDEST DUP1 ISZERO PUSH2 0x1869 JUMPI DUP1 PUSH1 0x1F LT PUSH2 0x183E JUMPI PUSH2 0x100 DUP1 DUP4 SLOAD DIV MUL DUP4 MSTORE SWAP2 PUSH1 0x20 ADD SWAP2 PUSH2 0x1869 JUMP JUMPDEST DUP3 ADD SWAP2 SWAP1 PUSH1 0x0 MSTORE PUSH1 0x20 PUSH1 0x0 KECCAK256 SWAP1 JUMPDEST DUP2 SLOAD DUP2 MSTORE SWAP1 PUSH1 0x1 ADD SWAP1 PUSH1 0x20 ADD DUP1 DUP4 GT PUSH2 0x184C JUMPI DUP3 SWAP1 SUB PUSH1 0x1F AND DUP3 ADD SWAP2 JUMPDEST POP POP POP POP POP DUP1 PUSH1 0x20 ADD SWAP1 MLOAD DUP2 ADD SWAP1 PUSH2 0x1881 SWAP2 SWAP1 PUSH2 0x50D9 JUMP JUMPDEST SWAP1 POP PUSH2 0x189E PUSH1 0x4 PUSH1 0x0 SWAP1 SLOAD SWAP1 PUSH2 0x100 EXP SWAP1 DIV PUSH1 0xFF AND ISZERO PUSH1 0x1C PUSH2 0x31F2 JUMP JUMPDEST PUSH32 0x64AA645189D8D71304464992A5A4106214E6471ABBB80BCBD8C9769ED2BB6B3F CALLER DUP6 PUSH1 0x40 MLOAD PUSH2 0x18CF SWAP3 SWAP2 SWAP1 PUSH2 0x54B5 JUMP JUMPDEST PUSH1 0x40 MLOAD DUP1 SWAP2 SUB SWAP1 LOG1 PUSH2 0x18F9 PUSH1 0x0 DUP6 PUSH1 0x0 ADD MLOAD EQ DUP1 PUSH2 0x18F2 JUMPI POP DUP5 PUSH1 0x0 ADD MLOAD PUSH1 0x1 SLOAD EQ JUMPDEST PUSH1 0x1D PUSH2 0x31F2 JUMP JUMPDEST PUSH1 0x0 PUSH1 0x5 DUP2 GT ISZERO PUSH2 0x190D JUMPI PUSH2 0x190C PUSH2 0x4501 JUMP JUMPDEST JUMPDEST DUP5 PUSH1 0x20 ADD MLOAD PUSH1 0x0 ADD MLOAD PUSH1 0x5 DUP2 GT ISZERO PUSH2 0x1928 JUMPI PUSH2 0x1927 PUSH2 0x4501 JUMP JUMPDEST JUMPDEST SUB PUSH2 0x1DC0 JUMPI DUP4 PUSH1 0x20 ADD MLOAD PUSH1 0x20 ADD MLOAD DUP3 PUSH1 0x0 ADD DUP2 SWAP1 MSTORE POP PUSH2 0x19BA DUP2 PUSH1 0x0 ADD MLOAD PUSH20 0xFFFFFFFFFFFFFFFFFFFFFFFFFFFFFFFFFFFFFFFF AND CALLER PUSH20 0xFFFFFFFFFFFFFFFFFFFFFFFFFFFFFFFFFFFFFFFF AND EQ PUSH2 0x19B0 JUMPI CALLER PUSH20 0xFFFFFFFFFFFFFFFFFFFFFFFFFFFFFFFFFFFFFFFF AND DUP3 PUSH1 0x40 ADD MLOAD PUSH20 0xFFFFFFFFFFFFFFFFFFFFFFFFFFFFFFFFFFFFFFFF AND EQ PUSH2 0x19B3 JUMP JUMPDEST PUSH1 0x1 JUMPDEST PUSH1 0x1E PUSH2 0x31F2 JUMP JUMPDEST PUSH2 0x19DB DUP2 PUSH1 0xA0 ADD MLOAD PUSH1 0xC0 ADD MLOAD PUSH2 0x19D1 JUMPI PUSH1 0x1 PUSH2 0x19D4 JUMP JUMPDEST PUSH1 0x0 JUMPDEST PUSH1 0x1F PUSH2 0x31F2 JUMP JUMPDEST PUSH2 0x19EE DUP2 PUSH1 0xA0 ADD MLOAD PUSH1 0x80 ADD MLOAD PUSH1 0x20 PUSH2 0x31F2 JUMP JUMPDEST PUSH2 0x1A03 DUP3 PUSH1 0x0 ADD MLOAD PUSH1 0x0 ADD MLOAD PUSH1 0x0 ADD MLOAD PUSH2 0x1617 JUMP JUMPDEST DUP3 PUSH1 0x20 ADD DUP2 SWAP1 MSTORE POP PUSH2 0x1A33 PUSH1 0x1 DUP4 PUSH1 0x20 ADD MLOAD PUSH1 0x0 ADD MLOAD PUSH1 0x1 DUP2 GT ISZERO PUSH2 0x1A2B JUMPI PUSH2 0x1A2A PUSH2 0x4501 JUMP JUMPDEST JUMPDEST EQ PUSH1 0x21 PUSH2 0x31F2 JUMP JUMPDEST PUSH2 0x1A41 PUSH1 0x0 CALLVALUE EQ PUSH1 0x22 PUSH2 0x31F2 JUMP JUMPDEST PUSH1 0x0 DUP3 PUSH1 0x40 ADD MLOAD PUSH1 0x0 ADD DUP2 DUP2 MSTORE POP POP DUP1 PUSH1 0x60 ADD MLOAD DUP3 PUSH1 0x40 ADD MLOAD PUSH1 0x20 ADD SWAP1 PUSH20 0xFFFFFFFFFFFFFFFFFFFFFFFFFFFFFFFFFFFFFFFF AND SWAP1 DUP2 PUSH20 0xFFFFFFFFFFFFFFFFFFFFFFFFFFFFFFFFFFFFFFFF AND DUP2 MSTORE POP POP PUSH1 0x0 DUP3 PUSH1 0x40 ADD MLOAD PUSH1 0x40 ADD DUP2 DUP2 MSTORE POP POP PUSH1 0x0 DUP3 PUSH1 0x40 ADD MLOAD PUSH1 0x60 ADD SWAP1 ISZERO ISZERO SWAP1 DUP2 ISZERO ISZERO DUP2 MSTORE POP POP PUSH32 0xD33950DF4D6217A00ED428D0C2C2D4FC61520B1172F0CB7CD0F4EED97A4BA356 PUSH1 0x0 PUSH1 0x40 MLOAD PUSH2 0x1AE4 SWAP2 SWAP1 PUSH2 0x41CF JUMP JUMPDEST PUSH1 0x40 MLOAD DUP1 SWAP2 SUB SWAP1 LOG1 PUSH1 0x0 DUP4 PUSH1 0x20 ADD SWAP1 ISZERO ISZERO SWAP1 DUP2 ISZERO ISZERO DUP2 MSTORE POP POP PUSH1 0x1 DUP3 PUSH1 0x60 ADD MLOAD PUSH1 0x0 ADD SWAP1 PUSH1 0x1 DUP2 GT ISZERO PUSH2 0x1B1A JUMPI PUSH2 0x1B19 PUSH2 0x4501 JUMP JUMPDEST JUMPDEST SWAP1 DUP2 PUSH1 0x1 DUP2 GT ISZERO PUSH2 0x1B2E JUMPI PUSH2 0x1B2D PUSH2 0x4501 JUMP JUMPDEST JUMPDEST DUP2 MSTORE POP POP PUSH1 0x1 DUP1 DUP2 GT ISZERO PUSH2 0x1B45 JUMPI PUSH2 0x1B44 PUSH2 0x4501 JUMP JUMPDEST JUMPDEST DUP3 PUSH1 0x20 ADD MLOAD PUSH1 0x0 ADD MLOAD PUSH1 0x1 DUP2 GT ISZERO PUSH2 0x1B60 JUMPI PUSH2 0x1B5F PUSH2 0x4501 JUMP JUMPDEST JUMPDEST EQ PUSH2 0x1B6F JUMPI DUP2 PUSH1 0x40 ADD MLOAD PUSH2 0x1B79 JUMP JUMPDEST DUP2 PUSH1 0x20 ADD MLOAD PUSH1 0x40 ADD MLOAD JUMPDEST PUSH1 0x20 ADD MLOAD DUP3 PUSH1 0x60 ADD MLOAD PUSH1 0x40 ADD SWAP1 PUSH20 0xFFFFFFFFFFFFFFFFFFFFFFFFFFFFFFFFFFFFFFFF AND SWAP1 DUP2 PUSH20 0xFFFFFFFFFFFFFFFFFFFFFFFFFFFFFFFFFFFFFFFF AND DUP2 MSTORE POP POP DUP2 PUSH1 0x60 ADD MLOAD DUP3 PUSH1 0x80 ADD MLOAD PUSH1 0x0 ADD DUP2 SWAP1 MSTORE POP DUP1 PUSH1 0xA0 ADD MLOAD PUSH1 0x20 ADD MLOAD DUP3 PUSH1 0x80 ADD MLOAD PUSH1 0x20 ADD DUP2 DUP2 MSTORE POP POP DUP1 PUSH2 0x100 ADD MLOAD DUP3 PUSH1 0x80 ADD MLOAD PUSH1 0x40 ADD DUP2 SWAP1 MSTORE POP DUP1 PUSH1 0xA0 ADD MLOAD PUSH1 0x60 ADD MLOAD DUP3 PUSH1 0x80 ADD MLOAD PUSH1 0x60 ADD SWAP1 ISZERO ISZERO SWAP1 DUP2 ISZERO ISZERO DUP2 MSTORE POP POP PUSH1 0x1 DUP3 PUSH1 0x80 ADD MLOAD PUSH1 0x80 ADD SWAP1 ISZERO ISZERO SWAP1 DUP2 ISZERO ISZERO DUP2 MSTORE POP POP DUP1 PUSH2 0x120 ADD MLOAD DUP3 PUSH1 0x80 ADD MLOAD PUSH1 0xA0 ADD DUP2 SWAP1 MSTORE POP PUSH1 0x1 DUP3 PUSH1 0x80 ADD MLOAD PUSH1 0xC0 ADD SWAP1 ISZERO ISZERO SWAP1 DUP2 ISZERO ISZERO DUP2 MSTORE POP POP DUP1 PUSH1 0xA0 ADD MLOAD PUSH1 0xE0 ADD MLOAD DUP3 PUSH1 0x80 ADD MLOAD PUSH1 0xE0 ADD DUP2 DUP2 MSTORE POP POP DUP1 PUSH1 0xA0 ADD MLOAD PUSH2 0x100 ADD MLOAD DUP3 PUSH1 0x80 ADD MLOAD PUSH2 0x100 ADD DUP2 DUP2 MSTORE POP POP PUSH2 0x1C7F PUSH2 0x3B71 JUMP JUMPDEST DUP2 PUSH1 0x0 ADD MLOAD DUP2 PUSH1 0x0 ADD SWAP1 PUSH20 0xFFFFFFFFFFFFFFFFFFFFFFFFFFFFFFFFFFFFFFFF AND SWAP1 DUP2 PUSH20 0xFFFFFFFFFFFFFFFFFFFFFFFFFFFFFFFFFFFFFFFF AND DUP2 MSTORE POP POP DUP2 PUSH1 0x20 ADD MLOAD DUP2 PUSH1 0x20 ADD SWAP1 PUSH20 0xFFFFFFFFFFFFFFFFFFFFFFFFFFFFFFFFFFFFFFFF AND SWAP1 DUP2 PUSH20 0xFFFFFFFFFFFFFFFFFFFFFFFFFFFFFFFFFFFFFFFF AND DUP2 MSTORE POP POP DUP2 PUSH1 0x40 ADD MLOAD DUP2 PUSH1 0x40 ADD SWAP1 PUSH20 0xFFFFFFFFFFFFFFFFFFFFFFFFFFFFFFFFFFFFFFFF AND SWAP1 DUP2 PUSH20 0xFFFFFFFFFFFFFFFFFFFFFFFFFFFFFFFFFFFFFFFF AND DUP2 MSTORE POP POP DUP2 PUSH1 0x60 ADD MLOAD DUP2 PUSH1 0x60 ADD SWAP1 PUSH20 0xFFFFFFFFFFFFFFFFFFFFFFFFFFFFFFFFFFFFFFFF AND SWAP1 DUP2 PUSH20 0xFFFFFFFFFFFFFFFFFFFFFFFFFFFFFFFFFFFFFFFF AND DUP2 MSTORE POP POP DUP2 PUSH1 0x80 ADD MLOAD DUP2 PUSH1 0x80 ADD DUP2 DUP2 MSTORE POP POP DUP3 PUSH1 0x80 ADD MLOAD DUP2 PUSH1 0xA0 ADD DUP2 SWAP1 MSTORE POP NUMBER DUP2 PUSH1 0xC0 ADD DUP2 DUP2 MSTORE POP POP DUP2 PUSH1 0xC0 ADD MLOAD DUP2 PUSH1 0xE0 ADD DUP2 SWAP1 MSTORE POP DUP2 PUSH1 0xE0 ADD MLOAD DUP2 PUSH2 0x100 ADD DUP2 DUP2 MSTORE POP POP PUSH2 0x1DBA DUP2 DUP6 PUSH2 0x32F3 JUMP JUMPDEST POP PUSH2 0x31EC JUMP JUMPDEST PUSH1 0x1 PUSH1 0x5 DUP2 GT ISZERO PUSH2 0x1DD4 JUMPI PUSH2 0x1DD3 PUSH2 0x4501 JUMP JUMPDEST JUMPDEST DUP5 PUSH1 0x20 ADD MLOAD PUSH1 0x0 ADD MLOAD PUSH1 0x5 DUP2 GT ISZERO PUSH2 0x1DEF JUMPI PUSH2 0x1DEE PUSH2 0x4501 JUMP JUMPDEST JUMPDEST SUB PUSH2 0x2107 JUMPI PUSH2 0x1E70 DUP2 PUSH1 0x0 ADD MLOAD PUSH20 0xFFFFFFFFFFFFFFFFFFFFFFFFFFFFFFFFFFFFFFFF AND CALLER PUSH20 0xFFFFFFFFFFFFFFFFFFFFFFFFFFFFFFFFFFFFFFFF AND EQ PUSH2 0x1E66 JUMPI CALLER PUSH20 0xFFFFFFFFFFFFFFFFFFFFFFFFFFFFFFFFFFFFFFFF AND DUP3 PUSH1 0x40 ADD MLOAD PUSH20 0xFFFFFFFFFFFFFFFFFFFFFFFFFFFFFFFFFFFFFFFF AND EQ PUSH2 0x1E69 JUMP JUMPDEST PUSH1 0x1 JUMPDEST PUSH1 0x23 PUSH2 0x31F2 JUMP JUMPDEST PUSH2 0x1E91 DUP2 PUSH1 0xA0 ADD MLOAD PUSH1 0xC0 ADD MLOAD PUSH2 0x1E87 JUMPI PUSH1 0x1 PUSH2 0x1E8A JUMP JUMPDEST PUSH1 0x0 JUMPDEST PUSH1 0x24 PUSH2 0x31F2 JUMP JUMPDEST PUSH2 0x1EA4 DUP2 PUSH1 0xA0 ADD MLOAD PUSH1 0x80 ADD MLOAD PUSH1 0x25 PUSH2 0x31F2 JUMP JUMPDEST PUSH2 0x1EB2 PUSH1 0x0 CALLVALUE EQ PUSH1 0x26 PUSH2 0x31F2 JUMP JUMPDEST PUSH32 0x5BB0FA12F5689C81A68083351587115A04A0DAAAC1BBF2240EA3FA43C7EB83F1 PUSH1 0x0 PUSH1 0x40 MLOAD PUSH2 0x1EE2 SWAP2 SWAP1 PUSH2 0x41CF JUMP JUMPDEST PUSH1 0x40 MLOAD DUP1 SWAP2 SUB SWAP1 LOG1 PUSH1 0x0 DUP4 PUSH1 0x40 ADD SWAP1 ISZERO ISZERO SWAP1 DUP2 ISZERO ISZERO DUP2 MSTORE POP POP DUP1 PUSH1 0xA0 ADD MLOAD PUSH1 0x0 ADD MLOAD DUP3 PUSH1 0xA0 ADD MLOAD PUSH1 0x0 ADD DUP2 SWAP1 MSTORE POP DUP1 PUSH1 0xA0 ADD MLOAD PUSH1 0x20 ADD MLOAD DUP3 PUSH1 0xA0 ADD MLOAD PUSH1 0x20 ADD DUP2 DUP2 MSTORE POP POP DUP1 PUSH2 0x100 ADD MLOAD DUP3 PUSH1 0xA0 ADD MLOAD PUSH1 0x40 ADD DUP2 SWAP1 MSTORE POP PUSH1 0x0 DUP3 PUSH1 0xA0 ADD MLOAD PUSH1 0x60 ADD SWAP1 ISZERO ISZERO SWAP1 DUP2 ISZERO ISZERO DUP2 MSTORE POP POP PUSH1 0x1 DUP3 PUSH1 0xA0 ADD MLOAD PUSH1 0x80 ADD SWAP1 ISZERO ISZERO SWAP1 DUP2 ISZERO ISZERO DUP2 MSTORE POP POP DUP1 PUSH2 0x120 ADD MLOAD DUP3 PUSH1 0xA0 ADD MLOAD PUSH1 0xA0 ADD DUP2 SWAP1 MSTORE POP DUP1 PUSH1 0xA0 ADD MLOAD PUSH1 0xC0 ADD MLOAD DUP3 PUSH1 0xA0 ADD MLOAD PUSH1 0xC0 ADD SWAP1 ISZERO ISZERO SWAP1 DUP2 ISZERO ISZERO DUP2 MSTORE POP POP DUP1 PUSH1 0xA0 ADD MLOAD PUSH1 0xE0 ADD MLOAD DUP3 PUSH1 0xA0 ADD MLOAD PUSH1 0xE0 ADD DUP2 DUP2 MSTORE POP POP DUP1 PUSH1 0xA0 ADD MLOAD PUSH2 0x100 ADD MLOAD DUP3 PUSH1 0xA0 ADD MLOAD PUSH2 0x100 ADD DUP2 DUP2 MSTORE POP POP PUSH2 0x1FC6 PUSH2 0x3B71 JUMP JUMPDEST DUP2 PUSH1 0x0 ADD MLOAD DUP2 PUSH1 0x0 ADD SWAP1 PUSH20 0xFFFFFFFFFFFFFFFFFFFFFFFFFFFFFFFFFFFFFFFF AND SWAP1 DUP2 PUSH20 0xFFFFFFFFFFFFFFFFFFFFFFFFFFFFFFFFFFFFFFFF AND DUP2 MSTORE POP POP DUP2 PUSH1 0x20 ADD MLOAD DUP2 PUSH1 0x20 ADD SWAP1 PUSH20 0xFFFFFFFFFFFFFFFFFFFFFFFFFFFFFFFFFFFFFFFF AND SWAP1 DUP2 PUSH20 0xFFFFFFFFFFFFFFFFFFFFFFFFFFFFFFFFFFFFFFFF AND DUP2 MSTORE POP POP DUP2 PUSH1 0x40 ADD MLOAD DUP2 PUSH1 0x40 ADD SWAP1 PUSH20 0xFFFFFFFFFFFFFFFFFFFFFFFFFFFFFFFFFFFFFFFF AND SWAP1 DUP2 PUSH20 0xFFFFFFFFFFFFFFFFFFFFFFFFFFFFFFFFFFFFFFFF AND DUP2 MSTORE POP POP DUP2 PUSH1 0x60 ADD MLOAD DUP2 PUSH1 0x60 ADD SWAP1 PUSH20 0xFFFFFFFFFFFFFFFFFFFFFFFFFFFFFFFFFFFFFFFF AND SWAP1 DUP2 PUSH20 0xFFFFFFFFFFFFFFFFFFFFFFFFFFFFFFFFFFFFFFFF AND DUP2 MSTORE POP POP DUP2 PUSH1 0x80 ADD MLOAD DUP2 PUSH1 0x80 ADD DUP2 DUP2 MSTORE POP POP DUP3 PUSH1 0xA0 ADD MLOAD DUP2 PUSH1 0xA0 ADD DUP2 SWAP1 MSTORE POP NUMBER DUP2 PUSH1 0xC0 ADD DUP2 DUP2 MSTORE POP POP DUP2 PUSH1 0xC0 ADD MLOAD DUP2 PUSH1 0xE0 ADD DUP2 SWAP1 MSTORE POP DUP2 PUSH1 0xE0 ADD MLOAD DUP2 PUSH2 0x100 ADD DUP2 DUP2 MSTORE POP POP PUSH2 0x2101 DUP2 DUP6 PUSH2 0x32F3 JUMP JUMPDEST POP PUSH2 0x31EB JUMP JUMPDEST PUSH1 0x2 PUSH1 0x5 DUP2 GT ISZERO PUSH2 0x211B JUMPI PUSH2 0x211A PUSH2 0x4501 JUMP JUMPDEST JUMPDEST DUP5 PUSH1 0x20 ADD MLOAD PUSH1 0x0 ADD MLOAD PUSH1 0x5 DUP2 GT ISZERO PUSH2 0x2136 JUMPI PUSH2 0x2135 PUSH2 0x4501 JUMP JUMPDEST JUMPDEST SUB PUSH2 0x245D JUMPI DUP4 PUSH1 0x20 ADD MLOAD PUSH1 0x60 ADD MLOAD DUP3 PUSH1 0xC0 ADD DUP2 SWAP1 MSTORE POP PUSH2 0x21C8 DUP2 PUSH1 0x0 ADD MLOAD PUSH20 0xFFFFFFFFFFFFFFFFFFFFFFFFFFFFFFFFFFFFFFFF AND CALLER PUSH20 0xFFFFFFFFFFFFFFFFFFFFFFFFFFFFFFFFFFFFFFFF AND EQ PUSH2 0x21BE JUMPI CALLER PUSH20 0xFFFFFFFFFFFFFFFFFFFFFFFFFFFFFFFFFFFFFFFF AND DUP3 PUSH1 0x40 ADD MLOAD PUSH20 0xFFFFFFFFFFFFFFFFFFFFFFFFFFFFFFFFFFFFFFFF AND EQ PUSH2 0x21C1 JUMP JUMPDEST PUSH1 0x1 JUMPDEST PUSH1 0x27 PUSH2 0x31F2 JUMP JUMPDEST PUSH2 0x21E9 DUP2 PUSH1 0xA0 ADD MLOAD PUSH1 0xC0 ADD MLOAD PUSH2 0x21DF JUMPI PUSH1 0x1 PUSH2 0x21E2 JUMP JUMPDEST PUSH1 0x0 JUMPDEST PUSH1 0x28 PUSH2 0x31F2 JUMP JUMPDEST PUSH2 0x21F7 PUSH1 0x0 CALLVALUE EQ PUSH1 0x29 PUSH2 0x31F2 JUMP JUMPDEST PUSH32 0x9941DA50436C62648EA82FD86E74ED8AD0B667DD72744CEB1EE205D97FCC3B67 PUSH1 0x0 PUSH1 0x40 MLOAD PUSH2 0x2227 SWAP2 SWAP1 PUSH2 0x41CF JUMP JUMPDEST PUSH1 0x40 MLOAD DUP1 SWAP2 SUB SWAP1 LOG1 PUSH1 0x0 DUP4 PUSH1 0x60 ADD SWAP1 ISZERO ISZERO SWAP1 DUP2 ISZERO ISZERO DUP2 MSTORE POP POP DUP1 PUSH1 0xA0 ADD MLOAD PUSH1 0x0 ADD MLOAD DUP3 PUSH1 0xE0 ADD MLOAD PUSH1 0x0 ADD DUP2 SWAP1 MSTORE POP DUP1 PUSH1 0xA0 ADD MLOAD PUSH1 0x20 ADD MLOAD DUP3 PUSH1 0xE0 ADD MLOAD PUSH1 0x20 ADD DUP2 DUP2 MSTORE POP POP DUP1 PUSH2 0x100 ADD MLOAD DUP3 PUSH1 0xE0 ADD MLOAD PUSH1 0x40 ADD DUP2 SWAP1 MSTORE POP DUP1 PUSH1 0xA0 ADD MLOAD PUSH1 0x60 ADD MLOAD DUP3 PUSH1 0xE0 ADD MLOAD PUSH1 0x60 ADD SWAP1 ISZERO ISZERO SWAP1 DUP2 ISZERO ISZERO DUP2 MSTORE POP POP DUP1 PUSH1 0xA0 ADD MLOAD PUSH1 0x80 ADD MLOAD DUP3 PUSH1 0xE0 ADD MLOAD PUSH1 0x80 ADD SWAP1 ISZERO ISZERO SWAP1 DUP2 ISZERO ISZERO DUP2 MSTORE POP POP DUP2 PUSH1 0xC0 ADD MLOAD PUSH1 0x0 ADD MLOAD DUP3 PUSH1 0xE0 ADD MLOAD PUSH1 0xA0 ADD DUP2 SWAP1 MSTORE POP DUP1 PUSH1 0xA0 ADD MLOAD PUSH1 0xC0 ADD MLOAD DUP3 PUSH1 0xE0 ADD MLOAD PUSH1 0xC0 ADD SWAP1 ISZERO ISZERO SWAP1 DUP2 ISZERO ISZERO DUP2 MSTORE POP POP DUP1 PUSH1 0xA0 ADD MLOAD PUSH1 0xE0 ADD MLOAD DUP3 PUSH1 0xE0 ADD MLOAD PUSH1 0xE0 ADD DUP2 DUP2 MSTORE POP POP DUP1 PUSH1 0xA0 ADD MLOAD PUSH2 0x100 ADD MLOAD DUP3 PUSH1 0xE0 ADD MLOAD PUSH2 0x100 ADD DUP2 DUP2 MSTORE POP POP PUSH2 0x231C PUSH2 0x3B71 JUMP JUMPDEST DUP2 PUSH1 0x0 ADD MLOAD DUP2 PUSH1 0x0 ADD SWAP1 PUSH20 0xFFFFFFFFFFFFFFFFFFFFFFFFFFFFFFFFFFFFFFFF AND SWAP1 DUP2 PUSH20 0xFFFFFFFFFFFFFFFFFFFFFFFFFFFFFFFFFFFFFFFF AND DUP2 MSTORE POP POP DUP2 PUSH1 0x20 ADD MLOAD DUP2 PUSH1 0x20 ADD SWAP1 PUSH20 0xFFFFFFFFFFFFFFFFFFFFFFFFFFFFFFFFFFFFFFFF AND SWAP1 DUP2 PUSH20 0xFFFFFFFFFFFFFFFFFFFFFFFFFFFFFFFFFFFFFFFF AND DUP2 MSTORE POP POP DUP2 PUSH1 0x40 ADD MLOAD DUP2 PUSH1 0x40 ADD SWAP1 PUSH20 0xFFFFFFFFFFFFFFFFFFFFFFFFFFFFFFFFFFFFFFFF AND SWAP1 DUP2 PUSH20 0xFFFFFFFFFFFFFFFFFFFFFFFFFFFFFFFFFFFFFFFF AND DUP2 MSTORE POP POP DUP2 PUSH1 0x60 ADD MLOAD DUP2 PUSH1 0x60 ADD SWAP1 PUSH20 0xFFFFFFFFFFFFFFFFFFFFFFFFFFFFFFFFFFFFFFFF AND SWAP1 DUP2 PUSH20 0xFFFFFFFFFFFFFFFFFFFFFFFFFFFFFFFFFFFFFFFF AND DUP2 MSTORE POP POP DUP2 PUSH1 0x80 ADD MLOAD DUP2 PUSH1 0x80 ADD DUP2 DUP2 MSTORE POP POP DUP3 PUSH1 0xE0 ADD MLOAD DUP2 PUSH1 0xA0 ADD DUP2 SWAP1 MSTORE POP NUMBER DUP2 PUSH1 0xC0 ADD DUP2 DUP2 MSTORE POP POP DUP2 PUSH1 0xC0 ADD MLOAD DUP2 PUSH1 0xE0 ADD DUP2 SWAP1 MSTORE POP DUP2 PUSH1 0xE0 ADD MLOAD DUP2 PUSH2 0x100 ADD DUP2 DUP2 MSTORE POP POP PUSH2 0x2457 DUP2 DUP6 PUSH2 0x32F3 JUMP JUMPDEST POP PUSH2 0x31EA JUMP JUMPDEST PUSH1 0x3 PUSH1 0x5 DUP2 GT ISZERO PUSH2 0x2471 JUMPI PUSH2 0x2470 PUSH2 0x4501 JUMP JUMPDEST JUMPDEST DUP5 PUSH1 0x20 ADD MLOAD PUSH1 0x0 ADD MLOAD PUSH1 0x5 DUP2 GT ISZERO PUSH2 0x248C JUMPI PUSH2 0x248B PUSH2 0x4501 JUMP JUMPDEST JUMPDEST SUB PUSH2 0x2822 JUMPI PUSH2 0x24A4 DUP2 PUSH1 0xA0 ADD MLOAD PUSH1 0x80 ADD MLOAD PUSH1 0x2A PUSH2 0x31F2 JUMP JUMPDEST PUSH2 0x24C5 DUP2 PUSH1 0xA0 ADD MLOAD PUSH1 0xC0 ADD MLOAD PUSH2 0x24BB JUMPI PUSH1 0x1 PUSH2 0x24BE JUMP JUMPDEST PUSH1 0x0 JUMPDEST PUSH1 0x2B PUSH2 0x31F2 JUMP JUMPDEST PUSH2 0x24D6 DUP2 PUSH1 0x80 ADD MLOAD CALLVALUE EQ PUSH1 0x2C PUSH2 0x31F2 JUMP JUMPDEST PUSH32 0xD8470410AA25572C17395892C8F9B41CD5F3263A9071F6EC15371175CC844BCD PUSH1 0x0 PUSH1 0x40 MLOAD PUSH2 0x2506 SWAP2 SWAP1 PUSH2 0x41CF JUMP JUMPDEST PUSH1 0x40 MLOAD DUP1 SWAP2 SUB SWAP1 LOG1 PUSH1 0x0 DUP4 PUSH1 0xE0 ADD SWAP1 ISZERO ISZERO SWAP1 DUP2 ISZERO ISZERO DUP2 MSTORE POP POP DUP1 PUSH1 0x0 ADD MLOAD PUSH20 0xFFFFFFFFFFFFFFFFFFFFFFFFFFFFFFFFFFFFFFFF AND PUSH2 0x8FC DUP3 PUSH1 0x80 ADD MLOAD SWAP1 DUP2 ISZERO MUL SWAP1 PUSH1 0x40 MLOAD PUSH1 0x0 PUSH1 0x40 MLOAD DUP1 DUP4 SUB DUP2 DUP6 DUP9 DUP9 CALL SWAP4 POP POP POP POP ISZERO DUP1 ISZERO PUSH2 0x256D JUMPI RETURNDATASIZE PUSH1 0x0 DUP1 RETURNDATACOPY RETURNDATASIZE PUSH1 0x0 REVERT JUMPDEST POP PUSH1 0x1 DUP3 PUSH2 0x100 ADD MLOAD PUSH1 0x0 ADD SWAP1 PUSH1 0x1 DUP2 GT ISZERO PUSH2 0x258C JUMPI PUSH2 0x258B PUSH2 0x4501 JUMP JUMPDEST JUMPDEST SWAP1 DUP2 PUSH1 0x1 DUP2 GT ISZERO PUSH2 0x25A0 JUMPI PUSH2 0x259F PUSH2 0x4501 JUMP JUMPDEST JUMPDEST DUP2 MSTORE POP POP CALLER DUP3 PUSH2 0x100 ADD MLOAD PUSH1 0x40 ADD SWAP1 PUSH20 0xFFFFFFFFFFFFFFFFFFFFFFFFFFFFFFFFFFFFFFFF AND SWAP1 DUP2 PUSH20 0xFFFFFFFFFFFFFFFFFFFFFFFFFFFFFFFFFFFFFFFF AND DUP2 MSTORE POP POP DUP2 PUSH2 0x100 ADD MLOAD DUP3 PUSH2 0x120 ADD MLOAD PUSH1 0x0 ADD DUP2 SWAP1 MSTORE POP PUSH2 0x2607 DUP2 PUSH1 0xA0 ADD MLOAD PUSH1 0x20 ADD MLOAD PUSH1 0x1 PUSH2 0x35C0 JUMP JUMPDEST DUP3 PUSH2 0x120 ADD MLOAD PUSH1 0x20 ADD DUP2 DUP2 MSTORE POP POP DUP1 PUSH2 0x100 ADD MLOAD DUP3 PUSH2 0x120 ADD MLOAD PUSH1 0x40 ADD DUP2 SWAP1 MSTORE POP DUP1 PUSH1 0xA0 ADD MLOAD PUSH1 0x60 ADD MLOAD DUP3 PUSH2 0x120 ADD MLOAD PUSH1 0x60 ADD SWAP1 ISZERO ISZERO SWAP1 DUP2 ISZERO ISZERO DUP2 MSTORE POP POP PUSH1 0x1 DUP3 PUSH2 0x120 ADD MLOAD PUSH1 0x80 ADD SWAP1 ISZERO ISZERO SWAP1 DUP2 ISZERO ISZERO DUP2 MSTORE POP POP DUP1 PUSH2 0x120 ADD MLOAD DUP3 PUSH2 0x120 ADD MLOAD PUSH1 0xA0 ADD DUP2 SWAP1 MSTORE POP PUSH1 0x1 DUP3 PUSH2 0x120 ADD MLOAD PUSH1 0xC0 ADD SWAP1 ISZERO ISZERO SWAP1 DUP2 ISZERO ISZERO DUP2 MSTORE POP POP DUP1 PUSH1 0xA0 ADD MLOAD PUSH1 0xE0 ADD MLOAD DUP3 PUSH2 0x120 ADD MLOAD PUSH1 0xE0 ADD DUP2 DUP2 MSTORE POP POP PUSH2 0x26AF DUP2 PUSH1 0xA0 ADD MLOAD PUSH2 0x100 ADD MLOAD PUSH1 0x1 PUSH2 0x35C0 JUMP JUMPDEST DUP3 PUSH2 0x120 ADD MLOAD PUSH2 0x100 ADD DUP2 DUP2 MSTORE POP POP PUSH2 0x26C6 PUSH2 0x3B71 JUMP JUMPDEST DUP2 PUSH1 0x0 ADD MLOAD DUP2 PUSH1 0x0 ADD SWAP1 PUSH20 0xFFFFFFFFFFFFFFFFFFFFFFFFFFFFFFFFFFFFFFFF AND SWAP1 DUP2 PUSH20 0xFFFFFFFFFFFFFFFFFFFFFFFFFFFFFFFFFFFFFFFF AND DUP2 MSTORE POP POP DUP2 PUSH1 0x20 ADD MLOAD DUP2 PUSH1 0x20 ADD SWAP1 PUSH20 0xFFFFFFFFFFFFFFFFFFFFFFFFFFFFFFFFFFFFFFFF AND SWAP1 DUP2 PUSH20 0xFFFFFFFFFFFFFFFFFFFFFFFFFFFFFFFFFFFFFFFF AND DUP2 MSTORE POP POP DUP2 PUSH1 0x40 ADD MLOAD DUP2 PUSH1 0x40 ADD SWAP1 PUSH20 0xFFFFFFFFFFFFFFFFFFFFFFFFFFFFFFFFFFFFFFFF AND SWAP1 DUP2 PUSH20 0xFFFFFFFFFFFFFFFFFFFFFFFFFFFFFFFFFFFFFFFF AND DUP2 MSTORE POP POP DUP2 PUSH1 0x60 ADD MLOAD DUP2 PUSH1 0x60 ADD SWAP1 PUSH20 0xFFFFFFFFFFFFFFFFFFFFFFFFFFFFFFFFFFFFFFFF AND SWAP1 DUP2 PUSH20 0xFFFFFFFFFFFFFFFFFFFFFFFFFFFFFFFFFFFFFFFF AND DUP2 MSTORE POP POP DUP2 PUSH1 0x80 ADD MLOAD DUP2 PUSH1 0x80 ADD DUP2 DUP2 MSTORE POP POP DUP3 PUSH2 0x120 ADD MLOAD DUP2 PUSH1 0xA0 ADD DUP2 SWAP1 MSTORE POP NUMBER DUP2 PUSH1 0xC0 ADD DUP2 DUP2 MSTORE POP POP DUP2 PUSH1 0xC0 ADD MLOAD DUP2 PUSH1 0xE0 ADD DUP2 SWAP1 MSTORE POP PUSH2 0x2808 PUSH2 0x27FE DUP4 PUSH1 0xE0 ADD MLOAD DUP5 PUSH1 0x80 ADD MLOAD PUSH2 0x3268 JUMP JUMPDEST DUP4 PUSH1 0x80 ADD MLOAD PUSH2 0x3619 JUMP JUMPDEST DUP2 PUSH2 0x100 ADD DUP2 DUP2 MSTORE POP POP PUSH2 0x281C DUP2 DUP6 PUSH2 0x32F3 JUMP JUMPDEST POP PUSH2 0x31E9 JUMP JUMPDEST PUSH1 0x4 PUSH1 0x5 DUP2 GT ISZERO PUSH2 0x2836 JUMPI PUSH2 0x2835 PUSH2 0x4501 JUMP JUMPDEST JUMPDEST DUP5 PUSH1 0x20 ADD MLOAD PUSH1 0x0 ADD MLOAD PUSH1 0x5 DUP2 GT ISZERO PUSH2 0x2851 JUMPI PUSH2 0x2850 PUSH2 0x4501 JUMP JUMPDEST JUMPDEST SUB PUSH2 0x2D6F JUMPI DUP4 PUSH1 0x20 ADD MLOAD PUSH1 0xA0 ADD MLOAD DUP3 PUSH2 0x140 ADD DUP2 SWAP1 MSTORE POP PUSH2 0x287A DUP3 PUSH2 0x140 ADD MLOAD PUSH1 0x0 ADD MLOAD PUSH2 0x1617 JUMP JUMPDEST DUP3 PUSH2 0x160 ADD DUP2 SWAP1 MSTORE POP PUSH2 0x28AC PUSH1 0x1 DUP4 PUSH2 0x160 ADD MLOAD PUSH1 0x0 ADD MLOAD PUSH1 0x1 DUP2 GT ISZERO PUSH2 0x28A4 JUMPI PUSH2 0x28A3 PUSH2 0x4501 JUMP JUMPDEST JUMPDEST EQ PUSH1 0x2D PUSH2 0x31F2 JUMP JUMPDEST PUSH1 0x0 DUP3 PUSH2 0x180 ADD MLOAD PUSH1 0x0 ADD DUP2 DUP2 MSTORE POP POP DUP1 PUSH1 0x60 ADD MLOAD DUP3 PUSH2 0x180 ADD MLOAD PUSH1 0x20 ADD SWAP1 PUSH20 0xFFFFFFFFFFFFFFFFFFFFFFFFFFFFFFFFFFFFFFFF AND SWAP1 DUP2 PUSH20 0xFFFFFFFFFFFFFFFFFFFFFFFFFFFFFFFFFFFFFFFF AND DUP2 MSTORE POP POP PUSH1 0x0 DUP3 PUSH2 0x180 ADD MLOAD PUSH1 0x40 ADD DUP2 DUP2 MSTORE POP POP PUSH1 0x0 DUP3 PUSH2 0x180 ADD MLOAD PUSH1 0x60 ADD SWAP1 ISZERO ISZERO SWAP1 DUP2 ISZERO ISZERO DUP2 MSTORE POP POP PUSH1 0x1 DUP1 DUP2 GT ISZERO PUSH2 0x2936 JUMPI PUSH2 0x2935 PUSH2 0x4501 JUMP JUMPDEST JUMPDEST DUP3 PUSH2 0x160 ADD MLOAD PUSH1 0x0 ADD MLOAD PUSH1 0x1 DUP2 GT ISZERO PUSH2 0x2952 JUMPI PUSH2 0x2951 PUSH2 0x4501 JUMP JUMPDEST JUMPDEST EQ PUSH2 0x2962 JUMPI DUP2 PUSH2 0x180 ADD MLOAD PUSH2 0x296D JUMP JUMPDEST DUP2 PUSH2 0x160 ADD MLOAD PUSH1 0x40 ADD MLOAD JUMPDEST DUP3 PUSH2 0x1A0 ADD DUP2 SWAP1 MSTORE POP PUSH2 0x29B8 DUP3 PUSH2 0x1A0 ADD MLOAD PUSH1 0x20 ADD MLOAD PUSH20 0xFFFFFFFFFFFFFFFFFFFFFFFFFFFFFFFFFFFFFFFF AND CALLER PUSH20 0xFFFFFFFFFFFFFFFFFFFFFFFFFFFFFFFFFFFFFFFF AND EQ PUSH1 0x2E PUSH2 0x31F2 JUMP JUMPDEST PUSH2 0x29D3 DUP3 PUSH2 0x1A0 ADD MLOAD PUSH1 0x40 ADD MLOAD DUP3 PUSH1 0xE0 ADD MLOAD LT ISZERO PUSH1 0x2F PUSH2 0x31F2 JUMP JUMPDEST PUSH2 0x29E1 PUSH1 0x0 CALLVALUE EQ PUSH1 0x30 PUSH2 0x31F2 JUMP JUMPDEST PUSH32 0xDC092695C66D03AB294E7C8E9575C5E57E8E352135544814038E9079E62A97C0 PUSH1 0x0 PUSH1 0x40 MLOAD PUSH2 0x2A11 SWAP2 SWAP1 PUSH2 0x41CF JUMP JUMPDEST PUSH1 0x40 MLOAD DUP1 SWAP2 SUB SWAP1 LOG1 PUSH1 0x0 DUP4 PUSH2 0x100 ADD SWAP1 ISZERO ISZERO SWAP1 DUP2 ISZERO ISZERO DUP2 MSTORE POP POP DUP2 PUSH2 0x1A0 ADD MLOAD PUSH1 0x20 ADD MLOAD PUSH20 0xFFFFFFFFFFFFFFFFFFFFFFFFFFFFFFFFFFFFFFFF AND PUSH2 0x8FC DUP4 PUSH2 0x1A0 ADD MLOAD PUSH1 0x40 ADD MLOAD SWAP1 DUP2 ISZERO MUL SWAP1 PUSH1 0x40 MLOAD PUSH1 0x0 PUSH1 0x40 MLOAD DUP1 DUP4 SUB DUP2 DUP6 DUP9 DUP9 CALL SWAP4 POP POP POP POP ISZERO DUP1 ISZERO PUSH2 0x2A83 JUMPI RETURNDATASIZE PUSH1 0x0 DUP1 RETURNDATACOPY RETURNDATASIZE PUSH1 0x0 REVERT JUMPDEST POP PUSH1 0x5 PUSH1 0x0 DUP4 PUSH2 0x140 ADD MLOAD PUSH1 0x0 ADD MLOAD DUP2 MSTORE PUSH1 0x20 ADD SWAP1 DUP2 MSTORE PUSH1 0x20 ADD PUSH1 0x0 KECCAK256 PUSH1 0x0 DUP1 DUP3 ADD PUSH1 0x0 PUSH2 0x100 EXP DUP2 SLOAD SWAP1 PUSH1 0xFF MUL NOT AND SWAP1 SSTORE PUSH1 0x0 DUP3 ADD PUSH1 0x1 PUSH2 0x100 EXP DUP2 SLOAD SWAP1 PUSH1 0xFF MUL NOT AND SWAP1 SSTORE PUSH1 0x1 DUP3 ADD PUSH1 0x0 DUP1 DUP3 ADD PUSH1 0x0 SWAP1 SSTORE PUSH1 0x1 DUP3 ADD PUSH1 0x0 PUSH2 0x100 EXP DUP2 SLOAD SWAP1 PUSH20 0xFFFFFFFFFFFFFFFFFFFFFFFFFFFFFFFFFFFFFFFF MUL NOT AND SWAP1 SSTORE PUSH1 0x2 DUP3 ADD PUSH1 0x0 SWAP1 SSTORE PUSH1 0x3 DUP3 ADD PUSH1 0x0 PUSH2 0x100 EXP DUP2 SLOAD SWAP1 PUSH1 0xFF MUL NOT AND SWAP1 SSTORE POP POP POP POP DUP1 PUSH1 0xA0 ADD MLOAD PUSH1 0x0 ADD MLOAD DUP3 PUSH2 0x1C0 ADD MLOAD PUSH1 0x0 ADD DUP2 SWAP1 MSTORE POP PUSH2 0x2B46 DUP2 PUSH1 0xA0 ADD MLOAD PUSH1 0x20 ADD MLOAD PUSH1 0x1 PUSH2 0x3626 JUMP JUMPDEST DUP3 PUSH2 0x1C0 ADD MLOAD PUSH1 0x20 ADD DUP2 DUP2 MSTORE POP POP DUP1 PUSH2 0x100 ADD MLOAD DUP3 PUSH2 0x1C0 ADD MLOAD PUSH1 0x40 ADD DUP2 SWAP1 MSTORE POP DUP1 PUSH1 0xA0 ADD MLOAD PUSH1 0x60 ADD MLOAD DUP3 PUSH2 0x1C0 ADD MLOAD PUSH1 0x60 ADD SWAP1 ISZERO ISZERO SWAP1 DUP2 ISZERO ISZERO DUP2 MSTORE POP POP DUP1 PUSH1 0xA0 ADD MLOAD PUSH1 0x80 ADD MLOAD DUP3 PUSH2 0x1C0 ADD MLOAD PUSH1 0x80 ADD SWAP1 ISZERO ISZERO SWAP1 DUP2 ISZERO ISZERO DUP2 MSTORE POP POP DUP1 PUSH2 0x120 ADD MLOAD DUP3 PUSH2 0x1C0 ADD MLOAD PUSH1 0xA0 ADD DUP2 SWAP1 MSTORE POP DUP1 PUSH1 0xA0 ADD MLOAD PUSH1 0xC0 ADD MLOAD DUP3 PUSH2 0x1C0 ADD MLOAD PUSH1 0xC0 ADD SWAP1 ISZERO ISZERO SWAP1 DUP2 ISZERO ISZERO DUP2 MSTORE POP POP PUSH2 0x2BEC DUP2 PUSH1 0xA0 ADD MLOAD PUSH1 0xE0 ADD MLOAD DUP4 PUSH2 0x1A0 ADD MLOAD PUSH1 0x40 ADD MLOAD PUSH2 0x3626 JUMP JUMPDEST DUP3 PUSH2 0x1C0 ADD MLOAD PUSH1 0xE0 ADD DUP2 DUP2 MSTORE POP POP DUP1 PUSH1 0xA0 ADD MLOAD PUSH2 0x100 ADD MLOAD DUP3 PUSH2 0x1C0 ADD MLOAD PUSH2 0x100 ADD DUP2 DUP2 MSTORE POP POP PUSH2 0x2C1B PUSH2 0x3B71 JUMP JUMPDEST DUP2 PUSH1 0x0 ADD MLOAD DUP2 PUSH1 0x0 ADD SWAP1 PUSH20 0xFFFFFFFFFFFFFFFFFFFFFFFFFFFFFFFFFFFFFFFF AND SWAP1 DUP2 PUSH20 0xFFFFFFFFFFFFFFFFFFFFFFFFFFFFFFFFFFFFFFFF AND DUP2 MSTORE POP POP DUP2 PUSH1 0x20 ADD MLOAD DUP2 PUSH1 0x20 ADD SWAP1 PUSH20 0xFFFFFFFFFFFFFFFFFFFFFFFFFFFFFFFFFFFFFFFF AND SWAP1 DUP2 PUSH20 0xFFFFFFFFFFFFFFFFFFFFFFFFFFFFFFFFFFFFFFFF AND DUP2 MSTORE POP POP DUP2 PUSH1 0x40 ADD MLOAD DUP2 PUSH1 0x40 ADD SWAP1 PUSH20 0xFFFFFFFFFFFFFFFFFFFFFFFFFFFFFFFFFFFFFFFF AND SWAP1 DUP2 PUSH20 0xFFFFFFFFFFFFFFFFFFFFFFFFFFFFFFFFFFFFFFFF AND DUP2 MSTORE POP POP DUP2 PUSH1 0x60 ADD MLOAD DUP2 PUSH1 0x60 ADD SWAP1 PUSH20 0xFFFFFFFFFFFFFFFFFFFFFFFFFFFFFFFFFFFFFFFF AND SWAP1 DUP2 PUSH20 0xFFFFFFFFFFFFFFFFFFFFFFFFFFFFFFFFFFFFFFFF AND DUP2 MSTORE POP POP DUP2 PUSH1 0x80 ADD MLOAD DUP2 PUSH1 0x80 ADD DUP2 DUP2 MSTORE POP POP DUP3 PUSH2 0x1C0 ADD MLOAD DUP2 PUSH1 0xA0 ADD DUP2 SWAP1 MSTORE POP NUMBER DUP2 PUSH1 0xC0 ADD DUP2 DUP2 MSTORE POP POP DUP2 PUSH1 0xC0 ADD MLOAD DUP2 PUSH1 0xE0 ADD DUP2 SWAP1 MSTORE POP PUSH2 0x2D55 DUP3 PUSH1 0xE0 ADD MLOAD DUP5 PUSH2 0x1A0 ADD MLOAD PUSH1 0x40 ADD MLOAD PUSH2 0x3619 JUMP JUMPDEST DUP2 PUSH2 0x100 ADD DUP2 DUP2 MSTORE POP POP PUSH2 0x2D69 DUP2 DUP6 PUSH2 0x32F3 JUMP JUMPDEST POP PUSH2 0x31E8 JUMP JUMPDEST PUSH1 0x5 DUP1 DUP2 GT ISZERO PUSH2 0x2D82 JUMPI PUSH2 0x2D81 PUSH2 0x4501 JUMP JUMPDEST JUMPDEST DUP5 PUSH1 0x20 ADD MLOAD PUSH1 0x0 ADD MLOAD PUSH1 0x5 DUP2 GT ISZERO PUSH2 0x2D9D JUMPI PUSH2 0x2D9C PUSH2 0x4501 JUMP JUMPDEST JUMPDEST SUB PUSH2 0x31E7 JUMPI DUP4 PUSH1 0x20 ADD MLOAD PUSH1 0xC0 ADD MLOAD DUP3 PUSH2 0x1E0 ADD DUP2 SWAP1 MSTORE POP PUSH2 0x2DC7 DUP2 PUSH1 0xA0 ADD MLOAD PUSH1 0x80 ADD MLOAD PUSH1 0x31 PUSH2 0x31F2 JUMP JUMPDEST PUSH2 0x2DDD DUP3 PUSH2 0x1E0 ADD MLOAD PUSH1 0x0 ADD MLOAD CALLVALUE EQ PUSH1 0x32 PUSH2 0x31F2 JUMP JUMPDEST DUP1 PUSH1 0xA0 ADD MLOAD PUSH2 0x100 ADD MLOAD DUP3 PUSH2 0x200 ADD MLOAD PUSH1 0x0 ADD DUP2 DUP2 MSTORE POP POP CALLER DUP3 PUSH2 0x200 ADD MLOAD PUSH1 0x20 ADD SWAP1 PUSH20 0xFFFFFFFFFFFFFFFFFFFFFFFFFFFFFFFFFFFFFFFF AND SWAP1 DUP2 PUSH20 0xFFFFFFFFFFFFFFFFFFFFFFFFFFFFFFFFFFFFFFFF AND DUP2 MSTORE POP POP DUP2 PUSH2 0x1E0 ADD MLOAD PUSH1 0x0 ADD MLOAD DUP3 PUSH2 0x200 ADD MLOAD PUSH1 0x40 ADD DUP2 DUP2 MSTORE POP POP PUSH1 0x0 DUP3 PUSH2 0x200 ADD MLOAD PUSH1 0x60 ADD SWAP1 ISZERO ISZERO SWAP1 DUP2 ISZERO ISZERO DUP2 MSTORE POP POP PUSH1 0x1 PUSH1 0x5 PUSH1 0x0 DUP4 PUSH1 0xA0 ADD MLOAD PUSH2 0x100 ADD MLOAD DUP2 MSTORE PUSH1 0x20 ADD SWAP1 DUP2 MSTORE PUSH1 0x20 ADD PUSH1 0x0 KECCAK256 PUSH1 0x0 ADD PUSH1 0x0 PUSH2 0x100 EXP DUP2 SLOAD DUP2 PUSH1 0xFF MUL NOT AND SWAP1 DUP4 PUSH1 0x1 DUP2 GT ISZERO PUSH2 0x2EA3 JUMPI PUSH2 0x2EA2 PUSH2 0x4501 JUMP JUMPDEST JUMPDEST MUL OR SWAP1 SSTORE POP DUP2 PUSH2 0x200 ADD MLOAD PUSH1 0x5 PUSH1 0x0 DUP4 PUSH1 0xA0 ADD MLOAD PUSH2 0x100 ADD MLOAD DUP2 MSTORE PUSH1 0x20 ADD SWAP1 DUP2 MSTORE PUSH1 0x20 ADD PUSH1 0x0 KECCAK256 PUSH1 0x1 ADD PUSH1 0x0 DUP3 ADD MLOAD DUP2 PUSH1 0x0 ADD SSTORE PUSH1 0x20 DUP3 ADD MLOAD DUP2 PUSH1 0x1 ADD PUSH1 0x0 PUSH2 0x100 EXP DUP2 SLOAD DUP2 PUSH20 0xFFFFFFFFFFFFFFFFFFFFFFFFFFFFFFFFFFFFFFFF MUL NOT AND SWAP1 DUP4 PUSH20 0xFFFFFFFFFFFFFFFFFFFFFFFFFFFFFFFFFFFFFFFF AND MUL OR SWAP1 SSTORE POP PUSH1 0x40 DUP3 ADD MLOAD DUP2 PUSH1 0x2 ADD SSTORE PUSH1 0x60 DUP3 ADD MLOAD DUP2 PUSH1 0x3 ADD PUSH1 0x0 PUSH2 0x100 EXP DUP2 SLOAD DUP2 PUSH1 0xFF MUL NOT AND SWAP1 DUP4 ISZERO ISZERO MUL OR SWAP1 SSTORE POP SWAP1 POP POP PUSH32 0xAE70173AF9D21CB0441EDCB5AE6B1898DE5490A16608C2811381EEEC89808CED DUP3 PUSH2 0x200 ADD MLOAD PUSH1 0x40 MLOAD PUSH2 0x2F7F SWAP2 SWAP1 PUSH2 0x43F9 JUMP JUMPDEST PUSH1 0x40 MLOAD DUP1 SWAP2 SUB SWAP1 LOG1 DUP2 PUSH2 0x200 ADD MLOAD DUP4 PUSH2 0x120 ADD DUP2 SWAP1 MSTORE POP DUP1 PUSH1 0xA0 ADD MLOAD PUSH1 0x0 ADD MLOAD DUP3 PUSH2 0x220 ADD MLOAD PUSH1 0x0 ADD DUP2 SWAP1 MSTORE POP PUSH2 0x2FBF DUP2 PUSH1 0xA0 ADD MLOAD PUSH1 0x20 ADD MLOAD PUSH1 0x1 PUSH2 0x35C0 JUMP JUMPDEST DUP3 PUSH2 0x220 ADD MLOAD PUSH1 0x20 ADD DUP2 DUP2 MSTORE POP POP DUP1 PUSH2 0x100 ADD MLOAD DUP3 PUSH2 0x220 ADD MLOAD PUSH1 0x40 ADD DUP2 SWAP1 MSTORE POP DUP1 PUSH1 0xA0 ADD MLOAD PUSH1 0x60 ADD MLOAD DUP3 PUSH2 0x220 ADD MLOAD PUSH1 0x60 ADD SWAP1 ISZERO ISZERO SWAP1 DUP2 ISZERO ISZERO DUP2 MSTORE POP POP PUSH1 0x1 DUP3 PUSH2 0x220 ADD MLOAD PUSH1 0x80 ADD SWAP1 ISZERO ISZERO SWAP1 DUP2 ISZERO ISZERO DUP2 MSTORE POP POP DUP1 PUSH2 0x120 ADD MLOAD DUP3 PUSH2 0x220 ADD MLOAD PUSH1 0xA0 ADD DUP2 SWAP1 MSTORE POP DUP1 PUSH1 0xA0 ADD MLOAD PUSH1 0xC0 ADD MLOAD DUP3 PUSH2 0x220 ADD MLOAD PUSH1 0xC0 ADD SWAP1 ISZERO ISZERO SWAP1 DUP2 ISZERO ISZERO DUP2 MSTORE POP POP PUSH2 0x305E DUP2 PUSH1 0xA0 ADD MLOAD PUSH1 0xE0 ADD MLOAD DUP4 PUSH2 0x1E0 ADD MLOAD PUSH1 0x0 ADD MLOAD PUSH2 0x35C0 JUMP JUMPDEST DUP3 PUSH2 0x220 ADD MLOAD PUSH1 0xE0 ADD DUP2 DUP2 MSTORE POP POP PUSH2 0x3080 DUP2 PUSH1 0xA0 ADD MLOAD PUSH2 0x100 ADD MLOAD PUSH1 0x1 PUSH2 0x35C0 JUMP JUMPDEST DUP3 PUSH2 0x220 ADD MLOAD PUSH2 0x100 ADD DUP2 DUP2 MSTORE POP POP PUSH2 0x3097 PUSH2 0x3B71 JUMP JUMPDEST DUP2 PUSH1 0x0 ADD MLOAD DUP2 PUSH1 0x0 ADD SWAP1 PUSH20 0xFFFFFFFFFFFFFFFFFFFFFFFFFFFFFFFFFFFFFFFF AND SWAP1 DUP2 PUSH20 0xFFFFFFFFFFFFFFFFFFFFFFFFFFFFFFFFFFFFFFFF AND DUP2 MSTORE POP POP DUP2 PUSH1 0x20 ADD MLOAD DUP2 PUSH1 0x20 ADD SWAP1 PUSH20 0xFFFFFFFFFFFFFFFFFFFFFFFFFFFFFFFFFFFFFFFF AND SWAP1 DUP2 PUSH20 0xFFFFFFFFFFFFFFFFFFFFFFFFFFFFFFFFFFFFFFFF AND DUP2 MSTORE POP POP DUP2 PUSH1 0x40 ADD MLOAD DUP2 PUSH1 0x40 ADD SWAP1 PUSH20 0xFFFFFFFFFFFFFFFFFFFFFFFFFFFFFFFFFFFFFFFF AND SWAP1 DUP2 PUSH20 0xFFFFFFFFFFFFFFFFFFFFFFFFFFFFFFFFFFFFFFFF AND DUP2 MSTORE POP POP DUP2 PUSH1 0x60 ADD MLOAD DUP2 PUSH1 0x60 ADD SWAP1 PUSH20 0xFFFFFFFFFFFFFFFFFFFFFFFFFFFFFFFFFFFFFFFF AND SWAP1 DUP2 PUSH20 0xFFFFFFFFFFFFFFFFFFFFFFFFFFFFFFFFFFFFFFFF AND DUP2 MSTORE POP POP DUP2 PUSH1 0x80 ADD MLOAD DUP2 PUSH1 0x80 ADD DUP2 DUP2 MSTORE POP POP DUP3 PUSH2 0x220 ADD MLOAD DUP2 PUSH1 0xA0 ADD DUP2 SWAP1 MSTORE POP NUMBER DUP2 PUSH1 0xC0 ADD DUP2 DUP2 MSTORE POP POP DUP2 PUSH1 0xC0 ADD MLOAD DUP2 PUSH1 0xE0 ADD DUP2 SWAP1 MSTORE POP PUSH2 0x31D1 DUP3 PUSH1 0xE0 ADD MLOAD DUP5 PUSH2 0x1E0 ADD MLOAD PUSH1 0x0 ADD MLOAD PUSH2 0x3268 JUMP JUMPDEST DUP2 PUSH2 0x100 ADD DUP2 DUP2 MSTORE POP POP PUSH2 0x31E5 DUP2 DUP6 PUSH2 0x32F3 JUMP JUMPDEST POP JUMPDEST JUMPDEST JUMPDEST JUMPDEST JUMPDEST JUMPDEST POP POP POP POP JUMP JUMPDEST DUP2 PUSH2 0x3234 JUMPI DUP1 PUSH1 0x40 MLOAD PUSH32 0x100960CB00000000000000000000000000000000000000000000000000000000 DUP2 MSTORE PUSH1 0x4 ADD PUSH2 0x322B SWAP2 SWAP1 PUSH2 0x4259 JUMP JUMPDEST PUSH1 0x40 MLOAD DUP1 SWAP2 SUB SWAP1 REVERT JUMPDEST POP POP JUMP JUMPDEST PUSH2 0x3243 DUP4 DUP4 DUP4 PUSH2 0x367F JUMP JUMPDEST PUSH2 0x324C JUMPI PUSH1 0x0 DUP1 REVERT JUMPDEST POP POP POP JUMP JUMPDEST PUSH1 0x0 PUSH2 0x325F DUP4 DUP6 ADDRESS DUP6 PUSH2 0x3795 JUMP JUMPDEST SWAP1 POP SWAP4 SWAP3 POP POP POP JUMP JUMPDEST PUSH1 0x0 DUP2 DUP4 ADD SWAP1 POP SWAP3 SWAP2 POP POP JUMP JUMPDEST PUSH2 0x327D PUSH2 0x3D8A JUMP JUMPDEST PUSH1 0x0 JUMPDEST PUSH1 0x1 DUP2 LT ISZERO PUSH2 0x32CF JUMPI DUP5 DUP2 PUSH1 0x1 DUP2 LT PUSH2 0x329C JUMPI PUSH2 0x329B PUSH2 0x516D JUMP JUMPDEST JUMPDEST PUSH1 0x20 MUL ADD MLOAD DUP3 DUP3 PUSH1 0x1 DUP2 LT PUSH2 0x32B4 JUMPI PUSH2 0x32B3 PUSH2 0x516D JUMP JUMPDEST JUMPDEST PUSH1 0x20 MUL ADD DUP2 SWAP1 MSTORE POP DUP1 DUP1 PUSH2 0x32C7 SWAP1 PUSH2 0x550E JUMP JUMPDEST SWAP2 POP POP PUSH2 0x3280 JUMP JUMPDEST POP DUP2 DUP2 DUP5 PUSH1 0x1 DUP2 LT PUSH2 0x32E4 JUMPI PUSH2 0x32E3 PUSH2 0x516D JUMP JUMPDEST JUMPDEST PUSH1 0x20 MUL ADD DUP2 SWAP1 MSTORE POP SWAP4 SWAP3 POP POP POP JUMP JUMPDEST DUP2 PUSH1 0xA0 ADD MLOAD PUSH1 0x60 ADD MLOAD PUSH2 0x331F JUMPI PUSH1 0x0 DUP3 PUSH1 0xA0 ADD MLOAD PUSH1 0x20 ADD MLOAD EQ PUSH2 0x3317 JUMPI PUSH1 0x1 PUSH2 0x331A JUMP JUMPDEST PUSH1 0x0 JUMPDEST PUSH2 0x3322 JUMP JUMPDEST PUSH1 0x1 JUMPDEST ISZERO PUSH2 0x34BE JUMPI PUSH2 0x332F PUSH2 0x3DB7 JUMP JUMPDEST DUP3 PUSH1 0x0 ADD MLOAD DUP2 PUSH1 0x0 ADD SWAP1 PUSH20 0xFFFFFFFFFFFFFFFFFFFFFFFFFFFFFFFFFFFFFFFF AND SWAP1 DUP2 PUSH20 0xFFFFFFFFFFFFFFFFFFFFFFFFFFFFFFFFFFFFFFFF AND DUP2 MSTORE POP POP DUP3 PUSH1 0x20 ADD MLOAD DUP2 PUSH1 0x20 ADD SWAP1 PUSH20 0xFFFFFFFFFFFFFFFFFFFFFFFFFFFFFFFFFFFFFFFF AND SWAP1 DUP2 PUSH20 0xFFFFFFFFFFFFFFFFFFFFFFFFFFFFFFFFFFFFFFFF AND DUP2 MSTORE POP POP DUP3 PUSH1 0x40 ADD MLOAD DUP2 PUSH1 0x40 ADD SWAP1 PUSH20 0xFFFFFFFFFFFFFFFFFFFFFFFFFFFFFFFFFFFFFFFF AND SWAP1 DUP2 PUSH20 0xFFFFFFFFFFFFFFFFFFFFFFFFFFFFFFFFFFFFFFFF AND DUP2 MSTORE POP POP DUP3 PUSH1 0x60 ADD MLOAD DUP2 PUSH1 0x60 ADD SWAP1 PUSH20 0xFFFFFFFFFFFFFFFFFFFFFFFFFFFFFFFFFFFFFFFF AND SWAP1 DUP2 PUSH20 0xFFFFFFFFFFFFFFFFFFFFFFFFFFFFFFFFFFFFFFFF AND DUP2 MSTORE POP POP DUP3 PUSH1 0x80 ADD MLOAD DUP2 PUSH1 0x80 ADD DUP2 DUP2 MSTORE POP POP DUP3 PUSH1 0xA0 ADD MLOAD DUP2 PUSH1 0xA0 ADD DUP2 SWAP1 MSTORE POP DUP3 PUSH1 0xE0 ADD MLOAD DUP2 PUSH1 0xC0 ADD DUP2 SWAP1 MSTORE POP DUP3 PUSH2 0x100 ADD MLOAD DUP2 PUSH1 0xE0 ADD DUP2 DUP2 MSTORE POP POP DUP3 PUSH1 0xA0 ADD MLOAD PUSH1 0x40 ADD MLOAD DUP2 PUSH2 0x100 ADD DUP2 SWAP1 MSTORE POP DUP3 PUSH1 0xA0 ADD MLOAD PUSH1 0xA0 ADD MLOAD DUP2 PUSH2 0x120 ADD DUP2 SWAP1 MSTORE POP PUSH1 0x5 PUSH1 0x0 DUP2 SWAP1 SSTORE POP NUMBER PUSH1 0x1 DUP2 SWAP1 SSTORE POP DUP1 PUSH1 0x40 MLOAD PUSH1 0x20 ADD PUSH2 0x349A SWAP2 SWAP1 PUSH2 0x5889 JUMP JUMPDEST PUSH1 0x40 MLOAD PUSH1 0x20 DUP2 DUP4 SUB SUB DUP2 MSTORE SWAP1 PUSH1 0x40 MSTORE PUSH1 0x2 SWAP1 DUP2 PUSH2 0x34B7 SWAP2 SWAP1 PUSH2 0x5A51 JUMP JUMPDEST POP POP PUSH2 0x35BC JUMP JUMPDEST PUSH2 0x34C6 PUSH2 0x3E7A JUMP JUMPDEST DUP3 PUSH1 0x0 ADD MLOAD DUP2 PUSH1 0x0 ADD SWAP1 PUSH20 0xFFFFFFFFFFFFFFFFFFFFFFFFFFFFFFFFFFFFFFFF AND SWAP1 DUP2 PUSH20 0xFFFFFFFFFFFFFFFFFFFFFFFFFFFFFFFFFFFFFFFF AND DUP2 MSTORE POP POP DUP3 PUSH1 0x20 ADD MLOAD DUP2 PUSH1 0x20 ADD SWAP1 PUSH20 0xFFFFFFFFFFFFFFFFFFFFFFFFFFFFFFFFFFFFFFFF AND SWAP1 DUP2 PUSH20 0xFFFFFFFFFFFFFFFFFFFFFFFFFFFFFFFFFFFFFFFF AND DUP2 MSTORE POP POP DUP3 PUSH1 0xE0 ADD MLOAD DUP2 PUSH1 0x40 ADD DUP2 SWAP1 MSTORE POP DUP3 PUSH2 0x100 ADD MLOAD DUP2 PUSH1 0x60 ADD DUP2 DUP2 MSTORE POP POP DUP3 PUSH1 0xA0 ADD MLOAD PUSH1 0x40 ADD MLOAD DUP2 PUSH1 0x80 ADD DUP2 SWAP1 MSTORE POP DUP3 PUSH1 0xA0 ADD MLOAD PUSH1 0xA0 ADD MLOAD DUP2 PUSH1 0xA0 ADD DUP2 SWAP1 MSTORE POP PUSH1 0x3 PUSH1 0x0 DUP2 SWAP1 SSTORE POP NUMBER PUSH1 0x1 DUP2 SWAP1 SSTORE POP DUP1 PUSH1 0x40 MLOAD PUSH1 0x20 ADD PUSH2 0x359C SWAP2 SWAP1 PUSH2 0x5BA0 JUMP JUMPDEST PUSH1 0x40 MLOAD PUSH1 0x20 DUP2 DUP4 SUB SUB DUP2 MSTORE SWAP1 PUSH1 0x40 MSTORE PUSH1 0x2 SWAP1 DUP2 PUSH2 0x35B9 SWAP2 SWAP1 PUSH2 0x5A51 JUMP JUMPDEST POP POP JUMPDEST POP POP JUMP JUMPDEST PUSH1 0x0 DUP3 DUP3 DUP5 PUSH2 0x35CF SWAP2 SWAP1 PUSH2 0x5BBC JUMP JUMPDEST SWAP2 POP DUP2 LT ISZERO PUSH2 0x3613 JUMPI PUSH1 0x40 MLOAD PUSH32 0x8C379A000000000000000000000000000000000000000000000000000000000 DUP2 MSTORE PUSH1 0x4 ADD PUSH2 0x360A SWAP1 PUSH2 0x5C4D JUMP JUMPDEST PUSH1 0x40 MLOAD DUP1 SWAP2 SUB SWAP1 REVERT JUMPDEST SWAP3 SWAP2 POP POP JUMP JUMPDEST PUSH1 0x0 DUP2 DUP4 SUB SWAP1 POP SWAP3 SWAP2 POP POP JUMP JUMPDEST PUSH1 0x0 DUP3 DUP3 DUP5 PUSH2 0x3635 SWAP2 SWAP1 PUSH2 0x5C6D JUMP JUMPDEST SWAP2 POP DUP2 GT ISZERO PUSH2 0x3679 JUMPI PUSH1 0x40 MLOAD PUSH32 0x8C379A000000000000000000000000000000000000000000000000000000000 DUP2 MSTORE PUSH1 0x4 ADD PUSH2 0x3670 SWAP1 PUSH2 0x5CED JUMP JUMPDEST PUSH1 0x40 MLOAD DUP1 SWAP2 SUB SWAP1 REVERT JUMPDEST SWAP3 SWAP2 POP POP JUMP JUMPDEST PUSH1 0x0 DUP1 PUSH1 0x0 DUP6 PUSH20 0xFFFFFFFFFFFFFFFFFFFFFFFFFFFFFFFFFFFFFFFF AND PUSH1 0x0 PUSH4 0xA9059CBB PUSH1 0xE0 SHL DUP8 DUP8 PUSH1 0x40 MLOAD PUSH1 0x24 ADD PUSH2 0x36B8 SWAP3 SWAP2 SWAP1 PUSH2 0x5D0D JUMP JUMPDEST PUSH1 0x40 MLOAD PUSH1 0x20 DUP2 DUP4 SUB SUB DUP2 MSTORE SWAP1 PUSH1 0x40 MSTORE SWAP1 PUSH28 0xFFFFFFFFFFFFFFFFFFFFFFFFFFFFFFFFFFFFFFFFFFFFFFFFFFFFFFFF NOT AND PUSH1 0x20 DUP3 ADD DUP1 MLOAD PUSH28 0xFFFFFFFFFFFFFFFFFFFFFFFFFFFFFFFFFFFFFFFFFFFFFFFFFFFFFFFF DUP4 DUP2 DUP4 AND OR DUP4 MSTORE POP POP POP POP PUSH1 0x40 MLOAD PUSH2 0x3722 SWAP2 SWAP1 PUSH2 0x5D72 JUMP JUMPDEST PUSH1 0x0 PUSH1 0x40 MLOAD DUP1 DUP4 SUB DUP2 DUP6 DUP8 GAS CALL SWAP3 POP POP POP RETURNDATASIZE DUP1 PUSH1 0x0 DUP2 EQ PUSH2 0x375F JUMPI PUSH1 0x40 MLOAD SWAP2 POP PUSH1 0x1F NOT PUSH1 0x3F RETURNDATASIZE ADD AND DUP3 ADD PUSH1 0x40 MSTORE RETURNDATASIZE DUP3 MSTORE RETURNDATASIZE PUSH1 0x0 PUSH1 0x20 DUP5 ADD RETURNDATACOPY PUSH2 0x3764 JUMP JUMPDEST PUSH1 0x60 SWAP2 POP JUMPDEST POP SWAP2 POP SWAP2 POP PUSH2 0x3775 DUP3 DUP3 PUSH1 0x2 PUSH2 0x38AE JUMP JUMPDEST POP DUP1 DUP1 PUSH1 0x20 ADD SWAP1 MLOAD DUP2 ADD SWAP1 PUSH2 0x378A SWAP2 SWAP1 PUSH2 0x5D89 JUMP JUMPDEST SWAP3 POP POP POP SWAP4 SWAP3 POP POP POP JUMP JUMPDEST PUSH1 0x0 DUP1 PUSH1 0x0 DUP7 PUSH20 0xFFFFFFFFFFFFFFFFFFFFFFFFFFFFFFFFFFFFFFFF AND PUSH1 0x0 PUSH4 0x23B872DD PUSH1 0xE0 SHL DUP9 DUP9 DUP9 PUSH1 0x40 MLOAD PUSH1 0x24 ADD PUSH2 0x37D0 SWAP4 SWAP3 SWAP2 SWAP1 PUSH2 0x5DB6 JUMP JUMPDEST PUSH1 0x40 MLOAD PUSH1 0x20 DUP2 DUP4 SUB SUB DUP2 MSTORE SWAP1 PUSH1 0x40 MSTORE SWAP1 PUSH28 0xFFFFFFFFFFFFFFFFFFFFFFFFFFFFFFFFFFFFFFFFFFFFFFFFFFFFFFFF NOT AND PUSH1 0x20 DUP3 ADD DUP1 MLOAD PUSH28 0xFFFFFFFFFFFFFFFFFFFFFFFFFFFFFFFFFFFFFFFFFFFFFFFFFFFFFFFF DUP4 DUP2 DUP4 AND OR DUP4 MSTORE POP POP POP POP PUSH1 0x40 MLOAD PUSH2 0x383A SWAP2 SWAP1 PUSH2 0x5D72 JUMP JUMPDEST PUSH1 0x0 PUSH1 0x40 MLOAD DUP1 DUP4 SUB DUP2 DUP6 DUP8 GAS CALL SWAP3 POP POP POP RETURNDATASIZE DUP1 PUSH1 0x0 DUP2 EQ PUSH2 0x3877 JUMPI PUSH1 0x40 MLOAD SWAP2 POP PUSH1 0x1F NOT PUSH1 0x3F RETURNDATASIZE ADD AND DUP3 ADD PUSH1 0x40 MSTORE RETURNDATASIZE DUP3 MSTORE RETURNDATASIZE PUSH1 0x0 PUSH1 0x20 DUP5 ADD RETURNDATACOPY PUSH2 0x387C JUMP JUMPDEST PUSH1 0x60 SWAP2 POP JUMPDEST POP SWAP2 POP SWAP2 POP PUSH2 0x388D DUP3 DUP3 PUSH1 0x1 PUSH2 0x38AE JUMP JUMPDEST POP DUP1 DUP1 PUSH1 0x20 ADD SWAP1 MLOAD DUP2 ADD SWAP1 PUSH2 0x38A2 SWAP2 SWAP1 PUSH2 0x5D89 JUMP JUMPDEST SWAP3 POP POP POP SWAP5 SWAP4 POP POP POP POP JUMP JUMPDEST PUSH1 0x60 DUP4 ISZERO PUSH2 0x38BE JUMPI DUP3 SWAP1 POP PUSH2 0x390E JUMP JUMPDEST PUSH1 0x0 DUP4 MLOAD GT ISZERO PUSH2 0x38D1 JUMPI DUP3 MLOAD DUP1 DUP5 PUSH1 0x20 ADD REVERT JUMPDEST DUP2 PUSH1 0x40 MLOAD PUSH32 0x100960CB00000000000000000000000000000000000000000000000000000000 DUP2 MSTORE PUSH1 0x4 ADD PUSH2 0x3905 SWAP2 SWAP1 PUSH2 0x4259 JUMP JUMPDEST PUSH1 0x40 MLOAD DUP1 SWAP2 SUB SWAP1 REVERT JUMPDEST SWAP4 SWAP3 POP POP POP JUMP JUMPDEST PUSH1 0x40 MLOAD DUP1 PUSH1 0x60 ADD PUSH1 0x40 MSTORE DUP1 PUSH1 0x0 PUSH20 0xFFFFFFFFFFFFFFFFFFFFFFFFFFFFFFFFFFFFFFFF AND DUP2 MSTORE PUSH1 0x20 ADD PUSH1 0x0 DUP2 MSTORE PUSH1 0x20 ADD PUSH1 0x0 ISZERO ISZERO DUP2 MSTORE POP SWAP1 JUMP JUMPDEST PUSH1 0x40 MLOAD DUP1 PUSH2 0x140 ADD PUSH1 0x40 MSTORE DUP1 PUSH1 0x0 ISZERO ISZERO DUP2 MSTORE PUSH1 0x20 ADD PUSH1 0x0 ISZERO ISZERO DUP2 MSTORE PUSH1 0x20 ADD PUSH1 0x0 ISZERO ISZERO DUP2 MSTORE PUSH1 0x20 ADD PUSH1 0x0 ISZERO ISZERO DUP2 MSTORE PUSH1 0x20 ADD PUSH2 0x3986 PUSH2 0x3915 JUMP JUMPDEST DUP2 MSTORE PUSH1 0x20 ADD PUSH2 0x3993 PUSH2 0x39C5 JUMP JUMPDEST DUP2 MSTORE PUSH1 0x20 ADD PUSH2 0x39A0 PUSH2 0x3A42 JUMP JUMPDEST DUP2 MSTORE PUSH1 0x20 ADD PUSH1 0x0 ISZERO ISZERO DUP2 MSTORE PUSH1 0x20 ADD PUSH1 0x0 ISZERO ISZERO DUP2 MSTORE PUSH1 0x20 ADD PUSH2 0x39BF PUSH2 0x39E6 JUMP JUMPDEST DUP2 MSTORE POP SWAP1 JUMP JUMPDEST PUSH1 0x40 MLOAD DUP1 PUSH1 0x60 ADD PUSH1 0x40 MSTORE DUP1 PUSH1 0x0 DUP2 MSTORE PUSH1 0x20 ADD PUSH1 0x0 DUP2 MSTORE PUSH1 0x20 ADD PUSH1 0x0 DUP2 MSTORE POP SWAP1 JUMP JUMPDEST PUSH1 0x40 MLOAD DUP1 PUSH1 0x80 ADD PUSH1 0x40 MSTORE DUP1 PUSH1 0x0 DUP2 MSTORE PUSH1 0x20 ADD PUSH1 0x0 PUSH20 0xFFFFFFFFFFFFFFFFFFFFFFFFFFFFFFFFFFFFFFFF AND DUP2 MSTORE PUSH1 0x20 ADD PUSH1 0x0 DUP2 MSTORE PUSH1 0x20 ADD PUSH1 0x0 ISZERO ISZERO DUP2 MSTORE POP SWAP1 JUMP JUMPDEST PUSH1 0x40 MLOAD DUP1 PUSH1 0x40 ADD PUSH1 0x40 MSTORE DUP1 PUSH1 0x0 DUP2 MSTORE PUSH1 0x20 ADD PUSH1 0x0 ISZERO ISZERO DUP2 MSTORE POP SWAP1 JUMP JUMPDEST PUSH1 0x40 MLOAD DUP1 PUSH1 0x60 ADD PUSH1 0x40 MSTORE DUP1 PUSH1 0x0 PUSH1 0x1 DUP2 GT ISZERO PUSH2 0x3A61 JUMPI PUSH2 0x3A60 PUSH2 0x4501 JUMP JUMPDEST JUMPDEST DUP2 MSTORE PUSH1 0x20 ADD PUSH1 0x0 ISZERO ISZERO DUP2 MSTORE PUSH1 0x20 ADD PUSH2 0x3A77 PUSH2 0x39E6 JUMP JUMPDEST DUP2 MSTORE POP SWAP1 JUMP JUMPDEST PUSH1 0x40 MLOAD DUP1 PUSH1 0x40 ADD PUSH1 0x40 MSTORE DUP1 PUSH1 0x0 ISZERO ISZERO DUP2 MSTORE PUSH1 0x20 ADD PUSH2 0x3A99 PUSH2 0x3EEE JUMP JUMPDEST DUP2 MSTORE POP SWAP1 JUMP JUMPDEST PUSH1 0x40 MLOAD DUP1 PUSH1 0x40 ADD PUSH1 0x40 MSTORE DUP1 PUSH1 0x0 DUP2 MSTORE PUSH1 0x20 ADD PUSH2 0x3AB9 PUSH2 0x3EEE JUMP JUMPDEST DUP2 MSTORE POP SWAP1 JUMP JUMPDEST PUSH1 0x40 MLOAD DUP1 PUSH1 0x40 ADD PUSH1 0x40 MSTORE DUP1 PUSH2 0x3AD2 PUSH2 0x3F5D JUMP JUMPDEST DUP2 MSTORE PUSH1 0x20 ADD PUSH2 0x3ADF PUSH2 0x3EEE JUMP JUMPDEST DUP2 MSTORE POP SWAP1 JUMP JUMPDEST PUSH1 0x40 MLOAD DUP1 PUSH1 0x40 ADD PUSH1 0x40 MSTORE DUP1 PUSH2 0x3AF8 PUSH2 0x3F76 JUMP JUMPDEST DUP2 MSTORE PUSH1 0x20 ADD PUSH2 0x3B05 PUSH2 0x3EEE JUMP JUMPDEST DUP2 MSTORE POP SWAP1 JUMP JUMPDEST POP DUP1 SLOAD PUSH2 0x3B17 SWAP1 PUSH2 0x491E JUMP JUMPDEST PUSH1 0x0 DUP3 SSTORE DUP1 PUSH1 0x1F LT PUSH2 0x3B29 JUMPI POP PUSH2 0x3B48 JUMP JUMPDEST PUSH1 0x1F ADD PUSH1 0x20 SWAP1 DIV SWAP1 PUSH1 0x0 MSTORE PUSH1 0x20 PUSH1 0x0 KECCAK256 SWAP1 DUP2 ADD SWAP1 PUSH2 0x3B47 SWAP2 SWAP1 PUSH2 0x3F8F JUMP JUMPDEST JUMPDEST POP JUMP JUMPDEST PUSH1 0x40 MLOAD DUP1 PUSH1 0x40 ADD PUSH1 0x40 MSTORE DUP1 PUSH2 0x3B5E PUSH2 0x3FAC JUMP JUMPDEST DUP2 MSTORE PUSH1 0x20 ADD PUSH2 0x3B6B PUSH2 0x3FF7 JUMP JUMPDEST DUP2 MSTORE POP SWAP1 JUMP JUMPDEST PUSH1 0x40 MLOAD DUP1 PUSH2 0x120 ADD PUSH1 0x40 MSTORE DUP1 PUSH1 0x0 PUSH20 0xFFFFFFFFFFFFFFFFFFFFFFFFFFFFFFFFFFFFFFFF AND DUP2 MSTORE PUSH1 0x20 ADD PUSH1 0x0 PUSH20 0xFFFFFFFFFFFFFFFFFFFFFFFFFFFFFFFFFFFFFFFF AND DUP2 MSTORE PUSH1 0x20 ADD PUSH1 0x0 PUSH20 0xFFFFFFFFFFFFFFFFFFFFFFFFFFFFFFFFFFFFFFFF AND DUP2 MSTORE PUSH1 0x20 ADD PUSH1 0x0 PUSH20 0xFFFFFFFFFFFFFFFFFFFFFFFFFFFFFFFFFFFFFFFF AND DUP2 MSTORE PUSH1 0x20 ADD PUSH1 0x0 DUP2 MSTORE PUSH1 0x20 ADD PUSH2 0x3C00 PUSH2 0x3FF7 JUMP JUMPDEST DUP2 MSTORE PUSH1 0x20 ADD PUSH1 0x0 DUP2 MSTORE PUSH1 0x20 ADD PUSH2 0x3C14 PUSH2 0x3D8A JUMP JUMPDEST DUP2 MSTORE PUSH1 0x20 ADD PUSH1 0x0 DUP2 MSTORE POP SWAP1 JUMP JUMPDEST PUSH1 0x40 MLOAD DUP1 PUSH1 0x40 ADD PUSH1 0x40 MSTORE DUP1 PUSH2 0x3C34 PUSH2 0x3A26 JUMP JUMPDEST DUP2 MSTORE PUSH1 0x20 ADD PUSH2 0x3C41 PUSH2 0x3EEE JUMP JUMPDEST DUP2 MSTORE POP SWAP1 JUMP JUMPDEST PUSH1 0x40 MLOAD DUP1 PUSH1 0x40 ADD PUSH1 0x40 MSTORE DUP1 PUSH2 0x3C5A PUSH2 0x405B JUMP JUMPDEST DUP2 MSTORE PUSH1 0x20 ADD PUSH2 0x3C67 PUSH2 0x3EEE JUMP JUMPDEST DUP2 MSTORE POP SWAP1 JUMP JUMPDEST PUSH1 0x40 MLOAD DUP1 PUSH1 0x40 ADD PUSH1 0x40 MSTORE DUP1 PUSH2 0x3C80 PUSH2 0x405B JUMP JUMPDEST DUP2 MSTORE PUSH1 0x20 ADD PUSH2 0x3C8D PUSH2 0x3EEE JUMP JUMPDEST DUP2 MSTORE POP SWAP1 JUMP JUMPDEST PUSH1 0x40 MLOAD DUP1 PUSH2 0x240 ADD PUSH1 0x40 MSTORE DUP1 PUSH2 0x3CA7 PUSH2 0x3F5D JUMP JUMPDEST DUP2 MSTORE PUSH1 0x20 ADD PUSH2 0x3CB4 PUSH2 0x3A42 JUMP JUMPDEST DUP2 MSTORE PUSH1 0x20 ADD PUSH2 0x3CC1 PUSH2 0x39E6 JUMP JUMPDEST DUP2 MSTORE PUSH1 0x20 ADD PUSH2 0x3CCE PUSH2 0x3FAC JUMP JUMPDEST DUP2 MSTORE PUSH1 0x20 ADD PUSH2 0x3CDB PUSH2 0x3FF7 JUMP JUMPDEST DUP2 MSTORE PUSH1 0x20 ADD PUSH2 0x3CE8 PUSH2 0x3FF7 JUMP JUMPDEST DUP2 MSTORE PUSH1 0x20 ADD PUSH2 0x3CF5 PUSH2 0x3F76 JUMP JUMPDEST DUP2 MSTORE PUSH1 0x20 ADD PUSH2 0x3D02 PUSH2 0x3FF7 JUMP JUMPDEST DUP2 MSTORE PUSH1 0x20 ADD PUSH2 0x3D0F PUSH2 0x3FAC JUMP JUMPDEST DUP2 MSTORE PUSH1 0x20 ADD PUSH2 0x3D1C PUSH2 0x3FF7 JUMP JUMPDEST DUP2 MSTORE PUSH1 0x20 ADD PUSH2 0x3D29 PUSH2 0x405B JUMP JUMPDEST DUP2 MSTORE PUSH1 0x20 ADD PUSH2 0x3D36 PUSH2 0x3A42 JUMP JUMPDEST DUP2 MSTORE PUSH1 0x20 ADD PUSH2 0x3D43 PUSH2 0x39E6 JUMP JUMPDEST DUP2 MSTORE PUSH1 0x20 ADD PUSH2 0x3D50 PUSH2 0x39E6 JUMP JUMPDEST DUP2 MSTORE PUSH1 0x20 ADD PUSH2 0x3D5D PUSH2 0x3FF7 JUMP JUMPDEST DUP2 MSTORE PUSH1 0x20 ADD PUSH2 0x3D6A PUSH2 0x3A26 JUMP JUMPDEST DUP2 MSTORE PUSH1 0x20 ADD PUSH2 0x3D77 PUSH2 0x39E6 JUMP JUMPDEST DUP2 MSTORE PUSH1 0x20 ADD PUSH2 0x3D84 PUSH2 0x3FF7 JUMP JUMPDEST DUP2 MSTORE POP SWAP1 JUMP JUMPDEST PUSH1 0x40 MLOAD DUP1 PUSH1 0x20 ADD PUSH1 0x40 MSTORE DUP1 PUSH1 0x1 SWAP1 JUMPDEST PUSH2 0x3DA1 PUSH2 0x406E JUMP JUMPDEST DUP2 MSTORE PUSH1 0x20 ADD SWAP1 PUSH1 0x1 SWAP1 SUB SWAP1 DUP2 PUSH2 0x3D99 JUMPI SWAP1 POP POP SWAP1 JUMP JUMPDEST PUSH1 0x40 MLOAD DUP1 PUSH2 0x140 ADD PUSH1 0x40 MSTORE DUP1 PUSH1 0x0 PUSH20 0xFFFFFFFFFFFFFFFFFFFFFFFFFFFFFFFFFFFFFFFF AND DUP2 MSTORE PUSH1 0x20 ADD PUSH1 0x0 PUSH20 0xFFFFFFFFFFFFFFFFFFFFFFFFFFFFFFFFFFFFFFFF AND DUP2 MSTORE PUSH1 0x20 ADD PUSH1 0x0 PUSH20 0xFFFFFFFFFFFFFFFFFFFFFFFFFFFFFFFFFFFFFFFF AND DUP2 MSTORE PUSH1 0x20 ADD PUSH1 0x0 PUSH20 0xFFFFFFFFFFFFFFFFFFFFFFFFFFFFFFFFFFFFFFFF AND DUP2 MSTORE PUSH1 0x20 ADD PUSH1 0x0 DUP2 MSTORE PUSH1 0x20 ADD PUSH2 0x3E46 PUSH2 0x3FF7 JUMP JUMPDEST DUP2 MSTORE PUSH1 0x20 ADD PUSH2 0x3E53 PUSH2 0x3D8A JUMP JUMPDEST DUP2 MSTORE PUSH1 0x20 ADD PUSH1 0x0 DUP2 MSTORE PUSH1 0x20 ADD PUSH2 0x3E67 PUSH2 0x3915 JUMP JUMPDEST DUP2 MSTORE PUSH1 0x20 ADD PUSH2 0x3E74 PUSH2 0x39C5 JUMP JUMPDEST DUP2 MSTORE POP SWAP1 JUMP JUMPDEST PUSH1 0x40 MLOAD DUP1 PUSH1 0xC0 ADD PUSH1 0x40 MSTORE DUP1 PUSH1 0x0 PUSH20 0xFFFFFFFFFFFFFFFFFFFFFFFFFFFFFFFFFFFFFFFF AND DUP2 MSTORE PUSH1 0x20 ADD PUSH1 0x0 PUSH20 0xFFFFFFFFFFFFFFFFFFFFFFFFFFFFFFFFFFFFFFFF AND DUP2 MSTORE PUSH1 0x20 ADD PUSH2 0x3EC7 PUSH2 0x3D8A JUMP JUMPDEST DUP2 MSTORE PUSH1 0x20 ADD PUSH1 0x0 DUP2 MSTORE PUSH1 0x20 ADD PUSH2 0x3EDB PUSH2 0x3915 JUMP JUMPDEST DUP2 MSTORE PUSH1 0x20 ADD PUSH2 0x3EE8 PUSH2 0x39C5 JUMP JUMPDEST DUP2 MSTORE POP SWAP1 JUMP JUMPDEST PUSH1 0x40 MLOAD DUP1 PUSH1 0xE0 ADD PUSH1 0x40 MSTORE DUP1 PUSH1 0x0 PUSH1 0x5 DUP2 GT ISZERO PUSH2 0x3F0D JUMPI PUSH2 0x3F0C PUSH2 0x4501 JUMP JUMPDEST JUMPDEST DUP2 MSTORE PUSH1 0x20 ADD PUSH2 0x3F1A PUSH2 0x3F5D JUMP JUMPDEST DUP2 MSTORE PUSH1 0x20 ADD PUSH2 0x3F27 PUSH2 0x405B JUMP JUMPDEST DUP2 MSTORE PUSH1 0x20 ADD PUSH2 0x3F34 PUSH2 0x3F76 JUMP JUMPDEST DUP2 MSTORE PUSH1 0x20 ADD PUSH1 0x0 ISZERO ISZERO DUP2 MSTORE PUSH1 0x20 ADD PUSH2 0x3F4A PUSH2 0x405B JUMP JUMPDEST DUP2 MSTORE PUSH1 0x20 ADD PUSH2 0x3F57 PUSH2 0x3A26 JUMP JUMPDEST DUP2 MSTORE POP SWAP1 JUMP JUMPDEST PUSH1 0x40 MLOAD DUP1 PUSH1 0x20 ADD PUSH1 0x40 MSTORE DUP1 PUSH2 0x3F70 PUSH2 0x39E6 JUMP JUMPDEST DUP2 MSTORE POP SWAP1 JUMP JUMPDEST PUSH1 0x40 MLOAD DUP1 PUSH1 0x20 ADD PUSH1 0x40 MSTORE DUP1 PUSH2 0x3F89 PUSH2 0x39C5 JUMP JUMPDEST DUP2 MSTORE POP SWAP1 JUMP JUMPDEST JUMPDEST DUP1 DUP3 GT ISZERO PUSH2 0x3FA8 JUMPI PUSH1 0x0 DUP2 PUSH1 0x0 SWAP1 SSTORE POP PUSH1 0x1 ADD PUSH2 0x3F90 JUMP JUMPDEST POP SWAP1 JUMP JUMPDEST PUSH1 0x40 MLOAD DUP1 PUSH1 0x60 ADD PUSH1 0x40 MSTORE DUP1 PUSH1 0x0 PUSH1 0x1 DUP2 GT ISZERO PUSH2 0x3FCB JUMPI PUSH2 0x3FCA PUSH2 0x4501 JUMP JUMPDEST JUMPDEST DUP2 MSTORE PUSH1 0x20 ADD PUSH1 0x0 ISZERO ISZERO DUP2 MSTORE PUSH1 0x20 ADD PUSH1 0x0 PUSH20 0xFFFFFFFFFFFFFFFFFFFFFFFFFFFFFFFFFFFFFFFF AND DUP2 MSTORE POP SWAP1 JUMP JUMPDEST PUSH1 0x40 MLOAD DUP1 PUSH2 0x120 ADD PUSH1 0x40 MSTORE DUP1 PUSH2 0x400B PUSH2 0x3FAC JUMP JUMPDEST DUP2 MSTORE PUSH1 0x20 ADD PUSH1 0x0 DUP2 MSTORE PUSH1 0x20 ADD PUSH2 0x401F PUSH2 0x3915 JUMP JUMPDEST DUP2 MSTORE PUSH1 0x20 ADD PUSH1 0x0 ISZERO ISZERO DUP2 MSTORE PUSH1 0x20 ADD PUSH1 0x0 ISZERO ISZERO DUP2 MSTORE PUSH1 0x20 ADD PUSH2 0x403E PUSH2 0x39C5 JUMP JUMPDEST DUP2 MSTORE PUSH1 0x20 ADD PUSH1 0x0 ISZERO ISZERO DUP2 MSTORE PUSH1 0x20 ADD PUSH1 0x0 DUP2 MSTORE PUSH1 0x20 ADD PUSH1 0x0 DUP2 MSTORE POP SWAP1 JUMP JUMPDEST PUSH1 0x40 MLOAD DUP1 PUSH1 0x20 ADD PUSH1 0x40 MSTORE DUP1 PUSH1 0x0 DUP2 MSTORE POP SWAP1 JUMP JUMPDEST PUSH1 0x40 MLOAD DUP1 PUSH1 0x60 ADD PUSH1 0x40 MSTORE DUP1 PUSH1 0x0 DUP2 MSTORE PUSH1 0x20 ADD PUSH1 0x0 DUP2 MSTORE PUSH1 0x20 ADD PUSH1 0x0 ISZERO ISZERO DUP2 MSTORE POP SWAP1 JUMP JUMPDEST PUSH1 0x0 PUSH20 0xFFFFFFFFFFFFFFFFFFFFFFFFFFFFFFFFFFFFFFFF DUP3 AND SWAP1 POP SWAP2 SWAP1 POP JUMP JUMPDEST PUSH1 0x0 PUSH2 0x40BC DUP3 PUSH2 0x4091 JUMP JUMPDEST SWAP1 POP SWAP2 SWAP1 POP JUMP JUMPDEST PUSH2 0x40CC DUP2 PUSH2 0x40B1 JUMP JUMPDEST DUP3 MSTORE POP POP JUMP JUMPDEST PUSH1 0x0 DUP2 SWAP1 POP SWAP2 SWAP1 POP JUMP JUMPDEST PUSH2 0x40E5 DUP2 PUSH2 0x40D2 JUMP JUMPDEST DUP3 MSTORE POP POP JUMP JUMPDEST PUSH1 0x0 DUP2 ISZERO ISZERO SWAP1 POP SWAP2 SWAP1 POP JUMP JUMPDEST PUSH2 0x4100 DUP2 PUSH2 0x40EB JUMP JUMPDEST DUP3 MSTORE POP POP JUMP JUMPDEST PUSH1 0x60 DUP3 ADD PUSH1 0x0 DUP3 ADD MLOAD PUSH2 0x411C PUSH1 0x0 DUP6 ADD DUP3 PUSH2 0x40C3 JUMP JUMPDEST POP PUSH1 0x20 DUP3 ADD MLOAD PUSH2 0x412F PUSH1 0x20 DUP6 ADD DUP3 PUSH2 0x40DC JUMP JUMPDEST POP PUSH1 0x40 DUP3 ADD MLOAD PUSH2 0x4142 PUSH1 0x40 DUP6 ADD DUP3 PUSH2 0x40F7 JUMP JUMPDEST POP POP POP POP JUMP JUMPDEST PUSH1 0x0 PUSH1 0x60 DUP3 ADD SWAP1 POP PUSH2 0x415D PUSH1 0x0 DUP4 ADD DUP5 PUSH2 0x4106 JUMP JUMPDEST SWAP3 SWAP2 POP POP JUMP JUMPDEST PUSH1 0x60 DUP3 ADD PUSH1 0x0 DUP3 ADD MLOAD PUSH2 0x4179 PUSH1 0x0 DUP6 ADD DUP3 PUSH2 0x40DC JUMP JUMPDEST POP PUSH1 0x20 DUP3 ADD MLOAD PUSH2 0x418C PUSH1 0x20 DUP6 ADD DUP3 PUSH2 0x40DC JUMP JUMPDEST POP PUSH1 0x40 DUP3 ADD MLOAD PUSH2 0x419F PUSH1 0x40 DUP6 ADD DUP3 PUSH2 0x40DC JUMP JUMPDEST POP POP POP POP JUMP JUMPDEST PUSH1 0x0 PUSH1 0x60 DUP3 ADD SWAP1 POP PUSH2 0x41BA PUSH1 0x0 DUP4 ADD DUP5 PUSH2 0x4163 JUMP JUMPDEST SWAP3 SWAP2 POP POP JUMP JUMPDEST PUSH2 0x41C9 DUP2 PUSH2 0x40EB JUMP JUMPDEST DUP3 MSTORE POP POP JUMP JUMPDEST PUSH1 0x0 PUSH1 0x20 DUP3 ADD SWAP1 POP PUSH2 0x41E4 PUSH1 0x0 DUP4 ADD DUP5 PUSH2 0x41C0 JUMP JUMPDEST SWAP3 SWAP2 POP POP JUMP JUMPDEST PUSH1 0x0 PUSH1 0x40 MLOAD SWAP1 POP SWAP1 JUMP JUMPDEST PUSH1 0x0 DUP1 REVERT JUMPDEST PUSH1 0x0 DUP1 REVERT JUMPDEST PUSH1 0x0 PUSH1 0x80 DUP3 DUP5 SUB SLT ISZERO PUSH2 0x4214 JUMPI PUSH2 0x4213 PUSH2 0x41F9 JUMP JUMPDEST JUMPDEST DUP2 SWAP1 POP SWAP3 SWAP2 POP POP JUMP JUMPDEST PUSH1 0x0 PUSH1 0x80 DUP3 DUP5 SUB SLT ISZERO PUSH2 0x4233 JUMPI PUSH2 0x4232 PUSH2 0x41F4 JUMP JUMPDEST JUMPDEST PUSH1 0x0 PUSH2 0x4241 DUP5 DUP3 DUP6 ADD PUSH2 0x41FE JUMP JUMPDEST SWAP2 POP POP SWAP3 SWAP2 POP POP JUMP JUMPDEST PUSH2 0x4253 DUP2 PUSH2 0x40D2 JUMP JUMPDEST DUP3 MSTORE POP POP JUMP JUMPDEST PUSH1 0x0 PUSH1 0x20 DUP3 ADD SWAP1 POP PUSH2 0x426E PUSH1 0x0 DUP4 ADD DUP5 PUSH2 0x424A JUMP JUMPDEST SWAP3 SWAP2 POP POP JUMP JUMPDEST PUSH1 0x0 PUSH1 0x60 DUP3 DUP5 SUB SLT ISZERO PUSH2 0x428A JUMPI PUSH2 0x4289 PUSH2 0x41F9 JUMP JUMPDEST JUMPDEST DUP2 SWAP1 POP SWAP3 SWAP2 POP POP JUMP JUMPDEST PUSH1 0x0 PUSH1 0x60 DUP3 DUP5 SUB SLT ISZERO PUSH2 0x42A9 JUMPI PUSH2 0x42A8 PUSH2 0x41F4 JUMP JUMPDEST JUMPDEST PUSH1 0x0 PUSH2 0x42B7 DUP5 DUP3 DUP6 ADD PUSH2 0x4274 JUMP JUMPDEST SWAP2 POP POP SWAP3 SWAP2 POP POP JUMP JUMPDEST PUSH1 0x0 PUSH1 0x20 DUP3 DUP5 SUB SLT ISZERO PUSH2 0x42D6 JUMPI PUSH2 0x42D5 PUSH2 0x41F9 JUMP JUMPDEST JUMPDEST DUP2 SWAP1 POP SWAP3 SWAP2 POP POP JUMP JUMPDEST PUSH1 0x0 PUSH1 0x20 DUP3 DUP5 SUB SLT ISZERO PUSH2 0x42F5 JUMPI PUSH2 0x42F4 PUSH2 0x41F4 JUMP JUMPDEST JUMPDEST PUSH1 0x0 PUSH2 0x4303 DUP5 DUP3 DUP6 ADD PUSH2 0x42C0 JUMP JUMPDEST SWAP2 POP POP SWAP3 SWAP2 POP POP JUMP JUMPDEST PUSH2 0x4315 DUP2 PUSH2 0x40D2 JUMP JUMPDEST DUP2 EQ PUSH2 0x4320 JUMPI PUSH1 0x0 DUP1 REVERT JUMPDEST POP JUMP JUMPDEST PUSH1 0x0 DUP2 CALLDATALOAD SWAP1 POP PUSH2 0x4332 DUP2 PUSH2 0x430C JUMP JUMPDEST SWAP3 SWAP2 POP POP JUMP JUMPDEST PUSH2 0x4341 DUP2 PUSH2 0x40EB JUMP JUMPDEST DUP2 EQ PUSH2 0x434C JUMPI PUSH1 0x0 DUP1 REVERT JUMPDEST POP JUMP JUMPDEST PUSH1 0x0 DUP2 CALLDATALOAD SWAP1 POP PUSH2 0x435E DUP2 PUSH2 0x4338 JUMP JUMPDEST SWAP3 SWAP2 POP POP JUMP JUMPDEST PUSH1 0x0 DUP1 PUSH1 0x40 DUP4 DUP6 SUB SLT ISZERO PUSH2 0x437B JUMPI PUSH2 0x437A PUSH2 0x41F4 JUMP JUMPDEST JUMPDEST PUSH1 0x0 PUSH2 0x4389 DUP6 DUP3 DUP7 ADD PUSH2 0x4323 JUMP JUMPDEST SWAP3 POP POP PUSH1 0x20 PUSH2 0x439A DUP6 DUP3 DUP7 ADD PUSH2 0x434F JUMP JUMPDEST SWAP2 POP POP SWAP3 POP SWAP3 SWAP1 POP JUMP JUMPDEST PUSH1 0x80 DUP3 ADD PUSH1 0x0 DUP3 ADD MLOAD PUSH2 0x43BA PUSH1 0x0 DUP6 ADD DUP3 PUSH2 0x40DC JUMP JUMPDEST POP PUSH1 0x20 DUP3 ADD MLOAD PUSH2 0x43CD PUSH1 0x20 DUP6 ADD DUP3 PUSH2 0x40C3 JUMP JUMPDEST POP PUSH1 0x40 DUP3 ADD MLOAD PUSH2 0x43E0 PUSH1 0x40 DUP6 ADD DUP3 PUSH2 0x40DC JUMP JUMPDEST POP PUSH1 0x60 DUP3 ADD MLOAD PUSH2 0x43F3 PUSH1 0x60 DUP6 ADD DUP3 PUSH2 0x40F7 JUMP JUMPDEST POP POP POP POP JUMP JUMPDEST PUSH1 0x0 PUSH1 0x80 DUP3 ADD SWAP1 POP PUSH2 0x440E PUSH1 0x0 DUP4 ADD DUP5 PUSH2 0x43A4 JUMP JUMPDEST SWAP3 SWAP2 POP POP JUMP JUMPDEST PUSH1 0x0 PUSH1 0x20 DUP3 DUP5 SUB SLT ISZERO PUSH2 0x442A JUMPI PUSH2 0x4429 PUSH2 0x41F4 JUMP JUMPDEST JUMPDEST PUSH1 0x0 PUSH2 0x4438 DUP5 DUP3 DUP6 ADD PUSH2 0x4323 JUMP JUMPDEST SWAP2 POP POP SWAP3 SWAP2 POP POP JUMP JUMPDEST PUSH1 0x0 DUP2 MLOAD SWAP1 POP SWAP2 SWAP1 POP JUMP JUMPDEST PUSH1 0x0 DUP3 DUP3 MSTORE PUSH1 0x20 DUP3 ADD SWAP1 POP SWAP3 SWAP2 POP POP JUMP JUMPDEST PUSH1 0x0 JUMPDEST DUP4 DUP2 LT ISZERO PUSH2 0x447B JUMPI DUP1 DUP3 ADD MLOAD DUP2 DUP5 ADD MSTORE PUSH1 0x20 DUP2 ADD SWAP1 POP PUSH2 0x4460 JUMP JUMPDEST PUSH1 0x0 DUP5 DUP5 ADD MSTORE POP POP POP POP JUMP JUMPDEST PUSH1 0x0 PUSH1 0x1F NOT PUSH1 0x1F DUP4 ADD AND SWAP1 POP SWAP2 SWAP1 POP JUMP JUMPDEST PUSH1 0x0 PUSH2 0x44A3 DUP3 PUSH2 0x4441 JUMP JUMPDEST PUSH2 0x44AD DUP2 DUP6 PUSH2 0x444C JUMP JUMPDEST SWAP4 POP PUSH2 0x44BD DUP2 DUP6 PUSH1 0x20 DUP7 ADD PUSH2 0x445D JUMP JUMPDEST PUSH2 0x44C6 DUP2 PUSH2 0x4487 JUMP JUMPDEST DUP5 ADD SWAP2 POP POP SWAP3 SWAP2 POP POP JUMP JUMPDEST PUSH1 0x0 PUSH1 0x40 DUP3 ADD SWAP1 POP PUSH2 0x44E6 PUSH1 0x0 DUP4 ADD DUP6 PUSH2 0x424A JUMP JUMPDEST DUP2 DUP2 SUB PUSH1 0x20 DUP4 ADD MSTORE PUSH2 0x44F8 DUP2 DUP5 PUSH2 0x4498 JUMP JUMPDEST SWAP1 POP SWAP4 SWAP3 POP POP POP JUMP JUMPDEST PUSH32 0x4E487B7100000000000000000000000000000000000000000000000000000000 PUSH1 0x0 MSTORE PUSH1 0x21 PUSH1 0x4 MSTORE PUSH1 0x24 PUSH1 0x0 REVERT JUMPDEST PUSH1 0x2 DUP2 LT PUSH2 0x4541 JUMPI PUSH2 0x4540 PUSH2 0x4501 JUMP JUMPDEST JUMPDEST POP JUMP JUMPDEST PUSH1 0x0 DUP2 SWAP1 POP PUSH2 0x4552 DUP3 PUSH2 0x4530 JUMP JUMPDEST SWAP2 SWAP1 POP JUMP JUMPDEST PUSH1 0x0 PUSH2 0x4562 DUP3 PUSH2 0x4544 JUMP JUMPDEST SWAP1 POP SWAP2 SWAP1 POP JUMP JUMPDEST PUSH2 0x4572 DUP2 PUSH2 0x4557 JUMP JUMPDEST DUP3 MSTORE POP POP JUMP JUMPDEST PUSH1 0x80 DUP3 ADD PUSH1 0x0 DUP3 ADD MLOAD PUSH2 0x458E PUSH1 0x0 DUP6 ADD DUP3 PUSH2 0x40DC JUMP JUMPDEST POP PUSH1 0x20 DUP3 ADD MLOAD PUSH2 0x45A1 PUSH1 0x20 DUP6 ADD DUP3 PUSH2 0x40C3 JUMP JUMPDEST POP PUSH1 0x40 DUP3 ADD MLOAD PUSH2 0x45B4 PUSH1 0x40 DUP6 ADD DUP3 PUSH2 0x40DC JUMP JUMPDEST POP PUSH1 0x60 DUP3 ADD MLOAD PUSH2 0x45C7 PUSH1 0x60 DUP6 ADD DUP3 PUSH2 0x40F7 JUMP JUMPDEST POP POP POP POP JUMP JUMPDEST PUSH1 0xC0 DUP3 ADD PUSH1 0x0 DUP3 ADD MLOAD PUSH2 0x45E3 PUSH1 0x0 DUP6 ADD DUP3 PUSH2 0x4569 JUMP JUMPDEST POP PUSH1 0x20 DUP3 ADD MLOAD PUSH2 0x45F6 PUSH1 0x20 DUP6 ADD DUP3 PUSH2 0x40F7 JUMP JUMPDEST POP PUSH1 0x40 DUP3 ADD MLOAD PUSH2 0x4609 PUSH1 0x40 DUP6 ADD DUP3 PUSH2 0x4578 JUMP JUMPDEST POP POP POP POP JUMP JUMPDEST PUSH1 0x0 PUSH1 0xC0 DUP3 ADD SWAP1 POP PUSH2 0x4624 PUSH1 0x0 DUP4 ADD DUP5 PUSH2 0x45CD JUMP JUMPDEST SWAP3 SWAP2 POP POP JUMP JUMPDEST PUSH1 0x0 PUSH2 0x1C0 DUP3 DUP5 SUB SLT ISZERO PUSH2 0x4641 JUMPI PUSH2 0x4640 PUSH2 0x41F9 JUMP JUMPDEST JUMPDEST DUP2 SWAP1 POP SWAP3 SWAP2 POP POP JUMP JUMPDEST PUSH1 0x0 PUSH2 0x1C0 DUP3 DUP5 SUB SLT ISZERO PUSH2 0x4661 JUMPI PUSH2 0x4660 PUSH2 0x41F4 JUMP JUMPDEST JUMPDEST PUSH1 0x0 PUSH2 0x466F DUP5 DUP3 DUP6 ADD PUSH2 0x462A JUMP JUMPDEST SWAP2 POP POP SWAP3 SWAP2 POP POP JUMP JUMPDEST PUSH1 0x0 DUP1 REVERT JUMPDEST PUSH32 0x4E487B7100000000000000000000000000000000000000000000000000000000 PUSH1 0x0 MSTORE PUSH1 0x41 PUSH1 0x4 MSTORE PUSH1 0x24 PUSH1 0x0 REVERT JUMPDEST PUSH2 0x46B5 DUP3 PUSH2 0x4487 JUMP JUMPDEST DUP2 ADD DUP2 DUP2 LT PUSH8 0xFFFFFFFFFFFFFFFF DUP3 GT OR ISZERO PUSH2 0x46D4 JUMPI PUSH2 0x46D3 PUSH2 0x467D JUMP JUMPDEST JUMPDEST DUP1 PUSH1 0x40 MSTORE POP POP POP JUMP JUMPDEST PUSH1 0x0 PUSH2 0x46E7 PUSH2 0x41EA JUMP JUMPDEST SWAP1 POP PUSH2 0x46F3 DUP3 DUP3 PUSH2 0x46AC JUMP JUMPDEST SWAP2 SWAP1 POP JUMP JUMPDEST PUSH1 0x0 PUSH21 0xFFFFFFFFFFFFFFFFFFFFFFFFFFFFFFFFFFFFFFFFFF DUP3 AND SWAP1 POP SWAP2 SWAP1 POP JUMP JUMPDEST PUSH2 0x4722 DUP2 PUSH2 0x46F8 JUMP JUMPDEST DUP2 EQ PUSH2 0x472D JUMPI PUSH1 0x0 DUP1 REVERT JUMPDEST POP JUMP JUMPDEST PUSH1 0x0 DUP2 CALLDATALOAD SWAP1 POP PUSH2 0x473F DUP2 PUSH2 0x4719 JUMP JUMPDEST PUSH2 0x4748 DUP2 PUSH2 0x40B1 JUMP JUMPDEST SWAP1 POP SWAP3 SWAP2 POP POP JUMP JUMPDEST PUSH1 0x0 PUSH1 0x80 DUP3 DUP5 SUB SLT ISZERO PUSH2 0x4766 JUMPI PUSH2 0x4765 PUSH2 0x4678 JUMP JUMPDEST JUMPDEST PUSH2 0x4770 PUSH1 0x80 PUSH2 0x46DD JUMP JUMPDEST SWAP1 POP PUSH1 0x0 PUSH2 0x4780 DUP5 DUP3 DUP6 ADD PUSH2 0x4323 JUMP JUMPDEST PUSH1 0x0 DUP4 ADD MSTORE POP PUSH1 0x20 PUSH2 0x4794 DUP5 DUP3 DUP6 ADD PUSH2 0x4730 JUMP JUMPDEST PUSH1 0x20 DUP4 ADD MSTORE POP PUSH1 0x40 PUSH2 0x47A8 DUP5 DUP3 DUP6 ADD PUSH2 0x4323 JUMP JUMPDEST PUSH1 0x40 DUP4 ADD MSTORE POP PUSH1 0x60 PUSH2 0x47BC DUP5 DUP3 DUP6 ADD PUSH2 0x434F JUMP JUMPDEST PUSH1 0x60 DUP4 ADD MSTORE POP SWAP3 SWAP2 POP POP JUMP JUMPDEST PUSH1 0x0 PUSH1 0x80 DUP3 DUP5 SUB SLT ISZERO PUSH2 0x47DE JUMPI PUSH2 0x47DD PUSH2 0x41F4 JUMP JUMPDEST JUMPDEST PUSH1 0x0 PUSH2 0x47EC DUP5 DUP3 DUP6 ADD PUSH2 0x4750 JUMP JUMPDEST SWAP2 POP POP SWAP3 SWAP2 POP POP JUMP JUMPDEST PUSH1 0x0 PUSH1 0x60 DUP3 DUP5 SUB SLT ISZERO PUSH2 0x480B JUMPI PUSH2 0x480A PUSH2 0x4678 JUMP JUMPDEST JUMPDEST PUSH2 0x4815 PUSH1 0x60 PUSH2 0x46DD JUMP JUMPDEST SWAP1 POP PUSH1 0x0 PUSH2 0x4825 DUP5 DUP3 DUP6 ADD PUSH2 0x4323 JUMP JUMPDEST PUSH1 0x0 DUP4 ADD MSTORE POP PUSH1 0x20 PUSH2 0x4839 DUP5 DUP3 DUP6 ADD PUSH2 0x4323 JUMP JUMPDEST PUSH1 0x20 DUP4 ADD MSTORE POP PUSH1 0x40 PUSH2 0x484D DUP5 DUP3 DUP6 ADD PUSH2 0x4323 JUMP JUMPDEST PUSH1 0x40 DUP4 ADD MSTORE POP SWAP3 SWAP2 POP POP JUMP JUMPDEST PUSH1 0x0 PUSH1 0x60 DUP3 DUP5 SUB SLT ISZERO PUSH2 0x486F JUMPI PUSH2 0x486E PUSH2 0x41F4 JUMP JUMPDEST JUMPDEST PUSH1 0x0 PUSH2 0x487D DUP5 DUP3 DUP6 ADD PUSH2 0x47F5 JUMP JUMPDEST SWAP2 POP POP SWAP3 SWAP2 POP POP JUMP JUMPDEST PUSH1 0x0 PUSH1 0x20 DUP3 DUP5 SUB SLT ISZERO PUSH2 0x489C JUMPI PUSH2 0x489B PUSH2 0x4678 JUMP JUMPDEST JUMPDEST PUSH2 0x48A6 PUSH1 0x20 PUSH2 0x46DD JUMP JUMPDEST SWAP1 POP PUSH1 0x0 PUSH2 0x48B6 DUP5 DUP3 DUP6 ADD PUSH2 0x4323 JUMP JUMPDEST PUSH1 0x0 DUP4 ADD MSTORE POP SWAP3 SWAP2 POP POP JUMP JUMPDEST PUSH1 0x0 PUSH1 0x20 DUP3 DUP5 SUB SLT ISZERO PUSH2 0x48D8 JUMPI PUSH2 0x48D7 PUSH2 0x41F4 JUMP JUMPDEST JUMPDEST PUSH1 0x0 PUSH2 0x48E6 DUP5 DUP3 DUP6 ADD PUSH2 0x4886 JUMP JUMPDEST SWAP2 POP POP SWAP3 SWAP2 POP POP JUMP JUMPDEST PUSH32 0x4E487B7100000000000000000000000000000000000000000000000000000000 PUSH1 0x0 MSTORE PUSH1 0x22 PUSH1 0x4 MSTORE PUSH1 0x24 PUSH1 0x0 REVERT JUMPDEST PUSH1 0x0 PUSH1 0x2 DUP3 DIV SWAP1 POP PUSH1 0x1 DUP3 AND DUP1 PUSH2 0x4936 JUMPI PUSH1 0x7F DUP3 AND SWAP2 POP JUMPDEST PUSH1 0x20 DUP3 LT DUP2 SUB PUSH2 0x4949 JUMPI PUSH2 0x4948 PUSH2 0x48EF JUMP JUMPDEST JUMPDEST POP SWAP2 SWAP1 POP JUMP JUMPDEST PUSH1 0x6 DUP2 LT PUSH2 0x495C JUMPI PUSH1 0x0 DUP1 REVERT JUMPDEST POP JUMP JUMPDEST PUSH1 0x0 DUP2 CALLDATALOAD SWAP1 POP PUSH2 0x496E DUP2 PUSH2 0x494F JUMP JUMPDEST SWAP3 SWAP2 POP POP JUMP JUMPDEST PUSH1 0x0 PUSH1 0x80 DUP3 DUP5 SUB SLT ISZERO PUSH2 0x498A JUMPI PUSH2 0x4989 PUSH2 0x4678 JUMP JUMPDEST JUMPDEST PUSH2 0x4994 PUSH1 0x20 PUSH2 0x46DD JUMP JUMPDEST SWAP1 POP PUSH1 0x0 PUSH2 0x49A4 DUP5 DUP3 DUP6 ADD PUSH2 0x4750 JUMP JUMPDEST PUSH1 0x0 DUP4 ADD MSTORE POP SWAP3 SWAP2 POP POP JUMP JUMPDEST PUSH1 0x0 PUSH1 0x60 DUP3 DUP5 SUB SLT ISZERO PUSH2 0x49C6 JUMPI PUSH2 0x49C5 PUSH2 0x4678 JUMP JUMPDEST JUMPDEST PUSH2 0x49D0 PUSH1 0x20 PUSH2 0x46DD JUMP JUMPDEST SWAP1 POP PUSH1 0x0 PUSH2 0x49E0 DUP5 DUP3 DUP6 ADD PUSH2 0x47F5 JUMP JUMPDEST PUSH1 0x0 DUP4 ADD MSTORE POP SWAP3 SWAP2 POP POP JUMP JUMPDEST PUSH1 0x0 PUSH1 0x40 DUP3 DUP5 SUB SLT ISZERO PUSH2 0x4A02 JUMPI PUSH2 0x4A01 PUSH2 0x4678 JUMP JUMPDEST JUMPDEST PUSH2 0x4A0C PUSH1 0x40 PUSH2 0x46DD JUMP JUMPDEST SWAP1 POP PUSH1 0x0 PUSH2 0x4A1C DUP5 DUP3 DUP6 ADD PUSH2 0x4323 JUMP JUMPDEST PUSH1 0x0 DUP4 ADD MSTORE POP PUSH1 0x20 PUSH2 0x4A30 DUP5 DUP3 DUP6 ADD PUSH2 0x434F JUMP JUMPDEST PUSH1 0x20 DUP4 ADD MSTORE POP SWAP3 SWAP2 POP POP JUMP JUMPDEST PUSH1 0x0 PUSH2 0x1A0 DUP3 DUP5 SUB SLT ISZERO PUSH2 0x4A53 JUMPI PUSH2 0x4A52 PUSH2 0x4678 JUMP JUMPDEST JUMPDEST PUSH2 0x4A5D PUSH1 0xE0 PUSH2 0x46DD JUMP JUMPDEST SWAP1 POP PUSH1 0x0 PUSH2 0x4A6D DUP5 DUP3 DUP6 ADD PUSH2 0x495F JUMP JUMPDEST PUSH1 0x0 DUP4 ADD MSTORE POP PUSH1 0x20 PUSH2 0x4A81 DUP5 DUP3 DUP6 ADD PUSH2 0x4974 JUMP JUMPDEST PUSH1 0x20 DUP4 ADD MSTORE POP PUSH1 0xA0 PUSH2 0x4A95 DUP5 DUP3 DUP6 ADD PUSH2 0x4886 JUMP JUMPDEST PUSH1 0x40 DUP4 ADD MSTORE POP PUSH1 0xC0 PUSH2 0x4AA9 DUP5 DUP3 DUP6 ADD PUSH2 0x49B0 JUMP JUMPDEST PUSH1 0x60 DUP4 ADD MSTORE POP PUSH2 0x120 PUSH2 0x4ABE DUP5 DUP3 DUP6 ADD PUSH2 0x434F JUMP JUMPDEST PUSH1 0x80 DUP4 ADD MSTORE POP PUSH2 0x140 PUSH2 0x4AD3 DUP5 DUP3 DUP6 ADD PUSH2 0x4886 JUMP JUMPDEST PUSH1 0xA0 DUP4 ADD MSTORE POP PUSH2 0x160 PUSH2 0x4AE8 DUP5 DUP3 DUP6 ADD PUSH2 0x49EC JUMP JUMPDEST PUSH1 0xC0 DUP4 ADD MSTORE POP SWAP3 SWAP2 POP POP JUMP JUMPDEST PUSH1 0x0 PUSH2 0x1C0 DUP3 DUP5 SUB SLT ISZERO PUSH2 0x4B0B JUMPI PUSH2 0x4B0A PUSH2 0x4678 JUMP JUMPDEST JUMPDEST PUSH2 0x4B15 PUSH1 0x40 PUSH2 0x46DD JUMP JUMPDEST SWAP1 POP PUSH1 0x0 PUSH2 0x4B25 DUP5 DUP3 DUP6 ADD PUSH2 0x4323 JUMP JUMPDEST PUSH1 0x0 DUP4 ADD MSTORE POP PUSH1 0x20 PUSH2 0x4B39 DUP5 DUP3 DUP6 ADD PUSH2 0x4A3C JUMP JUMPDEST PUSH1 0x20 DUP4 ADD MSTORE POP SWAP3 SWAP2 POP POP JUMP JUMPDEST PUSH1 0x0 PUSH2 0x1C0 DUP3 DUP5 SUB SLT ISZERO PUSH2 0x4B5C JUMPI PUSH2 0x4B5B PUSH2 0x41F4 JUMP JUMPDEST JUMPDEST PUSH1 0x0 PUSH2 0x4B6A DUP5 DUP3 DUP6 ADD PUSH2 0x4AF4 JUMP JUMPDEST SWAP2 POP POP SWAP3 SWAP2 POP POP JUMP JUMPDEST PUSH1 0x0 DUP2 MLOAD SWAP1 POP PUSH2 0x4B82 DUP2 PUSH2 0x4719 JUMP JUMPDEST PUSH2 0x4B8B DUP2 PUSH2 0x40B1 JUMP JUMPDEST SWAP1 POP SWAP3 SWAP2 POP POP JUMP JUMPDEST PUSH1 0x0 DUP1 REVERT JUMPDEST PUSH1 0x0 PUSH8 0xFFFFFFFFFFFFFFFF DUP3 GT ISZERO PUSH2 0x4BB3 JUMPI PUSH2 0x4BB2 PUSH2 0x467D JUMP JUMPDEST JUMPDEST PUSH1 0x20 DUP3 MUL SWAP1 POP SWAP2 SWAP1 POP JUMP JUMPDEST PUSH1 0x0 DUP1 REVERT JUMPDEST PUSH1 0x0 DUP2 MLOAD SWAP1 POP PUSH2 0x4BD2 DUP2 PUSH2 0x430C JUMP JUMPDEST SWAP3 SWAP2 POP POP JUMP JUMPDEST PUSH1 0x0 DUP2 MLOAD SWAP1 POP PUSH2 0x4BE7 DUP2 PUSH2 0x4338 JUMP JUMPDEST SWAP3 SWAP2 POP POP JUMP JUMPDEST PUSH1 0x0 PUSH1 0x60 DUP3 DUP5 SUB SLT ISZERO PUSH2 0x4C03 JUMPI PUSH2 0x4C02 PUSH2 0x4678 JUMP JUMPDEST JUMPDEST PUSH2 0x4C0D PUSH1 0x60 PUSH2 0x46DD JUMP JUMPDEST SWAP1 POP PUSH1 0x0 PUSH2 0x4C1D DUP5 DUP3 DUP6 ADD PUSH2 0x4BC3 JUMP JUMPDEST PUSH1 0x0 DUP4 ADD MSTORE POP PUSH1 0x20 PUSH2 0x4C31 DUP5 DUP3 DUP6 ADD PUSH2 0x4BC3 JUMP JUMPDEST PUSH1 0x20 DUP4 ADD MSTORE POP PUSH1 0x40 PUSH2 0x4C45 DUP5 DUP3 DUP6 ADD PUSH2 0x4BD8 JUMP JUMPDEST PUSH1 0x40 DUP4 ADD MSTORE POP SWAP3 SWAP2 POP POP JUMP JUMPDEST PUSH1 0x0 PUSH2 0x4C64 PUSH2 0x4C5F DUP5 PUSH2 0x4B98 JUMP JUMPDEST PUSH2 0x46DD JUMP JUMPDEST SWAP1 POP DUP1 PUSH1 0x60 DUP5 MUL DUP4 ADD DUP6 DUP2 GT ISZERO PUSH2 0x4C7E JUMPI PUSH2 0x4C7D PUSH2 0x4BBE JUMP JUMPDEST JUMPDEST DUP4 JUMPDEST DUP2 DUP2 LT ISZERO PUSH2 0x4CA7 JUMPI DUP1 PUSH2 0x4C93 DUP9 DUP3 PUSH2 0x4BED JUMP JUMPDEST DUP5 MSTORE PUSH1 0x20 DUP5 ADD SWAP4 POP POP PUSH1 0x60 DUP2 ADD SWAP1 POP PUSH2 0x4C80 JUMP JUMPDEST POP POP POP SWAP4 SWAP3 POP POP POP JUMP JUMPDEST PUSH1 0x0 DUP3 PUSH1 0x1F DUP4 ADD SLT PUSH2 0x4CC6 JUMPI PUSH2 0x4CC5 PUSH2 0x4B93 JUMP JUMPDEST JUMPDEST PUSH1 0x1 PUSH2 0x4CD3 DUP5 DUP3 DUP6 PUSH2 0x4C51 JUMP JUMPDEST SWAP2 POP POP SWAP3 SWAP2 POP POP JUMP JUMPDEST PUSH1 0x0 PUSH1 0x60 DUP3 DUP5 SUB SLT ISZERO PUSH2 0x4CF2 JUMPI PUSH2 0x4CF1 PUSH2 0x4678 JUMP JUMPDEST JUMPDEST PUSH2 0x4CFC PUSH1 0x60 PUSH2 0x46DD JUMP JUMPDEST SWAP1 POP PUSH1 0x0 PUSH2 0x4D0C DUP5 DUP3 DUP6 ADD PUSH2 0x4B73 JUMP JUMPDEST PUSH1 0x0 DUP4 ADD MSTORE POP PUSH1 0x20 PUSH2 0x4D20 DUP5 DUP3 DUP6 ADD PUSH2 0x4BC3 JUMP JUMPDEST PUSH1 0x20 DUP4 ADD MSTORE POP PUSH1 0x40 PUSH2 0x4D34 DUP5 DUP3 DUP6 ADD PUSH2 0x4BD8 JUMP JUMPDEST PUSH1 0x40 DUP4 ADD MSTORE POP SWAP3 SWAP2 POP POP JUMP JUMPDEST PUSH1 0x0 PUSH1 0x60 DUP3 DUP5 SUB SLT ISZERO PUSH2 0x4D56 JUMPI PUSH2 0x4D55 PUSH2 0x4678 JUMP JUMPDEST JUMPDEST PUSH2 0x4D60 PUSH1 0x60 PUSH2 0x46DD JUMP JUMPDEST SWAP1 POP PUSH1 0x0 PUSH2 0x4D70 DUP5 DUP3 DUP6 ADD PUSH2 0x4BC3 JUMP JUMPDEST PUSH1 0x0 DUP4 ADD MSTORE POP PUSH1 0x20 PUSH2 0x4D84 DUP5 DUP3 DUP6 ADD PUSH2 0x4BC3 JUMP JUMPDEST PUSH1 0x20 DUP4 ADD MSTORE POP PUSH1 0x40 PUSH2 0x4D98 DUP5 DUP3 DUP6 ADD PUSH2 0x4BC3 JUMP JUMPDEST PUSH1 0x40 DUP4 ADD MSTORE POP SWAP3 SWAP2 POP POP JUMP JUMPDEST PUSH1 0x0 PUSH2 0x180 DUP3 DUP5 SUB SLT ISZERO PUSH2 0x4DBB JUMPI PUSH2 0x4DBA PUSH2 0x4678 JUMP JUMPDEST JUMPDEST PUSH2 0x4DC5 PUSH1 0xC0 PUSH2 0x46DD JUMP JUMPDEST SWAP1 POP PUSH1 0x0 PUSH2 0x4DD5 DUP5 DUP3 DUP6 ADD PUSH2 0x4B73 JUMP JUMPDEST PUSH1 0x0 DUP4 ADD MSTORE POP PUSH1 0x20 PUSH2 0x4DE9 DUP5 DUP3 DUP6 ADD PUSH2 0x4B73 JUMP JUMPDEST PUSH1 0x20 DUP4 ADD MSTORE POP PUSH1 0x40 PUSH2 0x4DFD DUP5 DUP3 DUP6 ADD PUSH2 0x4CB1 JUMP JUMPDEST PUSH1 0x40 DUP4 ADD MSTORE POP PUSH1 0xA0 PUSH2 0x4E11 DUP5 DUP3 DUP6 ADD PUSH2 0x4BC3 JUMP JUMPDEST PUSH1 0x60 DUP4 ADD MSTORE POP PUSH1 0xC0 PUSH2 0x4E25 DUP5 DUP3 DUP6 ADD PUSH2 0x4CDC JUMP JUMPDEST PUSH1 0x80 DUP4 ADD MSTORE POP PUSH2 0x120 PUSH2 0x4E3A DUP5 DUP3 DUP6 ADD PUSH2 0x4D40 JUMP JUMPDEST PUSH1 0xA0 DUP4 ADD MSTORE POP SWAP3 SWAP2 POP POP JUMP JUMPDEST PUSH1 0x0 PUSH2 0x180 DUP3 DUP5 SUB SLT ISZERO PUSH2 0x4E5D JUMPI PUSH2 0x4E5C PUSH2 0x41F4 JUMP JUMPDEST JUMPDEST PUSH1 0x0 PUSH2 0x4E6B DUP5 DUP3 DUP6 ADD PUSH2 0x4DA4 JUMP JUMPDEST SWAP2 POP POP SWAP3 SWAP2 POP POP JUMP JUMPDEST PUSH1 0x2 DUP2 LT PUSH2 0x4E81 JUMPI PUSH1 0x0 DUP1 REVERT JUMPDEST POP JUMP JUMPDEST PUSH1 0x0 DUP2 MLOAD SWAP1 POP PUSH2 0x4E93 DUP2 PUSH2 0x4E74 JUMP JUMPDEST SWAP3 SWAP2 POP POP JUMP JUMPDEST PUSH1 0x0 PUSH1 0x60 DUP3 DUP5 SUB SLT ISZERO PUSH2 0x4EAF JUMPI PUSH2 0x4EAE PUSH2 0x4678 JUMP JUMPDEST JUMPDEST PUSH2 0x4EB9 PUSH1 0x60 PUSH2 0x46DD JUMP JUMPDEST SWAP1 POP PUSH1 0x0 PUSH2 0x4EC9 DUP5 DUP3 DUP6 ADD PUSH2 0x4E84 JUMP JUMPDEST PUSH1 0x0 DUP4 ADD MSTORE POP PUSH1 0x20 PUSH2 0x4EDD DUP5 DUP3 DUP6 ADD PUSH2 0x4BD8 JUMP JUMPDEST PUSH1 0x20 DUP4 ADD MSTORE POP PUSH1 0x40 PUSH2 0x4EF1 DUP5 DUP3 DUP6 ADD PUSH2 0x4B73 JUMP JUMPDEST PUSH1 0x40 DUP4 ADD MSTORE POP SWAP3 SWAP2 POP POP JUMP JUMPDEST PUSH1 0x0 PUSH2 0x1E0 DUP3 DUP5 SUB SLT ISZERO PUSH2 0x4F14 JUMPI PUSH2 0x4F13 PUSH2 0x4678 JUMP JUMPDEST JUMPDEST PUSH2 0x4F1F PUSH2 0x120 PUSH2 0x46DD JUMP JUMPDEST SWAP1 POP PUSH1 0x0 PUSH2 0x4F2F DUP5 DUP3 DUP6 ADD PUSH2 0x4E99 JUMP JUMPDEST PUSH1 0x0 DUP4 ADD MSTORE POP PUSH1 0x60 PUSH2 0x4F43 DUP5 DUP3 DUP6 ADD PUSH2 0x4BC3 JUMP JUMPDEST PUSH1 0x20 DUP4 ADD MSTORE POP PUSH1 0x80 PUSH2 0x4F57 DUP5 DUP3 DUP6 ADD PUSH2 0x4CDC JUMP JUMPDEST PUSH1 0x40 DUP4 ADD MSTORE POP PUSH1 0xE0 PUSH2 0x4F6B DUP5 DUP3 DUP6 ADD PUSH2 0x4BD8 JUMP JUMPDEST PUSH1 0x60 DUP4 ADD MSTORE POP PUSH2 0x100 PUSH2 0x4F80 DUP5 DUP3 DUP6 ADD PUSH2 0x4BD8 JUMP JUMPDEST PUSH1 0x80 DUP4 ADD MSTORE POP PUSH2 0x120 PUSH2 0x4F95 DUP5 DUP3 DUP6 ADD PUSH2 0x4D40 JUMP JUMPDEST PUSH1 0xA0 DUP4 ADD MSTORE POP PUSH2 0x180 PUSH2 0x4FAA DUP5 DUP3 DUP6 ADD PUSH2 0x4BD8 JUMP JUMPDEST PUSH1 0xC0 DUP4 ADD MSTORE POP PUSH2 0x1A0 PUSH2 0x4FBF DUP5 DUP3 DUP6 ADD PUSH2 0x4BC3 JUMP JUMPDEST PUSH1 0xE0 DUP4 ADD MSTORE POP PUSH2 0x1C0 PUSH2 0x4FD4 DUP5 DUP3 DUP6 ADD PUSH2 0x4BC3 JUMP JUMPDEST PUSH2 0x100 DUP4 ADD MSTORE POP SWAP3 SWAP2 POP POP JUMP JUMPDEST PUSH1 0x0 PUSH2 0x3C0 DUP3 DUP5 SUB SLT ISZERO PUSH2 0x4FF8 JUMPI PUSH2 0x4FF7 PUSH2 0x4678 JUMP JUMPDEST JUMPDEST PUSH2 0x5003 PUSH2 0x140 PUSH2 0x46DD JUMP JUMPDEST SWAP1 POP PUSH1 0x0 PUSH2 0x5013 DUP5 DUP3 DUP6 ADD PUSH2 0x4B73 JUMP JUMPDEST PUSH1 0x0 DUP4 ADD MSTORE POP PUSH1 0x20 PUSH2 0x5027 DUP5 DUP3 DUP6 ADD PUSH2 0x4B73 JUMP JUMPDEST PUSH1 0x20 DUP4 ADD MSTORE POP PUSH1 0x40 PUSH2 0x503B DUP5 DUP3 DUP6 ADD PUSH2 0x4B73 JUMP JUMPDEST PUSH1 0x40 DUP4 ADD MSTORE POP PUSH1 0x60 PUSH2 0x504F DUP5 DUP3 DUP6 ADD PUSH2 0x4B73 JUMP JUMPDEST PUSH1 0x60 DUP4 ADD MSTORE POP PUSH1 0x80 PUSH2 0x5063 DUP5 DUP3 DUP6 ADD PUSH2 0x4BC3 JUMP JUMPDEST PUSH1 0x80 DUP4 ADD MSTORE POP PUSH1 0xA0 PUSH2 0x5077 DUP5 DUP3 DUP6 ADD PUSH2 0x4EFD JUMP JUMPDEST PUSH1 0xA0 DUP4 ADD MSTORE POP PUSH2 0x280 PUSH2 0x508C DUP5 DUP3 DUP6 ADD PUSH2 0x4CB1 JUMP JUMPDEST PUSH1 0xC0 DUP4 ADD MSTORE POP PUSH2 0x2E0 PUSH2 0x50A1 DUP5 DUP3 DUP6 ADD PUSH2 0x4BC3 JUMP JUMPDEST PUSH1 0xE0 DUP4 ADD MSTORE POP PUSH2 0x300 PUSH2 0x50B6 DUP5 DUP3 DUP6 ADD PUSH2 0x4CDC JUMP JUMPDEST PUSH2 0x100 DUP4 ADD MSTORE POP PUSH2 0x360 PUSH2 0x50CC DUP5 DUP3 DUP6 ADD PUSH2 0x4D40 JUMP JUMPDEST PUSH2 0x120 DUP4 ADD MSTORE POP SWAP3 SWAP2 POP POP JUMP JUMPDEST PUSH1 0x0 PUSH2 0x3C0 DUP3 DUP5 SUB SLT ISZERO PUSH2 0x50F0 JUMPI PUSH2 0x50EF PUSH2 0x41F4 JUMP JUMPDEST JUMPDEST PUSH1 0x0 PUSH2 0x50FE DUP5 DUP3 DUP6 ADD PUSH2 0x4FE1 JUMP JUMPDEST SWAP2 POP POP SWAP3 SWAP2 POP POP JUMP JUMPDEST PUSH1 0x0 PUSH2 0x5112 DUP3 PUSH2 0x4091 JUMP JUMPDEST SWAP1 POP SWAP2 SWAP1 POP JUMP JUMPDEST PUSH2 0x5122 DUP2 PUSH2 0x5107 JUMP JUMPDEST DUP3 MSTORE POP POP JUMP JUMPDEST PUSH1 0x20 DUP3 ADD PUSH1 0x0 DUP3 ADD MLOAD PUSH2 0x513E PUSH1 0x0 DUP6 ADD DUP3 PUSH2 0x40DC JUMP JUMPDEST POP POP POP POP JUMP JUMPDEST PUSH1 0x0 PUSH1 0x40 DUP3 ADD SWAP1 POP PUSH2 0x5159 PUSH1 0x0 DUP4 ADD DUP6 PUSH2 0x5119 JUMP JUMPDEST PUSH2 0x5166 PUSH1 0x20 DUP4 ADD DUP5 PUSH2 0x5128 JUMP JUMPDEST SWAP4 SWAP3 POP POP POP JUMP JUMPDEST PUSH32 0x4E487B7100000000000000000000000000000000000000000000000000000000 PUSH1 0x0 MSTORE PUSH1 0x32 PUSH1 0x4 MSTORE PUSH1 0x24 PUSH1 0x0 REVERT JUMPDEST PUSH1 0x0 PUSH1 0x60 DUP3 DUP5 SUB SLT ISZERO PUSH2 0x51B2 JUMPI PUSH2 0x51B1 PUSH2 0x4678 JUMP JUMPDEST JUMPDEST PUSH2 0x51BC PUSH1 0x60 PUSH2 0x46DD JUMP JUMPDEST SWAP1 POP PUSH1 0x0 PUSH2 0x51CC DUP5 DUP3 DUP6 ADD PUSH2 0x4BD8 JUMP JUMPDEST PUSH1 0x0 DUP4 ADD MSTORE POP PUSH1 0x20 PUSH2 0x51E0 DUP5 DUP3 DUP6 ADD PUSH2 0x4BC3 JUMP JUMPDEST PUSH1 0x20 DUP4 ADD MSTORE POP PUSH1 0x40 PUSH2 0x51F4 DUP5 DUP3 DUP6 ADD PUSH2 0x4B73 JUMP JUMPDEST PUSH1 0x40 DUP4 ADD MSTORE POP SWAP3 SWAP2 POP POP JUMP JUMPDEST PUSH1 0x0 PUSH2 0x1E0 DUP3 DUP5 SUB SLT ISZERO PUSH2 0x5217 JUMPI PUSH2 0x5216 PUSH2 0x4678 JUMP JUMPDEST JUMPDEST PUSH2 0x5221 PUSH1 0xE0 PUSH2 0x46DD JUMP JUMPDEST SWAP1 POP PUSH1 0x0 PUSH2 0x5231 DUP5 DUP3 DUP6 ADD PUSH2 0x4B73 JUMP JUMPDEST PUSH1 0x0 DUP4 ADD MSTORE POP PUSH1 0x20 PUSH2 0x5245 DUP5 DUP3 DUP6 ADD PUSH2 0x519C JUMP JUMPDEST PUSH1 0x20 DUP4 ADD MSTORE POP PUSH1 0x80 PUSH2 0x5259 DUP5 DUP3 DUP6 ADD PUSH2 0x4B73 JUMP JUMPDEST PUSH1 0x40 DUP4 ADD MSTORE POP PUSH1 0xA0 PUSH2 0x526D DUP5 DUP3 DUP6 ADD PUSH2 0x4CDC JUMP JUMPDEST PUSH1 0x60 DUP4 ADD MSTORE POP PUSH2 0x100 PUSH2 0x5282 DUP5 DUP3 DUP6 ADD PUSH2 0x4D40 JUMP JUMPDEST PUSH1 0x80 DUP4 ADD MSTORE POP PUSH2 0x160 PUSH2 0x5297 DUP5 DUP3 DUP6 ADD PUSH2 0x4B73 JUMP JUMPDEST PUSH1 0xA0 DUP4 ADD MSTORE POP PUSH2 0x180 PUSH2 0x52AC DUP5 DUP3 DUP6 ADD PUSH2 0x4CB1 JUMP JUMPDEST PUSH1 0xC0 DUP4 ADD MSTORE POP SWAP3 SWAP2 POP POP JUMP JUMPDEST PUSH1 0x0 PUSH2 0x1E0 DUP3 DUP5 SUB SLT ISZERO PUSH2 0x52CF JUMPI PUSH2 0x52CE PUSH2 0x41F4 JUMP JUMPDEST JUMPDEST PUSH1 0x0 PUSH2 0x52DD DUP5 DUP3 DUP6 ADD PUSH2 0x5200 JUMP JUMPDEST SWAP2 POP POP SWAP3 SWAP2 POP POP JUMP JUMPDEST PUSH1 0x6 DUP2 LT PUSH2 0x52F7 JUMPI PUSH2 0x52F6 PUSH2 0x4501 JUMP JUMPDEST JUMPDEST POP JUMP JUMPDEST PUSH1 0x0 DUP2 SWAP1 POP PUSH2 0x5308 DUP3 PUSH2 0x52E6 JUMP JUMPDEST SWAP2 SWAP1 POP JUMP JUMPDEST PUSH1 0x0 PUSH2 0x5318 DUP3 PUSH2 0x52FA JUMP JUMPDEST SWAP1 POP SWAP2 SWAP1 POP JUMP JUMPDEST PUSH2 0x5328 DUP2 PUSH2 0x530D JUMP JUMPDEST DUP3 MSTORE POP POP JUMP JUMPDEST PUSH1 0x80 DUP3 ADD PUSH1 0x0 DUP3 ADD MLOAD PUSH2 0x5344 PUSH1 0x0 DUP6 ADD DUP3 PUSH2 0x4578 JUMP JUMPDEST POP POP POP POP JUMP JUMPDEST PUSH1 0x20 DUP3 ADD PUSH1 0x0 DUP3 ADD MLOAD PUSH2 0x5360 PUSH1 0x0 DUP6 ADD DUP3 PUSH2 0x40DC JUMP JUMPDEST POP POP POP POP JUMP JUMPDEST PUSH1 0x60 DUP3 ADD PUSH1 0x0 DUP3 ADD MLOAD PUSH2 0x537C PUSH1 0x0 DUP6 ADD DUP3 PUSH2 0x40DC JUMP JUMPDEST POP PUSH1 0x20 DUP3 ADD MLOAD PUSH2 0x538F PUSH1 0x20 DUP6 ADD DUP3 PUSH2 0x40DC JUMP JUMPDEST POP PUSH1 0x40 DUP3 ADD MLOAD PUSH2 0x53A2 PUSH1 0x40 DUP6 ADD DUP3 PUSH2 0x40DC JUMP JUMPDEST POP POP POP POP JUMP JUMPDEST PUSH1 0x60 DUP3 ADD PUSH1 0x0 DUP3 ADD MLOAD PUSH2 0x53BE PUSH1 0x0 DUP6 ADD DUP3 PUSH2 0x5366 JUMP JUMPDEST POP POP POP POP JUMP JUMPDEST PUSH1 0x40 DUP3 ADD PUSH1 0x0 DUP3 ADD MLOAD PUSH2 0x53DA PUSH1 0x0 DUP6 ADD DUP3 PUSH2 0x40DC JUMP JUMPDEST POP PUSH1 0x20 DUP3 ADD MLOAD PUSH2 0x53ED PUSH1 0x20 DUP6 ADD DUP3 PUSH2 0x40F7 JUMP JUMPDEST POP POP POP POP JUMP JUMPDEST PUSH2 0x1A0 DUP3 ADD PUSH1 0x0 DUP3 ADD MLOAD PUSH2 0x540A PUSH1 0x0 DUP6 ADD DUP3 PUSH2 0x531F JUMP JUMPDEST POP PUSH1 0x20 DUP3 ADD MLOAD PUSH2 0x541D PUSH1 0x20 DUP6 ADD DUP3 PUSH2 0x532E JUMP JUMPDEST POP PUSH1 0x40 DUP3 ADD MLOAD PUSH2 0x5430 PUSH1 0xA0 DUP6 ADD DUP3 PUSH2 0x534A JUMP JUMPDEST POP PUSH1 0x60 DUP3 ADD MLOAD PUSH2 0x5443 PUSH1 0xC0 DUP6 ADD DUP3 PUSH2 0x53A8 JUMP JUMPDEST POP PUSH1 0x80 DUP3 ADD MLOAD PUSH2 0x5457 PUSH2 0x120 DUP6 ADD DUP3 PUSH2 0x40F7 JUMP JUMPDEST POP PUSH1 0xA0 DUP3 ADD MLOAD PUSH2 0x546B PUSH2 0x140 DUP6 ADD DUP3 PUSH2 0x534A JUMP JUMPDEST POP PUSH1 0xC0 DUP3 ADD MLOAD PUSH2 0x547F PUSH2 0x160 DUP6 ADD DUP3 PUSH2 0x53C4 JUMP JUMPDEST POP POP POP POP JUMP JUMPDEST PUSH2 0x1C0 DUP3 ADD PUSH1 0x0 DUP3 ADD MLOAD PUSH2 0x549C PUSH1 0x0 DUP6 ADD DUP3 PUSH2 0x40DC JUMP JUMPDEST POP PUSH1 0x20 DUP3 ADD MLOAD PUSH2 0x54AF PUSH1 0x20 DUP6 ADD DUP3 PUSH2 0x53F3 JUMP JUMPDEST POP POP POP POP JUMP JUMPDEST PUSH1 0x0 PUSH2 0x1E0 DUP3 ADD SWAP1 POP PUSH2 0x54CB PUSH1 0x0 DUP4 ADD DUP6 PUSH2 0x5119 JUMP JUMPDEST PUSH2 0x54D8 PUSH1 0x20 DUP4 ADD DUP5 PUSH2 0x5485 JUMP JUMPDEST SWAP4 SWAP3 POP POP POP JUMP JUMPDEST PUSH32 0x4E487B7100000000000000000000000000000000000000000000000000000000 PUSH1 0x0 MSTORE PUSH1 0x11 PUSH1 0x4 MSTORE PUSH1 0x24 PUSH1 0x0 REVERT JUMPDEST PUSH1 0x0 PUSH2 0x5519 DUP3 PUSH2 0x40D2 JUMP JUMPDEST SWAP2 POP PUSH32 0xFFFFFFFFFFFFFFFFFFFFFFFFFFFFFFFFFFFFFFFFFFFFFFFFFFFFFFFFFFFFFFFF DUP3 SUB PUSH2 0x554B JUMPI PUSH2 0x554A PUSH2 0x54DF JUMP JUMPDEST JUMPDEST PUSH1 0x1 DUP3 ADD SWAP1 POP SWAP2 SWAP1 POP JUMP JUMPDEST PUSH1 0x2 DUP2 LT PUSH2 0x5567 JUMPI PUSH2 0x5566 PUSH2 0x4501 JUMP JUMPDEST JUMPDEST POP JUMP JUMPDEST PUSH1 0x0 DUP2 SWAP1 POP PUSH2 0x5578 DUP3 PUSH2 0x5556 JUMP JUMPDEST SWAP2 SWAP1 POP JUMP JUMPDEST PUSH1 0x0 PUSH2 0x5588 DUP3 PUSH2 0x556A JUMP JUMPDEST SWAP1 POP SWAP2 SWAP1 POP JUMP JUMPDEST PUSH2 0x5598 DUP2 PUSH2 0x557D JUMP JUMPDEST DUP3 MSTORE POP POP JUMP JUMPDEST PUSH1 0x60 DUP3 ADD PUSH1 0x0 DUP3 ADD MLOAD PUSH2 0x55B4 PUSH1 0x0 DUP6 ADD DUP3 PUSH2 0x558F JUMP JUMPDEST POP PUSH1 0x20 DUP3 ADD MLOAD PUSH2 0x55C7 PUSH1 0x20 DUP6 ADD DUP3 PUSH2 0x40F7 JUMP JUMPDEST POP PUSH1 0x40 DUP3 ADD MLOAD PUSH2 0x55DA PUSH1 0x40 DUP6 ADD DUP3 PUSH2 0x40C3 JUMP JUMPDEST POP POP POP POP JUMP JUMPDEST PUSH1 0x60 DUP3 ADD PUSH1 0x0 DUP3 ADD MLOAD PUSH2 0x55F6 PUSH1 0x0 DUP6 ADD DUP3 PUSH2 0x40C3 JUMP JUMPDEST POP PUSH1 0x20 DUP3 ADD MLOAD PUSH2 0x5609 PUSH1 0x20 DUP6 ADD DUP3 PUSH2 0x40DC JUMP JUMPDEST POP PUSH1 0x40 DUP3 ADD MLOAD PUSH2 0x561C PUSH1 0x40 DUP6 ADD DUP3 PUSH2 0x40F7 JUMP JUMPDEST POP POP POP POP JUMP JUMPDEST PUSH2 0x1E0 DUP3 ADD PUSH1 0x0 DUP3 ADD MLOAD PUSH2 0x5639 PUSH1 0x0 DUP6 ADD DUP3 PUSH2 0x559E JUMP JUMPDEST POP PUSH1 0x20 DUP3 ADD MLOAD PUSH2 0x564C PUSH1 0x60 DUP6 ADD DUP3 PUSH2 0x40DC JUMP JUMPDEST POP PUSH1 0x40 DUP3 ADD MLOAD PUSH2 0x565F PUSH1 0x80 DUP6 ADD DUP3 PUSH2 0x55E0 JUMP JUMPDEST POP PUSH1 0x60 DUP3 ADD MLOAD PUSH2 0x5672 PUSH1 0xE0 DUP6 ADD DUP3 PUSH2 0x40F7 JUMP JUMPDEST POP PUSH1 0x80 DUP3 ADD MLOAD PUSH2 0x5686 PUSH2 0x100 DUP6 ADD DUP3 PUSH2 0x40F7 JUMP JUMPDEST POP PUSH1 0xA0 DUP3 ADD MLOAD PUSH2 0x569A PUSH2 0x120 DUP6 ADD DUP3 PUSH2 0x5366 JUMP JUMPDEST POP PUSH1 0xC0 DUP3 ADD MLOAD PUSH2 0x56AE PUSH2 0x180 DUP6 ADD DUP3 PUSH2 0x40F7 JUMP JUMPDEST POP PUSH1 0xE0 DUP3 ADD MLOAD PUSH2 0x56C2 PUSH2 0x1A0 DUP6 ADD DUP3 PUSH2 0x40DC JUMP JUMPDEST POP PUSH2 0x100 DUP3 ADD MLOAD PUSH2 0x56D7 PUSH2 0x1C0 DUP6 ADD DUP3 PUSH2 0x40DC JUMP JUMPDEST POP POP POP POP JUMP JUMPDEST PUSH1 0x0 PUSH1 0x1 SWAP1 POP SWAP2 SWAP1 POP JUMP JUMPDEST PUSH1 0x0 DUP2 SWAP1 POP SWAP3 SWAP2 POP POP JUMP JUMPDEST PUSH1 0x0 DUP2 SWAP1 POP SWAP2 SWAP1 POP JUMP JUMPDEST PUSH1 0x60 DUP3 ADD PUSH1 0x0 DUP3 ADD MLOAD PUSH2 0x5713 PUSH1 0x0 DUP6 ADD DUP3 PUSH2 0x40DC JUMP JUMPDEST POP PUSH1 0x20 DUP3 ADD MLOAD PUSH2 0x5726 PUSH1 0x20 DUP6 ADD DUP3 PUSH2 0x40DC JUMP JUMPDEST POP PUSH1 0x40 DUP3 ADD MLOAD PUSH2 0x5739 PUSH1 0x40 DUP6 ADD DUP3 PUSH2 0x40F7 JUMP JUMPDEST POP POP POP POP JUMP JUMPDEST PUSH1 0x0 PUSH2 0x574B DUP4 DUP4 PUSH2 0x56FD JUMP JUMPDEST PUSH1 0x60 DUP4 ADD SWAP1 POP SWAP3 SWAP2 POP POP JUMP JUMPDEST PUSH1 0x0 PUSH1 0x20 DUP3 ADD SWAP1 POP SWAP2 SWAP1 POP JUMP JUMPDEST PUSH2 0x576D DUP2 PUSH2 0x56DD JUMP JUMPDEST PUSH2 0x5777 DUP2 DUP5 PUSH2 0x56E8 JUMP JUMPDEST SWAP3 POP PUSH2 0x5782 DUP3 PUSH2 0x56F3 JUMP JUMPDEST DUP1 PUSH1 0x0 JUMPDEST DUP4 DUP2 LT ISZERO PUSH2 0x57B3 JUMPI DUP2 MLOAD PUSH2 0x579A DUP8 DUP3 PUSH2 0x573F JUMP JUMPDEST SWAP7 POP PUSH2 0x57A5 DUP4 PUSH2 0x5757 JUMP JUMPDEST SWAP3 POP POP PUSH1 0x1 DUP2 ADD SWAP1 POP PUSH2 0x5786 JUMP JUMPDEST POP POP POP POP POP POP JUMP JUMPDEST PUSH2 0x3C0 DUP3 ADD PUSH1 0x0 DUP3 ADD MLOAD PUSH2 0x57D2 PUSH1 0x0 DUP6 ADD DUP3 PUSH2 0x40C3 JUMP JUMPDEST POP PUSH1 0x20 DUP3 ADD MLOAD PUSH2 0x57E5 PUSH1 0x20 DUP6 ADD DUP3 PUSH2 0x40C3 JUMP JUMPDEST POP PUSH1 0x40 DUP3 ADD MLOAD PUSH2 0x57F8 PUSH1 0x40 DUP6 ADD DUP3 PUSH2 0x40C3 JUMP JUMPDEST POP PUSH1 0x60 DUP3 ADD MLOAD PUSH2 0x580B PUSH1 0x60 DUP6 ADD DUP3 PUSH2 0x40C3 JUMP JUMPDEST POP PUSH1 0x80 DUP3 ADD MLOAD PUSH2 0x581E PUSH1 0x80 DUP6 ADD DUP3 PUSH2 0x40DC JUMP JUMPDEST POP PUSH1 0xA0 DUP3 ADD MLOAD PUSH2 0x5831 PUSH1 0xA0 DUP6 ADD DUP3 PUSH2 0x5622 JUMP JUMPDEST POP PUSH1 0xC0 DUP3 ADD MLOAD PUSH2 0x5845 PUSH2 0x280 DUP6 ADD DUP3 PUSH2 0x5764 JUMP JUMPDEST POP PUSH1 0xE0 DUP3 ADD MLOAD PUSH2 0x5859 PUSH2 0x2E0 DUP6 ADD DUP3 PUSH2 0x40DC JUMP JUMPDEST POP PUSH2 0x100 DUP3 ADD MLOAD PUSH2 0x586E PUSH2 0x300 DUP6 ADD DUP3 PUSH2 0x55E0 JUMP JUMPDEST POP PUSH2 0x120 DUP3 ADD MLOAD PUSH2 0x5883 PUSH2 0x360 DUP6 ADD DUP3 PUSH2 0x5366 JUMP JUMPDEST POP POP POP POP JUMP JUMPDEST PUSH1 0x0 PUSH2 0x3C0 DUP3 ADD SWAP1 POP PUSH2 0x589F PUSH1 0x0 DUP4 ADD DUP5 PUSH2 0x57BB JUMP JUMPDEST SWAP3 SWAP2 POP POP JUMP JUMPDEST PUSH1 0x0 DUP2 SWAP1 POP DUP2 PUSH1 0x0 MSTORE PUSH1 0x20 PUSH1 0x0 KECCAK256 SWAP1 POP SWAP2 SWAP1 POP JUMP JUMPDEST PUSH1 0x0 PUSH1 0x20 PUSH1 0x1F DUP4 ADD DIV SWAP1 POP SWAP2 SWAP1 POP JUMP JUMPDEST PUSH1 0x0 DUP3 DUP3 SHL SWAP1 POP SWAP3 SWAP2 POP POP JUMP JUMPDEST PUSH1 0x0 PUSH1 0x8 DUP4 MUL PUSH2 0x5907 PUSH32 0xFFFFFFFFFFFFFFFFFFFFFFFFFFFFFFFFFFFFFFFFFFFFFFFFFFFFFFFFFFFFFFFF DUP3 PUSH2 0x58CA JUMP JUMPDEST PUSH2 0x5911 DUP7 DUP4 PUSH2 0x58CA JUMP JUMPDEST SWAP6 POP DUP1 NOT DUP5 AND SWAP4 POP DUP1 DUP7 AND DUP5 OR SWAP3 POP POP POP SWAP4 SWAP3 POP POP POP JUMP JUMPDEST PUSH1 0x0 DUP2 SWAP1 POP SWAP2 SWAP1 POP JUMP JUMPDEST PUSH1 0x0 PUSH2 0x594E PUSH2 0x5949 PUSH2 0x5944 DUP5 PUSH2 0x40D2 JUMP JUMPDEST PUSH2 0x5929 JUMP JUMPDEST PUSH2 0x40D2 JUMP JUMPDEST SWAP1 POP SWAP2 SWAP1 POP JUMP JUMPDEST PUSH1 0x0 DUP2 SWAP1 POP SWAP2 SWAP1 POP JUMP JUMPDEST PUSH2 0x5968 DUP4 PUSH2 0x5933 JUMP JUMPDEST PUSH2 0x597C PUSH2 0x5974 DUP3 PUSH2 0x5955 JUMP JUMPDEST DUP5 DUP5 SLOAD PUSH2 0x58D7 JUMP JUMPDEST DUP3 SSTORE POP POP POP POP JUMP JUMPDEST PUSH1 0x0 SWAP1 JUMP JUMPDEST PUSH2 0x5991 PUSH2 0x5984 JUMP JUMPDEST PUSH2 0x599C DUP2 DUP5 DUP5 PUSH2 0x595F JUMP JUMPDEST POP POP POP JUMP JUMPDEST JUMPDEST DUP2 DUP2 LT ISZERO PUSH2 0x59C0 JUMPI PUSH2 0x59B5 PUSH1 0x0 DUP3 PUSH2 0x5989 JUMP JUMPDEST PUSH1 0x1 DUP2 ADD SWAP1 POP PUSH2 0x59A2 JUMP JUMPDEST POP POP JUMP JUMPDEST PUSH1 0x1F DUP3 GT ISZERO PUSH2 0x5A05 JUMPI PUSH2 0x59D6 DUP2 PUSH2 0x58A5 JUMP JUMPDEST PUSH2 0x59DF DUP5 PUSH2 0x58BA JUMP JUMPDEST DUP2 ADD PUSH1 0x20 DUP6 LT ISZERO PUSH2 0x59EE JUMPI DUP2 SWAP1 POP JUMPDEST PUSH2 0x5A02 PUSH2 0x59FA DUP6 PUSH2 0x58BA JUMP JUMPDEST DUP4 ADD DUP3 PUSH2 0x59A1 JUMP JUMPDEST POP POP JUMPDEST POP POP POP JUMP JUMPDEST PUSH1 0x0 DUP3 DUP3 SHR SWAP1 POP SWAP3 SWAP2 POP POP JUMP JUMPDEST PUSH1 0x0 PUSH2 0x5A28 PUSH1 0x0 NOT DUP5 PUSH1 0x8 MUL PUSH2 0x5A0A JUMP JUMPDEST NOT DUP1 DUP4 AND SWAP2 POP POP SWAP3 SWAP2 POP POP JUMP JUMPDEST PUSH1 0x0 PUSH2 0x5A41 DUP4 DUP4 PUSH2 0x5A17 JUMP JUMPDEST SWAP2 POP DUP3 PUSH1 0x2 MUL DUP3 OR SWAP1 POP SWAP3 SWAP2 POP POP JUMP JUMPDEST PUSH2 0x5A5A DUP3 PUSH2 0x4441 JUMP JUMPDEST PUSH8 0xFFFFFFFFFFFFFFFF DUP2 GT ISZERO PUSH2 0x5A73 JUMPI PUSH2 0x5A72 PUSH2 0x467D JUMP JUMPDEST JUMPDEST PUSH2 0x5A7D DUP3 SLOAD PUSH2 0x491E JUMP JUMPDEST PUSH2 0x5A88 DUP3 DUP3 DUP6 PUSH2 0x59C4 JUMP JUMPDEST PUSH1 0x0 PUSH1 0x20 SWAP1 POP PUSH1 0x1F DUP4 GT PUSH1 0x1 DUP2 EQ PUSH2 0x5ABB JUMPI PUSH1 0x0 DUP5 ISZERO PUSH2 0x5AA9 JUMPI DUP3 DUP8 ADD MLOAD SWAP1 POP JUMPDEST PUSH2 0x5AB3 DUP6 DUP3 PUSH2 0x5A35 JUMP JUMPDEST DUP7 SSTORE POP PUSH2 0x5B1B JUMP JUMPDEST PUSH1 0x1F NOT DUP5 AND PUSH2 0x5AC9 DUP7 PUSH2 0x58A5 JUMP JUMPDEST PUSH1 0x0 JUMPDEST DUP3 DUP2 LT ISZERO PUSH2 0x5AF1 JUMPI DUP5 DUP10 ADD MLOAD DUP3 SSTORE PUSH1 0x1 DUP3 ADD SWAP2 POP PUSH1 0x20 DUP6 ADD SWAP5 POP PUSH1 0x20 DUP2 ADD SWAP1 POP PUSH2 0x5ACC JUMP JUMPDEST DUP7 DUP4 LT ISZERO PUSH2 0x5B0E JUMPI DUP5 DUP10 ADD MLOAD PUSH2 0x5B0A PUSH1 0x1F DUP10 AND DUP3 PUSH2 0x5A17 JUMP JUMPDEST DUP4 SSTORE POP JUMPDEST PUSH1 0x1 PUSH1 0x2 DUP9 MUL ADD DUP9 SSTORE POP POP POP JUMPDEST POP POP POP POP POP POP JUMP JUMPDEST PUSH2 0x180 DUP3 ADD PUSH1 0x0 DUP3 ADD MLOAD PUSH2 0x5B3A PUSH1 0x0 DUP6 ADD DUP3 PUSH2 0x40C3 JUMP JUMPDEST POP PUSH1 0x20 DUP3 ADD MLOAD PUSH2 0x5B4D PUSH1 0x20 DUP6 ADD DUP3 PUSH2 0x40C3 JUMP JUMPDEST POP PUSH1 0x40 DUP3 ADD MLOAD PUSH2 0x5B60 PUSH1 0x40 DUP6 ADD DUP3 PUSH2 0x5764 JUMP JUMPDEST POP PUSH1 0x60 DUP3 ADD MLOAD PUSH2 0x5B73 PUSH1 0xA0 DUP6 ADD DUP3 PUSH2 0x40DC JUMP JUMPDEST POP PUSH1 0x80 DUP3 ADD MLOAD PUSH2 0x5B86 PUSH1 0xC0 DUP6 ADD DUP3 PUSH2 0x55E0 JUMP JUMPDEST POP PUSH1 0xA0 DUP3 ADD MLOAD PUSH2 0x5B9A PUSH2 0x120 DUP6 ADD DUP3 PUSH2 0x5366 JUMP JUMPDEST POP POP POP POP JUMP JUMPDEST PUSH1 0x0 PUSH2 0x180 DUP3 ADD SWAP1 POP PUSH2 0x5BB6 PUSH1 0x0 DUP4 ADD DUP5 PUSH2 0x5B23 JUMP JUMPDEST SWAP3 SWAP2 POP POP JUMP JUMPDEST PUSH1 0x0 PUSH2 0x5BC7 DUP3 PUSH2 0x40D2 JUMP JUMPDEST SWAP2 POP PUSH2 0x5BD2 DUP4 PUSH2 0x40D2 JUMP JUMPDEST SWAP3 POP DUP3 DUP3 ADD SWAP1 POP DUP1 DUP3 GT ISZERO PUSH2 0x5BEA JUMPI PUSH2 0x5BE9 PUSH2 0x54DF JUMP JUMPDEST JUMPDEST SWAP3 SWAP2 POP POP JUMP JUMPDEST PUSH1 0x0 DUP3 DUP3 MSTORE PUSH1 0x20 DUP3 ADD SWAP1 POP SWAP3 SWAP2 POP POP JUMP JUMPDEST PUSH32 0x616464206F766572666C6F770000000000000000000000000000000000000000 PUSH1 0x0 DUP3 ADD MSTORE POP JUMP JUMPDEST PUSH1 0x0 PUSH2 0x5C37 PUSH1 0xC DUP4 PUSH2 0x5BF0 JUMP JUMPDEST SWAP2 POP PUSH2 0x5C42 DUP3 PUSH2 0x5C01 JUMP JUMPDEST PUSH1 0x20 DUP3 ADD SWAP1 POP SWAP2 SWAP1 POP JUMP JUMPDEST PUSH1 0x0 PUSH1 0x20 DUP3 ADD SWAP1 POP DUP2 DUP2 SUB PUSH1 0x0 DUP4 ADD MSTORE PUSH2 0x5C66 DUP2 PUSH2 0x5C2A JUMP JUMPDEST SWAP1 POP SWAP2 SWAP1 POP JUMP JUMPDEST PUSH1 0x0 PUSH2 0x5C78 DUP3 PUSH2 0x40D2 JUMP JUMPDEST SWAP2 POP PUSH2 0x5C83 DUP4 PUSH2 0x40D2 JUMP JUMPDEST SWAP3 POP DUP3 DUP3 SUB SWAP1 POP DUP2 DUP2 GT ISZERO PUSH2 0x5C9B JUMPI PUSH2 0x5C9A PUSH2 0x54DF JUMP JUMPDEST JUMPDEST SWAP3 SWAP2 POP POP JUMP JUMPDEST PUSH32 0x737562207772617061726F756E64000000000000000000000000000000000000 PUSH1 0x0 DUP3 ADD MSTORE POP JUMP JUMPDEST PUSH1 0x0 PUSH2 0x5CD7 PUSH1 0xE DUP4 PUSH2 0x5BF0 JUMP JUMPDEST SWAP2 POP PUSH2 0x5CE2 DUP3 PUSH2 0x5CA1 JUMP JUMPDEST PUSH1 0x20 DUP3 ADD SWAP1 POP SWAP2 SWAP1 POP JUMP JUMPDEST PUSH1 0x0 PUSH1 0x20 DUP3 ADD SWAP1 POP DUP2 DUP2 SUB PUSH1 0x0 DUP4 ADD MSTORE PUSH2 0x5D06 DUP2 PUSH2 0x5CCA JUMP JUMPDEST SWAP1 POP SWAP2 SWAP1 POP JUMP JUMPDEST PUSH1 0x0 PUSH1 0x40 DUP3 ADD SWAP1 POP PUSH2 0x5D22 PUSH1 0x0 DUP4 ADD DUP6 PUSH2 0x5119 JUMP JUMPDEST PUSH2 0x5D2F PUSH1 0x20 DUP4 ADD DUP5 PUSH2 0x424A JUMP JUMPDEST SWAP4 SWAP3 POP POP POP JUMP JUMPDEST PUSH1 0x0 DUP2 SWAP1 POP SWAP3 SWAP2 POP POP JUMP JUMPDEST PUSH1 0x0 PUSH2 0x5D4C DUP3 PUSH2 0x4441 JUMP JUMPDEST PUSH2 0x5D56 DUP2 DUP6 PUSH2 0x5D36 JUMP JUMPDEST SWAP4 POP PUSH2 0x5D66 DUP2 DUP6 PUSH1 0x20 DUP7 ADD PUSH2 0x445D JUMP JUMPDEST DUP1 DUP5 ADD SWAP2 POP POP SWAP3 SWAP2 POP POP JUMP JUMPDEST PUSH1 0x0 PUSH2 0x5D7E DUP3 DUP5 PUSH2 0x5D41 JUMP JUMPDEST SWAP2 POP DUP2 SWAP1 POP SWAP3 SWAP2 POP POP JUMP JUMPDEST PUSH1 0x0 PUSH1 0x20 DUP3 DUP5 SUB SLT ISZERO PUSH2 0x5D9F JUMPI PUSH2 0x5D9E PUSH2 0x41F4 JUMP JUMPDEST JUMPDEST PUSH1 0x0 PUSH2 0x5DAD DUP5 DUP3 DUP6 ADD PUSH2 0x4BD8 JUMP JUMPDEST SWAP2 POP POP SWAP3 SWAP2 POP POP JUMP JUMPDEST PUSH1 0x0 PUSH1 0x60 DUP3 ADD SWAP1 POP PUSH2 0x5DCB PUSH1 0x0 DUP4 ADD DUP7 PUSH2 0x5119 JUMP JUMPDEST PUSH2 0x5DD8 PUSH1 0x20 DUP4 ADD DUP6 PUSH2 0x5119 JUMP JUMPDEST PUSH2 0x5DE5 PUSH1 0x40 DUP4 ADD DUP5 PUSH2 0x424A JUMP JUMPDEST SWAP5 SWAP4 POP POP POP POP JUMP INVALID LOG2 PUSH5 0x74726F6E58 0x22 SLT KECCAK256 SWAP9 BYTE SWAP6 PUSH20 0xAB8BE8BA8A2FC95F8B3A64732A8EE949D6AA2668 0xBF DUP4 0xFC PUSH19 0x9A0E77B64736F6C6343000812003300000000 "
    },
    "gasEstimates": {
      "creation": {
        "codeDepositCost": "4819800",
        "executionCost": "infinite",
        "totalCost": "infinite"
      },
      "external": {
        "": "197",
        "Admin_api_acceptOffer((uint256,address,uint256,bool))": "infinite",
        "Admin_api_cancelLoanOfferandWithdrawCollateral(uint256)": "infinite",
        "Admin_api_updateLoanTerms_info((uint256,uint256,uint256))": "infinite",
        "_reachCreationTime()": "2508",
        "_reachCurrentState()": "infinite",
        "_reachCurrentTime()": "2508",
        "_reachm_0Ref(uint256)": "infinite",
        "_reachp_1((uint256))": "infinite",
        "_reachp_3((uint256))": "infinite",
        "_reachp_4((uint256,(uint8,((uint256,address,uint256,bool)),(uint256),((uint256,uint256,uint256)),bool,(uint256),(uint256,bool))))": "infinite",
        "info_config()": "infinite",
        "info_loanTerms()": "infinite",
        "info_offer(uint256)": "infinite",
        "user_acceptLoan()": "infinite",
        "user_cancelOffer(uint256)": "infinite",
        "user_makeOffer(uint256,bool)": "infinite"
      },
      "internal": {
        "__reachm_0Ref(uint256)": "infinite",
        "_reacha_Admin_api_acceptOffer(struct T0 memory,struct ReachContract.Memory memory)": "infinite",
        "_reacha_Admin_api_cancelLoanOfferandWithdrawCollateral(uint256,struct ReachContract.Memory memory)": "infinite",
        "_reacha_Admin_api_updateLoanTerms_info(struct T3 memory,struct ReachContract.Memory memory)": "infinite",
        "_reacha_info_config(bool,struct ReachContract.Memory memory)": "infinite",
        "_reacha_info_loanTerms(bool,struct ReachContract.Memory memory)": "infinite",
        "_reacha_info_offer(uint256,struct ReachContract.Memory memory)": "infinite",
        "_reacha_user_acceptLoan(bool,struct ReachContract.Memory memory)": "infinite",
        "_reacha_user_cancelOffer(uint256,struct ReachContract.Memory memory)": "infinite",
        "_reacha_user_makeOffer(struct T8 memory,struct ReachContract.Memory memory)": "infinite",
        "_reachi_0(struct T18 memory,struct ReachContract.Memory memory)": "infinite",
        "_reachi_1(struct T5 memory,struct ReachContract.Memory memory)": "infinite",
        "_reachi_3(struct T5 memory,struct ReachContract.Memory memory)": "infinite",
        "_reachi_4(struct T10 memory,struct ReachContract.Memory memory)": "infinite",
        "_reachl_2(struct T20 memory,struct ReachContract.Memory memory)": "infinite",
        "array_set12(struct T11 memory[1] memory,uint256,struct T11 memory)": "infinite"
      }
    },
    "methodIdentifiers": {
      "Admin_api_acceptOffer((uint256,address,uint256,bool))": "1741f513",
      "Admin_api_cancelLoanOfferandWithdrawCollateral(uint256)": "9b4a40f0",
      "Admin_api_updateLoanTerms_info((uint256,uint256,uint256))": "3c667280",
      "_reachCreationTime()": "1e93b0f1",
      "_reachCurrentState()": "ab53f2c6",
      "_reachCurrentTime()": "83230757",
      "_reachm_0Ref(uint256)": "e9e71ad5",
      "_reachp_1((uint256))": "573b8510",
      "_reachp_3((uint256))": "41712c0a",
      "_reachp_4((uint256,(uint8,((uint256,address,uint256,bool)),(uint256),((uint256,uint256,uint256)),bool,(uint256),(uint256,bool))))": "f3d3e4c5",
      "info_config()": "039c1284",
      "info_loanTerms()": "06b56453",
      "info_offer(uint256)": "c5618ae8",
      "user_acceptLoan()": "0bdddce1",
      "user_cancelOffer(uint256)": "bcfa3e34",
      "user_makeOffer(uint256,bool)": "8c1f0d31"
    }
  },
  "abi": [
    {
      "inputs": [
        {
          "components": [
            {
              "internalType": "uint256",
              "name": "elem0",
              "type": "uint256"
            },
            {
              "components": [
                {
                  "internalType": "bool",
                  "name": "_active",
                  "type": "bool"
                },
                {
                  "internalType": "uint256",
                  "name": "_number_of_tokens_to_deposit",
                  "type": "uint256"
                },
                {
                  "internalType": "address payable",
                  "name": "_token",
                  "type": "address"
                }
              ],
              "internalType": "struct T17",
              "name": "elem1",
              "type": "tuple"
            },
            {
              "internalType": "address payable",
              "name": "elem2",
              "type": "address"
            },
            {
              "components": [
                {
                  "internalType": "address payable",
                  "name": "token",
                  "type": "address"
                },
                {
                  "internalType": "uint256",
                  "name": "number_of_tokens_to_deposit",
                  "type": "uint256"
                },
                {
                  "internalType": "bool",
                  "name": "active",
                  "type": "bool"
                }
              ],
              "internalType": "struct T2",
              "name": "elem3",
              "type": "tuple"
            },
            {
              "components": [
                {
                  "internalType": "uint256",
                  "name": "duration_in_blocks",
                  "type": "uint256"
                },
                {
                  "internalType": "uint256",
                  "name": "principle",
                  "type": "uint256"
                },
                {
                  "internalType": "uint256",
                  "name": "interest",
                  "type": "uint256"
                }
              ],
              "internalType": "struct T3",
              "name": "elem4",
              "type": "tuple"
            },
            {
              "internalType": "address payable",
              "name": "elem5",
              "type": "address"
            }
          ],
          "internalType": "struct T18",
          "name": "v6312",
          "type": "tuple"
        }
      ],
      "stateMutability": "payable",
      "type": "constructor"
    },
    {
      "inputs": [
        {
          "internalType": "uint256",
          "name": "msg",
          "type": "uint256"
        }
      ],
      "name": "ReachError",
      "type": "error"
    },
    {
      "anonymous": false,
      "inputs": [
        {
          "indexed": false,
          "internalType": "address",
          "name": "_who",
          "type": "address"
        },
        {
          "components": [
            {
              "internalType": "uint256",
              "name": "elem0",
              "type": "uint256"
            },
            {
              "components": [
                {
                  "internalType": "bool",
                  "name": "_active",
                  "type": "bool"
                },
                {
                  "internalType": "uint256",
                  "name": "_number_of_tokens_to_deposit",
                  "type": "uint256"
                },
                {
                  "internalType": "address payable",
                  "name": "_token",
                  "type": "address"
                }
              ],
              "internalType": "struct T17",
              "name": "elem1",
              "type": "tuple"
            },
            {
              "internalType": "address payable",
              "name": "elem2",
              "type": "address"
            },
            {
              "components": [
                {
                  "internalType": "address payable",
                  "name": "token",
                  "type": "address"
                },
                {
                  "internalType": "uint256",
                  "name": "number_of_tokens_to_deposit",
                  "type": "uint256"
                },
                {
                  "internalType": "bool",
                  "name": "active",
                  "type": "bool"
                }
              ],
              "internalType": "struct T2",
              "name": "elem3",
              "type": "tuple"
            },
            {
              "components": [
                {
                  "internalType": "uint256",
                  "name": "duration_in_blocks",
                  "type": "uint256"
                },
                {
                  "internalType": "uint256",
                  "name": "principle",
                  "type": "uint256"
                },
                {
                  "internalType": "uint256",
                  "name": "interest",
                  "type": "uint256"
                }
              ],
              "internalType": "struct T3",
              "name": "elem4",
              "type": "tuple"
            },
            {
              "internalType": "address payable",
              "name": "elem5",
              "type": "address"
            }
          ],
          "indexed": false,
          "internalType": "struct T18",
          "name": "_a",
          "type": "tuple"
        }
      ],
      "name": "_reach_e0",
      "type": "event"
    },
    {
      "anonymous": false,
      "inputs": [
        {
          "indexed": false,
          "internalType": "address",
          "name": "_who",
          "type": "address"
        },
        {
          "components": [
            {
              "internalType": "uint256",
              "name": "elem0",
              "type": "uint256"
            }
          ],
          "indexed": false,
          "internalType": "struct T5",
          "name": "_a",
          "type": "tuple"
        }
      ],
      "name": "_reach_e1",
      "type": "event"
    },
    {
      "anonymous": false,
      "inputs": [
        {
          "indexed": false,
          "internalType": "address",
          "name": "_who",
          "type": "address"
        },
        {
          "components": [
            {
              "internalType": "uint256",
              "name": "elem0",
              "type": "uint256"
            }
          ],
          "indexed": false,
          "internalType": "struct T5",
          "name": "_a",
          "type": "tuple"
        }
      ],
      "name": "_reach_e3",
      "type": "event"
    },
    {
      "anonymous": false,
      "inputs": [
        {
          "indexed": false,
          "internalType": "address",
          "name": "_who",
          "type": "address"
        },
        {
          "components": [
            {
              "internalType": "uint256",
              "name": "elem0",
              "type": "uint256"
            },
            {
              "components": [
                {
                  "internalType": "enum _enum_T9",
                  "name": "which",
                  "type": "uint8"
                },
                {
                  "components": [
                    {
                      "components": [
                        {
                          "internalType": "uint256",
                          "name": "offerId",
                          "type": "uint256"
                        },
                        {
                          "internalType": "address payable",
                          "name": "borrower",
                          "type": "address"
                        },
                        {
                          "internalType": "uint256",
                          "name": "amount",
                          "type": "uint256"
                        },
                        {
                          "internalType": "bool",
                          "name": "rejected",
                          "type": "bool"
                        }
                      ],
                      "internalType": "struct T0",
                      "name": "elem0",
                      "type": "tuple"
                    }
                  ],
                  "internalType": "struct T4",
                  "name": "_Admin_api_acceptOffer0_118",
                  "type": "tuple"
                },
                {
                  "components": [
                    {
                      "internalType": "uint256",
                      "name": "elem0",
                      "type": "uint256"
                    }
                  ],
                  "internalType": "struct T5",
                  "name": "_Admin_api_cancelLoanOfferandWithdrawCollateral0_118",
                  "type": "tuple"
                },
                {
                  "components": [
                    {
                      "components": [
                        {
                          "internalType": "uint256",
                          "name": "duration_in_blocks",
                          "type": "uint256"
                        },
                        {
                          "internalType": "uint256",
                          "name": "principle",
                          "type": "uint256"
                        },
                        {
                          "internalType": "uint256",
                          "name": "interest",
                          "type": "uint256"
                        }
                      ],
                      "internalType": "struct T3",
                      "name": "elem0",
                      "type": "tuple"
                    }
                  ],
                  "internalType": "struct T6",
                  "name": "_Admin_api_updateLoanTerms_info0_118",
                  "type": "tuple"
                },
                {
                  "internalType": "bool",
                  "name": "_user_acceptLoan0_118",
                  "type": "bool"
                },
                {
                  "components": [
                    {
                      "internalType": "uint256",
                      "name": "elem0",
                      "type": "uint256"
                    }
                  ],
                  "internalType": "struct T5",
                  "name": "_user_cancelOffer0_118",
                  "type": "tuple"
                },
                {
                  "components": [
                    {
                      "internalType": "uint256",
                      "name": "elem0",
                      "type": "uint256"
                    },
                    {
                      "internalType": "bool",
                      "name": "elem1",
                      "type": "bool"
                    }
                  ],
                  "internalType": "struct T8",
                  "name": "_user_makeOffer0_118",
                  "type": "tuple"
                }
              ],
              "internalType": "struct T9",
              "name": "elem1",
              "type": "tuple"
            }
          ],
          "indexed": false,
          "internalType": "struct T10",
          "name": "_a",
          "type": "tuple"
        }
      ],
      "name": "_reach_e4",
      "type": "event"
    },
    {
      "anonymous": false,
      "inputs": [
        {
          "indexed": false,
          "internalType": "bool",
          "name": "v0",
          "type": "bool"
        }
      ],
      "name": "_reach_oe_v2503",
      "type": "event"
    },
    {
      "anonymous": false,
      "inputs": [
        {
          "indexed": false,
          "internalType": "bool",
          "name": "v0",
          "type": "bool"
        }
      ],
      "name": "_reach_oe_v2877",
      "type": "event"
    },
    {
      "anonymous": false,
      "inputs": [
        {
          "indexed": false,
          "internalType": "bool",
          "name": "v0",
          "type": "bool"
        }
      ],
      "name": "_reach_oe_v3241",
      "type": "event"
    },
    {
      "anonymous": false,
      "inputs": [
        {
          "indexed": false,
          "internalType": "bool",
          "name": "v0",
          "type": "bool"
        }
      ],
      "name": "_reach_oe_v3607",
      "type": "event"
    },
    {
      "anonymous": false,
      "inputs": [
        {
          "indexed": false,
          "internalType": "bool",
          "name": "v0",
          "type": "bool"
        }
      ],
      "name": "_reach_oe_v3986",
      "type": "event"
    },
    {
      "anonymous": false,
      "inputs": [
        {
          "components": [
            {
              "internalType": "uint256",
              "name": "offerId",
              "type": "uint256"
            },
            {
              "internalType": "address payable",
              "name": "borrower",
              "type": "address"
            },
            {
              "internalType": "uint256",
              "name": "amount",
              "type": "uint256"
            },
            {
              "internalType": "bool",
              "name": "rejected",
              "type": "bool"
            }
          ],
          "indexed": false,
          "internalType": "struct T0",
          "name": "v0",
          "type": "tuple"
        }
      ],
      "name": "_reach_oe_v4362",
      "type": "event"
    },
    {
      "stateMutability": "payable",
      "type": "fallback"
    },
    {
      "inputs": [
        {
          "components": [
            {
              "internalType": "uint256",
              "name": "offerId",
              "type": "uint256"
            },
            {
              "internalType": "address payable",
              "name": "borrower",
              "type": "address"
            },
            {
              "internalType": "uint256",
              "name": "amount",
              "type": "uint256"
            },
            {
              "internalType": "bool",
              "name": "rejected",
              "type": "bool"
            }
          ],
          "internalType": "struct T0",
          "name": "v6279",
          "type": "tuple"
        }
      ],
      "name": "Admin_api_acceptOffer",
      "outputs": [
        {
          "internalType": "bool",
          "name": "",
          "type": "bool"
        }
      ],
      "stateMutability": "payable",
      "type": "function"
    },
    {
      "inputs": [
        {
          "internalType": "uint256",
          "name": "v6285",
          "type": "uint256"
        }
      ],
      "name": "Admin_api_cancelLoanOfferandWithdrawCollateral",
      "outputs": [
        {
          "internalType": "bool",
          "name": "",
          "type": "bool"
        }
      ],
      "stateMutability": "payable",
      "type": "function"
    },
    {
      "inputs": [
        {
          "components": [
            {
              "internalType": "uint256",
              "name": "duration_in_blocks",
              "type": "uint256"
            },
            {
              "internalType": "uint256",
              "name": "principle",
              "type": "uint256"
            },
            {
              "internalType": "uint256",
              "name": "interest",
              "type": "uint256"
            }
          ],
          "internalType": "struct T3",
          "name": "v6291",
          "type": "tuple"
        }
      ],
      "name": "Admin_api_updateLoanTerms_info",
      "outputs": [
        {
          "internalType": "bool",
          "name": "",
          "type": "bool"
        }
      ],
      "stateMutability": "payable",
      "type": "function"
    },
    {
      "inputs": [],
      "name": "_reachCreationTime",
      "outputs": [
        {
          "internalType": "uint256",
          "name": "",
          "type": "uint256"
        }
      ],
      "stateMutability": "view",
      "type": "function"
    },
    {
      "inputs": [],
      "name": "_reachCurrentState",
      "outputs": [
        {
          "internalType": "uint256",
          "name": "",
          "type": "uint256"
        },
        {
          "internalType": "bytes",
          "name": "",
          "type": "bytes"
        }
      ],
      "stateMutability": "view",
      "type": "function"
    },
    {
      "inputs": [],
      "name": "_reachCurrentTime",
      "outputs": [
        {
          "internalType": "uint256",
          "name": "",
          "type": "uint256"
        }
      ],
      "stateMutability": "view",
      "type": "function"
    },
    {
      "inputs": [
        {
          "internalType": "uint256",
          "name": "addr",
          "type": "uint256"
        }
      ],
      "name": "_reachm_0Ref",
      "outputs": [
        {
          "components": [
            {
              "internalType": "enum _enum_T1",
              "name": "which",
              "type": "uint8"
            },
            {
              "internalType": "bool",
              "name": "_None",
              "type": "bool"
            },
            {
              "components": [
                {
                  "internalType": "uint256",
                  "name": "offerId",
                  "type": "uint256"
                },
                {
                  "internalType": "address payable",
                  "name": "borrower",
                  "type": "address"
                },
                {
                  "internalType": "uint256",
                  "name": "amount",
                  "type": "uint256"
                },
                {
                  "internalType": "bool",
                  "name": "rejected",
                  "type": "bool"
                }
              ],
              "internalType": "struct T0",
              "name": "_Some",
              "type": "tuple"
            }
          ],
          "internalType": "struct T1",
          "name": "res",
          "type": "tuple"
        }
      ],
      "stateMutability": "view",
      "type": "function"
    },
    {
      "inputs": [
        {
          "components": [
            {
              "internalType": "uint256",
              "name": "elem0",
              "type": "uint256"
            }
          ],
          "internalType": "struct T5",
          "name": "v6315",
          "type": "tuple"
        }
      ],
      "name": "_reachp_1",
      "outputs": [
        {
          "internalType": "bool",
          "name": "",
          "type": "bool"
        }
      ],
      "stateMutability": "payable",
      "type": "function"
    },
    {
      "inputs": [
        {
          "components": [
            {
              "internalType": "uint256",
              "name": "elem0",
              "type": "uint256"
            }
          ],
          "internalType": "struct T5",
          "name": "v6318",
          "type": "tuple"
        }
      ],
      "name": "_reachp_3",
      "outputs": [
        {
          "internalType": "bool",
          "name": "",
          "type": "bool"
        }
      ],
      "stateMutability": "payable",
      "type": "function"
    },
    {
      "inputs": [
        {
          "components": [
            {
              "internalType": "uint256",
              "name": "elem0",
              "type": "uint256"
            },
            {
              "components": [
                {
                  "internalType": "enum _enum_T9",
                  "name": "which",
                  "type": "uint8"
                },
                {
                  "components": [
                    {
                      "components": [
                        {
                          "internalType": "uint256",
                          "name": "offerId",
                          "type": "uint256"
                        },
                        {
                          "internalType": "address payable",
                          "name": "borrower",
                          "type": "address"
                        },
                        {
                          "internalType": "uint256",
                          "name": "amount",
                          "type": "uint256"
                        },
                        {
                          "internalType": "bool",
                          "name": "rejected",
                          "type": "bool"
                        }
                      ],
                      "internalType": "struct T0",
                      "name": "elem0",
                      "type": "tuple"
                    }
                  ],
                  "internalType": "struct T4",
                  "name": "_Admin_api_acceptOffer0_118",
                  "type": "tuple"
                },
                {
                  "components": [
                    {
                      "internalType": "uint256",
                      "name": "elem0",
                      "type": "uint256"
                    }
                  ],
                  "internalType": "struct T5",
                  "name": "_Admin_api_cancelLoanOfferandWithdrawCollateral0_118",
                  "type": "tuple"
                },
                {
                  "components": [
                    {
                      "components": [
                        {
                          "internalType": "uint256",
                          "name": "duration_in_blocks",
                          "type": "uint256"
                        },
                        {
                          "internalType": "uint256",
                          "name": "principle",
                          "type": "uint256"
                        },
                        {
                          "internalType": "uint256",
                          "name": "interest",
                          "type": "uint256"
                        }
                      ],
                      "internalType": "struct T3",
                      "name": "elem0",
                      "type": "tuple"
                    }
                  ],
                  "internalType": "struct T6",
                  "name": "_Admin_api_updateLoanTerms_info0_118",
                  "type": "tuple"
                },
                {
                  "internalType": "bool",
                  "name": "_user_acceptLoan0_118",
                  "type": "bool"
                },
                {
                  "components": [
                    {
                      "internalType": "uint256",
                      "name": "elem0",
                      "type": "uint256"
                    }
                  ],
                  "internalType": "struct T5",
                  "name": "_user_cancelOffer0_118",
                  "type": "tuple"
                },
                {
                  "components": [
                    {
                      "internalType": "uint256",
                      "name": "elem0",
                      "type": "uint256"
                    },
                    {
                      "internalType": "bool",
                      "name": "elem1",
                      "type": "bool"
                    }
                  ],
                  "internalType": "struct T8",
                  "name": "_user_makeOffer0_118",
                  "type": "tuple"
                }
              ],
              "internalType": "struct T9",
              "name": "elem1",
              "type": "tuple"
            }
          ],
          "internalType": "struct T10",
          "name": "v6321",
          "type": "tuple"
        }
      ],
      "name": "_reachp_4",
      "outputs": [
        {
          "internalType": "bool",
          "name": "",
          "type": "bool"
        }
      ],
      "stateMutability": "payable",
      "type": "function"
    },
    {
      "inputs": [],
      "name": "info_config",
      "outputs": [
        {
          "components": [
            {
              "internalType": "address payable",
              "name": "token",
              "type": "address"
            },
            {
              "internalType": "uint256",
              "name": "number_of_tokens_to_deposit",
              "type": "uint256"
            },
            {
              "internalType": "bool",
              "name": "active",
              "type": "bool"
            }
          ],
          "internalType": "struct T2",
          "name": "",
          "type": "tuple"
        }
      ],
      "stateMutability": "view",
      "type": "function"
    },
    {
      "inputs": [],
      "name": "info_loanTerms",
      "outputs": [
        {
          "components": [
            {
              "internalType": "uint256",
              "name": "duration_in_blocks",
              "type": "uint256"
            },
            {
              "internalType": "uint256",
              "name": "principle",
              "type": "uint256"
            },
            {
              "internalType": "uint256",
              "name": "interest",
              "type": "uint256"
            }
          ],
          "internalType": "struct T3",
          "name": "",
          "type": "tuple"
        }
      ],
      "stateMutability": "view",
      "type": "function"
    },
    {
      "inputs": [
        {
          "internalType": "uint256",
          "name": "v6273",
          "type": "uint256"
        }
      ],
      "name": "info_offer",
      "outputs": [
        {
          "components": [
            {
              "internalType": "enum _enum_T1",
              "name": "which",
              "type": "uint8"
            },
            {
              "internalType": "bool",
              "name": "_None",
              "type": "bool"
            },
            {
              "components": [
                {
                  "internalType": "uint256",
                  "name": "offerId",
                  "type": "uint256"
                },
                {
                  "internalType": "address payable",
                  "name": "borrower",
                  "type": "address"
                },
                {
                  "internalType": "uint256",
                  "name": "amount",
                  "type": "uint256"
                },
                {
                  "internalType": "bool",
                  "name": "rejected",
                  "type": "bool"
                }
              ],
              "internalType": "struct T0",
              "name": "_Some",
              "type": "tuple"
            }
          ],
          "internalType": "struct T1",
          "name": "",
          "type": "tuple"
        }
      ],
      "stateMutability": "view",
      "type": "function"
    },
    {
      "inputs": [],
      "name": "user_acceptLoan",
      "outputs": [
        {
          "internalType": "bool",
          "name": "",
          "type": "bool"
        }
      ],
      "stateMutability": "payable",
      "type": "function"
    },
    {
      "inputs": [
        {
          "internalType": "uint256",
          "name": "v6301",
          "type": "uint256"
        }
      ],
      "name": "user_cancelOffer",
      "outputs": [
        {
          "internalType": "bool",
          "name": "",
          "type": "bool"
        }
      ],
      "stateMutability": "payable",
      "type": "function"
    },
    {
      "inputs": [
        {
          "internalType": "uint256",
          "name": "v6308",
          "type": "uint256"
        },
        {
          "internalType": "bool",
          "name": "v6309",
          "type": "bool"
        }
      ],
      "name": "user_makeOffer",
      "outputs": [
        {
          "components": [
            {
              "internalType": "uint256",
              "name": "offerId",
              "type": "uint256"
            },
            {
              "internalType": "address payable",
              "name": "borrower",
              "type": "address"
            },
            {
              "internalType": "uint256",
              "name": "amount",
              "type": "uint256"
            },
            {
              "internalType": "bool",
              "name": "rejected",
              "type": "bool"
            }
          ],
          "internalType": "struct T0",
          "name": "",
          "type": "tuple"
        }
      ],
      "stateMutability": "payable",
      "type": "function"
    },
    {
      "stateMutability": "payable",
      "type": "receive"
    }
  ]
}