{
  "data": {
    "bytecode": {
      "linkReferences": {},
      "object": "608060405260405162006f6a38038062006f6a8339818101604052810190620000299190620009d1565b5f8081905550436003819055506200004062000493565b6200005282826200005a60201b60201c565b50506200116f565b620000646200054e565b6200008660045f9054906101000a900460ff16156015620003be60201b60201c565b7f9660c10419d34cce8fbb42cdf0cb6de03e621f5bc15c0c2d5e328a48af41e5073384604051620000b992919062000b37565b60405180910390a1620000e95f845f01511480620000db5750835f0151600154145b6016620003be60201b60201c565b5f815f01515f0181815250505f815f015160200181815250505f815f01516040019015159081151581525050805f015181602001515f6001811062000133576200013262000b63565b5b6020020181905250620001747fffffffffffffffffffffffffffffffffffffffffffffffffffffffffffffffff8460800151106017620003be60201b60201c565b6200018f6001846080015110156018620003be60201b60201c565b620001a45f34146019620003be60201b60201c565b620001ae62000578565b33815f019073ffffffffffffffffffffffffffffffffffffffff16908173ffffffffffffffffffffffffffffffffffffffff168152505083602001518160200190151590811515815250508360400151816040018181525050836060015181606001818152505083608001518160800181815250508360a001518160a00181815250508360c001518160c0019073ffffffffffffffffffffffffffffffffffffffff16908173ffffffffffffffffffffffffffffffffffffffff16815250508360e001518160e001818152505083610100015181610100019073ffffffffffffffffffffffffffffffffffffffff16908173ffffffffffffffffffffffffffffffffffffffff168152505083610120015181610120019073ffffffffffffffffffffffffffffffffffffffff16908173ffffffffffffffffffffffffffffffffffffffff16815250506200036e82602001515f60405180606001604052805f815260200186602001515f600181106200032c576200032b62000b63565b5b602002015160200151815260200186602001515f6001811062000354576200035362000b63565b5b60200201516040015115158152506200040760201b60201c565b81610140018190525060015f81905550436001819055508060405160200162000398919062000d6f565b60405160208183030381529060405260029081620003b7919062000fb9565b5050505050565b816200040357806040517f100960cb000000000000000000000000000000000000000000000000000000008152600401620003fa9190620010ae565b60405180910390fd5b5050565b620004116200062a565b5f5b60018110156200046c5784816001811062000433576200043262000b63565b5b60200201518282600181106200044e576200044d62000b63565b5b602002018190525080806200046390620010f6565b91505062000413565b508181846001811062000484576200048362000b63565b5b60200201819052509392505050565b6040518061026001604052805f151581526020015f151581526020015f81526020015f81526020015f81526020015f151581526020015f81526020015f15158152602001620004e16200065a565b81526020015f81526020015f81526020015f73ffffffffffffffffffffffffffffffffffffffff1681526020015f1515815260200162000520620006b8565b81526020015f151581526020015f151581526020015f151581526020015f151581526020015f151581525090565b60405180604001604052806200056362000703565b8152602001620005726200062a565b81525090565b6040518061016001604052805f73ffffffffffffffffffffffffffffffffffffffff1681526020015f151581526020015f81526020015f81526020015f81526020015f81526020015f73ffffffffffffffffffffffffffffffffffffffff1681526020015f81526020015f73ffffffffffffffffffffffffffffffffffffffff1681526020015f73ffffffffffffffffffffffffffffffffffffffff168152602001620006246200062a565b81525090565b60405180602001604052806001905b6200064362000703565b815260200190600190039081620006395790505090565b6040518060c001604052805f81526020015f81526020015f73ffffffffffffffffffffffffffffffffffffffff1681526020015f81526020015f151581526020015f73ffffffffffffffffffffffffffffffffffffffff1681525090565b60405180606001604052805f6001811115620006d957620006d862001142565b5b81526020015f151581526020015f73ffffffffffffffffffffffffffffffffffffffff1681525090565b60405180606001604052805f81526020015f81526020015f151581525090565b5f604051905090565b5f80fd5b5f80fd5b5f601f19601f8301169050919050565b7f4e487b71000000000000000000000000000000000000000000000000000000005f52604160045260245ffd5b6200077c8262000734565b810181811067ffffffffffffffff821117156200079e576200079d62000744565b5b80604052505050565b5f620007b262000723565b9050620007c0828262000771565b919050565b5f819050919050565b620007d981620007c5565b8114620007e4575f80fd5b50565b5f81519050620007f781620007ce565b92915050565b5f8115159050919050565b6200081381620007fd565b81146200081e575f80fd5b50565b5f81519050620008318162000808565b92915050565b5f74ffffffffffffffffffffffffffffffffffffffffff82169050919050565b620008628162000837565b81146200086d575f80fd5b50565b5f73ffffffffffffffffffffffffffffffffffffffff82169050919050565b5f6200089b8262000870565b9050919050565b5f81519050620008b28162000857565b620008bd816200088f565b905092915050565b5f6101408284031215620008de57620008dd62000730565b5b620008eb610140620007a7565b90505f620008fc84828501620007e7565b5f830152506020620009118482850162000821565b60208301525060406200092784828501620007e7565b60408301525060606200093d84828501620007e7565b60608301525060806200095384828501620007e7565b60808301525060a06200096984828501620007e7565b60a08301525060c06200097f84828501620008a2565b60c08301525060e06200099584828501620007e7565b60e083015250610100620009ac84828501620008a2565b61010083015250610120620009c484828501620008a2565b6101208301525092915050565b5f6101408284031215620009ea57620009e96200072c565b5b5f620009f984828501620008c5565b91505092915050565b5f62000a0e8262000870565b9050919050565b62000a208162000a02565b82525050565b62000a3181620007c5565b82525050565b62000a4281620007fd565b82525050565b62000a53816200088f565b82525050565b61014082015f82015162000a705f85018262000a26565b50602082015162000a85602085018262000a37565b50604082015162000a9a604085018262000a26565b50606082015162000aaf606085018262000a26565b50608082015162000ac4608085018262000a26565b5060a082015162000ad960a085018262000a26565b5060c082015162000aee60c085018262000a48565b5060e082015162000b0360e085018262000a26565b5061010082015162000b1a61010085018262000a48565b5061012082015162000b3161012085018262000a48565b50505050565b5f6101608201905062000b4d5f83018562000a15565b62000b5c602083018462000a59565b9392505050565b7f4e487b71000000000000000000000000000000000000000000000000000000005f52603260045260245ffd5b5f60019050919050565b5f81905092915050565b5f819050919050565b606082015f82015162000bc35f85018262000a26565b50602082015162000bd8602085018262000a26565b50604082015162000bed604085018262000a37565b50505050565b5f62000c00838362000bad565b60608301905092915050565b5f602082019050919050565b62000c238162000b90565b62000c2f818462000b9a565b925062000c3c8262000ba4565b805f5b8381101562000c7257815162000c56878262000bf3565b965062000c638362000c0c565b92505060018101905062000c3f565b505050505050565b6101a082015f82015162000c915f85018262000a48565b50602082015162000ca6602085018262000a37565b50604082015162000cbb604085018262000a26565b50606082015162000cd0606085018262000a26565b50608082015162000ce5608085018262000a26565b5060a082015162000cfa60a085018262000a26565b5060c082015162000d0f60c085018262000a48565b5060e082015162000d2460e085018262000a26565b5061010082015162000d3b61010085018262000a48565b5061012082015162000d5261012085018262000a48565b5061014082015162000d6961014085018262000c18565b50505050565b5f6101a08201905062000d855f83018462000c7a565b92915050565b5f81519050919050565b7f4e487b71000000000000000000000000000000000000000000000000000000005f52602260045260245ffd5b5f600282049050600182168062000dda57607f821691505b60208210810362000df05762000def62000d95565b5b50919050565b5f819050815f5260205f209050919050565b5f6020601f8301049050919050565b5f82821b905092915050565b5f6008830262000e547fffffffffffffffffffffffffffffffffffffffffffffffffffffffffffffffff8262000e17565b62000e60868362000e17565b95508019841693508086168417925050509392505050565b5f819050919050565b5f62000ea162000e9b62000e9584620007c5565b62000e78565b620007c5565b9050919050565b5f819050919050565b62000ebc8362000e81565b62000ed462000ecb8262000ea8565b84845462000e23565b825550505050565b5f90565b62000eea62000edc565b62000ef781848462000eb1565b505050565b5b8181101562000f1e5762000f125f8262000ee0565b60018101905062000efd565b5050565b601f82111562000f6d5762000f378162000df6565b62000f428462000e08565b8101602085101562000f52578190505b62000f6a62000f618562000e08565b83018262000efc565b50505b505050565b5f82821c905092915050565b5f62000f8f5f198460080262000f72565b1980831691505092915050565b5f62000fa9838362000f7e565b9150826002028217905092915050565b62000fc48262000d8b565b67ffffffffffffffff81111562000fe05762000fdf62000744565b5b62000fec825462000dc2565b62000ff982828562000f22565b5f60209050601f8311600181146200102f575f84156200101a578287015190505b62001026858262000f9c565b86555062001095565b601f1984166200103f8662000df6565b5f5b82811015620010685784890151825560018201915060208501945060208101905062001041565b8683101562001088578489015162001084601f89168262000f7e565b8355505b6001600288020188555050505b505050505050565b620010a881620007c5565b82525050565b5f602082019050620010c35f8301846200109d565b92915050565b7f4e487b71000000000000000000000000000000000000000000000000000000005f52601160045260245ffd5b5f6200110282620007c5565b91507fffffffffffffffffffffffffffffffffffffffffffffffffffffffffffffffff8203620011375762001136620010c9565b5b600182019050919050565b7f4e487b71000000000000000000000000000000000000000000000000000000005f52602160045260245ffd5b615ded806200117d5f395ff3fe60806040526004361061014e575f3560e01c80637888d2df116100b5578063a57924241161006e578063a57924241461057d578063ab53f2c6146105d1578063c4807dc714610614578063d184691f14610656578063eaa4fd5114610698578063fa726c84146106c857610155565b80637888d2df146104395780637a2b54dc1461047b5780638323075714610499578063883513de146104db5780638ddecb6d1461051d5780639686b6e91461055f57610155565b8063573b851011610107578063573b8510146102d15780635cd91bc2146103015780635fde30d8146103435780636a672754146103855780636cf1d802146103c757806373c86a71146103f757610155565b80630677e6851461015757806308e8b3fb146101995780631e93b0f1146101c9578063213b79231461020b57806336e56ea51461025f57806347dc4e6c146102b357610155565b3661015557005b005b348015610162575f80fd5b50d3801561016e575f80fd5b50d2801561017a575f80fd5b5061018361070a565b604051610190919061440b565b60405180910390f35b6101b360048036038101906101ae9190614453565b61072a565b6040516101c09190614498565b60405180910390f35b3480156101d4575f80fd5b50d380156101e0575f80fd5b50d280156101ec575f80fd5b506101f5610753565b604051610202919061440b565b60405180910390f35b348015610216575f80fd5b50d38015610222575f80fd5b50d2801561022e575f80fd5b5061024960048036038101906102449190614536565b61075c565b604051610256919061440b565b60405180910390f35b34801561026a575f80fd5b50d38015610276575f80fd5b50d28015610282575f80fd5b5061029d600480360381019061029891906145a7565b61077c565b6040516102aa9190614694565b60405180910390f35b6102bb610794565b6040516102c89190614498565b60405180910390f35b6102eb60048036038101906102e691906146cb565b6107b5565b6040516102f89190614498565b60405180910390f35b34801561030c575f80fd5b50d38015610318575f80fd5b50d28015610324575f80fd5b5061032d6107de565b60405161033a9190614498565b60405180910390f35b34801561034e575f80fd5b50d3801561035a575f80fd5b50d28015610366575f80fd5b5061036f6107fe565b60405161037c919061478d565b60405180910390f35b348015610390575f80fd5b50d3801561039c575f80fd5b50d280156103a8575f80fd5b506103b1610826565b6040516103be9190614498565b60405180910390f35b6103e160048036038101906103dc91906147d0565b610846565b6040516103ee9190614498565b60405180910390f35b348015610402575f80fd5b50d3801561040e575f80fd5b50d2801561041a575f80fd5b50610423610867565b6040516104309190614498565b60405180910390f35b348015610444575f80fd5b50d38015610450575f80fd5b50d2801561045c575f80fd5b50610465610888565b604051610472919061480a565b60405180910390f35b6104836108a9565b6040516104909190614498565b60405180910390f35b3480156104a4575f80fd5b50d380156104b0575f80fd5b50d280156104bc575f80fd5b506104c56108ca565b6040516104d2919061440b565b60405180910390f35b3480156104e6575f80fd5b50d380156104f2575f80fd5b50d280156104fe575f80fd5b506105076108d3565b604051610514919061440b565b60405180910390f35b348015610528575f80fd5b50d38015610534575f80fd5b50d28015610540575f80fd5b506105496108f3565b60405161055691906148a9565b60405180910390f35b61056761091b565b6040516105749190614498565b60405180910390f35b348015610588575f80fd5b50d38015610594575f80fd5b50d280156105a0575f80fd5b506105bb60048036038101906105b69190614536565b61093c565b6040516105c89190614498565b60405180910390f35b3480156105dc575f80fd5b50d380156105e8575f80fd5b50d280156105f4575f80fd5b506105fd61095c565b60405161060b92919061494c565b60405180910390f35b34801561061f575f80fd5b50d3801561062b575f80fd5b50d28015610637575f80fd5b506106406109f5565b60405161064d919061440b565b60405180910390f35b348015610661575f80fd5b50d3801561066d575f80fd5b50d28015610679575f80fd5b50610682610a16565b60405161068f919061440b565b60405180910390f35b6106b260048036038101906106ad9190614536565b610a36565b6040516106bf9190614498565b60405180910390f35b3480156106d3575f80fd5b50d380156106df575f80fd5b50d280156106eb575f80fd5b506106f4610a57565b604051610701919061440b565b60405180910390f35b5f610713613d34565b5f61071e8183610a78565b81606001519250505090565b5f610733613d34565b61074d838036038101906107479190614b9f565b82610b3a565b50919050565b5f600354905090565b5f610765613d34565b61076f8382612278565b8060c00151915050919050565b610784613deb565b61078d82612287565b9050919050565b5f61079d613d34565b5f6107a88183612406565b816101e001519250505090565b5f6107be613d34565b6107d8838036038101906107d29190614bca565b82612487565b50919050565b5f6107e7613d34565b5f6107f28183612963565b8160a001519250505090565b610806613e1f565b61080e613d34565b5f6108198183612a2b565b8161010001519250505090565b5f61082f613d34565b5f61083a8183612bbb565b81602001519250505090565b5f61084f613d34565b6108598382612c86565b806101c00151915050919050565b5f610870613d34565b5f61087b8183612d0b565b8161018001519250505090565b5f610891613d34565b5f61089c8183612dd8565b8161016001519250505090565b5f6108b2613d34565b5f6108bd8183612ec8565b8161024001519250505090565b5f600154905090565b5f6108dc613d34565b5f6108e78183612f49565b81604001519250505090565b6108fb613e7d565b610903613d34565b5f61090e818361300b565b816101a001519250505090565b5f610924613d34565b5f61092f81836130d2565b8161020001519250505090565b5f610945613d34565b61094f8382613153565b8060e00151915050919050565b5f60605f54600280805461096f90614c22565b80601f016020809104026020016040519081016040528092919081815260200182805461099b90614c22565b80156109e65780601f106109bd576101008083540402835291602001916109e6565b820191905f5260205f20905b8154815290600101906020018083116109c957829003601f168201915b50505050509050915091509091565b5f6109fe613d34565b5f610a098183613236565b8161012001519250505090565b5f610a1f613d34565b5f610a2a8183613308565b81608001519250505090565b5f610a3f613d34565b610a4983826133ca565b806102200151915050919050565b5f610a60613d34565b5f610a6b818361347e565b8161014001519250505090565b610a8760045f54146009613545565b5f60028054610a9590614c22565b80601f0160208091040260200160405190810160405280929190818152602001828054610ac190614c22565b8015610b0c5780601f10610ae357610100808354040283529160200191610b0c565b820191905f5260205f20905b815481529060010190602001808311610aef57829003601f168201915b5050505050806020019051810190610b24919061509e565b9050806101200151826060018181525050505050565b610b42613ec5565b610b5160045f54146020613545565b5f60028054610b5f90614c22565b80601f0160208091040260200160405190810160405280929190818152602001828054610b8b90614c22565b8015610bd65780601f10610bad57610100808354040283529160200191610bd6565b820191905f5260205f20905b815481529060010190602001808311610bb957829003601f168201915b5050505050806020019051810190610bee919061509e565b9050610c0a60045f9054906101000a900460ff16156021613545565b7fdaec047d8800b54c015aa48d6d37d33ec5420cb485b62f7e95edc2c08b8748353385604051610c3b9291906151f9565b60405180910390a1610c625f855f01511480610c5b5750845f0151600154145b6022613545565b5f6004811115610c7557610c746145d2565b5b84602001515f01516004811115610c8f57610c8e6145d2565b5b0361109d57836020015160200151825f0181905250610cbb816101200151826101600151106023613545565b610cd06001835f01515f015110156024613545565b610ce4825f01515f0151826080015161358b565b826020018181525050610cfe826020015134146025613545565b610d17610d10338360a001515f6135f7565b6026613545565b3382604001515f019073ffffffffffffffffffffffffffffffffffffffff16908173ffffffffffffffffffffffffffffffffffffffff1681525050815f01515f0151826040015160200181815250507fddbffbb525907340ac3c1399ea9f8a8184b2c6b84deb3dea35d09ba67e3087338260400151604051610d99919061524e565b60405180910390a17ff67b5442eec6842e73acccde1d66edc01c681e32a823f930b53aa7b097ef0ef16001604051610dd19190614498565b60405180910390a16001836101c00190151590811515815250508061014001515f015182606001515f019015159081151581525050610e19816101e00151836020015161360d565b82606001516020018181525050610e3a81610140015160400151600161360d565b826060015160400181815250508061014001516060015182606001516060019015159081151581525050610e7d81610140015160800151835f01515f015161360d565b8260600151608001818152505080610140015160a00151826060015160a001901515908115158152505080610140015160c00151826060015160c0018181525050806102000151826060015160e0018181525050806101400151610100015182606001516101000181905250610ef1613f7a565b815f0151815f019073ffffffffffffffffffffffffffffffffffffffff16908173ffffffffffffffffffffffffffffffffffffffff168152505081602001518160200190151590811515815250508160400151816040018181525050816060015181606001818152505081608001518160800181815250508160a001518160a0019073ffffffffffffffffffffffffffffffffffffffff16908173ffffffffffffffffffffffffffffffffffffffff16815250508160c001518160c00181815250508160e001518160e0019073ffffffffffffffffffffffffffffffffffffffff16908173ffffffffffffffffffffffffffffffffffffffff168152505081610100015181610100019073ffffffffffffffffffffffffffffffffffffffff16908173ffffffffffffffffffffffffffffffffffffffff168152505081610120015181610120018181525050826060015181610140018190525043816101600181815250504281610180018181525050816101800151816101a00181905250611083826101a001518460200151613665565b816101c00181815250506110978185613671565b50612272565b600160048111156110b1576110b06145d2565b5b84602001515f015160048111156110cb576110ca6145d2565b5b0361165e576110fd600182610140015161010001515f015160018111156110f5576110f46145d2565b5b146027613545565b61110d816101c001516028613545565b61113f8161018001515f6001811061112857611127615267565b5b60200201515f015182610200015111156029613545565b600180811115611152576111516145d2565b5b81610140015161010001515f01516001811115611172576111716145d2565b5b1461118057805f0151611190565b8061014001516101000151604001515b826080019073ffffffffffffffffffffffffffffffffffffffff16908173ffffffffffffffffffffffffffffffffffffffff16815250506112043373ffffffffffffffffffffffffffffffffffffffff16836080015173ffffffffffffffffffffffffffffffffffffffff1614602a613545565b6112115f3414602b613545565b61122a611223338360a001515f6135f7565b602c613545565b61123d816101200151421015602d613545565b61126f8160a0015183608001518361018001515f6001811061126257611261615267565b5b60200201515f015161395b565b611297816101e0015161129261128b846101a00151600561358b565b6064613973565b6139ca565b8260a00181815250506112b3816101a001518360a00151613a22565b8260c0018181525050805f015173ffffffffffffffffffffffffffffffffffffffff166108fc8360a0015190811502906040515f60405180830381858888f19350505050158015611306573d5f803e3d5ffd5b507f0c0a9acc8218979821ea9b80614482163e7deb99211c322dd6e45d00ba48d64f60016040516113379190614498565b60405180910390a16001836101e001901515908115158152505060018260e001515f0190151590811515815250508160c001518260e001516020018181525050806101400151604001518260e00151604001818152505060018260e001516060019015159081151581525050806101400151608001518260e0015160800181815250505f8260e0015160a001901515908115158152505080610140015160c001518260e0015160c00181815250505f8260e0015160e001818152505080610140015161010001518260e001516101000181905250611413613f7a565b815f0151815f019073ffffffffffffffffffffffffffffffffffffffff16908173ffffffffffffffffffffffffffffffffffffffff168152505081602001518160200190151590811515815250508160400151816040018181525050816060015181606001818152505081608001518160800181815250508160a001518160a0019073ffffffffffffffffffffffffffffffffffffffff16908173ffffffffffffffffffffffffffffffffffffffff16815250508160c001518160c00181815250508160e001518160e0019073ffffffffffffffffffffffffffffffffffffffff16908173ffffffffffffffffffffffffffffffffffffffff168152505081610100015181610100019073ffffffffffffffffffffffffffffffffffffffff16908173ffffffffffffffffffffffffffffffffffffffff1681525050816101200151816101200181815250508260e00151816101400181905250438161016001818152505042816101800181815250506116368261018001515f60405180606001604052806115e08761018001515f600181106115b3576115b2615267565b5b60200201515f01518861018001515f600181106115d3576115d2615267565b5b60200201515f0151613a22565b81526020018661018001515f600181106115fd576115fc615267565b5b60200201516020015181526020018661018001515f6001811061162357611622615267565b5b6020020151604001511515815250613a2e565b816101a001819052508260c00151816101c00181815250506116588185613671565b50612271565b60026004811115611672576116716145d2565b5b84602001515f0151600481111561168c5761168b6145d2565b5b03611af95761170d815f015173ffffffffffffffffffffffffffffffffffffffff163373ffffffffffffffffffffffffffffffffffffffff16146117035781610100015173ffffffffffffffffffffffffffffffffffffffff163373ffffffffffffffffffffffffffffffffffffffff1614611706565b60015b602e613545565b61171d816101c00151602f613545565b6117335f82610140015160800151146030613545565b6117405f34146031613545565b611759611752338360a001515f6135f7565b6032613545565b7f15b7a8f989a94ee2cbb2ef15cccc477ddeda9bb831d05adebae6f4bd510f17b460016040516117899190614498565b60405180910390a16001836102000190151590811515815250506117d48160a00151825f01518361018001515f600181106117c7576117c6615267565b5b60200201515f015161395b565b8061014001515f01518261010001515f019015159081151581525050806101e001518261010001516020018181525050806101400151604001518261010001516040018181525050600182610100015160600190151590811515815250508061014001516080015182610100015160800181815250505f82610100015160a001901515908115158152505080610140015160c0015182610100015160c001818152505080610200015182610100015160e0018181525050806101400151610100015182610100015161010001819052506118ac613f7a565b815f0151815f019073ffffffffffffffffffffffffffffffffffffffff16908173ffffffffffffffffffffffffffffffffffffffff168152505081602001518160200190151590811515815250508160400151816040018181525050816060015181606001818152505081608001518160800181815250508160a001518160a0019073ffffffffffffffffffffffffffffffffffffffff16908173ffffffffffffffffffffffffffffffffffffffff16815250508160c001518160c00181815250508160e001518160e0019073ffffffffffffffffffffffffffffffffffffffff16908173ffffffffffffffffffffffffffffffffffffffff168152505081610100015181610100019073ffffffffffffffffffffffffffffffffffffffff16908173ffffffffffffffffffffffffffffffffffffffff16815250508161012001518161012001818152505082610100015181610140018190525043816101600181815250504281610180018181525050611ad08261018001515f6040518060600160405280611a7a8761018001515f60018110611a4d57611a4c615267565b5b60200201515f01518861018001515f60018110611a6d57611a6c615267565b5b60200201515f0151613a22565b81526020018661018001515f60018110611a9757611a96615267565b5b60200201516020015181526020018661018001515f60018110611abd57611abc615267565b5b6020020151604001511515815250613a2e565b816101a00181905250816101a00151816101c0018181525050611af38185613671565b50612270565b60036004811115611b0d57611b0c6145d2565b5b84602001515f01516004811115611b2757611b266145d2565b5b0361202a57836020015160800151826101200181905250611b6a5f82610140015161010001515f01516001811115611b6257611b616145d2565b5b146033613545565b611b7a816101c001516034613545565b611bb881610100015173ffffffffffffffffffffffffffffffffffffffff163373ffffffffffffffffffffffffffffffffffffffff16146035613545565b611bc55f34146036613545565b611bde611bd7338360a001515f6135f7565b6037613545565b611bf18161012001514210156038613545565b611c0b611c04826101a00151600561358b565b6064613973565b82610140018181525050611c29816101a00151836101400151613a22565b8261016001818152505080610100015173ffffffffffffffffffffffffffffffffffffffff166108fc83610140015190811502906040515f60405180830381858888f19350505050158015611c80573d5f803e3d5ffd5b50611c95826101600151836101600151613a22565b82610180018181525050805f015173ffffffffffffffffffffffffffffffffffffffff166108fc83610160015190811502906040515f60405180830381858888f19350505050158015611cea573d5f803e3d5ffd5b507fcba112fe45411fe7ca22520e56a0031f6e0483241f971fdbf31b347e84ca29fe5f604051611d1a9190614498565b60405180910390a15f836102200190151590811515815250506001826101a001515f01906001811115611d5057611d4f6145d2565b5b90816001811115611d6457611d636145d2565b5b815250508161012001515f0151826101a001516040019073ffffffffffffffffffffffffffffffffffffffff16908173ffffffffffffffffffffffffffffffffffffffff16815250506001826101c001515f019015159081151581525050816101800151826101c00151602001818152505080610140015160400151826101c00151604001818152505080610140015160600151826101c00151606001901515908115158152505080610140015160800151826101c00151608001818152505080610140015160a00151826101c0015160a001901515908115158152505080610140015160c00151826101c0015160c0018181525050806102000151826101c0015160e0018181525050816101a00151826101c001516101000181905250611e8a613f7a565b815f0151815f019073ffffffffffffffffffffffffffffffffffffffff16908173ffffffffffffffffffffffffffffffffffffffff168152505081602001518160200190151590811515815250508160400151816040018181525050816060015181606001818152505081608001518160800181815250508160a001518160a0019073ffffffffffffffffffffffffffffffffffffffff16908173ffffffffffffffffffffffffffffffffffffffff16815250508160c001518160c00181815250508160e001518160e0019073ffffffffffffffffffffffffffffffffffffffff16908173ffffffffffffffffffffffffffffffffffffffff168152505081610100015181610100019073ffffffffffffffffffffffffffffffffffffffff16908173ffffffffffffffffffffffffffffffffffffffff168152505081610120015181610120018181525050826101c0015181610140018190525043816101600181815250504281610180018181525050816101800151816101a00181905250826101800151816101c00181815250506120248185613671565b5061226f565b60048081111561203d5761203c6145d2565b5b84602001515f01516004811115612057576120566145d2565b5b0361226e576120695f34146039613545565b61208261207b338360a001515f6135f7565b603a613545565b7ff1d53e799d380b3013b8b620ce5c00381af7d8b3a0d260d5536374029f366b325f6040516120b19190614498565b60405180910390a15f836102400190151590811515815250506120d2613f7a565b815f0151815f019073ffffffffffffffffffffffffffffffffffffffff16908173ffffffffffffffffffffffffffffffffffffffff168152505081602001518160200190151590811515815250508160400151816040018181525050816060015181606001818152505081608001518160800181815250508160a001518160a0019073ffffffffffffffffffffffffffffffffffffffff16908173ffffffffffffffffffffffffffffffffffffffff16815250508160c001518160c00181815250508160e001518160e0019073ffffffffffffffffffffffffffffffffffffffff16908173ffffffffffffffffffffffffffffffffffffffff168152505081610100015181610100019073ffffffffffffffffffffffffffffffffffffffff16908173ffffffffffffffffffffffffffffffffffffffff16815250508161012001518161012001818152505081610140015181610140018190525043816101600181815250504281610180018181525050816101800151816101a00181905250816101a00151816101c001818152505061226c8185613671565b505b5b5b5b5b50505050565b6122835f600c613545565b5050565b61228f613deb565b6001808111156122a2576122a16145d2565b5b60055f8473ffffffffffffffffffffffffffffffffffffffff1673ffffffffffffffffffffffffffffffffffffffff1681526020019081526020015f205f015f9054906101000a900460ff166001811115612300576122ff6145d2565b5b036123c15760055f8373ffffffffffffffffffffffffffffffffffffffff1673ffffffffffffffffffffffffffffffffffffffff1681526020019081526020015f206040518060600160405290815f82015f9054906101000a900460ff1660018111156123705761236f6145d2565b5b6001811115612382576123816145d2565b5b81526020015f820160019054906101000a900460ff161515151581526020015f820160029054906101000a900460ff1615151515815250509050612401565b5f815f019060018111156123d8576123d76145d2565b5b908160018111156123ec576123eb6145d2565b5b815250505f8160200190151590811515815250505b919050565b61240e614049565b600181602001515f0190600481111561242a576124296145d2565b5b9081600481111561243e5761243d6145d2565b5b81525050805f01518160200151604001901515908115158152505061246161406a565b5f815f018181525050816020015181602001819052506124818184610b3a565b50505050565b61248f614089565b61249e60015f5414601a613545565b5f600280546124ac90614c22565b80601f01602080910402602001604051908101604052809291908181526020018280546124d890614c22565b80156125235780601f106124fa57610100808354040283529160200191612523565b820191905f5260205f20905b81548152906001019060200180831161250657829003601f168201915b505050505080602001905181019061253b919061539d565b905061255760045f9054906101000a900460ff1615601b613545565b7fcf0e8bec53cd91fa87ecf8f6f405ac75914a22acdb92a3553ee5c294fee8159633856040516125889291906153e3565b60405180910390a16125af5f855f015114806125a85750845f0151600154145b601c613545565b6125c08160a001513414601d613545565b6126588161014001515f60405180606001604052806126028661014001515f600181106125f0576125ef615267565b5b60200201515f01518760e00151613665565b81526020018561014001515f6001811061261f5761261e615267565b5b60200201516020015181526020018561014001515f6001811061264557612644615267565b5b6020020151604001511515815250613a2e565b825f018190525061267c612675338360c001518460e001516135f7565b601e613545565b6126b83373ffffffffffffffffffffffffffffffffffffffff16825f015173ffffffffffffffffffffffffffffffffffffffff1614601f613545565b5f82602001515f019060018111156126d3576126d26145d2565b5b908160018111156126e7576126e66145d2565b5b815250505f826020015160200190151590811515815250505f82604001515f0190151590811515815250508060a00151826040015160200181815250505f826040015160400181815250505f826040015160600190151590811515815250505f826040015160800181815250506001826040015160a00190151590811515815250506005826040015160c0018181525050815f01515f6001811061278e5761278d615267565b5b60200201515f0151826040015160e00181815250508160200151826040015161010001819052506127bd613f7a565b815f0151815f019073ffffffffffffffffffffffffffffffffffffffff16908173ffffffffffffffffffffffffffffffffffffffff168152505081602001518160200190151590811515815250508160400151816040018181525050816060015181606001818152505081608001518160800181815250508160c001518160a0019073ffffffffffffffffffffffffffffffffffffffff16908173ffffffffffffffffffffffffffffffffffffffff16815250508160e001518160c00181815250508161010001518160e0019073ffffffffffffffffffffffffffffffffffffffff16908173ffffffffffffffffffffffffffffffffffffffff168152505081610120015181610100019073ffffffffffffffffffffffffffffffffffffffff16908173ffffffffffffffffffffffffffffffffffffffff168152505061290842836040015161360d565b81610120018181525050826040015181610140018190525043816101600181815250504281610180018181525050825f0151816101a001819052508160a00151816101c001818152505061295c8185613671565b5050505050565b61297260045f5414600b613545565b5f6002805461298090614c22565b80601f01602080910402602001604051908101604052809291908181526020018280546129ac90614c22565b80156129f75780601f106129ce576101008083540402835291602001916129f7565b820191905f5260205f20905b8154815290600101906020018083116129da57829003601f168201915b5050505050806020019051810190612a0f919061509e565b9050806101c001518260a0019015159081151581525050505050565b612a336140bc565b612a4260045f5414600e613545565b5f60028054612a5090614c22565b80601f0160208091040260200160405190810160405280929190818152602001828054612a7c90614c22565b8015612ac75780601f10612a9e57610100808354040283529160200191612ac7565b820191905f5260205f20905b815481529060010190602001808311612aaa57829003601f168201915b5050505050806020019051810190612adf919061509e565b90508060c00151825f01515f0181815250508060800151825f015160200181815250508060e00151825f01516040019073ffffffffffffffffffffffffffffffffffffffff16908173ffffffffffffffffffffffffffffffffffffffff16815250508060400151825f015160600181815250508060200151825f015160800190151590811515815250508060a00151825f015160a0019073ffffffffffffffffffffffffffffffffffffffff16908173ffffffffffffffffffffffffffffffffffffffff1681525050815f015183610100018190525050505050565b612bca60045f54146007613545565b5f60028054612bd890614c22565b80601f0160208091040260200160405190810160405280929190818152602001828054612c0490614c22565b8015612c4f5780601f10612c2657610100808354040283529160200191612c4f565b820191905f5260205f20905b815481529060010190602001808311612c3257829003601f168201915b5050505050806020019051810190612c67919061509e565b90508061014001515f0151826020019015159081151581525050505050565b612c8e6140d5565b82815f01515f0181815250505f81602001515f01906004811115612cb557612cb46145d2565b5b90816004811115612cc957612cc86145d2565b5b81525050805f0151816020015160200181905250612ce561406a565b5f815f01818152505081602001518160200181905250612d058184610b3a565b50505050565b612d1a60045f54146013613545565b5f60028054612d2890614c22565b80601f0160208091040260200160405190810160405280929190818152602001828054612d5490614c22565b8015612d9f5780601f10612d7657610100808354040283529160200191612d9f565b820191905f5260205f20905b815481529060010190602001808311612d8257829003601f168201915b5050505050806020019051810190612db7919061509e565b90508061014001516060015182610180019015159081151581525050505050565b612de760045f54146012613545565b5f60028054612df590614c22565b80601f0160208091040260200160405190810160405280929190818152602001828054612e2190614c22565b8015612e6c5780601f10612e4357610100808354040283529160200191612e6c565b820191905f5260205f20905b815481529060010190602001808311612e4f57829003601f168201915b5050505050806020019051810190612e84919061509e565b90508060a0015182610160019073ffffffffffffffffffffffffffffffffffffffff16908173ffffffffffffffffffffffffffffffffffffffff1681525050505050565b612ed06140fb565b600481602001515f01906004811115612eec57612eeb6145d2565b5b90816004811115612f0057612eff6145d2565b5b81525050805f0151816020015160a0019015159081151581525050612f2361406a565b5f815f01818152505081602001518160200181905250612f438184610b3a565b50505050565b612f5860045f54146008613545565b5f60028054612f6690614c22565b80601f0160208091040260200160405190810160405280929190818152602001828054612f9290614c22565b8015612fdd5780601f10612fb457610100808354040283529160200191612fdd565b820191905f5260205f20905b815481529060010190602001808311612fc057829003601f168201915b5050505050806020019051810190612ff5919061509e565b9050806101a00151826040018181525050505050565b61301a60045f54146014613545565b5f6002805461302890614c22565b80601f016020809104026020016040519081016040528092919081815260200182805461305490614c22565b801561309f5780601f106130765761010080835404028352916020019161309f565b820191905f5260205f20905b81548152906001019060200180831161308257829003601f168201915b50505050508060200190518101906130b7919061509e565b90508061014001516101000151826101a00181905250505050565b6130da61411c565b600281602001515f019060048111156130f6576130f56145d2565b5b9081600481111561310a576131096145d2565b5b81525050805f01518160200151606001901515908115158152505061312d61406a565b5f815f0181815250508160200151816020018190525061314d8184610b3a565b50505050565b61316260045f5414600d613545565b5f6002805461317090614c22565b80601f016020809104026020016040519081016040528092919081815260200182805461319c90614c22565b80156131e75780601f106131be576101008083540402835291602001916131e7565b820191905f5260205f20905b8154815290600101906020018083116131ca57829003601f168201915b50505050508060200190518101906131ff919061509e565b9050600161320c84612287565b5f01516001811115613221576132206145d2565b5b148260e0019015159081151581525050505050565b61324560045f5414600f613545565b5f6002805461325390614c22565b80601f016020809104026020016040519081016040528092919081815260200182805461327f90614c22565b80156132ca5780601f106132a1576101008083540402835291602001916132ca565b820191905f5260205f20905b8154815290600101906020018083116132ad57829003601f168201915b50505050508060200190518101906132e2919061509e565b90506132f4816101c001516010613545565b806060015182610120018181525050505050565b61331760045f5414600a613545565b5f6002805461332590614c22565b80601f016020809104026020016040519081016040528092919081815260200182805461335190614c22565b801561339c5780601f106133735761010080835404028352916020019161339c565b820191905f5260205f20905b81548152906001019060200180831161337f57829003601f168201915b50505050508060200190518101906133b4919061509e565b9050806101600151826080018181525050505050565b6133d261413d565b82815f01515f019073ffffffffffffffffffffffffffffffffffffffff16908173ffffffffffffffffffffffffffffffffffffffff1681525050600381602001515f01906004811115613428576134276145d2565b5b9081600481111561343c5761343b6145d2565b5b81525050805f015181602001516080018190525061345861406a565b5f815f018181525050816020015181602001819052506134788184610b3a565b50505050565b61348d60045f54146011613545565b5f6002805461349b90614c22565b80601f01602080910402602001604051908101604052809291908181526020018280546134c790614c22565b80156135125780601f106134e957610100808354040283529160200191613512565b820191905f5260205f20905b8154815290600101906020018083116134f557829003601f168201915b505050505080602001905181019061352a919061509e565b90508061014001516080015182610140018181525050505050565b8161358757806040517f100960cb00000000000000000000000000000000000000000000000000000000815260040161357e919061440b565b60405180910390fd5b5050565b5f808214806135b25750828283856135a39190615437565b9250826135b091906154a5565b145b6135f1576040517f08c379a00000000000000000000000000000000000000000000000000000000081526004016135e89061552f565b60405180910390fd5b92915050565b5f61360483853085613aab565b90509392505050565b5f82828461361b919061554d565b915081101561365f576040517f08c379a0000000000000000000000000000000000000000000000000000000008152600401613656906155ca565b60405180910390fd5b92915050565b5f818301905092915050565b81610140015160a00151613685575f61369d565b8161014001516060015161369a57600161369c565b5f5b5b156138bd576136aa614163565b825f0151815f019073ffffffffffffffffffffffffffffffffffffffff16908173ffffffffffffffffffffffffffffffffffffffff168152505082602001518160200190151590811515815250508260400151816040018181525050826060015181606001818152505082608001518160800181815250508260a001518160a0019073ffffffffffffffffffffffffffffffffffffffff16908173ffffffffffffffffffffffffffffffffffffffff16815250508260c001518160c00181815250508260e001518160e0019073ffffffffffffffffffffffffffffffffffffffff16908173ffffffffffffffffffffffffffffffffffffffff168152505082610100015181610100019073ffffffffffffffffffffffffffffffffffffffff16908173ffffffffffffffffffffffffffffffffffffffff16815250508261012001518161012001818152505082610140015181610140018190525082610180015181610160018181525050826101a00151816101800181905250826101c00151816101a00181815250508261012001518361018001511015816101c001901515908115158152505082610140015160200151816101e001818152505082610140015160e001518161020001818152505060045f8190555043600181905550806040516020016138999190615910565b604051602081830303815290604052600290816138b69190615ac7565b5050613957565b81610100015173ffffffffffffffffffffffffffffffffffffffff166108fc836101c0015190811502906040515f60405180830381858888f1935050505015801561390a573d5f803e3d5ffd5b5061393c8260a00151835f0151846101a001515f6001811061392f5761392e615267565b5b60200201515f015161395b565b5f80819055505f60018190555060025f6139569190614240565b5b5050565b613966838383613bbe565b61396e575f80fd5b505050565b5f8082036139b6576040517f08c379a00000000000000000000000000000000000000000000000000000000081526004016139ad90615be0565b60405180910390fd5b81836139c291906154a5565b905092915050565b5f8282846139d89190615bfe565b9150811115613a1c576040517f08c379a0000000000000000000000000000000000000000000000000000000008152600401613a1390615c7b565b60405180910390fd5b92915050565b5f818303905092915050565b613a3661427d565b5f5b6001811015613a8757848160018110613a5457613a53615267565b5b6020020151828260018110613a6c57613a6b615267565b5b60200201819052508080613a7f90615c99565b915050613a38565b5081818460018110613a9c57613a9b615267565b5b60200201819052509392505050565b5f805f8673ffffffffffffffffffffffffffffffffffffffff165f6323b872dd60e01b888888604051602401613ae393929190615ce0565b604051602081830303815290604052907bffffffffffffffffffffffffffffffffffffffffffffffffffffffff19166020820180517bffffffffffffffffffffffffffffffffffffffffffffffffffffffff8381831617835250505050604051613b4d9190615d4f565b5f6040518083038185875af1925050503d805f8114613b87576040519150601f19603f3d011682016040523d82523d5f602084013e613b8c565b606091505b5091509150613b9d82826001613cce565b5080806020019051810190613bb29190615d65565b92505050949350505050565b5f805f8573ffffffffffffffffffffffffffffffffffffffff165f63a9059cbb60e01b8787604051602401613bf4929190615d90565b604051602081830303815290604052907bffffffffffffffffffffffffffffffffffffffffffffffffffffffff19166020820180517bffffffffffffffffffffffffffffffffffffffffffffffffffffffff8381831617835250505050604051613c5e9190615d4f565b5f6040518083038185875af1925050503d805f8114613c98576040519150601f19603f3d011682016040523d82523d5f602084013e613c9d565b606091505b5091509150613cae82826002613cce565b5080806020019051810190613cc39190615d65565b925050509392505050565b60608315613cde57829050613d2d565b5f83511115613cf05782518084602001fd5b816040517f100960cb000000000000000000000000000000000000000000000000000000008152600401613d24919061440b565b60405180910390fd5b9392505050565b6040518061026001604052805f151581526020015f151581526020015f81526020015f81526020015f81526020015f151581526020015f81526020015f15158152602001613d80613e1f565b81526020015f81526020015f81526020015f73ffffffffffffffffffffffffffffffffffffffff1681526020015f15158152602001613dbd613e7d565b81526020015f151581526020015f151581526020015f151581526020015f151581526020015f151581525090565b60405180606001604052805f6001811115613e0957613e086145d2565b5b81526020015f151581526020015f151581525090565b6040518060c001604052805f81526020015f81526020015f73ffffffffffffffffffffffffffffffffffffffff1681526020015f81526020015f151581526020015f73ffffffffffffffffffffffffffffffffffffffff1681525090565b60405180606001604052805f6001811115613e9b57613e9a6145d2565b5b81526020015f151581526020015f73ffffffffffffffffffffffffffffffffffffffff1681525090565b604051806101e00160405280613ed96142aa565b81526020015f8152602001613eec6142bc565b8152602001613ef96142ea565b81526020015f73ffffffffffffffffffffffffffffffffffffffff1681526020015f81526020015f8152602001613f2e6142ea565b8152602001613f3b6142ea565b8152602001613f4861433a565b81526020015f81526020015f81526020015f8152602001613f67613e7d565b8152602001613f746142ea565b81525090565b604051806101e001604052805f73ffffffffffffffffffffffffffffffffffffffff1681526020015f151581526020015f81526020015f81526020015f81526020015f73ffffffffffffffffffffffffffffffffffffffff1681526020015f81526020015f73ffffffffffffffffffffffffffffffffffffffff1681526020015f73ffffffffffffffffffffffffffffffffffffffff1681526020015f81526020016140246142ea565b81526020015f81526020015f815260200161403d61427d565b81526020015f81525090565b60405180604001604052805f15158152602001614064614362565b81525090565b60405180604001604052805f8152602001614083614362565b81525090565b604051806060016040528061409c61427d565b81526020016140a9613e7d565b81526020016140b66142ea565b81525090565b60405180602001604052806140cf613e1f565b81525090565b60405180604001604052806140e86142aa565b81526020016140f5614362565b81525090565b60405180604001604052805f15158152602001614116614362565b81525090565b60405180604001604052805f15158152602001614137614362565b81525090565b604051806040016040528061415061433a565b815260200161415d614362565b81525090565b6040518061022001604052805f73ffffffffffffffffffffffffffffffffffffffff1681526020015f151581526020015f81526020015f81526020015f81526020015f73ffffffffffffffffffffffffffffffffffffffff1681526020015f81526020015f73ffffffffffffffffffffffffffffffffffffffff1681526020015f73ffffffffffffffffffffffffffffffffffffffff1681526020015f815260200161420d6142ea565b81526020015f815260200161422061427d565b81526020015f81526020015f151581526020015f81526020015f81525090565b50805461424c90614c22565b5f825580601f1061425d575061427a565b601f0160209004905f5260205f209081019061427991906143b8565b5b50565b60405180602001604052806001905b6142946143d3565b81526020019060019003908161428c5790505090565b60405180602001604052805f81525090565b60405180604001604052805f73ffffffffffffffffffffffffffffffffffffffff1681526020015f81525090565b6040518061012001604052805f151581526020015f81526020015f81526020015f151581526020015f81526020015f151581526020015f81526020015f8152602001614334613e7d565b81525090565b60405180602001604052805f73ffffffffffffffffffffffffffffffffffffffff1681525090565b6040518060c001604052805f60048111156143805761437f6145d2565b5b815260200161438d6142aa565b81526020015f151581526020015f151581526020016143aa61433a565b81526020015f151581525090565b5b808211156143cf575f815f9055506001016143b9565b5090565b60405180606001604052805f81526020015f81526020015f151581525090565b5f819050919050565b614405816143f3565b82525050565b5f60208201905061441e5f8301846143fc565b92915050565b5f604051905090565b5f80fd5b5f80fd5b5f60e0828403121561444a57614449614431565b5b81905092915050565b5f60e082840312156144685761446761442d565b5b5f61447584828501614435565b91505092915050565b5f8115159050919050565b6144928161447e565b82525050565b5f6020820190506144ab5f830184614489565b92915050565b5f74ffffffffffffffffffffffffffffffffffffffffff82169050919050565b6144da816144b1565b81146144e4575f80fd5b50565b5f73ffffffffffffffffffffffffffffffffffffffff82169050919050565b5f614510826144e7565b9050919050565b5f81359050614525816144d1565b61452e81614506565b905092915050565b5f6020828403121561454b5761454a61442d565b5b5f61455884828501614517565b91505092915050565b61456a816144b1565b8114614574575f80fd5b50565b5f614581826144e7565b9050919050565b5f8135905061459681614561565b61459f81614577565b905092915050565b5f602082840312156145bc576145bb61442d565b5b5f6145c984828501614588565b91505092915050565b7f4e487b71000000000000000000000000000000000000000000000000000000005f52602160045260245ffd5b600281106146105761460f6145d2565b5b50565b5f819050614620826145ff565b919050565b5f61462f82614613565b9050919050565b61463f81614625565b82525050565b61464e8161447e565b82525050565b606082015f8201516146685f850182614636565b50602082015161467b6020850182614645565b50604082015161468e6040850182614645565b50505050565b5f6060820190506146a75f830184614654565b92915050565b5f602082840312156146c2576146c1614431565b5b81905092915050565b5f602082840312156146e0576146df61442d565b5b5f6146ed848285016146ad565b91505092915050565b6146ff816143f3565b82525050565b61470e81614506565b82525050565b60c082015f8201516147285f8501826146f6565b50602082015161473b60208501826146f6565b50604082015161474e6040850182614705565b50606082015161476160608501826146f6565b5060808201516147746080850182614645565b5060a082015161478760a0850182614705565b50505050565b5f60c0820190506147a05f830184614714565b92915050565b6147af816143f3565b81146147b9575f80fd5b50565b5f813590506147ca816147a6565b92915050565b5f602082840312156147e5576147e461442d565b5b5f6147f2848285016147bc565b91505092915050565b61480481614506565b82525050565b5f60208201905061481d5f8301846147fb565b92915050565b60028110614834576148336145d2565b5b50565b5f81905061484482614823565b919050565b5f61485382614837565b9050919050565b61486381614849565b82525050565b606082015f82015161487d5f85018261485a565b5060208201516148906020850182614645565b5060408201516148a36040850182614705565b50505050565b5f6060820190506148bc5f830184614869565b92915050565b5f81519050919050565b5f82825260208201905092915050565b5f5b838110156148f95780820151818401526020810190506148de565b5f8484015250505050565b5f601f19601f8301169050919050565b5f61491e826148c2565b61492881856148cc565b93506149388185602086016148dc565b61494181614904565b840191505092915050565b5f60408201905061495f5f8301856143fc565b81810360208301526149718184614914565b90509392505050565b5f80fd5b7f4e487b71000000000000000000000000000000000000000000000000000000005f52604160045260245ffd5b6149b482614904565b810181811067ffffffffffffffff821117156149d3576149d261497e565b5b80604052505050565b5f6149e5614424565b90506149f182826149ab565b919050565b60058110614a02575f80fd5b50565b5f81359050614a13816149f6565b92915050565b5f60208284031215614a2e57614a2d61497a565b5b614a3860206149dc565b90505f614a47848285016147bc565b5f8301525092915050565b614a5b8161447e565b8114614a65575f80fd5b50565b5f81359050614a7681614a52565b92915050565b5f60208284031215614a9157614a9061497a565b5b614a9b60206149dc565b90505f614aaa84828501614517565b5f8301525092915050565b5f60c08284031215614aca57614ac961497a565b5b614ad460c06149dc565b90505f614ae384828501614a05565b5f830152506020614af684828501614a19565b6020830152506040614b0a84828501614a68565b6040830152506060614b1e84828501614a68565b6060830152506080614b3284828501614a7c565b60808301525060a0614b4684828501614a68565b60a08301525092915050565b5f60e08284031215614b6757614b6661497a565b5b614b7160406149dc565b90505f614b80848285016147bc565b5f830152506020614b9384828501614ab5565b60208301525092915050565b5f60e08284031215614bb457614bb361442d565b5b5f614bc184828501614b52565b91505092915050565b5f60208284031215614bdf57614bde61442d565b5b5f614bec84828501614a19565b91505092915050565b7f4e487b71000000000000000000000000000000000000000000000000000000005f52602260045260245ffd5b5f6002820490506001821680614c3957607f821691505b602082108103614c4c57614c4b614bf5565b5b50919050565b5f81519050614c60816144d1565b614c6981614506565b905092915050565b5f81519050614c7f81614a52565b92915050565b5f81519050614c93816147a6565b92915050565b60028110614ca5575f80fd5b50565b5f81519050614cb681614c99565b92915050565b5f60608284031215614cd157614cd061497a565b5b614cdb60606149dc565b90505f614cea84828501614ca8565b5f830152506020614cfd84828501614c71565b6020830152506040614d1184828501614c52565b60408301525092915050565b5f6101608284031215614d3357614d3261497a565b5b614d3e6101206149dc565b90505f614d4d84828501614c71565b5f830152506020614d6084828501614c85565b6020830152506040614d7484828501614c85565b6040830152506060614d8884828501614c71565b6060830152506080614d9c84828501614c85565b60808301525060a0614db084828501614c71565b60a08301525060c0614dc484828501614c85565b60c08301525060e0614dd884828501614c85565b60e083015250610100614ded84828501614cbc565b6101008301525092915050565b5f80fd5b5f67ffffffffffffffff821115614e1857614e1761497e565b5b602082029050919050565b5f80fd5b5f60608284031215614e3c57614e3b61497a565b5b614e4660606149dc565b90505f614e5584828501614c85565b5f830152506020614e6884828501614c85565b6020830152506040614e7c84828501614c71565b60408301525092915050565b5f614e9a614e9584614dfe565b6149dc565b90508060608402830185811115614eb457614eb3614e23565b5b835b81811015614edd5780614ec98882614e27565b845260208401935050606081019050614eb6565b5050509392505050565b5f82601f830112614efb57614efa614dfa565b5b6001614f08848285614e88565b91505092915050565b5f6103a08284031215614f2757614f2661497a565b5b614f326102206149dc565b90505f614f4184828501614c52565b5f830152506020614f5484828501614c71565b6020830152506040614f6884828501614c85565b6040830152506060614f7c84828501614c85565b6060830152506080614f9084828501614c85565b60808301525060a0614fa484828501614c52565b60a08301525060c0614fb884828501614c85565b60c08301525060e0614fcc84828501614c52565b60e083015250610100614fe184828501614c52565b61010083015250610120614ff784828501614c85565b6101208301525061014061500d84828501614d1d565b610140830152506102a061502384828501614c85565b610160830152506102c061503984828501614ee7565b6101808301525061032061504f84828501614c85565b6101a08301525061034061506584828501614c71565b6101c08301525061036061507b84828501614c85565b6101e08301525061038061509184828501614c85565b6102008301525092915050565b5f6103a082840312156150b4576150b361442d565b5b5f6150c184828501614f11565b91505092915050565b6150d381614577565b82525050565b600581106150ea576150e96145d2565b5b50565b5f8190506150fa826150d9565b919050565b5f615109826150ed565b9050919050565b615119816150ff565b82525050565b602082015f8201516151335f8501826146f6565b50505050565b602082015f82015161514d5f850182614705565b50505050565b60c082015f8201516151675f850182615110565b50602082015161517a602085018261511f565b50604082015161518d6040850182614645565b5060608201516151a06060850182614645565b5060808201516151b36080850182615139565b5060a08201516151c660a0850182614645565b50505050565b60e082015f8201516151e05f8501826146f6565b5060208201516151f36020850182615153565b50505050565b5f6101008201905061520d5f8301856150ca565b61521a60208301846151cc565b9392505050565b604082015f8201516152355f850182614705565b50602082015161524860208501826146f6565b50505050565b5f6040820190506152615f830184615221565b92915050565b7f4e487b71000000000000000000000000000000000000000000000000000000005f52603260045260245ffd5b5f6101a082840312156152aa576152a961497a565b5b6152b56101606149dc565b90505f6152c484828501614c52565b5f8301525060206152d784828501614c71565b60208301525060406152eb84828501614c85565b60408301525060606152ff84828501614c85565b606083015250608061531384828501614c85565b60808301525060a061532784828501614c85565b60a08301525060c061533b84828501614c52565b60c08301525060e061534f84828501614c85565b60e08301525061010061536484828501614c52565b6101008301525061012061537a84828501614c52565b6101208301525061014061539084828501614ee7565b6101408301525092915050565b5f6101a082840312156153b3576153b261442d565b5b5f6153c084828501615294565b91505092915050565b602082015f8201516153dd5f8501826146f6565b50505050565b5f6040820190506153f65f8301856150ca565b61540360208301846153c9565b9392505050565b7f4e487b71000000000000000000000000000000000000000000000000000000005f52601160045260245ffd5b5f615441826143f3565b915061544c836143f3565b925082820261545a816143f3565b915082820484148315176154715761547061540a565b5b5092915050565b7f4e487b71000000000000000000000000000000000000000000000000000000005f52601260045260245ffd5b5f6154af826143f3565b91506154ba836143f3565b9250826154ca576154c9615478565b5b828204905092915050565b5f82825260208201905092915050565b7f6d756c206f766572666c6f7700000000000000000000000000000000000000005f82015250565b5f615519600c836154d5565b9150615524826154e5565b602082019050919050565b5f6020820190508181035f8301526155468161550d565b9050919050565b5f615557826143f3565b9150615562836143f3565b925082820190508082111561557a5761557961540a565b5b92915050565b7f616464206f766572666c6f7700000000000000000000000000000000000000005f82015250565b5f6155b4600c836154d5565b91506155bf82615580565b602082019050919050565b5f6020820190508181035f8301526155e1816155a8565b9050919050565b606082015f8201516155fc5f85018261485a565b50602082015161560f6020850182614645565b5060408201516156226040850182614705565b50505050565b61016082015f82015161563d5f850182614645565b50602082015161565060208501826146f6565b50604082015161566360408501826146f6565b5060608201516156766060850182614645565b50608082015161568960808501826146f6565b5060a082015161569c60a0850182614645565b5060c08201516156af60c08501826146f6565b5060e08201516156c260e08501826146f6565b506101008201516156d76101008501826155e8565b50505050565b5f60019050919050565b5f81905092915050565b5f819050919050565b606082015f82015161570e5f8501826146f6565b50602082015161572160208501826146f6565b5060408201516157346040850182614645565b50505050565b5f61574583836156fa565b60608301905092915050565b5f602082019050919050565b615766816156dd565b61577081846156e7565b925061577b826156f1565b805f5b838110156157ab578151615792878261573a565b965061579d83615751565b92505060018101905061577e565b505050505050565b6103a082015f8201516157c85f850182614705565b5060208201516157db6020850182614645565b5060408201516157ee60408501826146f6565b50606082015161580160608501826146f6565b50608082015161581460808501826146f6565b5060a082015161582760a0850182614705565b5060c082015161583a60c08501826146f6565b5060e082015161584d60e0850182614705565b50610100820151615862610100850182614705565b506101208201516158776101208501826146f6565b5061014082015161588c610140850182615628565b506101608201516158a16102a08501826146f6565b506101808201516158b66102c085018261575d565b506101a08201516158cb6103208501826146f6565b506101c08201516158e0610340850182614645565b506101e08201516158f56103608501826146f6565b5061020082015161590a6103808501826146f6565b50505050565b5f6103a0820190506159245f8301846157b3565b92915050565b5f819050815f5260205f209050919050565b5f6020601f8301049050919050565b5f82821b905092915050565b5f600883026159867fffffffffffffffffffffffffffffffffffffffffffffffffffffffffffffffff8261594b565b615990868361594b565b95508019841693508086168417925050509392505050565b5f819050919050565b5f6159cb6159c66159c1846143f3565b6159a8565b6143f3565b9050919050565b5f819050919050565b6159e4836159b1565b6159f86159f0826159d2565b848454615957565b825550505050565b5f90565b615a0c615a00565b615a178184846159db565b505050565b5b81811015615a3a57615a2f5f82615a04565b600181019050615a1d565b5050565b601f821115615a7f57615a508161592a565b615a598461593c565b81016020851015615a68578190505b615a7c615a748561593c565b830182615a1c565b50505b505050565b5f82821c905092915050565b5f615a9f5f1984600802615a84565b1980831691505092915050565b5f615ab78383615a90565b9150826002028217905092915050565b615ad0826148c2565b67ffffffffffffffff811115615ae957615ae861497e565b5b615af38254614c22565b615afe828285615a3e565b5f60209050601f831160018114615b2f575f8415615b1d578287015190505b615b278582615aac565b865550615b8e565b601f198416615b3d8661592a565b5f5b82811015615b6457848901518255600182019150602085019450602081019050615b3f565b86831015615b815784890151615b7d601f891682615a90565b8355505b6001600288020188555050505b505050505050565b7f646976206279207a65726f0000000000000000000000000000000000000000005f82015250565b5f615bca600b836154d5565b9150615bd582615b96565b602082019050919050565b5f6020820190508181035f830152615bf781615bbe565b9050919050565b5f615c08826143f3565b9150615c13836143f3565b9250828203905081811115615c2b57615c2a61540a565b5b92915050565b7f737562207772617061726f756e640000000000000000000000000000000000005f82015250565b5f615c65600e836154d5565b9150615c7082615c31565b602082019050919050565b5f6020820190508181035f830152615c9281615c59565b9050919050565b5f615ca3826143f3565b91507fffffffffffffffffffffffffffffffffffffffffffffffffffffffffffffffff8203615cd557615cd461540a565b5b600182019050919050565b5f606082019050615cf35f8301866150ca565b615d0060208301856150ca565b615d0d60408301846143fc565b949350505050565b5f81905092915050565b5f615d29826148c2565b615d338185615d15565b9350615d438185602086016148dc565b80840191505092915050565b5f615d5a8284615d1f565b915081905092915050565b5f60208284031215615d7a57615d7961442d565b5b5f615d8784828501614c71565b91505092915050565b5f604082019050615da35f8301856150ca565b615db060208301846143fc565b939250505056fea26474726f6e582212209f32fd90096eeba765410d48d4fd7403061193f6d1dec5371e285bc80bef098464736f6c63430008140033",
      "opcodes": "PUSH1 0x80 PUSH1 0x40 MSTORE PUSH1 0x40 MLOAD PUSH3 0x6F6A CODESIZE SUB DUP1 PUSH3 0x6F6A DUP4 CODECOPY DUP2 DUP2 ADD PUSH1 0x40 MSTORE DUP2 ADD SWAP1 PUSH3 0x29 SWAP2 SWAP1 PUSH3 0x9D1 JUMP JUMPDEST PUSH0 DUP1 DUP2 SWAP1 SSTORE POP NUMBER PUSH1 0x3 DUP2 SWAP1 SSTORE POP PUSH3 0x40 PUSH3 0x493 JUMP JUMPDEST PUSH3 0x52 DUP3 DUP3 PUSH3 0x5A PUSH1 0x20 SHL PUSH1 0x20 SHR JUMP JUMPDEST POP POP PUSH3 0x116F JUMP JUMPDEST PUSH3 0x64 PUSH3 0x54E JUMP JUMPDEST PUSH3 0x86 PUSH1 0x4 PUSH0 SWAP1 SLOAD SWAP1 PUSH2 0x100 EXP SWAP1 DIV PUSH1 0xFF AND ISZERO PUSH1 0x15 PUSH3 0x3BE PUSH1 0x20 SHL PUSH1 0x20 SHR JUMP JUMPDEST PUSH32 0x9660C10419D34CCE8FBB42CDF0CB6DE03E621F5BC15C0C2D5E328A48AF41E507 CALLER DUP5 PUSH1 0x40 MLOAD PUSH3 0xB9 SWAP3 SWAP2 SWAP1 PUSH3 0xB37 JUMP JUMPDEST PUSH1 0x40 MLOAD DUP1 SWAP2 SUB SWAP1 LOG1 PUSH3 0xE9 PUSH0 DUP5 PUSH0 ADD MLOAD EQ DUP1 PUSH3 0xDB JUMPI POP DUP4 PUSH0 ADD MLOAD PUSH1 0x1 SLOAD EQ JUMPDEST PUSH1 0x16 PUSH3 0x3BE PUSH1 0x20 SHL PUSH1 0x20 SHR JUMP JUMPDEST PUSH0 DUP2 PUSH0 ADD MLOAD PUSH0 ADD DUP2 DUP2 MSTORE POP POP PUSH0 DUP2 PUSH0 ADD MLOAD PUSH1 0x20 ADD DUP2 DUP2 MSTORE POP POP PUSH0 DUP2 PUSH0 ADD MLOAD PUSH1 0x40 ADD SWAP1 ISZERO ISZERO SWAP1 DUP2 ISZERO ISZERO DUP2 MSTORE POP POP DUP1 PUSH0 ADD MLOAD DUP2 PUSH1 0x20 ADD MLOAD PUSH0 PUSH1 0x1 DUP2 LT PUSH3 0x133 JUMPI PUSH3 0x132 PUSH3 0xB63 JUMP JUMPDEST JUMPDEST PUSH1 0x20 MUL ADD DUP2 SWAP1 MSTORE POP PUSH3 0x174 PUSH32 0xFFFFFFFFFFFFFFFFFFFFFFFFFFFFFFFFFFFFFFFFFFFFFFFFFFFFFFFFFFFFFFFF DUP5 PUSH1 0x80 ADD MLOAD LT PUSH1 0x17 PUSH3 0x3BE PUSH1 0x20 SHL PUSH1 0x20 SHR JUMP JUMPDEST PUSH3 0x18F PUSH1 0x1 DUP5 PUSH1 0x80 ADD MLOAD LT ISZERO PUSH1 0x18 PUSH3 0x3BE PUSH1 0x20 SHL PUSH1 0x20 SHR JUMP JUMPDEST PUSH3 0x1A4 PUSH0 CALLVALUE EQ PUSH1 0x19 PUSH3 0x3BE PUSH1 0x20 SHL PUSH1 0x20 SHR JUMP JUMPDEST PUSH3 0x1AE PUSH3 0x578 JUMP JUMPDEST CALLER DUP2 PUSH0 ADD SWAP1 PUSH20 0xFFFFFFFFFFFFFFFFFFFFFFFFFFFFFFFFFFFFFFFF AND SWAP1 DUP2 PUSH20 0xFFFFFFFFFFFFFFFFFFFFFFFFFFFFFFFFFFFFFFFF AND DUP2 MSTORE POP POP DUP4 PUSH1 0x20 ADD MLOAD DUP2 PUSH1 0x20 ADD SWAP1 ISZERO ISZERO SWAP1 DUP2 ISZERO ISZERO DUP2 MSTORE POP POP DUP4 PUSH1 0x40 ADD MLOAD DUP2 PUSH1 0x40 ADD DUP2 DUP2 MSTORE POP POP DUP4 PUSH1 0x60 ADD MLOAD DUP2 PUSH1 0x60 ADD DUP2 DUP2 MSTORE POP POP DUP4 PUSH1 0x80 ADD MLOAD DUP2 PUSH1 0x80 ADD DUP2 DUP2 MSTORE POP POP DUP4 PUSH1 0xA0 ADD MLOAD DUP2 PUSH1 0xA0 ADD DUP2 DUP2 MSTORE POP POP DUP4 PUSH1 0xC0 ADD MLOAD DUP2 PUSH1 0xC0 ADD SWAP1 PUSH20 0xFFFFFFFFFFFFFFFFFFFFFFFFFFFFFFFFFFFFFFFF AND SWAP1 DUP2 PUSH20 0xFFFFFFFFFFFFFFFFFFFFFFFFFFFFFFFFFFFFFFFF AND DUP2 MSTORE POP POP DUP4 PUSH1 0xE0 ADD MLOAD DUP2 PUSH1 0xE0 ADD DUP2 DUP2 MSTORE POP POP DUP4 PUSH2 0x100 ADD MLOAD DUP2 PUSH2 0x100 ADD SWAP1 PUSH20 0xFFFFFFFFFFFFFFFFFFFFFFFFFFFFFFFFFFFFFFFF AND SWAP1 DUP2 PUSH20 0xFFFFFFFFFFFFFFFFFFFFFFFFFFFFFFFFFFFFFFFF AND DUP2 MSTORE POP POP DUP4 PUSH2 0x120 ADD MLOAD DUP2 PUSH2 0x120 ADD SWAP1 PUSH20 0xFFFFFFFFFFFFFFFFFFFFFFFFFFFFFFFFFFFFFFFF AND SWAP1 DUP2 PUSH20 0xFFFFFFFFFFFFFFFFFFFFFFFFFFFFFFFFFFFFFFFF AND DUP2 MSTORE POP POP PUSH3 0x36E DUP3 PUSH1 0x20 ADD MLOAD PUSH0 PUSH1 0x40 MLOAD DUP1 PUSH1 0x60 ADD PUSH1 0x40 MSTORE DUP1 PUSH0 DUP2 MSTORE PUSH1 0x20 ADD DUP7 PUSH1 0x20 ADD MLOAD PUSH0 PUSH1 0x1 DUP2 LT PUSH3 0x32C JUMPI PUSH3 0x32B PUSH3 0xB63 JUMP JUMPDEST JUMPDEST PUSH1 0x20 MUL ADD MLOAD PUSH1 0x20 ADD MLOAD DUP2 MSTORE PUSH1 0x20 ADD DUP7 PUSH1 0x20 ADD MLOAD PUSH0 PUSH1 0x1 DUP2 LT PUSH3 0x354 JUMPI PUSH3 0x353 PUSH3 0xB63 JUMP JUMPDEST JUMPDEST PUSH1 0x20 MUL ADD MLOAD PUSH1 0x40 ADD MLOAD ISZERO ISZERO DUP2 MSTORE POP PUSH3 0x407 PUSH1 0x20 SHL PUSH1 0x20 SHR JUMP JUMPDEST DUP2 PUSH2 0x140 ADD DUP2 SWAP1 MSTORE POP PUSH1 0x1 PUSH0 DUP2 SWAP1 SSTORE POP NUMBER PUSH1 0x1 DUP2 SWAP1 SSTORE POP DUP1 PUSH1 0x40 MLOAD PUSH1 0x20 ADD PUSH3 0x398 SWAP2 SWAP1 PUSH3 0xD6F JUMP JUMPDEST PUSH1 0x40 MLOAD PUSH1 0x20 DUP2 DUP4 SUB SUB DUP2 MSTORE SWAP1 PUSH1 0x40 MSTORE PUSH1 0x2 SWAP1 DUP2 PUSH3 0x3B7 SWAP2 SWAP1 PUSH3 0xFB9 JUMP JUMPDEST POP POP POP POP POP JUMP JUMPDEST DUP2 PUSH3 0x403 JUMPI DUP1 PUSH1 0x40 MLOAD PUSH32 0x100960CB00000000000000000000000000000000000000000000000000000000 DUP2 MSTORE PUSH1 0x4 ADD PUSH3 0x3FA SWAP2 SWAP1 PUSH3 0x10AE JUMP JUMPDEST PUSH1 0x40 MLOAD DUP1 SWAP2 SUB SWAP1 REVERT JUMPDEST POP POP JUMP JUMPDEST PUSH3 0x411 PUSH3 0x62A JUMP JUMPDEST PUSH0 JUMPDEST PUSH1 0x1 DUP2 LT ISZERO PUSH3 0x46C JUMPI DUP5 DUP2 PUSH1 0x1 DUP2 LT PUSH3 0x433 JUMPI PUSH3 0x432 PUSH3 0xB63 JUMP JUMPDEST JUMPDEST PUSH1 0x20 MUL ADD MLOAD DUP3 DUP3 PUSH1 0x1 DUP2 LT PUSH3 0x44E JUMPI PUSH3 0x44D PUSH3 0xB63 JUMP JUMPDEST JUMPDEST PUSH1 0x20 MUL ADD DUP2 SWAP1 MSTORE POP DUP1 DUP1 PUSH3 0x463 SWAP1 PUSH3 0x10F6 JUMP JUMPDEST SWAP2 POP POP PUSH3 0x413 JUMP JUMPDEST POP DUP2 DUP2 DUP5 PUSH1 0x1 DUP2 LT PUSH3 0x484 JUMPI PUSH3 0x483 PUSH3 0xB63 JUMP JUMPDEST JUMPDEST PUSH1 0x20 MUL ADD DUP2 SWAP1 MSTORE POP SWAP4 SWAP3 POP POP POP JUMP JUMPDEST PUSH1 0x40 MLOAD DUP1 PUSH2 0x260 ADD PUSH1 0x40 MSTORE DUP1 PUSH0 ISZERO ISZERO DUP2 MSTORE PUSH1 0x20 ADD PUSH0 ISZERO ISZERO DUP2 MSTORE PUSH1 0x20 ADD PUSH0 DUP2 MSTORE PUSH1 0x20 ADD PUSH0 DUP2 MSTORE PUSH1 0x20 ADD PUSH0 DUP2 MSTORE PUSH1 0x20 ADD PUSH0 ISZERO ISZERO DUP2 MSTORE PUSH1 0x20 ADD PUSH0 DUP2 MSTORE PUSH1 0x20 ADD PUSH0 ISZERO ISZERO DUP2 MSTORE PUSH1 0x20 ADD PUSH3 0x4E1 PUSH3 0x65A JUMP JUMPDEST DUP2 MSTORE PUSH1 0x20 ADD PUSH0 DUP2 MSTORE PUSH1 0x20 ADD PUSH0 DUP2 MSTORE PUSH1 0x20 ADD PUSH0 PUSH20 0xFFFFFFFFFFFFFFFFFFFFFFFFFFFFFFFFFFFFFFFF AND DUP2 MSTORE PUSH1 0x20 ADD PUSH0 ISZERO ISZERO DUP2 MSTORE PUSH1 0x20 ADD PUSH3 0x520 PUSH3 0x6B8 JUMP JUMPDEST DUP2 MSTORE PUSH1 0x20 ADD PUSH0 ISZERO ISZERO DUP2 MSTORE PUSH1 0x20 ADD PUSH0 ISZERO ISZERO DUP2 MSTORE PUSH1 0x20 ADD PUSH0 ISZERO ISZERO DUP2 MSTORE PUSH1 0x20 ADD PUSH0 ISZERO ISZERO DUP2 MSTORE PUSH1 0x20 ADD PUSH0 ISZERO ISZERO DUP2 MSTORE POP SWAP1 JUMP JUMPDEST PUSH1 0x40 MLOAD DUP1 PUSH1 0x40 ADD PUSH1 0x40 MSTORE DUP1 PUSH3 0x563 PUSH3 0x703 JUMP JUMPDEST DUP2 MSTORE PUSH1 0x20 ADD PUSH3 0x572 PUSH3 0x62A JUMP JUMPDEST DUP2 MSTORE POP SWAP1 JUMP JUMPDEST PUSH1 0x40 MLOAD DUP1 PUSH2 0x160 ADD PUSH1 0x40 MSTORE DUP1 PUSH0 PUSH20 0xFFFFFFFFFFFFFFFFFFFFFFFFFFFFFFFFFFFFFFFF AND DUP2 MSTORE PUSH1 0x20 ADD PUSH0 ISZERO ISZERO DUP2 MSTORE PUSH1 0x20 ADD PUSH0 DUP2 MSTORE PUSH1 0x20 ADD PUSH0 DUP2 MSTORE PUSH1 0x20 ADD PUSH0 DUP2 MSTORE PUSH1 0x20 ADD PUSH0 DUP2 MSTORE PUSH1 0x20 ADD PUSH0 PUSH20 0xFFFFFFFFFFFFFFFFFFFFFFFFFFFFFFFFFFFFFFFF AND DUP2 MSTORE PUSH1 0x20 ADD PUSH0 DUP2 MSTORE PUSH1 0x20 ADD PUSH0 PUSH20 0xFFFFFFFFFFFFFFFFFFFFFFFFFFFFFFFFFFFFFFFF AND DUP2 MSTORE PUSH1 0x20 ADD PUSH0 PUSH20 0xFFFFFFFFFFFFFFFFFFFFFFFFFFFFFFFFFFFFFFFF AND DUP2 MSTORE PUSH1 0x20 ADD PUSH3 0x624 PUSH3 0x62A JUMP JUMPDEST DUP2 MSTORE POP SWAP1 JUMP JUMPDEST PUSH1 0x40 MLOAD DUP1 PUSH1 0x20 ADD PUSH1 0x40 MSTORE DUP1 PUSH1 0x1 SWAP1 JUMPDEST PUSH3 0x643 PUSH3 0x703 JUMP JUMPDEST DUP2 MSTORE PUSH1 0x20 ADD SWAP1 PUSH1 0x1 SWAP1 SUB SWAP1 DUP2 PUSH3 0x639 JUMPI SWAP1 POP POP SWAP1 JUMP JUMPDEST PUSH1 0x40 MLOAD DUP1 PUSH1 0xC0 ADD PUSH1 0x40 MSTORE DUP1 PUSH0 DUP2 MSTORE PUSH1 0x20 ADD PUSH0 DUP2 MSTORE PUSH1 0x20 ADD PUSH0 PUSH20 0xFFFFFFFFFFFFFFFFFFFFFFFFFFFFFFFFFFFFFFFF AND DUP2 MSTORE PUSH1 0x20 ADD PUSH0 DUP2 MSTORE PUSH1 0x20 ADD PUSH0 ISZERO ISZERO DUP2 MSTORE PUSH1 0x20 ADD PUSH0 PUSH20 0xFFFFFFFFFFFFFFFFFFFFFFFFFFFFFFFFFFFFFFFF AND DUP2 MSTORE POP SWAP1 JUMP JUMPDEST PUSH1 0x40 MLOAD DUP1 PUSH1 0x60 ADD PUSH1 0x40 MSTORE DUP1 PUSH0 PUSH1 0x1 DUP2 GT ISZERO PUSH3 0x6D9 JUMPI PUSH3 0x6D8 PUSH3 0x1142 JUMP JUMPDEST JUMPDEST DUP2 MSTORE PUSH1 0x20 ADD PUSH0 ISZERO ISZERO DUP2 MSTORE PUSH1 0x20 ADD PUSH0 PUSH20 0xFFFFFFFFFFFFFFFFFFFFFFFFFFFFFFFFFFFFFFFF AND DUP2 MSTORE POP SWAP1 JUMP JUMPDEST PUSH1 0x40 MLOAD DUP1 PUSH1 0x60 ADD PUSH1 0x40 MSTORE DUP1 PUSH0 DUP2 MSTORE PUSH1 0x20 ADD PUSH0 DUP2 MSTORE PUSH1 0x20 ADD PUSH0 ISZERO ISZERO DUP2 MSTORE POP SWAP1 JUMP JUMPDEST PUSH0 PUSH1 0x40 MLOAD SWAP1 POP SWAP1 JUMP JUMPDEST PUSH0 DUP1 REVERT JUMPDEST PUSH0 DUP1 REVERT JUMPDEST PUSH0 PUSH1 0x1F NOT PUSH1 0x1F DUP4 ADD AND SWAP1 POP SWAP2 SWAP1 POP JUMP JUMPDEST PUSH32 0x4E487B7100000000000000000000000000000000000000000000000000000000 PUSH0 MSTORE PUSH1 0x41 PUSH1 0x4 MSTORE PUSH1 0x24 PUSH0 REVERT JUMPDEST PUSH3 0x77C DUP3 PUSH3 0x734 JUMP JUMPDEST DUP2 ADD DUP2 DUP2 LT PUSH8 0xFFFFFFFFFFFFFFFF DUP3 GT OR ISZERO PUSH3 0x79E JUMPI PUSH3 0x79D PUSH3 0x744 JUMP JUMPDEST JUMPDEST DUP1 PUSH1 0x40 MSTORE POP POP POP JUMP JUMPDEST PUSH0 PUSH3 0x7B2 PUSH3 0x723 JUMP JUMPDEST SWAP1 POP PUSH3 0x7C0 DUP3 DUP3 PUSH3 0x771 JUMP JUMPDEST SWAP2 SWAP1 POP JUMP JUMPDEST PUSH0 DUP2 SWAP1 POP SWAP2 SWAP1 POP JUMP JUMPDEST PUSH3 0x7D9 DUP2 PUSH3 0x7C5 JUMP JUMPDEST DUP2 EQ PUSH3 0x7E4 JUMPI PUSH0 DUP1 REVERT JUMPDEST POP JUMP JUMPDEST PUSH0 DUP2 MLOAD SWAP1 POP PUSH3 0x7F7 DUP2 PUSH3 0x7CE JUMP JUMPDEST SWAP3 SWAP2 POP POP JUMP JUMPDEST PUSH0 DUP2 ISZERO ISZERO SWAP1 POP SWAP2 SWAP1 POP JUMP JUMPDEST PUSH3 0x813 DUP2 PUSH3 0x7FD JUMP JUMPDEST DUP2 EQ PUSH3 0x81E JUMPI PUSH0 DUP1 REVERT JUMPDEST POP JUMP JUMPDEST PUSH0 DUP2 MLOAD SWAP1 POP PUSH3 0x831 DUP2 PUSH3 0x808 JUMP JUMPDEST SWAP3 SWAP2 POP POP JUMP JUMPDEST PUSH0 PUSH21 0xFFFFFFFFFFFFFFFFFFFFFFFFFFFFFFFFFFFFFFFFFF DUP3 AND SWAP1 POP SWAP2 SWAP1 POP JUMP JUMPDEST PUSH3 0x862 DUP2 PUSH3 0x837 JUMP JUMPDEST DUP2 EQ PUSH3 0x86D JUMPI PUSH0 DUP1 REVERT JUMPDEST POP JUMP JUMPDEST PUSH0 PUSH20 0xFFFFFFFFFFFFFFFFFFFFFFFFFFFFFFFFFFFFFFFF DUP3 AND SWAP1 POP SWAP2 SWAP1 POP JUMP JUMPDEST PUSH0 PUSH3 0x89B DUP3 PUSH3 0x870 JUMP JUMPDEST SWAP1 POP SWAP2 SWAP1 POP JUMP JUMPDEST PUSH0 DUP2 MLOAD SWAP1 POP PUSH3 0x8B2 DUP2 PUSH3 0x857 JUMP JUMPDEST PUSH3 0x8BD DUP2 PUSH3 0x88F JUMP JUMPDEST SWAP1 POP SWAP3 SWAP2 POP POP JUMP JUMPDEST PUSH0 PUSH2 0x140 DUP3 DUP5 SUB SLT ISZERO PUSH3 0x8DE JUMPI PUSH3 0x8DD PUSH3 0x730 JUMP JUMPDEST JUMPDEST PUSH3 0x8EB PUSH2 0x140 PUSH3 0x7A7 JUMP JUMPDEST SWAP1 POP PUSH0 PUSH3 0x8FC DUP5 DUP3 DUP6 ADD PUSH3 0x7E7 JUMP JUMPDEST PUSH0 DUP4 ADD MSTORE POP PUSH1 0x20 PUSH3 0x911 DUP5 DUP3 DUP6 ADD PUSH3 0x821 JUMP JUMPDEST PUSH1 0x20 DUP4 ADD MSTORE POP PUSH1 0x40 PUSH3 0x927 DUP5 DUP3 DUP6 ADD PUSH3 0x7E7 JUMP JUMPDEST PUSH1 0x40 DUP4 ADD MSTORE POP PUSH1 0x60 PUSH3 0x93D DUP5 DUP3 DUP6 ADD PUSH3 0x7E7 JUMP JUMPDEST PUSH1 0x60 DUP4 ADD MSTORE POP PUSH1 0x80 PUSH3 0x953 DUP5 DUP3 DUP6 ADD PUSH3 0x7E7 JUMP JUMPDEST PUSH1 0x80 DUP4 ADD MSTORE POP PUSH1 0xA0 PUSH3 0x969 DUP5 DUP3 DUP6 ADD PUSH3 0x7E7 JUMP JUMPDEST PUSH1 0xA0 DUP4 ADD MSTORE POP PUSH1 0xC0 PUSH3 0x97F DUP5 DUP3 DUP6 ADD PUSH3 0x8A2 JUMP JUMPDEST PUSH1 0xC0 DUP4 ADD MSTORE POP PUSH1 0xE0 PUSH3 0x995 DUP5 DUP3 DUP6 ADD PUSH3 0x7E7 JUMP JUMPDEST PUSH1 0xE0 DUP4 ADD MSTORE POP PUSH2 0x100 PUSH3 0x9AC DUP5 DUP3 DUP6 ADD PUSH3 0x8A2 JUMP JUMPDEST PUSH2 0x100 DUP4 ADD MSTORE POP PUSH2 0x120 PUSH3 0x9C4 DUP5 DUP3 DUP6 ADD PUSH3 0x8A2 JUMP JUMPDEST PUSH2 0x120 DUP4 ADD MSTORE POP SWAP3 SWAP2 POP POP JUMP JUMPDEST PUSH0 PUSH2 0x140 DUP3 DUP5 SUB SLT ISZERO PUSH3 0x9EA JUMPI PUSH3 0x9E9 PUSH3 0x72C JUMP JUMPDEST JUMPDEST PUSH0 PUSH3 0x9F9 DUP5 DUP3 DUP6 ADD PUSH3 0x8C5 JUMP JUMPDEST SWAP2 POP POP SWAP3 SWAP2 POP POP JUMP JUMPDEST PUSH0 PUSH3 0xA0E DUP3 PUSH3 0x870 JUMP JUMPDEST SWAP1 POP SWAP2 SWAP1 POP JUMP JUMPDEST PUSH3 0xA20 DUP2 PUSH3 0xA02 JUMP JUMPDEST DUP3 MSTORE POP POP JUMP JUMPDEST PUSH3 0xA31 DUP2 PUSH3 0x7C5 JUMP JUMPDEST DUP3 MSTORE POP POP JUMP JUMPDEST PUSH3 0xA42 DUP2 PUSH3 0x7FD JUMP JUMPDEST DUP3 MSTORE POP POP JUMP JUMPDEST PUSH3 0xA53 DUP2 PUSH3 0x88F JUMP JUMPDEST DUP3 MSTORE POP POP JUMP JUMPDEST PUSH2 0x140 DUP3 ADD PUSH0 DUP3 ADD MLOAD PUSH3 0xA70 PUSH0 DUP6 ADD DUP3 PUSH3 0xA26 JUMP JUMPDEST POP PUSH1 0x20 DUP3 ADD MLOAD PUSH3 0xA85 PUSH1 0x20 DUP6 ADD DUP3 PUSH3 0xA37 JUMP JUMPDEST POP PUSH1 0x40 DUP3 ADD MLOAD PUSH3 0xA9A PUSH1 0x40 DUP6 ADD DUP3 PUSH3 0xA26 JUMP JUMPDEST POP PUSH1 0x60 DUP3 ADD MLOAD PUSH3 0xAAF PUSH1 0x60 DUP6 ADD DUP3 PUSH3 0xA26 JUMP JUMPDEST POP PUSH1 0x80 DUP3 ADD MLOAD PUSH3 0xAC4 PUSH1 0x80 DUP6 ADD DUP3 PUSH3 0xA26 JUMP JUMPDEST POP PUSH1 0xA0 DUP3 ADD MLOAD PUSH3 0xAD9 PUSH1 0xA0 DUP6 ADD DUP3 PUSH3 0xA26 JUMP JUMPDEST POP PUSH1 0xC0 DUP3 ADD MLOAD PUSH3 0xAEE PUSH1 0xC0 DUP6 ADD DUP3 PUSH3 0xA48 JUMP JUMPDEST POP PUSH1 0xE0 DUP3 ADD MLOAD PUSH3 0xB03 PUSH1 0xE0 DUP6 ADD DUP3 PUSH3 0xA26 JUMP JUMPDEST POP PUSH2 0x100 DUP3 ADD MLOAD PUSH3 0xB1A PUSH2 0x100 DUP6 ADD DUP3 PUSH3 0xA48 JUMP JUMPDEST POP PUSH2 0x120 DUP3 ADD MLOAD PUSH3 0xB31 PUSH2 0x120 DUP6 ADD DUP3 PUSH3 0xA48 JUMP JUMPDEST POP POP POP POP JUMP JUMPDEST PUSH0 PUSH2 0x160 DUP3 ADD SWAP1 POP PUSH3 0xB4D PUSH0 DUP4 ADD DUP6 PUSH3 0xA15 JUMP JUMPDEST PUSH3 0xB5C PUSH1 0x20 DUP4 ADD DUP5 PUSH3 0xA59 JUMP JUMPDEST SWAP4 SWAP3 POP POP POP JUMP JUMPDEST PUSH32 0x4E487B7100000000000000000000000000000000000000000000000000000000 PUSH0 MSTORE PUSH1 0x32 PUSH1 0x4 MSTORE PUSH1 0x24 PUSH0 REVERT JUMPDEST PUSH0 PUSH1 0x1 SWAP1 POP SWAP2 SWAP1 POP JUMP JUMPDEST PUSH0 DUP2 SWAP1 POP SWAP3 SWAP2 POP POP JUMP JUMPDEST PUSH0 DUP2 SWAP1 POP SWAP2 SWAP1 POP JUMP JUMPDEST PUSH1 0x60 DUP3 ADD PUSH0 DUP3 ADD MLOAD PUSH3 0xBC3 PUSH0 DUP6 ADD DUP3 PUSH3 0xA26 JUMP JUMPDEST POP PUSH1 0x20 DUP3 ADD MLOAD PUSH3 0xBD8 PUSH1 0x20 DUP6 ADD DUP3 PUSH3 0xA26 JUMP JUMPDEST POP PUSH1 0x40 DUP3 ADD MLOAD PUSH3 0xBED PUSH1 0x40 DUP6 ADD DUP3 PUSH3 0xA37 JUMP JUMPDEST POP POP POP POP JUMP JUMPDEST PUSH0 PUSH3 0xC00 DUP4 DUP4 PUSH3 0xBAD JUMP JUMPDEST PUSH1 0x60 DUP4 ADD SWAP1 POP SWAP3 SWAP2 POP POP JUMP JUMPDEST PUSH0 PUSH1 0x20 DUP3 ADD SWAP1 POP SWAP2 SWAP1 POP JUMP JUMPDEST PUSH3 0xC23 DUP2 PUSH3 0xB90 JUMP JUMPDEST PUSH3 0xC2F DUP2 DUP5 PUSH3 0xB9A JUMP JUMPDEST SWAP3 POP PUSH3 0xC3C DUP3 PUSH3 0xBA4 JUMP JUMPDEST DUP1 PUSH0 JUMPDEST DUP4 DUP2 LT ISZERO PUSH3 0xC72 JUMPI DUP2 MLOAD PUSH3 0xC56 DUP8 DUP3 PUSH3 0xBF3 JUMP JUMPDEST SWAP7 POP PUSH3 0xC63 DUP4 PUSH3 0xC0C JUMP JUMPDEST SWAP3 POP POP PUSH1 0x1 DUP2 ADD SWAP1 POP PUSH3 0xC3F JUMP JUMPDEST POP POP POP POP POP POP JUMP JUMPDEST PUSH2 0x1A0 DUP3 ADD PUSH0 DUP3 ADD MLOAD PUSH3 0xC91 PUSH0 DUP6 ADD DUP3 PUSH3 0xA48 JUMP JUMPDEST POP PUSH1 0x20 DUP3 ADD MLOAD PUSH3 0xCA6 PUSH1 0x20 DUP6 ADD DUP3 PUSH3 0xA37 JUMP JUMPDEST POP PUSH1 0x40 DUP3 ADD MLOAD PUSH3 0xCBB PUSH1 0x40 DUP6 ADD DUP3 PUSH3 0xA26 JUMP JUMPDEST POP PUSH1 0x60 DUP3 ADD MLOAD PUSH3 0xCD0 PUSH1 0x60 DUP6 ADD DUP3 PUSH3 0xA26 JUMP JUMPDEST POP PUSH1 0x80 DUP3 ADD MLOAD PUSH3 0xCE5 PUSH1 0x80 DUP6 ADD DUP3 PUSH3 0xA26 JUMP JUMPDEST POP PUSH1 0xA0 DUP3 ADD MLOAD PUSH3 0xCFA PUSH1 0xA0 DUP6 ADD DUP3 PUSH3 0xA26 JUMP JUMPDEST POP PUSH1 0xC0 DUP3 ADD MLOAD PUSH3 0xD0F PUSH1 0xC0 DUP6 ADD DUP3 PUSH3 0xA48 JUMP JUMPDEST POP PUSH1 0xE0 DUP3 ADD MLOAD PUSH3 0xD24 PUSH1 0xE0 DUP6 ADD DUP3 PUSH3 0xA26 JUMP JUMPDEST POP PUSH2 0x100 DUP3 ADD MLOAD PUSH3 0xD3B PUSH2 0x100 DUP6 ADD DUP3 PUSH3 0xA48 JUMP JUMPDEST POP PUSH2 0x120 DUP3 ADD MLOAD PUSH3 0xD52 PUSH2 0x120 DUP6 ADD DUP3 PUSH3 0xA48 JUMP JUMPDEST POP PUSH2 0x140 DUP3 ADD MLOAD PUSH3 0xD69 PUSH2 0x140 DUP6 ADD DUP3 PUSH3 0xC18 JUMP JUMPDEST POP POP POP POP JUMP JUMPDEST PUSH0 PUSH2 0x1A0 DUP3 ADD SWAP1 POP PUSH3 0xD85 PUSH0 DUP4 ADD DUP5 PUSH3 0xC7A JUMP JUMPDEST SWAP3 SWAP2 POP POP JUMP JUMPDEST PUSH0 DUP2 MLOAD SWAP1 POP SWAP2 SWAP1 POP JUMP JUMPDEST PUSH32 0x4E487B7100000000000000000000000000000000000000000000000000000000 PUSH0 MSTORE PUSH1 0x22 PUSH1 0x4 MSTORE PUSH1 0x24 PUSH0 REVERT JUMPDEST PUSH0 PUSH1 0x2 DUP3 DIV SWAP1 POP PUSH1 0x1 DUP3 AND DUP1 PUSH3 0xDDA JUMPI PUSH1 0x7F DUP3 AND SWAP2 POP JUMPDEST PUSH1 0x20 DUP3 LT DUP2 SUB PUSH3 0xDF0 JUMPI PUSH3 0xDEF PUSH3 0xD95 JUMP JUMPDEST JUMPDEST POP SWAP2 SWAP1 POP JUMP JUMPDEST PUSH0 DUP2 SWAP1 POP DUP2 PUSH0 MSTORE PUSH1 0x20 PUSH0 KECCAK256 SWAP1 POP SWAP2 SWAP1 POP JUMP JUMPDEST PUSH0 PUSH1 0x20 PUSH1 0x1F DUP4 ADD DIV SWAP1 POP SWAP2 SWAP1 POP JUMP JUMPDEST PUSH0 DUP3 DUP3 SHL SWAP1 POP SWAP3 SWAP2 POP POP JUMP JUMPDEST PUSH0 PUSH1 0x8 DUP4 MUL PUSH3 0xE54 PUSH32 0xFFFFFFFFFFFFFFFFFFFFFFFFFFFFFFFFFFFFFFFFFFFFFFFFFFFFFFFFFFFFFFFF DUP3 PUSH3 0xE17 JUMP JUMPDEST PUSH3 0xE60 DUP7 DUP4 PUSH3 0xE17 JUMP JUMPDEST SWAP6 POP DUP1 NOT DUP5 AND SWAP4 POP DUP1 DUP7 AND DUP5 OR SWAP3 POP POP POP SWAP4 SWAP3 POP POP POP JUMP JUMPDEST PUSH0 DUP2 SWAP1 POP SWAP2 SWAP1 POP JUMP JUMPDEST PUSH0 PUSH3 0xEA1 PUSH3 0xE9B PUSH3 0xE95 DUP5 PUSH3 0x7C5 JUMP JUMPDEST PUSH3 0xE78 JUMP JUMPDEST PUSH3 0x7C5 JUMP JUMPDEST SWAP1 POP SWAP2 SWAP1 POP JUMP JUMPDEST PUSH0 DUP2 SWAP1 POP SWAP2 SWAP1 POP JUMP JUMPDEST PUSH3 0xEBC DUP4 PUSH3 0xE81 JUMP JUMPDEST PUSH3 0xED4 PUSH3 0xECB DUP3 PUSH3 0xEA8 JUMP JUMPDEST DUP5 DUP5 SLOAD PUSH3 0xE23 JUMP JUMPDEST DUP3 SSTORE POP POP POP POP JUMP JUMPDEST PUSH0 SWAP1 JUMP JUMPDEST PUSH3 0xEEA PUSH3 0xEDC JUMP JUMPDEST PUSH3 0xEF7 DUP2 DUP5 DUP5 PUSH3 0xEB1 JUMP JUMPDEST POP POP POP JUMP JUMPDEST JUMPDEST DUP2 DUP2 LT ISZERO PUSH3 0xF1E JUMPI PUSH3 0xF12 PUSH0 DUP3 PUSH3 0xEE0 JUMP JUMPDEST PUSH1 0x1 DUP2 ADD SWAP1 POP PUSH3 0xEFD JUMP JUMPDEST POP POP JUMP JUMPDEST PUSH1 0x1F DUP3 GT ISZERO PUSH3 0xF6D JUMPI PUSH3 0xF37 DUP2 PUSH3 0xDF6 JUMP JUMPDEST PUSH3 0xF42 DUP5 PUSH3 0xE08 JUMP JUMPDEST DUP2 ADD PUSH1 0x20 DUP6 LT ISZERO PUSH3 0xF52 JUMPI DUP2 SWAP1 POP JUMPDEST PUSH3 0xF6A PUSH3 0xF61 DUP6 PUSH3 0xE08 JUMP JUMPDEST DUP4 ADD DUP3 PUSH3 0xEFC JUMP JUMPDEST POP POP JUMPDEST POP POP POP JUMP JUMPDEST PUSH0 DUP3 DUP3 SHR SWAP1 POP SWAP3 SWAP2 POP POP JUMP JUMPDEST PUSH0 PUSH3 0xF8F PUSH0 NOT DUP5 PUSH1 0x8 MUL PUSH3 0xF72 JUMP JUMPDEST NOT DUP1 DUP4 AND SWAP2 POP POP SWAP3 SWAP2 POP POP JUMP JUMPDEST PUSH0 PUSH3 0xFA9 DUP4 DUP4 PUSH3 0xF7E JUMP JUMPDEST SWAP2 POP DUP3 PUSH1 0x2 MUL DUP3 OR SWAP1 POP SWAP3 SWAP2 POP POP JUMP JUMPDEST PUSH3 0xFC4 DUP3 PUSH3 0xD8B JUMP JUMPDEST PUSH8 0xFFFFFFFFFFFFFFFF DUP2 GT ISZERO PUSH3 0xFE0 JUMPI PUSH3 0xFDF PUSH3 0x744 JUMP JUMPDEST JUMPDEST PUSH3 0xFEC DUP3 SLOAD PUSH3 0xDC2 JUMP JUMPDEST PUSH3 0xFF9 DUP3 DUP3 DUP6 PUSH3 0xF22 JUMP JUMPDEST PUSH0 PUSH1 0x20 SWAP1 POP PUSH1 0x1F DUP4 GT PUSH1 0x1 DUP2 EQ PUSH3 0x102F JUMPI PUSH0 DUP5 ISZERO PUSH3 0x101A JUMPI DUP3 DUP8 ADD MLOAD SWAP1 POP JUMPDEST PUSH3 0x1026 DUP6 DUP3 PUSH3 0xF9C JUMP JUMPDEST DUP7 SSTORE POP PUSH3 0x1095 JUMP JUMPDEST PUSH1 0x1F NOT DUP5 AND PUSH3 0x103F DUP7 PUSH3 0xDF6 JUMP JUMPDEST PUSH0 JUMPDEST DUP3 DUP2 LT ISZERO PUSH3 0x1068 JUMPI DUP5 DUP10 ADD MLOAD DUP3 SSTORE PUSH1 0x1 DUP3 ADD SWAP2 POP PUSH1 0x20 DUP6 ADD SWAP5 POP PUSH1 0x20 DUP2 ADD SWAP1 POP PUSH3 0x1041 JUMP JUMPDEST DUP7 DUP4 LT ISZERO PUSH3 0x1088 JUMPI DUP5 DUP10 ADD MLOAD PUSH3 0x1084 PUSH1 0x1F DUP10 AND DUP3 PUSH3 0xF7E JUMP JUMPDEST DUP4 SSTORE POP JUMPDEST PUSH1 0x1 PUSH1 0x2 DUP9 MUL ADD DUP9 SSTORE POP POP POP JUMPDEST POP POP POP POP POP POP JUMP JUMPDEST PUSH3 0x10A8 DUP2 PUSH3 0x7C5 JUMP JUMPDEST DUP3 MSTORE POP POP JUMP JUMPDEST PUSH0 PUSH1 0x20 DUP3 ADD SWAP1 POP PUSH3 0x10C3 PUSH0 DUP4 ADD DUP5 PUSH3 0x109D JUMP JUMPDEST SWAP3 SWAP2 POP POP JUMP JUMPDEST PUSH32 0x4E487B7100000000000000000000000000000000000000000000000000000000 PUSH0 MSTORE PUSH1 0x11 PUSH1 0x4 MSTORE PUSH1 0x24 PUSH0 REVERT JUMPDEST PUSH0 PUSH3 0x1102 DUP3 PUSH3 0x7C5 JUMP JUMPDEST SWAP2 POP PUSH32 0xFFFFFFFFFFFFFFFFFFFFFFFFFFFFFFFFFFFFFFFFFFFFFFFFFFFFFFFFFFFFFFFF DUP3 SUB PUSH3 0x1137 JUMPI PUSH3 0x1136 PUSH3 0x10C9 JUMP JUMPDEST JUMPDEST PUSH1 0x1 DUP3 ADD SWAP1 POP SWAP2 SWAP1 POP JUMP JUMPDEST PUSH32 0x4E487B7100000000000000000000000000000000000000000000000000000000 PUSH0 MSTORE PUSH1 0x21 PUSH1 0x4 MSTORE PUSH1 0x24 PUSH0 REVERT JUMPDEST PUSH2 0x5DED DUP1 PUSH3 0x117D PUSH0 CODECOPY PUSH0 RETURN INVALID PUSH1 0x80 PUSH1 0x40 MSTORE PUSH1 0x4 CALLDATASIZE LT PUSH2 0x14E JUMPI PUSH0 CALLDATALOAD PUSH1 0xE0 SHR DUP1 PUSH4 0x7888D2DF GT PUSH2 0xB5 JUMPI DUP1 PUSH4 0xA5792424 GT PUSH2 0x6E JUMPI DUP1 PUSH4 0xA5792424 EQ PUSH2 0x57D JUMPI DUP1 PUSH4 0xAB53F2C6 EQ PUSH2 0x5D1 JUMPI DUP1 PUSH4 0xC4807DC7 EQ PUSH2 0x614 JUMPI DUP1 PUSH4 0xD184691F EQ PUSH2 0x656 JUMPI DUP1 PUSH4 0xEAA4FD51 EQ PUSH2 0x698 JUMPI DUP1 PUSH4 0xFA726C84 EQ PUSH2 0x6C8 JUMPI PUSH2 0x155 JUMP JUMPDEST DUP1 PUSH4 0x7888D2DF EQ PUSH2 0x439 JUMPI DUP1 PUSH4 0x7A2B54DC EQ PUSH2 0x47B JUMPI DUP1 PUSH4 0x83230757 EQ PUSH2 0x499 JUMPI DUP1 PUSH4 0x883513DE EQ PUSH2 0x4DB JUMPI DUP1 PUSH4 0x8DDECB6D EQ PUSH2 0x51D JUMPI DUP1 PUSH4 0x9686B6E9 EQ PUSH2 0x55F JUMPI PUSH2 0x155 JUMP JUMPDEST DUP1 PUSH4 0x573B8510 GT PUSH2 0x107 JUMPI DUP1 PUSH4 0x573B8510 EQ PUSH2 0x2D1 JUMPI DUP1 PUSH4 0x5CD91BC2 EQ PUSH2 0x301 JUMPI DUP1 PUSH4 0x5FDE30D8 EQ PUSH2 0x343 JUMPI DUP1 PUSH4 0x6A672754 EQ PUSH2 0x385 JUMPI DUP1 PUSH4 0x6CF1D802 EQ PUSH2 0x3C7 JUMPI DUP1 PUSH4 0x73C86A71 EQ PUSH2 0x3F7 JUMPI PUSH2 0x155 JUMP JUMPDEST DUP1 PUSH4 0x677E685 EQ PUSH2 0x157 JUMPI DUP1 PUSH4 0x8E8B3FB EQ PUSH2 0x199 JUMPI DUP1 PUSH4 0x1E93B0F1 EQ PUSH2 0x1C9 JUMPI DUP1 PUSH4 0x213B7923 EQ PUSH2 0x20B JUMPI DUP1 PUSH4 0x36E56EA5 EQ PUSH2 0x25F JUMPI DUP1 PUSH4 0x47DC4E6C EQ PUSH2 0x2B3 JUMPI PUSH2 0x155 JUMP JUMPDEST CALLDATASIZE PUSH2 0x155 JUMPI STOP JUMPDEST STOP JUMPDEST CALLVALUE DUP1 ISZERO PUSH2 0x162 JUMPI PUSH0 DUP1 REVERT JUMPDEST POP CALLTOKENID DUP1 ISZERO PUSH2 0x16E JUMPI PUSH0 DUP1 REVERT JUMPDEST POP CALLTOKENVALUE DUP1 ISZERO PUSH2 0x17A JUMPI PUSH0 DUP1 REVERT JUMPDEST POP PUSH2 0x183 PUSH2 0x70A JUMP JUMPDEST PUSH1 0x40 MLOAD PUSH2 0x190 SWAP2 SWAP1 PUSH2 0x440B JUMP JUMPDEST PUSH1 0x40 MLOAD DUP1 SWAP2 SUB SWAP1 RETURN JUMPDEST PUSH2 0x1B3 PUSH1 0x4 DUP1 CALLDATASIZE SUB DUP2 ADD SWAP1 PUSH2 0x1AE SWAP2 SWAP1 PUSH2 0x4453 JUMP JUMPDEST PUSH2 0x72A JUMP JUMPDEST PUSH1 0x40 MLOAD PUSH2 0x1C0 SWAP2 SWAP1 PUSH2 0x4498 JUMP JUMPDEST PUSH1 0x40 MLOAD DUP1 SWAP2 SUB SWAP1 RETURN JUMPDEST CALLVALUE DUP1 ISZERO PUSH2 0x1D4 JUMPI PUSH0 DUP1 REVERT JUMPDEST POP CALLTOKENID DUP1 ISZERO PUSH2 0x1E0 JUMPI PUSH0 DUP1 REVERT JUMPDEST POP CALLTOKENVALUE DUP1 ISZERO PUSH2 0x1EC JUMPI PUSH0 DUP1 REVERT JUMPDEST POP PUSH2 0x1F5 PUSH2 0x753 JUMP JUMPDEST PUSH1 0x40 MLOAD PUSH2 0x202 SWAP2 SWAP1 PUSH2 0x440B JUMP JUMPDEST PUSH1 0x40 MLOAD DUP1 SWAP2 SUB SWAP1 RETURN JUMPDEST CALLVALUE DUP1 ISZERO PUSH2 0x216 JUMPI PUSH0 DUP1 REVERT JUMPDEST POP CALLTOKENID DUP1 ISZERO PUSH2 0x222 JUMPI PUSH0 DUP1 REVERT JUMPDEST POP CALLTOKENVALUE DUP1 ISZERO PUSH2 0x22E JUMPI PUSH0 DUP1 REVERT JUMPDEST POP PUSH2 0x249 PUSH1 0x4 DUP1 CALLDATASIZE SUB DUP2 ADD SWAP1 PUSH2 0x244 SWAP2 SWAP1 PUSH2 0x4536 JUMP JUMPDEST PUSH2 0x75C JUMP JUMPDEST PUSH1 0x40 MLOAD PUSH2 0x256 SWAP2 SWAP1 PUSH2 0x440B JUMP JUMPDEST PUSH1 0x40 MLOAD DUP1 SWAP2 SUB SWAP1 RETURN JUMPDEST CALLVALUE DUP1 ISZERO PUSH2 0x26A JUMPI PUSH0 DUP1 REVERT JUMPDEST POP CALLTOKENID DUP1 ISZERO PUSH2 0x276 JUMPI PUSH0 DUP1 REVERT JUMPDEST POP CALLTOKENVALUE DUP1 ISZERO PUSH2 0x282 JUMPI PUSH0 DUP1 REVERT JUMPDEST POP PUSH2 0x29D PUSH1 0x4 DUP1 CALLDATASIZE SUB DUP2 ADD SWAP1 PUSH2 0x298 SWAP2 SWAP1 PUSH2 0x45A7 JUMP JUMPDEST PUSH2 0x77C JUMP JUMPDEST PUSH1 0x40 MLOAD PUSH2 0x2AA SWAP2 SWAP1 PUSH2 0x4694 JUMP JUMPDEST PUSH1 0x40 MLOAD DUP1 SWAP2 SUB SWAP1 RETURN JUMPDEST PUSH2 0x2BB PUSH2 0x794 JUMP JUMPDEST PUSH1 0x40 MLOAD PUSH2 0x2C8 SWAP2 SWAP1 PUSH2 0x4498 JUMP JUMPDEST PUSH1 0x40 MLOAD DUP1 SWAP2 SUB SWAP1 RETURN JUMPDEST PUSH2 0x2EB PUSH1 0x4 DUP1 CALLDATASIZE SUB DUP2 ADD SWAP1 PUSH2 0x2E6 SWAP2 SWAP1 PUSH2 0x46CB JUMP JUMPDEST PUSH2 0x7B5 JUMP JUMPDEST PUSH1 0x40 MLOAD PUSH2 0x2F8 SWAP2 SWAP1 PUSH2 0x4498 JUMP JUMPDEST PUSH1 0x40 MLOAD DUP1 SWAP2 SUB SWAP1 RETURN JUMPDEST CALLVALUE DUP1 ISZERO PUSH2 0x30C JUMPI PUSH0 DUP1 REVERT JUMPDEST POP CALLTOKENID DUP1 ISZERO PUSH2 0x318 JUMPI PUSH0 DUP1 REVERT JUMPDEST POP CALLTOKENVALUE DUP1 ISZERO PUSH2 0x324 JUMPI PUSH0 DUP1 REVERT JUMPDEST POP PUSH2 0x32D PUSH2 0x7DE JUMP JUMPDEST PUSH1 0x40 MLOAD PUSH2 0x33A SWAP2 SWAP1 PUSH2 0x4498 JUMP JUMPDEST PUSH1 0x40 MLOAD DUP1 SWAP2 SUB SWAP1 RETURN JUMPDEST CALLVALUE DUP1 ISZERO PUSH2 0x34E JUMPI PUSH0 DUP1 REVERT JUMPDEST POP CALLTOKENID DUP1 ISZERO PUSH2 0x35A JUMPI PUSH0 DUP1 REVERT JUMPDEST POP CALLTOKENVALUE DUP1 ISZERO PUSH2 0x366 JUMPI PUSH0 DUP1 REVERT JUMPDEST POP PUSH2 0x36F PUSH2 0x7FE JUMP JUMPDEST PUSH1 0x40 MLOAD PUSH2 0x37C SWAP2 SWAP1 PUSH2 0x478D JUMP JUMPDEST PUSH1 0x40 MLOAD DUP1 SWAP2 SUB SWAP1 RETURN JUMPDEST CALLVALUE DUP1 ISZERO PUSH2 0x390 JUMPI PUSH0 DUP1 REVERT JUMPDEST POP CALLTOKENID DUP1 ISZERO PUSH2 0x39C JUMPI PUSH0 DUP1 REVERT JUMPDEST POP CALLTOKENVALUE DUP1 ISZERO PUSH2 0x3A8 JUMPI PUSH0 DUP1 REVERT JUMPDEST POP PUSH2 0x3B1 PUSH2 0x826 JUMP JUMPDEST PUSH1 0x40 MLOAD PUSH2 0x3BE SWAP2 SWAP1 PUSH2 0x4498 JUMP JUMPDEST PUSH1 0x40 MLOAD DUP1 SWAP2 SUB SWAP1 RETURN JUMPDEST PUSH2 0x3E1 PUSH1 0x4 DUP1 CALLDATASIZE SUB DUP2 ADD SWAP1 PUSH2 0x3DC SWAP2 SWAP1 PUSH2 0x47D0 JUMP JUMPDEST PUSH2 0x846 JUMP JUMPDEST PUSH1 0x40 MLOAD PUSH2 0x3EE SWAP2 SWAP1 PUSH2 0x4498 JUMP JUMPDEST PUSH1 0x40 MLOAD DUP1 SWAP2 SUB SWAP1 RETURN JUMPDEST CALLVALUE DUP1 ISZERO PUSH2 0x402 JUMPI PUSH0 DUP1 REVERT JUMPDEST POP CALLTOKENID DUP1 ISZERO PUSH2 0x40E JUMPI PUSH0 DUP1 REVERT JUMPDEST POP CALLTOKENVALUE DUP1 ISZERO PUSH2 0x41A JUMPI PUSH0 DUP1 REVERT JUMPDEST POP PUSH2 0x423 PUSH2 0x867 JUMP JUMPDEST PUSH1 0x40 MLOAD PUSH2 0x430 SWAP2 SWAP1 PUSH2 0x4498 JUMP JUMPDEST PUSH1 0x40 MLOAD DUP1 SWAP2 SUB SWAP1 RETURN JUMPDEST CALLVALUE DUP1 ISZERO PUSH2 0x444 JUMPI PUSH0 DUP1 REVERT JUMPDEST POP CALLTOKENID DUP1 ISZERO PUSH2 0x450 JUMPI PUSH0 DUP1 REVERT JUMPDEST POP CALLTOKENVALUE DUP1 ISZERO PUSH2 0x45C JUMPI PUSH0 DUP1 REVERT JUMPDEST POP PUSH2 0x465 PUSH2 0x888 JUMP JUMPDEST PUSH1 0x40 MLOAD PUSH2 0x472 SWAP2 SWAP1 PUSH2 0x480A JUMP JUMPDEST PUSH1 0x40 MLOAD DUP1 SWAP2 SUB SWAP1 RETURN JUMPDEST PUSH2 0x483 PUSH2 0x8A9 JUMP JUMPDEST PUSH1 0x40 MLOAD PUSH2 0x490 SWAP2 SWAP1 PUSH2 0x4498 JUMP JUMPDEST PUSH1 0x40 MLOAD DUP1 SWAP2 SUB SWAP1 RETURN JUMPDEST CALLVALUE DUP1 ISZERO PUSH2 0x4A4 JUMPI PUSH0 DUP1 REVERT JUMPDEST POP CALLTOKENID DUP1 ISZERO PUSH2 0x4B0 JUMPI PUSH0 DUP1 REVERT JUMPDEST POP CALLTOKENVALUE DUP1 ISZERO PUSH2 0x4BC JUMPI PUSH0 DUP1 REVERT JUMPDEST POP PUSH2 0x4C5 PUSH2 0x8CA JUMP JUMPDEST PUSH1 0x40 MLOAD PUSH2 0x4D2 SWAP2 SWAP1 PUSH2 0x440B JUMP JUMPDEST PUSH1 0x40 MLOAD DUP1 SWAP2 SUB SWAP1 RETURN JUMPDEST CALLVALUE DUP1 ISZERO PUSH2 0x4E6 JUMPI PUSH0 DUP1 REVERT JUMPDEST POP CALLTOKENID DUP1 ISZERO PUSH2 0x4F2 JUMPI PUSH0 DUP1 REVERT JUMPDEST POP CALLTOKENVALUE DUP1 ISZERO PUSH2 0x4FE JUMPI PUSH0 DUP1 REVERT JUMPDEST POP PUSH2 0x507 PUSH2 0x8D3 JUMP JUMPDEST PUSH1 0x40 MLOAD PUSH2 0x514 SWAP2 SWAP1 PUSH2 0x440B JUMP JUMPDEST PUSH1 0x40 MLOAD DUP1 SWAP2 SUB SWAP1 RETURN JUMPDEST CALLVALUE DUP1 ISZERO PUSH2 0x528 JUMPI PUSH0 DUP1 REVERT JUMPDEST POP CALLTOKENID DUP1 ISZERO PUSH2 0x534 JUMPI PUSH0 DUP1 REVERT JUMPDEST POP CALLTOKENVALUE DUP1 ISZERO PUSH2 0x540 JUMPI PUSH0 DUP1 REVERT JUMPDEST POP PUSH2 0x549 PUSH2 0x8F3 JUMP JUMPDEST PUSH1 0x40 MLOAD PUSH2 0x556 SWAP2 SWAP1 PUSH2 0x48A9 JUMP JUMPDEST PUSH1 0x40 MLOAD DUP1 SWAP2 SUB SWAP1 RETURN JUMPDEST PUSH2 0x567 PUSH2 0x91B JUMP JUMPDEST PUSH1 0x40 MLOAD PUSH2 0x574 SWAP2 SWAP1 PUSH2 0x4498 JUMP JUMPDEST PUSH1 0x40 MLOAD DUP1 SWAP2 SUB SWAP1 RETURN JUMPDEST CALLVALUE DUP1 ISZERO PUSH2 0x588 JUMPI PUSH0 DUP1 REVERT JUMPDEST POP CALLTOKENID DUP1 ISZERO PUSH2 0x594 JUMPI PUSH0 DUP1 REVERT JUMPDEST POP CALLTOKENVALUE DUP1 ISZERO PUSH2 0x5A0 JUMPI PUSH0 DUP1 REVERT JUMPDEST POP PUSH2 0x5BB PUSH1 0x4 DUP1 CALLDATASIZE SUB DUP2 ADD SWAP1 PUSH2 0x5B6 SWAP2 SWAP1 PUSH2 0x4536 JUMP JUMPDEST PUSH2 0x93C JUMP JUMPDEST PUSH1 0x40 MLOAD PUSH2 0x5C8 SWAP2 SWAP1 PUSH2 0x4498 JUMP JUMPDEST PUSH1 0x40 MLOAD DUP1 SWAP2 SUB SWAP1 RETURN JUMPDEST CALLVALUE DUP1 ISZERO PUSH2 0x5DC JUMPI PUSH0 DUP1 REVERT JUMPDEST POP CALLTOKENID DUP1 ISZERO PUSH2 0x5E8 JUMPI PUSH0 DUP1 REVERT JUMPDEST POP CALLTOKENVALUE DUP1 ISZERO PUSH2 0x5F4 JUMPI PUSH0 DUP1 REVERT JUMPDEST POP PUSH2 0x5FD PUSH2 0x95C JUMP JUMPDEST PUSH1 0x40 MLOAD PUSH2 0x60B SWAP3 SWAP2 SWAP1 PUSH2 0x494C JUMP JUMPDEST PUSH1 0x40 MLOAD DUP1 SWAP2 SUB SWAP1 RETURN JUMPDEST CALLVALUE DUP1 ISZERO PUSH2 0x61F JUMPI PUSH0 DUP1 REVERT JUMPDEST POP CALLTOKENID DUP1 ISZERO PUSH2 0x62B JUMPI PUSH0 DUP1 REVERT JUMPDEST POP CALLTOKENVALUE DUP1 ISZERO PUSH2 0x637 JUMPI PUSH0 DUP1 REVERT JUMPDEST POP PUSH2 0x640 PUSH2 0x9F5 JUMP JUMPDEST PUSH1 0x40 MLOAD PUSH2 0x64D SWAP2 SWAP1 PUSH2 0x440B JUMP JUMPDEST PUSH1 0x40 MLOAD DUP1 SWAP2 SUB SWAP1 RETURN JUMPDEST CALLVALUE DUP1 ISZERO PUSH2 0x661 JUMPI PUSH0 DUP1 REVERT JUMPDEST POP CALLTOKENID DUP1 ISZERO PUSH2 0x66D JUMPI PUSH0 DUP1 REVERT JUMPDEST POP CALLTOKENVALUE DUP1 ISZERO PUSH2 0x679 JUMPI PUSH0 DUP1 REVERT JUMPDEST POP PUSH2 0x682 PUSH2 0xA16 JUMP JUMPDEST PUSH1 0x40 MLOAD PUSH2 0x68F SWAP2 SWAP1 PUSH2 0x440B JUMP JUMPDEST PUSH1 0x40 MLOAD DUP1 SWAP2 SUB SWAP1 RETURN JUMPDEST PUSH2 0x6B2 PUSH1 0x4 DUP1 CALLDATASIZE SUB DUP2 ADD SWAP1 PUSH2 0x6AD SWAP2 SWAP1 PUSH2 0x4536 JUMP JUMPDEST PUSH2 0xA36 JUMP JUMPDEST PUSH1 0x40 MLOAD PUSH2 0x6BF SWAP2 SWAP1 PUSH2 0x4498 JUMP JUMPDEST PUSH1 0x40 MLOAD DUP1 SWAP2 SUB SWAP1 RETURN JUMPDEST CALLVALUE DUP1 ISZERO PUSH2 0x6D3 JUMPI PUSH0 DUP1 REVERT JUMPDEST POP CALLTOKENID DUP1 ISZERO PUSH2 0x6DF JUMPI PUSH0 DUP1 REVERT JUMPDEST POP CALLTOKENVALUE DUP1 ISZERO PUSH2 0x6EB JUMPI PUSH0 DUP1 REVERT JUMPDEST POP PUSH2 0x6F4 PUSH2 0xA57 JUMP JUMPDEST PUSH1 0x40 MLOAD PUSH2 0x701 SWAP2 SWAP1 PUSH2 0x440B JUMP JUMPDEST PUSH1 0x40 MLOAD DUP1 SWAP2 SUB SWAP1 RETURN JUMPDEST PUSH0 PUSH2 0x713 PUSH2 0x3D34 JUMP JUMPDEST PUSH0 PUSH2 0x71E DUP2 DUP4 PUSH2 0xA78 JUMP JUMPDEST DUP2 PUSH1 0x60 ADD MLOAD SWAP3 POP POP POP SWAP1 JUMP JUMPDEST PUSH0 PUSH2 0x733 PUSH2 0x3D34 JUMP JUMPDEST PUSH2 0x74D DUP4 DUP1 CALLDATASIZE SUB DUP2 ADD SWAP1 PUSH2 0x747 SWAP2 SWAP1 PUSH2 0x4B9F JUMP JUMPDEST DUP3 PUSH2 0xB3A JUMP JUMPDEST POP SWAP2 SWAP1 POP JUMP JUMPDEST PUSH0 PUSH1 0x3 SLOAD SWAP1 POP SWAP1 JUMP JUMPDEST PUSH0 PUSH2 0x765 PUSH2 0x3D34 JUMP JUMPDEST PUSH2 0x76F DUP4 DUP3 PUSH2 0x2278 JUMP JUMPDEST DUP1 PUSH1 0xC0 ADD MLOAD SWAP2 POP POP SWAP2 SWAP1 POP JUMP JUMPDEST PUSH2 0x784 PUSH2 0x3DEB JUMP JUMPDEST PUSH2 0x78D DUP3 PUSH2 0x2287 JUMP JUMPDEST SWAP1 POP SWAP2 SWAP1 POP JUMP JUMPDEST PUSH0 PUSH2 0x79D PUSH2 0x3D34 JUMP JUMPDEST PUSH0 PUSH2 0x7A8 DUP2 DUP4 PUSH2 0x2406 JUMP JUMPDEST DUP2 PUSH2 0x1E0 ADD MLOAD SWAP3 POP POP POP SWAP1 JUMP JUMPDEST PUSH0 PUSH2 0x7BE PUSH2 0x3D34 JUMP JUMPDEST PUSH2 0x7D8 DUP4 DUP1 CALLDATASIZE SUB DUP2 ADD SWAP1 PUSH2 0x7D2 SWAP2 SWAP1 PUSH2 0x4BCA JUMP JUMPDEST DUP3 PUSH2 0x2487 JUMP JUMPDEST POP SWAP2 SWAP1 POP JUMP JUMPDEST PUSH0 PUSH2 0x7E7 PUSH2 0x3D34 JUMP JUMPDEST PUSH0 PUSH2 0x7F2 DUP2 DUP4 PUSH2 0x2963 JUMP JUMPDEST DUP2 PUSH1 0xA0 ADD MLOAD SWAP3 POP POP POP SWAP1 JUMP JUMPDEST PUSH2 0x806 PUSH2 0x3E1F JUMP JUMPDEST PUSH2 0x80E PUSH2 0x3D34 JUMP JUMPDEST PUSH0 PUSH2 0x819 DUP2 DUP4 PUSH2 0x2A2B JUMP JUMPDEST DUP2 PUSH2 0x100 ADD MLOAD SWAP3 POP POP POP SWAP1 JUMP JUMPDEST PUSH0 PUSH2 0x82F PUSH2 0x3D34 JUMP JUMPDEST PUSH0 PUSH2 0x83A DUP2 DUP4 PUSH2 0x2BBB JUMP JUMPDEST DUP2 PUSH1 0x20 ADD MLOAD SWAP3 POP POP POP SWAP1 JUMP JUMPDEST PUSH0 PUSH2 0x84F PUSH2 0x3D34 JUMP JUMPDEST PUSH2 0x859 DUP4 DUP3 PUSH2 0x2C86 JUMP JUMPDEST DUP1 PUSH2 0x1C0 ADD MLOAD SWAP2 POP POP SWAP2 SWAP1 POP JUMP JUMPDEST PUSH0 PUSH2 0x870 PUSH2 0x3D34 JUMP JUMPDEST PUSH0 PUSH2 0x87B DUP2 DUP4 PUSH2 0x2D0B JUMP JUMPDEST DUP2 PUSH2 0x180 ADD MLOAD SWAP3 POP POP POP SWAP1 JUMP JUMPDEST PUSH0 PUSH2 0x891 PUSH2 0x3D34 JUMP JUMPDEST PUSH0 PUSH2 0x89C DUP2 DUP4 PUSH2 0x2DD8 JUMP JUMPDEST DUP2 PUSH2 0x160 ADD MLOAD SWAP3 POP POP POP SWAP1 JUMP JUMPDEST PUSH0 PUSH2 0x8B2 PUSH2 0x3D34 JUMP JUMPDEST PUSH0 PUSH2 0x8BD DUP2 DUP4 PUSH2 0x2EC8 JUMP JUMPDEST DUP2 PUSH2 0x240 ADD MLOAD SWAP3 POP POP POP SWAP1 JUMP JUMPDEST PUSH0 PUSH1 0x1 SLOAD SWAP1 POP SWAP1 JUMP JUMPDEST PUSH0 PUSH2 0x8DC PUSH2 0x3D34 JUMP JUMPDEST PUSH0 PUSH2 0x8E7 DUP2 DUP4 PUSH2 0x2F49 JUMP JUMPDEST DUP2 PUSH1 0x40 ADD MLOAD SWAP3 POP POP POP SWAP1 JUMP JUMPDEST PUSH2 0x8FB PUSH2 0x3E7D JUMP JUMPDEST PUSH2 0x903 PUSH2 0x3D34 JUMP JUMPDEST PUSH0 PUSH2 0x90E DUP2 DUP4 PUSH2 0x300B JUMP JUMPDEST DUP2 PUSH2 0x1A0 ADD MLOAD SWAP3 POP POP POP SWAP1 JUMP JUMPDEST PUSH0 PUSH2 0x924 PUSH2 0x3D34 JUMP JUMPDEST PUSH0 PUSH2 0x92F DUP2 DUP4 PUSH2 0x30D2 JUMP JUMPDEST DUP2 PUSH2 0x200 ADD MLOAD SWAP3 POP POP POP SWAP1 JUMP JUMPDEST PUSH0 PUSH2 0x945 PUSH2 0x3D34 JUMP JUMPDEST PUSH2 0x94F DUP4 DUP3 PUSH2 0x3153 JUMP JUMPDEST DUP1 PUSH1 0xE0 ADD MLOAD SWAP2 POP POP SWAP2 SWAP1 POP JUMP JUMPDEST PUSH0 PUSH1 0x60 PUSH0 SLOAD PUSH1 0x2 DUP1 DUP1 SLOAD PUSH2 0x96F SWAP1 PUSH2 0x4C22 JUMP JUMPDEST DUP1 PUSH1 0x1F ADD PUSH1 0x20 DUP1 SWAP2 DIV MUL PUSH1 0x20 ADD PUSH1 0x40 MLOAD SWAP1 DUP2 ADD PUSH1 0x40 MSTORE DUP1 SWAP3 SWAP2 SWAP1 DUP2 DUP2 MSTORE PUSH1 0x20 ADD DUP3 DUP1 SLOAD PUSH2 0x99B SWAP1 PUSH2 0x4C22 JUMP JUMPDEST DUP1 ISZERO PUSH2 0x9E6 JUMPI DUP1 PUSH1 0x1F LT PUSH2 0x9BD JUMPI PUSH2 0x100 DUP1 DUP4 SLOAD DIV MUL DUP4 MSTORE SWAP2 PUSH1 0x20 ADD SWAP2 PUSH2 0x9E6 JUMP JUMPDEST DUP3 ADD SWAP2 SWAP1 PUSH0 MSTORE PUSH1 0x20 PUSH0 KECCAK256 SWAP1 JUMPDEST DUP2 SLOAD DUP2 MSTORE SWAP1 PUSH1 0x1 ADD SWAP1 PUSH1 0x20 ADD DUP1 DUP4 GT PUSH2 0x9C9 JUMPI DUP3 SWAP1 SUB PUSH1 0x1F AND DUP3 ADD SWAP2 JUMPDEST POP POP POP POP POP SWAP1 POP SWAP2 POP SWAP2 POP SWAP1 SWAP2 JUMP JUMPDEST PUSH0 PUSH2 0x9FE PUSH2 0x3D34 JUMP JUMPDEST PUSH0 PUSH2 0xA09 DUP2 DUP4 PUSH2 0x3236 JUMP JUMPDEST DUP2 PUSH2 0x120 ADD MLOAD SWAP3 POP POP POP SWAP1 JUMP JUMPDEST PUSH0 PUSH2 0xA1F PUSH2 0x3D34 JUMP JUMPDEST PUSH0 PUSH2 0xA2A DUP2 DUP4 PUSH2 0x3308 JUMP JUMPDEST DUP2 PUSH1 0x80 ADD MLOAD SWAP3 POP POP POP SWAP1 JUMP JUMPDEST PUSH0 PUSH2 0xA3F PUSH2 0x3D34 JUMP JUMPDEST PUSH2 0xA49 DUP4 DUP3 PUSH2 0x33CA JUMP JUMPDEST DUP1 PUSH2 0x220 ADD MLOAD SWAP2 POP POP SWAP2 SWAP1 POP JUMP JUMPDEST PUSH0 PUSH2 0xA60 PUSH2 0x3D34 JUMP JUMPDEST PUSH0 PUSH2 0xA6B DUP2 DUP4 PUSH2 0x347E JUMP JUMPDEST DUP2 PUSH2 0x140 ADD MLOAD SWAP3 POP POP POP SWAP1 JUMP JUMPDEST PUSH2 0xA87 PUSH1 0x4 PUSH0 SLOAD EQ PUSH1 0x9 PUSH2 0x3545 JUMP JUMPDEST PUSH0 PUSH1 0x2 DUP1 SLOAD PUSH2 0xA95 SWAP1 PUSH2 0x4C22 JUMP JUMPDEST DUP1 PUSH1 0x1F ADD PUSH1 0x20 DUP1 SWAP2 DIV MUL PUSH1 0x20 ADD PUSH1 0x40 MLOAD SWAP1 DUP2 ADD PUSH1 0x40 MSTORE DUP1 SWAP3 SWAP2 SWAP1 DUP2 DUP2 MSTORE PUSH1 0x20 ADD DUP3 DUP1 SLOAD PUSH2 0xAC1 SWAP1 PUSH2 0x4C22 JUMP JUMPDEST DUP1 ISZERO PUSH2 0xB0C JUMPI DUP1 PUSH1 0x1F LT PUSH2 0xAE3 JUMPI PUSH2 0x100 DUP1 DUP4 SLOAD DIV MUL DUP4 MSTORE SWAP2 PUSH1 0x20 ADD SWAP2 PUSH2 0xB0C JUMP JUMPDEST DUP3 ADD SWAP2 SWAP1 PUSH0 MSTORE PUSH1 0x20 PUSH0 KECCAK256 SWAP1 JUMPDEST DUP2 SLOAD DUP2 MSTORE SWAP1 PUSH1 0x1 ADD SWAP1 PUSH1 0x20 ADD DUP1 DUP4 GT PUSH2 0xAEF JUMPI DUP3 SWAP1 SUB PUSH1 0x1F AND DUP3 ADD SWAP2 JUMPDEST POP POP POP POP POP DUP1 PUSH1 0x20 ADD SWAP1 MLOAD DUP2 ADD SWAP1 PUSH2 0xB24 SWAP2 SWAP1 PUSH2 0x509E JUMP JUMPDEST SWAP1 POP DUP1 PUSH2 0x120 ADD MLOAD DUP3 PUSH1 0x60 ADD DUP2 DUP2 MSTORE POP POP POP POP POP JUMP JUMPDEST PUSH2 0xB42 PUSH2 0x3EC5 JUMP JUMPDEST PUSH2 0xB51 PUSH1 0x4 PUSH0 SLOAD EQ PUSH1 0x20 PUSH2 0x3545 JUMP JUMPDEST PUSH0 PUSH1 0x2 DUP1 SLOAD PUSH2 0xB5F SWAP1 PUSH2 0x4C22 JUMP JUMPDEST DUP1 PUSH1 0x1F ADD PUSH1 0x20 DUP1 SWAP2 DIV MUL PUSH1 0x20 ADD PUSH1 0x40 MLOAD SWAP1 DUP2 ADD PUSH1 0x40 MSTORE DUP1 SWAP3 SWAP2 SWAP1 DUP2 DUP2 MSTORE PUSH1 0x20 ADD DUP3 DUP1 SLOAD PUSH2 0xB8B SWAP1 PUSH2 0x4C22 JUMP JUMPDEST DUP1 ISZERO PUSH2 0xBD6 JUMPI DUP1 PUSH1 0x1F LT PUSH2 0xBAD JUMPI PUSH2 0x100 DUP1 DUP4 SLOAD DIV MUL DUP4 MSTORE SWAP2 PUSH1 0x20 ADD SWAP2 PUSH2 0xBD6 JUMP JUMPDEST DUP3 ADD SWAP2 SWAP1 PUSH0 MSTORE PUSH1 0x20 PUSH0 KECCAK256 SWAP1 JUMPDEST DUP2 SLOAD DUP2 MSTORE SWAP1 PUSH1 0x1 ADD SWAP1 PUSH1 0x20 ADD DUP1 DUP4 GT PUSH2 0xBB9 JUMPI DUP3 SWAP1 SUB PUSH1 0x1F AND DUP3 ADD SWAP2 JUMPDEST POP POP POP POP POP DUP1 PUSH1 0x20 ADD SWAP1 MLOAD DUP2 ADD SWAP1 PUSH2 0xBEE SWAP2 SWAP1 PUSH2 0x509E JUMP JUMPDEST SWAP1 POP PUSH2 0xC0A PUSH1 0x4 PUSH0 SWAP1 SLOAD SWAP1 PUSH2 0x100 EXP SWAP1 DIV PUSH1 0xFF AND ISZERO PUSH1 0x21 PUSH2 0x3545 JUMP JUMPDEST PUSH32 0xDAEC047D8800B54C015AA48D6D37D33EC5420CB485B62F7E95EDC2C08B874835 CALLER DUP6 PUSH1 0x40 MLOAD PUSH2 0xC3B SWAP3 SWAP2 SWAP1 PUSH2 0x51F9 JUMP JUMPDEST PUSH1 0x40 MLOAD DUP1 SWAP2 SUB SWAP1 LOG1 PUSH2 0xC62 PUSH0 DUP6 PUSH0 ADD MLOAD EQ DUP1 PUSH2 0xC5B JUMPI POP DUP5 PUSH0 ADD MLOAD PUSH1 0x1 SLOAD EQ JUMPDEST PUSH1 0x22 PUSH2 0x3545 JUMP JUMPDEST PUSH0 PUSH1 0x4 DUP2 GT ISZERO PUSH2 0xC75 JUMPI PUSH2 0xC74 PUSH2 0x45D2 JUMP JUMPDEST JUMPDEST DUP5 PUSH1 0x20 ADD MLOAD PUSH0 ADD MLOAD PUSH1 0x4 DUP2 GT ISZERO PUSH2 0xC8F JUMPI PUSH2 0xC8E PUSH2 0x45D2 JUMP JUMPDEST JUMPDEST SUB PUSH2 0x109D JUMPI DUP4 PUSH1 0x20 ADD MLOAD PUSH1 0x20 ADD MLOAD DUP3 PUSH0 ADD DUP2 SWAP1 MSTORE POP PUSH2 0xCBB DUP2 PUSH2 0x120 ADD MLOAD DUP3 PUSH2 0x160 ADD MLOAD LT PUSH1 0x23 PUSH2 0x3545 JUMP JUMPDEST PUSH2 0xCD0 PUSH1 0x1 DUP4 PUSH0 ADD MLOAD PUSH0 ADD MLOAD LT ISZERO PUSH1 0x24 PUSH2 0x3545 JUMP JUMPDEST PUSH2 0xCE4 DUP3 PUSH0 ADD MLOAD PUSH0 ADD MLOAD DUP3 PUSH1 0x80 ADD MLOAD PUSH2 0x358B JUMP JUMPDEST DUP3 PUSH1 0x20 ADD DUP2 DUP2 MSTORE POP POP PUSH2 0xCFE DUP3 PUSH1 0x20 ADD MLOAD CALLVALUE EQ PUSH1 0x25 PUSH2 0x3545 JUMP JUMPDEST PUSH2 0xD17 PUSH2 0xD10 CALLER DUP4 PUSH1 0xA0 ADD MLOAD PUSH0 PUSH2 0x35F7 JUMP JUMPDEST PUSH1 0x26 PUSH2 0x3545 JUMP JUMPDEST CALLER DUP3 PUSH1 0x40 ADD MLOAD PUSH0 ADD SWAP1 PUSH20 0xFFFFFFFFFFFFFFFFFFFFFFFFFFFFFFFFFFFFFFFF AND SWAP1 DUP2 PUSH20 0xFFFFFFFFFFFFFFFFFFFFFFFFFFFFFFFFFFFFFFFF AND DUP2 MSTORE POP POP DUP2 PUSH0 ADD MLOAD PUSH0 ADD MLOAD DUP3 PUSH1 0x40 ADD MLOAD PUSH1 0x20 ADD DUP2 DUP2 MSTORE POP POP PUSH32 0xDDBFFBB525907340AC3C1399EA9F8A8184B2C6B84DEB3DEA35D09BA67E308733 DUP3 PUSH1 0x40 ADD MLOAD PUSH1 0x40 MLOAD PUSH2 0xD99 SWAP2 SWAP1 PUSH2 0x524E JUMP JUMPDEST PUSH1 0x40 MLOAD DUP1 SWAP2 SUB SWAP1 LOG1 PUSH32 0xF67B5442EEC6842E73ACCCDE1D66EDC01C681E32A823F930B53AA7B097EF0EF1 PUSH1 0x1 PUSH1 0x40 MLOAD PUSH2 0xDD1 SWAP2 SWAP1 PUSH2 0x4498 JUMP JUMPDEST PUSH1 0x40 MLOAD DUP1 SWAP2 SUB SWAP1 LOG1 PUSH1 0x1 DUP4 PUSH2 0x1C0 ADD SWAP1 ISZERO ISZERO SWAP1 DUP2 ISZERO ISZERO DUP2 MSTORE POP POP DUP1 PUSH2 0x140 ADD MLOAD PUSH0 ADD MLOAD DUP3 PUSH1 0x60 ADD MLOAD PUSH0 ADD SWAP1 ISZERO ISZERO SWAP1 DUP2 ISZERO ISZERO DUP2 MSTORE POP POP PUSH2 0xE19 DUP2 PUSH2 0x1E0 ADD MLOAD DUP4 PUSH1 0x20 ADD MLOAD PUSH2 0x360D JUMP JUMPDEST DUP3 PUSH1 0x60 ADD MLOAD PUSH1 0x20 ADD DUP2 DUP2 MSTORE POP POP PUSH2 0xE3A DUP2 PUSH2 0x140 ADD MLOAD PUSH1 0x40 ADD MLOAD PUSH1 0x1 PUSH2 0x360D JUMP JUMPDEST DUP3 PUSH1 0x60 ADD MLOAD PUSH1 0x40 ADD DUP2 DUP2 MSTORE POP POP DUP1 PUSH2 0x140 ADD MLOAD PUSH1 0x60 ADD MLOAD DUP3 PUSH1 0x60 ADD MLOAD PUSH1 0x60 ADD SWAP1 ISZERO ISZERO SWAP1 DUP2 ISZERO ISZERO DUP2 MSTORE POP POP PUSH2 0xE7D DUP2 PUSH2 0x140 ADD MLOAD PUSH1 0x80 ADD MLOAD DUP4 PUSH0 ADD MLOAD PUSH0 ADD MLOAD PUSH2 0x360D JUMP JUMPDEST DUP3 PUSH1 0x60 ADD MLOAD PUSH1 0x80 ADD DUP2 DUP2 MSTORE POP POP DUP1 PUSH2 0x140 ADD MLOAD PUSH1 0xA0 ADD MLOAD DUP3 PUSH1 0x60 ADD MLOAD PUSH1 0xA0 ADD SWAP1 ISZERO ISZERO SWAP1 DUP2 ISZERO ISZERO DUP2 MSTORE POP POP DUP1 PUSH2 0x140 ADD MLOAD PUSH1 0xC0 ADD MLOAD DUP3 PUSH1 0x60 ADD MLOAD PUSH1 0xC0 ADD DUP2 DUP2 MSTORE POP POP DUP1 PUSH2 0x200 ADD MLOAD DUP3 PUSH1 0x60 ADD MLOAD PUSH1 0xE0 ADD DUP2 DUP2 MSTORE POP POP DUP1 PUSH2 0x140 ADD MLOAD PUSH2 0x100 ADD MLOAD DUP3 PUSH1 0x60 ADD MLOAD PUSH2 0x100 ADD DUP2 SWAP1 MSTORE POP PUSH2 0xEF1 PUSH2 0x3F7A JUMP JUMPDEST DUP2 PUSH0 ADD MLOAD DUP2 PUSH0 ADD SWAP1 PUSH20 0xFFFFFFFFFFFFFFFFFFFFFFFFFFFFFFFFFFFFFFFF AND SWAP1 DUP2 PUSH20 0xFFFFFFFFFFFFFFFFFFFFFFFFFFFFFFFFFFFFFFFF AND DUP2 MSTORE POP POP DUP2 PUSH1 0x20 ADD MLOAD DUP2 PUSH1 0x20 ADD SWAP1 ISZERO ISZERO SWAP1 DUP2 ISZERO ISZERO DUP2 MSTORE POP POP DUP2 PUSH1 0x40 ADD MLOAD DUP2 PUSH1 0x40 ADD DUP2 DUP2 MSTORE POP POP DUP2 PUSH1 0x60 ADD MLOAD DUP2 PUSH1 0x60 ADD DUP2 DUP2 MSTORE POP POP DUP2 PUSH1 0x80 ADD MLOAD DUP2 PUSH1 0x80 ADD DUP2 DUP2 MSTORE POP POP DUP2 PUSH1 0xA0 ADD MLOAD DUP2 PUSH1 0xA0 ADD SWAP1 PUSH20 0xFFFFFFFFFFFFFFFFFFFFFFFFFFFFFFFFFFFFFFFF AND SWAP1 DUP2 PUSH20 0xFFFFFFFFFFFFFFFFFFFFFFFFFFFFFFFFFFFFFFFF AND DUP2 MSTORE POP POP DUP2 PUSH1 0xC0 ADD MLOAD DUP2 PUSH1 0xC0 ADD DUP2 DUP2 MSTORE POP POP DUP2 PUSH1 0xE0 ADD MLOAD DUP2 PUSH1 0xE0 ADD SWAP1 PUSH20 0xFFFFFFFFFFFFFFFFFFFFFFFFFFFFFFFFFFFFFFFF AND SWAP1 DUP2 PUSH20 0xFFFFFFFFFFFFFFFFFFFFFFFFFFFFFFFFFFFFFFFF AND DUP2 MSTORE POP POP DUP2 PUSH2 0x100 ADD MLOAD DUP2 PUSH2 0x100 ADD SWAP1 PUSH20 0xFFFFFFFFFFFFFFFFFFFFFFFFFFFFFFFFFFFFFFFF AND SWAP1 DUP2 PUSH20 0xFFFFFFFFFFFFFFFFFFFFFFFFFFFFFFFFFFFFFFFF AND DUP2 MSTORE POP POP DUP2 PUSH2 0x120 ADD MLOAD DUP2 PUSH2 0x120 ADD DUP2 DUP2 MSTORE POP POP DUP3 PUSH1 0x60 ADD MLOAD DUP2 PUSH2 0x140 ADD DUP2 SWAP1 MSTORE POP NUMBER DUP2 PUSH2 0x160 ADD DUP2 DUP2 MSTORE POP POP TIMESTAMP DUP2 PUSH2 0x180 ADD DUP2 DUP2 MSTORE POP POP DUP2 PUSH2 0x180 ADD MLOAD DUP2 PUSH2 0x1A0 ADD DUP2 SWAP1 MSTORE POP PUSH2 0x1083 DUP3 PUSH2 0x1A0 ADD MLOAD DUP5 PUSH1 0x20 ADD MLOAD PUSH2 0x3665 JUMP JUMPDEST DUP2 PUSH2 0x1C0 ADD DUP2 DUP2 MSTORE POP POP PUSH2 0x1097 DUP2 DUP6 PUSH2 0x3671 JUMP JUMPDEST POP PUSH2 0x2272 JUMP JUMPDEST PUSH1 0x1 PUSH1 0x4 DUP2 GT ISZERO PUSH2 0x10B1 JUMPI PUSH2 0x10B0 PUSH2 0x45D2 JUMP JUMPDEST JUMPDEST DUP5 PUSH1 0x20 ADD MLOAD PUSH0 ADD MLOAD PUSH1 0x4 DUP2 GT ISZERO PUSH2 0x10CB JUMPI PUSH2 0x10CA PUSH2 0x45D2 JUMP JUMPDEST JUMPDEST SUB PUSH2 0x165E JUMPI PUSH2 0x10FD PUSH1 0x1 DUP3 PUSH2 0x140 ADD MLOAD PUSH2 0x100 ADD MLOAD PUSH0 ADD MLOAD PUSH1 0x1 DUP2 GT ISZERO PUSH2 0x10F5 JUMPI PUSH2 0x10F4 PUSH2 0x45D2 JUMP JUMPDEST JUMPDEST EQ PUSH1 0x27 PUSH2 0x3545 JUMP JUMPDEST PUSH2 0x110D DUP2 PUSH2 0x1C0 ADD MLOAD PUSH1 0x28 PUSH2 0x3545 JUMP JUMPDEST PUSH2 0x113F DUP2 PUSH2 0x180 ADD MLOAD PUSH0 PUSH1 0x1 DUP2 LT PUSH2 0x1128 JUMPI PUSH2 0x1127 PUSH2 0x5267 JUMP JUMPDEST JUMPDEST PUSH1 0x20 MUL ADD MLOAD PUSH0 ADD MLOAD DUP3 PUSH2 0x200 ADD MLOAD GT ISZERO PUSH1 0x29 PUSH2 0x3545 JUMP JUMPDEST PUSH1 0x1 DUP1 DUP2 GT ISZERO PUSH2 0x1152 JUMPI PUSH2 0x1151 PUSH2 0x45D2 JUMP JUMPDEST JUMPDEST DUP2 PUSH2 0x140 ADD MLOAD PUSH2 0x100 ADD MLOAD PUSH0 ADD MLOAD PUSH1 0x1 DUP2 GT ISZERO PUSH2 0x1172 JUMPI PUSH2 0x1171 PUSH2 0x45D2 JUMP JUMPDEST JUMPDEST EQ PUSH2 0x1180 JUMPI DUP1 PUSH0 ADD MLOAD PUSH2 0x1190 JUMP JUMPDEST DUP1 PUSH2 0x140 ADD MLOAD PUSH2 0x100 ADD MLOAD PUSH1 0x40 ADD MLOAD JUMPDEST DUP3 PUSH1 0x80 ADD SWAP1 PUSH20 0xFFFFFFFFFFFFFFFFFFFFFFFFFFFFFFFFFFFFFFFF AND SWAP1 DUP2 PUSH20 0xFFFFFFFFFFFFFFFFFFFFFFFFFFFFFFFFFFFFFFFF AND DUP2 MSTORE POP POP PUSH2 0x1204 CALLER PUSH20 0xFFFFFFFFFFFFFFFFFFFFFFFFFFFFFFFFFFFFFFFF AND DUP4 PUSH1 0x80 ADD MLOAD PUSH20 0xFFFFFFFFFFFFFFFFFFFFFFFFFFFFFFFFFFFFFFFF AND EQ PUSH1 0x2A PUSH2 0x3545 JUMP JUMPDEST PUSH2 0x1211 PUSH0 CALLVALUE EQ PUSH1 0x2B PUSH2 0x3545 JUMP JUMPDEST PUSH2 0x122A PUSH2 0x1223 CALLER DUP4 PUSH1 0xA0 ADD MLOAD PUSH0 PUSH2 0x35F7 JUMP JUMPDEST PUSH1 0x2C PUSH2 0x3545 JUMP JUMPDEST PUSH2 0x123D DUP2 PUSH2 0x120 ADD MLOAD TIMESTAMP LT ISZERO PUSH1 0x2D PUSH2 0x3545 JUMP JUMPDEST PUSH2 0x126F DUP2 PUSH1 0xA0 ADD MLOAD DUP4 PUSH1 0x80 ADD MLOAD DUP4 PUSH2 0x180 ADD MLOAD PUSH0 PUSH1 0x1 DUP2 LT PUSH2 0x1262 JUMPI PUSH2 0x1261 PUSH2 0x5267 JUMP JUMPDEST JUMPDEST PUSH1 0x20 MUL ADD MLOAD PUSH0 ADD MLOAD PUSH2 0x395B JUMP JUMPDEST PUSH2 0x1297 DUP2 PUSH2 0x1E0 ADD MLOAD PUSH2 0x1292 PUSH2 0x128B DUP5 PUSH2 0x1A0 ADD MLOAD PUSH1 0x5 PUSH2 0x358B JUMP JUMPDEST PUSH1 0x64 PUSH2 0x3973 JUMP JUMPDEST PUSH2 0x39CA JUMP JUMPDEST DUP3 PUSH1 0xA0 ADD DUP2 DUP2 MSTORE POP POP PUSH2 0x12B3 DUP2 PUSH2 0x1A0 ADD MLOAD DUP4 PUSH1 0xA0 ADD MLOAD PUSH2 0x3A22 JUMP JUMPDEST DUP3 PUSH1 0xC0 ADD DUP2 DUP2 MSTORE POP POP DUP1 PUSH0 ADD MLOAD PUSH20 0xFFFFFFFFFFFFFFFFFFFFFFFFFFFFFFFFFFFFFFFF AND PUSH2 0x8FC DUP4 PUSH1 0xA0 ADD MLOAD SWAP1 DUP2 ISZERO MUL SWAP1 PUSH1 0x40 MLOAD PUSH0 PUSH1 0x40 MLOAD DUP1 DUP4 SUB DUP2 DUP6 DUP9 DUP9 CALL SWAP4 POP POP POP POP ISZERO DUP1 ISZERO PUSH2 0x1306 JUMPI RETURNDATASIZE PUSH0 DUP1 RETURNDATACOPY RETURNDATASIZE PUSH0 REVERT JUMPDEST POP PUSH32 0xC0A9ACC8218979821EA9B80614482163E7DEB99211C322DD6E45D00BA48D64F PUSH1 0x1 PUSH1 0x40 MLOAD PUSH2 0x1337 SWAP2 SWAP1 PUSH2 0x4498 JUMP JUMPDEST PUSH1 0x40 MLOAD DUP1 SWAP2 SUB SWAP1 LOG1 PUSH1 0x1 DUP4 PUSH2 0x1E0 ADD SWAP1 ISZERO ISZERO SWAP1 DUP2 ISZERO ISZERO DUP2 MSTORE POP POP PUSH1 0x1 DUP3 PUSH1 0xE0 ADD MLOAD PUSH0 ADD SWAP1 ISZERO ISZERO SWAP1 DUP2 ISZERO ISZERO DUP2 MSTORE POP POP DUP2 PUSH1 0xC0 ADD MLOAD DUP3 PUSH1 0xE0 ADD MLOAD PUSH1 0x20 ADD DUP2 DUP2 MSTORE POP POP DUP1 PUSH2 0x140 ADD MLOAD PUSH1 0x40 ADD MLOAD DUP3 PUSH1 0xE0 ADD MLOAD PUSH1 0x40 ADD DUP2 DUP2 MSTORE POP POP PUSH1 0x1 DUP3 PUSH1 0xE0 ADD MLOAD PUSH1 0x60 ADD SWAP1 ISZERO ISZERO SWAP1 DUP2 ISZERO ISZERO DUP2 MSTORE POP POP DUP1 PUSH2 0x140 ADD MLOAD PUSH1 0x80 ADD MLOAD DUP3 PUSH1 0xE0 ADD MLOAD PUSH1 0x80 ADD DUP2 DUP2 MSTORE POP POP PUSH0 DUP3 PUSH1 0xE0 ADD MLOAD PUSH1 0xA0 ADD SWAP1 ISZERO ISZERO SWAP1 DUP2 ISZERO ISZERO DUP2 MSTORE POP POP DUP1 PUSH2 0x140 ADD MLOAD PUSH1 0xC0 ADD MLOAD DUP3 PUSH1 0xE0 ADD MLOAD PUSH1 0xC0 ADD DUP2 DUP2 MSTORE POP POP PUSH0 DUP3 PUSH1 0xE0 ADD MLOAD PUSH1 0xE0 ADD DUP2 DUP2 MSTORE POP POP DUP1 PUSH2 0x140 ADD MLOAD PUSH2 0x100 ADD MLOAD DUP3 PUSH1 0xE0 ADD MLOAD PUSH2 0x100 ADD DUP2 SWAP1 MSTORE POP PUSH2 0x1413 PUSH2 0x3F7A JUMP JUMPDEST DUP2 PUSH0 ADD MLOAD DUP2 PUSH0 ADD SWAP1 PUSH20 0xFFFFFFFFFFFFFFFFFFFFFFFFFFFFFFFFFFFFFFFF AND SWAP1 DUP2 PUSH20 0xFFFFFFFFFFFFFFFFFFFFFFFFFFFFFFFFFFFFFFFF AND DUP2 MSTORE POP POP DUP2 PUSH1 0x20 ADD MLOAD DUP2 PUSH1 0x20 ADD SWAP1 ISZERO ISZERO SWAP1 DUP2 ISZERO ISZERO DUP2 MSTORE POP POP DUP2 PUSH1 0x40 ADD MLOAD DUP2 PUSH1 0x40 ADD DUP2 DUP2 MSTORE POP POP DUP2 PUSH1 0x60 ADD MLOAD DUP2 PUSH1 0x60 ADD DUP2 DUP2 MSTORE POP POP DUP2 PUSH1 0x80 ADD MLOAD DUP2 PUSH1 0x80 ADD DUP2 DUP2 MSTORE POP POP DUP2 PUSH1 0xA0 ADD MLOAD DUP2 PUSH1 0xA0 ADD SWAP1 PUSH20 0xFFFFFFFFFFFFFFFFFFFFFFFFFFFFFFFFFFFFFFFF AND SWAP1 DUP2 PUSH20 0xFFFFFFFFFFFFFFFFFFFFFFFFFFFFFFFFFFFFFFFF AND DUP2 MSTORE POP POP DUP2 PUSH1 0xC0 ADD MLOAD DUP2 PUSH1 0xC0 ADD DUP2 DUP2 MSTORE POP POP DUP2 PUSH1 0xE0 ADD MLOAD DUP2 PUSH1 0xE0 ADD SWAP1 PUSH20 0xFFFFFFFFFFFFFFFFFFFFFFFFFFFFFFFFFFFFFFFF AND SWAP1 DUP2 PUSH20 0xFFFFFFFFFFFFFFFFFFFFFFFFFFFFFFFFFFFFFFFF AND DUP2 MSTORE POP POP DUP2 PUSH2 0x100 ADD MLOAD DUP2 PUSH2 0x100 ADD SWAP1 PUSH20 0xFFFFFFFFFFFFFFFFFFFFFFFFFFFFFFFFFFFFFFFF AND SWAP1 DUP2 PUSH20 0xFFFFFFFFFFFFFFFFFFFFFFFFFFFFFFFFFFFFFFFF AND DUP2 MSTORE POP POP DUP2 PUSH2 0x120 ADD MLOAD DUP2 PUSH2 0x120 ADD DUP2 DUP2 MSTORE POP POP DUP3 PUSH1 0xE0 ADD MLOAD DUP2 PUSH2 0x140 ADD DUP2 SWAP1 MSTORE POP NUMBER DUP2 PUSH2 0x160 ADD DUP2 DUP2 MSTORE POP POP TIMESTAMP DUP2 PUSH2 0x180 ADD DUP2 DUP2 MSTORE POP POP PUSH2 0x1636 DUP3 PUSH2 0x180 ADD MLOAD PUSH0 PUSH1 0x40 MLOAD DUP1 PUSH1 0x60 ADD PUSH1 0x40 MSTORE DUP1 PUSH2 0x15E0 DUP8 PUSH2 0x180 ADD MLOAD PUSH0 PUSH1 0x1 DUP2 LT PUSH2 0x15B3 JUMPI PUSH2 0x15B2 PUSH2 0x5267 JUMP JUMPDEST JUMPDEST PUSH1 0x20 MUL ADD MLOAD PUSH0 ADD MLOAD DUP9 PUSH2 0x180 ADD MLOAD PUSH0 PUSH1 0x1 DUP2 LT PUSH2 0x15D3 JUMPI PUSH2 0x15D2 PUSH2 0x5267 JUMP JUMPDEST JUMPDEST PUSH1 0x20 MUL ADD MLOAD PUSH0 ADD MLOAD PUSH2 0x3A22 JUMP JUMPDEST DUP2 MSTORE PUSH1 0x20 ADD DUP7 PUSH2 0x180 ADD MLOAD PUSH0 PUSH1 0x1 DUP2 LT PUSH2 0x15FD JUMPI PUSH2 0x15FC PUSH2 0x5267 JUMP JUMPDEST JUMPDEST PUSH1 0x20 MUL ADD MLOAD PUSH1 0x20 ADD MLOAD DUP2 MSTORE PUSH1 0x20 ADD DUP7 PUSH2 0x180 ADD MLOAD PUSH0 PUSH1 0x1 DUP2 LT PUSH2 0x1623 JUMPI PUSH2 0x1622 PUSH2 0x5267 JUMP JUMPDEST JUMPDEST PUSH1 0x20 MUL ADD MLOAD PUSH1 0x40 ADD MLOAD ISZERO ISZERO DUP2 MSTORE POP PUSH2 0x3A2E JUMP JUMPDEST DUP2 PUSH2 0x1A0 ADD DUP2 SWAP1 MSTORE POP DUP3 PUSH1 0xC0 ADD MLOAD DUP2 PUSH2 0x1C0 ADD DUP2 DUP2 MSTORE POP POP PUSH2 0x1658 DUP2 DUP6 PUSH2 0x3671 JUMP JUMPDEST POP PUSH2 0x2271 JUMP JUMPDEST PUSH1 0x2 PUSH1 0x4 DUP2 GT ISZERO PUSH2 0x1672 JUMPI PUSH2 0x1671 PUSH2 0x45D2 JUMP JUMPDEST JUMPDEST DUP5 PUSH1 0x20 ADD MLOAD PUSH0 ADD MLOAD PUSH1 0x4 DUP2 GT ISZERO PUSH2 0x168C JUMPI PUSH2 0x168B PUSH2 0x45D2 JUMP JUMPDEST JUMPDEST SUB PUSH2 0x1AF9 JUMPI PUSH2 0x170D DUP2 PUSH0 ADD MLOAD PUSH20 0xFFFFFFFFFFFFFFFFFFFFFFFFFFFFFFFFFFFFFFFF AND CALLER PUSH20 0xFFFFFFFFFFFFFFFFFFFFFFFFFFFFFFFFFFFFFFFF AND EQ PUSH2 0x1703 JUMPI DUP2 PUSH2 0x100 ADD MLOAD PUSH20 0xFFFFFFFFFFFFFFFFFFFFFFFFFFFFFFFFFFFFFFFF AND CALLER PUSH20 0xFFFFFFFFFFFFFFFFFFFFFFFFFFFFFFFFFFFFFFFF AND EQ PUSH2 0x1706 JUMP JUMPDEST PUSH1 0x1 JUMPDEST PUSH1 0x2E PUSH2 0x3545 JUMP JUMPDEST PUSH2 0x171D DUP2 PUSH2 0x1C0 ADD MLOAD PUSH1 0x2F PUSH2 0x3545 JUMP JUMPDEST PUSH2 0x1733 PUSH0 DUP3 PUSH2 0x140 ADD MLOAD PUSH1 0x80 ADD MLOAD EQ PUSH1 0x30 PUSH2 0x3545 JUMP JUMPDEST PUSH2 0x1740 PUSH0 CALLVALUE EQ PUSH1 0x31 PUSH2 0x3545 JUMP JUMPDEST PUSH2 0x1759 PUSH2 0x1752 CALLER DUP4 PUSH1 0xA0 ADD MLOAD PUSH0 PUSH2 0x35F7 JUMP JUMPDEST PUSH1 0x32 PUSH2 0x3545 JUMP JUMPDEST PUSH32 0x15B7A8F989A94EE2CBB2EF15CCCC477DDEDA9BB831D05ADEBAE6F4BD510F17B4 PUSH1 0x1 PUSH1 0x40 MLOAD PUSH2 0x1789 SWAP2 SWAP1 PUSH2 0x4498 JUMP JUMPDEST PUSH1 0x40 MLOAD DUP1 SWAP2 SUB SWAP1 LOG1 PUSH1 0x1 DUP4 PUSH2 0x200 ADD SWAP1 ISZERO ISZERO SWAP1 DUP2 ISZERO ISZERO DUP2 MSTORE POP POP PUSH2 0x17D4 DUP2 PUSH1 0xA0 ADD MLOAD DUP3 PUSH0 ADD MLOAD DUP4 PUSH2 0x180 ADD MLOAD PUSH0 PUSH1 0x1 DUP2 LT PUSH2 0x17C7 JUMPI PUSH2 0x17C6 PUSH2 0x5267 JUMP JUMPDEST JUMPDEST PUSH1 0x20 MUL ADD MLOAD PUSH0 ADD MLOAD PUSH2 0x395B JUMP JUMPDEST DUP1 PUSH2 0x140 ADD MLOAD PUSH0 ADD MLOAD DUP3 PUSH2 0x100 ADD MLOAD PUSH0 ADD SWAP1 ISZERO ISZERO SWAP1 DUP2 ISZERO ISZERO DUP2 MSTORE POP POP DUP1 PUSH2 0x1E0 ADD MLOAD DUP3 PUSH2 0x100 ADD MLOAD PUSH1 0x20 ADD DUP2 DUP2 MSTORE POP POP DUP1 PUSH2 0x140 ADD MLOAD PUSH1 0x40 ADD MLOAD DUP3 PUSH2 0x100 ADD MLOAD PUSH1 0x40 ADD DUP2 DUP2 MSTORE POP POP PUSH1 0x1 DUP3 PUSH2 0x100 ADD MLOAD PUSH1 0x60 ADD SWAP1 ISZERO ISZERO SWAP1 DUP2 ISZERO ISZERO DUP2 MSTORE POP POP DUP1 PUSH2 0x140 ADD MLOAD PUSH1 0x80 ADD MLOAD DUP3 PUSH2 0x100 ADD MLOAD PUSH1 0x80 ADD DUP2 DUP2 MSTORE POP POP PUSH0 DUP3 PUSH2 0x100 ADD MLOAD PUSH1 0xA0 ADD SWAP1 ISZERO ISZERO SWAP1 DUP2 ISZERO ISZERO DUP2 MSTORE POP POP DUP1 PUSH2 0x140 ADD MLOAD PUSH1 0xC0 ADD MLOAD DUP3 PUSH2 0x100 ADD MLOAD PUSH1 0xC0 ADD DUP2 DUP2 MSTORE POP POP DUP1 PUSH2 0x200 ADD MLOAD DUP3 PUSH2 0x100 ADD MLOAD PUSH1 0xE0 ADD DUP2 DUP2 MSTORE POP POP DUP1 PUSH2 0x140 ADD MLOAD PUSH2 0x100 ADD MLOAD DUP3 PUSH2 0x100 ADD MLOAD PUSH2 0x100 ADD DUP2 SWAP1 MSTORE POP PUSH2 0x18AC PUSH2 0x3F7A JUMP JUMPDEST DUP2 PUSH0 ADD MLOAD DUP2 PUSH0 ADD SWAP1 PUSH20 0xFFFFFFFFFFFFFFFFFFFFFFFFFFFFFFFFFFFFFFFF AND SWAP1 DUP2 PUSH20 0xFFFFFFFFFFFFFFFFFFFFFFFFFFFFFFFFFFFFFFFF AND DUP2 MSTORE POP POP DUP2 PUSH1 0x20 ADD MLOAD DUP2 PUSH1 0x20 ADD SWAP1 ISZERO ISZERO SWAP1 DUP2 ISZERO ISZERO DUP2 MSTORE POP POP DUP2 PUSH1 0x40 ADD MLOAD DUP2 PUSH1 0x40 ADD DUP2 DUP2 MSTORE POP POP DUP2 PUSH1 0x60 ADD MLOAD DUP2 PUSH1 0x60 ADD DUP2 DUP2 MSTORE POP POP DUP2 PUSH1 0x80 ADD MLOAD DUP2 PUSH1 0x80 ADD DUP2 DUP2 MSTORE POP POP DUP2 PUSH1 0xA0 ADD MLOAD DUP2 PUSH1 0xA0 ADD SWAP1 PUSH20 0xFFFFFFFFFFFFFFFFFFFFFFFFFFFFFFFFFFFFFFFF AND SWAP1 DUP2 PUSH20 0xFFFFFFFFFFFFFFFFFFFFFFFFFFFFFFFFFFFFFFFF AND DUP2 MSTORE POP POP DUP2 PUSH1 0xC0 ADD MLOAD DUP2 PUSH1 0xC0 ADD DUP2 DUP2 MSTORE POP POP DUP2 PUSH1 0xE0 ADD MLOAD DUP2 PUSH1 0xE0 ADD SWAP1 PUSH20 0xFFFFFFFFFFFFFFFFFFFFFFFFFFFFFFFFFFFFFFFF AND SWAP1 DUP2 PUSH20 0xFFFFFFFFFFFFFFFFFFFFFFFFFFFFFFFFFFFFFFFF AND DUP2 MSTORE POP POP DUP2 PUSH2 0x100 ADD MLOAD DUP2 PUSH2 0x100 ADD SWAP1 PUSH20 0xFFFFFFFFFFFFFFFFFFFFFFFFFFFFFFFFFFFFFFFF AND SWAP1 DUP2 PUSH20 0xFFFFFFFFFFFFFFFFFFFFFFFFFFFFFFFFFFFFFFFF AND DUP2 MSTORE POP POP DUP2 PUSH2 0x120 ADD MLOAD DUP2 PUSH2 0x120 ADD DUP2 DUP2 MSTORE POP POP DUP3 PUSH2 0x100 ADD MLOAD DUP2 PUSH2 0x140 ADD DUP2 SWAP1 MSTORE POP NUMBER DUP2 PUSH2 0x160 ADD DUP2 DUP2 MSTORE POP POP TIMESTAMP DUP2 PUSH2 0x180 ADD DUP2 DUP2 MSTORE POP POP PUSH2 0x1AD0 DUP3 PUSH2 0x180 ADD MLOAD PUSH0 PUSH1 0x40 MLOAD DUP1 PUSH1 0x60 ADD PUSH1 0x40 MSTORE DUP1 PUSH2 0x1A7A DUP8 PUSH2 0x180 ADD MLOAD PUSH0 PUSH1 0x1 DUP2 LT PUSH2 0x1A4D JUMPI PUSH2 0x1A4C PUSH2 0x5267 JUMP JUMPDEST JUMPDEST PUSH1 0x20 MUL ADD MLOAD PUSH0 ADD MLOAD DUP9 PUSH2 0x180 ADD MLOAD PUSH0 PUSH1 0x1 DUP2 LT PUSH2 0x1A6D JUMPI PUSH2 0x1A6C PUSH2 0x5267 JUMP JUMPDEST JUMPDEST PUSH1 0x20 MUL ADD MLOAD PUSH0 ADD MLOAD PUSH2 0x3A22 JUMP JUMPDEST DUP2 MSTORE PUSH1 0x20 ADD DUP7 PUSH2 0x180 ADD MLOAD PUSH0 PUSH1 0x1 DUP2 LT PUSH2 0x1A97 JUMPI PUSH2 0x1A96 PUSH2 0x5267 JUMP JUMPDEST JUMPDEST PUSH1 0x20 MUL ADD MLOAD PUSH1 0x20 ADD MLOAD DUP2 MSTORE PUSH1 0x20 ADD DUP7 PUSH2 0x180 ADD MLOAD PUSH0 PUSH1 0x1 DUP2 LT PUSH2 0x1ABD JUMPI PUSH2 0x1ABC PUSH2 0x5267 JUMP JUMPDEST JUMPDEST PUSH1 0x20 MUL ADD MLOAD PUSH1 0x40 ADD MLOAD ISZERO ISZERO DUP2 MSTORE POP PUSH2 0x3A2E JUMP JUMPDEST DUP2 PUSH2 0x1A0 ADD DUP2 SWAP1 MSTORE POP DUP2 PUSH2 0x1A0 ADD MLOAD DUP2 PUSH2 0x1C0 ADD DUP2 DUP2 MSTORE POP POP PUSH2 0x1AF3 DUP2 DUP6 PUSH2 0x3671 JUMP JUMPDEST POP PUSH2 0x2270 JUMP JUMPDEST PUSH1 0x3 PUSH1 0x4 DUP2 GT ISZERO PUSH2 0x1B0D JUMPI PUSH2 0x1B0C PUSH2 0x45D2 JUMP JUMPDEST JUMPDEST DUP5 PUSH1 0x20 ADD MLOAD PUSH0 ADD MLOAD PUSH1 0x4 DUP2 GT ISZERO PUSH2 0x1B27 JUMPI PUSH2 0x1B26 PUSH2 0x45D2 JUMP JUMPDEST JUMPDEST SUB PUSH2 0x202A JUMPI DUP4 PUSH1 0x20 ADD MLOAD PUSH1 0x80 ADD MLOAD DUP3 PUSH2 0x120 ADD DUP2 SWAP1 MSTORE POP PUSH2 0x1B6A PUSH0 DUP3 PUSH2 0x140 ADD MLOAD PUSH2 0x100 ADD MLOAD PUSH0 ADD MLOAD PUSH1 0x1 DUP2 GT ISZERO PUSH2 0x1B62 JUMPI PUSH2 0x1B61 PUSH2 0x45D2 JUMP JUMPDEST JUMPDEST EQ PUSH1 0x33 PUSH2 0x3545 JUMP JUMPDEST PUSH2 0x1B7A DUP2 PUSH2 0x1C0 ADD MLOAD PUSH1 0x34 PUSH2 0x3545 JUMP JUMPDEST PUSH2 0x1BB8 DUP2 PUSH2 0x100 ADD MLOAD PUSH20 0xFFFFFFFFFFFFFFFFFFFFFFFFFFFFFFFFFFFFFFFF AND CALLER PUSH20 0xFFFFFFFFFFFFFFFFFFFFFFFFFFFFFFFFFFFFFFFF AND EQ PUSH1 0x35 PUSH2 0x3545 JUMP JUMPDEST PUSH2 0x1BC5 PUSH0 CALLVALUE EQ PUSH1 0x36 PUSH2 0x3545 JUMP JUMPDEST PUSH2 0x1BDE PUSH2 0x1BD7 CALLER DUP4 PUSH1 0xA0 ADD MLOAD PUSH0 PUSH2 0x35F7 JUMP JUMPDEST PUSH1 0x37 PUSH2 0x3545 JUMP JUMPDEST PUSH2 0x1BF1 DUP2 PUSH2 0x120 ADD MLOAD TIMESTAMP LT ISZERO PUSH1 0x38 PUSH2 0x3545 JUMP JUMPDEST PUSH2 0x1C0B PUSH2 0x1C04 DUP3 PUSH2 0x1A0 ADD MLOAD PUSH1 0x5 PUSH2 0x358B JUMP JUMPDEST PUSH1 0x64 PUSH2 0x3973 JUMP JUMPDEST DUP3 PUSH2 0x140 ADD DUP2 DUP2 MSTORE POP POP PUSH2 0x1C29 DUP2 PUSH2 0x1A0 ADD MLOAD DUP4 PUSH2 0x140 ADD MLOAD PUSH2 0x3A22 JUMP JUMPDEST DUP3 PUSH2 0x160 ADD DUP2 DUP2 MSTORE POP POP DUP1 PUSH2 0x100 ADD MLOAD PUSH20 0xFFFFFFFFFFFFFFFFFFFFFFFFFFFFFFFFFFFFFFFF AND PUSH2 0x8FC DUP4 PUSH2 0x140 ADD MLOAD SWAP1 DUP2 ISZERO MUL SWAP1 PUSH1 0x40 MLOAD PUSH0 PUSH1 0x40 MLOAD DUP1 DUP4 SUB DUP2 DUP6 DUP9 DUP9 CALL SWAP4 POP POP POP POP ISZERO DUP1 ISZERO PUSH2 0x1C80 JUMPI RETURNDATASIZE PUSH0 DUP1 RETURNDATACOPY RETURNDATASIZE PUSH0 REVERT JUMPDEST POP PUSH2 0x1C95 DUP3 PUSH2 0x160 ADD MLOAD DUP4 PUSH2 0x160 ADD MLOAD PUSH2 0x3A22 JUMP JUMPDEST DUP3 PUSH2 0x180 ADD DUP2 DUP2 MSTORE POP POP DUP1 PUSH0 ADD MLOAD PUSH20 0xFFFFFFFFFFFFFFFFFFFFFFFFFFFFFFFFFFFFFFFF AND PUSH2 0x8FC DUP4 PUSH2 0x160 ADD MLOAD SWAP1 DUP2 ISZERO MUL SWAP1 PUSH1 0x40 MLOAD PUSH0 PUSH1 0x40 MLOAD DUP1 DUP4 SUB DUP2 DUP6 DUP9 DUP9 CALL SWAP4 POP POP POP POP ISZERO DUP1 ISZERO PUSH2 0x1CEA JUMPI RETURNDATASIZE PUSH0 DUP1 RETURNDATACOPY RETURNDATASIZE PUSH0 REVERT JUMPDEST POP PUSH32 0xCBA112FE45411FE7CA22520E56A0031F6E0483241F971FDBF31B347E84CA29FE PUSH0 PUSH1 0x40 MLOAD PUSH2 0x1D1A SWAP2 SWAP1 PUSH2 0x4498 JUMP JUMPDEST PUSH1 0x40 MLOAD DUP1 SWAP2 SUB SWAP1 LOG1 PUSH0 DUP4 PUSH2 0x220 ADD SWAP1 ISZERO ISZERO SWAP1 DUP2 ISZERO ISZERO DUP2 MSTORE POP POP PUSH1 0x1 DUP3 PUSH2 0x1A0 ADD MLOAD PUSH0 ADD SWAP1 PUSH1 0x1 DUP2 GT ISZERO PUSH2 0x1D50 JUMPI PUSH2 0x1D4F PUSH2 0x45D2 JUMP JUMPDEST JUMPDEST SWAP1 DUP2 PUSH1 0x1 DUP2 GT ISZERO PUSH2 0x1D64 JUMPI PUSH2 0x1D63 PUSH2 0x45D2 JUMP JUMPDEST JUMPDEST DUP2 MSTORE POP POP DUP2 PUSH2 0x120 ADD MLOAD PUSH0 ADD MLOAD DUP3 PUSH2 0x1A0 ADD MLOAD PUSH1 0x40 ADD SWAP1 PUSH20 0xFFFFFFFFFFFFFFFFFFFFFFFFFFFFFFFFFFFFFFFF AND SWAP1 DUP2 PUSH20 0xFFFFFFFFFFFFFFFFFFFFFFFFFFFFFFFFFFFFFFFF AND DUP2 MSTORE POP POP PUSH1 0x1 DUP3 PUSH2 0x1C0 ADD MLOAD PUSH0 ADD SWAP1 ISZERO ISZERO SWAP1 DUP2 ISZERO ISZERO DUP2 MSTORE POP POP DUP2 PUSH2 0x180 ADD MLOAD DUP3 PUSH2 0x1C0 ADD MLOAD PUSH1 0x20 ADD DUP2 DUP2 MSTORE POP POP DUP1 PUSH2 0x140 ADD MLOAD PUSH1 0x40 ADD MLOAD DUP3 PUSH2 0x1C0 ADD MLOAD PUSH1 0x40 ADD DUP2 DUP2 MSTORE POP POP DUP1 PUSH2 0x140 ADD MLOAD PUSH1 0x60 ADD MLOAD DUP3 PUSH2 0x1C0 ADD MLOAD PUSH1 0x60 ADD SWAP1 ISZERO ISZERO SWAP1 DUP2 ISZERO ISZERO DUP2 MSTORE POP POP DUP1 PUSH2 0x140 ADD MLOAD PUSH1 0x80 ADD MLOAD DUP3 PUSH2 0x1C0 ADD MLOAD PUSH1 0x80 ADD DUP2 DUP2 MSTORE POP POP DUP1 PUSH2 0x140 ADD MLOAD PUSH1 0xA0 ADD MLOAD DUP3 PUSH2 0x1C0 ADD MLOAD PUSH1 0xA0 ADD SWAP1 ISZERO ISZERO SWAP1 DUP2 ISZERO ISZERO DUP2 MSTORE POP POP DUP1 PUSH2 0x140 ADD MLOAD PUSH1 0xC0 ADD MLOAD DUP3 PUSH2 0x1C0 ADD MLOAD PUSH1 0xC0 ADD DUP2 DUP2 MSTORE POP POP DUP1 PUSH2 0x200 ADD MLOAD DUP3 PUSH2 0x1C0 ADD MLOAD PUSH1 0xE0 ADD DUP2 DUP2 MSTORE POP POP DUP2 PUSH2 0x1A0 ADD MLOAD DUP3 PUSH2 0x1C0 ADD MLOAD PUSH2 0x100 ADD DUP2 SWAP1 MSTORE POP PUSH2 0x1E8A PUSH2 0x3F7A JUMP JUMPDEST DUP2 PUSH0 ADD MLOAD DUP2 PUSH0 ADD SWAP1 PUSH20 0xFFFFFFFFFFFFFFFFFFFFFFFFFFFFFFFFFFFFFFFF AND SWAP1 DUP2 PUSH20 0xFFFFFFFFFFFFFFFFFFFFFFFFFFFFFFFFFFFFFFFF AND DUP2 MSTORE POP POP DUP2 PUSH1 0x20 ADD MLOAD DUP2 PUSH1 0x20 ADD SWAP1 ISZERO ISZERO SWAP1 DUP2 ISZERO ISZERO DUP2 MSTORE POP POP DUP2 PUSH1 0x40 ADD MLOAD DUP2 PUSH1 0x40 ADD DUP2 DUP2 MSTORE POP POP DUP2 PUSH1 0x60 ADD MLOAD DUP2 PUSH1 0x60 ADD DUP2 DUP2 MSTORE POP POP DUP2 PUSH1 0x80 ADD MLOAD DUP2 PUSH1 0x80 ADD DUP2 DUP2 MSTORE POP POP DUP2 PUSH1 0xA0 ADD MLOAD DUP2 PUSH1 0xA0 ADD SWAP1 PUSH20 0xFFFFFFFFFFFFFFFFFFFFFFFFFFFFFFFFFFFFFFFF AND SWAP1 DUP2 PUSH20 0xFFFFFFFFFFFFFFFFFFFFFFFFFFFFFFFFFFFFFFFF AND DUP2 MSTORE POP POP DUP2 PUSH1 0xC0 ADD MLOAD DUP2 PUSH1 0xC0 ADD DUP2 DUP2 MSTORE POP POP DUP2 PUSH1 0xE0 ADD MLOAD DUP2 PUSH1 0xE0 ADD SWAP1 PUSH20 0xFFFFFFFFFFFFFFFFFFFFFFFFFFFFFFFFFFFFFFFF AND SWAP1 DUP2 PUSH20 0xFFFFFFFFFFFFFFFFFFFFFFFFFFFFFFFFFFFFFFFF AND DUP2 MSTORE POP POP DUP2 PUSH2 0x100 ADD MLOAD DUP2 PUSH2 0x100 ADD SWAP1 PUSH20 0xFFFFFFFFFFFFFFFFFFFFFFFFFFFFFFFFFFFFFFFF AND SWAP1 DUP2 PUSH20 0xFFFFFFFFFFFFFFFFFFFFFFFFFFFFFFFFFFFFFFFF AND DUP2 MSTORE POP POP DUP2 PUSH2 0x120 ADD MLOAD DUP2 PUSH2 0x120 ADD DUP2 DUP2 MSTORE POP POP DUP3 PUSH2 0x1C0 ADD MLOAD DUP2 PUSH2 0x140 ADD DUP2 SWAP1 MSTORE POP NUMBER DUP2 PUSH2 0x160 ADD DUP2 DUP2 MSTORE POP POP TIMESTAMP DUP2 PUSH2 0x180 ADD DUP2 DUP2 MSTORE POP POP DUP2 PUSH2 0x180 ADD MLOAD DUP2 PUSH2 0x1A0 ADD DUP2 SWAP1 MSTORE POP DUP3 PUSH2 0x180 ADD MLOAD DUP2 PUSH2 0x1C0 ADD DUP2 DUP2 MSTORE POP POP PUSH2 0x2024 DUP2 DUP6 PUSH2 0x3671 JUMP JUMPDEST POP PUSH2 0x226F JUMP JUMPDEST PUSH1 0x4 DUP1 DUP2 GT ISZERO PUSH2 0x203D JUMPI PUSH2 0x203C PUSH2 0x45D2 JUMP JUMPDEST JUMPDEST DUP5 PUSH1 0x20 ADD MLOAD PUSH0 ADD MLOAD PUSH1 0x4 DUP2 GT ISZERO PUSH2 0x2057 JUMPI PUSH2 0x2056 PUSH2 0x45D2 JUMP JUMPDEST JUMPDEST SUB PUSH2 0x226E JUMPI PUSH2 0x2069 PUSH0 CALLVALUE EQ PUSH1 0x39 PUSH2 0x3545 JUMP JUMPDEST PUSH2 0x2082 PUSH2 0x207B CALLER DUP4 PUSH1 0xA0 ADD MLOAD PUSH0 PUSH2 0x35F7 JUMP JUMPDEST PUSH1 0x3A PUSH2 0x3545 JUMP JUMPDEST PUSH32 0xF1D53E799D380B3013B8B620CE5C00381AF7D8B3A0D260D5536374029F366B32 PUSH0 PUSH1 0x40 MLOAD PUSH2 0x20B1 SWAP2 SWAP1 PUSH2 0x4498 JUMP JUMPDEST PUSH1 0x40 MLOAD DUP1 SWAP2 SUB SWAP1 LOG1 PUSH0 DUP4 PUSH2 0x240 ADD SWAP1 ISZERO ISZERO SWAP1 DUP2 ISZERO ISZERO DUP2 MSTORE POP POP PUSH2 0x20D2 PUSH2 0x3F7A JUMP JUMPDEST DUP2 PUSH0 ADD MLOAD DUP2 PUSH0 ADD SWAP1 PUSH20 0xFFFFFFFFFFFFFFFFFFFFFFFFFFFFFFFFFFFFFFFF AND SWAP1 DUP2 PUSH20 0xFFFFFFFFFFFFFFFFFFFFFFFFFFFFFFFFFFFFFFFF AND DUP2 MSTORE POP POP DUP2 PUSH1 0x20 ADD MLOAD DUP2 PUSH1 0x20 ADD SWAP1 ISZERO ISZERO SWAP1 DUP2 ISZERO ISZERO DUP2 MSTORE POP POP DUP2 PUSH1 0x40 ADD MLOAD DUP2 PUSH1 0x40 ADD DUP2 DUP2 MSTORE POP POP DUP2 PUSH1 0x60 ADD MLOAD DUP2 PUSH1 0x60 ADD DUP2 DUP2 MSTORE POP POP DUP2 PUSH1 0x80 ADD MLOAD DUP2 PUSH1 0x80 ADD DUP2 DUP2 MSTORE POP POP DUP2 PUSH1 0xA0 ADD MLOAD DUP2 PUSH1 0xA0 ADD SWAP1 PUSH20 0xFFFFFFFFFFFFFFFFFFFFFFFFFFFFFFFFFFFFFFFF AND SWAP1 DUP2 PUSH20 0xFFFFFFFFFFFFFFFFFFFFFFFFFFFFFFFFFFFFFFFF AND DUP2 MSTORE POP POP DUP2 PUSH1 0xC0 ADD MLOAD DUP2 PUSH1 0xC0 ADD DUP2 DUP2 MSTORE POP POP DUP2 PUSH1 0xE0 ADD MLOAD DUP2 PUSH1 0xE0 ADD SWAP1 PUSH20 0xFFFFFFFFFFFFFFFFFFFFFFFFFFFFFFFFFFFFFFFF AND SWAP1 DUP2 PUSH20 0xFFFFFFFFFFFFFFFFFFFFFFFFFFFFFFFFFFFFFFFF AND DUP2 MSTORE POP POP DUP2 PUSH2 0x100 ADD MLOAD DUP2 PUSH2 0x100 ADD SWAP1 PUSH20 0xFFFFFFFFFFFFFFFFFFFFFFFFFFFFFFFFFFFFFFFF AND SWAP1 DUP2 PUSH20 0xFFFFFFFFFFFFFFFFFFFFFFFFFFFFFFFFFFFFFFFF AND DUP2 MSTORE POP POP DUP2 PUSH2 0x120 ADD MLOAD DUP2 PUSH2 0x120 ADD DUP2 DUP2 MSTORE POP POP DUP2 PUSH2 0x140 ADD MLOAD DUP2 PUSH2 0x140 ADD DUP2 SWAP1 MSTORE POP NUMBER DUP2 PUSH2 0x160 ADD DUP2 DUP2 MSTORE POP POP TIMESTAMP DUP2 PUSH2 0x180 ADD DUP2 DUP2 MSTORE POP POP DUP2 PUSH2 0x180 ADD MLOAD DUP2 PUSH2 0x1A0 ADD DUP2 SWAP1 MSTORE POP DUP2 PUSH2 0x1A0 ADD MLOAD DUP2 PUSH2 0x1C0 ADD DUP2 DUP2 MSTORE POP POP PUSH2 0x226C DUP2 DUP6 PUSH2 0x3671 JUMP JUMPDEST POP JUMPDEST JUMPDEST JUMPDEST JUMPDEST JUMPDEST POP POP POP POP JUMP JUMPDEST PUSH2 0x2283 PUSH0 PUSH1 0xC PUSH2 0x3545 JUMP JUMPDEST POP POP JUMP JUMPDEST PUSH2 0x228F PUSH2 0x3DEB JUMP JUMPDEST PUSH1 0x1 DUP1 DUP2 GT ISZERO PUSH2 0x22A2 JUMPI PUSH2 0x22A1 PUSH2 0x45D2 JUMP JUMPDEST JUMPDEST PUSH1 0x5 PUSH0 DUP5 PUSH20 0xFFFFFFFFFFFFFFFFFFFFFFFFFFFFFFFFFFFFFFFF AND PUSH20 0xFFFFFFFFFFFFFFFFFFFFFFFFFFFFFFFFFFFFFFFF AND DUP2 MSTORE PUSH1 0x20 ADD SWAP1 DUP2 MSTORE PUSH1 0x20 ADD PUSH0 KECCAK256 PUSH0 ADD PUSH0 SWAP1 SLOAD SWAP1 PUSH2 0x100 EXP SWAP1 DIV PUSH1 0xFF AND PUSH1 0x1 DUP2 GT ISZERO PUSH2 0x2300 JUMPI PUSH2 0x22FF PUSH2 0x45D2 JUMP JUMPDEST JUMPDEST SUB PUSH2 0x23C1 JUMPI PUSH1 0x5 PUSH0 DUP4 PUSH20 0xFFFFFFFFFFFFFFFFFFFFFFFFFFFFFFFFFFFFFFFF AND PUSH20 0xFFFFFFFFFFFFFFFFFFFFFFFFFFFFFFFFFFFFFFFF AND DUP2 MSTORE PUSH1 0x20 ADD SWAP1 DUP2 MSTORE PUSH1 0x20 ADD PUSH0 KECCAK256 PUSH1 0x40 MLOAD DUP1 PUSH1 0x60 ADD PUSH1 0x40 MSTORE SWAP1 DUP2 PUSH0 DUP3 ADD PUSH0 SWAP1 SLOAD SWAP1 PUSH2 0x100 EXP SWAP1 DIV PUSH1 0xFF AND PUSH1 0x1 DUP2 GT ISZERO PUSH2 0x2370 JUMPI PUSH2 0x236F PUSH2 0x45D2 JUMP JUMPDEST JUMPDEST PUSH1 0x1 DUP2 GT ISZERO PUSH2 0x2382 JUMPI PUSH2 0x2381 PUSH2 0x45D2 JUMP JUMPDEST JUMPDEST DUP2 MSTORE PUSH1 0x20 ADD PUSH0 DUP3 ADD PUSH1 0x1 SWAP1 SLOAD SWAP1 PUSH2 0x100 EXP SWAP1 DIV PUSH1 0xFF AND ISZERO ISZERO ISZERO ISZERO DUP2 MSTORE PUSH1 0x20 ADD PUSH0 DUP3 ADD PUSH1 0x2 SWAP1 SLOAD SWAP1 PUSH2 0x100 EXP SWAP1 DIV PUSH1 0xFF AND ISZERO ISZERO ISZERO ISZERO DUP2 MSTORE POP POP SWAP1 POP PUSH2 0x2401 JUMP JUMPDEST PUSH0 DUP2 PUSH0 ADD SWAP1 PUSH1 0x1 DUP2 GT ISZERO PUSH2 0x23D8 JUMPI PUSH2 0x23D7 PUSH2 0x45D2 JUMP JUMPDEST JUMPDEST SWAP1 DUP2 PUSH1 0x1 DUP2 GT ISZERO PUSH2 0x23EC JUMPI PUSH2 0x23EB PUSH2 0x45D2 JUMP JUMPDEST JUMPDEST DUP2 MSTORE POP POP PUSH0 DUP2 PUSH1 0x20 ADD SWAP1 ISZERO ISZERO SWAP1 DUP2 ISZERO ISZERO DUP2 MSTORE POP POP JUMPDEST SWAP2 SWAP1 POP JUMP JUMPDEST PUSH2 0x240E PUSH2 0x4049 JUMP JUMPDEST PUSH1 0x1 DUP2 PUSH1 0x20 ADD MLOAD PUSH0 ADD SWAP1 PUSH1 0x4 DUP2 GT ISZERO PUSH2 0x242A JUMPI PUSH2 0x2429 PUSH2 0x45D2 JUMP JUMPDEST JUMPDEST SWAP1 DUP2 PUSH1 0x4 DUP2 GT ISZERO PUSH2 0x243E JUMPI PUSH2 0x243D PUSH2 0x45D2 JUMP JUMPDEST JUMPDEST DUP2 MSTORE POP POP DUP1 PUSH0 ADD MLOAD DUP2 PUSH1 0x20 ADD MLOAD PUSH1 0x40 ADD SWAP1 ISZERO ISZERO SWAP1 DUP2 ISZERO ISZERO DUP2 MSTORE POP POP PUSH2 0x2461 PUSH2 0x406A JUMP JUMPDEST PUSH0 DUP2 PUSH0 ADD DUP2 DUP2 MSTORE POP POP DUP2 PUSH1 0x20 ADD MLOAD DUP2 PUSH1 0x20 ADD DUP2 SWAP1 MSTORE POP PUSH2 0x2481 DUP2 DUP5 PUSH2 0xB3A JUMP JUMPDEST POP POP POP POP JUMP JUMPDEST PUSH2 0x248F PUSH2 0x4089 JUMP JUMPDEST PUSH2 0x249E PUSH1 0x1 PUSH0 SLOAD EQ PUSH1 0x1A PUSH2 0x3545 JUMP JUMPDEST PUSH0 PUSH1 0x2 DUP1 SLOAD PUSH2 0x24AC SWAP1 PUSH2 0x4C22 JUMP JUMPDEST DUP1 PUSH1 0x1F ADD PUSH1 0x20 DUP1 SWAP2 DIV MUL PUSH1 0x20 ADD PUSH1 0x40 MLOAD SWAP1 DUP2 ADD PUSH1 0x40 MSTORE DUP1 SWAP3 SWAP2 SWAP1 DUP2 DUP2 MSTORE PUSH1 0x20 ADD DUP3 DUP1 SLOAD PUSH2 0x24D8 SWAP1 PUSH2 0x4C22 JUMP JUMPDEST DUP1 ISZERO PUSH2 0x2523 JUMPI DUP1 PUSH1 0x1F LT PUSH2 0x24FA JUMPI PUSH2 0x100 DUP1 DUP4 SLOAD DIV MUL DUP4 MSTORE SWAP2 PUSH1 0x20 ADD SWAP2 PUSH2 0x2523 JUMP JUMPDEST DUP3 ADD SWAP2 SWAP1 PUSH0 MSTORE PUSH1 0x20 PUSH0 KECCAK256 SWAP1 JUMPDEST DUP2 SLOAD DUP2 MSTORE SWAP1 PUSH1 0x1 ADD SWAP1 PUSH1 0x20 ADD DUP1 DUP4 GT PUSH2 0x2506 JUMPI DUP3 SWAP1 SUB PUSH1 0x1F AND DUP3 ADD SWAP2 JUMPDEST POP POP POP POP POP DUP1 PUSH1 0x20 ADD SWAP1 MLOAD DUP2 ADD SWAP1 PUSH2 0x253B SWAP2 SWAP1 PUSH2 0x539D JUMP JUMPDEST SWAP1 POP PUSH2 0x2557 PUSH1 0x4 PUSH0 SWAP1 SLOAD SWAP1 PUSH2 0x100 EXP SWAP1 DIV PUSH1 0xFF AND ISZERO PUSH1 0x1B PUSH2 0x3545 JUMP JUMPDEST PUSH32 0xCF0E8BEC53CD91FA87ECF8F6F405AC75914A22ACDB92A3553EE5C294FEE81596 CALLER DUP6 PUSH1 0x40 MLOAD PUSH2 0x2588 SWAP3 SWAP2 SWAP1 PUSH2 0x53E3 JUMP JUMPDEST PUSH1 0x40 MLOAD DUP1 SWAP2 SUB SWAP1 LOG1 PUSH2 0x25AF PUSH0 DUP6 PUSH0 ADD MLOAD EQ DUP1 PUSH2 0x25A8 JUMPI POP DUP5 PUSH0 ADD MLOAD PUSH1 0x1 SLOAD EQ JUMPDEST PUSH1 0x1C PUSH2 0x3545 JUMP JUMPDEST PUSH2 0x25C0 DUP2 PUSH1 0xA0 ADD MLOAD CALLVALUE EQ PUSH1 0x1D PUSH2 0x3545 JUMP JUMPDEST PUSH2 0x2658 DUP2 PUSH2 0x140 ADD MLOAD PUSH0 PUSH1 0x40 MLOAD DUP1 PUSH1 0x60 ADD PUSH1 0x40 MSTORE DUP1 PUSH2 0x2602 DUP7 PUSH2 0x140 ADD MLOAD PUSH0 PUSH1 0x1 DUP2 LT PUSH2 0x25F0 JUMPI PUSH2 0x25EF PUSH2 0x5267 JUMP JUMPDEST JUMPDEST PUSH1 0x20 MUL ADD MLOAD PUSH0 ADD MLOAD DUP8 PUSH1 0xE0 ADD MLOAD PUSH2 0x3665 JUMP JUMPDEST DUP2 MSTORE PUSH1 0x20 ADD DUP6 PUSH2 0x140 ADD MLOAD PUSH0 PUSH1 0x1 DUP2 LT PUSH2 0x261F JUMPI PUSH2 0x261E PUSH2 0x5267 JUMP JUMPDEST JUMPDEST PUSH1 0x20 MUL ADD MLOAD PUSH1 0x20 ADD MLOAD DUP2 MSTORE PUSH1 0x20 ADD DUP6 PUSH2 0x140 ADD MLOAD PUSH0 PUSH1 0x1 DUP2 LT PUSH2 0x2645 JUMPI PUSH2 0x2644 PUSH2 0x5267 JUMP JUMPDEST JUMPDEST PUSH1 0x20 MUL ADD MLOAD PUSH1 0x40 ADD MLOAD ISZERO ISZERO DUP2 MSTORE POP PUSH2 0x3A2E JUMP JUMPDEST DUP3 PUSH0 ADD DUP2 SWAP1 MSTORE POP PUSH2 0x267C PUSH2 0x2675 CALLER DUP4 PUSH1 0xC0 ADD MLOAD DUP5 PUSH1 0xE0 ADD MLOAD PUSH2 0x35F7 JUMP JUMPDEST PUSH1 0x1E PUSH2 0x3545 JUMP JUMPDEST PUSH2 0x26B8 CALLER PUSH20 0xFFFFFFFFFFFFFFFFFFFFFFFFFFFFFFFFFFFFFFFF AND DUP3 PUSH0 ADD MLOAD PUSH20 0xFFFFFFFFFFFFFFFFFFFFFFFFFFFFFFFFFFFFFFFF AND EQ PUSH1 0x1F PUSH2 0x3545 JUMP JUMPDEST PUSH0 DUP3 PUSH1 0x20 ADD MLOAD PUSH0 ADD SWAP1 PUSH1 0x1 DUP2 GT ISZERO PUSH2 0x26D3 JUMPI PUSH2 0x26D2 PUSH2 0x45D2 JUMP JUMPDEST JUMPDEST SWAP1 DUP2 PUSH1 0x1 DUP2 GT ISZERO PUSH2 0x26E7 JUMPI PUSH2 0x26E6 PUSH2 0x45D2 JUMP JUMPDEST JUMPDEST DUP2 MSTORE POP POP PUSH0 DUP3 PUSH1 0x20 ADD MLOAD PUSH1 0x20 ADD SWAP1 ISZERO ISZERO SWAP1 DUP2 ISZERO ISZERO DUP2 MSTORE POP POP PUSH0 DUP3 PUSH1 0x40 ADD MLOAD PUSH0 ADD SWAP1 ISZERO ISZERO SWAP1 DUP2 ISZERO ISZERO DUP2 MSTORE POP POP DUP1 PUSH1 0xA0 ADD MLOAD DUP3 PUSH1 0x40 ADD MLOAD PUSH1 0x20 ADD DUP2 DUP2 MSTORE POP POP PUSH0 DUP3 PUSH1 0x40 ADD MLOAD PUSH1 0x40 ADD DUP2 DUP2 MSTORE POP POP PUSH0 DUP3 PUSH1 0x40 ADD MLOAD PUSH1 0x60 ADD SWAP1 ISZERO ISZERO SWAP1 DUP2 ISZERO ISZERO DUP2 MSTORE POP POP PUSH0 DUP3 PUSH1 0x40 ADD MLOAD PUSH1 0x80 ADD DUP2 DUP2 MSTORE POP POP PUSH1 0x1 DUP3 PUSH1 0x40 ADD MLOAD PUSH1 0xA0 ADD SWAP1 ISZERO ISZERO SWAP1 DUP2 ISZERO ISZERO DUP2 MSTORE POP POP PUSH1 0x5 DUP3 PUSH1 0x40 ADD MLOAD PUSH1 0xC0 ADD DUP2 DUP2 MSTORE POP POP DUP2 PUSH0 ADD MLOAD PUSH0 PUSH1 0x1 DUP2 LT PUSH2 0x278E JUMPI PUSH2 0x278D PUSH2 0x5267 JUMP JUMPDEST JUMPDEST PUSH1 0x20 MUL ADD MLOAD PUSH0 ADD MLOAD DUP3 PUSH1 0x40 ADD MLOAD PUSH1 0xE0 ADD DUP2 DUP2 MSTORE POP POP DUP2 PUSH1 0x20 ADD MLOAD DUP3 PUSH1 0x40 ADD MLOAD PUSH2 0x100 ADD DUP2 SWAP1 MSTORE POP PUSH2 0x27BD PUSH2 0x3F7A JUMP JUMPDEST DUP2 PUSH0 ADD MLOAD DUP2 PUSH0 ADD SWAP1 PUSH20 0xFFFFFFFFFFFFFFFFFFFFFFFFFFFFFFFFFFFFFFFF AND SWAP1 DUP2 PUSH20 0xFFFFFFFFFFFFFFFFFFFFFFFFFFFFFFFFFFFFFFFF AND DUP2 MSTORE POP POP DUP2 PUSH1 0x20 ADD MLOAD DUP2 PUSH1 0x20 ADD SWAP1 ISZERO ISZERO SWAP1 DUP2 ISZERO ISZERO DUP2 MSTORE POP POP DUP2 PUSH1 0x40 ADD MLOAD DUP2 PUSH1 0x40 ADD DUP2 DUP2 MSTORE POP POP DUP2 PUSH1 0x60 ADD MLOAD DUP2 PUSH1 0x60 ADD DUP2 DUP2 MSTORE POP POP DUP2 PUSH1 0x80 ADD MLOAD DUP2 PUSH1 0x80 ADD DUP2 DUP2 MSTORE POP POP DUP2 PUSH1 0xC0 ADD MLOAD DUP2 PUSH1 0xA0 ADD SWAP1 PUSH20 0xFFFFFFFFFFFFFFFFFFFFFFFFFFFFFFFFFFFFFFFF AND SWAP1 DUP2 PUSH20 0xFFFFFFFFFFFFFFFFFFFFFFFFFFFFFFFFFFFFFFFF AND DUP2 MSTORE POP POP DUP2 PUSH1 0xE0 ADD MLOAD DUP2 PUSH1 0xC0 ADD DUP2 DUP2 MSTORE POP POP DUP2 PUSH2 0x100 ADD MLOAD DUP2 PUSH1 0xE0 ADD SWAP1 PUSH20 0xFFFFFFFFFFFFFFFFFFFFFFFFFFFFFFFFFFFFFFFF AND SWAP1 DUP2 PUSH20 0xFFFFFFFFFFFFFFFFFFFFFFFFFFFFFFFFFFFFFFFF AND DUP2 MSTORE POP POP DUP2 PUSH2 0x120 ADD MLOAD DUP2 PUSH2 0x100 ADD SWAP1 PUSH20 0xFFFFFFFFFFFFFFFFFFFFFFFFFFFFFFFFFFFFFFFF AND SWAP1 DUP2 PUSH20 0xFFFFFFFFFFFFFFFFFFFFFFFFFFFFFFFFFFFFFFFF AND DUP2 MSTORE POP POP PUSH2 0x2908 TIMESTAMP DUP4 PUSH1 0x40 ADD MLOAD PUSH2 0x360D JUMP JUMPDEST DUP2 PUSH2 0x120 ADD DUP2 DUP2 MSTORE POP POP DUP3 PUSH1 0x40 ADD MLOAD DUP2 PUSH2 0x140 ADD DUP2 SWAP1 MSTORE POP NUMBER DUP2 PUSH2 0x160 ADD DUP2 DUP2 MSTORE POP POP TIMESTAMP DUP2 PUSH2 0x180 ADD DUP2 DUP2 MSTORE POP POP DUP3 PUSH0 ADD MLOAD DUP2 PUSH2 0x1A0 ADD DUP2 SWAP1 MSTORE POP DUP2 PUSH1 0xA0 ADD MLOAD DUP2 PUSH2 0x1C0 ADD DUP2 DUP2 MSTORE POP POP PUSH2 0x295C DUP2 DUP6 PUSH2 0x3671 JUMP JUMPDEST POP POP POP POP POP JUMP JUMPDEST PUSH2 0x2972 PUSH1 0x4 PUSH0 SLOAD EQ PUSH1 0xB PUSH2 0x3545 JUMP JUMPDEST PUSH0 PUSH1 0x2 DUP1 SLOAD PUSH2 0x2980 SWAP1 PUSH2 0x4C22 JUMP JUMPDEST DUP1 PUSH1 0x1F ADD PUSH1 0x20 DUP1 SWAP2 DIV MUL PUSH1 0x20 ADD PUSH1 0x40 MLOAD SWAP1 DUP2 ADD PUSH1 0x40 MSTORE DUP1 SWAP3 SWAP2 SWAP1 DUP2 DUP2 MSTORE PUSH1 0x20 ADD DUP3 DUP1 SLOAD PUSH2 0x29AC SWAP1 PUSH2 0x4C22 JUMP JUMPDEST DUP1 ISZERO PUSH2 0x29F7 JUMPI DUP1 PUSH1 0x1F LT PUSH2 0x29CE JUMPI PUSH2 0x100 DUP1 DUP4 SLOAD DIV MUL DUP4 MSTORE SWAP2 PUSH1 0x20 ADD SWAP2 PUSH2 0x29F7 JUMP JUMPDEST DUP3 ADD SWAP2 SWAP1 PUSH0 MSTORE PUSH1 0x20 PUSH0 KECCAK256 SWAP1 JUMPDEST DUP2 SLOAD DUP2 MSTORE SWAP1 PUSH1 0x1 ADD SWAP1 PUSH1 0x20 ADD DUP1 DUP4 GT PUSH2 0x29DA JUMPI DUP3 SWAP1 SUB PUSH1 0x1F AND DUP3 ADD SWAP2 JUMPDEST POP POP POP POP POP DUP1 PUSH1 0x20 ADD SWAP1 MLOAD DUP2 ADD SWAP1 PUSH2 0x2A0F SWAP2 SWAP1 PUSH2 0x509E JUMP JUMPDEST SWAP1 POP DUP1 PUSH2 0x1C0 ADD MLOAD DUP3 PUSH1 0xA0 ADD SWAP1 ISZERO ISZERO SWAP1 DUP2 ISZERO ISZERO DUP2 MSTORE POP POP POP POP POP JUMP JUMPDEST PUSH2 0x2A33 PUSH2 0x40BC JUMP JUMPDEST PUSH2 0x2A42 PUSH1 0x4 PUSH0 SLOAD EQ PUSH1 0xE PUSH2 0x3545 JUMP JUMPDEST PUSH0 PUSH1 0x2 DUP1 SLOAD PUSH2 0x2A50 SWAP1 PUSH2 0x4C22 JUMP JUMPDEST DUP1 PUSH1 0x1F ADD PUSH1 0x20 DUP1 SWAP2 DIV MUL PUSH1 0x20 ADD PUSH1 0x40 MLOAD SWAP1 DUP2 ADD PUSH1 0x40 MSTORE DUP1 SWAP3 SWAP2 SWAP1 DUP2 DUP2 MSTORE PUSH1 0x20 ADD DUP3 DUP1 SLOAD PUSH2 0x2A7C SWAP1 PUSH2 0x4C22 JUMP JUMPDEST DUP1 ISZERO PUSH2 0x2AC7 JUMPI DUP1 PUSH1 0x1F LT PUSH2 0x2A9E JUMPI PUSH2 0x100 DUP1 DUP4 SLOAD DIV MUL DUP4 MSTORE SWAP2 PUSH1 0x20 ADD SWAP2 PUSH2 0x2AC7 JUMP JUMPDEST DUP3 ADD SWAP2 SWAP1 PUSH0 MSTORE PUSH1 0x20 PUSH0 KECCAK256 SWAP1 JUMPDEST DUP2 SLOAD DUP2 MSTORE SWAP1 PUSH1 0x1 ADD SWAP1 PUSH1 0x20 ADD DUP1 DUP4 GT PUSH2 0x2AAA JUMPI DUP3 SWAP1 SUB PUSH1 0x1F AND DUP3 ADD SWAP2 JUMPDEST POP POP POP POP POP DUP1 PUSH1 0x20 ADD SWAP1 MLOAD DUP2 ADD SWAP1 PUSH2 0x2ADF SWAP2 SWAP1 PUSH2 0x509E JUMP JUMPDEST SWAP1 POP DUP1 PUSH1 0xC0 ADD MLOAD DUP3 PUSH0 ADD MLOAD PUSH0 ADD DUP2 DUP2 MSTORE POP POP DUP1 PUSH1 0x80 ADD MLOAD DUP3 PUSH0 ADD MLOAD PUSH1 0x20 ADD DUP2 DUP2 MSTORE POP POP DUP1 PUSH1 0xE0 ADD MLOAD DUP3 PUSH0 ADD MLOAD PUSH1 0x40 ADD SWAP1 PUSH20 0xFFFFFFFFFFFFFFFFFFFFFFFFFFFFFFFFFFFFFFFF AND SWAP1 DUP2 PUSH20 0xFFFFFFFFFFFFFFFFFFFFFFFFFFFFFFFFFFFFFFFF AND DUP2 MSTORE POP POP DUP1 PUSH1 0x40 ADD MLOAD DUP3 PUSH0 ADD MLOAD PUSH1 0x60 ADD DUP2 DUP2 MSTORE POP POP DUP1 PUSH1 0x20 ADD MLOAD DUP3 PUSH0 ADD MLOAD PUSH1 0x80 ADD SWAP1 ISZERO ISZERO SWAP1 DUP2 ISZERO ISZERO DUP2 MSTORE POP POP DUP1 PUSH1 0xA0 ADD MLOAD DUP3 PUSH0 ADD MLOAD PUSH1 0xA0 ADD SWAP1 PUSH20 0xFFFFFFFFFFFFFFFFFFFFFFFFFFFFFFFFFFFFFFFF AND SWAP1 DUP2 PUSH20 0xFFFFFFFFFFFFFFFFFFFFFFFFFFFFFFFFFFFFFFFF AND DUP2 MSTORE POP POP DUP2 PUSH0 ADD MLOAD DUP4 PUSH2 0x100 ADD DUP2 SWAP1 MSTORE POP POP POP POP POP JUMP JUMPDEST PUSH2 0x2BCA PUSH1 0x4 PUSH0 SLOAD EQ PUSH1 0x7 PUSH2 0x3545 JUMP JUMPDEST PUSH0 PUSH1 0x2 DUP1 SLOAD PUSH2 0x2BD8 SWAP1 PUSH2 0x4C22 JUMP JUMPDEST DUP1 PUSH1 0x1F ADD PUSH1 0x20 DUP1 SWAP2 DIV MUL PUSH1 0x20 ADD PUSH1 0x40 MLOAD SWAP1 DUP2 ADD PUSH1 0x40 MSTORE DUP1 SWAP3 SWAP2 SWAP1 DUP2 DUP2 MSTORE PUSH1 0x20 ADD DUP3 DUP1 SLOAD PUSH2 0x2C04 SWAP1 PUSH2 0x4C22 JUMP JUMPDEST DUP1 ISZERO PUSH2 0x2C4F JUMPI DUP1 PUSH1 0x1F LT PUSH2 0x2C26 JUMPI PUSH2 0x100 DUP1 DUP4 SLOAD DIV MUL DUP4 MSTORE SWAP2 PUSH1 0x20 ADD SWAP2 PUSH2 0x2C4F JUMP JUMPDEST DUP3 ADD SWAP2 SWAP1 PUSH0 MSTORE PUSH1 0x20 PUSH0 KECCAK256 SWAP1 JUMPDEST DUP2 SLOAD DUP2 MSTORE SWAP1 PUSH1 0x1 ADD SWAP1 PUSH1 0x20 ADD DUP1 DUP4 GT PUSH2 0x2C32 JUMPI DUP3 SWAP1 SUB PUSH1 0x1F AND DUP3 ADD SWAP2 JUMPDEST POP POP POP POP POP DUP1 PUSH1 0x20 ADD SWAP1 MLOAD DUP2 ADD SWAP1 PUSH2 0x2C67 SWAP2 SWAP1 PUSH2 0x509E JUMP JUMPDEST SWAP1 POP DUP1 PUSH2 0x140 ADD MLOAD PUSH0 ADD MLOAD DUP3 PUSH1 0x20 ADD SWAP1 ISZERO ISZERO SWAP1 DUP2 ISZERO ISZERO DUP2 MSTORE POP POP POP POP POP JUMP JUMPDEST PUSH2 0x2C8E PUSH2 0x40D5 JUMP JUMPDEST DUP3 DUP2 PUSH0 ADD MLOAD PUSH0 ADD DUP2 DUP2 MSTORE POP POP PUSH0 DUP2 PUSH1 0x20 ADD MLOAD PUSH0 ADD SWAP1 PUSH1 0x4 DUP2 GT ISZERO PUSH2 0x2CB5 JUMPI PUSH2 0x2CB4 PUSH2 0x45D2 JUMP JUMPDEST JUMPDEST SWAP1 DUP2 PUSH1 0x4 DUP2 GT ISZERO PUSH2 0x2CC9 JUMPI PUSH2 0x2CC8 PUSH2 0x45D2 JUMP JUMPDEST JUMPDEST DUP2 MSTORE POP POP DUP1 PUSH0 ADD MLOAD DUP2 PUSH1 0x20 ADD MLOAD PUSH1 0x20 ADD DUP2 SWAP1 MSTORE POP PUSH2 0x2CE5 PUSH2 0x406A JUMP JUMPDEST PUSH0 DUP2 PUSH0 ADD DUP2 DUP2 MSTORE POP POP DUP2 PUSH1 0x20 ADD MLOAD DUP2 PUSH1 0x20 ADD DUP2 SWAP1 MSTORE POP PUSH2 0x2D05 DUP2 DUP5 PUSH2 0xB3A JUMP JUMPDEST POP POP POP POP JUMP JUMPDEST PUSH2 0x2D1A PUSH1 0x4 PUSH0 SLOAD EQ PUSH1 0x13 PUSH2 0x3545 JUMP JUMPDEST PUSH0 PUSH1 0x2 DUP1 SLOAD PUSH2 0x2D28 SWAP1 PUSH2 0x4C22 JUMP JUMPDEST DUP1 PUSH1 0x1F ADD PUSH1 0x20 DUP1 SWAP2 DIV MUL PUSH1 0x20 ADD PUSH1 0x40 MLOAD SWAP1 DUP2 ADD PUSH1 0x40 MSTORE DUP1 SWAP3 SWAP2 SWAP1 DUP2 DUP2 MSTORE PUSH1 0x20 ADD DUP3 DUP1 SLOAD PUSH2 0x2D54 SWAP1 PUSH2 0x4C22 JUMP JUMPDEST DUP1 ISZERO PUSH2 0x2D9F JUMPI DUP1 PUSH1 0x1F LT PUSH2 0x2D76 JUMPI PUSH2 0x100 DUP1 DUP4 SLOAD DIV MUL DUP4 MSTORE SWAP2 PUSH1 0x20 ADD SWAP2 PUSH2 0x2D9F JUMP JUMPDEST DUP3 ADD SWAP2 SWAP1 PUSH0 MSTORE PUSH1 0x20 PUSH0 KECCAK256 SWAP1 JUMPDEST DUP2 SLOAD DUP2 MSTORE SWAP1 PUSH1 0x1 ADD SWAP1 PUSH1 0x20 ADD DUP1 DUP4 GT PUSH2 0x2D82 JUMPI DUP3 SWAP1 SUB PUSH1 0x1F AND DUP3 ADD SWAP2 JUMPDEST POP POP POP POP POP DUP1 PUSH1 0x20 ADD SWAP1 MLOAD DUP2 ADD SWAP1 PUSH2 0x2DB7 SWAP2 SWAP1 PUSH2 0x509E JUMP JUMPDEST SWAP1 POP DUP1 PUSH2 0x140 ADD MLOAD PUSH1 0x60 ADD MLOAD DUP3 PUSH2 0x180 ADD SWAP1 ISZERO ISZERO SWAP1 DUP2 ISZERO ISZERO DUP2 MSTORE POP POP POP POP POP JUMP JUMPDEST PUSH2 0x2DE7 PUSH1 0x4 PUSH0 SLOAD EQ PUSH1 0x12 PUSH2 0x3545 JUMP JUMPDEST PUSH0 PUSH1 0x2 DUP1 SLOAD PUSH2 0x2DF5 SWAP1 PUSH2 0x4C22 JUMP JUMPDEST DUP1 PUSH1 0x1F ADD PUSH1 0x20 DUP1 SWAP2 DIV MUL PUSH1 0x20 ADD PUSH1 0x40 MLOAD SWAP1 DUP2 ADD PUSH1 0x40 MSTORE DUP1 SWAP3 SWAP2 SWAP1 DUP2 DUP2 MSTORE PUSH1 0x20 ADD DUP3 DUP1 SLOAD PUSH2 0x2E21 SWAP1 PUSH2 0x4C22 JUMP JUMPDEST DUP1 ISZERO PUSH2 0x2E6C JUMPI DUP1 PUSH1 0x1F LT PUSH2 0x2E43 JUMPI PUSH2 0x100 DUP1 DUP4 SLOAD DIV MUL DUP4 MSTORE SWAP2 PUSH1 0x20 ADD SWAP2 PUSH2 0x2E6C JUMP JUMPDEST DUP3 ADD SWAP2 SWAP1 PUSH0 MSTORE PUSH1 0x20 PUSH0 KECCAK256 SWAP1 JUMPDEST DUP2 SLOAD DUP2 MSTORE SWAP1 PUSH1 0x1 ADD SWAP1 PUSH1 0x20 ADD DUP1 DUP4 GT PUSH2 0x2E4F JUMPI DUP3 SWAP1 SUB PUSH1 0x1F AND DUP3 ADD SWAP2 JUMPDEST POP POP POP POP POP DUP1 PUSH1 0x20 ADD SWAP1 MLOAD DUP2 ADD SWAP1 PUSH2 0x2E84 SWAP2 SWAP1 PUSH2 0x509E JUMP JUMPDEST SWAP1 POP DUP1 PUSH1 0xA0 ADD MLOAD DUP3 PUSH2 0x160 ADD SWAP1 PUSH20 0xFFFFFFFFFFFFFFFFFFFFFFFFFFFFFFFFFFFFFFFF AND SWAP1 DUP2 PUSH20 0xFFFFFFFFFFFFFFFFFFFFFFFFFFFFFFFFFFFFFFFF AND DUP2 MSTORE POP POP POP POP POP JUMP JUMPDEST PUSH2 0x2ED0 PUSH2 0x40FB JUMP JUMPDEST PUSH1 0x4 DUP2 PUSH1 0x20 ADD MLOAD PUSH0 ADD SWAP1 PUSH1 0x4 DUP2 GT ISZERO PUSH2 0x2EEC JUMPI PUSH2 0x2EEB PUSH2 0x45D2 JUMP JUMPDEST JUMPDEST SWAP1 DUP2 PUSH1 0x4 DUP2 GT ISZERO PUSH2 0x2F00 JUMPI PUSH2 0x2EFF PUSH2 0x45D2 JUMP JUMPDEST JUMPDEST DUP2 MSTORE POP POP DUP1 PUSH0 ADD MLOAD DUP2 PUSH1 0x20 ADD MLOAD PUSH1 0xA0 ADD SWAP1 ISZERO ISZERO SWAP1 DUP2 ISZERO ISZERO DUP2 MSTORE POP POP PUSH2 0x2F23 PUSH2 0x406A JUMP JUMPDEST PUSH0 DUP2 PUSH0 ADD DUP2 DUP2 MSTORE POP POP DUP2 PUSH1 0x20 ADD MLOAD DUP2 PUSH1 0x20 ADD DUP2 SWAP1 MSTORE POP PUSH2 0x2F43 DUP2 DUP5 PUSH2 0xB3A JUMP JUMPDEST POP POP POP POP JUMP JUMPDEST PUSH2 0x2F58 PUSH1 0x4 PUSH0 SLOAD EQ PUSH1 0x8 PUSH2 0x3545 JUMP JUMPDEST PUSH0 PUSH1 0x2 DUP1 SLOAD PUSH2 0x2F66 SWAP1 PUSH2 0x4C22 JUMP JUMPDEST DUP1 PUSH1 0x1F ADD PUSH1 0x20 DUP1 SWAP2 DIV MUL PUSH1 0x20 ADD PUSH1 0x40 MLOAD SWAP1 DUP2 ADD PUSH1 0x40 MSTORE DUP1 SWAP3 SWAP2 SWAP1 DUP2 DUP2 MSTORE PUSH1 0x20 ADD DUP3 DUP1 SLOAD PUSH2 0x2F92 SWAP1 PUSH2 0x4C22 JUMP JUMPDEST DUP1 ISZERO PUSH2 0x2FDD JUMPI DUP1 PUSH1 0x1F LT PUSH2 0x2FB4 JUMPI PUSH2 0x100 DUP1 DUP4 SLOAD DIV MUL DUP4 MSTORE SWAP2 PUSH1 0x20 ADD SWAP2 PUSH2 0x2FDD JUMP JUMPDEST DUP3 ADD SWAP2 SWAP1 PUSH0 MSTORE PUSH1 0x20 PUSH0 KECCAK256 SWAP1 JUMPDEST DUP2 SLOAD DUP2 MSTORE SWAP1 PUSH1 0x1 ADD SWAP1 PUSH1 0x20 ADD DUP1 DUP4 GT PUSH2 0x2FC0 JUMPI DUP3 SWAP1 SUB PUSH1 0x1F AND DUP3 ADD SWAP2 JUMPDEST POP POP POP POP POP DUP1 PUSH1 0x20 ADD SWAP1 MLOAD DUP2 ADD SWAP1 PUSH2 0x2FF5 SWAP2 SWAP1 PUSH2 0x509E JUMP JUMPDEST SWAP1 POP DUP1 PUSH2 0x1A0 ADD MLOAD DUP3 PUSH1 0x40 ADD DUP2 DUP2 MSTORE POP POP POP POP POP JUMP JUMPDEST PUSH2 0x301A PUSH1 0x4 PUSH0 SLOAD EQ PUSH1 0x14 PUSH2 0x3545 JUMP JUMPDEST PUSH0 PUSH1 0x2 DUP1 SLOAD PUSH2 0x3028 SWAP1 PUSH2 0x4C22 JUMP JUMPDEST DUP1 PUSH1 0x1F ADD PUSH1 0x20 DUP1 SWAP2 DIV MUL PUSH1 0x20 ADD PUSH1 0x40 MLOAD SWAP1 DUP2 ADD PUSH1 0x40 MSTORE DUP1 SWAP3 SWAP2 SWAP1 DUP2 DUP2 MSTORE PUSH1 0x20 ADD DUP3 DUP1 SLOAD PUSH2 0x3054 SWAP1 PUSH2 0x4C22 JUMP JUMPDEST DUP1 ISZERO PUSH2 0x309F JUMPI DUP1 PUSH1 0x1F LT PUSH2 0x3076 JUMPI PUSH2 0x100 DUP1 DUP4 SLOAD DIV MUL DUP4 MSTORE SWAP2 PUSH1 0x20 ADD SWAP2 PUSH2 0x309F JUMP JUMPDEST DUP3 ADD SWAP2 SWAP1 PUSH0 MSTORE PUSH1 0x20 PUSH0 KECCAK256 SWAP1 JUMPDEST DUP2 SLOAD DUP2 MSTORE SWAP1 PUSH1 0x1 ADD SWAP1 PUSH1 0x20 ADD DUP1 DUP4 GT PUSH2 0x3082 JUMPI DUP3 SWAP1 SUB PUSH1 0x1F AND DUP3 ADD SWAP2 JUMPDEST POP POP POP POP POP DUP1 PUSH1 0x20 ADD SWAP1 MLOAD DUP2 ADD SWAP1 PUSH2 0x30B7 SWAP2 SWAP1 PUSH2 0x509E JUMP JUMPDEST SWAP1 POP DUP1 PUSH2 0x140 ADD MLOAD PUSH2 0x100 ADD MLOAD DUP3 PUSH2 0x1A0 ADD DUP2 SWAP1 MSTORE POP POP POP POP JUMP JUMPDEST PUSH2 0x30DA PUSH2 0x411C JUMP JUMPDEST PUSH1 0x2 DUP2 PUSH1 0x20 ADD MLOAD PUSH0 ADD SWAP1 PUSH1 0x4 DUP2 GT ISZERO PUSH2 0x30F6 JUMPI PUSH2 0x30F5 PUSH2 0x45D2 JUMP JUMPDEST JUMPDEST SWAP1 DUP2 PUSH1 0x4 DUP2 GT ISZERO PUSH2 0x310A JUMPI PUSH2 0x3109 PUSH2 0x45D2 JUMP JUMPDEST JUMPDEST DUP2 MSTORE POP POP DUP1 PUSH0 ADD MLOAD DUP2 PUSH1 0x20 ADD MLOAD PUSH1 0x60 ADD SWAP1 ISZERO ISZERO SWAP1 DUP2 ISZERO ISZERO DUP2 MSTORE POP POP PUSH2 0x312D PUSH2 0x406A JUMP JUMPDEST PUSH0 DUP2 PUSH0 ADD DUP2 DUP2 MSTORE POP POP DUP2 PUSH1 0x20 ADD MLOAD DUP2 PUSH1 0x20 ADD DUP2 SWAP1 MSTORE POP PUSH2 0x314D DUP2 DUP5 PUSH2 0xB3A JUMP JUMPDEST POP POP POP POP JUMP JUMPDEST PUSH2 0x3162 PUSH1 0x4 PUSH0 SLOAD EQ PUSH1 0xD PUSH2 0x3545 JUMP JUMPDEST PUSH0 PUSH1 0x2 DUP1 SLOAD PUSH2 0x3170 SWAP1 PUSH2 0x4C22 JUMP JUMPDEST DUP1 PUSH1 0x1F ADD PUSH1 0x20 DUP1 SWAP2 DIV MUL PUSH1 0x20 ADD PUSH1 0x40 MLOAD SWAP1 DUP2 ADD PUSH1 0x40 MSTORE DUP1 SWAP3 SWAP2 SWAP1 DUP2 DUP2 MSTORE PUSH1 0x20 ADD DUP3 DUP1 SLOAD PUSH2 0x319C SWAP1 PUSH2 0x4C22 JUMP JUMPDEST DUP1 ISZERO PUSH2 0x31E7 JUMPI DUP1 PUSH1 0x1F LT PUSH2 0x31BE JUMPI PUSH2 0x100 DUP1 DUP4 SLOAD DIV MUL DUP4 MSTORE SWAP2 PUSH1 0x20 ADD SWAP2 PUSH2 0x31E7 JUMP JUMPDEST DUP3 ADD SWAP2 SWAP1 PUSH0 MSTORE PUSH1 0x20 PUSH0 KECCAK256 SWAP1 JUMPDEST DUP2 SLOAD DUP2 MSTORE SWAP1 PUSH1 0x1 ADD SWAP1 PUSH1 0x20 ADD DUP1 DUP4 GT PUSH2 0x31CA JUMPI DUP3 SWAP1 SUB PUSH1 0x1F AND DUP3 ADD SWAP2 JUMPDEST POP POP POP POP POP DUP1 PUSH1 0x20 ADD SWAP1 MLOAD DUP2 ADD SWAP1 PUSH2 0x31FF SWAP2 SWAP1 PUSH2 0x509E JUMP JUMPDEST SWAP1 POP PUSH1 0x1 PUSH2 0x320C DUP5 PUSH2 0x2287 JUMP JUMPDEST PUSH0 ADD MLOAD PUSH1 0x1 DUP2 GT ISZERO PUSH2 0x3221 JUMPI PUSH2 0x3220 PUSH2 0x45D2 JUMP JUMPDEST JUMPDEST EQ DUP3 PUSH1 0xE0 ADD SWAP1 ISZERO ISZERO SWAP1 DUP2 ISZERO ISZERO DUP2 MSTORE POP POP POP POP POP JUMP JUMPDEST PUSH2 0x3245 PUSH1 0x4 PUSH0 SLOAD EQ PUSH1 0xF PUSH2 0x3545 JUMP JUMPDEST PUSH0 PUSH1 0x2 DUP1 SLOAD PUSH2 0x3253 SWAP1 PUSH2 0x4C22 JUMP JUMPDEST DUP1 PUSH1 0x1F ADD PUSH1 0x20 DUP1 SWAP2 DIV MUL PUSH1 0x20 ADD PUSH1 0x40 MLOAD SWAP1 DUP2 ADD PUSH1 0x40 MSTORE DUP1 SWAP3 SWAP2 SWAP1 DUP2 DUP2 MSTORE PUSH1 0x20 ADD DUP3 DUP1 SLOAD PUSH2 0x327F SWAP1 PUSH2 0x4C22 JUMP JUMPDEST DUP1 ISZERO PUSH2 0x32CA JUMPI DUP1 PUSH1 0x1F LT PUSH2 0x32A1 JUMPI PUSH2 0x100 DUP1 DUP4 SLOAD DIV MUL DUP4 MSTORE SWAP2 PUSH1 0x20 ADD SWAP2 PUSH2 0x32CA JUMP JUMPDEST DUP3 ADD SWAP2 SWAP1 PUSH0 MSTORE PUSH1 0x20 PUSH0 KECCAK256 SWAP1 JUMPDEST DUP2 SLOAD DUP2 MSTORE SWAP1 PUSH1 0x1 ADD SWAP1 PUSH1 0x20 ADD DUP1 DUP4 GT PUSH2 0x32AD JUMPI DUP3 SWAP1 SUB PUSH1 0x1F AND DUP3 ADD SWAP2 JUMPDEST POP POP POP POP POP DUP1 PUSH1 0x20 ADD SWAP1 MLOAD DUP2 ADD SWAP1 PUSH2 0x32E2 SWAP2 SWAP1 PUSH2 0x509E JUMP JUMPDEST SWAP1 POP PUSH2 0x32F4 DUP2 PUSH2 0x1C0 ADD MLOAD PUSH1 0x10 PUSH2 0x3545 JUMP JUMPDEST DUP1 PUSH1 0x60 ADD MLOAD DUP3 PUSH2 0x120 ADD DUP2 DUP2 MSTORE POP POP POP POP POP JUMP JUMPDEST PUSH2 0x3317 PUSH1 0x4 PUSH0 SLOAD EQ PUSH1 0xA PUSH2 0x3545 JUMP JUMPDEST PUSH0 PUSH1 0x2 DUP1 SLOAD PUSH2 0x3325 SWAP1 PUSH2 0x4C22 JUMP JUMPDEST DUP1 PUSH1 0x1F ADD PUSH1 0x20 DUP1 SWAP2 DIV MUL PUSH1 0x20 ADD PUSH1 0x40 MLOAD SWAP1 DUP2 ADD PUSH1 0x40 MSTORE DUP1 SWAP3 SWAP2 SWAP1 DUP2 DUP2 MSTORE PUSH1 0x20 ADD DUP3 DUP1 SLOAD PUSH2 0x3351 SWAP1 PUSH2 0x4C22 JUMP JUMPDEST DUP1 ISZERO PUSH2 0x339C JUMPI DUP1 PUSH1 0x1F LT PUSH2 0x3373 JUMPI PUSH2 0x100 DUP1 DUP4 SLOAD DIV MUL DUP4 MSTORE SWAP2 PUSH1 0x20 ADD SWAP2 PUSH2 0x339C JUMP JUMPDEST DUP3 ADD SWAP2 SWAP1 PUSH0 MSTORE PUSH1 0x20 PUSH0 KECCAK256 SWAP1 JUMPDEST DUP2 SLOAD DUP2 MSTORE SWAP1 PUSH1 0x1 ADD SWAP1 PUSH1 0x20 ADD DUP1 DUP4 GT PUSH2 0x337F JUMPI DUP3 SWAP1 SUB PUSH1 0x1F AND DUP3 ADD SWAP2 JUMPDEST POP POP POP POP POP DUP1 PUSH1 0x20 ADD SWAP1 MLOAD DUP2 ADD SWAP1 PUSH2 0x33B4 SWAP2 SWAP1 PUSH2 0x509E JUMP JUMPDEST SWAP1 POP DUP1 PUSH2 0x160 ADD MLOAD DUP3 PUSH1 0x80 ADD DUP2 DUP2 MSTORE POP POP POP POP POP JUMP JUMPDEST PUSH2 0x33D2 PUSH2 0x413D JUMP JUMPDEST DUP3 DUP2 PUSH0 ADD MLOAD PUSH0 ADD SWAP1 PUSH20 0xFFFFFFFFFFFFFFFFFFFFFFFFFFFFFFFFFFFFFFFF AND SWAP1 DUP2 PUSH20 0xFFFFFFFFFFFFFFFFFFFFFFFFFFFFFFFFFFFFFFFF AND DUP2 MSTORE POP POP PUSH1 0x3 DUP2 PUSH1 0x20 ADD MLOAD PUSH0 ADD SWAP1 PUSH1 0x4 DUP2 GT ISZERO PUSH2 0x3428 JUMPI PUSH2 0x3427 PUSH2 0x45D2 JUMP JUMPDEST JUMPDEST SWAP1 DUP2 PUSH1 0x4 DUP2 GT ISZERO PUSH2 0x343C JUMPI PUSH2 0x343B PUSH2 0x45D2 JUMP JUMPDEST JUMPDEST DUP2 MSTORE POP POP DUP1 PUSH0 ADD MLOAD DUP2 PUSH1 0x20 ADD MLOAD PUSH1 0x80 ADD DUP2 SWAP1 MSTORE POP PUSH2 0x3458 PUSH2 0x406A JUMP JUMPDEST PUSH0 DUP2 PUSH0 ADD DUP2 DUP2 MSTORE POP POP DUP2 PUSH1 0x20 ADD MLOAD DUP2 PUSH1 0x20 ADD DUP2 SWAP1 MSTORE POP PUSH2 0x3478 DUP2 DUP5 PUSH2 0xB3A JUMP JUMPDEST POP POP POP POP JUMP JUMPDEST PUSH2 0x348D PUSH1 0x4 PUSH0 SLOAD EQ PUSH1 0x11 PUSH2 0x3545 JUMP JUMPDEST PUSH0 PUSH1 0x2 DUP1 SLOAD PUSH2 0x349B SWAP1 PUSH2 0x4C22 JUMP JUMPDEST DUP1 PUSH1 0x1F ADD PUSH1 0x20 DUP1 SWAP2 DIV MUL PUSH1 0x20 ADD PUSH1 0x40 MLOAD SWAP1 DUP2 ADD PUSH1 0x40 MSTORE DUP1 SWAP3 SWAP2 SWAP1 DUP2 DUP2 MSTORE PUSH1 0x20 ADD DUP3 DUP1 SLOAD PUSH2 0x34C7 SWAP1 PUSH2 0x4C22 JUMP JUMPDEST DUP1 ISZERO PUSH2 0x3512 JUMPI DUP1 PUSH1 0x1F LT PUSH2 0x34E9 JUMPI PUSH2 0x100 DUP1 DUP4 SLOAD DIV MUL DUP4 MSTORE SWAP2 PUSH1 0x20 ADD SWAP2 PUSH2 0x3512 JUMP JUMPDEST DUP3 ADD SWAP2 SWAP1 PUSH0 MSTORE PUSH1 0x20 PUSH0 KECCAK256 SWAP1 JUMPDEST DUP2 SLOAD DUP2 MSTORE SWAP1 PUSH1 0x1 ADD SWAP1 PUSH1 0x20 ADD DUP1 DUP4 GT PUSH2 0x34F5 JUMPI DUP3 SWAP1 SUB PUSH1 0x1F AND DUP3 ADD SWAP2 JUMPDEST POP POP POP POP POP DUP1 PUSH1 0x20 ADD SWAP1 MLOAD DUP2 ADD SWAP1 PUSH2 0x352A SWAP2 SWAP1 PUSH2 0x509E JUMP JUMPDEST SWAP1 POP DUP1 PUSH2 0x140 ADD MLOAD PUSH1 0x80 ADD MLOAD DUP3 PUSH2 0x140 ADD DUP2 DUP2 MSTORE POP POP POP POP POP JUMP JUMPDEST DUP2 PUSH2 0x3587 JUMPI DUP1 PUSH1 0x40 MLOAD PUSH32 0x100960CB00000000000000000000000000000000000000000000000000000000 DUP2 MSTORE PUSH1 0x4 ADD PUSH2 0x357E SWAP2 SWAP1 PUSH2 0x440B JUMP JUMPDEST PUSH1 0x40 MLOAD DUP1 SWAP2 SUB SWAP1 REVERT JUMPDEST POP POP JUMP JUMPDEST PUSH0 DUP1 DUP3 EQ DUP1 PUSH2 0x35B2 JUMPI POP DUP3 DUP3 DUP4 DUP6 PUSH2 0x35A3 SWAP2 SWAP1 PUSH2 0x5437 JUMP JUMPDEST SWAP3 POP DUP3 PUSH2 0x35B0 SWAP2 SWAP1 PUSH2 0x54A5 JUMP JUMPDEST EQ JUMPDEST PUSH2 0x35F1 JUMPI PUSH1 0x40 MLOAD PUSH32 0x8C379A000000000000000000000000000000000000000000000000000000000 DUP2 MSTORE PUSH1 0x4 ADD PUSH2 0x35E8 SWAP1 PUSH2 0x552F JUMP JUMPDEST PUSH1 0x40 MLOAD DUP1 SWAP2 SUB SWAP1 REVERT JUMPDEST SWAP3 SWAP2 POP POP JUMP JUMPDEST PUSH0 PUSH2 0x3604 DUP4 DUP6 ADDRESS DUP6 PUSH2 0x3AAB JUMP JUMPDEST SWAP1 POP SWAP4 SWAP3 POP POP POP JUMP JUMPDEST PUSH0 DUP3 DUP3 DUP5 PUSH2 0x361B SWAP2 SWAP1 PUSH2 0x554D JUMP JUMPDEST SWAP2 POP DUP2 LT ISZERO PUSH2 0x365F JUMPI PUSH1 0x40 MLOAD PUSH32 0x8C379A000000000000000000000000000000000000000000000000000000000 DUP2 MSTORE PUSH1 0x4 ADD PUSH2 0x3656 SWAP1 PUSH2 0x55CA JUMP JUMPDEST PUSH1 0x40 MLOAD DUP1 SWAP2 SUB SWAP1 REVERT JUMPDEST SWAP3 SWAP2 POP POP JUMP JUMPDEST PUSH0 DUP2 DUP4 ADD SWAP1 POP SWAP3 SWAP2 POP POP JUMP JUMPDEST DUP2 PUSH2 0x140 ADD MLOAD PUSH1 0xA0 ADD MLOAD PUSH2 0x3685 JUMPI PUSH0 PUSH2 0x369D JUMP JUMPDEST DUP2 PUSH2 0x140 ADD MLOAD PUSH1 0x60 ADD MLOAD PUSH2 0x369A JUMPI PUSH1 0x1 PUSH2 0x369C JUMP JUMPDEST PUSH0 JUMPDEST JUMPDEST ISZERO PUSH2 0x38BD JUMPI PUSH2 0x36AA PUSH2 0x4163 JUMP JUMPDEST DUP3 PUSH0 ADD MLOAD DUP2 PUSH0 ADD SWAP1 PUSH20 0xFFFFFFFFFFFFFFFFFFFFFFFFFFFFFFFFFFFFFFFF AND SWAP1 DUP2 PUSH20 0xFFFFFFFFFFFFFFFFFFFFFFFFFFFFFFFFFFFFFFFF AND DUP2 MSTORE POP POP DUP3 PUSH1 0x20 ADD MLOAD DUP2 PUSH1 0x20 ADD SWAP1 ISZERO ISZERO SWAP1 DUP2 ISZERO ISZERO DUP2 MSTORE POP POP DUP3 PUSH1 0x40 ADD MLOAD DUP2 PUSH1 0x40 ADD DUP2 DUP2 MSTORE POP POP DUP3 PUSH1 0x60 ADD MLOAD DUP2 PUSH1 0x60 ADD DUP2 DUP2 MSTORE POP POP DUP3 PUSH1 0x80 ADD MLOAD DUP2 PUSH1 0x80 ADD DUP2 DUP2 MSTORE POP POP DUP3 PUSH1 0xA0 ADD MLOAD DUP2 PUSH1 0xA0 ADD SWAP1 PUSH20 0xFFFFFFFFFFFFFFFFFFFFFFFFFFFFFFFFFFFFFFFF AND SWAP1 DUP2 PUSH20 0xFFFFFFFFFFFFFFFFFFFFFFFFFFFFFFFFFFFFFFFF AND DUP2 MSTORE POP POP DUP3 PUSH1 0xC0 ADD MLOAD DUP2 PUSH1 0xC0 ADD DUP2 DUP2 MSTORE POP POP DUP3 PUSH1 0xE0 ADD MLOAD DUP2 PUSH1 0xE0 ADD SWAP1 PUSH20 0xFFFFFFFFFFFFFFFFFFFFFFFFFFFFFFFFFFFFFFFF AND SWAP1 DUP2 PUSH20 0xFFFFFFFFFFFFFFFFFFFFFFFFFFFFFFFFFFFFFFFF AND DUP2 MSTORE POP POP DUP3 PUSH2 0x100 ADD MLOAD DUP2 PUSH2 0x100 ADD SWAP1 PUSH20 0xFFFFFFFFFFFFFFFFFFFFFFFFFFFFFFFFFFFFFFFF AND SWAP1 DUP2 PUSH20 0xFFFFFFFFFFFFFFFFFFFFFFFFFFFFFFFFFFFFFFFF AND DUP2 MSTORE POP POP DUP3 PUSH2 0x120 ADD MLOAD DUP2 PUSH2 0x120 ADD DUP2 DUP2 MSTORE POP POP DUP3 PUSH2 0x140 ADD MLOAD DUP2 PUSH2 0x140 ADD DUP2 SWAP1 MSTORE POP DUP3 PUSH2 0x180 ADD MLOAD DUP2 PUSH2 0x160 ADD DUP2 DUP2 MSTORE POP POP DUP3 PUSH2 0x1A0 ADD MLOAD DUP2 PUSH2 0x180 ADD DUP2 SWAP1 MSTORE POP DUP3 PUSH2 0x1C0 ADD MLOAD DUP2 PUSH2 0x1A0 ADD DUP2 DUP2 MSTORE POP POP DUP3 PUSH2 0x120 ADD MLOAD DUP4 PUSH2 0x180 ADD MLOAD LT ISZERO DUP2 PUSH2 0x1C0 ADD SWAP1 ISZERO ISZERO SWAP1 DUP2 ISZERO ISZERO DUP2 MSTORE POP POP DUP3 PUSH2 0x140 ADD MLOAD PUSH1 0x20 ADD MLOAD DUP2 PUSH2 0x1E0 ADD DUP2 DUP2 MSTORE POP POP DUP3 PUSH2 0x140 ADD MLOAD PUSH1 0xE0 ADD MLOAD DUP2 PUSH2 0x200 ADD DUP2 DUP2 MSTORE POP POP PUSH1 0x4 PUSH0 DUP2 SWAP1 SSTORE POP NUMBER PUSH1 0x1 DUP2 SWAP1 SSTORE POP DUP1 PUSH1 0x40 MLOAD PUSH1 0x20 ADD PUSH2 0x3899 SWAP2 SWAP1 PUSH2 0x5910 JUMP JUMPDEST PUSH1 0x40 MLOAD PUSH1 0x20 DUP2 DUP4 SUB SUB DUP2 MSTORE SWAP1 PUSH1 0x40 MSTORE PUSH1 0x2 SWAP1 DUP2 PUSH2 0x38B6 SWAP2 SWAP1 PUSH2 0x5AC7 JUMP JUMPDEST POP POP PUSH2 0x3957 JUMP JUMPDEST DUP2 PUSH2 0x100 ADD MLOAD PUSH20 0xFFFFFFFFFFFFFFFFFFFFFFFFFFFFFFFFFFFFFFFF AND PUSH2 0x8FC DUP4 PUSH2 0x1C0 ADD MLOAD SWAP1 DUP2 ISZERO MUL SWAP1 PUSH1 0x40 MLOAD PUSH0 PUSH1 0x40 MLOAD DUP1 DUP4 SUB DUP2 DUP6 DUP9 DUP9 CALL SWAP4 POP POP POP POP ISZERO DUP1 ISZERO PUSH2 0x390A JUMPI RETURNDATASIZE PUSH0 DUP1 RETURNDATACOPY RETURNDATASIZE PUSH0 REVERT JUMPDEST POP PUSH2 0x393C DUP3 PUSH1 0xA0 ADD MLOAD DUP4 PUSH0 ADD MLOAD DUP5 PUSH2 0x1A0 ADD MLOAD PUSH0 PUSH1 0x1 DUP2 LT PUSH2 0x392F JUMPI PUSH2 0x392E PUSH2 0x5267 JUMP JUMPDEST JUMPDEST PUSH1 0x20 MUL ADD MLOAD PUSH0 ADD MLOAD PUSH2 0x395B JUMP JUMPDEST PUSH0 DUP1 DUP2 SWAP1 SSTORE POP PUSH0 PUSH1 0x1 DUP2 SWAP1 SSTORE POP PUSH1 0x2 PUSH0 PUSH2 0x3956 SWAP2 SWAP1 PUSH2 0x4240 JUMP JUMPDEST JUMPDEST POP POP JUMP JUMPDEST PUSH2 0x3966 DUP4 DUP4 DUP4 PUSH2 0x3BBE JUMP JUMPDEST PUSH2 0x396E JUMPI PUSH0 DUP1 REVERT JUMPDEST POP POP POP JUMP JUMPDEST PUSH0 DUP1 DUP3 SUB PUSH2 0x39B6 JUMPI PUSH1 0x40 MLOAD PUSH32 0x8C379A000000000000000000000000000000000000000000000000000000000 DUP2 MSTORE PUSH1 0x4 ADD PUSH2 0x39AD SWAP1 PUSH2 0x5BE0 JUMP JUMPDEST PUSH1 0x40 MLOAD DUP1 SWAP2 SUB SWAP1 REVERT JUMPDEST DUP2 DUP4 PUSH2 0x39C2 SWAP2 SWAP1 PUSH2 0x54A5 JUMP JUMPDEST SWAP1 POP SWAP3 SWAP2 POP POP JUMP JUMPDEST PUSH0 DUP3 DUP3 DUP5 PUSH2 0x39D8 SWAP2 SWAP1 PUSH2 0x5BFE JUMP JUMPDEST SWAP2 POP DUP2 GT ISZERO PUSH2 0x3A1C JUMPI PUSH1 0x40 MLOAD PUSH32 0x8C379A000000000000000000000000000000000000000000000000000000000 DUP2 MSTORE PUSH1 0x4 ADD PUSH2 0x3A13 SWAP1 PUSH2 0x5C7B JUMP JUMPDEST PUSH1 0x40 MLOAD DUP1 SWAP2 SUB SWAP1 REVERT JUMPDEST SWAP3 SWAP2 POP POP JUMP JUMPDEST PUSH0 DUP2 DUP4 SUB SWAP1 POP SWAP3 SWAP2 POP POP JUMP JUMPDEST PUSH2 0x3A36 PUSH2 0x427D JUMP JUMPDEST PUSH0 JUMPDEST PUSH1 0x1 DUP2 LT ISZERO PUSH2 0x3A87 JUMPI DUP5 DUP2 PUSH1 0x1 DUP2 LT PUSH2 0x3A54 JUMPI PUSH2 0x3A53 PUSH2 0x5267 JUMP JUMPDEST JUMPDEST PUSH1 0x20 MUL ADD MLOAD DUP3 DUP3 PUSH1 0x1 DUP2 LT PUSH2 0x3A6C JUMPI PUSH2 0x3A6B PUSH2 0x5267 JUMP JUMPDEST JUMPDEST PUSH1 0x20 MUL ADD DUP2 SWAP1 MSTORE POP DUP1 DUP1 PUSH2 0x3A7F SWAP1 PUSH2 0x5C99 JUMP JUMPDEST SWAP2 POP POP PUSH2 0x3A38 JUMP JUMPDEST POP DUP2 DUP2 DUP5 PUSH1 0x1 DUP2 LT PUSH2 0x3A9C JUMPI PUSH2 0x3A9B PUSH2 0x5267 JUMP JUMPDEST JUMPDEST PUSH1 0x20 MUL ADD DUP2 SWAP1 MSTORE POP SWAP4 SWAP3 POP POP POP JUMP JUMPDEST PUSH0 DUP1 PUSH0 DUP7 PUSH20 0xFFFFFFFFFFFFFFFFFFFFFFFFFFFFFFFFFFFFFFFF AND PUSH0 PUSH4 0x23B872DD PUSH1 0xE0 SHL DUP9 DUP9 DUP9 PUSH1 0x40 MLOAD PUSH1 0x24 ADD PUSH2 0x3AE3 SWAP4 SWAP3 SWAP2 SWAP1 PUSH2 0x5CE0 JUMP JUMPDEST PUSH1 0x40 MLOAD PUSH1 0x20 DUP2 DUP4 SUB SUB DUP2 MSTORE SWAP1 PUSH1 0x40 MSTORE SWAP1 PUSH28 0xFFFFFFFFFFFFFFFFFFFFFFFFFFFFFFFFFFFFFFFFFFFFFFFFFFFFFFFF NOT AND PUSH1 0x20 DUP3 ADD DUP1 MLOAD PUSH28 0xFFFFFFFFFFFFFFFFFFFFFFFFFFFFFFFFFFFFFFFFFFFFFFFFFFFFFFFF DUP4 DUP2 DUP4 AND OR DUP4 MSTORE POP POP POP POP PUSH1 0x40 MLOAD PUSH2 0x3B4D SWAP2 SWAP1 PUSH2 0x5D4F JUMP JUMPDEST PUSH0 PUSH1 0x40 MLOAD DUP1 DUP4 SUB DUP2 DUP6 DUP8 GAS CALL SWAP3 POP POP POP RETURNDATASIZE DUP1 PUSH0 DUP2 EQ PUSH2 0x3B87 JUMPI PUSH1 0x40 MLOAD SWAP2 POP PUSH1 0x1F NOT PUSH1 0x3F RETURNDATASIZE ADD AND DUP3 ADD PUSH1 0x40 MSTORE RETURNDATASIZE DUP3 MSTORE RETURNDATASIZE PUSH0 PUSH1 0x20 DUP5 ADD RETURNDATACOPY PUSH2 0x3B8C JUMP JUMPDEST PUSH1 0x60 SWAP2 POP JUMPDEST POP SWAP2 POP SWAP2 POP PUSH2 0x3B9D DUP3 DUP3 PUSH1 0x1 PUSH2 0x3CCE JUMP JUMPDEST POP DUP1 DUP1 PUSH1 0x20 ADD SWAP1 MLOAD DUP2 ADD SWAP1 PUSH2 0x3BB2 SWAP2 SWAP1 PUSH2 0x5D65 JUMP JUMPDEST SWAP3 POP POP POP SWAP5 SWAP4 POP POP POP POP JUMP JUMPDEST PUSH0 DUP1 PUSH0 DUP6 PUSH20 0xFFFFFFFFFFFFFFFFFFFFFFFFFFFFFFFFFFFFFFFF AND PUSH0 PUSH4 0xA9059CBB PUSH1 0xE0 SHL DUP8 DUP8 PUSH1 0x40 MLOAD PUSH1 0x24 ADD PUSH2 0x3BF4 SWAP3 SWAP2 SWAP1 PUSH2 0x5D90 JUMP JUMPDEST PUSH1 0x40 MLOAD PUSH1 0x20 DUP2 DUP4 SUB SUB DUP2 MSTORE SWAP1 PUSH1 0x40 MSTORE SWAP1 PUSH28 0xFFFFFFFFFFFFFFFFFFFFFFFFFFFFFFFFFFFFFFFFFFFFFFFFFFFFFFFF NOT AND PUSH1 0x20 DUP3 ADD DUP1 MLOAD PUSH28 0xFFFFFFFFFFFFFFFFFFFFFFFFFFFFFFFFFFFFFFFFFFFFFFFFFFFFFFFF DUP4 DUP2 DUP4 AND OR DUP4 MSTORE POP POP POP POP PUSH1 0x40 MLOAD PUSH2 0x3C5E SWAP2 SWAP1 PUSH2 0x5D4F JUMP JUMPDEST PUSH0 PUSH1 0x40 MLOAD DUP1 DUP4 SUB DUP2 DUP6 DUP8 GAS CALL SWAP3 POP POP POP RETURNDATASIZE DUP1 PUSH0 DUP2 EQ PUSH2 0x3C98 JUMPI PUSH1 0x40 MLOAD SWAP2 POP PUSH1 0x1F NOT PUSH1 0x3F RETURNDATASIZE ADD AND DUP3 ADD PUSH1 0x40 MSTORE RETURNDATASIZE DUP3 MSTORE RETURNDATASIZE PUSH0 PUSH1 0x20 DUP5 ADD RETURNDATACOPY PUSH2 0x3C9D JUMP JUMPDEST PUSH1 0x60 SWAP2 POP JUMPDEST POP SWAP2 POP SWAP2 POP PUSH2 0x3CAE DUP3 DUP3 PUSH1 0x2 PUSH2 0x3CCE JUMP JUMPDEST POP DUP1 DUP1 PUSH1 0x20 ADD SWAP1 MLOAD DUP2 ADD SWAP1 PUSH2 0x3CC3 SWAP2 SWAP1 PUSH2 0x5D65 JUMP JUMPDEST SWAP3 POP POP POP SWAP4 SWAP3 POP POP POP JUMP JUMPDEST PUSH1 0x60 DUP4 ISZERO PUSH2 0x3CDE JUMPI DUP3 SWAP1 POP PUSH2 0x3D2D JUMP JUMPDEST PUSH0 DUP4 MLOAD GT ISZERO PUSH2 0x3CF0 JUMPI DUP3 MLOAD DUP1 DUP5 PUSH1 0x20 ADD REVERT JUMPDEST DUP2 PUSH1 0x40 MLOAD PUSH32 0x100960CB00000000000000000000000000000000000000000000000000000000 DUP2 MSTORE PUSH1 0x4 ADD PUSH2 0x3D24 SWAP2 SWAP1 PUSH2 0x440B JUMP JUMPDEST PUSH1 0x40 MLOAD DUP1 SWAP2 SUB SWAP1 REVERT JUMPDEST SWAP4 SWAP3 POP POP POP JUMP JUMPDEST PUSH1 0x40 MLOAD DUP1 PUSH2 0x260 ADD PUSH1 0x40 MSTORE DUP1 PUSH0 ISZERO ISZERO DUP2 MSTORE PUSH1 0x20 ADD PUSH0 ISZERO ISZERO DUP2 MSTORE PUSH1 0x20 ADD PUSH0 DUP2 MSTORE PUSH1 0x20 ADD PUSH0 DUP2 MSTORE PUSH1 0x20 ADD PUSH0 DUP2 MSTORE PUSH1 0x20 ADD PUSH0 ISZERO ISZERO DUP2 MSTORE PUSH1 0x20 ADD PUSH0 DUP2 MSTORE PUSH1 0x20 ADD PUSH0 ISZERO ISZERO DUP2 MSTORE PUSH1 0x20 ADD PUSH2 0x3D80 PUSH2 0x3E1F JUMP JUMPDEST DUP2 MSTORE PUSH1 0x20 ADD PUSH0 DUP2 MSTORE PUSH1 0x20 ADD PUSH0 DUP2 MSTORE PUSH1 0x20 ADD PUSH0 PUSH20 0xFFFFFFFFFFFFFFFFFFFFFFFFFFFFFFFFFFFFFFFF AND DUP2 MSTORE PUSH1 0x20 ADD PUSH0 ISZERO ISZERO DUP2 MSTORE PUSH1 0x20 ADD PUSH2 0x3DBD PUSH2 0x3E7D JUMP JUMPDEST DUP2 MSTORE PUSH1 0x20 ADD PUSH0 ISZERO ISZERO DUP2 MSTORE PUSH1 0x20 ADD PUSH0 ISZERO ISZERO DUP2 MSTORE PUSH1 0x20 ADD PUSH0 ISZERO ISZERO DUP2 MSTORE PUSH1 0x20 ADD PUSH0 ISZERO ISZERO DUP2 MSTORE PUSH1 0x20 ADD PUSH0 ISZERO ISZERO DUP2 MSTORE POP SWAP1 JUMP JUMPDEST PUSH1 0x40 MLOAD DUP1 PUSH1 0x60 ADD PUSH1 0x40 MSTORE DUP1 PUSH0 PUSH1 0x1 DUP2 GT ISZERO PUSH2 0x3E09 JUMPI PUSH2 0x3E08 PUSH2 0x45D2 JUMP JUMPDEST JUMPDEST DUP2 MSTORE PUSH1 0x20 ADD PUSH0 ISZERO ISZERO DUP2 MSTORE PUSH1 0x20 ADD PUSH0 ISZERO ISZERO DUP2 MSTORE POP SWAP1 JUMP JUMPDEST PUSH1 0x40 MLOAD DUP1 PUSH1 0xC0 ADD PUSH1 0x40 MSTORE DUP1 PUSH0 DUP2 MSTORE PUSH1 0x20 ADD PUSH0 DUP2 MSTORE PUSH1 0x20 ADD PUSH0 PUSH20 0xFFFFFFFFFFFFFFFFFFFFFFFFFFFFFFFFFFFFFFFF AND DUP2 MSTORE PUSH1 0x20 ADD PUSH0 DUP2 MSTORE PUSH1 0x20 ADD PUSH0 ISZERO ISZERO DUP2 MSTORE PUSH1 0x20 ADD PUSH0 PUSH20 0xFFFFFFFFFFFFFFFFFFFFFFFFFFFFFFFFFFFFFFFF AND DUP2 MSTORE POP SWAP1 JUMP JUMPDEST PUSH1 0x40 MLOAD DUP1 PUSH1 0x60 ADD PUSH1 0x40 MSTORE DUP1 PUSH0 PUSH1 0x1 DUP2 GT ISZERO PUSH2 0x3E9B JUMPI PUSH2 0x3E9A PUSH2 0x45D2 JUMP JUMPDEST JUMPDEST DUP2 MSTORE PUSH1 0x20 ADD PUSH0 ISZERO ISZERO DUP2 MSTORE PUSH1 0x20 ADD PUSH0 PUSH20 0xFFFFFFFFFFFFFFFFFFFFFFFFFFFFFFFFFFFFFFFF AND DUP2 MSTORE POP SWAP1 JUMP JUMPDEST PUSH1 0x40 MLOAD DUP1 PUSH2 0x1E0 ADD PUSH1 0x40 MSTORE DUP1 PUSH2 0x3ED9 PUSH2 0x42AA JUMP JUMPDEST DUP2 MSTORE PUSH1 0x20 ADD PUSH0 DUP2 MSTORE PUSH1 0x20 ADD PUSH2 0x3EEC PUSH2 0x42BC JUMP JUMPDEST DUP2 MSTORE PUSH1 0x20 ADD PUSH2 0x3EF9 PUSH2 0x42EA JUMP JUMPDEST DUP2 MSTORE PUSH1 0x20 ADD PUSH0 PUSH20 0xFFFFFFFFFFFFFFFFFFFFFFFFFFFFFFFFFFFFFFFF AND DUP2 MSTORE PUSH1 0x20 ADD PUSH0 DUP2 MSTORE PUSH1 0x20 ADD PUSH0 DUP2 MSTORE PUSH1 0x20 ADD PUSH2 0x3F2E PUSH2 0x42EA JUMP JUMPDEST DUP2 MSTORE PUSH1 0x20 ADD PUSH2 0x3F3B PUSH2 0x42EA JUMP JUMPDEST DUP2 MSTORE PUSH1 0x20 ADD PUSH2 0x3F48 PUSH2 0x433A JUMP JUMPDEST DUP2 MSTORE PUSH1 0x20 ADD PUSH0 DUP2 MSTORE PUSH1 0x20 ADD PUSH0 DUP2 MSTORE PUSH1 0x20 ADD PUSH0 DUP2 MSTORE PUSH1 0x20 ADD PUSH2 0x3F67 PUSH2 0x3E7D JUMP JUMPDEST DUP2 MSTORE PUSH1 0x20 ADD PUSH2 0x3F74 PUSH2 0x42EA JUMP JUMPDEST DUP2 MSTORE POP SWAP1 JUMP JUMPDEST PUSH1 0x40 MLOAD DUP1 PUSH2 0x1E0 ADD PUSH1 0x40 MSTORE DUP1 PUSH0 PUSH20 0xFFFFFFFFFFFFFFFFFFFFFFFFFFFFFFFFFFFFFFFF AND DUP2 MSTORE PUSH1 0x20 ADD PUSH0 ISZERO ISZERO DUP2 MSTORE PUSH1 0x20 ADD PUSH0 DUP2 MSTORE PUSH1 0x20 ADD PUSH0 DUP2 MSTORE PUSH1 0x20 ADD PUSH0 DUP2 MSTORE PUSH1 0x20 ADD PUSH0 PUSH20 0xFFFFFFFFFFFFFFFFFFFFFFFFFFFFFFFFFFFFFFFF AND DUP2 MSTORE PUSH1 0x20 ADD PUSH0 DUP2 MSTORE PUSH1 0x20 ADD PUSH0 PUSH20 0xFFFFFFFFFFFFFFFFFFFFFFFFFFFFFFFFFFFFFFFF AND DUP2 MSTORE PUSH1 0x20 ADD PUSH0 PUSH20 0xFFFFFFFFFFFFFFFFFFFFFFFFFFFFFFFFFFFFFFFF AND DUP2 MSTORE PUSH1 0x20 ADD PUSH0 DUP2 MSTORE PUSH1 0x20 ADD PUSH2 0x4024 PUSH2 0x42EA JUMP JUMPDEST DUP2 MSTORE PUSH1 0x20 ADD PUSH0 DUP2 MSTORE PUSH1 0x20 ADD PUSH0 DUP2 MSTORE PUSH1 0x20 ADD PUSH2 0x403D PUSH2 0x427D JUMP JUMPDEST DUP2 MSTORE PUSH1 0x20 ADD PUSH0 DUP2 MSTORE POP SWAP1 JUMP JUMPDEST PUSH1 0x40 MLOAD DUP1 PUSH1 0x40 ADD PUSH1 0x40 MSTORE DUP1 PUSH0 ISZERO ISZERO DUP2 MSTORE PUSH1 0x20 ADD PUSH2 0x4064 PUSH2 0x4362 JUMP JUMPDEST DUP2 MSTORE POP SWAP1 JUMP JUMPDEST PUSH1 0x40 MLOAD DUP1 PUSH1 0x40 ADD PUSH1 0x40 MSTORE DUP1 PUSH0 DUP2 MSTORE PUSH1 0x20 ADD PUSH2 0x4083 PUSH2 0x4362 JUMP JUMPDEST DUP2 MSTORE POP SWAP1 JUMP JUMPDEST PUSH1 0x40 MLOAD DUP1 PUSH1 0x60 ADD PUSH1 0x40 MSTORE DUP1 PUSH2 0x409C PUSH2 0x427D JUMP JUMPDEST DUP2 MSTORE PUSH1 0x20 ADD PUSH2 0x40A9 PUSH2 0x3E7D JUMP JUMPDEST DUP2 MSTORE PUSH1 0x20 ADD PUSH2 0x40B6 PUSH2 0x42EA JUMP JUMPDEST DUP2 MSTORE POP SWAP1 JUMP JUMPDEST PUSH1 0x40 MLOAD DUP1 PUSH1 0x20 ADD PUSH1 0x40 MSTORE DUP1 PUSH2 0x40CF PUSH2 0x3E1F JUMP JUMPDEST DUP2 MSTORE POP SWAP1 JUMP JUMPDEST PUSH1 0x40 MLOAD DUP1 PUSH1 0x40 ADD PUSH1 0x40 MSTORE DUP1 PUSH2 0x40E8 PUSH2 0x42AA JUMP JUMPDEST DUP2 MSTORE PUSH1 0x20 ADD PUSH2 0x40F5 PUSH2 0x4362 JUMP JUMPDEST DUP2 MSTORE POP SWAP1 JUMP JUMPDEST PUSH1 0x40 MLOAD DUP1 PUSH1 0x40 ADD PUSH1 0x40 MSTORE DUP1 PUSH0 ISZERO ISZERO DUP2 MSTORE PUSH1 0x20 ADD PUSH2 0x4116 PUSH2 0x4362 JUMP JUMPDEST DUP2 MSTORE POP SWAP1 JUMP JUMPDEST PUSH1 0x40 MLOAD DUP1 PUSH1 0x40 ADD PUSH1 0x40 MSTORE DUP1 PUSH0 ISZERO ISZERO DUP2 MSTORE PUSH1 0x20 ADD PUSH2 0x4137 PUSH2 0x4362 JUMP JUMPDEST DUP2 MSTORE POP SWAP1 JUMP JUMPDEST PUSH1 0x40 MLOAD DUP1 PUSH1 0x40 ADD PUSH1 0x40 MSTORE DUP1 PUSH2 0x4150 PUSH2 0x433A JUMP JUMPDEST DUP2 MSTORE PUSH1 0x20 ADD PUSH2 0x415D PUSH2 0x4362 JUMP JUMPDEST DUP2 MSTORE POP SWAP1 JUMP JUMPDEST PUSH1 0x40 MLOAD DUP1 PUSH2 0x220 ADD PUSH1 0x40 MSTORE DUP1 PUSH0 PUSH20 0xFFFFFFFFFFFFFFFFFFFFFFFFFFFFFFFFFFFFFFFF AND DUP2 MSTORE PUSH1 0x20 ADD PUSH0 ISZERO ISZERO DUP2 MSTORE PUSH1 0x20 ADD PUSH0 DUP2 MSTORE PUSH1 0x20 ADD PUSH0 DUP2 MSTORE PUSH1 0x20 ADD PUSH0 DUP2 MSTORE PUSH1 0x20 ADD PUSH0 PUSH20 0xFFFFFFFFFFFFFFFFFFFFFFFFFFFFFFFFFFFFFFFF AND DUP2 MSTORE PUSH1 0x20 ADD PUSH0 DUP2 MSTORE PUSH1 0x20 ADD PUSH0 PUSH20 0xFFFFFFFFFFFFFFFFFFFFFFFFFFFFFFFFFFFFFFFF AND DUP2 MSTORE PUSH1 0x20 ADD PUSH0 PUSH20 0xFFFFFFFFFFFFFFFFFFFFFFFFFFFFFFFFFFFFFFFF AND DUP2 MSTORE PUSH1 0x20 ADD PUSH0 DUP2 MSTORE PUSH1 0x20 ADD PUSH2 0x420D PUSH2 0x42EA JUMP JUMPDEST DUP2 MSTORE PUSH1 0x20 ADD PUSH0 DUP2 MSTORE PUSH1 0x20 ADD PUSH2 0x4220 PUSH2 0x427D JUMP JUMPDEST DUP2 MSTORE PUSH1 0x20 ADD PUSH0 DUP2 MSTORE PUSH1 0x20 ADD PUSH0 ISZERO ISZERO DUP2 MSTORE PUSH1 0x20 ADD PUSH0 DUP2 MSTORE PUSH1 0x20 ADD PUSH0 DUP2 MSTORE POP SWAP1 JUMP JUMPDEST POP DUP1 SLOAD PUSH2 0x424C SWAP1 PUSH2 0x4C22 JUMP JUMPDEST PUSH0 DUP3 SSTORE DUP1 PUSH1 0x1F LT PUSH2 0x425D JUMPI POP PUSH2 0x427A JUMP JUMPDEST PUSH1 0x1F ADD PUSH1 0x20 SWAP1 DIV SWAP1 PUSH0 MSTORE PUSH1 0x20 PUSH0 KECCAK256 SWAP1 DUP2 ADD SWAP1 PUSH2 0x4279 SWAP2 SWAP1 PUSH2 0x43B8 JUMP JUMPDEST JUMPDEST POP JUMP JUMPDEST PUSH1 0x40 MLOAD DUP1 PUSH1 0x20 ADD PUSH1 0x40 MSTORE DUP1 PUSH1 0x1 SWAP1 JUMPDEST PUSH2 0x4294 PUSH2 0x43D3 JUMP JUMPDEST DUP2 MSTORE PUSH1 0x20 ADD SWAP1 PUSH1 0x1 SWAP1 SUB SWAP1 DUP2 PUSH2 0x428C JUMPI SWAP1 POP POP SWAP1 JUMP JUMPDEST PUSH1 0x40 MLOAD DUP1 PUSH1 0x20 ADD PUSH1 0x40 MSTORE DUP1 PUSH0 DUP2 MSTORE POP SWAP1 JUMP JUMPDEST PUSH1 0x40 MLOAD DUP1 PUSH1 0x40 ADD PUSH1 0x40 MSTORE DUP1 PUSH0 PUSH20 0xFFFFFFFFFFFFFFFFFFFFFFFFFFFFFFFFFFFFFFFF AND DUP2 MSTORE PUSH1 0x20 ADD PUSH0 DUP2 MSTORE POP SWAP1 JUMP JUMPDEST PUSH1 0x40 MLOAD DUP1 PUSH2 0x120 ADD PUSH1 0x40 MSTORE DUP1 PUSH0 ISZERO ISZERO DUP2 MSTORE PUSH1 0x20 ADD PUSH0 DUP2 MSTORE PUSH1 0x20 ADD PUSH0 DUP2 MSTORE PUSH1 0x20 ADD PUSH0 ISZERO ISZERO DUP2 MSTORE PUSH1 0x20 ADD PUSH0 DUP2 MSTORE PUSH1 0x20 ADD PUSH0 ISZERO ISZERO DUP2 MSTORE PUSH1 0x20 ADD PUSH0 DUP2 MSTORE PUSH1 0x20 ADD PUSH0 DUP2 MSTORE PUSH1 0x20 ADD PUSH2 0x4334 PUSH2 0x3E7D JUMP JUMPDEST DUP2 MSTORE POP SWAP1 JUMP JUMPDEST PUSH1 0x40 MLOAD DUP1 PUSH1 0x20 ADD PUSH1 0x40 MSTORE DUP1 PUSH0 PUSH20 0xFFFFFFFFFFFFFFFFFFFFFFFFFFFFFFFFFFFFFFFF AND DUP2 MSTORE POP SWAP1 JUMP JUMPDEST PUSH1 0x40 MLOAD DUP1 PUSH1 0xC0 ADD PUSH1 0x40 MSTORE DUP1 PUSH0 PUSH1 0x4 DUP2 GT ISZERO PUSH2 0x4380 JUMPI PUSH2 0x437F PUSH2 0x45D2 JUMP JUMPDEST JUMPDEST DUP2 MSTORE PUSH1 0x20 ADD PUSH2 0x438D PUSH2 0x42AA JUMP JUMPDEST DUP2 MSTORE PUSH1 0x20 ADD PUSH0 ISZERO ISZERO DUP2 MSTORE PUSH1 0x20 ADD PUSH0 ISZERO ISZERO DUP2 MSTORE PUSH1 0x20 ADD PUSH2 0x43AA PUSH2 0x433A JUMP JUMPDEST DUP2 MSTORE PUSH1 0x20 ADD PUSH0 ISZERO ISZERO DUP2 MSTORE POP SWAP1 JUMP JUMPDEST JUMPDEST DUP1 DUP3 GT ISZERO PUSH2 0x43CF JUMPI PUSH0 DUP2 PUSH0 SWAP1 SSTORE POP PUSH1 0x1 ADD PUSH2 0x43B9 JUMP JUMPDEST POP SWAP1 JUMP JUMPDEST PUSH1 0x40 MLOAD DUP1 PUSH1 0x60 ADD PUSH1 0x40 MSTORE DUP1 PUSH0 DUP2 MSTORE PUSH1 0x20 ADD PUSH0 DUP2 MSTORE PUSH1 0x20 ADD PUSH0 ISZERO ISZERO DUP2 MSTORE POP SWAP1 JUMP JUMPDEST PUSH0 DUP2 SWAP1 POP SWAP2 SWAP1 POP JUMP JUMPDEST PUSH2 0x4405 DUP2 PUSH2 0x43F3 JUMP JUMPDEST DUP3 MSTORE POP POP JUMP JUMPDEST PUSH0 PUSH1 0x20 DUP3 ADD SWAP1 POP PUSH2 0x441E PUSH0 DUP4 ADD DUP5 PUSH2 0x43FC JUMP JUMPDEST SWAP3 SWAP2 POP POP JUMP JUMPDEST PUSH0 PUSH1 0x40 MLOAD SWAP1 POP SWAP1 JUMP JUMPDEST PUSH0 DUP1 REVERT JUMPDEST PUSH0 DUP1 REVERT JUMPDEST PUSH0 PUSH1 0xE0 DUP3 DUP5 SUB SLT ISZERO PUSH2 0x444A JUMPI PUSH2 0x4449 PUSH2 0x4431 JUMP JUMPDEST JUMPDEST DUP2 SWAP1 POP SWAP3 SWAP2 POP POP JUMP JUMPDEST PUSH0 PUSH1 0xE0 DUP3 DUP5 SUB SLT ISZERO PUSH2 0x4468 JUMPI PUSH2 0x4467 PUSH2 0x442D JUMP JUMPDEST JUMPDEST PUSH0 PUSH2 0x4475 DUP5 DUP3 DUP6 ADD PUSH2 0x4435 JUMP JUMPDEST SWAP2 POP POP SWAP3 SWAP2 POP POP JUMP JUMPDEST PUSH0 DUP2 ISZERO ISZERO SWAP1 POP SWAP2 SWAP1 POP JUMP JUMPDEST PUSH2 0x4492 DUP2 PUSH2 0x447E JUMP JUMPDEST DUP3 MSTORE POP POP JUMP JUMPDEST PUSH0 PUSH1 0x20 DUP3 ADD SWAP1 POP PUSH2 0x44AB PUSH0 DUP4 ADD DUP5 PUSH2 0x4489 JUMP JUMPDEST SWAP3 SWAP2 POP POP JUMP JUMPDEST PUSH0 PUSH21 0xFFFFFFFFFFFFFFFFFFFFFFFFFFFFFFFFFFFFFFFFFF DUP3 AND SWAP1 POP SWAP2 SWAP1 POP JUMP JUMPDEST PUSH2 0x44DA DUP2 PUSH2 0x44B1 JUMP JUMPDEST DUP2 EQ PUSH2 0x44E4 JUMPI PUSH0 DUP1 REVERT JUMPDEST POP JUMP JUMPDEST PUSH0 PUSH20 0xFFFFFFFFFFFFFFFFFFFFFFFFFFFFFFFFFFFFFFFF DUP3 AND SWAP1 POP SWAP2 SWAP1 POP JUMP JUMPDEST PUSH0 PUSH2 0x4510 DUP3 PUSH2 0x44E7 JUMP JUMPDEST SWAP1 POP SWAP2 SWAP1 POP JUMP JUMPDEST PUSH0 DUP2 CALLDATALOAD SWAP1 POP PUSH2 0x4525 DUP2 PUSH2 0x44D1 JUMP JUMPDEST PUSH2 0x452E DUP2 PUSH2 0x4506 JUMP JUMPDEST SWAP1 POP SWAP3 SWAP2 POP POP JUMP JUMPDEST PUSH0 PUSH1 0x20 DUP3 DUP5 SUB SLT ISZERO PUSH2 0x454B JUMPI PUSH2 0x454A PUSH2 0x442D JUMP JUMPDEST JUMPDEST PUSH0 PUSH2 0x4558 DUP5 DUP3 DUP6 ADD PUSH2 0x4517 JUMP JUMPDEST SWAP2 POP POP SWAP3 SWAP2 POP POP JUMP JUMPDEST PUSH2 0x456A DUP2 PUSH2 0x44B1 JUMP JUMPDEST DUP2 EQ PUSH2 0x4574 JUMPI PUSH0 DUP1 REVERT JUMPDEST POP JUMP JUMPDEST PUSH0 PUSH2 0x4581 DUP3 PUSH2 0x44E7 JUMP JUMPDEST SWAP1 POP SWAP2 SWAP1 POP JUMP JUMPDEST PUSH0 DUP2 CALLDATALOAD SWAP1 POP PUSH2 0x4596 DUP2 PUSH2 0x4561 JUMP JUMPDEST PUSH2 0x459F DUP2 PUSH2 0x4577 JUMP JUMPDEST SWAP1 POP SWAP3 SWAP2 POP POP JUMP JUMPDEST PUSH0 PUSH1 0x20 DUP3 DUP5 SUB SLT ISZERO PUSH2 0x45BC JUMPI PUSH2 0x45BB PUSH2 0x442D JUMP JUMPDEST JUMPDEST PUSH0 PUSH2 0x45C9 DUP5 DUP3 DUP6 ADD PUSH2 0x4588 JUMP JUMPDEST SWAP2 POP POP SWAP3 SWAP2 POP POP JUMP JUMPDEST PUSH32 0x4E487B7100000000000000000000000000000000000000000000000000000000 PUSH0 MSTORE PUSH1 0x21 PUSH1 0x4 MSTORE PUSH1 0x24 PUSH0 REVERT JUMPDEST PUSH1 0x2 DUP2 LT PUSH2 0x4610 JUMPI PUSH2 0x460F PUSH2 0x45D2 JUMP JUMPDEST JUMPDEST POP JUMP JUMPDEST PUSH0 DUP2 SWAP1 POP PUSH2 0x4620 DUP3 PUSH2 0x45FF JUMP JUMPDEST SWAP2 SWAP1 POP JUMP JUMPDEST PUSH0 PUSH2 0x462F DUP3 PUSH2 0x4613 JUMP JUMPDEST SWAP1 POP SWAP2 SWAP1 POP JUMP JUMPDEST PUSH2 0x463F DUP2 PUSH2 0x4625 JUMP JUMPDEST DUP3 MSTORE POP POP JUMP JUMPDEST PUSH2 0x464E DUP2 PUSH2 0x447E JUMP JUMPDEST DUP3 MSTORE POP POP JUMP JUMPDEST PUSH1 0x60 DUP3 ADD PUSH0 DUP3 ADD MLOAD PUSH2 0x4668 PUSH0 DUP6 ADD DUP3 PUSH2 0x4636 JUMP JUMPDEST POP PUSH1 0x20 DUP3 ADD MLOAD PUSH2 0x467B PUSH1 0x20 DUP6 ADD DUP3 PUSH2 0x4645 JUMP JUMPDEST POP PUSH1 0x40 DUP3 ADD MLOAD PUSH2 0x468E PUSH1 0x40 DUP6 ADD DUP3 PUSH2 0x4645 JUMP JUMPDEST POP POP POP POP JUMP JUMPDEST PUSH0 PUSH1 0x60 DUP3 ADD SWAP1 POP PUSH2 0x46A7 PUSH0 DUP4 ADD DUP5 PUSH2 0x4654 JUMP JUMPDEST SWAP3 SWAP2 POP POP JUMP JUMPDEST PUSH0 PUSH1 0x20 DUP3 DUP5 SUB SLT ISZERO PUSH2 0x46C2 JUMPI PUSH2 0x46C1 PUSH2 0x4431 JUMP JUMPDEST JUMPDEST DUP2 SWAP1 POP SWAP3 SWAP2 POP POP JUMP JUMPDEST PUSH0 PUSH1 0x20 DUP3 DUP5 SUB SLT ISZERO PUSH2 0x46E0 JUMPI PUSH2 0x46DF PUSH2 0x442D JUMP JUMPDEST JUMPDEST PUSH0 PUSH2 0x46ED DUP5 DUP3 DUP6 ADD PUSH2 0x46AD JUMP JUMPDEST SWAP2 POP POP SWAP3 SWAP2 POP POP JUMP JUMPDEST PUSH2 0x46FF DUP2 PUSH2 0x43F3 JUMP JUMPDEST DUP3 MSTORE POP POP JUMP JUMPDEST PUSH2 0x470E DUP2 PUSH2 0x4506 JUMP JUMPDEST DUP3 MSTORE POP POP JUMP JUMPDEST PUSH1 0xC0 DUP3 ADD PUSH0 DUP3 ADD MLOAD PUSH2 0x4728 PUSH0 DUP6 ADD DUP3 PUSH2 0x46F6 JUMP JUMPDEST POP PUSH1 0x20 DUP3 ADD MLOAD PUSH2 0x473B PUSH1 0x20 DUP6 ADD DUP3 PUSH2 0x46F6 JUMP JUMPDEST POP PUSH1 0x40 DUP3 ADD MLOAD PUSH2 0x474E PUSH1 0x40 DUP6 ADD DUP3 PUSH2 0x4705 JUMP JUMPDEST POP PUSH1 0x60 DUP3 ADD MLOAD PUSH2 0x4761 PUSH1 0x60 DUP6 ADD DUP3 PUSH2 0x46F6 JUMP JUMPDEST POP PUSH1 0x80 DUP3 ADD MLOAD PUSH2 0x4774 PUSH1 0x80 DUP6 ADD DUP3 PUSH2 0x4645 JUMP JUMPDEST POP PUSH1 0xA0 DUP3 ADD MLOAD PUSH2 0x4787 PUSH1 0xA0 DUP6 ADD DUP3 PUSH2 0x4705 JUMP JUMPDEST POP POP POP POP JUMP JUMPDEST PUSH0 PUSH1 0xC0 DUP3 ADD SWAP1 POP PUSH2 0x47A0 PUSH0 DUP4 ADD DUP5 PUSH2 0x4714 JUMP JUMPDEST SWAP3 SWAP2 POP POP JUMP JUMPDEST PUSH2 0x47AF DUP2 PUSH2 0x43F3 JUMP JUMPDEST DUP2 EQ PUSH2 0x47B9 JUMPI PUSH0 DUP1 REVERT JUMPDEST POP JUMP JUMPDEST PUSH0 DUP2 CALLDATALOAD SWAP1 POP PUSH2 0x47CA DUP2 PUSH2 0x47A6 JUMP JUMPDEST SWAP3 SWAP2 POP POP JUMP JUMPDEST PUSH0 PUSH1 0x20 DUP3 DUP5 SUB SLT ISZERO PUSH2 0x47E5 JUMPI PUSH2 0x47E4 PUSH2 0x442D JUMP JUMPDEST JUMPDEST PUSH0 PUSH2 0x47F2 DUP5 DUP3 DUP6 ADD PUSH2 0x47BC JUMP JUMPDEST SWAP2 POP POP SWAP3 SWAP2 POP POP JUMP JUMPDEST PUSH2 0x4804 DUP2 PUSH2 0x4506 JUMP JUMPDEST DUP3 MSTORE POP POP JUMP JUMPDEST PUSH0 PUSH1 0x20 DUP3 ADD SWAP1 POP PUSH2 0x481D PUSH0 DUP4 ADD DUP5 PUSH2 0x47FB JUMP JUMPDEST SWAP3 SWAP2 POP POP JUMP JUMPDEST PUSH1 0x2 DUP2 LT PUSH2 0x4834 JUMPI PUSH2 0x4833 PUSH2 0x45D2 JUMP JUMPDEST JUMPDEST POP JUMP JUMPDEST PUSH0 DUP2 SWAP1 POP PUSH2 0x4844 DUP3 PUSH2 0x4823 JUMP JUMPDEST SWAP2 SWAP1 POP JUMP JUMPDEST PUSH0 PUSH2 0x4853 DUP3 PUSH2 0x4837 JUMP JUMPDEST SWAP1 POP SWAP2 SWAP1 POP JUMP JUMPDEST PUSH2 0x4863 DUP2 PUSH2 0x4849 JUMP JUMPDEST DUP3 MSTORE POP POP JUMP JUMPDEST PUSH1 0x60 DUP3 ADD PUSH0 DUP3 ADD MLOAD PUSH2 0x487D PUSH0 DUP6 ADD DUP3 PUSH2 0x485A JUMP JUMPDEST POP PUSH1 0x20 DUP3 ADD MLOAD PUSH2 0x4890 PUSH1 0x20 DUP6 ADD DUP3 PUSH2 0x4645 JUMP JUMPDEST POP PUSH1 0x40 DUP3 ADD MLOAD PUSH2 0x48A3 PUSH1 0x40 DUP6 ADD DUP3 PUSH2 0x4705 JUMP JUMPDEST POP POP POP POP JUMP JUMPDEST PUSH0 PUSH1 0x60 DUP3 ADD SWAP1 POP PUSH2 0x48BC PUSH0 DUP4 ADD DUP5 PUSH2 0x4869 JUMP JUMPDEST SWAP3 SWAP2 POP POP JUMP JUMPDEST PUSH0 DUP2 MLOAD SWAP1 POP SWAP2 SWAP1 POP JUMP JUMPDEST PUSH0 DUP3 DUP3 MSTORE PUSH1 0x20 DUP3 ADD SWAP1 POP SWAP3 SWAP2 POP POP JUMP JUMPDEST PUSH0 JUMPDEST DUP4 DUP2 LT ISZERO PUSH2 0x48F9 JUMPI DUP1 DUP3 ADD MLOAD DUP2 DUP5 ADD MSTORE PUSH1 0x20 DUP2 ADD SWAP1 POP PUSH2 0x48DE JUMP JUMPDEST PUSH0 DUP5 DUP5 ADD MSTORE POP POP POP POP JUMP JUMPDEST PUSH0 PUSH1 0x1F NOT PUSH1 0x1F DUP4 ADD AND SWAP1 POP SWAP2 SWAP1 POP JUMP JUMPDEST PUSH0 PUSH2 0x491E DUP3 PUSH2 0x48C2 JUMP JUMPDEST PUSH2 0x4928 DUP2 DUP6 PUSH2 0x48CC JUMP JUMPDEST SWAP4 POP PUSH2 0x4938 DUP2 DUP6 PUSH1 0x20 DUP7 ADD PUSH2 0x48DC JUMP JUMPDEST PUSH2 0x4941 DUP2 PUSH2 0x4904 JUMP JUMPDEST DUP5 ADD SWAP2 POP POP SWAP3 SWAP2 POP POP JUMP JUMPDEST PUSH0 PUSH1 0x40 DUP3 ADD SWAP1 POP PUSH2 0x495F PUSH0 DUP4 ADD DUP6 PUSH2 0x43FC JUMP JUMPDEST DUP2 DUP2 SUB PUSH1 0x20 DUP4 ADD MSTORE PUSH2 0x4971 DUP2 DUP5 PUSH2 0x4914 JUMP JUMPDEST SWAP1 POP SWAP4 SWAP3 POP POP POP JUMP JUMPDEST PUSH0 DUP1 REVERT JUMPDEST PUSH32 0x4E487B7100000000000000000000000000000000000000000000000000000000 PUSH0 MSTORE PUSH1 0x41 PUSH1 0x4 MSTORE PUSH1 0x24 PUSH0 REVERT JUMPDEST PUSH2 0x49B4 DUP3 PUSH2 0x4904 JUMP JUMPDEST DUP2 ADD DUP2 DUP2 LT PUSH8 0xFFFFFFFFFFFFFFFF DUP3 GT OR ISZERO PUSH2 0x49D3 JUMPI PUSH2 0x49D2 PUSH2 0x497E JUMP JUMPDEST JUMPDEST DUP1 PUSH1 0x40 MSTORE POP POP POP JUMP JUMPDEST PUSH0 PUSH2 0x49E5 PUSH2 0x4424 JUMP JUMPDEST SWAP1 POP PUSH2 0x49F1 DUP3 DUP3 PUSH2 0x49AB JUMP JUMPDEST SWAP2 SWAP1 POP JUMP JUMPDEST PUSH1 0x5 DUP2 LT PUSH2 0x4A02 JUMPI PUSH0 DUP1 REVERT JUMPDEST POP JUMP JUMPDEST PUSH0 DUP2 CALLDATALOAD SWAP1 POP PUSH2 0x4A13 DUP2 PUSH2 0x49F6 JUMP JUMPDEST SWAP3 SWAP2 POP POP JUMP JUMPDEST PUSH0 PUSH1 0x20 DUP3 DUP5 SUB SLT ISZERO PUSH2 0x4A2E JUMPI PUSH2 0x4A2D PUSH2 0x497A JUMP JUMPDEST JUMPDEST PUSH2 0x4A38 PUSH1 0x20 PUSH2 0x49DC JUMP JUMPDEST SWAP1 POP PUSH0 PUSH2 0x4A47 DUP5 DUP3 DUP6 ADD PUSH2 0x47BC JUMP JUMPDEST PUSH0 DUP4 ADD MSTORE POP SWAP3 SWAP2 POP POP JUMP JUMPDEST PUSH2 0x4A5B DUP2 PUSH2 0x447E JUMP JUMPDEST DUP2 EQ PUSH2 0x4A65 JUMPI PUSH0 DUP1 REVERT JUMPDEST POP JUMP JUMPDEST PUSH0 DUP2 CALLDATALOAD SWAP1 POP PUSH2 0x4A76 DUP2 PUSH2 0x4A52 JUMP JUMPDEST SWAP3 SWAP2 POP POP JUMP JUMPDEST PUSH0 PUSH1 0x20 DUP3 DUP5 SUB SLT ISZERO PUSH2 0x4A91 JUMPI PUSH2 0x4A90 PUSH2 0x497A JUMP JUMPDEST JUMPDEST PUSH2 0x4A9B PUSH1 0x20 PUSH2 0x49DC JUMP JUMPDEST SWAP1 POP PUSH0 PUSH2 0x4AAA DUP5 DUP3 DUP6 ADD PUSH2 0x4517 JUMP JUMPDEST PUSH0 DUP4 ADD MSTORE POP SWAP3 SWAP2 POP POP JUMP JUMPDEST PUSH0 PUSH1 0xC0 DUP3 DUP5 SUB SLT ISZERO PUSH2 0x4ACA JUMPI PUSH2 0x4AC9 PUSH2 0x497A JUMP JUMPDEST JUMPDEST PUSH2 0x4AD4 PUSH1 0xC0 PUSH2 0x49DC JUMP JUMPDEST SWAP1 POP PUSH0 PUSH2 0x4AE3 DUP5 DUP3 DUP6 ADD PUSH2 0x4A05 JUMP JUMPDEST PUSH0 DUP4 ADD MSTORE POP PUSH1 0x20 PUSH2 0x4AF6 DUP5 DUP3 DUP6 ADD PUSH2 0x4A19 JUMP JUMPDEST PUSH1 0x20 DUP4 ADD MSTORE POP PUSH1 0x40 PUSH2 0x4B0A DUP5 DUP3 DUP6 ADD PUSH2 0x4A68 JUMP JUMPDEST PUSH1 0x40 DUP4 ADD MSTORE POP PUSH1 0x60 PUSH2 0x4B1E DUP5 DUP3 DUP6 ADD PUSH2 0x4A68 JUMP JUMPDEST PUSH1 0x60 DUP4 ADD MSTORE POP PUSH1 0x80 PUSH2 0x4B32 DUP5 DUP3 DUP6 ADD PUSH2 0x4A7C JUMP JUMPDEST PUSH1 0x80 DUP4 ADD MSTORE POP PUSH1 0xA0 PUSH2 0x4B46 DUP5 DUP3 DUP6 ADD PUSH2 0x4A68 JUMP JUMPDEST PUSH1 0xA0 DUP4 ADD MSTORE POP SWAP3 SWAP2 POP POP JUMP JUMPDEST PUSH0 PUSH1 0xE0 DUP3 DUP5 SUB SLT ISZERO PUSH2 0x4B67 JUMPI PUSH2 0x4B66 PUSH2 0x497A JUMP JUMPDEST JUMPDEST PUSH2 0x4B71 PUSH1 0x40 PUSH2 0x49DC JUMP JUMPDEST SWAP1 POP PUSH0 PUSH2 0x4B80 DUP5 DUP3 DUP6 ADD PUSH2 0x47BC JUMP JUMPDEST PUSH0 DUP4 ADD MSTORE POP PUSH1 0x20 PUSH2 0x4B93 DUP5 DUP3 DUP6 ADD PUSH2 0x4AB5 JUMP JUMPDEST PUSH1 0x20 DUP4 ADD MSTORE POP SWAP3 SWAP2 POP POP JUMP JUMPDEST PUSH0 PUSH1 0xE0 DUP3 DUP5 SUB SLT ISZERO PUSH2 0x4BB4 JUMPI PUSH2 0x4BB3 PUSH2 0x442D JUMP JUMPDEST JUMPDEST PUSH0 PUSH2 0x4BC1 DUP5 DUP3 DUP6 ADD PUSH2 0x4B52 JUMP JUMPDEST SWAP2 POP POP SWAP3 SWAP2 POP POP JUMP JUMPDEST PUSH0 PUSH1 0x20 DUP3 DUP5 SUB SLT ISZERO PUSH2 0x4BDF JUMPI PUSH2 0x4BDE PUSH2 0x442D JUMP JUMPDEST JUMPDEST PUSH0 PUSH2 0x4BEC DUP5 DUP3 DUP6 ADD PUSH2 0x4A19 JUMP JUMPDEST SWAP2 POP POP SWAP3 SWAP2 POP POP JUMP JUMPDEST PUSH32 0x4E487B7100000000000000000000000000000000000000000000000000000000 PUSH0 MSTORE PUSH1 0x22 PUSH1 0x4 MSTORE PUSH1 0x24 PUSH0 REVERT JUMPDEST PUSH0 PUSH1 0x2 DUP3 DIV SWAP1 POP PUSH1 0x1 DUP3 AND DUP1 PUSH2 0x4C39 JUMPI PUSH1 0x7F DUP3 AND SWAP2 POP JUMPDEST PUSH1 0x20 DUP3 LT DUP2 SUB PUSH2 0x4C4C JUMPI PUSH2 0x4C4B PUSH2 0x4BF5 JUMP JUMPDEST JUMPDEST POP SWAP2 SWAP1 POP JUMP JUMPDEST PUSH0 DUP2 MLOAD SWAP1 POP PUSH2 0x4C60 DUP2 PUSH2 0x44D1 JUMP JUMPDEST PUSH2 0x4C69 DUP2 PUSH2 0x4506 JUMP JUMPDEST SWAP1 POP SWAP3 SWAP2 POP POP JUMP JUMPDEST PUSH0 DUP2 MLOAD SWAP1 POP PUSH2 0x4C7F DUP2 PUSH2 0x4A52 JUMP JUMPDEST SWAP3 SWAP2 POP POP JUMP JUMPDEST PUSH0 DUP2 MLOAD SWAP1 POP PUSH2 0x4C93 DUP2 PUSH2 0x47A6 JUMP JUMPDEST SWAP3 SWAP2 POP POP JUMP JUMPDEST PUSH1 0x2 DUP2 LT PUSH2 0x4CA5 JUMPI PUSH0 DUP1 REVERT JUMPDEST POP JUMP JUMPDEST PUSH0 DUP2 MLOAD SWAP1 POP PUSH2 0x4CB6 DUP2 PUSH2 0x4C99 JUMP JUMPDEST SWAP3 SWAP2 POP POP JUMP JUMPDEST PUSH0 PUSH1 0x60 DUP3 DUP5 SUB SLT ISZERO PUSH2 0x4CD1 JUMPI PUSH2 0x4CD0 PUSH2 0x497A JUMP JUMPDEST JUMPDEST PUSH2 0x4CDB PUSH1 0x60 PUSH2 0x49DC JUMP JUMPDEST SWAP1 POP PUSH0 PUSH2 0x4CEA DUP5 DUP3 DUP6 ADD PUSH2 0x4CA8 JUMP JUMPDEST PUSH0 DUP4 ADD MSTORE POP PUSH1 0x20 PUSH2 0x4CFD DUP5 DUP3 DUP6 ADD PUSH2 0x4C71 JUMP JUMPDEST PUSH1 0x20 DUP4 ADD MSTORE POP PUSH1 0x40 PUSH2 0x4D11 DUP5 DUP3 DUP6 ADD PUSH2 0x4C52 JUMP JUMPDEST PUSH1 0x40 DUP4 ADD MSTORE POP SWAP3 SWAP2 POP POP JUMP JUMPDEST PUSH0 PUSH2 0x160 DUP3 DUP5 SUB SLT ISZERO PUSH2 0x4D33 JUMPI PUSH2 0x4D32 PUSH2 0x497A JUMP JUMPDEST JUMPDEST PUSH2 0x4D3E PUSH2 0x120 PUSH2 0x49DC JUMP JUMPDEST SWAP1 POP PUSH0 PUSH2 0x4D4D DUP5 DUP3 DUP6 ADD PUSH2 0x4C71 JUMP JUMPDEST PUSH0 DUP4 ADD MSTORE POP PUSH1 0x20 PUSH2 0x4D60 DUP5 DUP3 DUP6 ADD PUSH2 0x4C85 JUMP JUMPDEST PUSH1 0x20 DUP4 ADD MSTORE POP PUSH1 0x40 PUSH2 0x4D74 DUP5 DUP3 DUP6 ADD PUSH2 0x4C85 JUMP JUMPDEST PUSH1 0x40 DUP4 ADD MSTORE POP PUSH1 0x60 PUSH2 0x4D88 DUP5 DUP3 DUP6 ADD PUSH2 0x4C71 JUMP JUMPDEST PUSH1 0x60 DUP4 ADD MSTORE POP PUSH1 0x80 PUSH2 0x4D9C DUP5 DUP3 DUP6 ADD PUSH2 0x4C85 JUMP JUMPDEST PUSH1 0x80 DUP4 ADD MSTORE POP PUSH1 0xA0 PUSH2 0x4DB0 DUP5 DUP3 DUP6 ADD PUSH2 0x4C71 JUMP JUMPDEST PUSH1 0xA0 DUP4 ADD MSTORE POP PUSH1 0xC0 PUSH2 0x4DC4 DUP5 DUP3 DUP6 ADD PUSH2 0x4C85 JUMP JUMPDEST PUSH1 0xC0 DUP4 ADD MSTORE POP PUSH1 0xE0 PUSH2 0x4DD8 DUP5 DUP3 DUP6 ADD PUSH2 0x4C85 JUMP JUMPDEST PUSH1 0xE0 DUP4 ADD MSTORE POP PUSH2 0x100 PUSH2 0x4DED DUP5 DUP3 DUP6 ADD PUSH2 0x4CBC JUMP JUMPDEST PUSH2 0x100 DUP4 ADD MSTORE POP SWAP3 SWAP2 POP POP JUMP JUMPDEST PUSH0 DUP1 REVERT JUMPDEST PUSH0 PUSH8 0xFFFFFFFFFFFFFFFF DUP3 GT ISZERO PUSH2 0x4E18 JUMPI PUSH2 0x4E17 PUSH2 0x497E JUMP JUMPDEST JUMPDEST PUSH1 0x20 DUP3 MUL SWAP1 POP SWAP2 SWAP1 POP JUMP JUMPDEST PUSH0 DUP1 REVERT JUMPDEST PUSH0 PUSH1 0x60 DUP3 DUP5 SUB SLT ISZERO PUSH2 0x4E3C JUMPI PUSH2 0x4E3B PUSH2 0x497A JUMP JUMPDEST JUMPDEST PUSH2 0x4E46 PUSH1 0x60 PUSH2 0x49DC JUMP JUMPDEST SWAP1 POP PUSH0 PUSH2 0x4E55 DUP5 DUP3 DUP6 ADD PUSH2 0x4C85 JUMP JUMPDEST PUSH0 DUP4 ADD MSTORE POP PUSH1 0x20 PUSH2 0x4E68 DUP5 DUP3 DUP6 ADD PUSH2 0x4C85 JUMP JUMPDEST PUSH1 0x20 DUP4 ADD MSTORE POP PUSH1 0x40 PUSH2 0x4E7C DUP5 DUP3 DUP6 ADD PUSH2 0x4C71 JUMP JUMPDEST PUSH1 0x40 DUP4 ADD MSTORE POP SWAP3 SWAP2 POP POP JUMP JUMPDEST PUSH0 PUSH2 0x4E9A PUSH2 0x4E95 DUP5 PUSH2 0x4DFE JUMP JUMPDEST PUSH2 0x49DC JUMP JUMPDEST SWAP1 POP DUP1 PUSH1 0x60 DUP5 MUL DUP4 ADD DUP6 DUP2 GT ISZERO PUSH2 0x4EB4 JUMPI PUSH2 0x4EB3 PUSH2 0x4E23 JUMP JUMPDEST JUMPDEST DUP4 JUMPDEST DUP2 DUP2 LT ISZERO PUSH2 0x4EDD JUMPI DUP1 PUSH2 0x4EC9 DUP9 DUP3 PUSH2 0x4E27 JUMP JUMPDEST DUP5 MSTORE PUSH1 0x20 DUP5 ADD SWAP4 POP POP PUSH1 0x60 DUP2 ADD SWAP1 POP PUSH2 0x4EB6 JUMP JUMPDEST POP POP POP SWAP4 SWAP3 POP POP POP JUMP JUMPDEST PUSH0 DUP3 PUSH1 0x1F DUP4 ADD SLT PUSH2 0x4EFB JUMPI PUSH2 0x4EFA PUSH2 0x4DFA JUMP JUMPDEST JUMPDEST PUSH1 0x1 PUSH2 0x4F08 DUP5 DUP3 DUP6 PUSH2 0x4E88 JUMP JUMPDEST SWAP2 POP POP SWAP3 SWAP2 POP POP JUMP JUMPDEST PUSH0 PUSH2 0x3A0 DUP3 DUP5 SUB SLT ISZERO PUSH2 0x4F27 JUMPI PUSH2 0x4F26 PUSH2 0x497A JUMP JUMPDEST JUMPDEST PUSH2 0x4F32 PUSH2 0x220 PUSH2 0x49DC JUMP JUMPDEST SWAP1 POP PUSH0 PUSH2 0x4F41 DUP5 DUP3 DUP6 ADD PUSH2 0x4C52 JUMP JUMPDEST PUSH0 DUP4 ADD MSTORE POP PUSH1 0x20 PUSH2 0x4F54 DUP5 DUP3 DUP6 ADD PUSH2 0x4C71 JUMP JUMPDEST PUSH1 0x20 DUP4 ADD MSTORE POP PUSH1 0x40 PUSH2 0x4F68 DUP5 DUP3 DUP6 ADD PUSH2 0x4C85 JUMP JUMPDEST PUSH1 0x40 DUP4 ADD MSTORE POP PUSH1 0x60 PUSH2 0x4F7C DUP5 DUP3 DUP6 ADD PUSH2 0x4C85 JUMP JUMPDEST PUSH1 0x60 DUP4 ADD MSTORE POP PUSH1 0x80 PUSH2 0x4F90 DUP5 DUP3 DUP6 ADD PUSH2 0x4C85 JUMP JUMPDEST PUSH1 0x80 DUP4 ADD MSTORE POP PUSH1 0xA0 PUSH2 0x4FA4 DUP5 DUP3 DUP6 ADD PUSH2 0x4C52 JUMP JUMPDEST PUSH1 0xA0 DUP4 ADD MSTORE POP PUSH1 0xC0 PUSH2 0x4FB8 DUP5 DUP3 DUP6 ADD PUSH2 0x4C85 JUMP JUMPDEST PUSH1 0xC0 DUP4 ADD MSTORE POP PUSH1 0xE0 PUSH2 0x4FCC DUP5 DUP3 DUP6 ADD PUSH2 0x4C52 JUMP JUMPDEST PUSH1 0xE0 DUP4 ADD MSTORE POP PUSH2 0x100 PUSH2 0x4FE1 DUP5 DUP3 DUP6 ADD PUSH2 0x4C52 JUMP JUMPDEST PUSH2 0x100 DUP4 ADD MSTORE POP PUSH2 0x120 PUSH2 0x4FF7 DUP5 DUP3 DUP6 ADD PUSH2 0x4C85 JUMP JUMPDEST PUSH2 0x120 DUP4 ADD MSTORE POP PUSH2 0x140 PUSH2 0x500D DUP5 DUP3 DUP6 ADD PUSH2 0x4D1D JUMP JUMPDEST PUSH2 0x140 DUP4 ADD MSTORE POP PUSH2 0x2A0 PUSH2 0x5023 DUP5 DUP3 DUP6 ADD PUSH2 0x4C85 JUMP JUMPDEST PUSH2 0x160 DUP4 ADD MSTORE POP PUSH2 0x2C0 PUSH2 0x5039 DUP5 DUP3 DUP6 ADD PUSH2 0x4EE7 JUMP JUMPDEST PUSH2 0x180 DUP4 ADD MSTORE POP PUSH2 0x320 PUSH2 0x504F DUP5 DUP3 DUP6 ADD PUSH2 0x4C85 JUMP JUMPDEST PUSH2 0x1A0 DUP4 ADD MSTORE POP PUSH2 0x340 PUSH2 0x5065 DUP5 DUP3 DUP6 ADD PUSH2 0x4C71 JUMP JUMPDEST PUSH2 0x1C0 DUP4 ADD MSTORE POP PUSH2 0x360 PUSH2 0x507B DUP5 DUP3 DUP6 ADD PUSH2 0x4C85 JUMP JUMPDEST PUSH2 0x1E0 DUP4 ADD MSTORE POP PUSH2 0x380 PUSH2 0x5091 DUP5 DUP3 DUP6 ADD PUSH2 0x4C85 JUMP JUMPDEST PUSH2 0x200 DUP4 ADD MSTORE POP SWAP3 SWAP2 POP POP JUMP JUMPDEST PUSH0 PUSH2 0x3A0 DUP3 DUP5 SUB SLT ISZERO PUSH2 0x50B4 JUMPI PUSH2 0x50B3 PUSH2 0x442D JUMP JUMPDEST JUMPDEST PUSH0 PUSH2 0x50C1 DUP5 DUP3 DUP6 ADD PUSH2 0x4F11 JUMP JUMPDEST SWAP2 POP POP SWAP3 SWAP2 POP POP JUMP JUMPDEST PUSH2 0x50D3 DUP2 PUSH2 0x4577 JUMP JUMPDEST DUP3 MSTORE POP POP JUMP JUMPDEST PUSH1 0x5 DUP2 LT PUSH2 0x50EA JUMPI PUSH2 0x50E9 PUSH2 0x45D2 JUMP JUMPDEST JUMPDEST POP JUMP JUMPDEST PUSH0 DUP2 SWAP1 POP PUSH2 0x50FA DUP3 PUSH2 0x50D9 JUMP JUMPDEST SWAP2 SWAP1 POP JUMP JUMPDEST PUSH0 PUSH2 0x5109 DUP3 PUSH2 0x50ED JUMP JUMPDEST SWAP1 POP SWAP2 SWAP1 POP JUMP JUMPDEST PUSH2 0x5119 DUP2 PUSH2 0x50FF JUMP JUMPDEST DUP3 MSTORE POP POP JUMP JUMPDEST PUSH1 0x20 DUP3 ADD PUSH0 DUP3 ADD MLOAD PUSH2 0x5133 PUSH0 DUP6 ADD DUP3 PUSH2 0x46F6 JUMP JUMPDEST POP POP POP POP JUMP JUMPDEST PUSH1 0x20 DUP3 ADD PUSH0 DUP3 ADD MLOAD PUSH2 0x514D PUSH0 DUP6 ADD DUP3 PUSH2 0x4705 JUMP JUMPDEST POP POP POP POP JUMP JUMPDEST PUSH1 0xC0 DUP3 ADD PUSH0 DUP3 ADD MLOAD PUSH2 0x5167 PUSH0 DUP6 ADD DUP3 PUSH2 0x5110 JUMP JUMPDEST POP PUSH1 0x20 DUP3 ADD MLOAD PUSH2 0x517A PUSH1 0x20 DUP6 ADD DUP3 PUSH2 0x511F JUMP JUMPDEST POP PUSH1 0x40 DUP3 ADD MLOAD PUSH2 0x518D PUSH1 0x40 DUP6 ADD DUP3 PUSH2 0x4645 JUMP JUMPDEST POP PUSH1 0x60 DUP3 ADD MLOAD PUSH2 0x51A0 PUSH1 0x60 DUP6 ADD DUP3 PUSH2 0x4645 JUMP JUMPDEST POP PUSH1 0x80 DUP3 ADD MLOAD PUSH2 0x51B3 PUSH1 0x80 DUP6 ADD DUP3 PUSH2 0x5139 JUMP JUMPDEST POP PUSH1 0xA0 DUP3 ADD MLOAD PUSH2 0x51C6 PUSH1 0xA0 DUP6 ADD DUP3 PUSH2 0x4645 JUMP JUMPDEST POP POP POP POP JUMP JUMPDEST PUSH1 0xE0 DUP3 ADD PUSH0 DUP3 ADD MLOAD PUSH2 0x51E0 PUSH0 DUP6 ADD DUP3 PUSH2 0x46F6 JUMP JUMPDEST POP PUSH1 0x20 DUP3 ADD MLOAD PUSH2 0x51F3 PUSH1 0x20 DUP6 ADD DUP3 PUSH2 0x5153 JUMP JUMPDEST POP POP POP POP JUMP JUMPDEST PUSH0 PUSH2 0x100 DUP3 ADD SWAP1 POP PUSH2 0x520D PUSH0 DUP4 ADD DUP6 PUSH2 0x50CA JUMP JUMPDEST PUSH2 0x521A PUSH1 0x20 DUP4 ADD DUP5 PUSH2 0x51CC JUMP JUMPDEST SWAP4 SWAP3 POP POP POP JUMP JUMPDEST PUSH1 0x40 DUP3 ADD PUSH0 DUP3 ADD MLOAD PUSH2 0x5235 PUSH0 DUP6 ADD DUP3 PUSH2 0x4705 JUMP JUMPDEST POP PUSH1 0x20 DUP3 ADD MLOAD PUSH2 0x5248 PUSH1 0x20 DUP6 ADD DUP3 PUSH2 0x46F6 JUMP JUMPDEST POP POP POP POP JUMP JUMPDEST PUSH0 PUSH1 0x40 DUP3 ADD SWAP1 POP PUSH2 0x5261 PUSH0 DUP4 ADD DUP5 PUSH2 0x5221 JUMP JUMPDEST SWAP3 SWAP2 POP POP JUMP JUMPDEST PUSH32 0x4E487B7100000000000000000000000000000000000000000000000000000000 PUSH0 MSTORE PUSH1 0x32 PUSH1 0x4 MSTORE PUSH1 0x24 PUSH0 REVERT JUMPDEST PUSH0 PUSH2 0x1A0 DUP3 DUP5 SUB SLT ISZERO PUSH2 0x52AA JUMPI PUSH2 0x52A9 PUSH2 0x497A JUMP JUMPDEST JUMPDEST PUSH2 0x52B5 PUSH2 0x160 PUSH2 0x49DC JUMP JUMPDEST SWAP1 POP PUSH0 PUSH2 0x52C4 DUP5 DUP3 DUP6 ADD PUSH2 0x4C52 JUMP JUMPDEST PUSH0 DUP4 ADD MSTORE POP PUSH1 0x20 PUSH2 0x52D7 DUP5 DUP3 DUP6 ADD PUSH2 0x4C71 JUMP JUMPDEST PUSH1 0x20 DUP4 ADD MSTORE POP PUSH1 0x40 PUSH2 0x52EB DUP5 DUP3 DUP6 ADD PUSH2 0x4C85 JUMP JUMPDEST PUSH1 0x40 DUP4 ADD MSTORE POP PUSH1 0x60 PUSH2 0x52FF DUP5 DUP3 DUP6 ADD PUSH2 0x4C85 JUMP JUMPDEST PUSH1 0x60 DUP4 ADD MSTORE POP PUSH1 0x80 PUSH2 0x5313 DUP5 DUP3 DUP6 ADD PUSH2 0x4C85 JUMP JUMPDEST PUSH1 0x80 DUP4 ADD MSTORE POP PUSH1 0xA0 PUSH2 0x5327 DUP5 DUP3 DUP6 ADD PUSH2 0x4C85 JUMP JUMPDEST PUSH1 0xA0 DUP4 ADD MSTORE POP PUSH1 0xC0 PUSH2 0x533B DUP5 DUP3 DUP6 ADD PUSH2 0x4C52 JUMP JUMPDEST PUSH1 0xC0 DUP4 ADD MSTORE POP PUSH1 0xE0 PUSH2 0x534F DUP5 DUP3 DUP6 ADD PUSH2 0x4C85 JUMP JUMPDEST PUSH1 0xE0 DUP4 ADD MSTORE POP PUSH2 0x100 PUSH2 0x5364 DUP5 DUP3 DUP6 ADD PUSH2 0x4C52 JUMP JUMPDEST PUSH2 0x100 DUP4 ADD MSTORE POP PUSH2 0x120 PUSH2 0x537A DUP5 DUP3 DUP6 ADD PUSH2 0x4C52 JUMP JUMPDEST PUSH2 0x120 DUP4 ADD MSTORE POP PUSH2 0x140 PUSH2 0x5390 DUP5 DUP3 DUP6 ADD PUSH2 0x4EE7 JUMP JUMPDEST PUSH2 0x140 DUP4 ADD MSTORE POP SWAP3 SWAP2 POP POP JUMP JUMPDEST PUSH0 PUSH2 0x1A0 DUP3 DUP5 SUB SLT ISZERO PUSH2 0x53B3 JUMPI PUSH2 0x53B2 PUSH2 0x442D JUMP JUMPDEST JUMPDEST PUSH0 PUSH2 0x53C0 DUP5 DUP3 DUP6 ADD PUSH2 0x5294 JUMP JUMPDEST SWAP2 POP POP SWAP3 SWAP2 POP POP JUMP JUMPDEST PUSH1 0x20 DUP3 ADD PUSH0 DUP3 ADD MLOAD PUSH2 0x53DD PUSH0 DUP6 ADD DUP3 PUSH2 0x46F6 JUMP JUMPDEST POP POP POP POP JUMP JUMPDEST PUSH0 PUSH1 0x40 DUP3 ADD SWAP1 POP PUSH2 0x53F6 PUSH0 DUP4 ADD DUP6 PUSH2 0x50CA JUMP JUMPDEST PUSH2 0x5403 PUSH1 0x20 DUP4 ADD DUP5 PUSH2 0x53C9 JUMP JUMPDEST SWAP4 SWAP3 POP POP POP JUMP JUMPDEST PUSH32 0x4E487B7100000000000000000000000000000000000000000000000000000000 PUSH0 MSTORE PUSH1 0x11 PUSH1 0x4 MSTORE PUSH1 0x24 PUSH0 REVERT JUMPDEST PUSH0 PUSH2 0x5441 DUP3 PUSH2 0x43F3 JUMP JUMPDEST SWAP2 POP PUSH2 0x544C DUP4 PUSH2 0x43F3 JUMP JUMPDEST SWAP3 POP DUP3 DUP3 MUL PUSH2 0x545A DUP2 PUSH2 0x43F3 JUMP JUMPDEST SWAP2 POP DUP3 DUP3 DIV DUP5 EQ DUP4 ISZERO OR PUSH2 0x5471 JUMPI PUSH2 0x5470 PUSH2 0x540A JUMP JUMPDEST JUMPDEST POP SWAP3 SWAP2 POP POP JUMP JUMPDEST PUSH32 0x4E487B7100000000000000000000000000000000000000000000000000000000 PUSH0 MSTORE PUSH1 0x12 PUSH1 0x4 MSTORE PUSH1 0x24 PUSH0 REVERT JUMPDEST PUSH0 PUSH2 0x54AF DUP3 PUSH2 0x43F3 JUMP JUMPDEST SWAP2 POP PUSH2 0x54BA DUP4 PUSH2 0x43F3 JUMP JUMPDEST SWAP3 POP DUP3 PUSH2 0x54CA JUMPI PUSH2 0x54C9 PUSH2 0x5478 JUMP JUMPDEST JUMPDEST DUP3 DUP3 DIV SWAP1 POP SWAP3 SWAP2 POP POP JUMP JUMPDEST PUSH0 DUP3 DUP3 MSTORE PUSH1 0x20 DUP3 ADD SWAP1 POP SWAP3 SWAP2 POP POP JUMP JUMPDEST PUSH32 0x6D756C206F766572666C6F770000000000000000000000000000000000000000 PUSH0 DUP3 ADD MSTORE POP JUMP JUMPDEST PUSH0 PUSH2 0x5519 PUSH1 0xC DUP4 PUSH2 0x54D5 JUMP JUMPDEST SWAP2 POP PUSH2 0x5524 DUP3 PUSH2 0x54E5 JUMP JUMPDEST PUSH1 0x20 DUP3 ADD SWAP1 POP SWAP2 SWAP1 POP JUMP JUMPDEST PUSH0 PUSH1 0x20 DUP3 ADD SWAP1 POP DUP2 DUP2 SUB PUSH0 DUP4 ADD MSTORE PUSH2 0x5546 DUP2 PUSH2 0x550D JUMP JUMPDEST SWAP1 POP SWAP2 SWAP1 POP JUMP JUMPDEST PUSH0 PUSH2 0x5557 DUP3 PUSH2 0x43F3 JUMP JUMPDEST SWAP2 POP PUSH2 0x5562 DUP4 PUSH2 0x43F3 JUMP JUMPDEST SWAP3 POP DUP3 DUP3 ADD SWAP1 POP DUP1 DUP3 GT ISZERO PUSH2 0x557A JUMPI PUSH2 0x5579 PUSH2 0x540A JUMP JUMPDEST JUMPDEST SWAP3 SWAP2 POP POP JUMP JUMPDEST PUSH32 0x616464206F766572666C6F770000000000000000000000000000000000000000 PUSH0 DUP3 ADD MSTORE POP JUMP JUMPDEST PUSH0 PUSH2 0x55B4 PUSH1 0xC DUP4 PUSH2 0x54D5 JUMP JUMPDEST SWAP2 POP PUSH2 0x55BF DUP3 PUSH2 0x5580 JUMP JUMPDEST PUSH1 0x20 DUP3 ADD SWAP1 POP SWAP2 SWAP1 POP JUMP JUMPDEST PUSH0 PUSH1 0x20 DUP3 ADD SWAP1 POP DUP2 DUP2 SUB PUSH0 DUP4 ADD MSTORE PUSH2 0x55E1 DUP2 PUSH2 0x55A8 JUMP JUMPDEST SWAP1 POP SWAP2 SWAP1 POP JUMP JUMPDEST PUSH1 0x60 DUP3 ADD PUSH0 DUP3 ADD MLOAD PUSH2 0x55FC PUSH0 DUP6 ADD DUP3 PUSH2 0x485A JUMP JUMPDEST POP PUSH1 0x20 DUP3 ADD MLOAD PUSH2 0x560F PUSH1 0x20 DUP6 ADD DUP3 PUSH2 0x4645 JUMP JUMPDEST POP PUSH1 0x40 DUP3 ADD MLOAD PUSH2 0x5622 PUSH1 0x40 DUP6 ADD DUP3 PUSH2 0x4705 JUMP JUMPDEST POP POP POP POP JUMP JUMPDEST PUSH2 0x160 DUP3 ADD PUSH0 DUP3 ADD MLOAD PUSH2 0x563D PUSH0 DUP6 ADD DUP3 PUSH2 0x4645 JUMP JUMPDEST POP PUSH1 0x20 DUP3 ADD MLOAD PUSH2 0x5650 PUSH1 0x20 DUP6 ADD DUP3 PUSH2 0x46F6 JUMP JUMPDEST POP PUSH1 0x40 DUP3 ADD MLOAD PUSH2 0x5663 PUSH1 0x40 DUP6 ADD DUP3 PUSH2 0x46F6 JUMP JUMPDEST POP PUSH1 0x60 DUP3 ADD MLOAD PUSH2 0x5676 PUSH1 0x60 DUP6 ADD DUP3 PUSH2 0x4645 JUMP JUMPDEST POP PUSH1 0x80 DUP3 ADD MLOAD PUSH2 0x5689 PUSH1 0x80 DUP6 ADD DUP3 PUSH2 0x46F6 JUMP JUMPDEST POP PUSH1 0xA0 DUP3 ADD MLOAD PUSH2 0x569C PUSH1 0xA0 DUP6 ADD DUP3 PUSH2 0x4645 JUMP JUMPDEST POP PUSH1 0xC0 DUP3 ADD MLOAD PUSH2 0x56AF PUSH1 0xC0 DUP6 ADD DUP3 PUSH2 0x46F6 JUMP JUMPDEST POP PUSH1 0xE0 DUP3 ADD MLOAD PUSH2 0x56C2 PUSH1 0xE0 DUP6 ADD DUP3 PUSH2 0x46F6 JUMP JUMPDEST POP PUSH2 0x100 DUP3 ADD MLOAD PUSH2 0x56D7 PUSH2 0x100 DUP6 ADD DUP3 PUSH2 0x55E8 JUMP JUMPDEST POP POP POP POP JUMP JUMPDEST PUSH0 PUSH1 0x1 SWAP1 POP SWAP2 SWAP1 POP JUMP JUMPDEST PUSH0 DUP2 SWAP1 POP SWAP3 SWAP2 POP POP JUMP JUMPDEST PUSH0 DUP2 SWAP1 POP SWAP2 SWAP1 POP JUMP JUMPDEST PUSH1 0x60 DUP3 ADD PUSH0 DUP3 ADD MLOAD PUSH2 0x570E PUSH0 DUP6 ADD DUP3 PUSH2 0x46F6 JUMP JUMPDEST POP PUSH1 0x20 DUP3 ADD MLOAD PUSH2 0x5721 PUSH1 0x20 DUP6 ADD DUP3 PUSH2 0x46F6 JUMP JUMPDEST POP PUSH1 0x40 DUP3 ADD MLOAD PUSH2 0x5734 PUSH1 0x40 DUP6 ADD DUP3 PUSH2 0x4645 JUMP JUMPDEST POP POP POP POP JUMP JUMPDEST PUSH0 PUSH2 0x5745 DUP4 DUP4 PUSH2 0x56FA JUMP JUMPDEST PUSH1 0x60 DUP4 ADD SWAP1 POP SWAP3 SWAP2 POP POP JUMP JUMPDEST PUSH0 PUSH1 0x20 DUP3 ADD SWAP1 POP SWAP2 SWAP1 POP JUMP JUMPDEST PUSH2 0x5766 DUP2 PUSH2 0x56DD JUMP JUMPDEST PUSH2 0x5770 DUP2 DUP5 PUSH2 0x56E7 JUMP JUMPDEST SWAP3 POP PUSH2 0x577B DUP3 PUSH2 0x56F1 JUMP JUMPDEST DUP1 PUSH0 JUMPDEST DUP4 DUP2 LT ISZERO PUSH2 0x57AB JUMPI DUP2 MLOAD PUSH2 0x5792 DUP8 DUP3 PUSH2 0x573A JUMP JUMPDEST SWAP7 POP PUSH2 0x579D DUP4 PUSH2 0x5751 JUMP JUMPDEST SWAP3 POP POP PUSH1 0x1 DUP2 ADD SWAP1 POP PUSH2 0x577E JUMP JUMPDEST POP POP POP POP POP POP JUMP JUMPDEST PUSH2 0x3A0 DUP3 ADD PUSH0 DUP3 ADD MLOAD PUSH2 0x57C8 PUSH0 DUP6 ADD DUP3 PUSH2 0x4705 JUMP JUMPDEST POP PUSH1 0x20 DUP3 ADD MLOAD PUSH2 0x57DB PUSH1 0x20 DUP6 ADD DUP3 PUSH2 0x4645 JUMP JUMPDEST POP PUSH1 0x40 DUP3 ADD MLOAD PUSH2 0x57EE PUSH1 0x40 DUP6 ADD DUP3 PUSH2 0x46F6 JUMP JUMPDEST POP PUSH1 0x60 DUP3 ADD MLOAD PUSH2 0x5801 PUSH1 0x60 DUP6 ADD DUP3 PUSH2 0x46F6 JUMP JUMPDEST POP PUSH1 0x80 DUP3 ADD MLOAD PUSH2 0x5814 PUSH1 0x80 DUP6 ADD DUP3 PUSH2 0x46F6 JUMP JUMPDEST POP PUSH1 0xA0 DUP3 ADD MLOAD PUSH2 0x5827 PUSH1 0xA0 DUP6 ADD DUP3 PUSH2 0x4705 JUMP JUMPDEST POP PUSH1 0xC0 DUP3 ADD MLOAD PUSH2 0x583A PUSH1 0xC0 DUP6 ADD DUP3 PUSH2 0x46F6 JUMP JUMPDEST POP PUSH1 0xE0 DUP3 ADD MLOAD PUSH2 0x584D PUSH1 0xE0 DUP6 ADD DUP3 PUSH2 0x4705 JUMP JUMPDEST POP PUSH2 0x100 DUP3 ADD MLOAD PUSH2 0x5862 PUSH2 0x100 DUP6 ADD DUP3 PUSH2 0x4705 JUMP JUMPDEST POP PUSH2 0x120 DUP3 ADD MLOAD PUSH2 0x5877 PUSH2 0x120 DUP6 ADD DUP3 PUSH2 0x46F6 JUMP JUMPDEST POP PUSH2 0x140 DUP3 ADD MLOAD PUSH2 0x588C PUSH2 0x140 DUP6 ADD DUP3 PUSH2 0x5628 JUMP JUMPDEST POP PUSH2 0x160 DUP3 ADD MLOAD PUSH2 0x58A1 PUSH2 0x2A0 DUP6 ADD DUP3 PUSH2 0x46F6 JUMP JUMPDEST POP PUSH2 0x180 DUP3 ADD MLOAD PUSH2 0x58B6 PUSH2 0x2C0 DUP6 ADD DUP3 PUSH2 0x575D JUMP JUMPDEST POP PUSH2 0x1A0 DUP3 ADD MLOAD PUSH2 0x58CB PUSH2 0x320 DUP6 ADD DUP3 PUSH2 0x46F6 JUMP JUMPDEST POP PUSH2 0x1C0 DUP3 ADD MLOAD PUSH2 0x58E0 PUSH2 0x340 DUP6 ADD DUP3 PUSH2 0x4645 JUMP JUMPDEST POP PUSH2 0x1E0 DUP3 ADD MLOAD PUSH2 0x58F5 PUSH2 0x360 DUP6 ADD DUP3 PUSH2 0x46F6 JUMP JUMPDEST POP PUSH2 0x200 DUP3 ADD MLOAD PUSH2 0x590A PUSH2 0x380 DUP6 ADD DUP3 PUSH2 0x46F6 JUMP JUMPDEST POP POP POP POP JUMP JUMPDEST PUSH0 PUSH2 0x3A0 DUP3 ADD SWAP1 POP PUSH2 0x5924 PUSH0 DUP4 ADD DUP5 PUSH2 0x57B3 JUMP JUMPDEST SWAP3 SWAP2 POP POP JUMP JUMPDEST PUSH0 DUP2 SWAP1 POP DUP2 PUSH0 MSTORE PUSH1 0x20 PUSH0 KECCAK256 SWAP1 POP SWAP2 SWAP1 POP JUMP JUMPDEST PUSH0 PUSH1 0x20 PUSH1 0x1F DUP4 ADD DIV SWAP1 POP SWAP2 SWAP1 POP JUMP JUMPDEST PUSH0 DUP3 DUP3 SHL SWAP1 POP SWAP3 SWAP2 POP POP JUMP JUMPDEST PUSH0 PUSH1 0x8 DUP4 MUL PUSH2 0x5986 PUSH32 0xFFFFFFFFFFFFFFFFFFFFFFFFFFFFFFFFFFFFFFFFFFFFFFFFFFFFFFFFFFFFFFFF DUP3 PUSH2 0x594B JUMP JUMPDEST PUSH2 0x5990 DUP7 DUP4 PUSH2 0x594B JUMP JUMPDEST SWAP6 POP DUP1 NOT DUP5 AND SWAP4 POP DUP1 DUP7 AND DUP5 OR SWAP3 POP POP POP SWAP4 SWAP3 POP POP POP JUMP JUMPDEST PUSH0 DUP2 SWAP1 POP SWAP2 SWAP1 POP JUMP JUMPDEST PUSH0 PUSH2 0x59CB PUSH2 0x59C6 PUSH2 0x59C1 DUP5 PUSH2 0x43F3 JUMP JUMPDEST PUSH2 0x59A8 JUMP JUMPDEST PUSH2 0x43F3 JUMP JUMPDEST SWAP1 POP SWAP2 SWAP1 POP JUMP JUMPDEST PUSH0 DUP2 SWAP1 POP SWAP2 SWAP1 POP JUMP JUMPDEST PUSH2 0x59E4 DUP4 PUSH2 0x59B1 JUMP JUMPDEST PUSH2 0x59F8 PUSH2 0x59F0 DUP3 PUSH2 0x59D2 JUMP JUMPDEST DUP5 DUP5 SLOAD PUSH2 0x5957 JUMP JUMPDEST DUP3 SSTORE POP POP POP POP JUMP JUMPDEST PUSH0 SWAP1 JUMP JUMPDEST PUSH2 0x5A0C PUSH2 0x5A00 JUMP JUMPDEST PUSH2 0x5A17 DUP2 DUP5 DUP5 PUSH2 0x59DB JUMP JUMPDEST POP POP POP JUMP JUMPDEST JUMPDEST DUP2 DUP2 LT ISZERO PUSH2 0x5A3A JUMPI PUSH2 0x5A2F PUSH0 DUP3 PUSH2 0x5A04 JUMP JUMPDEST PUSH1 0x1 DUP2 ADD SWAP1 POP PUSH2 0x5A1D JUMP JUMPDEST POP POP JUMP JUMPDEST PUSH1 0x1F DUP3 GT ISZERO PUSH2 0x5A7F JUMPI PUSH2 0x5A50 DUP2 PUSH2 0x592A JUMP JUMPDEST PUSH2 0x5A59 DUP5 PUSH2 0x593C JUMP JUMPDEST DUP2 ADD PUSH1 0x20 DUP6 LT ISZERO PUSH2 0x5A68 JUMPI DUP2 SWAP1 POP JUMPDEST PUSH2 0x5A7C PUSH2 0x5A74 DUP6 PUSH2 0x593C JUMP JUMPDEST DUP4 ADD DUP3 PUSH2 0x5A1C JUMP JUMPDEST POP POP JUMPDEST POP POP POP JUMP JUMPDEST PUSH0 DUP3 DUP3 SHR SWAP1 POP SWAP3 SWAP2 POP POP JUMP JUMPDEST PUSH0 PUSH2 0x5A9F PUSH0 NOT DUP5 PUSH1 0x8 MUL PUSH2 0x5A84 JUMP JUMPDEST NOT DUP1 DUP4 AND SWAP2 POP POP SWAP3 SWAP2 POP POP JUMP JUMPDEST PUSH0 PUSH2 0x5AB7 DUP4 DUP4 PUSH2 0x5A90 JUMP JUMPDEST SWAP2 POP DUP3 PUSH1 0x2 MUL DUP3 OR SWAP1 POP SWAP3 SWAP2 POP POP JUMP JUMPDEST PUSH2 0x5AD0 DUP3 PUSH2 0x48C2 JUMP JUMPDEST PUSH8 0xFFFFFFFFFFFFFFFF DUP2 GT ISZERO PUSH2 0x5AE9 JUMPI PUSH2 0x5AE8 PUSH2 0x497E JUMP JUMPDEST JUMPDEST PUSH2 0x5AF3 DUP3 SLOAD PUSH2 0x4C22 JUMP JUMPDEST PUSH2 0x5AFE DUP3 DUP3 DUP6 PUSH2 0x5A3E JUMP JUMPDEST PUSH0 PUSH1 0x20 SWAP1 POP PUSH1 0x1F DUP4 GT PUSH1 0x1 DUP2 EQ PUSH2 0x5B2F JUMPI PUSH0 DUP5 ISZERO PUSH2 0x5B1D JUMPI DUP3 DUP8 ADD MLOAD SWAP1 POP JUMPDEST PUSH2 0x5B27 DUP6 DUP3 PUSH2 0x5AAC JUMP JUMPDEST DUP7 SSTORE POP PUSH2 0x5B8E JUMP JUMPDEST PUSH1 0x1F NOT DUP5 AND PUSH2 0x5B3D DUP7 PUSH2 0x592A JUMP JUMPDEST PUSH0 JUMPDEST DUP3 DUP2 LT ISZERO PUSH2 0x5B64 JUMPI DUP5 DUP10 ADD MLOAD DUP3 SSTORE PUSH1 0x1 DUP3 ADD SWAP2 POP PUSH1 0x20 DUP6 ADD SWAP5 POP PUSH1 0x20 DUP2 ADD SWAP1 POP PUSH2 0x5B3F JUMP JUMPDEST DUP7 DUP4 LT ISZERO PUSH2 0x5B81 JUMPI DUP5 DUP10 ADD MLOAD PUSH2 0x5B7D PUSH1 0x1F DUP10 AND DUP3 PUSH2 0x5A90 JUMP JUMPDEST DUP4 SSTORE POP JUMPDEST PUSH1 0x1 PUSH1 0x2 DUP9 MUL ADD DUP9 SSTORE POP POP POP JUMPDEST POP POP POP POP POP POP JUMP JUMPDEST PUSH32 0x646976206279207A65726F000000000000000000000000000000000000000000 PUSH0 DUP3 ADD MSTORE POP JUMP JUMPDEST PUSH0 PUSH2 0x5BCA PUSH1 0xB DUP4 PUSH2 0x54D5 JUMP JUMPDEST SWAP2 POP PUSH2 0x5BD5 DUP3 PUSH2 0x5B96 JUMP JUMPDEST PUSH1 0x20 DUP3 ADD SWAP1 POP SWAP2 SWAP1 POP JUMP JUMPDEST PUSH0 PUSH1 0x20 DUP3 ADD SWAP1 POP DUP2 DUP2 SUB PUSH0 DUP4 ADD MSTORE PUSH2 0x5BF7 DUP2 PUSH2 0x5BBE JUMP JUMPDEST SWAP1 POP SWAP2 SWAP1 POP JUMP JUMPDEST PUSH0 PUSH2 0x5C08 DUP3 PUSH2 0x43F3 JUMP JUMPDEST SWAP2 POP PUSH2 0x5C13 DUP4 PUSH2 0x43F3 JUMP JUMPDEST SWAP3 POP DUP3 DUP3 SUB SWAP1 POP DUP2 DUP2 GT ISZERO PUSH2 0x5C2B JUMPI PUSH2 0x5C2A PUSH2 0x540A JUMP JUMPDEST JUMPDEST SWAP3 SWAP2 POP POP JUMP JUMPDEST PUSH32 0x737562207772617061726F756E64000000000000000000000000000000000000 PUSH0 DUP3 ADD MSTORE POP JUMP JUMPDEST PUSH0 PUSH2 0x5C65 PUSH1 0xE DUP4 PUSH2 0x54D5 JUMP JUMPDEST SWAP2 POP PUSH2 0x5C70 DUP3 PUSH2 0x5C31 JUMP JUMPDEST PUSH1 0x20 DUP3 ADD SWAP1 POP SWAP2 SWAP1 POP JUMP JUMPDEST PUSH0 PUSH1 0x20 DUP3 ADD SWAP1 POP DUP2 DUP2 SUB PUSH0 DUP4 ADD MSTORE PUSH2 0x5C92 DUP2 PUSH2 0x5C59 JUMP JUMPDEST SWAP1 POP SWAP2 SWAP1 POP JUMP JUMPDEST PUSH0 PUSH2 0x5CA3 DUP3 PUSH2 0x43F3 JUMP JUMPDEST SWAP2 POP PUSH32 0xFFFFFFFFFFFFFFFFFFFFFFFFFFFFFFFFFFFFFFFFFFFFFFFFFFFFFFFFFFFFFFFF DUP3 SUB PUSH2 0x5CD5 JUMPI PUSH2 0x5CD4 PUSH2 0x540A JUMP JUMPDEST JUMPDEST PUSH1 0x1 DUP3 ADD SWAP1 POP SWAP2 SWAP1 POP JUMP JUMPDEST PUSH0 PUSH1 0x60 DUP3 ADD SWAP1 POP PUSH2 0x5CF3 PUSH0 DUP4 ADD DUP7 PUSH2 0x50CA JUMP JUMPDEST PUSH2 0x5D00 PUSH1 0x20 DUP4 ADD DUP6 PUSH2 0x50CA JUMP JUMPDEST PUSH2 0x5D0D PUSH1 0x40 DUP4 ADD DUP5 PUSH2 0x43FC JUMP JUMPDEST SWAP5 SWAP4 POP POP POP POP JUMP JUMPDEST PUSH0 DUP2 SWAP1 POP SWAP3 SWAP2 POP POP JUMP JUMPDEST PUSH0 PUSH2 0x5D29 DUP3 PUSH2 0x48C2 JUMP JUMPDEST PUSH2 0x5D33 DUP2 DUP6 PUSH2 0x5D15 JUMP JUMPDEST SWAP4 POP PUSH2 0x5D43 DUP2 DUP6 PUSH1 0x20 DUP7 ADD PUSH2 0x48DC JUMP JUMPDEST DUP1 DUP5 ADD SWAP2 POP POP SWAP3 SWAP2 POP POP JUMP JUMPDEST PUSH0 PUSH2 0x5D5A DUP3 DUP5 PUSH2 0x5D1F JUMP JUMPDEST SWAP2 POP DUP2 SWAP1 POP SWAP3 SWAP2 POP POP JUMP JUMPDEST PUSH0 PUSH1 0x20 DUP3 DUP5 SUB SLT ISZERO PUSH2 0x5D7A JUMPI PUSH2 0x5D79 PUSH2 0x442D JUMP JUMPDEST JUMPDEST PUSH0 PUSH2 0x5D87 DUP5 DUP3 DUP6 ADD PUSH2 0x4C71 JUMP JUMPDEST SWAP2 POP POP SWAP3 SWAP2 POP POP JUMP JUMPDEST PUSH0 PUSH1 0x40 DUP3 ADD SWAP1 POP PUSH2 0x5DA3 PUSH0 DUP4 ADD DUP6 PUSH2 0x50CA JUMP JUMPDEST PUSH2 0x5DB0 PUSH1 0x20 DUP4 ADD DUP5 PUSH2 0x43FC JUMP JUMPDEST SWAP4 SWAP3 POP POP POP JUMP INVALID LOG2 PUSH5 0x74726F6E58 0x22 SLT KECCAK256 SWAP16 ORIGIN REVERT SWAP1 MULMOD PUSH15 0xEBA765410D48D4FD7403061193F6D1 NATIVEDELEGATERESOURCE 0xC5 CALLDATACOPY 0x1E 0x28 JUMPDEST 0xC8 SIGNEXTEND 0xEF MULMOD DUP5 PUSH5 0x736F6C6343 STOP ADDMOD EQ STOP CALLER "
    },
    "gasEstimates": {
      "creation": {
        "codeDepositCost": "4809000",
        "executionCost": "infinite",
        "totalCost": "infinite"
      },
      "external": {
        "": "240",
        "Info_adminClaimed()": "infinite",
        "Info_balance()": "infinite",
        "Info_currentSec()": "infinite",
        "Info_currentTime()": "infinite",
        "Info_hasDeadlineReached()": "infinite",
        "Info_myTicketsAmount(address)": "1625",
        "Info_opted(address)": "infinite",
        "Info_props()": "infinite",
        "Info_randomNumber()": "infinite",
        "Info_ticketsBought()": "infinite",
        "Info_token()": "infinite",
        "Info_userClaimed()": "infinite",
        "Info_winner()": "infinite",
        "User_buyTicket(uint256)": "infinite",
        "User_claim()": "infinite",
        "User_delete()": "infinite",
        "User_determinWinnerAfterDeadline(address)": "infinite",
        "User_optin()": "infinite",
        "_reachCreationTime()": "2548",
        "_reachCurrentState()": "infinite",
        "_reachCurrentTime()": "2547",
        "_reachm_0Ref(address)": "infinite",
        "_reachp_1((uint256))": "infinite",
        "_reachp_3((uint256,(uint8,(uint256),bool,bool,(address),bool)))": "infinite"
      },
      "internal": {
        "__reachm_0Ref(address)": "infinite",
        "_reacha_Info_adminClaimed(bool,struct ReachContract.Memory memory)": "infinite",
        "_reacha_Info_balance(bool,struct ReachContract.Memory memory)": "infinite",
        "_reacha_Info_currentSec(bool,struct ReachContract.Memory memory)": "infinite",
        "_reacha_Info_currentTime(bool,struct ReachContract.Memory memory)": "infinite",
        "_reacha_Info_hasDeadlineReached(bool,struct ReachContract.Memory memory)": "infinite",
        "_reacha_Info_myTicketsAmount(address payable,struct ReachContract.Memory memory)": "infinite",
        "_reacha_Info_opted(address payable,struct ReachContract.Memory memory)": "infinite",
        "_reacha_Info_props(bool,struct ReachContract.Memory memory)": "infinite",
        "_reacha_Info_randomNumber(bool,struct ReachContract.Memory memory)": "infinite",
        "_reacha_Info_ticketsBought(bool,struct ReachContract.Memory memory)": "infinite",
        "_reacha_Info_token(bool,struct ReachContract.Memory memory)": "infinite",
        "_reacha_Info_userClaimed(bool,struct ReachContract.Memory memory)": "infinite",
        "_reacha_Info_winner(bool,struct ReachContract.Memory memory)": "infinite",
        "_reacha_User_buyTicket(uint256,struct ReachContract.Memory memory)": "infinite",
        "_reacha_User_claim(bool,struct ReachContract.Memory memory)": "infinite",
        "_reacha_User_delete(bool,struct ReachContract.Memory memory)": "infinite",
        "_reacha_User_determinWinnerAfterDeadline(address payable,struct ReachContract.Memory memory)": "infinite",
        "_reacha_User_optin(bool,struct ReachContract.Memory memory)": "infinite",
        "_reachi_0(struct T12 memory,struct ReachContract.Memory memory)": "infinite",
        "_reachi_1(struct T8 memory,struct ReachContract.Memory memory)": "infinite",
        "_reachi_3(struct T11 memory,struct ReachContract.Memory memory)": "infinite",
        "_reachl_2(struct T14 memory,struct ReachContract.Memory memory)": "infinite",
        "array_set6(struct T5 memory[1] memory,uint256,struct T5 memory)": "infinite"
      }
    },
    "methodIdentifiers": {
      "Info_adminClaimed()": "6a672754",
      "Info_balance()": "883513de",
      "Info_currentSec()": "0677e685",
      "Info_currentTime()": "d184691f",
      "Info_hasDeadlineReached()": "5cd91bc2",
      "Info_myTicketsAmount(address)": "213b7923",
      "Info_opted(address)": "a5792424",
      "Info_props()": "5fde30d8",
      "Info_randomNumber()": "c4807dc7",
      "Info_ticketsBought()": "fa726c84",
      "Info_token()": "7888d2df",
      "Info_userClaimed()": "73c86a71",
      "Info_winner()": "8ddecb6d",
      "User_buyTicket(uint256)": "6cf1d802",
      "User_claim()": "47dc4e6c",
      "User_delete()": "9686b6e9",
      "User_determinWinnerAfterDeadline(address)": "eaa4fd51",
      "User_optin()": "7a2b54dc",
      "_reachCreationTime()": "1e93b0f1",
      "_reachCurrentState()": "ab53f2c6",
      "_reachCurrentTime()": "83230757",
      "_reachm_0Ref(address)": "36e56ea5",
      "_reachp_1((uint256))": "573b8510",
      "_reachp_3((uint256,(uint8,(uint256),bool,bool,(address),bool)))": "08e8b3fb"
    }
  },
  "abi": [
    {
      "inputs": [
        {
          "components": [
            {
              "internalType": "uint256",
              "name": "elem0",
              "type": "uint256"
            },
            {
              "internalType": "bool",
              "name": "elem1",
              "type": "bool"
            },
            {
              "internalType": "uint256",
              "name": "elem2",
              "type": "uint256"
            },
            {
              "internalType": "uint256",
              "name": "elem3",
              "type": "uint256"
            },
            {
              "internalType": "uint256",
              "name": "elem4",
              "type": "uint256"
            },
            {
              "internalType": "uint256",
              "name": "elem5",
              "type": "uint256"
            },
            {
              "internalType": "address payable",
              "name": "elem6",
              "type": "address"
            },
            {
              "internalType": "uint256",
              "name": "elem7",
              "type": "uint256"
            },
            {
              "internalType": "address payable",
              "name": "elem8",
              "type": "address"
            },
            {
              "internalType": "address payable",
              "name": "elem9",
              "type": "address"
            }
          ],
          "internalType": "struct T12",
          "name": "v6180",
          "type": "tuple"
        }
      ],
      "stateMutability": "payable",
      "type": "constructor"
    },
    {
      "inputs": [
        {
          "internalType": "uint256",
          "name": "msg",
          "type": "uint256"
        }
      ],
      "name": "ReachError",
      "type": "error"
    },
    {
      "anonymous": false,
      "inputs": [
        {
          "indexed": false,
          "internalType": "address",
          "name": "_who",
          "type": "address"
        },
        {
          "components": [
            {
              "internalType": "uint256",
              "name": "elem0",
              "type": "uint256"
            },
            {
              "internalType": "bool",
              "name": "elem1",
              "type": "bool"
            },
            {
              "internalType": "uint256",
              "name": "elem2",
              "type": "uint256"
            },
            {
              "internalType": "uint256",
              "name": "elem3",
              "type": "uint256"
            },
            {
              "internalType": "uint256",
              "name": "elem4",
              "type": "uint256"
            },
            {
              "internalType": "uint256",
              "name": "elem5",
              "type": "uint256"
            },
            {
              "internalType": "address payable",
              "name": "elem6",
              "type": "address"
            },
            {
              "internalType": "uint256",
              "name": "elem7",
              "type": "uint256"
            },
            {
              "internalType": "address payable",
              "name": "elem8",
              "type": "address"
            },
            {
              "internalType": "address payable",
              "name": "elem9",
              "type": "address"
            }
          ],
          "indexed": false,
          "internalType": "struct T12",
          "name": "_a",
          "type": "tuple"
        }
      ],
      "name": "_reach_e0",
      "type": "event"
    },
    {
      "anonymous": false,
      "inputs": [
        {
          "indexed": false,
          "internalType": "address",
          "name": "_who",
          "type": "address"
        },
        {
          "components": [
            {
              "internalType": "uint256",
              "name": "elem0",
              "type": "uint256"
            }
          ],
          "indexed": false,
          "internalType": "struct T8",
          "name": "_a",
          "type": "tuple"
        }
      ],
      "name": "_reach_e1",
      "type": "event"
    },
    {
      "anonymous": false,
      "inputs": [
        {
          "indexed": false,
          "internalType": "address",
          "name": "_who",
          "type": "address"
        },
        {
          "components": [
            {
              "internalType": "uint256",
              "name": "elem0",
              "type": "uint256"
            },
            {
              "components": [
                {
                  "internalType": "enum _enum_T10",
                  "name": "which",
                  "type": "uint8"
                },
                {
                  "components": [
                    {
                      "internalType": "uint256",
                      "name": "elem0",
                      "type": "uint256"
                    }
                  ],
                  "internalType": "struct T8",
                  "name": "_User_buyTicket0_266",
                  "type": "tuple"
                },
                {
                  "internalType": "bool",
                  "name": "_User_claim0_266",
                  "type": "bool"
                },
                {
                  "internalType": "bool",
                  "name": "_User_delete0_266",
                  "type": "bool"
                },
                {
                  "components": [
                    {
                      "internalType": "address payable",
                      "name": "elem0",
                      "type": "address"
                    }
                  ],
                  "internalType": "struct T9",
                  "name": "_User_determinWinnerAfterDeadline0_266",
                  "type": "tuple"
                },
                {
                  "internalType": "bool",
                  "name": "_User_optin0_266",
                  "type": "bool"
                }
              ],
              "internalType": "struct T10",
              "name": "elem1",
              "type": "tuple"
            }
          ],
          "indexed": false,
          "internalType": "struct T11",
          "name": "_a",
          "type": "tuple"
        }
      ],
      "name": "_reach_e3",
      "type": "event"
    },
    {
      "anonymous": false,
      "inputs": [
        {
          "indexed": false,
          "internalType": "bool",
          "name": "v0",
          "type": "bool"
        }
      ],
      "name": "_reach_oe_v3515",
      "type": "event"
    },
    {
      "anonymous": false,
      "inputs": [
        {
          "indexed": false,
          "internalType": "bool",
          "name": "v0",
          "type": "bool"
        }
      ],
      "name": "_reach_oe_v3843",
      "type": "event"
    },
    {
      "anonymous": false,
      "inputs": [
        {
          "indexed": false,
          "internalType": "bool",
          "name": "v0",
          "type": "bool"
        }
      ],
      "name": "_reach_oe_v4140",
      "type": "event"
    },
    {
      "anonymous": false,
      "inputs": [
        {
          "indexed": false,
          "internalType": "bool",
          "name": "v0",
          "type": "bool"
        }
      ],
      "name": "_reach_oe_v4461",
      "type": "event"
    },
    {
      "anonymous": false,
      "inputs": [
        {
          "indexed": false,
          "internalType": "bool",
          "name": "v0",
          "type": "bool"
        }
      ],
      "name": "_reach_oe_v4752",
      "type": "event"
    },
    {
      "anonymous": false,
      "inputs": [
        {
          "components": [
            {
              "internalType": "address payable",
              "name": "_address",
              "type": "address"
            },
            {
              "internalType": "uint256",
              "name": "_amount",
              "type": "uint256"
            }
          ],
          "indexed": false,
          "internalType": "struct T15",
          "name": "v0",
          "type": "tuple"
        }
      ],
      "name": "bought",
      "type": "event"
    },
    {
      "stateMutability": "payable",
      "type": "fallback"
    },
    {
      "inputs": [],
      "name": "Info_adminClaimed",
      "outputs": [
        {
          "internalType": "bool",
          "name": "",
          "type": "bool"
        }
      ],
      "stateMutability": "view",
      "type": "function"
    },
    {
      "inputs": [],
      "name": "Info_balance",
      "outputs": [
        {
          "internalType": "uint256",
          "name": "",
          "type": "uint256"
        }
      ],
      "stateMutability": "view",
      "type": "function"
    },
    {
      "inputs": [],
      "name": "Info_currentSec",
      "outputs": [
        {
          "internalType": "uint256",
          "name": "",
          "type": "uint256"
        }
      ],
      "stateMutability": "view",
      "type": "function"
    },
    {
      "inputs": [],
      "name": "Info_currentTime",
      "outputs": [
        {
          "internalType": "uint256",
          "name": "",
          "type": "uint256"
        }
      ],
      "stateMutability": "view",
      "type": "function"
    },
    {
      "inputs": [],
      "name": "Info_hasDeadlineReached",
      "outputs": [
        {
          "internalType": "bool",
          "name": "",
          "type": "bool"
        }
      ],
      "stateMutability": "view",
      "type": "function"
    },
    {
      "inputs": [
        {
          "internalType": "address payable",
          "name": "v6137",
          "type": "address"
        }
      ],
      "name": "Info_myTicketsAmount",
      "outputs": [
        {
          "internalType": "uint256",
          "name": "",
          "type": "uint256"
        }
      ],
      "stateMutability": "view",
      "type": "function"
    },
    {
      "inputs": [
        {
          "internalType": "address payable",
          "name": "v6141",
          "type": "address"
        }
      ],
      "name": "Info_opted",
      "outputs": [
        {
          "internalType": "bool",
          "name": "",
          "type": "bool"
        }
      ],
      "stateMutability": "view",
      "type": "function"
    },
    {
      "inputs": [],
      "name": "Info_props",
      "outputs": [
        {
          "components": [
            {
              "internalType": "uint256",
              "name": "_amountOfRaffleToken",
              "type": "uint256"
            },
            {
              "internalType": "uint256",
              "name": "_cost",
              "type": "uint256"
            },
            {
              "internalType": "address payable",
              "name": "_creator",
              "type": "address"
            },
            {
              "internalType": "uint256",
              "name": "_deadline",
              "type": "uint256"
            },
            {
              "internalType": "bool",
              "name": "_isFeatured",
              "type": "bool"
            },
            {
              "internalType": "address payable",
              "name": "_raffleToken",
              "type": "address"
            }
          ],
          "internalType": "struct T1",
          "name": "",
          "type": "tuple"
        }
      ],
      "stateMutability": "view",
      "type": "function"
    },
    {
      "inputs": [],
      "name": "Info_randomNumber",
      "outputs": [
        {
          "internalType": "uint256",
          "name": "",
          "type": "uint256"
        }
      ],
      "stateMutability": "view",
      "type": "function"
    },
    {
      "inputs": [],
      "name": "Info_ticketsBought",
      "outputs": [
        {
          "internalType": "uint256",
          "name": "",
          "type": "uint256"
        }
      ],
      "stateMutability": "view",
      "type": "function"
    },
    {
      "inputs": [],
      "name": "Info_token",
      "outputs": [
        {
          "internalType": "address payable",
          "name": "",
          "type": "address"
        }
      ],
      "stateMutability": "view",
      "type": "function"
    },
    {
      "inputs": [],
      "name": "Info_userClaimed",
      "outputs": [
        {
          "internalType": "bool",
          "name": "",
          "type": "bool"
        }
      ],
      "stateMutability": "view",
      "type": "function"
    },
    {
      "inputs": [],
      "name": "Info_winner",
      "outputs": [
        {
          "components": [
            {
              "internalType": "enum _enum_T2",
              "name": "which",
              "type": "uint8"
            },
            {
              "internalType": "bool",
              "name": "_None",
              "type": "bool"
            },
            {
              "internalType": "address payable",
              "name": "_Some",
              "type": "address"
            }
          ],
          "internalType": "struct T2",
          "name": "",
          "type": "tuple"
        }
      ],
      "stateMutability": "view",
      "type": "function"
    },
    {
      "inputs": [
        {
          "internalType": "uint256",
          "name": "v6159",
          "type": "uint256"
        }
      ],
      "name": "User_buyTicket",
      "outputs": [
        {
          "internalType": "bool",
          "name": "",
          "type": "bool"
        }
      ],
      "stateMutability": "payable",
      "type": "function"
    },
    {
      "inputs": [],
      "name": "User_claim",
      "outputs": [
        {
          "internalType": "bool",
          "name": "",
          "type": "bool"
        }
      ],
      "stateMutability": "payable",
      "type": "function"
    },
    {
      "inputs": [],
      "name": "User_delete",
      "outputs": [
        {
          "internalType": "bool",
          "name": "",
          "type": "bool"
        }
      ],
      "stateMutability": "payable",
      "type": "function"
    },
    {
      "inputs": [
        {
          "internalType": "address payable",
          "name": "v6173",
          "type": "address"
        }
      ],
      "name": "User_determinWinnerAfterDeadline",
      "outputs": [
        {
          "internalType": "bool",
          "name": "",
          "type": "bool"
        }
      ],
      "stateMutability": "payable",
      "type": "function"
    },
    {
      "inputs": [],
      "name": "User_optin",
      "outputs": [
        {
          "internalType": "bool",
          "name": "",
          "type": "bool"
        }
      ],
      "stateMutability": "payable",
      "type": "function"
    },
    {
      "inputs": [],
      "name": "_reachCreationTime",
      "outputs": [
        {
          "internalType": "uint256",
          "name": "",
          "type": "uint256"
        }
      ],
      "stateMutability": "view",
      "type": "function"
    },
    {
      "inputs": [],
      "name": "_reachCurrentState",
      "outputs": [
        {
          "internalType": "uint256",
          "name": "",
          "type": "uint256"
        },
        {
          "internalType": "bytes",
          "name": "",
          "type": "bytes"
        }
      ],
      "stateMutability": "view",
      "type": "function"
    },
    {
      "inputs": [],
      "name": "_reachCurrentTime",
      "outputs": [
        {
          "internalType": "uint256",
          "name": "",
          "type": "uint256"
        }
      ],
      "stateMutability": "view",
      "type": "function"
    },
    {
      "inputs": [
        {
          "internalType": "address",
          "name": "addr",
          "type": "address"
        }
      ],
      "name": "_reachm_0Ref",
      "outputs": [
        {
          "components": [
            {
              "internalType": "enum _enum_T0",
              "name": "which",
              "type": "uint8"
            },
            {
              "internalType": "bool",
              "name": "_None",
              "type": "bool"
            },
            {
              "internalType": "bool",
              "name": "_Some",
              "type": "bool"
            }
          ],
          "internalType": "struct T0",
          "name": "res",
          "type": "tuple"
        }
      ],
      "stateMutability": "view",
      "type": "function"
    },
    {
      "inputs": [
        {
          "components": [
            {
              "internalType": "uint256",
              "name": "elem0",
              "type": "uint256"
            }
          ],
          "internalType": "struct T8",
          "name": "v6183",
          "type": "tuple"
        }
      ],
      "name": "_reachp_1",
      "outputs": [
        {
          "internalType": "bool",
          "name": "",
          "type": "bool"
        }
      ],
      "stateMutability": "payable",
      "type": "function"
    },
    {
      "inputs": [
        {
          "components": [
            {
              "internalType": "uint256",
              "name": "elem0",
              "type": "uint256"
            },
            {
              "components": [
                {
                  "internalType": "enum _enum_T10",
                  "name": "which",
                  "type": "uint8"
                },
                {
                  "components": [
                    {
                      "internalType": "uint256",
                      "name": "elem0",
                      "type": "uint256"
                    }
                  ],
                  "internalType": "struct T8",
                  "name": "_User_buyTicket0_266",
                  "type": "tuple"
                },
                {
                  "internalType": "bool",
                  "name": "_User_claim0_266",
                  "type": "bool"
                },
                {
                  "internalType": "bool",
                  "name": "_User_delete0_266",
                  "type": "bool"
                },
                {
                  "components": [
                    {
                      "internalType": "address payable",
                      "name": "elem0",
                      "type": "address"
                    }
                  ],
                  "internalType": "struct T9",
                  "name": "_User_determinWinnerAfterDeadline0_266",
                  "type": "tuple"
                },
                {
                  "internalType": "bool",
                  "name": "_User_optin0_266",
                  "type": "bool"
                }
              ],
              "internalType": "struct T10",
              "name": "elem1",
              "type": "tuple"
            }
          ],
          "internalType": "struct T11",
          "name": "v6186",
          "type": "tuple"
        }
      ],
      "name": "_reachp_3",
      "outputs": [
        {
          "internalType": "bool",
          "name": "",
          "type": "bool"
        }
      ],
      "stateMutability": "payable",
      "type": "function"
    },
    {
      "stateMutability": "payable",
      "type": "receive"
    }
  ]
}